{
  "contractName": "MedTrials",
  "abi": [
    {
      "inputs": [
        {
          "internalType": "address",
          "name": "_default_admin",
          "type": "address"
        },
        {
          "internalType": "address",
          "name": "_authorityAdmin",
          "type": "address"
        },
        {
          "internalType": "address",
          "name": "_promotorAdmin",
          "type": "address"
        }
      ],
      "stateMutability": "nonpayable",
      "type": "constructor"
    },
    {
      "anonymous": false,
      "inputs": [
        {
          "indexed": true,
          "internalType": "bytes32",
          "name": "role",
          "type": "bytes32"
        },
        {
          "indexed": true,
          "internalType": "bytes32",
          "name": "previousAdminRole",
          "type": "bytes32"
        },
        {
          "indexed": true,
          "internalType": "bytes32",
          "name": "newAdminRole",
          "type": "bytes32"
        }
      ],
      "name": "RoleAdminChanged",
      "type": "event"
    },
    {
      "anonymous": false,
      "inputs": [
        {
          "indexed": true,
          "internalType": "bytes32",
          "name": "role",
          "type": "bytes32"
        },
        {
          "indexed": true,
          "internalType": "address",
          "name": "account",
          "type": "address"
        },
        {
          "indexed": true,
          "internalType": "address",
          "name": "sender",
          "type": "address"
        }
      ],
      "name": "RoleGranted",
      "type": "event"
    },
    {
      "anonymous": false,
      "inputs": [
        {
          "indexed": true,
          "internalType": "bytes32",
          "name": "role",
          "type": "bytes32"
        },
        {
          "indexed": true,
          "internalType": "address",
          "name": "account",
          "type": "address"
        },
        {
          "indexed": true,
          "internalType": "address",
          "name": "sender",
          "type": "address"
        }
      ],
      "name": "RoleRevoked",
      "type": "event"
    },
    {
      "anonymous": false,
      "inputs": [
        {
          "indexed": false,
          "internalType": "address",
          "name": "_address",
          "type": "address"
        }
      ],
      "name": "authorityAdded",
      "type": "event"
    },
    {
      "anonymous": false,
      "inputs": [
        {
          "indexed": false,
          "internalType": "string",
          "name": "_cid",
          "type": "string"
        }
      ],
      "name": "cidSaved",
      "type": "event"
    },
    {
      "anonymous": false,
      "inputs": [
        {
          "indexed": false,
          "internalType": "string",
          "name": "_patientID",
          "type": "string"
        }
      ],
      "name": "consentGiven",
      "type": "event"
    },
    {
      "anonymous": false,
      "inputs": [
        {
          "indexed": false,
          "internalType": "string",
          "name": "_patientID",
          "type": "string"
        }
      ],
      "name": "consentRevoked",
      "type": "event"
    },
    {
      "anonymous": false,
      "inputs": [
        {
          "indexed": false,
          "internalType": "address",
          "name": "_address",
          "type": "address"
        }
      ],
      "name": "investigatorAdded",
      "type": "event"
    },
    {
      "anonymous": false,
      "inputs": [
        {
          "indexed": false,
          "internalType": "string",
          "name": "_id",
          "type": "string"
        },
        {
          "indexed": false,
          "internalType": "address",
          "name": "_promotor",
          "type": "address"
        },
        {
          "indexed": false,
          "internalType": "address",
          "name": "_investigator",
          "type": "address"
        }
      ],
      "name": "newProtocol",
      "type": "event"
    },
    {
      "anonymous": false,
      "inputs": [
        {
          "indexed": false,
          "internalType": "string",
          "name": "_patientID",
          "type": "string"
        },
        {
          "indexed": false,
          "internalType": "string",
          "name": "_protocolID",
          "type": "string"
        }
      ],
      "name": "patientAdded",
      "type": "event"
    },
    {
      "anonymous": false,
      "inputs": [
        {
          "indexed": false,
          "internalType": "address",
          "name": "_address",
          "type": "address"
        }
      ],
      "name": "promoterAdded",
      "type": "event"
    },
    {
      "anonymous": false,
      "inputs": [
        {
          "indexed": false,
          "internalType": "string",
          "name": "_protocolID",
          "type": "string"
        }
      ],
      "name": "protocolResumed",
      "type": "event"
    },
    {
      "anonymous": false,
      "inputs": [
        {
          "indexed": false,
          "internalType": "string",
          "name": "_protocolID",
          "type": "string"
        }
      ],
      "name": "protocolSuspended",
      "type": "event"
    },
    {
      "anonymous": false,
      "inputs": [
        {
          "indexed": false,
          "internalType": "string",
          "name": "_id",
          "type": "string"
        }
      ],
      "name": "protocolValidated",
      "type": "event"
    },
    {
      "inputs": [],
      "name": "AUTHORITY",
      "outputs": [
        {
          "internalType": "bytes32",
          "name": "",
          "type": "bytes32"
        }
      ],
      "stateMutability": "view",
      "type": "function",
      "constant": true
    },
    {
      "inputs": [],
      "name": "AUTHORITY_ADMIN",
      "outputs": [
        {
          "internalType": "bytes32",
          "name": "",
          "type": "bytes32"
        }
      ],
      "stateMutability": "view",
      "type": "function",
      "constant": true
    },
    {
      "inputs": [],
      "name": "DEFAULT_ADMIN_ROLE",
      "outputs": [
        {
          "internalType": "bytes32",
          "name": "",
          "type": "bytes32"
        }
      ],
      "stateMutability": "view",
      "type": "function",
      "constant": true
    },
    {
      "inputs": [],
      "name": "INVESTIGATOR",
      "outputs": [
        {
          "internalType": "bytes32",
          "name": "",
          "type": "bytes32"
        }
      ],
      "stateMutability": "view",
      "type": "function",
      "constant": true
    },
    {
      "inputs": [],
      "name": "PATIENT",
      "outputs": [
        {
          "internalType": "bytes32",
          "name": "",
          "type": "bytes32"
        }
      ],
      "stateMutability": "view",
      "type": "function",
      "constant": true
    },
    {
      "inputs": [],
      "name": "PROMOTER",
      "outputs": [
        {
          "internalType": "bytes32",
          "name": "",
          "type": "bytes32"
        }
      ],
      "stateMutability": "view",
      "type": "function",
      "constant": true
    },
    {
      "inputs": [],
      "name": "PROMOTER_ADMIN",
      "outputs": [
        {
          "internalType": "bytes32",
          "name": "",
          "type": "bytes32"
        }
      ],
      "stateMutability": "view",
      "type": "function",
      "constant": true
    },
    {
      "inputs": [
        {
          "internalType": "uint256",
          "name": "",
          "type": "uint256"
        }
      ],
      "name": "authorities",
      "outputs": [
        {
          "internalType": "address",
          "name": "authority",
          "type": "address"
        },
        {
          "internalType": "string",
          "name": "cid",
          "type": "string"
        }
      ],
      "stateMutability": "view",
      "type": "function",
      "constant": true
    },
    {
      "inputs": [
        {
          "internalType": "bytes32",
          "name": "role",
          "type": "bytes32"
        }
      ],
      "name": "getRoleAdmin",
      "outputs": [
        {
          "internalType": "bytes32",
          "name": "",
          "type": "bytes32"
        }
      ],
      "stateMutability": "view",
      "type": "function",
      "constant": true
    },
    {
      "inputs": [
        {
          "internalType": "bytes32",
          "name": "role",
          "type": "bytes32"
        },
        {
          "internalType": "address",
          "name": "account",
          "type": "address"
        }
      ],
      "name": "grantRole",
      "outputs": [],
      "stateMutability": "nonpayable",
      "type": "function"
    },
    {
      "inputs": [
        {
          "internalType": "bytes32",
          "name": "role",
          "type": "bytes32"
        },
        {
          "internalType": "address",
          "name": "account",
          "type": "address"
        }
      ],
      "name": "hasRole",
      "outputs": [
        {
          "internalType": "bool",
          "name": "",
          "type": "bool"
        }
      ],
      "stateMutability": "view",
      "type": "function",
      "constant": true
    },
    {
      "inputs": [
        {
          "internalType": "uint256",
          "name": "",
          "type": "uint256"
        }
      ],
      "name": "investigators",
      "outputs": [
        {
          "internalType": "address",
          "name": "promoter",
          "type": "address"
        },
        {
          "internalType": "address",
          "name": "investigator",
          "type": "address"
        },
        {
          "internalType": "string",
          "name": "cid",
          "type": "string"
        }
      ],
      "stateMutability": "view",
      "type": "function",
      "constant": true
    },
    {
      "inputs": [],
      "name": "nbOfAuthorities",
      "outputs": [
        {
          "internalType": "uint256",
          "name": "",
          "type": "uint256"
        }
      ],
      "stateMutability": "view",
      "type": "function",
      "constant": true
    },
    {
      "inputs": [],
      "name": "nbOfInvestigators",
      "outputs": [
        {
          "internalType": "uint256",
          "name": "",
          "type": "uint256"
        }
      ],
      "stateMutability": "view",
      "type": "function",
      "constant": true
    },
    {
      "inputs": [],
      "name": "nbOfPatients",
      "outputs": [
        {
          "internalType": "uint256",
          "name": "",
          "type": "uint256"
        }
      ],
      "stateMutability": "view",
      "type": "function",
      "constant": true
    },
    {
      "inputs": [],
      "name": "nbOfPromoters",
      "outputs": [
        {
          "internalType": "uint256",
          "name": "",
          "type": "uint256"
        }
      ],
      "stateMutability": "view",
      "type": "function",
      "constant": true
    },
    {
      "inputs": [],
      "name": "nbOfProtocolsRegistered",
      "outputs": [
        {
          "internalType": "uint256",
          "name": "",
          "type": "uint256"
        }
      ],
      "stateMutability": "view",
      "type": "function",
      "constant": true
    },
    {
      "inputs": [
        {
          "internalType": "string",
          "name": "",
          "type": "string"
        }
      ],
      "name": "patients",
      "outputs": [
        {
          "internalType": "address",
          "name": "patient",
          "type": "address"
        },
        {
          "internalType": "address",
          "name": "investigator",
          "type": "address"
        },
        {
          "internalType": "string",
          "name": "protocolID",
          "type": "string"
        },
        {
          "internalType": "bool",
          "name": "consent",
          "type": "bool"
        }
      ],
      "stateMutability": "view",
      "type": "function",
      "constant": true
    },
    {
      "inputs": [
        {
          "internalType": "uint256",
          "name": "",
          "type": "uint256"
        }
      ],
      "name": "patientsID",
      "outputs": [
        {
          "internalType": "string",
          "name": "",
          "type": "string"
        }
      ],
      "stateMutability": "view",
      "type": "function",
      "constant": true
    },
    {
      "inputs": [
        {
          "internalType": "uint256",
          "name": "",
          "type": "uint256"
        }
      ],
      "name": "promoters",
      "outputs": [
        {
          "internalType": "address",
          "name": "promoter",
          "type": "address"
        },
        {
          "internalType": "string",
          "name": "cid",
          "type": "string"
        }
      ],
      "stateMutability": "view",
      "type": "function",
      "constant": true
    },
    {
      "inputs": [
        {
          "internalType": "string",
          "name": "",
          "type": "string"
        }
      ],
      "name": "protocols",
      "outputs": [
        {
          "internalType": "string",
          "name": "cid",
          "type": "string"
        },
        {
          "internalType": "address",
          "name": "promoter",
          "type": "address"
        },
        {
          "internalType": "string",
          "name": "status",
          "type": "string"
        },
        {
          "internalType": "address",
          "name": "investigator",
          "type": "address"
        },
        {
          "internalType": "bool",
          "name": "registered",
          "type": "bool"
        },
        {
          "internalType": "bool",
          "name": "authorized",
          "type": "bool"
        },
        {
          "internalType": "bool",
          "name": "alert",
          "type": "bool"
        },
        {
          "internalType": "uint256",
          "name": "nbOfPatients",
          "type": "uint256"
        },
        {
          "internalType": "uint256",
          "name": "index",
          "type": "uint256"
        }
      ],
      "stateMutability": "view",
      "type": "function",
      "constant": true
    },
    {
      "inputs": [
        {
          "internalType": "uint256",
          "name": "",
          "type": "uint256"
        }
      ],
      "name": "protocolsID",
      "outputs": [
        {
          "internalType": "string",
          "name": "",
          "type": "string"
        }
      ],
      "stateMutability": "view",
      "type": "function",
      "constant": true
    },
    {
      "inputs": [
        {
          "internalType": "bytes32",
          "name": "role",
          "type": "bytes32"
        },
        {
          "internalType": "address",
          "name": "account",
          "type": "address"
        }
      ],
      "name": "renounceRole",
      "outputs": [],
      "stateMutability": "nonpayable",
      "type": "function"
    },
    {
      "inputs": [
        {
          "internalType": "bytes32",
          "name": "role",
          "type": "bytes32"
        },
        {
          "internalType": "address",
          "name": "account",
          "type": "address"
        }
      ],
      "name": "revokeRole",
      "outputs": [],
      "stateMutability": "nonpayable",
      "type": "function"
    },
    {
      "inputs": [
        {
          "internalType": "bytes4",
          "name": "interfaceId",
          "type": "bytes4"
        }
      ],
      "name": "supportsInterface",
      "outputs": [
        {
          "internalType": "bool",
          "name": "",
          "type": "bool"
        }
      ],
      "stateMutability": "view",
      "type": "function",
      "constant": true
    },
    {
      "inputs": [
        {
          "internalType": "address",
          "name": "_address",
          "type": "address"
        },
        {
          "internalType": "string",
          "name": "_cid",
          "type": "string"
        }
      ],
      "name": "addAuthority",
      "outputs": [],
      "stateMutability": "nonpayable",
      "type": "function"
    },
    {
      "inputs": [
        {
          "internalType": "address",
          "name": "_address",
          "type": "address"
        },
        {
          "internalType": "string",
          "name": "_cid",
          "type": "string"
        }
      ],
      "name": "addPromoter",
      "outputs": [],
      "stateMutability": "nonpayable",
      "type": "function"
    },
    {
      "inputs": [
        {
          "internalType": "address",
          "name": "_address",
          "type": "address"
        },
        {
          "internalType": "string",
          "name": "_cid",
          "type": "string"
        }
      ],
      "name": "addInvestigator",
      "outputs": [],
      "stateMutability": "nonpayable",
      "type": "function"
    },
    {
      "inputs": [
        {
          "internalType": "string",
          "name": "_id",
          "type": "string"
        },
        {
          "internalType": "string",
          "name": "_cid",
          "type": "string"
        },
        {
          "internalType": "string",
          "name": "center",
          "type": "string"
        },
        {
          "internalType": "string",
          "name": "category",
          "type": "string"
        },
        {
          "internalType": "address",
          "name": "_investigator",
          "type": "address"
        }
      ],
      "name": "registerProtocol",
      "outputs": [],
      "stateMutability": "nonpayable",
      "type": "function"
    },
    {
      "inputs": [
        {
          "internalType": "string",
          "name": "_id",
          "type": "string"
        }
      ],
      "name": "getProtocolCID",
      "outputs": [
        {
          "internalType": "string",
          "name": "",
          "type": "string"
        }
      ],
      "stateMutability": "view",
      "type": "function",
      "constant": true
    },
    {
      "inputs": [
        {
          "internalType": "string",
          "name": "_id",
          "type": "string"
        }
      ],
      "name": "validateProtocol",
      "outputs": [],
      "stateMutability": "nonpayable",
      "type": "function"
    },
    {
      "inputs": [
        {
          "internalType": "string",
          "name": "_id",
          "type": "string"
        }
      ],
      "name": "getProtocol",
      "outputs": [
        {
          "components": [
            {
              "internalType": "string",
              "name": "cid",
              "type": "string"
            },
            {
              "internalType": "address",
              "name": "promoter",
              "type": "address"
            },
            {
              "internalType": "string",
              "name": "status",
              "type": "string"
            },
            {
              "internalType": "address",
              "name": "investigator",
              "type": "address"
            },
            {
              "internalType": "bool",
              "name": "registered",
              "type": "bool"
            },
            {
              "internalType": "bool",
              "name": "authorized",
              "type": "bool"
            },
            {
              "internalType": "bool",
              "name": "alert",
              "type": "bool"
            },
            {
              "internalType": "uint256",
              "name": "nbOfPatients",
              "type": "uint256"
            },
            {
              "internalType": "uint256",
              "name": "index",
              "type": "uint256"
            }
          ],
          "internalType": "struct MedTrials.Protocol",
          "name": "",
          "type": "tuple"
        }
      ],
      "stateMutability": "view",
      "type": "function",
      "constant": true
    },
    {
      "inputs": [
        {
          "internalType": "string",
          "name": "_cid",
          "type": "string"
        },
        {
          "internalType": "string",
          "name": "_patientID",
          "type": "string"
        },
        {
          "internalType": "string",
          "name": "_protocolID",
          "type": "string"
        },
        {
          "internalType": "address",
          "name": "_patientAddress",
          "type": "address"
        }
      ],
      "name": "addPatient",
      "outputs": [],
      "stateMutability": "nonpayable",
      "type": "function"
    },
    {
      "inputs": [
        {
          "internalType": "string",
          "name": "_patientID",
          "type": "string"
        },
        {
          "internalType": "string",
          "name": "_protocolID",
          "type": "string"
        },
        {
          "internalType": "address",
          "name": "_address",
          "type": "address"
        }
      ],
      "name": "revokeConsent",
      "outputs": [],
      "stateMutability": "nonpayable",
      "type": "function"
    },
    {
      "inputs": [
        {
          "internalType": "string",
          "name": "_protocolID",
          "type": "string"
        }
      ],
      "name": "suspendTrials",
      "outputs": [],
      "stateMutability": "nonpayable",
      "type": "function"
    },
    {
      "inputs": [
        {
          "internalType": "string",
          "name": "_protocolID",
          "type": "string"
        }
      ],
      "name": "resumeTrials",
      "outputs": [],
      "stateMutability": "nonpayable",
      "type": "function"
    },
    {
      "inputs": [
        {
          "internalType": "string",
          "name": "_patientID",
          "type": "string"
        },
        {
          "internalType": "string",
          "name": "_cid",
          "type": "string"
        },
        {
          "internalType": "uint256",
          "name": "_alert",
          "type": "uint256"
        }
      ],
      "name": "storeDataCID",
      "outputs": [],
      "stateMutability": "nonpayable",
      "type": "function"
    },
    {
      "inputs": [
        {
          "internalType": "string",
          "name": "_patientID",
          "type": "string"
        }
      ],
      "name": "getDataCID",
      "outputs": [
        {
          "internalType": "string[]",
          "name": "",
          "type": "string[]"
        }
      ],
      "stateMutability": "view",
      "type": "function",
      "constant": true
    },
    {
      "inputs": [
        {
          "internalType": "string",
          "name": "_protocolID",
          "type": "string"
        }
      ],
      "name": "getProtocolStatus",
      "outputs": [
        {
          "internalType": "string",
          "name": "",
          "type": "string"
        }
      ],
      "stateMutability": "view",
      "type": "function",
      "constant": true
    },
    {
      "inputs": [
        {
          "internalType": "address",
          "name": "_address",
          "type": "address"
        }
      ],
      "name": "getRole",
      "outputs": [
        {
          "internalType": "string",
          "name": "",
          "type": "string"
        }
      ],
      "stateMutability": "view",
      "type": "function",
      "constant": true
    },
    {
      "inputs": [
        {
          "internalType": "string",
          "name": "center",
          "type": "string"
        },
        {
          "internalType": "string",
          "name": "category",
          "type": "string"
        }
      ],
      "name": "getProtocoleNumerotation",
      "outputs": [
        {
          "internalType": "uint256",
          "name": "",
          "type": "uint256"
        }
      ],
      "stateMutability": "view",
      "type": "function",
      "constant": true
    },
    {
      "inputs": [
        {
          "internalType": "string",
          "name": "_protocolID",
          "type": "string"
        }
      ],
      "name": "getPatientNumerotation",
      "outputs": [
        {
          "internalType": "uint256",
          "name": "",
          "type": "uint256"
        }
      ],
      "stateMutability": "view",
      "type": "function",
      "constant": true
    }
  ],
  "bytecode": "0x60806040523480156200001157600080fd5b506040516200614a3803806200614a8339818101604052810190620000379190620007da565b6200004c6000801b846200039660201b60201c565b620000817f3e206be88d1de4207c0189003e17add3718b1a1bf78910a785940577239bbdae6000801b620003ac60201b60201c565b620000d37f843b48dccc6ff192f9330133622b0536f7b94feca0cf36e7e46fc50060b6f8827f3e206be88d1de4207c0189003e17add3718b1a1bf78910a785940577239bbdae620003ac60201b60201c565b620001087f47a6ab365f603cf120cb936195de17fd0bac3880ff606e7a0edb5e8e6580b1ae6000801b620003ac60201b60201c565b6200015a7f0996d044c7309cb5a01d79c18ee9e4c86aca84367cbd5bfd5f5d0606acc992737f47a6ab365f603cf120cb936195de17fd0bac3880ff606e7a0edb5e8e6580b1ae620003ac60201b60201c565b620001ac7f97f21e7273917267af1fea4c3510695aa29abe57349ce57ceec11b34688318037f0996d044c7309cb5a01d79c18ee9e4c86aca84367cbd5bfd5f5d0606acc99273620003ac60201b60201c565b620001fe7fe5786ee6f50ab1a5567cb3f3f6840a2f4ddbafdf4a35cb2c52d5b732b1e84a327f97f21e7273917267af1fea4c3510695aa29abe57349ce57ceec11b3468831803620003ac60201b60201c565b620002307f3e206be88d1de4207c0189003e17add3718b1a1bf78910a785940577239bbdae836200039660201b60201c565b620002627f47a6ab365f603cf120cb936195de17fd0bac3880ff606e7a0edb5e8e6580b1ae826200039660201b60201c565b620002776000801b846200040960201b60201c565b6040518060400160405280600f81526020017f415554484f524954592041444d494e0000000000000000000000000000000000815250600860008473ffffffffffffffffffffffffffffffffffffffff1673ffffffffffffffffffffffffffffffffffffffff16815260200190815260200160002090805190602001906200030192919062000713565b506040518060400160405280600e81526020017f50524f4d4f5445522041444d494e000000000000000000000000000000000000815250600860008373ffffffffffffffffffffffffffffffffffffffff1673ffffffffffffffffffffffffffffffffffffffff16815260200190815260200160002090805190602001906200038c92919062000713565b505050506200097e565b620003a882826200049f60201b60201c565b5050565b80620003be836200059060201b60201c565b837fbd79b86ffe0ab8e8776151514217cd7cacd52c909f66475c3af44e129f0b00ff60405160405180910390a480600080848152602001908152602001600020600101819055505050565b62000419620005af60201b60201c565b73ffffffffffffffffffffffffffffffffffffffff168173ffffffffffffffffffffffffffffffffffffffff161462000489576040517f08c379a0000000000000000000000000000000000000000000000000000000008152600401620004809062000898565b60405180910390fd5b6200049b8282620005b760201b60201c565b5050565b620004b18282620006a960201b60201c565b6200058c57600160008084815260200190815260200160002060000160008373ffffffffffffffffffffffffffffffffffffffff1673ffffffffffffffffffffffffffffffffffffffff16815260200190815260200160002060006101000a81548160ff02191690831515021790555062000531620005af60201b60201c565b73ffffffffffffffffffffffffffffffffffffffff168173ffffffffffffffffffffffffffffffffffffffff16837f2f8788117e7eff1d82e926ec794901d17c78024a50270940304540a733656f0d60405160405180910390a45b5050565b6000806000838152602001908152602001600020600101549050919050565b600033905090565b620005c98282620006a960201b60201c565b15620006a557600080600084815260200190815260200160002060000160008373ffffffffffffffffffffffffffffffffffffffff1673ffffffffffffffffffffffffffffffffffffffff16815260200190815260200160002060006101000a81548160ff0219169083151502179055506200064a620005af60201b60201c565b73ffffffffffffffffffffffffffffffffffffffff168173ffffffffffffffffffffffffffffffffffffffff16837ff6391f5c32d9c69d2a47ea670b442974b53935d1edc7fd64eb21e047a839171b60405160405180910390a45b5050565b600080600084815260200190815260200160002060000160008373ffffffffffffffffffffffffffffffffffffffff1673ffffffffffffffffffffffffffffffffffffffff16815260200190815260200160002060009054906101000a900460ff16905092915050565b8280546200072190620008ff565b90600052602060002090601f01602090048101928262000745576000855562000791565b82601f106200076057805160ff191683800117855562000791565b8280016001018555821562000791579182015b828111156200079057825182559160200191906001019062000773565b5b509050620007a09190620007a4565b5090565b5b80821115620007bf576000816000905550600101620007a5565b5090565b600081519050620007d48162000964565b92915050565b600080600060608486031215620007f057600080fd5b60006200080086828701620007c3565b93505060206200081386828701620007c3565b92505060406200082686828701620007c3565b9150509250925092565b60006200083f602f83620008ba565b91507f416363657373436f6e74726f6c3a2063616e206f6e6c792072656e6f756e636560008301527f20726f6c657320666f722073656c6600000000000000000000000000000000006020830152604082019050919050565b60006020820190508181036000830152620008b38162000830565b9050919050565b600082825260208201905092915050565b6000620008d882620008df565b9050919050565b600073ffffffffffffffffffffffffffffffffffffffff82169050919050565b600060028204905060018216806200091857607f821691505b602082108114156200092f576200092e62000935565b5b50919050565b7f4e487b7100000000000000000000000000000000000000000000000000000000600052602260045260246000fd5b6200096f81620008cb565b81146200097b57600080fd5b50565b6157bc806200098e6000396000f3fe608060405234801561001057600080fd5b506004361061025e5760003560e01c8063834afa8111610146578063cd5c3b2b116100c3578063eac9dcae11610087578063eac9dcae1461079e578063eb3b0fc8146107ba578063ebc48391146107ec578063ec9f4bda1461080a578063f7f093b614610828578063fad4fcc7146108585761025e565b8063cd5c3b2b146106e6578063cf2a9a9314610716578063d547741f14610734578063d751b15014610750578063e1d862d9146107805761025e565b8063b040c7c41161010a578063b040c7c41461062b578063b62f9c7414610647578063c1bd2c2014610665578063c4f3983014610683578063c6009d84146106b35761025e565b8063834afa811461058557806389fcd796146105a357806391d14854146105c1578063a1a8316b146105f1578063a217fddf1461060d5761025e565b8063393618a7116101df578063494503d4116101a3578063494503d41461049e578063591fe6da146104cf5780635e49bdaf146104ed5780637992fd37146105095780637ba3ae71146105255780637beb4107146105555761025e565b8063393618a7146103d55780633ca1d75f146103f15780633f0bee321461040d57806343913c5b1461043e578063442767331461046e5761025e565b8063248a9ca311610226578063248a9ca3146103355780632de6388f146103655780632f2ff15d146103815780632f77e62f1461039d57806336568abe146103b95761025e565b806301ffc9a714610263578063090c63301461029357806309c1ce8b146102c35780631dae9454146102df5780631f50006114610317575b600080fd5b61027d60048036038101906102789190613de0565b610876565b60405161028a9190614eba565b60405180910390f35b6102ad60048036038101906102a89190614136565b6108f0565b6040516102ba9190614ef0565b60405180910390f35b6102dd60048036038101906102d89190613fe0565b610990565b005b6102f960048036038101906102f49190613e09565b610f0f565b60405161030e99989796959493929190614f50565b60405180910390f35b61031f6110ea565b60405161032c9190614ed5565b60405180910390f35b61034f600480360381019061034a9190613d7b565b61110e565b60405161035c9190614ed5565b60405180910390f35b61037f600480360381019061037a9190613e09565b61112d565b005b61039b60048036038101906103969190613da4565b6112ae565b005b6103b760048036038101906103b29190613e09565b611314565b005b6103d360048036038101906103ce9190613da4565b611503565b005b6103ef60048036038101906103ea9190613d27565b611586565b005b61040b60048036038101906104069190613d27565b61198b565b005b61042760048036038101906104229190614136565b611d90565b604051610435929190614e68565b60405180910390f35b61045860048036038101906104539190613e09565b611e5c565b60405161046591906153e4565b60405180910390f35b61048860048036038101906104839190613cfe565b611ecd565b6040516104959190614ef0565b60405180910390f35b6104b860048036038101906104b39190614136565b611f9e565b6040516104c6929190614e68565b60405180910390f35b6104d761206a565b6040516104e49190614ed5565b60405180910390f35b61050760048036038101906105029190613d27565b61208e565b005b610523600480360381019061051e9190613f35565b6124ea565b005b61053f600480360381019061053a9190613e09565b6129eb565b60405161054c9190614ef0565b60405180910390f35b61056f600480360381019061056a9190613e09565b612a9e565b60405161057c91906153c2565b60405180910390f35b61058d612d0c565b60405161059a91906153e4565b60405180910390f35b6105ab612d12565b6040516105b89190614ed5565b60405180910390f35b6105db60048036038101906105d69190613da4565b612d36565b6040516105e89190614eba565b60405180910390f35b61060b60048036038101906106069190613e09565b612da0565b005b610615612f19565b6040516106229190614ed5565b60405180910390f35b610645600480360381019061064091906140b7565b612f20565b005b61064f61314e565b60405161065c91906153e4565b60405180910390f35b61066d613154565b60405161067a9190614ed5565b60405180910390f35b61069d60048036038101906106989190613e4a565b613178565b6040516106aa91906153e4565b60405180910390f35b6106cd60048036038101906106c89190613e09565b6131c9565b6040516106dd9493929190614e1c565b60405180910390f35b61070060048036038101906106fb9190614136565b6132e4565b60405161070d9190614ef0565b60405180910390f35b61071e613384565b60405161072b9190614ed5565b60405180910390f35b61074e60048036038101906107499190613da4565b6133a8565b005b61076a60048036038101906107659190613e09565b61340e565b6040516107779190614ef0565b60405180910390f35b6107886134c1565b60405161079591906153e4565b60405180910390f35b6107b860048036038101906107b39190613eb6565b6134c7565b005b6107d460048036038101906107cf9190614136565b613638565b6040516107e393929190614dde565b60405180910390f35b6107f461372a565b60405161080191906153e4565b60405180910390f35b610812613730565b60405161081f9190614ed5565b60405180910390f35b610842600480360381019061083d9190613e09565b613754565b60405161084f9190614e98565b60405180910390f35b6108606138e8565b60405161086d91906153e4565b60405180910390f35b60007f7965db0b000000000000000000000000000000000000000000000000000000007bffffffffffffffffffffffffffffffffffffffffffffffffffffffff1916827bffffffffffffffffffffffffffffffffffffffffffffffffffffffff191614806108e957506108e8826138ee565b5b9050919050565b6004602052806000526040600020600091509050805461090f90615611565b80601f016020809104026020016040519081016040528092919081815260200182805461093b90615611565b80156109885780601f1061095d57610100808354040283529160200191610988565b820191906000526020600020905b81548152906001019060200180831161096b57829003601f168201915b505050505081565b6109ba7f0996d044c7309cb5a01d79c18ee9e4c86aca84367cbd5bfd5f5d0606acc9927333612d36565b6109f9576040517f08c379a00000000000000000000000000000000000000000000000000000000081526004016109f090615222565b60405180910390fd5b610a237f0996d044c7309cb5a01d79c18ee9e4c86aca84367cbd5bfd5f5d0606acc9927382612d36565b15610a63576040517f08c379a0000000000000000000000000000000000000000000000000000000008152600401610a5a906152e2565b60405180910390fd5b610a8d7f843b48dccc6ff192f9330133622b0536f7b94feca0cf36e7e46fc50060b6f88282612d36565b15610acd576040517f08c379a0000000000000000000000000000000000000000000000000000000008152600401610ac490615342565b60405180910390fd5b610af77f47a6ab365f603cf120cb936195de17fd0bac3880ff606e7a0edb5e8e6580b1ae82612d36565b15610b37576040517f08c379a0000000000000000000000000000000000000000000000000000000008152600401610b2e906150e2565b60405180910390fd5b610b617f3e206be88d1de4207c0189003e17add3718b1a1bf78910a785940577239bbdae82612d36565b15610ba1576040517f08c379a0000000000000000000000000000000000000000000000000000000008152600401610b9890615182565b60405180910390fd5b610bcb7f97f21e7273917267af1fea4c3510695aa29abe57349ce57ceec11b346883180382612d36565b610c0a576040517f08c379a0000000000000000000000000000000000000000000000000000000008152600401610c01906152c2565b60405180910390fd5b600185604051610c1a9190614dac565b908152602001604051809103902060030160149054906101000a900460ff1615610c79576040517f08c379a0000000000000000000000000000000000000000000000000000000008152600401610c7090615322565b60405180910390fd5b33600186604051610c8a9190614dac565b908152602001604051809103902060010160006101000a81548173ffffffffffffffffffffffffffffffffffffffff021916908373ffffffffffffffffffffffffffffffffffffffff16021790555080600186604051610cea9190614dac565b908152602001604051809103902060030160006101000a81548173ffffffffffffffffffffffffffffffffffffffff021916908373ffffffffffffffffffffffffffffffffffffffff16021790555060018086604051610d4a9190614dac565b908152602001604051809103902060030160146101000a81548160ff02191690831515021790555083600186604051610d839190614dac565b90815260200160405180910390206000019080519060200190610da7929190613b21565b506040518060400160405280600a81526020017f7265676973746572656400000000000000000000000000000000000000000000815250600186604051610dee9190614dac565b90815260200160405180910390206002019080519060200190610e12929190613b21565b50600b54600186604051610e269190614dac565b9081526020016040518091039020600501819055508460036000600b5481526020019081526020016000209080519060200190610e64929190613b21565b50600b6000815480929190610e7890615643565b9190505550600983604051610e8d9190614dac565b908152602001604051809103902082604051610ea99190614dac565b90815260200160405180910390206000815480929190610ec890615643565b91905055507fff88452d1e63b10e4f05e166bed6696de7594668e0e30daf24839937a0a27fee853383604051610f0093929190614f12565b60405180910390a15050505050565b600181805160208101820180518482526020830160208501208183528095505050505050600091509050806000018054610f4890615611565b80601f0160208091040260200160405190810160405280929190818152602001828054610f7490615611565b8015610fc15780601f10610f9657610100808354040283529160200191610fc1565b820191906000526020600020905b815481529060010190602001808311610fa457829003601f168201915b5050505050908060010160009054906101000a900473ffffffffffffffffffffffffffffffffffffffff1690806002018054610ffc90615611565b80601f016020809104026020016040519081016040528092919081815260200182805461102890615611565b80156110755780601f1061104a57610100808354040283529160200191611075565b820191906000526020600020905b81548152906001019060200180831161105857829003601f168201915b5050505050908060030160009054906101000a900473ffffffffffffffffffffffffffffffffffffffff16908060030160149054906101000a900460ff16908060030160159054906101000a900460ff16908060030160169054906101000a900460ff16908060040154908060050154905089565b7fe5786ee6f50ab1a5567cb3f3f6840a2f4ddbafdf4a35cb2c52d5b732b1e84a3281565b6000806000838152602001908152602001600020600101549050919050565b6111577f843b48dccc6ff192f9330133622b0536f7b94feca0cf36e7e46fc50060b6f88233612d36565b611196576040517f08c379a000000000000000000000000000000000000000000000000000000000815260040161118d90615142565b60405180910390fd5b60006001826040516111a89190614dac565b908152602001604051809103902060030160166101000a81548160ff021916908315150217905550600180826040516111e19190614dac565b908152602001604051809103902060030160156101000a81548160ff0219169083151502179055506040518060400160405280600781526020017f726573756d65640000000000000000000000000000000000000000000000000081525060018260405161124f9190614dac565b90815260200160405180910390206002019080519060200190611273929190613b21565b507fd1c688ddb9e9baabcd8e5f84a85f4933173bc6600b2f361087b41cd9304e2920816040516112a39190614ef0565b60405180910390a150565b6112c76112ba8361110e565b6112c2613958565b612d36565b611306576040517f08c379a00000000000000000000000000000000000000000000000000000000081526004016112fd90615062565b60405180910390fd5b6113108282613960565b5050565b61133e7f843b48dccc6ff192f9330133622b0536f7b94feca0cf36e7e46fc50060b6f88233612d36565b61137d576040517f08c379a000000000000000000000000000000000000000000000000000000000815260040161137490615082565b60405180910390fd5b60018160405161138d9190614dac565b908152602001604051809103902060030160159054906101000a900460ff166113eb576040517f08c379a00000000000000000000000000000000000000000000000000000000081526004016113e2906150c2565b60405180910390fd5b600180826040516113fc9190614dac565b908152602001604051809103902060030160166101000a81548160ff02191690831515021790555060006001826040516114369190614dac565b908152602001604051809103902060030160156101000a81548160ff0219169083151502179055506040518060400160405280600981526020017f73757370656e64656400000000000000000000000000000000000000000000008152506001826040516114a49190614dac565b908152602001604051809103902060020190805190602001906114c8929190613b21565b507fb9f86d562ae4d5d427f505b81f74024716097f50538bc3d5a16f0716ca399559816040516114f89190614ef0565b60405180910390a150565b61150b613958565b73ffffffffffffffffffffffffffffffffffffffff168173ffffffffffffffffffffffffffffffffffffffff1614611578576040517f08c379a000000000000000000000000000000000000000000000000000000000815260040161156f90615382565b60405180910390fd5b6115828282613a40565b5050565b6115b07f47a6ab365f603cf120cb936195de17fd0bac3880ff606e7a0edb5e8e6580b1ae33612d36565b6115ef576040517f08c379a00000000000000000000000000000000000000000000000000000000081526004016115e690615102565b60405180910390fd5b6116197f0996d044c7309cb5a01d79c18ee9e4c86aca84367cbd5bfd5f5d0606acc9927383612d36565b15611659576040517f08c379a000000000000000000000000000000000000000000000000000000000815260040161165090615242565b60405180910390fd5b6116837f97f21e7273917267af1fea4c3510695aa29abe57349ce57ceec11b346883180383612d36565b156116c3576040517f08c379a00000000000000000000000000000000000000000000000000000000081526004016116ba906150a2565b60405180910390fd5b6116ed7f843b48dccc6ff192f9330133622b0536f7b94feca0cf36e7e46fc50060b6f88283612d36565b1561172d576040517f08c379a000000000000000000000000000000000000000000000000000000000815260040161172490615202565b60405180910390fd5b6117577f47a6ab365f603cf120cb936195de17fd0bac3880ff606e7a0edb5e8e6580b1ae83612d36565b15611797576040517f08c379a000000000000000000000000000000000000000000000000000000000815260040161178e906153a2565b60405180910390fd5b6117c17f3e206be88d1de4207c0189003e17add3718b1a1bf78910a785940577239bbdae83612d36565b15611801576040517f08c379a00000000000000000000000000000000000000000000000000000000081526004016117f890615022565b60405180910390fd5b61182b7f0996d044c7309cb5a01d79c18ee9e4c86aca84367cbd5bfd5f5d0606acc99273836112ae565b6040518060400160405280600881526020017f50524f4d4f544552000000000000000000000000000000000000000000000000815250600860008473ffffffffffffffffffffffffffffffffffffffff1673ffffffffffffffffffffffffffffffffffffffff16815260200190815260200160002090805190602001906118b3929190613b21565b508060056000600d54815260200190815260200160002060010190805190602001906118e0929190613b21565b508160056000600d54815260200190815260200160002060000160006101000a81548173ffffffffffffffffffffffffffffffffffffffff021916908373ffffffffffffffffffffffffffffffffffffffff160217905550600d600081548092919061194b90615643565b91905055507f786ebfd921e487d94a7dbf555edf33e5f264f7b59acdcdfe139c08f48f0755598260405161197f9190614dc3565b60405180910390a15050565b6119b57f3e206be88d1de4207c0189003e17add3718b1a1bf78910a785940577239bbdae33612d36565b6119f4576040517f08c379a00000000000000000000000000000000000000000000000000000000081526004016119eb90615042565b60405180910390fd5b611a1e7f843b48dccc6ff192f9330133622b0536f7b94feca0cf36e7e46fc50060b6f88283612d36565b15611a5e576040517f08c379a0000000000000000000000000000000000000000000000000000000008152600401611a55906151e2565b60405180910390fd5b611a887f0996d044c7309cb5a01d79c18ee9e4c86aca84367cbd5bfd5f5d0606acc9927383612d36565b15611ac8576040517f08c379a0000000000000000000000000000000000000000000000000000000008152600401611abf90615302565b60405180910390fd5b611af27f97f21e7273917267af1fea4c3510695aa29abe57349ce57ceec11b346883180383612d36565b15611b32576040517f08c379a0000000000000000000000000000000000000000000000000000000008152600401611b29906150a2565b60405180910390fd5b611b5c7f47a6ab365f603cf120cb936195de17fd0bac3880ff606e7a0edb5e8e6580b1ae83612d36565b15611b9c576040517f08c379a0000000000000000000000000000000000000000000000000000000008152600401611b93906153a2565b60405180910390fd5b611bc67f3e206be88d1de4207c0189003e17add3718b1a1bf78910a785940577239bbdae83612d36565b15611c06576040517f08c379a0000000000000000000000000000000000000000000000000000000008152600401611bfd90615022565b60405180910390fd5b611c307f843b48dccc6ff192f9330133622b0536f7b94feca0cf36e7e46fc50060b6f882836112ae565b6040518060400160405280600981526020017f415554484f524954590000000000000000000000000000000000000000000000815250600860008473ffffffffffffffffffffffffffffffffffffffff1673ffffffffffffffffffffffffffffffffffffffff1681526020019081526020016000209080519060200190611cb8929190613b21565b508060076000600f5481526020019081526020016000206001019080519060200190611ce5929190613b21565b508160076000600f54815260200190815260200160002060000160006101000a81548173ffffffffffffffffffffffffffffffffffffffff021916908373ffffffffffffffffffffffffffffffffffffffff160217905550600f6000815480929190611d5090615643565b91905055507f3c0aee07d693a6f94b1a6aca6097bdde55429f0834eb9c27e3c31a03081f09b482604051611d849190614dc3565b60405180910390a15050565b60056020528060005260406000206000915090508060000160009054906101000a900473ffffffffffffffffffffffffffffffffffffffff1690806001018054611dd990615611565b80601f0160208091040260200160405190810160405280929190818152602001828054611e0590615611565b8015611e525780601f10611e2757610100808354040283529160200191611e52565b820191906000526020600020905b815481529060010190602001808311611e3557829003601f168201915b5050505050905082565b60006001600a60003373ffffffffffffffffffffffffffffffffffffffff1673ffffffffffffffffffffffffffffffffffffffff16815260200190815260200160002083604051611ead9190614dac565b908152602001604051809103902054611ec691906154d1565b9050919050565b6060600860008373ffffffffffffffffffffffffffffffffffffffff1673ffffffffffffffffffffffffffffffffffffffff1681526020019081526020016000208054611f1990615611565b80601f0160208091040260200160405190810160405280929190818152602001828054611f4590615611565b8015611f925780601f10611f6757610100808354040283529160200191611f92565b820191906000526020600020905b815481529060010190602001808311611f7557829003601f168201915b50505050509050919050565b60076020528060005260406000206000915090508060000160009054906101000a900473ffffffffffffffffffffffffffffffffffffffff1690806001018054611fe790615611565b80601f016020809104026020016040519081016040528092919081815260200182805461201390615611565b80156120605780601f1061203557610100808354040283529160200191612060565b820191906000526020600020905b81548152906001019060200180831161204357829003601f168201915b5050505050905082565b7f3e206be88d1de4207c0189003e17add3718b1a1bf78910a785940577239bbdae81565b6120b87f0996d044c7309cb5a01d79c18ee9e4c86aca84367cbd5bfd5f5d0606acc9927333612d36565b6120f7576040517f08c379a00000000000000000000000000000000000000000000000000000000081526004016120ee906151c2565b60405180910390fd5b6121217f97f21e7273917267af1fea4c3510695aa29abe57349ce57ceec11b346883180383612d36565b15612161576040517f08c379a0000000000000000000000000000000000000000000000000000000008152600401612158906152a2565b60405180910390fd5b61218b7f0996d044c7309cb5a01d79c18ee9e4c86aca84367cbd5bfd5f5d0606acc9927383612d36565b156121cb576040517f08c379a00000000000000000000000000000000000000000000000000000000081526004016121c290615302565b60405180910390fd5b6121f57f843b48dccc6ff192f9330133622b0536f7b94feca0cf36e7e46fc50060b6f88283612d36565b15612235576040517f08c379a000000000000000000000000000000000000000000000000000000000815260040161222c90615202565b60405180910390fd5b61225f7f47a6ab365f603cf120cb936195de17fd0bac3880ff606e7a0edb5e8e6580b1ae83612d36565b1561229f576040517f08c379a0000000000000000000000000000000000000000000000000000000008152600401612296906153a2565b60405180910390fd5b6122c97f3e206be88d1de4207c0189003e17add3718b1a1bf78910a785940577239bbdae83612d36565b15612309576040517f08c379a000000000000000000000000000000000000000000000000000000000815260040161230090615022565b60405180910390fd5b6123337f97f21e7273917267af1fea4c3510695aa29abe57349ce57ceec11b3468831803836112ae565b6040518060400160405280600c81526020017f494e56455354494741544f520000000000000000000000000000000000000000815250600860008473ffffffffffffffffffffffffffffffffffffffff1673ffffffffffffffffffffffffffffffffffffffff16815260200190815260200160002090805190602001906123bb929190613b21565b508060066000600e54815260200190815260200160002060020190805190602001906123e8929190613b21565b503360066000600e54815260200190815260200160002060000160006101000a81548173ffffffffffffffffffffffffffffffffffffffff021916908373ffffffffffffffffffffffffffffffffffffffff1602179055508160066000600e54815260200190815260200160002060010160006101000a81548173ffffffffffffffffffffffffffffffffffffffff021916908373ffffffffffffffffffffffffffffffffffffffff160217905550600e60008154809291906124aa90615643565b91905055507fe8418412d360af43b959e2ca49b9ad98feb77e7b5597963ca346077db47d69ba826040516124de9190614dc3565b60405180910390a15050565b600115156001836040516124fe9190614dac565b908152602001604051809103902060030160159054906101000a900460ff1615151461255f576040517f08c379a000000000000000000000000000000000000000000000000000000000815260040161255690615162565b60405180910390fd5b600015156001836040516125739190614dac565b908152602001604051809103902060030160169054906101000a900460ff161515146125d4576040517f08c379a00000000000000000000000000000000000000000000000000000000081526004016125cb90615282565b60405180910390fd5b6002836040516125e49190614dac565b908152602001604051809103902060000160009054906101000a900473ffffffffffffffffffffffffffffffffffffffff1673ffffffffffffffffffffffffffffffffffffffff168173ffffffffffffffffffffffffffffffffffffffff161415612684576040517f08c379a000000000000000000000000000000000000000000000000000000000815260040161267b90615262565b60405180910390fd5b60016002846040516126969190614dac565b908152602001604051809103902060040160006101000a81548160ff021916908315150217905550806002846040516126cf9190614dac565b908152602001604051809103902060000160006101000a81548173ffffffffffffffffffffffffffffffffffffffff021916908373ffffffffffffffffffffffffffffffffffffffff1602179055503360028460405161272f9190614dac565b908152602001604051809103902060010160006101000a81548173ffffffffffffffffffffffffffffffffffffffff021916908373ffffffffffffffffffffffffffffffffffffffff1602179055508160028460405161278f9190614dac565b908152602001604051809103902060020190805190602001906127b3929190613b21565b506001826040516127c49190614dac565b908152602001604051809103902060040160008154809291906127e690615643565b91905055506002836040516127fb9190614dac565b908152602001604051809103902060030184908060018154018082558091505060019003906000526020600020016000909190919091509080519060200190612845929190613b21565b508260046000600c548152602001908152602001600020908051906020019061286f929190613b21565b50600a60003373ffffffffffffffffffffffffffffffffffffffff1673ffffffffffffffffffffffffffffffffffffffff168152602001908152602001600020826040516128bd9190614dac565b908152602001604051809103902060008154809291906128dc90615643565b9190505550600c60008154809291906128f490615643565b91905055506129237fe5786ee6f50ab1a5567cb3f3f6840a2f4ddbafdf4a35cb2c52d5b732b1e84a32826112ae565b6040518060400160405280600781526020017f50415449454e5400000000000000000000000000000000000000000000000000815250600860008373ffffffffffffffffffffffffffffffffffffffff1673ffffffffffffffffffffffffffffffffffffffff16815260200190815260200160002090805190602001906129ab929190613b21565b507f76b4f38e7ada56c131a0c796e7382093d7b5a69175ca0bf513f5827f60f5314d83836040516129dd929190614feb565b60405180910390a150505050565b60606001826040516129fd9190614dac565b90815260200160405180910390206000018054612a1990615611565b80601f0160208091040260200160405190810160405280929190818152602001828054612a4590615611565b8015612a925780601f10612a6757610100808354040283529160200191612a92565b820191906000526020600020905b815481529060010190602001808311612a7557829003601f168201915b50505050509050919050565b612aa6613ba7565b600182604051612ab69190614dac565b908152602001604051809103902060405180610120016040529081600082018054612ae090615611565b80601f0160208091040260200160405190810160405280929190818152602001828054612b0c90615611565b8015612b595780601f10612b2e57610100808354040283529160200191612b59565b820191906000526020600020905b815481529060010190602001808311612b3c57829003601f168201915b505050505081526020016001820160009054906101000a900473ffffffffffffffffffffffffffffffffffffffff1673ffffffffffffffffffffffffffffffffffffffff1673ffffffffffffffffffffffffffffffffffffffff168152602001600282018054612bc890615611565b80601f0160208091040260200160405190810160405280929190818152602001828054612bf490615611565b8015612c415780601f10612c1657610100808354040283529160200191612c41565b820191906000526020600020905b815481529060010190602001808311612c2457829003601f168201915b505050505081526020016003820160009054906101000a900473ffffffffffffffffffffffffffffffffffffffff1673ffffffffffffffffffffffffffffffffffffffff1673ffffffffffffffffffffffffffffffffffffffff1681526020016003820160149054906101000a900460ff161515151581526020016003820160159054906101000a900460ff161515151581526020016003820160169054906101000a900460ff16151515158152602001600482015481526020016005820154815250509050919050565b600c5481565b7f843b48dccc6ff192f9330133622b0536f7b94feca0cf36e7e46fc50060b6f88281565b600080600084815260200190815260200160002060000160008373ffffffffffffffffffffffffffffffffffffffff1673ffffffffffffffffffffffffffffffffffffffff16815260200190815260200160002060009054906101000a900460ff16905092915050565b612dca7f843b48dccc6ff192f9330133622b0536f7b94feca0cf36e7e46fc50060b6f88233612d36565b612e09576040517f08c379a0000000000000000000000000000000000000000000000000000000008152600401612e0090615362565b60405180910390fd5b60018082604051612e1a9190614dac565b908152602001604051809103902060030160156101000a81548160ff0219169083151502179055506040518060400160405280600981526020017f76616c6964617465640000000000000000000000000000000000000000000000815250600182604051612e889190614dac565b90815260200160405180910390206002019080519060200190612eac929190613b21565b5060001515600182604051612ec19190614dac565b908152602001604051809103902060030160169054906101000a905050507fbc0e66a9d9a6660141870110fa7932ebb7fe171d5e52ee9a42674665105f1d1b81604051612f0e9190614ef0565b60405180910390a150565b6000801b81565b600283604051612f309190614dac565b908152602001604051809103902060030182908060018154018082558091505060019003906000526020600020016000909190919091509080519060200190612f7a929190613b21565b506001811415613112576000600284604051612f969190614dac565b90815260200160405180910390206002018054612fb290615611565b80601f0160208091040260200160405190810160405280929190818152602001828054612fde90615611565b801561302b5780601f106130005761010080835404028352916020019161302b565b820191906000526020600020905b81548152906001019060200180831161300e57829003601f168201915b50505050509050600180826040516130439190614dac565b908152602001604051809103902060030160166101000a81548160ff021916908315150217905550600060018260405161307d9190614dac565b908152602001604051809103902060030160156101000a81548160ff0219169083151502179055506040518060400160405280600981526020017f73757370656e64656400000000000000000000000000000000000000000000008152506001826040516130eb9190614dac565b9081526020016040518091039020600201908051906020019061310f929190613b21565b50505b7f2fd00fee6fba014584e65a085e3eb131b03ff5c389c44c3cf9e857d52c1650d6826040516131419190614ef0565b60405180910390a1505050565b600f5481565b7f47a6ab365f603cf120cb936195de17fd0bac3880ff606e7a0edb5e8e6580b1ae81565b6000600160098460405161318c9190614dac565b9081526020016040518091039020836040516131a89190614dac565b9081526020016040518091039020546131c191906154d1565b905092915050565b6002818051602081018201805184825260208301602085012081835280955050505050506000915090508060000160009054906101000a900473ffffffffffffffffffffffffffffffffffffffff16908060010160009054906101000a900473ffffffffffffffffffffffffffffffffffffffff169080600201805461324e90615611565b80601f016020809104026020016040519081016040528092919081815260200182805461327a90615611565b80156132c75780601f1061329c576101008083540402835291602001916132c7565b820191906000526020600020905b8154815290600101906020018083116132aa57829003601f168201915b5050505050908060040160009054906101000a900460ff16905084565b6003602052806000526040600020600091509050805461330390615611565b80601f016020809104026020016040519081016040528092919081815260200182805461332f90615611565b801561337c5780601f106133515761010080835404028352916020019161337c565b820191906000526020600020905b81548152906001019060200180831161335f57829003601f168201915b505050505081565b7f97f21e7273917267af1fea4c3510695aa29abe57349ce57ceec11b346883180381565b6133c16133b48361110e565b6133bc613958565b612d36565b613400576040517f08c379a00000000000000000000000000000000000000000000000000000000081526004016133f7906151a2565b60405180910390fd5b61340a8282613a40565b5050565b60606001826040516134209190614dac565b9081526020016040518091039020600201805461343c90615611565b80601f016020809104026020016040519081016040528092919081815260200182805461346890615611565b80156134b55780601f1061348a576101008083540402835291602001916134b5565b820191906000526020600020905b81548152906001019060200180831161349857829003601f168201915b50505050509050919050565b600d5481565b6001826040516134d79190614dac565b908152602001604051809103902060040160008154809291906134f9906155e7565b919050555060006002846040516135109190614dac565b908152602001604051809103902060040160006101000a81548160ff021916908315150217905550600060028460405161354a9190614dac565b908152602001604051809103902060010160006101000a81548173ffffffffffffffffffffffffffffffffffffffff021916908373ffffffffffffffffffffffffffffffffffffffff16021790555060405180602001604052806000815250600860008373ffffffffffffffffffffffffffffffffffffffff1673ffffffffffffffffffffffffffffffffffffffff16815260200190815260200160002090805190602001906135fb929190613b21565b507f1a24299bbcab71cb3013c24c40adca455867472f22ae6d056e4e0cb2bb0e5a738360405161362b9190614ef0565b60405180910390a1505050565b60066020528060005260406000206000915090508060000160009054906101000a900473ffffffffffffffffffffffffffffffffffffffff16908060010160009054906101000a900473ffffffffffffffffffffffffffffffffffffffff16908060020180546136a790615611565b80601f01602080910402602001604051908101604052809291908181526020018280546136d390615611565b80156137205780601f106136f557610100808354040283529160200191613720565b820191906000526020600020905b81548152906001019060200180831161370357829003601f168201915b5050505050905083565b600b5481565b7f0996d044c7309cb5a01d79c18ee9e4c86aca84367cbd5bfd5f5d0606acc9927381565b60606137807f97f21e7273917267af1fea4c3510695aa29abe57349ce57ceec11b346883180333612d36565b806137b157506137b07fe5786ee6f50ab1a5567cb3f3f6840a2f4ddbafdf4a35cb2c52d5b732b1e84a3233612d36565b5b6137f0576040517f08c379a00000000000000000000000000000000000000000000000000000000081526004016137e790615122565b60405180910390fd5b6002826040516138009190614dac565b9081526020016040518091039020600301805480602002602001604051908101604052809291908181526020016000905b828210156138dd57838290600052602060002001805461385090615611565b80601f016020809104026020016040519081016040528092919081815260200182805461387c90615611565b80156138c95780601f1061389e576101008083540402835291602001916138c9565b820191906000526020600020905b8154815290600101906020018083116138ac57829003601f168201915b505050505081526020019060010190613831565b505050509050919050565b600e5481565b60007f01ffc9a7000000000000000000000000000000000000000000000000000000007bffffffffffffffffffffffffffffffffffffffffffffffffffffffff1916827bffffffffffffffffffffffffffffffffffffffffffffffffffffffff1916149050919050565b600033905090565b61396a8282612d36565b613a3c57600160008084815260200190815260200160002060000160008373ffffffffffffffffffffffffffffffffffffffff1673ffffffffffffffffffffffffffffffffffffffff16815260200190815260200160002060006101000a81548160ff0219169083151502179055506139e1613958565b73ffffffffffffffffffffffffffffffffffffffff168173ffffffffffffffffffffffffffffffffffffffff16837f2f8788117e7eff1d82e926ec794901d17c78024a50270940304540a733656f0d60405160405180910390a45b5050565b613a4a8282612d36565b15613b1d57600080600084815260200190815260200160002060000160008373ffffffffffffffffffffffffffffffffffffffff1673ffffffffffffffffffffffffffffffffffffffff16815260200190815260200160002060006101000a81548160ff021916908315150217905550613ac2613958565b73ffffffffffffffffffffffffffffffffffffffff168173ffffffffffffffffffffffffffffffffffffffff16837ff6391f5c32d9c69d2a47ea670b442974b53935d1edc7fd64eb21e047a839171b60405160405180910390a45b5050565b828054613b2d90615611565b90600052602060002090601f016020900481019282613b4f5760008555613b96565b82601f10613b6857805160ff1916838001178555613b96565b82800160010185558215613b96579182015b82811115613b95578251825591602001919060010190613b7a565b5b509050613ba39190613c25565b5090565b60405180610120016040528060608152602001600073ffffffffffffffffffffffffffffffffffffffff16815260200160608152602001600073ffffffffffffffffffffffffffffffffffffffff16815260200160001515815260200160001515815260200160001515815260200160008152602001600081525090565b5b80821115613c3e576000816000905550600101613c26565b5090565b6000613c55613c5084615430565b6153ff565b905082815260208101848484011115613c6d57600080fd5b613c788482856155a5565b509392505050565b600081359050613c8f8161572a565b92915050565b600081359050613ca481615741565b92915050565b600081359050613cb981615758565b92915050565b600082601f830112613cd057600080fd5b8135613ce0848260208601613c42565b91505092915050565b600081359050613cf88161576f565b92915050565b600060208284031215613d1057600080fd5b6000613d1e84828501613c80565b91505092915050565b60008060408385031215613d3a57600080fd5b6000613d4885828601613c80565b925050602083013567ffffffffffffffff811115613d6557600080fd5b613d7185828601613cbf565b9150509250929050565b600060208284031215613d8d57600080fd5b6000613d9b84828501613c95565b91505092915050565b60008060408385031215613db757600080fd5b6000613dc585828601613c95565b9250506020613dd685828601613c80565b9150509250929050565b600060208284031215613df257600080fd5b6000613e0084828501613caa565b91505092915050565b600060208284031215613e1b57600080fd5b600082013567ffffffffffffffff811115613e3557600080fd5b613e4184828501613cbf565b91505092915050565b60008060408385031215613e5d57600080fd5b600083013567ffffffffffffffff811115613e7757600080fd5b613e8385828601613cbf565b925050602083013567ffffffffffffffff811115613ea057600080fd5b613eac85828601613cbf565b9150509250929050565b600080600060608486031215613ecb57600080fd5b600084013567ffffffffffffffff811115613ee557600080fd5b613ef186828701613cbf565b935050602084013567ffffffffffffffff811115613f0e57600080fd5b613f1a86828701613cbf565b9250506040613f2b86828701613c80565b9150509250925092565b60008060008060808587031215613f4b57600080fd5b600085013567ffffffffffffffff811115613f6557600080fd5b613f7187828801613cbf565b945050602085013567ffffffffffffffff811115613f8e57600080fd5b613f9a87828801613cbf565b935050604085013567ffffffffffffffff811115613fb757600080fd5b613fc387828801613cbf565b9250506060613fd487828801613c80565b91505092959194509250565b600080600080600060a08688031215613ff857600080fd5b600086013567ffffffffffffffff81111561401257600080fd5b61401e88828901613cbf565b955050602086013567ffffffffffffffff81111561403b57600080fd5b61404788828901613cbf565b945050604086013567ffffffffffffffff81111561406457600080fd5b61407088828901613cbf565b935050606086013567ffffffffffffffff81111561408d57600080fd5b61409988828901613cbf565b92505060806140aa88828901613c80565b9150509295509295909350565b6000806000606084860312156140cc57600080fd5b600084013567ffffffffffffffff8111156140e657600080fd5b6140f286828701613cbf565b935050602084013567ffffffffffffffff81111561410f57600080fd5b61411b86828701613cbf565b925050604061412c86828701613ce9565b9150509250925092565b60006020828403121561414857600080fd5b600061415684828501613ce9565b91505092915050565b600061416b8383614233565b905092915050565b61417c81615527565b82525050565b61418b81615527565b82525050565b600061419c82615470565b6141a68185615493565b9350836020820285016141b885615460565b8060005b858110156141f457848403895281516141d5858261415f565b94506141e083615486565b925060208a019950506001810190506141bc565b50829750879550505050505092915050565b61420f81615539565b82525050565b61421e81615539565b82525050565b61422d81615545565b82525050565b600061423e8261547b565b61424881856154a4565b93506142588185602086016155b4565b61426181615719565b840191505092915050565b60006142778261547b565b61428181856154b5565b93506142918185602086016155b4565b61429a81615719565b840191505092915050565b60006142b08261547b565b6142ba81856154c6565b93506142ca8185602086016155b4565b80840191505092915050565b60006142e3601a836154b5565b91507f596f752061726520616e20617574686f726974792061646d696e0000000000006000830152602082019050919050565b6000614323602e836154b5565b91507f4f6e6c792074686520617574686f726974792061646d696e2063616e2061646460008301527f20696e76657374696761746f72730000000000000000000000000000000000006020830152604082019050919050565b6000614389602f836154b5565b91507f416363657373436f6e74726f6c3a2073656e646572206d75737420626520616e60008301527f2061646d696e20746f206772616e7400000000000000000000000000000000006020830152604082019050919050565b60006143ef6024836154b5565b91507f4f6e6c7920617574686f726969746965732063616e2073757370656e6420747260008301527f69616c73000000000000000000000000000000000000000000000000000000006020830152604082019050919050565b60006144556017836154b5565b91507f596f752061726520616e20696e76657374696761746f720000000000000000006000830152602082019050919050565b6000614495601b836154b5565b91507f50726f746f636f6c206e6f7420617574686f72697a65642079657400000000006000830152602082019050919050565b60006144d56029836154b5565b91507f50726f6d6f746572732061646d696e2063616e6e6f7420626520616e20696e7660008301527f657374696761746f7200000000000000000000000000000000000000000000006020830152604082019050919050565b600061453b602d836154b5565b91507f4f6e6c79207468652070726f6d6f746f722061646d696e2063616e206164642060008301527f696e76657374696761746f7273000000000000000000000000000000000000006020830152604082019050919050565b60006145a16036836154b5565b91507f4f6e6c7920696e76657374696761746f7273206f722070617469656e7420636160008301527f6e20636f6c6c656374206f7220726561642064617461000000000000000000006020830152604082019050919050565b60006146076023836154b5565b91507f4f6e6c7920617574686f7269746965732063616e2073757370656e642074726960008301527f616c7300000000000000000000000000000000000000000000000000000000006020830152604082019050919050565b600061466d6029836154b5565b91507f546869732070726f746f636f6c20686173206e6f74206265656e20617574686f60008301527f72697a65642079657400000000000000000000000000000000000000000000006020830152604082019050919050565b60006146d3602b836154b5565b91507f417574686f7269746965732061646d696e2063616e6e6f7420626520616e206960008301527f6e76657374696761746f720000000000000000000000000000000000000000006020830152604082019050919050565b60006147396030836154b5565b91507f416363657373436f6e74726f6c3a2073656e646572206d75737420626520616e60008301527f2061646d696e20746f207265766f6b65000000000000000000000000000000006020830152604082019050919050565b600061479f6027836154b5565b91507f4f6e6c79207468652070726f6d6f746f722063616e2061646420696e7665737460008301527f696761746f7273000000000000000000000000000000000000000000000000006020830152604082019050919050565b6000614805601c836154b5565b91507f596f752061726520616c726561647920616e20617574686f72697479000000006000830152602082019050919050565b60006148456014836154b5565b91507f596f752061726520616e20617574686f726974790000000000000000000000006000830152602082019050919050565b60006148856023836154b5565b91507f4f6e6c792070726f6d6f746572732063616e207375626d69742070726f746f6360008301527f6f6c7300000000000000000000000000000000000000000000000000000000006020830152604082019050919050565b60006148eb601a836154b5565b91507f596f752061726520616c726561647920612070726f6d6f7465720000000000006000830152602082019050919050565b600061492b601a836154b5565b91507f546869732070617469656e7420616c72656164792065786973740000000000006000830152602082019050919050565b600061496b6011836154b5565b91507f546865726520697320616e20616c6572740000000000000000000000000000006000830152602082019050919050565b60006149ab601f836154b5565b91507f596f752061726520616c726561647920616e20696e76657374696761746f72006000830152602082019050919050565b60006149eb6029836154b5565b91507f54686520696e76657374696761746f72206d757374206265207265676973746560008301527f72656420666972737400000000000000000000000000000000000000000000006020830152604082019050919050565b6000614a516021836154b5565b91507f50726f6d6f746572732063616e6e6f7420626520696e76657374696761746f7260008301527f73000000000000000000000000000000000000000000000000000000000000006020830152604082019050919050565b6000614ab76012836154b5565b91507f596f752061726520612070726f6d6f74657200000000000000000000000000006000830152602082019050919050565b6000614af76022836154b5565b91507f5468652070726f746f636f6c20697320616c726561647920726567697374657260008301527f65640000000000000000000000000000000000000000000000000000000000006020830152604082019050919050565b6000614b5d6023836154b5565b91507f417574686f7269746965732063616e6e6f7420626520696e766573746967617460008301527f6f727300000000000000000000000000000000000000000000000000000000006020830152604082019050919050565b6000614bc36031836154b5565b91507f4f6e6c7920617574686f726974696573206861766520726967687420746f207660008301527f616c69646174652070726f746f636f6c730000000000000000000000000000006020830152604082019050919050565b6000614c29602f836154b5565b91507f416363657373436f6e74726f6c3a2063616e206f6e6c792072656e6f756e636560008301527f20726f6c657320666f722073656c6600000000000000000000000000000000006020830152604082019050919050565b6000614c8f6018836154b5565b91507f596f752061726520612070726f6d6f7465722061646d696e00000000000000006000830152602082019050919050565b6000610120830160008301518482036000860152614ce08282614233565b9150506020830151614cf56020860182614173565b5060408301518482036040860152614d0d8282614233565b9150506060830151614d226060860182614173565b506080830151614d356080860182614206565b5060a0830151614d4860a0860182614206565b5060c0830151614d5b60c0860182614206565b5060e0830151614d6e60e0860182614d8e565b50610100830151614d83610100860182614d8e565b508091505092915050565b614d978161559b565b82525050565b614da68161559b565b82525050565b6000614db882846142a5565b915081905092915050565b6000602082019050614dd86000830184614182565b92915050565b6000606082019050614df36000830186614182565b614e006020830185614182565b8181036040830152614e12818461426c565b9050949350505050565b6000608082019050614e316000830187614182565b614e3e6020830186614182565b8181036040830152614e50818561426c565b9050614e5f6060830184614215565b95945050505050565b6000604082019050614e7d6000830185614182565b8181036020830152614e8f818461426c565b90509392505050565b60006020820190508181036000830152614eb28184614191565b905092915050565b6000602082019050614ecf6000830184614215565b92915050565b6000602082019050614eea6000830184614224565b92915050565b60006020820190508181036000830152614f0a818461426c565b905092915050565b60006060820190508181036000830152614f2c818661426c565b9050614f3b6020830185614182565b614f486040830184614182565b949350505050565b6000610120820190508181036000830152614f6b818c61426c565b9050614f7a602083018b614182565b8181036040830152614f8c818a61426c565b9050614f9b6060830189614182565b614fa86080830188614215565b614fb560a0830187614215565b614fc260c0830186614215565b614fcf60e0830185614d9d565b614fdd610100830184614d9d565b9a9950505050505050505050565b60006040820190508181036000830152615005818561426c565b90508181036020830152615019818461426c565b90509392505050565b6000602082019050818103600083015261503b816142d6565b9050919050565b6000602082019050818103600083015261505b81614316565b9050919050565b6000602082019050818103600083015261507b8161437c565b9050919050565b6000602082019050818103600083015261509b816143e2565b9050919050565b600060208201905081810360008301526150bb81614448565b9050919050565b600060208201905081810360008301526150db81614488565b9050919050565b600060208201905081810360008301526150fb816144c8565b9050919050565b6000602082019050818103600083015261511b8161452e565b9050919050565b6000602082019050818103600083015261513b81614594565b9050919050565b6000602082019050818103600083015261515b816145fa565b9050919050565b6000602082019050818103600083015261517b81614660565b9050919050565b6000602082019050818103600083015261519b816146c6565b9050919050565b600060208201905081810360008301526151bb8161472c565b9050919050565b600060208201905081810360008301526151db81614792565b9050919050565b600060208201905081810360008301526151fb816147f8565b9050919050565b6000602082019050818103600083015261521b81614838565b9050919050565b6000602082019050818103600083015261523b81614878565b9050919050565b6000602082019050818103600083015261525b816148de565b9050919050565b6000602082019050818103600083015261527b8161491e565b9050919050565b6000602082019050818103600083015261529b8161495e565b9050919050565b600060208201905081810360008301526152bb8161499e565b9050919050565b600060208201905081810360008301526152db816149de565b9050919050565b600060208201905081810360008301526152fb81614a44565b9050919050565b6000602082019050818103600083015261531b81614aaa565b9050919050565b6000602082019050818103600083015261533b81614aea565b9050919050565b6000602082019050818103600083015261535b81614b50565b9050919050565b6000602082019050818103600083015261537b81614bb6565b9050919050565b6000602082019050818103600083015261539b81614c1c565b9050919050565b600060208201905081810360008301526153bb81614c82565b9050919050565b600060208201905081810360008301526153dc8184614cc2565b905092915050565b60006020820190506153f96000830184614d9d565b92915050565b6000604051905081810181811067ffffffffffffffff82111715615426576154256156ea565b5b8060405250919050565b600067ffffffffffffffff82111561544b5761544a6156ea565b5b601f19601f8301169050602081019050919050565b6000819050602082019050919050565b600081519050919050565b600081519050919050565b6000602082019050919050565b600082825260208201905092915050565b600082825260208201905092915050565b600082825260208201905092915050565b600081905092915050565b60006154dc8261559b565b91506154e78361559b565b9250827fffffffffffffffffffffffffffffffffffffffffffffffffffffffffffffffff0382111561551c5761551b61568c565b5b828201905092915050565b60006155328261557b565b9050919050565b60008115159050919050565b6000819050919050565b60007fffffffff0000000000000000000000000000000000000000000000000000000082169050919050565b600073ffffffffffffffffffffffffffffffffffffffff82169050919050565b6000819050919050565b82818337600083830152505050565b60005b838110156155d25780820151818401526020810190506155b7565b838111156155e1576000848401525b50505050565b60006155f28261559b565b915060008214156156065761560561568c565b5b600182039050919050565b6000600282049050600182168061562957607f821691505b6020821081141561563d5761563c6156bb565b5b50919050565b600061564e8261559b565b91507fffffffffffffffffffffffffffffffffffffffffffffffffffffffffffffffff8214156156815761568061568c565b5b600182019050919050565b7f4e487b7100000000000000000000000000000000000000000000000000000000600052601160045260246000fd5b7f4e487b7100000000000000000000000000000000000000000000000000000000600052602260045260246000fd5b7f4e487b7100000000000000000000000000000000000000000000000000000000600052604160045260246000fd5b6000601f19601f8301169050919050565b61573381615527565b811461573e57600080fd5b50565b61574a81615545565b811461575557600080fd5b50565b6157618161554f565b811461576c57600080fd5b50565b6157788161559b565b811461578357600080fd5b5056fea26469706673582212206caaed709ba11933fe12a68d22e2572d15f706223d4565a8a9f2bf3582f8cd2464736f6c63430008000033",
  "immutableReferences": {},
  "source": "// SPDX-License-Identifier: MIT\npragma solidity 0.8.0;\n\nimport \"../client/node_modules/@openzeppelin/contracts/access/AccessControl.sol\";\n\ncontract MedTrials is AccessControl {\n    struct Protocol {\n        string cid;\n        address promoter;\n        string status;\n        address investigator;\n        bool registered;\n        bool authorized;\n        bool alert;\n        uint256 nbOfPatients;\n        uint256 index;\n    }\n\n    struct Patient {\n        address patient;\n        address investigator;\n        string protocolID;\n        string[] cids;\n        bool consent;\n    }\n\n    struct Promoter {\n        address promoter;\n        string cid;\n    }\n\n    struct Investigator {\n        address promoter;\n        address investigator;\n        string cid;\n    }\n\n    struct Authority {\n        address authority;\n        string cid;\n    }\n\n    mapping(string => Protocol) public protocols;\n    mapping(string => Patient) public patients;\n    mapping(uint256 => string) public protocolsID;\n    mapping(uint256 => string) public patientsID;\n    mapping(uint256 => Promoter) public promoters;\n    mapping(uint256 => Investigator) public investigators;\n    mapping(uint256 => Authority) public authorities;\n    mapping(address => string) roles;\n\n    mapping(string => mapping(string => uint256)) private protocolNumerotation;\n    mapping(address => mapping(string => uint256)) private patientNumerotation;\n\n    bytes32 public constant AUTHORITY = keccak256(\"AUTHORITY\");\n    bytes32 public constant AUTHORITY_ADMIN = keccak256(\"AUTHORITYADMIN\");\n    bytes32 public constant PROMOTER = keccak256(\"PROMOTER\");\n    bytes32 public constant PROMOTER_ADMIN = keccak256(\"PROMOTERADMIN\");\n    bytes32 public constant INVESTIGATOR = keccak256(\"INVESTIGATOR\");\n    bytes32 public constant PATIENT = keccak256(\"PATIENT\");\n\n    uint256 public nbOfProtocolsRegistered;\n    uint256 public nbOfPatients;\n    uint256 public nbOfPromoters;\n    uint256 public nbOfInvestigators;\n    uint256 public nbOfAuthorities;\n\n    event promoterAdded(address _address);\n    event authorityAdded(address _address);\n    event investigatorAdded(address _address);\n    event protocolValidated(string _id);\n    event newProtocol(string _id, address _promotor, address _investigator);\n    event patientAdded(string _patientID, string _protocolID);\n    event consentGiven(string _patientID);\n    event consentRevoked(string _patientID);\n    event cidSaved(string _cid);\n    event protocolSuspended(string _protocolID);\n    event protocolResumed(string _protocolID);\n\n    constructor(\n        address _default_admin,\n        address _authorityAdmin,\n        address _promotorAdmin\n    ) {\n        _setupRole(DEFAULT_ADMIN_ROLE, _default_admin);\n\n        _setRoleAdmin(AUTHORITY_ADMIN, DEFAULT_ADMIN_ROLE);\n        _setRoleAdmin(AUTHORITY, AUTHORITY_ADMIN);\n\n        _setRoleAdmin(PROMOTER_ADMIN, DEFAULT_ADMIN_ROLE);\n        _setRoleAdmin(PROMOTER, PROMOTER_ADMIN);\n\n        _setRoleAdmin(INVESTIGATOR, PROMOTER);\n\n        _setRoleAdmin(PATIENT, INVESTIGATOR);\n\n        _setupRole(AUTHORITY_ADMIN, _authorityAdmin);\n        _setupRole(PROMOTER_ADMIN, _promotorAdmin);\n\n        renounceRole(DEFAULT_ADMIN_ROLE, _default_admin);\n\n        roles[_authorityAdmin] = \"AUTHORITY ADMIN\";\n        roles[_promotorAdmin] = \"PROMOTER ADMIN\";\n    }\n\n    function addAuthority(address _address, string memory _cid) public {\n        require(\n            hasRole(AUTHORITY_ADMIN, msg.sender),\n            \"Only the authority admin can add investigators\"\n        );\n        require(!hasRole(AUTHORITY, _address), \"You are already an authority\");\n        require(!hasRole(PROMOTER, _address), \"You are a promoter\");\n        require(!hasRole(INVESTIGATOR, _address), \"You are an investigator\");\n        require(!hasRole(PROMOTER_ADMIN, _address), \"You are a promoter admin\");\n        require(\n            !hasRole(AUTHORITY_ADMIN, _address),\n            \"You are an authority admin\"\n        );\n\n        grantRole(AUTHORITY, _address);\n        roles[_address] = \"AUTHORITY\";\n\n        authorities[nbOfAuthorities].cid = _cid;\n        authorities[nbOfAuthorities].authority = _address;\n        nbOfAuthorities++;\n\n        emit authorityAdded(_address);\n    }\n\n    function addPromoter(address _address, string memory _cid) public {\n        require(\n            hasRole(PROMOTER_ADMIN, msg.sender),\n            \"Only the promotor admin can add investigators\"\n        );\n        require(!hasRole(PROMOTER, _address), \"You are already a promoter\");\n        require(!hasRole(INVESTIGATOR, _address), \"You are an investigator\");\n        require(!hasRole(AUTHORITY, _address), \"You are an authority\");\n        require(!hasRole(PROMOTER_ADMIN, _address), \"You are a promoter admin\");\n        require(\n            !hasRole(AUTHORITY_ADMIN, _address),\n            \"You are an authority admin\"\n        );\n\n        grantRole(PROMOTER, _address);\n        roles[_address] = \"PROMOTER\";\n\n        promoters[nbOfPromoters].cid = _cid;\n        promoters[nbOfPromoters].promoter = _address;\n        nbOfPromoters++;\n\n        emit promoterAdded(_address);\n    }\n\n    function addInvestigator(address _address, string memory _cid) public {\n        require(\n            hasRole(PROMOTER, msg.sender),\n            \"Only the promotor can add investigators\"\n        );\n        require(\n            !hasRole(INVESTIGATOR, _address),\n            \"You are already an investigator\"\n        );\n        require(!hasRole(PROMOTER, _address), \"You are a promoter\");\n        require(!hasRole(AUTHORITY, _address), \"You are an authority\");\n        require(!hasRole(PROMOTER_ADMIN, _address), \"You are a promoter admin\");\n        require(\n            !hasRole(AUTHORITY_ADMIN, _address),\n            \"You are an authority admin\"\n        );\n\n        grantRole(INVESTIGATOR, _address);\n        roles[_address] = \"INVESTIGATOR\";\n\n        investigators[nbOfInvestigators].cid = _cid;\n        investigators[nbOfInvestigators].promoter = msg.sender;\n        investigators[nbOfInvestigators].investigator = _address;\n        nbOfInvestigators++;\n\n        emit investigatorAdded(_address);\n    }\n\n    function registerProtocol(\n        string memory _id,\n        string memory _cid,\n        string memory center,\n        string memory category,\n        address _investigator\n    ) public {\n        require(\n            hasRole(PROMOTER, msg.sender),\n            \"Only promoters can submit protocols\"\n        );\n        require(\n            !hasRole(PROMOTER, _investigator),\n            \"Promoters cannot be investigators\"\n        );\n        require(\n            !hasRole(AUTHORITY, _investigator),\n            \"Authorities cannot be investigators\"\n        );\n        require(\n            !hasRole(PROMOTER_ADMIN, _investigator),\n            \"Promoters admin cannot be an investigator\"\n        );\n        require(\n            !hasRole(AUTHORITY_ADMIN, _investigator),\n            \"Authorities admin cannot be an investigator\"\n        );\n        require(\n            hasRole(INVESTIGATOR, _investigator),\n            \"The investigator must be registered first\"\n        );\n        require(\n            !protocols[_id].registered,\n            \"The protocol is already registered\"\n        );\n\n        protocols[_id].promoter = msg.sender;\n        protocols[_id].investigator = _investigator;\n        protocols[_id].registered = true;\n        protocols[_id].cid = _cid;\n        protocols[_id].status = \"registered\";\n        protocols[_id].index = nbOfProtocolsRegistered;\n\n        protocolsID[nbOfProtocolsRegistered] = _id;\n        nbOfProtocolsRegistered++;\n\n        protocolNumerotation[center][category]++;\n\n        emit newProtocol(_id, msg.sender, _investigator);\n    }\n\n    function getProtocolCID(string memory _id)\n        public\n        view\n        returns (string memory)\n    {\n        return protocols[_id].cid;\n    }\n\n    function validateProtocol(string memory _id) public {\n        require(\n            hasRole(AUTHORITY, msg.sender),\n            \"Only authorities have right to validate protocols\"\n        );\n\n        protocols[_id].authorized = true;\n        protocols[_id].status = \"validated\";\n        protocols[_id].alert == false;\n\n        emit protocolValidated(_id);\n    }\n\n    function getProtocol(string memory _id)\n        public\n        view\n        returns (Protocol memory)\n    {\n        return protocols[_id];\n    }\n\n    function addPatient(\n        string memory _cid,\n        string memory _patientID,\n        string memory _protocolID,\n        address _patientAddress\n    ) public {\n        require(\n            protocols[_protocolID].authorized == true,\n            \"This protocol has not been authorized yet\"\n        );\n        require(protocols[_protocolID].alert == false, \"There is an alert\");\n        require(\n            _patientAddress != patients[_patientID].patient,\n            \"This patient already exist\"\n        );\n\n        patients[_patientID].consent = true;\n        patients[_patientID].patient = _patientAddress;\n        patients[_patientID].investigator = msg.sender;\n        patients[_patientID].protocolID = _protocolID;\n        protocols[_protocolID].nbOfPatients++;\n        patients[_patientID].cids.push(_cid);\n\n        patientsID[nbOfPatients] = _patientID;\n        patientNumerotation[msg.sender][_protocolID]++;\n\n        nbOfPatients++;\n\n        grantRole(PATIENT, _patientAddress);\n        roles[_patientAddress] = \"PATIENT\";\n\n        emit patientAdded(_patientID, _protocolID);\n    }\n\n    function revokeConsent(\n        string memory _patientID,\n        string memory _protocolID,\n        address _address\n    ) public {\n        protocols[_protocolID].nbOfPatients--;\n        patients[_patientID].consent = false;\n        patients[_patientID].investigator = address(0);\n        roles[_address] = \"\";\n\n        emit consentRevoked(_patientID);\n    }\n\n    function suspendTrials(string memory _protocolID) public {\n        require(\n            hasRole(AUTHORITY, msg.sender),\n            \"Only authoriities can suspend trials\"\n        );\n        require(\n            protocols[_protocolID].authorized,\n            \"Protocol not authorized yet\"\n        );\n\n        protocols[_protocolID].alert = true;\n        protocols[_protocolID].authorized = false;\n        protocols[_protocolID].status = \"suspended\";\n\n        emit protocolSuspended(_protocolID);\n    }\n\n    function resumeTrials(string memory _protocolID) public {\n        require(\n            hasRole(AUTHORITY, msg.sender),\n            \"Only authorities can suspend trials\"\n        );\n\n        protocols[_protocolID].alert = false;\n        protocols[_protocolID].authorized = true;\n        protocols[_protocolID].status = \"resumed\";\n\n        emit protocolResumed(_protocolID);\n    }\n\n    function storeDataCID(\n        string memory _patientID,\n        string memory _cid,\n        uint256 _alert\n    ) public {\n        patients[_patientID].cids.push(_cid);\n\n        if (_alert == 1) {\n            string memory protocolID = patients[_patientID].protocolID;\n\n            protocols[protocolID].alert = true;\n            protocols[protocolID].authorized = false;\n            protocols[protocolID].status = \"suspended\";\n        }\n\n        emit cidSaved(_cid);\n    }\n\n    function getDataCID(string memory _patientID)\n        public\n        view\n        returns (string[] memory)\n    {\n        require(\n            hasRole(INVESTIGATOR, msg.sender) || hasRole(PATIENT, msg.sender),\n            \"Only investigators or patient can collect or read data\"\n        );\n\n        return patients[_patientID].cids;\n    }\n\n    function getProtocolStatus(string memory _protocolID)\n        public\n        view\n        returns (string memory)\n    {\n        return protocols[_protocolID].status;\n    }\n\n    function getRole(address _address) public view returns (string memory) {\n        return roles[_address];\n    }\n\n    function getProtocoleNumerotation(\n        string memory center,\n        string memory category\n    ) public view returns (uint256) {\n        return protocolNumerotation[center][category] + 1;\n    }\n\n    function getPatientNumerotation(string memory _protocolID)\n        public\n        view\n        returns (uint256)\n    {\n        return patientNumerotation[msg.sender][_protocolID] + 1;\n    }\n}\n",
  "sourcePath": "/Users/samuel/Documents/Projet/Pojet_Dev/MedTrials/contracts/MedTrials.sol",
  "compiler": {
    "name": "solc",
    "version": "0.8.0+commit.c7dfd78e.Emscripten.clang"
  },
  "schemaVersion": "3.3.4",
  "updatedAt": "2021-05-21T13:02:51.051Z",
  "networkType": "ethereum",
  "devdoc": {
    "kind": "dev",
    "methods": {
      "getRoleAdmin(bytes32)": {
        "details": "Returns the admin role that controls `role`. See {grantRole} and {revokeRole}. To change a role's admin, use {_setRoleAdmin}."
      },
      "grantRole(bytes32,address)": {
        "details": "Grants `role` to `account`. If `account` had not been already granted `role`, emits a {RoleGranted} event. Requirements: - the caller must have ``role``'s admin role."
      },
      "hasRole(bytes32,address)": {
        "details": "Returns `true` if `account` has been granted `role`."
      },
      "renounceRole(bytes32,address)": {
        "details": "Revokes `role` from the calling account. Roles are often managed via {grantRole} and {revokeRole}: this function's purpose is to provide a mechanism for accounts to lose their privileges if they are compromised (such as when a trusted device is misplaced). If the calling account had been granted `role`, emits a {RoleRevoked} event. Requirements: - the caller must be `account`."
      },
      "revokeRole(bytes32,address)": {
        "details": "Revokes `role` from `account`. If `account` had been granted `role`, emits a {RoleRevoked} event. Requirements: - the caller must have ``role``'s admin role."
      },
      "supportsInterface(bytes4)": {
        "details": "See {IERC165-supportsInterface}."
      }
    },
    "version": 1
  },
  "userdoc": {
    "kind": "user",
    "methods": {},
    "version": 1
  }
}