{
  "contractName": "MedTrials",
  "abi": [
    {
      "inputs": [
        {
          "internalType": "address",
          "name": "_default_admin",
          "type": "address"
        },
        {
          "internalType": "address",
          "name": "_authorityAdmin",
          "type": "address"
        },
        {
          "internalType": "address",
          "name": "_promotorAdmin",
          "type": "address"
        }
      ],
      "stateMutability": "nonpayable",
      "type": "constructor"
    },
    {
      "anonymous": false,
      "inputs": [
        {
          "indexed": true,
          "internalType": "bytes32",
          "name": "role",
          "type": "bytes32"
        },
        {
          "indexed": true,
          "internalType": "bytes32",
          "name": "previousAdminRole",
          "type": "bytes32"
        },
        {
          "indexed": true,
          "internalType": "bytes32",
          "name": "newAdminRole",
          "type": "bytes32"
        }
      ],
      "name": "RoleAdminChanged",
      "type": "event"
    },
    {
      "anonymous": false,
      "inputs": [
        {
          "indexed": true,
          "internalType": "bytes32",
          "name": "role",
          "type": "bytes32"
        },
        {
          "indexed": true,
          "internalType": "address",
          "name": "account",
          "type": "address"
        },
        {
          "indexed": true,
          "internalType": "address",
          "name": "sender",
          "type": "address"
        }
      ],
      "name": "RoleGranted",
      "type": "event"
    },
    {
      "anonymous": false,
      "inputs": [
        {
          "indexed": true,
          "internalType": "bytes32",
          "name": "role",
          "type": "bytes32"
        },
        {
          "indexed": true,
          "internalType": "address",
          "name": "account",
          "type": "address"
        },
        {
          "indexed": true,
          "internalType": "address",
          "name": "sender",
          "type": "address"
        }
      ],
      "name": "RoleRevoked",
      "type": "event"
    },
    {
      "anonymous": false,
      "inputs": [
        {
          "indexed": false,
          "internalType": "address",
          "name": "_address",
          "type": "address"
        }
      ],
      "name": "authorityAdded",
      "type": "event"
    },
    {
      "anonymous": false,
      "inputs": [
        {
          "indexed": false,
          "internalType": "string",
          "name": "_cid",
          "type": "string"
        }
      ],
      "name": "cidSaved",
      "type": "event"
    },
    {
      "anonymous": false,
      "inputs": [
        {
          "indexed": false,
          "internalType": "string",
          "name": "_patientID",
          "type": "string"
        }
      ],
      "name": "consentGiven",
      "type": "event"
    },
    {
      "anonymous": false,
      "inputs": [
        {
          "indexed": false,
          "internalType": "string",
          "name": "_patientID",
          "type": "string"
        }
      ],
      "name": "consentRevoked",
      "type": "event"
    },
    {
      "anonymous": false,
      "inputs": [
        {
          "indexed": false,
          "internalType": "address",
          "name": "_address",
          "type": "address"
        }
      ],
      "name": "investigatorAdded",
      "type": "event"
    },
    {
      "anonymous": false,
      "inputs": [
        {
          "indexed": false,
          "internalType": "string",
          "name": "_id",
          "type": "string"
        },
        {
          "indexed": false,
          "internalType": "address",
          "name": "_promotor",
          "type": "address"
        },
        {
          "indexed": false,
          "internalType": "address",
          "name": "_investigator",
          "type": "address"
        }
      ],
      "name": "newProtocol",
      "type": "event"
    },
    {
      "anonymous": false,
      "inputs": [
        {
          "indexed": false,
          "internalType": "string",
          "name": "_patientID",
          "type": "string"
        },
        {
          "indexed": false,
          "internalType": "string",
          "name": "_protocolID",
          "type": "string"
        }
      ],
      "name": "patientAdded",
      "type": "event"
    },
    {
      "anonymous": false,
      "inputs": [
        {
          "indexed": false,
          "internalType": "address",
          "name": "_address",
          "type": "address"
        }
      ],
      "name": "promoterAdded",
      "type": "event"
    },
    {
      "anonymous": false,
      "inputs": [
        {
          "indexed": false,
          "internalType": "string",
          "name": "_protocolID",
          "type": "string"
        }
      ],
      "name": "protocolResumed",
      "type": "event"
    },
    {
      "anonymous": false,
      "inputs": [
        {
          "indexed": false,
          "internalType": "string",
          "name": "_protocolID",
          "type": "string"
        }
      ],
      "name": "protocolSuspended",
      "type": "event"
    },
    {
      "anonymous": false,
      "inputs": [
        {
          "indexed": false,
          "internalType": "string",
          "name": "_id",
          "type": "string"
        }
      ],
      "name": "protocolValidated",
      "type": "event"
    },
    {
      "inputs": [],
      "name": "AUTHORITY",
      "outputs": [
        {
          "internalType": "bytes32",
          "name": "",
          "type": "bytes32"
        }
      ],
      "stateMutability": "view",
      "type": "function",
      "constant": true
    },
    {
      "inputs": [],
      "name": "AUTHORITY_ADMIN",
      "outputs": [
        {
          "internalType": "bytes32",
          "name": "",
          "type": "bytes32"
        }
      ],
      "stateMutability": "view",
      "type": "function",
      "constant": true
    },
    {
      "inputs": [],
      "name": "DEFAULT_ADMIN_ROLE",
      "outputs": [
        {
          "internalType": "bytes32",
          "name": "",
          "type": "bytes32"
        }
      ],
      "stateMutability": "view",
      "type": "function",
      "constant": true
    },
    {
      "inputs": [],
      "name": "INVESTIGATOR",
      "outputs": [
        {
          "internalType": "bytes32",
          "name": "",
          "type": "bytes32"
        }
      ],
      "stateMutability": "view",
      "type": "function",
      "constant": true
    },
    {
      "inputs": [],
      "name": "PATIENT",
      "outputs": [
        {
          "internalType": "bytes32",
          "name": "",
          "type": "bytes32"
        }
      ],
      "stateMutability": "view",
      "type": "function",
      "constant": true
    },
    {
      "inputs": [],
      "name": "PROMOTER",
      "outputs": [
        {
          "internalType": "bytes32",
          "name": "",
          "type": "bytes32"
        }
      ],
      "stateMutability": "view",
      "type": "function",
      "constant": true
    },
    {
      "inputs": [],
      "name": "PROMOTER_ADMIN",
      "outputs": [
        {
          "internalType": "bytes32",
          "name": "",
          "type": "bytes32"
        }
      ],
      "stateMutability": "view",
      "type": "function",
      "constant": true
    },
    {
      "inputs": [
        {
          "internalType": "uint256",
          "name": "",
          "type": "uint256"
        }
      ],
      "name": "authorities",
      "outputs": [
        {
          "internalType": "address",
          "name": "authority",
          "type": "address"
        },
        {
          "internalType": "string",
          "name": "cid",
          "type": "string"
        }
      ],
      "stateMutability": "view",
      "type": "function",
      "constant": true
    },
    {
      "inputs": [
        {
          "internalType": "bytes32",
          "name": "role",
          "type": "bytes32"
        }
      ],
      "name": "getRoleAdmin",
      "outputs": [
        {
          "internalType": "bytes32",
          "name": "",
          "type": "bytes32"
        }
      ],
      "stateMutability": "view",
      "type": "function",
      "constant": true
    },
    {
      "inputs": [
        {
          "internalType": "bytes32",
          "name": "role",
          "type": "bytes32"
        },
        {
          "internalType": "address",
          "name": "account",
          "type": "address"
        }
      ],
      "name": "grantRole",
      "outputs": [],
      "stateMutability": "nonpayable",
      "type": "function"
    },
    {
      "inputs": [
        {
          "internalType": "bytes32",
          "name": "role",
          "type": "bytes32"
        },
        {
          "internalType": "address",
          "name": "account",
          "type": "address"
        }
      ],
      "name": "hasRole",
      "outputs": [
        {
          "internalType": "bool",
          "name": "",
          "type": "bool"
        }
      ],
      "stateMutability": "view",
      "type": "function",
      "constant": true
    },
    {
      "inputs": [
        {
          "internalType": "uint256",
          "name": "",
          "type": "uint256"
        }
      ],
      "name": "investigators",
      "outputs": [
        {
          "internalType": "address",
          "name": "promoter",
          "type": "address"
        },
        {
          "internalType": "address",
          "name": "investigator",
          "type": "address"
        },
        {
          "internalType": "string",
          "name": "cid",
          "type": "string"
        }
      ],
      "stateMutability": "view",
      "type": "function",
      "constant": true
    },
    {
      "inputs": [],
      "name": "nbOfAuthorities",
      "outputs": [
        {
          "internalType": "uint256",
          "name": "",
          "type": "uint256"
        }
      ],
      "stateMutability": "view",
      "type": "function",
      "constant": true
    },
    {
      "inputs": [],
      "name": "nbOfInvestigators",
      "outputs": [
        {
          "internalType": "uint256",
          "name": "",
          "type": "uint256"
        }
      ],
      "stateMutability": "view",
      "type": "function",
      "constant": true
    },
    {
      "inputs": [],
      "name": "nbOfPatients",
      "outputs": [
        {
          "internalType": "uint256",
          "name": "",
          "type": "uint256"
        }
      ],
      "stateMutability": "view",
      "type": "function",
      "constant": true
    },
    {
      "inputs": [],
      "name": "nbOfPromoters",
      "outputs": [
        {
          "internalType": "uint256",
          "name": "",
          "type": "uint256"
        }
      ],
      "stateMutability": "view",
      "type": "function",
      "constant": true
    },
    {
      "inputs": [],
      "name": "nbOfProtocolsRegistered",
      "outputs": [
        {
          "internalType": "uint256",
          "name": "",
          "type": "uint256"
        }
      ],
      "stateMutability": "view",
      "type": "function",
      "constant": true
    },
    {
      "inputs": [
        {
          "internalType": "string",
          "name": "",
          "type": "string"
        }
      ],
      "name": "patients",
      "outputs": [
        {
          "internalType": "address",
          "name": "patient",
          "type": "address"
        },
        {
          "internalType": "address",
          "name": "investigator",
          "type": "address"
        },
        {
          "internalType": "string",
          "name": "protocolID",
          "type": "string"
        },
        {
          "internalType": "bool",
          "name": "consent",
          "type": "bool"
        }
      ],
      "stateMutability": "view",
      "type": "function",
      "constant": true
    },
    {
      "inputs": [
        {
          "internalType": "uint256",
          "name": "",
          "type": "uint256"
        }
      ],
      "name": "patientsID",
      "outputs": [
        {
          "internalType": "string",
          "name": "",
          "type": "string"
        }
      ],
      "stateMutability": "view",
      "type": "function",
      "constant": true
    },
    {
      "inputs": [
        {
          "internalType": "uint256",
          "name": "",
          "type": "uint256"
        }
      ],
      "name": "promoters",
      "outputs": [
        {
          "internalType": "address",
          "name": "promoter",
          "type": "address"
        },
        {
          "internalType": "string",
          "name": "cid",
          "type": "string"
        }
      ],
      "stateMutability": "view",
      "type": "function",
      "constant": true
    },
    {
      "inputs": [
        {
          "internalType": "string",
          "name": "",
          "type": "string"
        }
      ],
      "name": "protocols",
      "outputs": [
        {
          "internalType": "string",
          "name": "cid",
          "type": "string"
        },
        {
          "internalType": "address",
          "name": "promoter",
          "type": "address"
        },
        {
          "internalType": "string",
          "name": "status",
          "type": "string"
        },
        {
          "internalType": "address",
          "name": "investigator",
          "type": "address"
        },
        {
          "internalType": "bool",
          "name": "registered",
          "type": "bool"
        },
        {
          "internalType": "bool",
          "name": "authorized",
          "type": "bool"
        },
        {
          "internalType": "uint256",
          "name": "nbOfPatients",
          "type": "uint256"
        },
        {
          "internalType": "uint256",
          "name": "index",
          "type": "uint256"
        }
      ],
      "stateMutability": "view",
      "type": "function",
      "constant": true
    },
    {
      "inputs": [
        {
          "internalType": "uint256",
          "name": "",
          "type": "uint256"
        }
      ],
      "name": "protocolsID",
      "outputs": [
        {
          "internalType": "string",
          "name": "",
          "type": "string"
        }
      ],
      "stateMutability": "view",
      "type": "function",
      "constant": true
    },
    {
      "inputs": [
        {
          "internalType": "bytes32",
          "name": "role",
          "type": "bytes32"
        },
        {
          "internalType": "address",
          "name": "account",
          "type": "address"
        }
      ],
      "name": "renounceRole",
      "outputs": [],
      "stateMutability": "nonpayable",
      "type": "function"
    },
    {
      "inputs": [
        {
          "internalType": "bytes32",
          "name": "role",
          "type": "bytes32"
        },
        {
          "internalType": "address",
          "name": "account",
          "type": "address"
        }
      ],
      "name": "revokeRole",
      "outputs": [],
      "stateMutability": "nonpayable",
      "type": "function"
    },
    {
      "inputs": [
        {
          "internalType": "bytes4",
          "name": "interfaceId",
          "type": "bytes4"
        }
      ],
      "name": "supportsInterface",
      "outputs": [
        {
          "internalType": "bool",
          "name": "",
          "type": "bool"
        }
      ],
      "stateMutability": "view",
      "type": "function",
      "constant": true
    },
    {
      "inputs": [
        {
          "internalType": "address",
          "name": "_address",
          "type": "address"
        },
        {
          "internalType": "string",
          "name": "_cid",
          "type": "string"
        }
      ],
      "name": "addAuthority",
      "outputs": [],
      "stateMutability": "nonpayable",
      "type": "function"
    },
    {
      "inputs": [
        {
          "internalType": "address",
          "name": "_address",
          "type": "address"
        },
        {
          "internalType": "string",
          "name": "_cid",
          "type": "string"
        }
      ],
      "name": "addPromoter",
      "outputs": [],
      "stateMutability": "nonpayable",
      "type": "function"
    },
    {
      "inputs": [
        {
          "internalType": "address",
          "name": "_address",
          "type": "address"
        },
        {
          "internalType": "string",
          "name": "_cid",
          "type": "string"
        }
      ],
      "name": "addInvestigator",
      "outputs": [],
      "stateMutability": "nonpayable",
      "type": "function"
    },
    {
      "inputs": [
        {
          "internalType": "string",
          "name": "_id",
          "type": "string"
        },
        {
          "internalType": "string",
          "name": "_cid",
          "type": "string"
        },
        {
          "internalType": "string",
          "name": "center",
          "type": "string"
        },
        {
          "internalType": "string",
          "name": "category",
          "type": "string"
        },
        {
          "internalType": "address",
          "name": "_investigator",
          "type": "address"
        }
      ],
      "name": "registerProtocol",
      "outputs": [],
      "stateMutability": "nonpayable",
      "type": "function"
    },
    {
      "inputs": [
        {
          "internalType": "string",
          "name": "_id",
          "type": "string"
        }
      ],
      "name": "getProtocolCID",
      "outputs": [
        {
          "internalType": "string",
          "name": "",
          "type": "string"
        }
      ],
      "stateMutability": "view",
      "type": "function",
      "constant": true
    },
    {
      "inputs": [
        {
          "internalType": "string",
          "name": "_id",
          "type": "string"
        }
      ],
      "name": "validateProtocol",
      "outputs": [],
      "stateMutability": "nonpayable",
      "type": "function"
    },
    {
      "inputs": [
        {
          "internalType": "string",
          "name": "_id",
          "type": "string"
        }
      ],
      "name": "getProtocol",
      "outputs": [
        {
          "components": [
            {
              "internalType": "string",
              "name": "cid",
              "type": "string"
            },
            {
              "internalType": "address",
              "name": "promoter",
              "type": "address"
            },
            {
              "internalType": "string",
              "name": "status",
              "type": "string"
            },
            {
              "internalType": "address",
              "name": "investigator",
              "type": "address"
            },
            {
              "internalType": "bool",
              "name": "registered",
              "type": "bool"
            },
            {
              "internalType": "bool",
              "name": "authorized",
              "type": "bool"
            },
            {
              "internalType": "uint256",
              "name": "nbOfPatients",
              "type": "uint256"
            },
            {
              "internalType": "uint256",
              "name": "index",
              "type": "uint256"
            }
          ],
          "internalType": "struct MedTrials.Protocol",
          "name": "",
          "type": "tuple"
        }
      ],
      "stateMutability": "view",
      "type": "function",
      "constant": true
    },
    {
      "inputs": [
        {
          "internalType": "string",
          "name": "_cid",
          "type": "string"
        },
        {
          "internalType": "string",
          "name": "_patientID",
          "type": "string"
        },
        {
          "internalType": "string",
          "name": "_protocolID",
          "type": "string"
        },
        {
          "internalType": "address",
          "name": "_patientAddress",
          "type": "address"
        }
      ],
      "name": "addPatient",
      "outputs": [],
      "stateMutability": "nonpayable",
      "type": "function"
    },
    {
      "inputs": [
        {
          "internalType": "string",
          "name": "_patientID",
          "type": "string"
        }
      ],
      "name": "revokeConsent",
      "outputs": [],
      "stateMutability": "nonpayable",
      "type": "function"
    },
    {
      "inputs": [
        {
          "internalType": "string",
          "name": "_protocolID",
          "type": "string"
        }
      ],
      "name": "suspendTrials",
      "outputs": [],
      "stateMutability": "nonpayable",
      "type": "function"
    },
    {
      "inputs": [
        {
          "internalType": "string",
          "name": "_protocolID",
          "type": "string"
        }
      ],
      "name": "resumeTrials",
      "outputs": [],
      "stateMutability": "nonpayable",
      "type": "function"
    },
    {
      "inputs": [
        {
          "internalType": "string",
          "name": "_patientID",
          "type": "string"
        },
        {
          "internalType": "string",
          "name": "_cid",
          "type": "string"
        }
      ],
      "name": "storeDataCID",
      "outputs": [],
      "stateMutability": "nonpayable",
      "type": "function"
    },
    {
      "inputs": [
        {
          "internalType": "string",
          "name": "_patientID",
          "type": "string"
        }
      ],
      "name": "getDataCID",
      "outputs": [
        {
          "internalType": "string[]",
          "name": "",
          "type": "string[]"
        }
      ],
      "stateMutability": "view",
      "type": "function",
      "constant": true
    },
    {
      "inputs": [
        {
          "internalType": "string",
          "name": "_protocolID",
          "type": "string"
        }
      ],
      "name": "getProtocolStatus",
      "outputs": [
        {
          "internalType": "string",
          "name": "",
          "type": "string"
        }
      ],
      "stateMutability": "view",
      "type": "function",
      "constant": true
    },
    {
      "inputs": [
        {
          "internalType": "address",
          "name": "_address",
          "type": "address"
        }
      ],
      "name": "getRole",
      "outputs": [
        {
          "internalType": "string",
          "name": "",
          "type": "string"
        }
      ],
      "stateMutability": "view",
      "type": "function",
      "constant": true
    },
    {
      "inputs": [
        {
          "internalType": "string",
          "name": "center",
          "type": "string"
        },
        {
          "internalType": "string",
          "name": "category",
          "type": "string"
        }
      ],
      "name": "getProtocoleNumerotation",
      "outputs": [
        {
          "internalType": "uint256",
          "name": "",
          "type": "uint256"
        }
      ],
      "stateMutability": "view",
      "type": "function",
      "constant": true
    },
    {
      "inputs": [
        {
          "internalType": "string",
          "name": "_protocolID",
          "type": "string"
        }
      ],
      "name": "getPatientNumerotation",
      "outputs": [
        {
          "internalType": "uint256",
          "name": "",
          "type": "uint256"
        }
      ],
      "stateMutability": "view",
      "type": "function",
      "constant": true
    }
  ],
  "bytecode": "0x60806040523480156200001157600080fd5b5060405162005c6b38038062005c6b8339818101604052810190620000379190620007da565b6200004c6000801b846200039660201b60201c565b620000817f3e206be88d1de4207c0189003e17add3718b1a1bf78910a785940577239bbdae6000801b620003ac60201b60201c565b620000d37f843b48dccc6ff192f9330133622b0536f7b94feca0cf36e7e46fc50060b6f8827f3e206be88d1de4207c0189003e17add3718b1a1bf78910a785940577239bbdae620003ac60201b60201c565b620001087f47a6ab365f603cf120cb936195de17fd0bac3880ff606e7a0edb5e8e6580b1ae6000801b620003ac60201b60201c565b6200015a7f0996d044c7309cb5a01d79c18ee9e4c86aca84367cbd5bfd5f5d0606acc992737f47a6ab365f603cf120cb936195de17fd0bac3880ff606e7a0edb5e8e6580b1ae620003ac60201b60201c565b620001ac7f97f21e7273917267af1fea4c3510695aa29abe57349ce57ceec11b34688318037f0996d044c7309cb5a01d79c18ee9e4c86aca84367cbd5bfd5f5d0606acc99273620003ac60201b60201c565b620001fe7fe5786ee6f50ab1a5567cb3f3f6840a2f4ddbafdf4a35cb2c52d5b732b1e84a327f97f21e7273917267af1fea4c3510695aa29abe57349ce57ceec11b3468831803620003ac60201b60201c565b620002307f3e206be88d1de4207c0189003e17add3718b1a1bf78910a785940577239bbdae836200039660201b60201c565b620002627f47a6ab365f603cf120cb936195de17fd0bac3880ff606e7a0edb5e8e6580b1ae826200039660201b60201c565b620002776000801b846200040960201b60201c565b6040518060400160405280600f81526020017f415554484f524954592041444d494e0000000000000000000000000000000000815250600860008473ffffffffffffffffffffffffffffffffffffffff1673ffffffffffffffffffffffffffffffffffffffff16815260200190815260200160002090805190602001906200030192919062000713565b506040518060400160405280600e81526020017f50524f4d4f5445522041444d494e000000000000000000000000000000000000815250600860008373ffffffffffffffffffffffffffffffffffffffff1673ffffffffffffffffffffffffffffffffffffffff16815260200190815260200160002090805190602001906200038c92919062000713565b505050506200097e565b620003a882826200049f60201b60201c565b5050565b80620003be836200059060201b60201c565b837fbd79b86ffe0ab8e8776151514217cd7cacd52c909f66475c3af44e129f0b00ff60405160405180910390a480600080848152602001908152602001600020600101819055505050565b62000419620005af60201b60201c565b73ffffffffffffffffffffffffffffffffffffffff168173ffffffffffffffffffffffffffffffffffffffff161462000489576040517f08c379a0000000000000000000000000000000000000000000000000000000008152600401620004809062000898565b60405180910390fd5b6200049b8282620005b760201b60201c565b5050565b620004b18282620006a960201b60201c565b6200058c57600160008084815260200190815260200160002060000160008373ffffffffffffffffffffffffffffffffffffffff1673ffffffffffffffffffffffffffffffffffffffff16815260200190815260200160002060006101000a81548160ff02191690831515021790555062000531620005af60201b60201c565b73ffffffffffffffffffffffffffffffffffffffff168173ffffffffffffffffffffffffffffffffffffffff16837f2f8788117e7eff1d82e926ec794901d17c78024a50270940304540a733656f0d60405160405180910390a45b5050565b6000806000838152602001908152602001600020600101549050919050565b600033905090565b620005c98282620006a960201b60201c565b15620006a557600080600084815260200190815260200160002060000160008373ffffffffffffffffffffffffffffffffffffffff1673ffffffffffffffffffffffffffffffffffffffff16815260200190815260200160002060006101000a81548160ff0219169083151502179055506200064a620005af60201b60201c565b73ffffffffffffffffffffffffffffffffffffffff168173ffffffffffffffffffffffffffffffffffffffff16837ff6391f5c32d9c69d2a47ea670b442974b53935d1edc7fd64eb21e047a839171b60405160405180910390a45b5050565b600080600084815260200190815260200160002060000160008373ffffffffffffffffffffffffffffffffffffffff1673ffffffffffffffffffffffffffffffffffffffff16815260200190815260200160002060009054906101000a900460ff16905092915050565b8280546200072190620008ff565b90600052602060002090601f01602090048101928262000745576000855562000791565b82601f106200076057805160ff191683800117855562000791565b8280016001018555821562000791579182015b828111156200079057825182559160200191906001019062000773565b5b509050620007a09190620007a4565b5090565b5b80821115620007bf576000816000905550600101620007a5565b5090565b600081519050620007d48162000964565b92915050565b600080600060608486031215620007f057600080fd5b60006200080086828701620007c3565b93505060206200081386828701620007c3565b92505060406200082686828701620007c3565b9150509250925092565b60006200083f602f83620008ba565b91507f416363657373436f6e74726f6c3a2063616e206f6e6c792072656e6f756e636560008301527f20726f6c657320666f722073656c6600000000000000000000000000000000006020830152604082019050919050565b60006020820190508181036000830152620008b38162000830565b9050919050565b600082825260208201905092915050565b6000620008d882620008df565b9050919050565b600073ffffffffffffffffffffffffffffffffffffffff82169050919050565b600060028204905060018216806200091857607f821691505b602082108114156200092f576200092e62000935565b5b50919050565b7f4e487b7100000000000000000000000000000000000000000000000000000000600052602260045260246000fd5b6200096f81620008cb565b81146200097b57600080fd5b50565b6152dd806200098e6000396000f3fe608060405234801561001057600080fd5b506004361061025e5760003560e01c8063834afa8111610146578063cb39dce5116100c3578063e1d862d911610087578063e1d862d91461079b578063eb3b0fc8146107b9578063ebc48391146107eb578063ec9f4bda14610809578063f7f093b614610827578063fad4fcc7146108575761025e565b8063cb39dce5146106e5578063cd5c3b2b14610701578063cf2a9a9314610731578063d547741f1461074f578063d751b1501461076b5761025e565b8063a24d96581161010a578063a24d96581461062a578063b62f9c7414610646578063c1bd2c2014610664578063c4f3983014610682578063c6009d84146106b25761025e565b8063834afa811461058457806389fcd796146105a257806391d14854146105c0578063a1a8316b146105f0578063a217fddf1461060c5761025e565b8063393618a7116101df578063494503d4116101a3578063494503d41461049d578063591fe6da146104ce5780635e49bdaf146104ec5780637992fd37146105085780637ba3ae71146105245780637beb4107146105545761025e565b8063393618a7146103d45780633ca1d75f146103f05780633f0bee321461040c57806343913c5b1461043d578063442767331461046d5761025e565b8063248a9ca311610226578063248a9ca3146103345780632de6388f146103645780632f2ff15d146103805780632f77e62f1461039c57806336568abe146103b85761025e565b806301ffc9a714610263578063090c63301461029357806309c1ce8b146102c35780631dae9454146102df5780631f50006114610316575b600080fd5b61027d60048036038101906102789190613b0d565b610875565b60405161028a9190614a54565b60405180910390f35b6102ad60048036038101906102a89190613d65565b6108ef565b6040516102ba9190614a8a565b60405180910390f35b6102dd60048036038101906102d89190613c8e565b61098f565b005b6102f960048036038101906102f49190613b36565b610f0e565b60405161030d989796959493929190614aea565b60405180910390f35b61031e6110d6565b60405161032b9190614a6f565b60405180910390f35b61034e60048036038101906103499190613aa8565b6110fa565b60405161035b9190614a6f565b60405180910390f35b61037e60048036038101906103799190613b36565b611119565b005b61039a60048036038101906103959190613ad1565b611260565b005b6103b660048036038101906103b19190613b36565b6112c6565b005b6103d260048036038101906103cd9190613ad1565b611446565b005b6103ee60048036038101906103e99190613a54565b6114c9565b005b61040a60048036038101906104059190613a54565b6118ce565b005b61042660048036038101906104219190613d65565b611cd3565b604051610434929190614a02565b60405180910390f35b61045760048036038101906104529190613b36565b611d9f565b6040516104649190614f2f565b60405180910390f35b61048760048036038101906104829190613a2b565b611e10565b6040516104949190614a8a565b60405180910390f35b6104b760048036038101906104b29190613d65565b611ee1565b6040516104c5929190614a02565b60405180910390f35b6104d6611fad565b6040516104e39190614a6f565b60405180910390f35b61050660048036038101906105019190613a54565b611fd1565b005b610522600480360381019061051d9190613be3565b61242d565b005b61053e60048036038101906105399190613b36565b6128b9565b60405161054b9190614a8a565b60405180910390f35b61056e60048036038101906105699190613b36565b61296c565b60405161057b9190614f0d565b60405180910390f35b61058c612bbf565b6040516105999190614f2f565b60405180910390f35b6105aa612bc5565b6040516105b79190614a6f565b60405180910390f35b6105da60048036038101906105d59190613ad1565b612be9565b6040516105e79190614a54565b60405180910390f35b61060a60048036038101906106059190613b36565b612c53565b005b610614612d9a565b6040516106219190614a6f565b60405180910390f35b610644600480360381019061063f9190613b36565b612da1565b005b61064e612eda565b60405161065b9190614f2f565b60405180910390f35b61066c612ee0565b6040516106799190614a6f565b60405180910390f35b61069c60048036038101906106979190613b77565b612f04565b6040516106a99190614f2f565b60405180910390f35b6106cc60048036038101906106c79190613b36565b612f55565b6040516106dc94939291906149b6565b60405180910390f35b6106ff60048036038101906106fa9190613b77565b613070565b005b61071b60048036038101906107169190613d65565b613106565b6040516107289190614a8a565b60405180910390f35b6107396131a6565b6040516107469190614a6f565b60405180910390f35b61076960048036038101906107649190613ad1565b6131ca565b005b61078560048036038101906107809190613b36565b613230565b6040516107929190614a8a565b60405180910390f35b6107a36132e3565b6040516107b09190614f2f565b60405180910390f35b6107d360048036038101906107ce9190613d65565b6132e9565b6040516107e293929190614978565b60405180910390f35b6107f36133db565b6040516108009190614f2f565b60405180910390f35b6108116133e1565b60405161081e9190614a6f565b60405180910390f35b610841600480360381019061083c9190613b36565b613405565b60405161084e9190614a32565b60405180910390f35b61085f613599565b60405161086c9190614f2f565b60405180910390f35b60007f7965db0b000000000000000000000000000000000000000000000000000000007bffffffffffffffffffffffffffffffffffffffffffffffffffffffff1916827bffffffffffffffffffffffffffffffffffffffffffffffffffffffff191614806108e857506108e78261359f565b5b9050919050565b6004602052806000526040600020600091509050805461090e90615132565b80601f016020809104026020016040519081016040528092919081815260200182805461093a90615132565b80156109875780601f1061095c57610100808354040283529160200191610987565b820191906000526020600020905b81548152906001019060200180831161096a57829003601f168201915b505050505081565b6109b97f0996d044c7309cb5a01d79c18ee9e4c86aca84367cbd5bfd5f5d0606acc9927333612be9565b6109f8576040517f08c379a00000000000000000000000000000000000000000000000000000000081526004016109ef90614d8d565b60405180910390fd5b610a227f0996d044c7309cb5a01d79c18ee9e4c86aca84367cbd5bfd5f5d0606acc9927382612be9565b15610a62576040517f08c379a0000000000000000000000000000000000000000000000000000000008152600401610a5990614e2d565b60405180910390fd5b610a8c7f843b48dccc6ff192f9330133622b0536f7b94feca0cf36e7e46fc50060b6f88282612be9565b15610acc576040517f08c379a0000000000000000000000000000000000000000000000000000000008152600401610ac390614e8d565b60405180910390fd5b610af67f47a6ab365f603cf120cb936195de17fd0bac3880ff606e7a0edb5e8e6580b1ae82612be9565b15610b36576040517f08c379a0000000000000000000000000000000000000000000000000000000008152600401610b2d90614c4d565b60405180910390fd5b610b607f3e206be88d1de4207c0189003e17add3718b1a1bf78910a785940577239bbdae82612be9565b15610ba0576040517f08c379a0000000000000000000000000000000000000000000000000000000008152600401610b9790614ced565b60405180910390fd5b610bca7f97f21e7273917267af1fea4c3510695aa29abe57349ce57ceec11b346883180382612be9565b610c09576040517f08c379a0000000000000000000000000000000000000000000000000000000008152600401610c0090614e0d565b60405180910390fd5b600185604051610c199190614946565b908152602001604051809103902060030160149054906101000a900460ff1615610c78576040517f08c379a0000000000000000000000000000000000000000000000000000000008152600401610c6f90614e6d565b60405180910390fd5b33600186604051610c899190614946565b908152602001604051809103902060010160006101000a81548173ffffffffffffffffffffffffffffffffffffffff021916908373ffffffffffffffffffffffffffffffffffffffff16021790555080600186604051610ce99190614946565b908152602001604051809103902060030160006101000a81548173ffffffffffffffffffffffffffffffffffffffff021916908373ffffffffffffffffffffffffffffffffffffffff16021790555060018086604051610d499190614946565b908152602001604051809103902060030160146101000a81548160ff02191690831515021790555083600186604051610d829190614946565b90815260200160405180910390206000019080519060200190610da69291906137d2565b506040518060400160405280600a81526020017f7265676973746572656400000000000000000000000000000000000000000000815250600186604051610ded9190614946565b90815260200160405180910390206002019080519060200190610e119291906137d2565b50600b54600186604051610e259190614946565b9081526020016040518091039020600501819055508460036000600b5481526020019081526020016000209080519060200190610e639291906137d2565b50600b6000815480929190610e7790615164565b9190505550600983604051610e8c9190614946565b908152602001604051809103902082604051610ea89190614946565b90815260200160405180910390206000815480929190610ec790615164565b91905055507fff88452d1e63b10e4f05e166bed6696de7594668e0e30daf24839937a0a27fee853383604051610eff93929190614aac565b60405180910390a15050505050565b600181805160208101820180518482526020830160208501208183528095505050505050600091509050806000018054610f4790615132565b80601f0160208091040260200160405190810160405280929190818152602001828054610f7390615132565b8015610fc05780601f10610f9557610100808354040283529160200191610fc0565b820191906000526020600020905b815481529060010190602001808311610fa357829003601f168201915b5050505050908060010160009054906101000a900473ffffffffffffffffffffffffffffffffffffffff1690806002018054610ffb90615132565b80601f016020809104026020016040519081016040528092919081815260200182805461102790615132565b80156110745780601f1061104957610100808354040283529160200191611074565b820191906000526020600020905b81548152906001019060200180831161105757829003601f168201915b5050505050908060030160009054906101000a900473ffffffffffffffffffffffffffffffffffffffff16908060030160149054906101000a900460ff16908060030160159054906101000a900460ff16908060040154908060050154905088565b7fe5786ee6f50ab1a5567cb3f3f6840a2f4ddbafdf4a35cb2c52d5b732b1e84a3281565b6000806000838152602001908152602001600020600101549050919050565b6111437f843b48dccc6ff192f9330133622b0536f7b94feca0cf36e7e46fc50060b6f88233612be9565b611182576040517f08c379a000000000000000000000000000000000000000000000000000000000815260040161117990614cad565b60405180910390fd5b600180826040516111939190614946565b908152602001604051809103902060030160156101000a81548160ff0219169083151502179055506040518060400160405280600781526020017f726573756d6564000000000000000000000000000000000000000000000000008152506001826040516112019190614946565b908152602001604051809103902060020190805190602001906112259291906137d2565b507fd1c688ddb9e9baabcd8e5f84a85f4933173bc6600b2f361087b41cd9304e2920816040516112559190614a8a565b60405180910390a150565b61127961126c836110fa565b611274613609565b612be9565b6112b8576040517f08c379a00000000000000000000000000000000000000000000000000000000081526004016112af90614bed565b60405180910390fd5b6112c28282613611565b5050565b6112f07f843b48dccc6ff192f9330133622b0536f7b94feca0cf36e7e46fc50060b6f88233612be9565b61132f576040517f08c379a000000000000000000000000000000000000000000000000000000000815260040161132690614c0d565b60405180910390fd5b60018160405161133f9190614946565b908152602001604051809103902060030160159054906101000a900460ff1661136757600080fd5b60006001826040516113799190614946565b908152602001604051809103902060030160156101000a81548160ff0219169083151502179055506040518060400160405280600981526020017f73757370656e64656400000000000000000000000000000000000000000000008152506001826040516113e79190614946565b9081526020016040518091039020600201908051906020019061140b9291906137d2565b507fb9f86d562ae4d5d427f505b81f74024716097f50538bc3d5a16f0716ca3995598160405161143b9190614a8a565b60405180910390a150565b61144e613609565b73ffffffffffffffffffffffffffffffffffffffff168173ffffffffffffffffffffffffffffffffffffffff16146114bb576040517f08c379a00000000000000000000000000000000000000000000000000000000081526004016114b290614ecd565b60405180910390fd5b6114c582826136f1565b5050565b6114f37f47a6ab365f603cf120cb936195de17fd0bac3880ff606e7a0edb5e8e6580b1ae33612be9565b611532576040517f08c379a000000000000000000000000000000000000000000000000000000000815260040161152990614c6d565b60405180910390fd5b61155c7f0996d044c7309cb5a01d79c18ee9e4c86aca84367cbd5bfd5f5d0606acc9927383612be9565b1561159c576040517f08c379a000000000000000000000000000000000000000000000000000000000815260040161159390614dad565b60405180910390fd5b6115c67f97f21e7273917267af1fea4c3510695aa29abe57349ce57ceec11b346883180383612be9565b15611606576040517f08c379a00000000000000000000000000000000000000000000000000000000081526004016115fd90614c2d565b60405180910390fd5b6116307f843b48dccc6ff192f9330133622b0536f7b94feca0cf36e7e46fc50060b6f88283612be9565b15611670576040517f08c379a000000000000000000000000000000000000000000000000000000000815260040161166790614d6d565b60405180910390fd5b61169a7f47a6ab365f603cf120cb936195de17fd0bac3880ff606e7a0edb5e8e6580b1ae83612be9565b156116da576040517f08c379a00000000000000000000000000000000000000000000000000000000081526004016116d190614eed565b60405180910390fd5b6117047f3e206be88d1de4207c0189003e17add3718b1a1bf78910a785940577239bbdae83612be9565b15611744576040517f08c379a000000000000000000000000000000000000000000000000000000000815260040161173b90614bad565b60405180910390fd5b61176e7f0996d044c7309cb5a01d79c18ee9e4c86aca84367cbd5bfd5f5d0606acc9927383611260565b6040518060400160405280600881526020017f50524f4d4f544552000000000000000000000000000000000000000000000000815250600860008473ffffffffffffffffffffffffffffffffffffffff1673ffffffffffffffffffffffffffffffffffffffff16815260200190815260200160002090805190602001906117f69291906137d2565b508060056000600d54815260200190815260200160002060010190805190602001906118239291906137d2565b508160056000600d54815260200190815260200160002060000160006101000a81548173ffffffffffffffffffffffffffffffffffffffff021916908373ffffffffffffffffffffffffffffffffffffffff160217905550600d600081548092919061188e90615164565b91905055507f786ebfd921e487d94a7dbf555edf33e5f264f7b59acdcdfe139c08f48f075559826040516118c2919061495d565b60405180910390a15050565b6118f87f3e206be88d1de4207c0189003e17add3718b1a1bf78910a785940577239bbdae33612be9565b611937576040517f08c379a000000000000000000000000000000000000000000000000000000000815260040161192e90614bcd565b60405180910390fd5b6119617f843b48dccc6ff192f9330133622b0536f7b94feca0cf36e7e46fc50060b6f88283612be9565b156119a1576040517f08c379a000000000000000000000000000000000000000000000000000000000815260040161199890614d4d565b60405180910390fd5b6119cb7f0996d044c7309cb5a01d79c18ee9e4c86aca84367cbd5bfd5f5d0606acc9927383612be9565b15611a0b576040517f08c379a0000000000000000000000000000000000000000000000000000000008152600401611a0290614e4d565b60405180910390fd5b611a357f97f21e7273917267af1fea4c3510695aa29abe57349ce57ceec11b346883180383612be9565b15611a75576040517f08c379a0000000000000000000000000000000000000000000000000000000008152600401611a6c90614c2d565b60405180910390fd5b611a9f7f47a6ab365f603cf120cb936195de17fd0bac3880ff606e7a0edb5e8e6580b1ae83612be9565b15611adf576040517f08c379a0000000000000000000000000000000000000000000000000000000008152600401611ad690614eed565b60405180910390fd5b611b097f3e206be88d1de4207c0189003e17add3718b1a1bf78910a785940577239bbdae83612be9565b15611b49576040517f08c379a0000000000000000000000000000000000000000000000000000000008152600401611b4090614bad565b60405180910390fd5b611b737f843b48dccc6ff192f9330133622b0536f7b94feca0cf36e7e46fc50060b6f88283611260565b6040518060400160405280600981526020017f415554484f524954590000000000000000000000000000000000000000000000815250600860008473ffffffffffffffffffffffffffffffffffffffff1673ffffffffffffffffffffffffffffffffffffffff1681526020019081526020016000209080519060200190611bfb9291906137d2565b508060076000600f5481526020019081526020016000206001019080519060200190611c289291906137d2565b508160076000600f54815260200190815260200160002060000160006101000a81548173ffffffffffffffffffffffffffffffffffffffff021916908373ffffffffffffffffffffffffffffffffffffffff160217905550600f6000815480929190611c9390615164565b91905055507f3c0aee07d693a6f94b1a6aca6097bdde55429f0834eb9c27e3c31a03081f09b482604051611cc7919061495d565b60405180910390a15050565b60056020528060005260406000206000915090508060000160009054906101000a900473ffffffffffffffffffffffffffffffffffffffff1690806001018054611d1c90615132565b80601f0160208091040260200160405190810160405280929190818152602001828054611d4890615132565b8015611d955780601f10611d6a57610100808354040283529160200191611d95565b820191906000526020600020905b815481529060010190602001808311611d7857829003601f168201915b5050505050905082565b60006001600a60003373ffffffffffffffffffffffffffffffffffffffff1673ffffffffffffffffffffffffffffffffffffffff16815260200190815260200160002083604051611df09190614946565b908152602001604051809103902054611e09919061501c565b9050919050565b6060600860008373ffffffffffffffffffffffffffffffffffffffff1673ffffffffffffffffffffffffffffffffffffffff1681526020019081526020016000208054611e5c90615132565b80601f0160208091040260200160405190810160405280929190818152602001828054611e8890615132565b8015611ed55780601f10611eaa57610100808354040283529160200191611ed5565b820191906000526020600020905b815481529060010190602001808311611eb857829003601f168201915b50505050509050919050565b60076020528060005260406000206000915090508060000160009054906101000a900473ffffffffffffffffffffffffffffffffffffffff1690806001018054611f2a90615132565b80601f0160208091040260200160405190810160405280929190818152602001828054611f5690615132565b8015611fa35780601f10611f7857610100808354040283529160200191611fa3565b820191906000526020600020905b815481529060010190602001808311611f8657829003601f168201915b5050505050905082565b7f3e206be88d1de4207c0189003e17add3718b1a1bf78910a785940577239bbdae81565b611ffb7f0996d044c7309cb5a01d79c18ee9e4c86aca84367cbd5bfd5f5d0606acc9927333612be9565b61203a576040517f08c379a000000000000000000000000000000000000000000000000000000000815260040161203190614d2d565b60405180910390fd5b6120647f97f21e7273917267af1fea4c3510695aa29abe57349ce57ceec11b346883180383612be9565b156120a4576040517f08c379a000000000000000000000000000000000000000000000000000000000815260040161209b90614ded565b60405180910390fd5b6120ce7f0996d044c7309cb5a01d79c18ee9e4c86aca84367cbd5bfd5f5d0606acc9927383612be9565b1561210e576040517f08c379a000000000000000000000000000000000000000000000000000000000815260040161210590614e4d565b60405180910390fd5b6121387f843b48dccc6ff192f9330133622b0536f7b94feca0cf36e7e46fc50060b6f88283612be9565b15612178576040517f08c379a000000000000000000000000000000000000000000000000000000000815260040161216f90614d6d565b60405180910390fd5b6121a27f47a6ab365f603cf120cb936195de17fd0bac3880ff606e7a0edb5e8e6580b1ae83612be9565b156121e2576040517f08c379a00000000000000000000000000000000000000000000000000000000081526004016121d990614eed565b60405180910390fd5b61220c7f3e206be88d1de4207c0189003e17add3718b1a1bf78910a785940577239bbdae83612be9565b1561224c576040517f08c379a000000000000000000000000000000000000000000000000000000000815260040161224390614bad565b60405180910390fd5b6122767f97f21e7273917267af1fea4c3510695aa29abe57349ce57ceec11b346883180383611260565b6040518060400160405280600c81526020017f494e56455354494741544f520000000000000000000000000000000000000000815250600860008473ffffffffffffffffffffffffffffffffffffffff1673ffffffffffffffffffffffffffffffffffffffff16815260200190815260200160002090805190602001906122fe9291906137d2565b508060066000600e548152602001908152602001600020600201908051906020019061232b9291906137d2565b503360066000600e54815260200190815260200160002060000160006101000a81548173ffffffffffffffffffffffffffffffffffffffff021916908373ffffffffffffffffffffffffffffffffffffffff1602179055508160066000600e54815260200190815260200160002060010160006101000a81548173ffffffffffffffffffffffffffffffffffffffff021916908373ffffffffffffffffffffffffffffffffffffffff160217905550600e60008154809291906123ed90615164565b91905055507fe8418412d360af43b959e2ca49b9ad98feb77e7b5597963ca346077db47d69ba82604051612421919061495d565b60405180910390a15050565b600115156001836040516124419190614946565b908152602001604051809103902060030160159054906101000a900460ff161515146124a2576040517f08c379a000000000000000000000000000000000000000000000000000000000815260040161249990614ccd565b60405180910390fd5b6002836040516124b29190614946565b908152602001604051809103902060000160009054906101000a900473ffffffffffffffffffffffffffffffffffffffff1673ffffffffffffffffffffffffffffffffffffffff168173ffffffffffffffffffffffffffffffffffffffff161415612552576040517f08c379a000000000000000000000000000000000000000000000000000000000815260040161254990614dcd565b60405180910390fd5b60016002846040516125649190614946565b908152602001604051809103902060040160006101000a81548160ff0219169083151502179055508060028460405161259d9190614946565b908152602001604051809103902060000160006101000a81548173ffffffffffffffffffffffffffffffffffffffff021916908373ffffffffffffffffffffffffffffffffffffffff160217905550336002846040516125fd9190614946565b908152602001604051809103902060010160006101000a81548173ffffffffffffffffffffffffffffffffffffffff021916908373ffffffffffffffffffffffffffffffffffffffff1602179055508160028460405161265d9190614946565b908152602001604051809103902060020190805190602001906126819291906137d2565b506001826040516126929190614946565b908152602001604051809103902060040160008154809291906126b490615164565b91905055506002836040516126c99190614946565b9081526020016040518091039020600301849080600181540180825580915050600190039060005260206000200160009091909190915090805190602001906127139291906137d2565b508260046000600c548152602001908152602001600020908051906020019061273d9291906137d2565b50600a60003373ffffffffffffffffffffffffffffffffffffffff1673ffffffffffffffffffffffffffffffffffffffff1681526020019081526020016000208260405161278b9190614946565b908152602001604051809103902060008154809291906127aa90615164565b9190505550600c60008154809291906127c290615164565b91905055506127f17fe5786ee6f50ab1a5567cb3f3f6840a2f4ddbafdf4a35cb2c52d5b732b1e84a3282611260565b6040518060400160405280600781526020017f50415449454e5400000000000000000000000000000000000000000000000000815250600860008373ffffffffffffffffffffffffffffffffffffffff1673ffffffffffffffffffffffffffffffffffffffff16815260200190815260200160002090805190602001906128799291906137d2565b507f76b4f38e7ada56c131a0c796e7382093d7b5a69175ca0bf513f5827f60f5314d83836040516128ab929190614b76565b60405180910390a150505050565b60606001826040516128cb9190614946565b908152602001604051809103902060000180546128e790615132565b80601f016020809104026020016040519081016040528092919081815260200182805461291390615132565b80156129605780601f1061293557610100808354040283529160200191612960565b820191906000526020600020905b81548152906001019060200180831161294357829003601f168201915b50505050509050919050565b612974613858565b6001826040516129849190614946565b9081526020016040518091039020604051806101000160405290816000820180546129ae90615132565b80601f01602080910402602001604051908101604052809291908181526020018280546129da90615132565b8015612a275780601f106129fc57610100808354040283529160200191612a27565b820191906000526020600020905b815481529060010190602001808311612a0a57829003601f168201915b505050505081526020016001820160009054906101000a900473ffffffffffffffffffffffffffffffffffffffff1673ffffffffffffffffffffffffffffffffffffffff1673ffffffffffffffffffffffffffffffffffffffff168152602001600282018054612a9690615132565b80601f0160208091040260200160405190810160405280929190818152602001828054612ac290615132565b8015612b0f5780601f10612ae457610100808354040283529160200191612b0f565b820191906000526020600020905b815481529060010190602001808311612af257829003601f168201915b505050505081526020016003820160009054906101000a900473ffffffffffffffffffffffffffffffffffffffff1673ffffffffffffffffffffffffffffffffffffffff1673ffffffffffffffffffffffffffffffffffffffff1681526020016003820160149054906101000a900460ff161515151581526020016003820160159054906101000a900460ff16151515158152602001600482015481526020016005820154815250509050919050565b600c5481565b7f843b48dccc6ff192f9330133622b0536f7b94feca0cf36e7e46fc50060b6f88281565b600080600084815260200190815260200160002060000160008373ffffffffffffffffffffffffffffffffffffffff1673ffffffffffffffffffffffffffffffffffffffff16815260200190815260200160002060009054906101000a900460ff16905092915050565b612c7d7f843b48dccc6ff192f9330133622b0536f7b94feca0cf36e7e46fc50060b6f88233612be9565b612cbc576040517f08c379a0000000000000000000000000000000000000000000000000000000008152600401612cb390614ead565b60405180910390fd5b60018082604051612ccd9190614946565b908152602001604051809103902060030160156101000a81548160ff0219169083151502179055506040518060400160405280600981526020017f76616c6964617465640000000000000000000000000000000000000000000000815250600182604051612d3b9190614946565b90815260200160405180910390206002019080519060200190612d5f9291906137d2565b507fbc0e66a9d9a6660141870110fa7932ebb7fe171d5e52ee9a42674665105f1d1b81604051612d8f9190614a8a565b60405180910390a150565b6000801b81565b60001515600282604051612db59190614946565b908152602001604051809103902060040160009054906101000a90505050600281604051612de39190614946565b9081526020016040518091039020600080820160006101000a81549073ffffffffffffffffffffffffffffffffffffffff02191690556001820160006101000a81549073ffffffffffffffffffffffffffffffffffffffff0219169055600282016000612e5091906138cd565b600382016000612e60919061390d565b6004820160006101000a81549060ff02191690555050612ea07fe5786ee6f50ab1a5567cb3f3f6840a2f4ddbafdf4a35cb2c52d5b732b1e84a3233611446565b7f1a24299bbcab71cb3013c24c40adca455867472f22ae6d056e4e0cb2bb0e5a7381604051612ecf9190614a8a565b60405180910390a150565b600f5481565b7f47a6ab365f603cf120cb936195de17fd0bac3880ff606e7a0edb5e8e6580b1ae81565b60006001600984604051612f189190614946565b908152602001604051809103902083604051612f349190614946565b908152602001604051809103902054612f4d919061501c565b905092915050565b6002818051602081018201805184825260208301602085012081835280955050505050506000915090508060000160009054906101000a900473ffffffffffffffffffffffffffffffffffffffff16908060010160009054906101000a900473ffffffffffffffffffffffffffffffffffffffff1690806002018054612fda90615132565b80601f016020809104026020016040519081016040528092919081815260200182805461300690615132565b80156130535780601f1061302857610100808354040283529160200191613053565b820191906000526020600020905b81548152906001019060200180831161303657829003601f168201915b5050505050908060040160009054906101000a900460ff16905084565b6002826040516130809190614946565b9081526020016040518091039020600301819080600181540180825580915050600190039060005260206000200160009091909190915090805190602001906130ca9291906137d2565b507f2fd00fee6fba014584e65a085e3eb131b03ff5c389c44c3cf9e857d52c1650d6816040516130fa9190614a8a565b60405180910390a15050565b6003602052806000526040600020600091509050805461312590615132565b80601f016020809104026020016040519081016040528092919081815260200182805461315190615132565b801561319e5780601f106131735761010080835404028352916020019161319e565b820191906000526020600020905b81548152906001019060200180831161318157829003601f168201915b505050505081565b7f97f21e7273917267af1fea4c3510695aa29abe57349ce57ceec11b346883180381565b6131e36131d6836110fa565b6131de613609565b612be9565b613222576040517f08c379a000000000000000000000000000000000000000000000000000000000815260040161321990614d0d565b60405180910390fd5b61322c82826136f1565b5050565b60606001826040516132429190614946565b9081526020016040518091039020600201805461325e90615132565b80601f016020809104026020016040519081016040528092919081815260200182805461328a90615132565b80156132d75780601f106132ac576101008083540402835291602001916132d7565b820191906000526020600020905b8154815290600101906020018083116132ba57829003601f168201915b50505050509050919050565b600d5481565b60066020528060005260406000206000915090508060000160009054906101000a900473ffffffffffffffffffffffffffffffffffffffff16908060010160009054906101000a900473ffffffffffffffffffffffffffffffffffffffff169080600201805461335890615132565b80601f016020809104026020016040519081016040528092919081815260200182805461338490615132565b80156133d15780601f106133a6576101008083540402835291602001916133d1565b820191906000526020600020905b8154815290600101906020018083116133b457829003601f168201915b5050505050905083565b600b5481565b7f0996d044c7309cb5a01d79c18ee9e4c86aca84367cbd5bfd5f5d0606acc9927381565b60606134317f97f21e7273917267af1fea4c3510695aa29abe57349ce57ceec11b346883180333612be9565b8061346257506134617fe5786ee6f50ab1a5567cb3f3f6840a2f4ddbafdf4a35cb2c52d5b732b1e84a3233612be9565b5b6134a1576040517f08c379a000000000000000000000000000000000000000000000000000000000815260040161349890614c8d565b60405180910390fd5b6002826040516134b19190614946565b9081526020016040518091039020600301805480602002602001604051908101604052809291908181526020016000905b8282101561358e57838290600052602060002001805461350190615132565b80601f016020809104026020016040519081016040528092919081815260200182805461352d90615132565b801561357a5780601f1061354f5761010080835404028352916020019161357a565b820191906000526020600020905b81548152906001019060200180831161355d57829003601f168201915b5050505050815260200190600101906134e2565b505050509050919050565b600e5481565b60007f01ffc9a7000000000000000000000000000000000000000000000000000000007bffffffffffffffffffffffffffffffffffffffffffffffffffffffff1916827bffffffffffffffffffffffffffffffffffffffffffffffffffffffff1916149050919050565b600033905090565b61361b8282612be9565b6136ed57600160008084815260200190815260200160002060000160008373ffffffffffffffffffffffffffffffffffffffff1673ffffffffffffffffffffffffffffffffffffffff16815260200190815260200160002060006101000a81548160ff021916908315150217905550613692613609565b73ffffffffffffffffffffffffffffffffffffffff168173ffffffffffffffffffffffffffffffffffffffff16837f2f8788117e7eff1d82e926ec794901d17c78024a50270940304540a733656f0d60405160405180910390a45b5050565b6136fb8282612be9565b156137ce57600080600084815260200190815260200160002060000160008373ffffffffffffffffffffffffffffffffffffffff1673ffffffffffffffffffffffffffffffffffffffff16815260200190815260200160002060006101000a81548160ff021916908315150217905550613773613609565b73ffffffffffffffffffffffffffffffffffffffff168173ffffffffffffffffffffffffffffffffffffffff16837ff6391f5c32d9c69d2a47ea670b442974b53935d1edc7fd64eb21e047a839171b60405160405180910390a45b5050565b8280546137de90615132565b90600052602060002090601f0160209004810192826138005760008555613847565b82601f1061381957805160ff1916838001178555613847565b82800160010185558215613847579182015b8281111561384657825182559160200191906001019061382b565b5b509050613854919061392e565b5090565b60405180610100016040528060608152602001600073ffffffffffffffffffffffffffffffffffffffff16815260200160608152602001600073ffffffffffffffffffffffffffffffffffffffff16815260200160001515815260200160001515815260200160008152602001600081525090565b5080546138d990615132565b6000825580601f106138eb575061390a565b601f016020900490600052602060002090810190613909919061392e565b5b50565b508054600082559060005260206000209081019061392b919061394b565b50565b5b8082111561394757600081600090555060010161392f565b5090565b5b8082111561396b576000818161396291906138cd565b5060010161394c565b5090565b600061398261397d84614f7b565b614f4a565b90508281526020810184848401111561399a57600080fd5b6139a58482856150f0565b509392505050565b6000813590506139bc8161524b565b92915050565b6000813590506139d181615262565b92915050565b6000813590506139e681615279565b92915050565b600082601f8301126139fd57600080fd5b8135613a0d84826020860161396f565b91505092915050565b600081359050613a2581615290565b92915050565b600060208284031215613a3d57600080fd5b6000613a4b848285016139ad565b91505092915050565b60008060408385031215613a6757600080fd5b6000613a75858286016139ad565b925050602083013567ffffffffffffffff811115613a9257600080fd5b613a9e858286016139ec565b9150509250929050565b600060208284031215613aba57600080fd5b6000613ac8848285016139c2565b91505092915050565b60008060408385031215613ae457600080fd5b6000613af2858286016139c2565b9250506020613b03858286016139ad565b9150509250929050565b600060208284031215613b1f57600080fd5b6000613b2d848285016139d7565b91505092915050565b600060208284031215613b4857600080fd5b600082013567ffffffffffffffff811115613b6257600080fd5b613b6e848285016139ec565b91505092915050565b60008060408385031215613b8a57600080fd5b600083013567ffffffffffffffff811115613ba457600080fd5b613bb0858286016139ec565b925050602083013567ffffffffffffffff811115613bcd57600080fd5b613bd9858286016139ec565b9150509250929050565b60008060008060808587031215613bf957600080fd5b600085013567ffffffffffffffff811115613c1357600080fd5b613c1f878288016139ec565b945050602085013567ffffffffffffffff811115613c3c57600080fd5b613c48878288016139ec565b935050604085013567ffffffffffffffff811115613c6557600080fd5b613c71878288016139ec565b9250506060613c82878288016139ad565b91505092959194509250565b600080600080600060a08688031215613ca657600080fd5b600086013567ffffffffffffffff811115613cc057600080fd5b613ccc888289016139ec565b955050602086013567ffffffffffffffff811115613ce957600080fd5b613cf5888289016139ec565b945050604086013567ffffffffffffffff811115613d1257600080fd5b613d1e888289016139ec565b935050606086013567ffffffffffffffff811115613d3b57600080fd5b613d47888289016139ec565b9250506080613d58888289016139ad565b9150509295509295909350565b600060208284031215613d7757600080fd5b6000613d8584828501613a16565b91505092915050565b6000613d9a8383613e62565b905092915050565b613dab81615072565b82525050565b613dba81615072565b82525050565b6000613dcb82614fbb565b613dd58185614fde565b935083602082028501613de785614fab565b8060005b85811015613e235784840389528151613e048582613d8e565b9450613e0f83614fd1565b925060208a01995050600181019050613deb565b50829750879550505050505092915050565b613e3e81615084565b82525050565b613e4d81615084565b82525050565b613e5c81615090565b82525050565b6000613e6d82614fc6565b613e778185614fef565b9350613e878185602086016150ff565b613e908161523a565b840191505092915050565b6000613ea682614fc6565b613eb08185615000565b9350613ec08185602086016150ff565b613ec98161523a565b840191505092915050565b6000613edf82614fc6565b613ee98185615011565b9350613ef98185602086016150ff565b80840191505092915050565b6000613f12601a83615000565b91507f596f752061726520616e20617574686f726974792061646d696e0000000000006000830152602082019050919050565b6000613f52602e83615000565b91507f4f6e6c792074686520617574686f726974792061646d696e2063616e2061646460008301527f20696e76657374696761746f72730000000000000000000000000000000000006020830152604082019050919050565b6000613fb8602f83615000565b91507f416363657373436f6e74726f6c3a2073656e646572206d75737420626520616e60008301527f2061646d696e20746f206772616e7400000000000000000000000000000000006020830152604082019050919050565b600061401e602483615000565b91507f4f6e6c7920617574686f726969746965732063616e2073757370656e6420747260008301527f69616c73000000000000000000000000000000000000000000000000000000006020830152604082019050919050565b6000614084601783615000565b91507f596f752061726520616e20696e76657374696761746f720000000000000000006000830152602082019050919050565b60006140c4602983615000565b91507f50726f6d6f746572732061646d696e2063616e6e6f7420626520616e20696e7660008301527f657374696761746f7200000000000000000000000000000000000000000000006020830152604082019050919050565b600061412a602d83615000565b91507f4f6e6c79207468652070726f6d6f746f722061646d696e2063616e206164642060008301527f696e76657374696761746f7273000000000000000000000000000000000000006020830152604082019050919050565b6000614190603683615000565b91507f4f6e6c7920696e76657374696761746f7273206f722070617469656e7420636160008301527f6e20636f6c6c656374206f7220726561642064617461000000000000000000006020830152604082019050919050565b60006141f6602383615000565b91507f4f6e6c7920617574686f7269746965732063616e2073757370656e642074726960008301527f616c7300000000000000000000000000000000000000000000000000000000006020830152604082019050919050565b600061425c602983615000565b91507f546869732070726f746f636f6c20686173206e6f74206265656e20617574686f60008301527f72697a65642079657400000000000000000000000000000000000000000000006020830152604082019050919050565b60006142c2602b83615000565b91507f417574686f7269746965732061646d696e2063616e6e6f7420626520616e206960008301527f6e76657374696761746f720000000000000000000000000000000000000000006020830152604082019050919050565b6000614328603083615000565b91507f416363657373436f6e74726f6c3a2073656e646572206d75737420626520616e60008301527f2061646d696e20746f207265766f6b65000000000000000000000000000000006020830152604082019050919050565b600061438e602783615000565b91507f4f6e6c79207468652070726f6d6f746f722063616e2061646420696e7665737460008301527f696761746f7273000000000000000000000000000000000000000000000000006020830152604082019050919050565b60006143f4601c83615000565b91507f596f752061726520616c726561647920616e20617574686f72697479000000006000830152602082019050919050565b6000614434601483615000565b91507f596f752061726520616e20617574686f726974790000000000000000000000006000830152602082019050919050565b6000614474602383615000565b91507f4f6e6c792070726f6d6f746572732063616e207375626d69742070726f746f6360008301527f6f6c7300000000000000000000000000000000000000000000000000000000006020830152604082019050919050565b60006144da601a83615000565b91507f596f752061726520616c726561647920612070726f6d6f7465720000000000006000830152602082019050919050565b600061451a601a83615000565b91507f546869732070617469656e7420616c72656164792065786973740000000000006000830152602082019050919050565b600061455a601f83615000565b91507f596f752061726520616c726561647920616e20696e76657374696761746f72006000830152602082019050919050565b600061459a602983615000565b91507f54686520696e76657374696761746f72206d757374206265207265676973746560008301527f72656420666972737400000000000000000000000000000000000000000000006020830152604082019050919050565b6000614600602183615000565b91507f50726f6d6f746572732063616e6e6f7420626520696e76657374696761746f7260008301527f73000000000000000000000000000000000000000000000000000000000000006020830152604082019050919050565b6000614666601283615000565b91507f596f752061726520612070726f6d6f74657200000000000000000000000000006000830152602082019050919050565b60006146a6602283615000565b91507f5468652070726f746f636f6c20697320616c726561647920726567697374657260008301527f65640000000000000000000000000000000000000000000000000000000000006020830152604082019050919050565b600061470c602383615000565b91507f417574686f7269746965732063616e6e6f7420626520696e766573746967617460008301527f6f727300000000000000000000000000000000000000000000000000000000006020830152604082019050919050565b6000614772603183615000565b91507f4f6e6c7920617574686f726974696573206861766520726967687420746f207660008301527f616c69646174652070726f746f636f6c730000000000000000000000000000006020830152604082019050919050565b60006147d8602f83615000565b91507f416363657373436f6e74726f6c3a2063616e206f6e6c792072656e6f756e636560008301527f20726f6c657320666f722073656c6600000000000000000000000000000000006020830152604082019050919050565b600061483e601883615000565b91507f596f752061726520612070726f6d6f7465722061646d696e00000000000000006000830152602082019050919050565b600061010083016000830151848203600086015261488f8282613e62565b91505060208301516148a46020860182613da2565b50604083015184820360408601526148bc8282613e62565b91505060608301516148d16060860182613da2565b5060808301516148e46080860182613e35565b5060a08301516148f760a0860182613e35565b5060c083015161490a60c0860182614928565b5060e083015161491d60e0860182614928565b508091505092915050565b614931816150e6565b82525050565b614940816150e6565b82525050565b60006149528284613ed4565b915081905092915050565b60006020820190506149726000830184613db1565b92915050565b600060608201905061498d6000830186613db1565b61499a6020830185613db1565b81810360408301526149ac8184613e9b565b9050949350505050565b60006080820190506149cb6000830187613db1565b6149d86020830186613db1565b81810360408301526149ea8185613e9b565b90506149f96060830184613e44565b95945050505050565b6000604082019050614a176000830185613db1565b8181036020830152614a298184613e9b565b90509392505050565b60006020820190508181036000830152614a4c8184613dc0565b905092915050565b6000602082019050614a696000830184613e44565b92915050565b6000602082019050614a846000830184613e53565b92915050565b60006020820190508181036000830152614aa48184613e9b565b905092915050565b60006060820190508181036000830152614ac68186613e9b565b9050614ad56020830185613db1565b614ae26040830184613db1565b949350505050565b6000610100820190508181036000830152614b05818b613e9b565b9050614b14602083018a613db1565b8181036040830152614b268189613e9b565b9050614b356060830188613db1565b614b426080830187613e44565b614b4f60a0830186613e44565b614b5c60c0830185614937565b614b6960e0830184614937565b9998505050505050505050565b60006040820190508181036000830152614b908185613e9b565b90508181036020830152614ba48184613e9b565b90509392505050565b60006020820190508181036000830152614bc681613f05565b9050919050565b60006020820190508181036000830152614be681613f45565b9050919050565b60006020820190508181036000830152614c0681613fab565b9050919050565b60006020820190508181036000830152614c2681614011565b9050919050565b60006020820190508181036000830152614c4681614077565b9050919050565b60006020820190508181036000830152614c66816140b7565b9050919050565b60006020820190508181036000830152614c868161411d565b9050919050565b60006020820190508181036000830152614ca681614183565b9050919050565b60006020820190508181036000830152614cc6816141e9565b9050919050565b60006020820190508181036000830152614ce68161424f565b9050919050565b60006020820190508181036000830152614d06816142b5565b9050919050565b60006020820190508181036000830152614d268161431b565b9050919050565b60006020820190508181036000830152614d4681614381565b9050919050565b60006020820190508181036000830152614d66816143e7565b9050919050565b60006020820190508181036000830152614d8681614427565b9050919050565b60006020820190508181036000830152614da681614467565b9050919050565b60006020820190508181036000830152614dc6816144cd565b9050919050565b60006020820190508181036000830152614de68161450d565b9050919050565b60006020820190508181036000830152614e068161454d565b9050919050565b60006020820190508181036000830152614e268161458d565b9050919050565b60006020820190508181036000830152614e46816145f3565b9050919050565b60006020820190508181036000830152614e6681614659565b9050919050565b60006020820190508181036000830152614e8681614699565b9050919050565b60006020820190508181036000830152614ea6816146ff565b9050919050565b60006020820190508181036000830152614ec681614765565b9050919050565b60006020820190508181036000830152614ee6816147cb565b9050919050565b60006020820190508181036000830152614f0681614831565b9050919050565b60006020820190508181036000830152614f278184614871565b905092915050565b6000602082019050614f446000830184614937565b92915050565b6000604051905081810181811067ffffffffffffffff82111715614f7157614f7061520b565b5b8060405250919050565b600067ffffffffffffffff821115614f9657614f9561520b565b5b601f19601f8301169050602081019050919050565b6000819050602082019050919050565b600081519050919050565b600081519050919050565b6000602082019050919050565b600082825260208201905092915050565b600082825260208201905092915050565b600082825260208201905092915050565b600081905092915050565b6000615027826150e6565b9150615032836150e6565b9250827fffffffffffffffffffffffffffffffffffffffffffffffffffffffffffffffff03821115615067576150666151ad565b5b828201905092915050565b600061507d826150c6565b9050919050565b60008115159050919050565b6000819050919050565b60007fffffffff0000000000000000000000000000000000000000000000000000000082169050919050565b600073ffffffffffffffffffffffffffffffffffffffff82169050919050565b6000819050919050565b82818337600083830152505050565b60005b8381101561511d578082015181840152602081019050615102565b8381111561512c576000848401525b50505050565b6000600282049050600182168061514a57607f821691505b6020821081141561515e5761515d6151dc565b5b50919050565b600061516f826150e6565b91507fffffffffffffffffffffffffffffffffffffffffffffffffffffffffffffffff8214156151a2576151a16151ad565b5b600182019050919050565b7f4e487b7100000000000000000000000000000000000000000000000000000000600052601160045260246000fd5b7f4e487b7100000000000000000000000000000000000000000000000000000000600052602260045260246000fd5b7f4e487b7100000000000000000000000000000000000000000000000000000000600052604160045260246000fd5b6000601f19601f8301169050919050565b61525481615072565b811461525f57600080fd5b50565b61526b81615090565b811461527657600080fd5b50565b6152828161509a565b811461528d57600080fd5b50565b615299816150e6565b81146152a457600080fd5b5056fea26469706673582212209405fd47d7cd975e702033560cd8538c4a458b56e9bbeda89a6e44dbbd746f3664736f6c63430008000033",
  "immutableReferences": {},
  "source": "// SPDX-License-Identifier: MIT\npragma solidity 0.8.0;\n\nimport \"../client/node_modules/@openzeppelin/contracts/access/AccessControl.sol\";\n\ncontract MedTrials is AccessControl {\n    struct Protocol {\n        string cid;\n        address promoter;\n        string status;\n        address investigator;\n        bool registered;\n        bool authorized;\n        uint256 nbOfPatients;\n        uint256 index;\n    }\n\n    struct Patient {\n        address patient;\n        address investigator;\n        string protocolID;\n        string[] cids;\n        bool consent;\n    }\n\n    struct Promoter {\n        address promoter;\n        string cid;\n    }\n\n    struct Investigator {\n        address promoter;\n        address investigator;\n        string cid;\n    }\n\n    struct Authority {\n        address authority;\n        string cid;\n    }\n\n    mapping(string => Protocol) public protocols;\n    mapping(string => Patient) public patients;\n    mapping(uint256 => string) public protocolsID;\n    mapping(uint256 => string) public patientsID;\n    mapping(uint256 => Promoter) public promoters;\n    mapping(uint256 => Investigator) public investigators;\n    mapping(uint256 => Authority) public authorities;\n    mapping(address => string) roles;\n\n    mapping(string => mapping(string => uint256)) private protocolNumerotation;\n    mapping(address => mapping(string => uint256)) private patientNumerotation;\n\n    bytes32 public constant AUTHORITY = keccak256(\"AUTHORITY\");\n    bytes32 public constant AUTHORITY_ADMIN = keccak256(\"AUTHORITYADMIN\");\n    bytes32 public constant PROMOTER = keccak256(\"PROMOTER\");\n    bytes32 public constant PROMOTER_ADMIN = keccak256(\"PROMOTERADMIN\");\n    bytes32 public constant INVESTIGATOR = keccak256(\"INVESTIGATOR\");\n    bytes32 public constant PATIENT = keccak256(\"PATIENT\");\n\n    uint256 public nbOfProtocolsRegistered;\n    uint256 public nbOfPatients;\n    uint256 public nbOfPromoters;\n    uint256 public nbOfInvestigators;\n    uint256 public nbOfAuthorities;\n\n    event promoterAdded(address _address);\n    event authorityAdded(address _address);\n    event investigatorAdded(address _address);\n    event protocolValidated(string _id);\n    event newProtocol(string _id, address _promotor, address _investigator);\n    event patientAdded(string _patientID, string _protocolID);\n    event consentGiven(string _patientID);\n    event consentRevoked(string _patientID);\n    event cidSaved(string _cid);\n    event protocolSuspended(string _protocolID);\n    event protocolResumed(string _protocolID);\n\n    constructor(\n        address _default_admin,\n        address _authorityAdmin,\n        address _promotorAdmin\n    ) {\n        _setupRole(DEFAULT_ADMIN_ROLE, _default_admin);\n\n        _setRoleAdmin(AUTHORITY_ADMIN, DEFAULT_ADMIN_ROLE);\n        _setRoleAdmin(AUTHORITY, AUTHORITY_ADMIN);\n\n        _setRoleAdmin(PROMOTER_ADMIN, DEFAULT_ADMIN_ROLE);\n        _setRoleAdmin(PROMOTER, PROMOTER_ADMIN);\n\n        _setRoleAdmin(INVESTIGATOR, PROMOTER);\n\n        _setRoleAdmin(PATIENT, INVESTIGATOR);\n\n        _setupRole(AUTHORITY_ADMIN, _authorityAdmin);\n        _setupRole(PROMOTER_ADMIN, _promotorAdmin);\n\n        renounceRole(DEFAULT_ADMIN_ROLE, _default_admin);\n\n        roles[_authorityAdmin] = \"AUTHORITY ADMIN\";\n        roles[_promotorAdmin] = \"PROMOTER ADMIN\";\n    }\n\n    function addAuthority(address _address, string memory _cid) public {\n        require(\n            hasRole(AUTHORITY_ADMIN, msg.sender),\n            \"Only the authority admin can add investigators\"\n        );\n        require(!hasRole(AUTHORITY, _address), \"You are already an authority\");\n        require(!hasRole(PROMOTER, _address), \"You are a promoter\");\n        require(!hasRole(INVESTIGATOR, _address), \"You are an investigator\");\n        require(!hasRole(PROMOTER_ADMIN, _address), \"You are a promoter admin\");\n        require(\n            !hasRole(AUTHORITY_ADMIN, _address),\n            \"You are an authority admin\"\n        );\n\n        grantRole(AUTHORITY, _address);\n        roles[_address] = \"AUTHORITY\";\n\n        authorities[nbOfAuthorities].cid = _cid;\n        authorities[nbOfAuthorities].authority = _address;\n        nbOfAuthorities++;\n\n        emit authorityAdded(_address);\n    }\n\n    function addPromoter(address _address, string memory _cid) public {\n        require(\n            hasRole(PROMOTER_ADMIN, msg.sender),\n            \"Only the promotor admin can add investigators\"\n        );\n        require(!hasRole(PROMOTER, _address), \"You are already a promoter\");\n        require(!hasRole(INVESTIGATOR, _address), \"You are an investigator\");\n        require(!hasRole(AUTHORITY, _address), \"You are an authority\");\n        require(!hasRole(PROMOTER_ADMIN, _address), \"You are a promoter admin\");\n        require(\n            !hasRole(AUTHORITY_ADMIN, _address),\n            \"You are an authority admin\"\n        );\n\n        grantRole(PROMOTER, _address);\n        roles[_address] = \"PROMOTER\";\n\n        promoters[nbOfPromoters].cid = _cid;\n        promoters[nbOfPromoters].promoter = _address;\n        nbOfPromoters++;\n\n        emit promoterAdded(_address);\n    }\n\n    function addInvestigator(address _address, string memory _cid) public {\n        require(\n            hasRole(PROMOTER, msg.sender),\n            \"Only the promotor can add investigators\"\n        );\n        require(\n            !hasRole(INVESTIGATOR, _address),\n            \"You are already an investigator\"\n        );\n        require(!hasRole(PROMOTER, _address), \"You are a promoter\");\n        require(!hasRole(AUTHORITY, _address), \"You are an authority\");\n        require(!hasRole(PROMOTER_ADMIN, _address), \"You are a promoter admin\");\n        require(\n            !hasRole(AUTHORITY_ADMIN, _address),\n            \"You are an authority admin\"\n        );\n\n        grantRole(INVESTIGATOR, _address);\n        roles[_address] = \"INVESTIGATOR\";\n\n        investigators[nbOfInvestigators].cid = _cid;\n        investigators[nbOfInvestigators].promoter = msg.sender;\n        investigators[nbOfInvestigators].investigator = _address;\n        nbOfInvestigators++;\n\n        emit investigatorAdded(_address);\n    }\n\n    function registerProtocol(\n        string memory _id,\n        string memory _cid,\n        string memory center,\n        string memory category,\n        address _investigator\n    ) public {\n        require(\n            hasRole(PROMOTER, msg.sender),\n            \"Only promoters can submit protocols\"\n        );\n        require(\n            !hasRole(PROMOTER, _investigator),\n            \"Promoters cannot be investigators\"\n        );\n        require(\n            !hasRole(AUTHORITY, _investigator),\n            \"Authorities cannot be investigators\"\n        );\n        require(\n            !hasRole(PROMOTER_ADMIN, _investigator),\n            \"Promoters admin cannot be an investigator\"\n        );\n        require(\n            !hasRole(AUTHORITY_ADMIN, _investigator),\n            \"Authorities admin cannot be an investigator\"\n        );\n        require(\n            hasRole(INVESTIGATOR, _investigator),\n            \"The investigator must be registered first\"\n        );\n        require(\n            !protocols[_id].registered,\n            \"The protocol is already registered\"\n        );\n\n        protocols[_id].promoter = msg.sender;\n        protocols[_id].investigator = _investigator;\n        protocols[_id].registered = true;\n        protocols[_id].cid = _cid;\n        protocols[_id].status = \"registered\";\n        protocols[_id].index = nbOfProtocolsRegistered;\n\n        protocolsID[nbOfProtocolsRegistered] = _id;\n        nbOfProtocolsRegistered++;\n\n        protocolNumerotation[center][category]++;\n\n        emit newProtocol(_id, msg.sender, _investigator);\n    }\n\n    function getProtocolCID(string memory _id)\n        public\n        view\n        returns (string memory)\n    {\n        return protocols[_id].cid;\n    }\n\n    function validateProtocol(string memory _id) public {\n        require(\n            hasRole(AUTHORITY, msg.sender),\n            \"Only authorities have right to validate protocols\"\n        );\n\n        protocols[_id].authorized = true;\n        protocols[_id].status = \"validated\";\n\n        emit protocolValidated(_id);\n    }\n\n    function getProtocol(string memory _id)\n        public\n        view\n        returns (Protocol memory)\n    {\n        return protocols[_id];\n    }\n\n    function addPatient(\n        string memory _cid,\n        string memory _patientID,\n        string memory _protocolID,\n        address _patientAddress\n    ) public {\n        require(\n            protocols[_protocolID].authorized == true,\n            \"This protocol has not been authorized yet\"\n        );\n        require(\n            _patientAddress != patients[_patientID].patient,\n            \"This patient already exist\"\n        );\n\n        patients[_patientID].consent = true;\n        patients[_patientID].patient = _patientAddress;\n        patients[_patientID].investigator = msg.sender;\n        patients[_patientID].protocolID = _protocolID;\n        protocols[_protocolID].nbOfPatients++;\n        patients[_patientID].cids.push(_cid);\n\n        patientsID[nbOfPatients] = _patientID;\n        patientNumerotation[msg.sender][_protocolID]++;\n\n        nbOfPatients++;\n\n        grantRole(PATIENT, _patientAddress);\n        roles[_patientAddress] = \"PATIENT\";\n\n        emit patientAdded(_patientID, _protocolID);\n    }\n\n    function revokeConsent(string memory _patientID) public {\n        patients[_patientID].consent == false;\n        delete patients[_patientID];\n        renounceRole(PATIENT, msg.sender);\n\n        emit consentRevoked(_patientID);\n    }\n\n    function suspendTrials(string memory _protocolID) public {\n        require(\n            hasRole(AUTHORITY, msg.sender),\n            \"Only authoriities can suspend trials\"\n        );\n        require(protocols[_protocolID].authorized);\n\n        protocols[_protocolID].authorized = false;\n        protocols[_protocolID].status = \"suspended\";\n\n        emit protocolSuspended(_protocolID);\n    }\n\n    function resumeTrials(string memory _protocolID) public {\n        require(\n            hasRole(AUTHORITY, msg.sender),\n            \"Only authorities can suspend trials\"\n        );\n\n        protocols[_protocolID].authorized = true;\n        protocols[_protocolID].status = \"resumed\";\n\n        emit protocolResumed(_protocolID);\n    }\n\n    function storeDataCID(string memory _patientID, string memory _cid) public {\n        patients[_patientID].cids.push(_cid);\n\n        emit cidSaved(_cid);\n    }\n\n    function getDataCID(string memory _patientID)\n        public\n        view\n        returns (string[] memory)\n    {\n        require(\n            hasRole(INVESTIGATOR, msg.sender) || hasRole(PATIENT, msg.sender),\n            \"Only investigators or patient can collect or read data\"\n        );\n\n        return patients[_patientID].cids;\n    }\n\n    function getProtocolStatus(string memory _protocolID)\n        public\n        view\n        returns (string memory)\n    {\n        return protocols[_protocolID].status;\n    }\n\n    function getRole(address _address) public view returns (string memory) {\n        return roles[_address];\n    }\n\n    function getProtocoleNumerotation(\n        string memory center,\n        string memory category\n    ) public view returns (uint256) {\n        return protocolNumerotation[center][category] + 1;\n    }\n\n    function getPatientNumerotation(string memory _protocolID)\n        public\n        view\n        returns (uint256)\n    {\n        return patientNumerotation[msg.sender][_protocolID] + 1;\n    }\n}\n",
  "sourcePath": "/Users/samuel/Documents/Projet/Pojet_Dev/MedTrials/contracts/MedTrials.sol",
  "compiler": {
    "name": "solc",
    "version": "0.8.0+commit.c7dfd78e.Emscripten.clang"
  },
  "schemaVersion": "3.3.4",
  "updatedAt": "2021-05-16T00:54:25.108Z",
  "networkType": "ethereum",
  "devdoc": {
    "kind": "dev",
    "methods": {
      "getRoleAdmin(bytes32)": {
        "details": "Returns the admin role that controls `role`. See {grantRole} and {revokeRole}. To change a role's admin, use {_setRoleAdmin}."
      },
      "grantRole(bytes32,address)": {
        "details": "Grants `role` to `account`. If `account` had not been already granted `role`, emits a {RoleGranted} event. Requirements: - the caller must have ``role``'s admin role."
      },
      "hasRole(bytes32,address)": {
        "details": "Returns `true` if `account` has been granted `role`."
      },
      "renounceRole(bytes32,address)": {
        "details": "Revokes `role` from the calling account. Roles are often managed via {grantRole} and {revokeRole}: this function's purpose is to provide a mechanism for accounts to lose their privileges if they are compromised (such as when a trusted device is misplaced). If the calling account had been granted `role`, emits a {RoleRevoked} event. Requirements: - the caller must be `account`."
      },
      "revokeRole(bytes32,address)": {
        "details": "Revokes `role` from `account`. If `account` had been granted `role`, emits a {RoleRevoked} event. Requirements: - the caller must have ``role``'s admin role."
      },
      "supportsInterface(bytes4)": {
        "details": "See {IERC165-supportsInterface}."
      }
    },
    "version": 1
  },
  "userdoc": {
    "kind": "user",
    "methods": {},
    "version": 1
  }
}