{
  "contractName": "MedTrials",
  "abi": [
    {
      "inputs": [
        {
          "internalType": "address",
          "name": "_default_admin",
          "type": "address"
        },
        {
          "internalType": "address",
          "name": "_authorityAdmin",
          "type": "address"
        },
        {
          "internalType": "address",
          "name": "_promotorAdmin",
          "type": "address"
        }
      ],
      "stateMutability": "nonpayable",
      "type": "constructor"
    },
    {
      "anonymous": false,
      "inputs": [
        {
          "indexed": true,
          "internalType": "bytes32",
          "name": "role",
          "type": "bytes32"
        },
        {
          "indexed": true,
          "internalType": "bytes32",
          "name": "previousAdminRole",
          "type": "bytes32"
        },
        {
          "indexed": true,
          "internalType": "bytes32",
          "name": "newAdminRole",
          "type": "bytes32"
        }
      ],
      "name": "RoleAdminChanged",
      "type": "event"
    },
    {
      "anonymous": false,
      "inputs": [
        {
          "indexed": true,
          "internalType": "bytes32",
          "name": "role",
          "type": "bytes32"
        },
        {
          "indexed": true,
          "internalType": "address",
          "name": "account",
          "type": "address"
        },
        {
          "indexed": true,
          "internalType": "address",
          "name": "sender",
          "type": "address"
        }
      ],
      "name": "RoleGranted",
      "type": "event"
    },
    {
      "anonymous": false,
      "inputs": [
        {
          "indexed": true,
          "internalType": "bytes32",
          "name": "role",
          "type": "bytes32"
        },
        {
          "indexed": true,
          "internalType": "address",
          "name": "account",
          "type": "address"
        },
        {
          "indexed": true,
          "internalType": "address",
          "name": "sender",
          "type": "address"
        }
      ],
      "name": "RoleRevoked",
      "type": "event"
    },
    {
      "anonymous": false,
      "inputs": [
        {
          "indexed": false,
          "internalType": "address",
          "name": "_address",
          "type": "address"
        }
      ],
      "name": "authorityAdded",
      "type": "event"
    },
    {
      "anonymous": false,
      "inputs": [
        {
          "indexed": false,
          "internalType": "string",
          "name": "_cid",
          "type": "string"
        }
      ],
      "name": "cidSaved",
      "type": "event"
    },
    {
      "anonymous": false,
      "inputs": [
        {
          "indexed": false,
          "internalType": "string",
          "name": "_patientID",
          "type": "string"
        }
      ],
      "name": "consentGiven",
      "type": "event"
    },
    {
      "anonymous": false,
      "inputs": [
        {
          "indexed": false,
          "internalType": "string",
          "name": "_patientID",
          "type": "string"
        }
      ],
      "name": "consentRevoked",
      "type": "event"
    },
    {
      "anonymous": false,
      "inputs": [
        {
          "indexed": false,
          "internalType": "address",
          "name": "_address",
          "type": "address"
        }
      ],
      "name": "investigatorAdded",
      "type": "event"
    },
    {
      "anonymous": false,
      "inputs": [
        {
          "indexed": false,
          "internalType": "string",
          "name": "_id",
          "type": "string"
        },
        {
          "indexed": false,
          "internalType": "address",
          "name": "_promotor",
          "type": "address"
        },
        {
          "indexed": false,
          "internalType": "address",
          "name": "_investigator",
          "type": "address"
        }
      ],
      "name": "newProtocol",
      "type": "event"
    },
    {
      "anonymous": false,
      "inputs": [
        {
          "indexed": false,
          "internalType": "string",
          "name": "_patientID",
          "type": "string"
        },
        {
          "indexed": false,
          "internalType": "string",
          "name": "_protocolID",
          "type": "string"
        }
      ],
      "name": "patientAdded",
      "type": "event"
    },
    {
      "anonymous": false,
      "inputs": [
        {
          "indexed": false,
          "internalType": "address",
          "name": "_address",
          "type": "address"
        }
      ],
      "name": "promoterAdded",
      "type": "event"
    },
    {
      "anonymous": false,
      "inputs": [
        {
          "indexed": false,
          "internalType": "string",
          "name": "_protocolID",
          "type": "string"
        }
      ],
      "name": "protocolResumed",
      "type": "event"
    },
    {
      "anonymous": false,
      "inputs": [
        {
          "indexed": false,
          "internalType": "string",
          "name": "_protocolID",
          "type": "string"
        }
      ],
      "name": "protocolSuspended",
      "type": "event"
    },
    {
      "anonymous": false,
      "inputs": [
        {
          "indexed": false,
          "internalType": "string",
          "name": "_id",
          "type": "string"
        }
      ],
      "name": "protocolValidated",
      "type": "event"
    },
    {
      "inputs": [],
      "name": "AUTHORITY",
      "outputs": [
        {
          "internalType": "bytes32",
          "name": "",
          "type": "bytes32"
        }
      ],
      "stateMutability": "view",
      "type": "function",
      "constant": true
    },
    {
      "inputs": [],
      "name": "AUTHORITY_ADMIN",
      "outputs": [
        {
          "internalType": "bytes32",
          "name": "",
          "type": "bytes32"
        }
      ],
      "stateMutability": "view",
      "type": "function",
      "constant": true
    },
    {
      "inputs": [],
      "name": "DEFAULT_ADMIN_ROLE",
      "outputs": [
        {
          "internalType": "bytes32",
          "name": "",
          "type": "bytes32"
        }
      ],
      "stateMutability": "view",
      "type": "function",
      "constant": true
    },
    {
      "inputs": [],
      "name": "INVESTIGATOR",
      "outputs": [
        {
          "internalType": "bytes32",
          "name": "",
          "type": "bytes32"
        }
      ],
      "stateMutability": "view",
      "type": "function",
      "constant": true
    },
    {
      "inputs": [],
      "name": "PATIENT",
      "outputs": [
        {
          "internalType": "bytes32",
          "name": "",
          "type": "bytes32"
        }
      ],
      "stateMutability": "view",
      "type": "function",
      "constant": true
    },
    {
      "inputs": [],
      "name": "PROMOTER",
      "outputs": [
        {
          "internalType": "bytes32",
          "name": "",
          "type": "bytes32"
        }
      ],
      "stateMutability": "view",
      "type": "function",
      "constant": true
    },
    {
      "inputs": [],
      "name": "PROMOTER_ADMIN",
      "outputs": [
        {
          "internalType": "bytes32",
          "name": "",
          "type": "bytes32"
        }
      ],
      "stateMutability": "view",
      "type": "function",
      "constant": true
    },
    {
      "inputs": [
        {
          "internalType": "uint256",
          "name": "",
          "type": "uint256"
        }
      ],
      "name": "authorities",
      "outputs": [
        {
          "internalType": "address",
          "name": "authority",
          "type": "address"
        },
        {
          "internalType": "string",
          "name": "cid",
          "type": "string"
        }
      ],
      "stateMutability": "view",
      "type": "function",
      "constant": true
    },
    {
      "inputs": [
        {
          "internalType": "bytes32",
          "name": "role",
          "type": "bytes32"
        }
      ],
      "name": "getRoleAdmin",
      "outputs": [
        {
          "internalType": "bytes32",
          "name": "",
          "type": "bytes32"
        }
      ],
      "stateMutability": "view",
      "type": "function",
      "constant": true
    },
    {
      "inputs": [
        {
          "internalType": "bytes32",
          "name": "role",
          "type": "bytes32"
        },
        {
          "internalType": "address",
          "name": "account",
          "type": "address"
        }
      ],
      "name": "grantRole",
      "outputs": [],
      "stateMutability": "nonpayable",
      "type": "function"
    },
    {
      "inputs": [
        {
          "internalType": "bytes32",
          "name": "role",
          "type": "bytes32"
        },
        {
          "internalType": "address",
          "name": "account",
          "type": "address"
        }
      ],
      "name": "hasRole",
      "outputs": [
        {
          "internalType": "bool",
          "name": "",
          "type": "bool"
        }
      ],
      "stateMutability": "view",
      "type": "function",
      "constant": true
    },
    {
      "inputs": [
        {
          "internalType": "uint256",
          "name": "",
          "type": "uint256"
        }
      ],
      "name": "investigators",
      "outputs": [
        {
          "internalType": "address",
          "name": "promoter",
          "type": "address"
        },
        {
          "internalType": "address",
          "name": "investigator",
          "type": "address"
        },
        {
          "internalType": "string",
          "name": "cid",
          "type": "string"
        }
      ],
      "stateMutability": "view",
      "type": "function",
      "constant": true
    },
    {
      "inputs": [],
      "name": "nbOfAuthorities",
      "outputs": [
        {
          "internalType": "uint256",
          "name": "",
          "type": "uint256"
        }
      ],
      "stateMutability": "view",
      "type": "function",
      "constant": true
    },
    {
      "inputs": [],
      "name": "nbOfInvestigators",
      "outputs": [
        {
          "internalType": "uint256",
          "name": "",
          "type": "uint256"
        }
      ],
      "stateMutability": "view",
      "type": "function",
      "constant": true
    },
    {
      "inputs": [],
      "name": "nbOfPatients",
      "outputs": [
        {
          "internalType": "uint256",
          "name": "",
          "type": "uint256"
        }
      ],
      "stateMutability": "view",
      "type": "function",
      "constant": true
    },
    {
      "inputs": [],
      "name": "nbOfPromoters",
      "outputs": [
        {
          "internalType": "uint256",
          "name": "",
          "type": "uint256"
        }
      ],
      "stateMutability": "view",
      "type": "function",
      "constant": true
    },
    {
      "inputs": [],
      "name": "nbOfProtocolsRegistered",
      "outputs": [
        {
          "internalType": "uint256",
          "name": "",
          "type": "uint256"
        }
      ],
      "stateMutability": "view",
      "type": "function",
      "constant": true
    },
    {
      "inputs": [
        {
          "internalType": "string",
          "name": "",
          "type": "string"
        }
      ],
      "name": "patients",
      "outputs": [
        {
          "internalType": "address",
          "name": "patient",
          "type": "address"
        },
        {
          "internalType": "address",
          "name": "investigator",
          "type": "address"
        },
        {
          "internalType": "string",
          "name": "protocolID",
          "type": "string"
        },
        {
          "internalType": "bool",
          "name": "consent",
          "type": "bool"
        }
      ],
      "stateMutability": "view",
      "type": "function",
      "constant": true
    },
    {
      "inputs": [
        {
          "internalType": "uint256",
          "name": "",
          "type": "uint256"
        }
      ],
      "name": "promoters",
      "outputs": [
        {
          "internalType": "address",
          "name": "promoter",
          "type": "address"
        },
        {
          "internalType": "string",
          "name": "cid",
          "type": "string"
        }
      ],
      "stateMutability": "view",
      "type": "function",
      "constant": true
    },
    {
      "inputs": [
        {
          "internalType": "string",
          "name": "",
          "type": "string"
        }
      ],
      "name": "protocols",
      "outputs": [
        {
          "internalType": "string",
          "name": "cid",
          "type": "string"
        },
        {
          "internalType": "address",
          "name": "promoter",
          "type": "address"
        },
        {
          "internalType": "address",
          "name": "investigator",
          "type": "address"
        },
        {
          "internalType": "bool",
          "name": "registered",
          "type": "bool"
        },
        {
          "internalType": "bool",
          "name": "authorized",
          "type": "bool"
        },
        {
          "internalType": "uint256",
          "name": "nbOfPatients",
          "type": "uint256"
        },
        {
          "internalType": "uint256",
          "name": "index",
          "type": "uint256"
        },
        {
          "internalType": "string",
          "name": "status",
          "type": "string"
        }
      ],
      "stateMutability": "view",
      "type": "function",
      "constant": true
    },
    {
      "inputs": [
        {
          "internalType": "uint256",
          "name": "",
          "type": "uint256"
        }
      ],
      "name": "protocolsID",
      "outputs": [
        {
          "internalType": "string",
          "name": "",
          "type": "string"
        }
      ],
      "stateMutability": "view",
      "type": "function",
      "constant": true
    },
    {
      "inputs": [
        {
          "internalType": "bytes32",
          "name": "role",
          "type": "bytes32"
        },
        {
          "internalType": "address",
          "name": "account",
          "type": "address"
        }
      ],
      "name": "renounceRole",
      "outputs": [],
      "stateMutability": "nonpayable",
      "type": "function"
    },
    {
      "inputs": [
        {
          "internalType": "bytes32",
          "name": "role",
          "type": "bytes32"
        },
        {
          "internalType": "address",
          "name": "account",
          "type": "address"
        }
      ],
      "name": "revokeRole",
      "outputs": [],
      "stateMutability": "nonpayable",
      "type": "function"
    },
    {
      "inputs": [
        {
          "internalType": "bytes4",
          "name": "interfaceId",
          "type": "bytes4"
        }
      ],
      "name": "supportsInterface",
      "outputs": [
        {
          "internalType": "bool",
          "name": "",
          "type": "bool"
        }
      ],
      "stateMutability": "view",
      "type": "function",
      "constant": true
    },
    {
      "inputs": [
        {
          "internalType": "address",
          "name": "_address",
          "type": "address"
        },
        {
          "internalType": "string",
          "name": "_cid",
          "type": "string"
        }
      ],
      "name": "addAuthority",
      "outputs": [],
      "stateMutability": "nonpayable",
      "type": "function"
    },
    {
      "inputs": [
        {
          "internalType": "address",
          "name": "_address",
          "type": "address"
        },
        {
          "internalType": "string",
          "name": "_cid",
          "type": "string"
        }
      ],
      "name": "addPromoter",
      "outputs": [],
      "stateMutability": "nonpayable",
      "type": "function"
    },
    {
      "inputs": [
        {
          "internalType": "address",
          "name": "_address",
          "type": "address"
        },
        {
          "internalType": "string",
          "name": "_cid",
          "type": "string"
        }
      ],
      "name": "addInvestigator",
      "outputs": [],
      "stateMutability": "nonpayable",
      "type": "function"
    },
    {
      "inputs": [
        {
          "internalType": "string",
          "name": "_id",
          "type": "string"
        },
        {
          "internalType": "string",
          "name": "_cid",
          "type": "string"
        },
        {
          "internalType": "string",
          "name": "center",
          "type": "string"
        },
        {
          "internalType": "string",
          "name": "category",
          "type": "string"
        },
        {
          "internalType": "address",
          "name": "_investigator",
          "type": "address"
        }
      ],
      "name": "registerProtocol",
      "outputs": [],
      "stateMutability": "nonpayable",
      "type": "function"
    },
    {
      "inputs": [
        {
          "internalType": "string",
          "name": "_id",
          "type": "string"
        }
      ],
      "name": "getProtocolCID",
      "outputs": [
        {
          "internalType": "string",
          "name": "",
          "type": "string"
        }
      ],
      "stateMutability": "view",
      "type": "function",
      "constant": true
    },
    {
      "inputs": [
        {
          "internalType": "string",
          "name": "_id",
          "type": "string"
        }
      ],
      "name": "validateProtocol",
      "outputs": [],
      "stateMutability": "nonpayable",
      "type": "function"
    },
    {
      "inputs": [
        {
          "internalType": "string",
          "name": "_id",
          "type": "string"
        }
      ],
      "name": "getProtocol",
      "outputs": [
        {
          "components": [
            {
              "internalType": "string",
              "name": "cid",
              "type": "string"
            },
            {
              "internalType": "address",
              "name": "promoter",
              "type": "address"
            },
            {
              "internalType": "address",
              "name": "investigator",
              "type": "address"
            },
            {
              "internalType": "bool",
              "name": "registered",
              "type": "bool"
            },
            {
              "internalType": "bool",
              "name": "authorized",
              "type": "bool"
            },
            {
              "internalType": "uint256",
              "name": "nbOfPatients",
              "type": "uint256"
            },
            {
              "internalType": "uint256",
              "name": "index",
              "type": "uint256"
            },
            {
              "internalType": "string",
              "name": "status",
              "type": "string"
            }
          ],
          "internalType": "struct MedTrials.Protocol",
          "name": "",
          "type": "tuple"
        }
      ],
      "stateMutability": "view",
      "type": "function",
      "constant": true
    },
    {
      "inputs": [
        {
          "internalType": "string",
          "name": "_cid",
          "type": "string"
        },
        {
          "internalType": "string",
          "name": "_patientID",
          "type": "string"
        },
        {
          "internalType": "string",
          "name": "_protocolID",
          "type": "string"
        },
        {
          "internalType": "address",
          "name": "_patientAddress",
          "type": "address"
        }
      ],
      "name": "addPatient",
      "outputs": [],
      "stateMutability": "nonpayable",
      "type": "function"
    },
    {
      "inputs": [
        {
          "internalType": "string",
          "name": "_patientID",
          "type": "string"
        }
      ],
      "name": "giveConsent",
      "outputs": [],
      "stateMutability": "nonpayable",
      "type": "function"
    },
    {
      "inputs": [
        {
          "internalType": "string",
          "name": "_patientID",
          "type": "string"
        }
      ],
      "name": "revokeConsent",
      "outputs": [],
      "stateMutability": "nonpayable",
      "type": "function"
    },
    {
      "inputs": [
        {
          "internalType": "string",
          "name": "_protocolID",
          "type": "string"
        }
      ],
      "name": "suspendTrials",
      "outputs": [],
      "stateMutability": "nonpayable",
      "type": "function"
    },
    {
      "inputs": [
        {
          "internalType": "string",
          "name": "_protocolID",
          "type": "string"
        }
      ],
      "name": "resumeTrials",
      "outputs": [],
      "stateMutability": "nonpayable",
      "type": "function"
    },
    {
      "inputs": [
        {
          "internalType": "string",
          "name": "_patientID",
          "type": "string"
        },
        {
          "internalType": "string",
          "name": "_cid",
          "type": "string"
        }
      ],
      "name": "storeDataCID",
      "outputs": [],
      "stateMutability": "nonpayable",
      "type": "function"
    },
    {
      "inputs": [
        {
          "internalType": "string",
          "name": "_patientID",
          "type": "string"
        }
      ],
      "name": "getDataCID",
      "outputs": [
        {
          "internalType": "string[]",
          "name": "",
          "type": "string[]"
        }
      ],
      "stateMutability": "view",
      "type": "function",
      "constant": true
    },
    {
      "inputs": [
        {
          "internalType": "string",
          "name": "_protocolID",
          "type": "string"
        }
      ],
      "name": "getProtocolStatus",
      "outputs": [
        {
          "internalType": "string",
          "name": "",
          "type": "string"
        }
      ],
      "stateMutability": "view",
      "type": "function",
      "constant": true
    },
    {
      "inputs": [
        {
          "internalType": "string",
          "name": "_protocolID",
          "type": "string"
        }
      ],
      "name": "numberOfPatientByProtocol",
      "outputs": [
        {
          "internalType": "uint256",
          "name": "",
          "type": "uint256"
        }
      ],
      "stateMutability": "view",
      "type": "function",
      "constant": true
    },
    {
      "inputs": [
        {
          "internalType": "address",
          "name": "_address",
          "type": "address"
        }
      ],
      "name": "getRole",
      "outputs": [
        {
          "internalType": "string",
          "name": "",
          "type": "string"
        }
      ],
      "stateMutability": "view",
      "type": "function",
      "constant": true
    },
    {
      "inputs": [
        {
          "internalType": "string",
          "name": "center",
          "type": "string"
        },
        {
          "internalType": "string",
          "name": "category",
          "type": "string"
        }
      ],
      "name": "getProtocoleNumerotation",
      "outputs": [
        {
          "internalType": "uint256",
          "name": "",
          "type": "uint256"
        }
      ],
      "stateMutability": "view",
      "type": "function",
      "constant": true
    }
  ],
  "bytecode": "0x60806040523480156200001157600080fd5b5060405162006946380380620069468339818101604052810190620000379190620007da565b6200004c6000801b846200039660201b60201c565b620000817f3e206be88d1de4207c0189003e17add3718b1a1bf78910a785940577239bbdae6000801b620003ac60201b60201c565b620000d37f843b48dccc6ff192f9330133622b0536f7b94feca0cf36e7e46fc50060b6f8827f3e206be88d1de4207c0189003e17add3718b1a1bf78910a785940577239bbdae620003ac60201b60201c565b620001087f47a6ab365f603cf120cb936195de17fd0bac3880ff606e7a0edb5e8e6580b1ae6000801b620003ac60201b60201c565b6200015a7f0996d044c7309cb5a01d79c18ee9e4c86aca84367cbd5bfd5f5d0606acc992737f47a6ab365f603cf120cb936195de17fd0bac3880ff606e7a0edb5e8e6580b1ae620003ac60201b60201c565b620001ac7f97f21e7273917267af1fea4c3510695aa29abe57349ce57ceec11b34688318037f0996d044c7309cb5a01d79c18ee9e4c86aca84367cbd5bfd5f5d0606acc99273620003ac60201b60201c565b620001fe7fe5786ee6f50ab1a5567cb3f3f6840a2f4ddbafdf4a35cb2c52d5b732b1e84a327f97f21e7273917267af1fea4c3510695aa29abe57349ce57ceec11b3468831803620003ac60201b60201c565b620002307f3e206be88d1de4207c0189003e17add3718b1a1bf78910a785940577239bbdae836200039660201b60201c565b620002627f47a6ab365f603cf120cb936195de17fd0bac3880ff606e7a0edb5e8e6580b1ae826200039660201b60201c565b620002776000801b846200040960201b60201c565b6040518060400160405280600f81526020017f415554484f524954592041444d494e0000000000000000000000000000000000815250600760008473ffffffffffffffffffffffffffffffffffffffff1673ffffffffffffffffffffffffffffffffffffffff16815260200190815260200160002090805190602001906200030192919062000713565b506040518060400160405280600e81526020017f50524f4d4f5445522041444d494e000000000000000000000000000000000000815250600760008373ffffffffffffffffffffffffffffffffffffffff1673ffffffffffffffffffffffffffffffffffffffff16815260200190815260200160002090805190602001906200038c92919062000713565b505050506200097e565b620003a882826200049f60201b60201c565b5050565b80620003be836200059060201b60201c565b837fbd79b86ffe0ab8e8776151514217cd7cacd52c909f66475c3af44e129f0b00ff60405160405180910390a480600080848152602001908152602001600020600101819055505050565b62000419620005af60201b60201c565b73ffffffffffffffffffffffffffffffffffffffff168173ffffffffffffffffffffffffffffffffffffffff161462000489576040517f08c379a0000000000000000000000000000000000000000000000000000000008152600401620004809062000898565b60405180910390fd5b6200049b8282620005b760201b60201c565b5050565b620004b18282620006a960201b60201c565b6200058c57600160008084815260200190815260200160002060000160008373ffffffffffffffffffffffffffffffffffffffff1673ffffffffffffffffffffffffffffffffffffffff16815260200190815260200160002060006101000a81548160ff02191690831515021790555062000531620005af60201b60201c565b73ffffffffffffffffffffffffffffffffffffffff168173ffffffffffffffffffffffffffffffffffffffff16837f2f8788117e7eff1d82e926ec794901d17c78024a50270940304540a733656f0d60405160405180910390a45b5050565b6000806000838152602001908152602001600020600101549050919050565b600033905090565b620005c98282620006a960201b60201c565b15620006a557600080600084815260200190815260200160002060000160008373ffffffffffffffffffffffffffffffffffffffff1673ffffffffffffffffffffffffffffffffffffffff16815260200190815260200160002060006101000a81548160ff0219169083151502179055506200064a620005af60201b60201c565b73ffffffffffffffffffffffffffffffffffffffff168173ffffffffffffffffffffffffffffffffffffffff16837ff6391f5c32d9c69d2a47ea670b442974b53935d1edc7fd64eb21e047a839171b60405160405180910390a45b5050565b600080600084815260200190815260200160002060000160008373ffffffffffffffffffffffffffffffffffffffff1673ffffffffffffffffffffffffffffffffffffffff16815260200190815260200160002060009054906101000a900460ff16905092915050565b8280546200072190620008ff565b90600052602060002090601f01602090048101928262000745576000855562000791565b82601f106200076057805160ff191683800117855562000791565b8280016001018555821562000791579182015b828111156200079057825182559160200191906001019062000773565b5b509050620007a09190620007a4565b5090565b5b80821115620007bf576000816000905550600101620007a5565b5090565b600081519050620007d48162000964565b92915050565b600080600060608486031215620007f057600080fd5b60006200080086828701620007c3565b93505060206200081386828701620007c3565b92505060406200082686828701620007c3565b9150509250925092565b60006200083f602f83620008ba565b91507f416363657373436f6e74726f6c3a2063616e206f6e6c792072656e6f756e636560008301527f20726f6c657320666f722073656c6600000000000000000000000000000000006020830152604082019050919050565b60006020820190508181036000830152620008b38162000830565b9050919050565b600082825260208201905092915050565b6000620008d882620008df565b9050919050565b600073ffffffffffffffffffffffffffffffffffffffff82169050919050565b600060028204905060018216806200091857607f821691505b602082108114156200092f576200092e62000935565b5b50919050565b7f4e487b7100000000000000000000000000000000000000000000000000000000600052602260045260246000fd5b6200096f81620008cb565b81146200097b57600080fd5b50565b615fb8806200098e6000396000f3fe608060405234801561001057600080fd5b506004361061025e5760003560e01c806389fcd79611610146578063cd5c3b2b116100c3578063eb3b0fc811610087578063eb3b0fc814610789578063ebc48391146107bb578063ec9f4bda146107d9578063ed5ea0d2146107f7578063f7f093b614610813578063fad4fcc7146108435761025e565b8063cd5c3b2b146106d1578063cf2a9a9314610701578063d547741f1461071f578063d751b1501461073b578063e1d862d91461076b5761025e565b8063b62f9c741161010a578063b62f9c7414610616578063c1bd2c2014610634578063c4f3983014610652578063c6009d8414610682578063cb39dce5146106b55761025e565b806389fcd7961461057257806391d1485414610590578063a1a8316b146105c0578063a217fddf146105dc578063a24d9658146105fa5761025e565b80633ca1d75f116101df578063591fe6da116101a3578063591fe6da1461049e5780635e49bdaf146104bc5780637992fd37146104d85780637ba3ae71146104f45780637beb410714610524578063834afa81146105545761025e565b80633ca1d75f146103c05780633f0bee32146103dc578063442767331461040d578063484ed33e1461043d578063494503d41461046d5761025e565b80632de6388f116102265780632de6388f146103345780632f2ff15d146103505780632f77e62f1461036c57806336568abe14610388578063393618a7146103a45761025e565b806301ffc9a71461026357806309c1ce8b146102935780631dae9454146102af5780631f500061146102e6578063248a9ca314610304575b600080fd5b61027d60048036038101906102789190614298565b610861565b60405161028a91906155cf565b60405180910390f35b6102ad60048036038101906102a89190614419565b6108db565b005b6102c960048036038101906102c491906142c1565b610e5a565b6040516102dd989796959493929190615665565b60405180910390f35b6102ee611022565b6040516102fb91906155ea565b60405180910390f35b61031e60048036038101906103199190614233565b611046565b60405161032b91906155ea565b60405180910390f35b61034e600480360381019061034991906142c1565b611065565b005b61036a6004803603810190610365919061425c565b6111e5565b005b610386600480360381019061038191906142c1565b61124b565b005b6103a2600480360381019061039d919061425c565b6113cb565b005b6103be60048036038101906103b991906141df565b61144e565b005b6103da60048036038101906103d591906141df565b611853565b005b6103f660048036038101906103f191906144f0565b611c58565b60405161040492919061557d565b60405180910390f35b610427600480360381019061042291906141b6565b611d24565b6040516104349190615605565b60405180910390f35b610457600480360381019061045291906142c1565b611df5565b6040516104649190615c0a565b60405180910390f35b610487600480360381019061048291906144f0565b611e20565b60405161049592919061557d565b60405180910390f35b6104a6611eec565b6040516104b391906155ea565b60405180910390f35b6104d660048036038101906104d191906141df565b611f10565b005b6104f260048036038101906104ed919061436e565b61236c565b005b61050e600480360381019061050991906142c1565b6127ad565b60405161051b9190615605565b60405180910390f35b61053e600480360381019061053991906142c1565b612a8e565b60405161054b9190615be8565b60405180910390f35b61055c612dcb565b6040516105699190615c0a565b60405180910390f35b61057a612dd1565b60405161058791906155ea565b60405180910390f35b6105aa60048036038101906105a5919061425c565b612df5565b6040516105b791906155cf565b60405180910390f35b6105da60048036038101906105d591906142c1565b612e5f565b005b6105e461301b565b6040516105f191906155ea565b60405180910390f35b610614600480360381019061060f91906142c1565b613022565b005b61061e613255565b60405161062b9190615c0a565b60405180910390f35b61063c61325b565b60405161064991906155ea565b60405180910390f35b61066c60048036038101906106679190614302565b61327f565b6040516106799190615c0a565b60405180910390f35b61069c600480360381019061069791906142c1565b6132d0565b6040516106ac9493929190615531565b60405180910390f35b6106cf60048036038101906106ca9190614302565b6133eb565b005b6106eb60048036038101906106e691906144f0565b61360e565b6040516106f89190615605565b60405180910390f35b6107096136ae565b60405161071691906155ea565b60405180910390f35b6107396004803603810190610734919061425c565b6136d2565b005b610755600480360381019061075091906142c1565b613738565b6040516107629190615605565b60405180910390f35b6107736137eb565b6040516107809190615c0a565b60405180910390f35b6107a3600480360381019061079e91906144f0565b6137f1565b6040516107b2939291906154f3565b60405180910390f35b6107c36138e3565b6040516107d09190615c0a565b60405180910390f35b6107e16138e9565b6040516107ee91906155ea565b60405180910390f35b610811600480360381019061080c91906142c1565b61390d565b005b61082d600480360381019061082891906142c1565b613a9d565b60405161083a91906155ad565b60405180910390f35b61084b613d24565b6040516108589190615c0a565b60405180910390f35b60007f7965db0b000000000000000000000000000000000000000000000000000000007bffffffffffffffffffffffffffffffffffffffffffffffffffffffff1916827bffffffffffffffffffffffffffffffffffffffffffffffffffffffff191614806108d457506108d382613d2a565b5b9050919050565b6109057f0996d044c7309cb5a01d79c18ee9e4c86aca84367cbd5bfd5f5d0606acc9927333612df5565b610944576040517f08c379a000000000000000000000000000000000000000000000000000000000815260040161093b90615948565b60405180910390fd5b61096e7f0996d044c7309cb5a01d79c18ee9e4c86aca84367cbd5bfd5f5d0606acc9927382612df5565b156109ae576040517f08c379a00000000000000000000000000000000000000000000000000000000081526004016109a590615a08565b60405180910390fd5b6109d87f843b48dccc6ff192f9330133622b0536f7b94feca0cf36e7e46fc50060b6f88282612df5565b15610a18576040517f08c379a0000000000000000000000000000000000000000000000000000000008152600401610a0f90615aa8565b60405180910390fd5b610a427f47a6ab365f603cf120cb936195de17fd0bac3880ff606e7a0edb5e8e6580b1ae82612df5565b15610a82576040517f08c379a0000000000000000000000000000000000000000000000000000000008152600401610a7990615808565b60405180910390fd5b610aac7f3e206be88d1de4207c0189003e17add3718b1a1bf78910a785940577239bbdae82612df5565b15610aec576040517f08c379a0000000000000000000000000000000000000000000000000000000008152600401610ae3906158a8565b60405180910390fd5b610b167f97f21e7273917267af1fea4c3510695aa29abe57349ce57ceec11b346883180382612df5565b610b55576040517f08c379a0000000000000000000000000000000000000000000000000000000008152600401610b4c906159c8565b60405180910390fd5b600185604051610b6591906154c1565b908152602001604051809103902060020160149054906101000a900460ff1615610bc4576040517f08c379a0000000000000000000000000000000000000000000000000000000008152600401610bbb90615a88565b60405180910390fd5b33600186604051610bd591906154c1565b908152602001604051809103902060010160006101000a81548173ffffffffffffffffffffffffffffffffffffffff021916908373ffffffffffffffffffffffffffffffffffffffff16021790555080600186604051610c3591906154c1565b908152602001604051809103902060020160006101000a81548173ffffffffffffffffffffffffffffffffffffffff021916908373ffffffffffffffffffffffffffffffffffffffff16021790555060018086604051610c9591906154c1565b908152602001604051809103902060020160146101000a81548160ff02191690831515021790555083600186604051610cce91906154c1565b90815260200160405180910390206000019080519060200190610cf2929190613f5d565b506040518060400160405280600a81526020017f7265676973746572656400000000000000000000000000000000000000000000815250600186604051610d3991906154c1565b90815260200160405180910390206005019080519060200190610d5d929190613f5d565b50600954600186604051610d7191906154c1565b908152602001604051809103902060040181905550846003600060095481526020019081526020016000209080519060200190610daf929190613f5d565b5060096000815480929190610dc390615e3f565b9190505550600883604051610dd891906154c1565b908152602001604051809103902082604051610df491906154c1565b90815260200160405180910390206000815480929190610e1390615e3f565b91905055507fff88452d1e63b10e4f05e166bed6696de7594668e0e30daf24839937a0a27fee853383604051610e4b93929190615627565b60405180910390a15050505050565b600181805160208101820180518482526020830160208501208183528095505050505050600091509050806000018054610e9390615e0d565b80601f0160208091040260200160405190810160405280929190818152602001828054610ebf90615e0d565b8015610f0c5780601f10610ee157610100808354040283529160200191610f0c565b820191906000526020600020905b815481529060010190602001808311610eef57829003601f168201915b5050505050908060010160009054906101000a900473ffffffffffffffffffffffffffffffffffffffff16908060020160009054906101000a900473ffffffffffffffffffffffffffffffffffffffff16908060020160149054906101000a900460ff16908060020160159054906101000a900460ff1690806003015490806004015490806005018054610f9f90615e0d565b80601f0160208091040260200160405190810160405280929190818152602001828054610fcb90615e0d565b80156110185780601f10610fed57610100808354040283529160200191611018565b820191906000526020600020905b815481529060010190602001808311610ffb57829003601f168201915b5050505050905088565b7fe5786ee6f50ab1a5567cb3f3f6840a2f4ddbafdf4a35cb2c52d5b732b1e84a3281565b6000806000838152602001908152602001600020600101549050919050565b61108f7f843b48dccc6ff192f9330133622b0536f7b94feca0cf36e7e46fc50060b6f88233612df5565b6110ce576040517f08c379a00000000000000000000000000000000000000000000000000000000081526004016110c5906157a8565b60405180910390fd5b6001816040516110de91906154c1565b908152602001604051809103902060020160159054906101000a900460ff161561110757600080fd5b6001808260405161111891906154c1565b908152602001604051809103902060020160156101000a81548160ff0219169083151502179055506040518060400160405280600781526020017f726573756d65640000000000000000000000000000000000000000000000000081525060018260405161118691906154c1565b908152602001604051809103902060050190805190602001906111aa929190613f5d565b507fd1c688ddb9e9baabcd8e5f84a85f4933173bc6600b2f361087b41cd9304e2920816040516111da9190615605565b60405180910390a150565b6111fe6111f183611046565b6111f9613d94565b612df5565b61123d576040517f08c379a000000000000000000000000000000000000000000000000000000000815260040161123490615768565b60405180910390fd5b6112478282613d9c565b5050565b6112757f843b48dccc6ff192f9330133622b0536f7b94feca0cf36e7e46fc50060b6f88233612df5565b6112b4576040517f08c379a00000000000000000000000000000000000000000000000000000000081526004016112ab906157a8565b60405180910390fd5b6001816040516112c491906154c1565b908152602001604051809103902060020160159054906101000a900460ff166112ec57600080fd5b60006001826040516112fe91906154c1565b908152602001604051809103902060020160156101000a81548160ff0219169083151502179055506040518060400160405280600981526020017f73757370656e646564000000000000000000000000000000000000000000000081525060018260405161136c91906154c1565b90815260200160405180910390206005019080519060200190611390929190613f5d565b507fb9f86d562ae4d5d427f505b81f74024716097f50538bc3d5a16f0716ca399559816040516113c09190615605565b60405180910390a150565b6113d3613d94565b73ffffffffffffffffffffffffffffffffffffffff168173ffffffffffffffffffffffffffffffffffffffff1614611440576040517f08c379a000000000000000000000000000000000000000000000000000000000815260040161143790615b88565b60405180910390fd5b61144a8282613e7c565b5050565b6114787f47a6ab365f603cf120cb936195de17fd0bac3880ff606e7a0edb5e8e6580b1ae33612df5565b6114b7576040517f08c379a00000000000000000000000000000000000000000000000000000000081526004016114ae90615828565b60405180910390fd5b6114e17f0996d044c7309cb5a01d79c18ee9e4c86aca84367cbd5bfd5f5d0606acc9927383612df5565b15611521576040517f08c379a000000000000000000000000000000000000000000000000000000000815260040161151890615988565b60405180910390fd5b61154b7f97f21e7273917267af1fea4c3510695aa29abe57349ce57ceec11b346883180383612df5565b1561158b576040517f08c379a0000000000000000000000000000000000000000000000000000000008152600401611582906157c8565b60405180910390fd5b6115b57f843b48dccc6ff192f9330133622b0536f7b94feca0cf36e7e46fc50060b6f88283612df5565b156115f5576040517f08c379a00000000000000000000000000000000000000000000000000000000081526004016115ec90615928565b60405180910390fd5b61161f7f47a6ab365f603cf120cb936195de17fd0bac3880ff606e7a0edb5e8e6580b1ae83612df5565b1561165f576040517f08c379a000000000000000000000000000000000000000000000000000000000815260040161165690615ba8565b60405180910390fd5b6116897f3e206be88d1de4207c0189003e17add3718b1a1bf78910a785940577239bbdae83612df5565b156116c9576040517f08c379a00000000000000000000000000000000000000000000000000000000081526004016116c090615728565b60405180910390fd5b6116f37f0996d044c7309cb5a01d79c18ee9e4c86aca84367cbd5bfd5f5d0606acc99273836111e5565b6040518060400160405280600881526020017f50524f4d4f544552000000000000000000000000000000000000000000000000815250600760008473ffffffffffffffffffffffffffffffffffffffff1673ffffffffffffffffffffffffffffffffffffffff168152602001908152602001600020908051906020019061177b929190613f5d565b508060046000600b54815260200190815260200160002060010190805190602001906117a8929190613f5d565b508160046000600b54815260200190815260200160002060000160006101000a81548173ffffffffffffffffffffffffffffffffffffffff021916908373ffffffffffffffffffffffffffffffffffffffff160217905550600b600081548092919061181390615e3f565b91905055507f786ebfd921e487d94a7dbf555edf33e5f264f7b59acdcdfe139c08f48f0755598260405161184791906154d8565b60405180910390a15050565b61187d7f3e206be88d1de4207c0189003e17add3718b1a1bf78910a785940577239bbdae33612df5565b6118bc576040517f08c379a00000000000000000000000000000000000000000000000000000000081526004016118b390615748565b60405180910390fd5b6118e67f843b48dccc6ff192f9330133622b0536f7b94feca0cf36e7e46fc50060b6f88283612df5565b15611926576040517f08c379a000000000000000000000000000000000000000000000000000000000815260040161191d90615908565b60405180910390fd5b6119507f0996d044c7309cb5a01d79c18ee9e4c86aca84367cbd5bfd5f5d0606acc9927383612df5565b15611990576040517f08c379a000000000000000000000000000000000000000000000000000000000815260040161198790615a48565b60405180910390fd5b6119ba7f97f21e7273917267af1fea4c3510695aa29abe57349ce57ceec11b346883180383612df5565b156119fa576040517f08c379a00000000000000000000000000000000000000000000000000000000081526004016119f1906157c8565b60405180910390fd5b611a247f47a6ab365f603cf120cb936195de17fd0bac3880ff606e7a0edb5e8e6580b1ae83612df5565b15611a64576040517f08c379a0000000000000000000000000000000000000000000000000000000008152600401611a5b90615ba8565b60405180910390fd5b611a8e7f3e206be88d1de4207c0189003e17add3718b1a1bf78910a785940577239bbdae83612df5565b15611ace576040517f08c379a0000000000000000000000000000000000000000000000000000000008152600401611ac590615728565b60405180910390fd5b611af87f843b48dccc6ff192f9330133622b0536f7b94feca0cf36e7e46fc50060b6f882836111e5565b6040518060400160405280600981526020017f415554484f524954590000000000000000000000000000000000000000000000815250600760008473ffffffffffffffffffffffffffffffffffffffff1673ffffffffffffffffffffffffffffffffffffffff1681526020019081526020016000209080519060200190611b80929190613f5d565b508060066000600d5481526020019081526020016000206001019080519060200190611bad929190613f5d565b508160066000600d54815260200190815260200160002060000160006101000a81548173ffffffffffffffffffffffffffffffffffffffff021916908373ffffffffffffffffffffffffffffffffffffffff160217905550600d6000815480929190611c1890615e3f565b91905055507f3c0aee07d693a6f94b1a6aca6097bdde55429f0834eb9c27e3c31a03081f09b482604051611c4c91906154d8565b60405180910390a15050565b60046020528060005260406000206000915090508060000160009054906101000a900473ffffffffffffffffffffffffffffffffffffffff1690806001018054611ca190615e0d565b80601f0160208091040260200160405190810160405280929190818152602001828054611ccd90615e0d565b8015611d1a5780601f10611cef57610100808354040283529160200191611d1a565b820191906000526020600020905b815481529060010190602001808311611cfd57829003601f168201915b5050505050905082565b6060600760008373ffffffffffffffffffffffffffffffffffffffff1673ffffffffffffffffffffffffffffffffffffffff1681526020019081526020016000208054611d7090615e0d565b80601f0160208091040260200160405190810160405280929190818152602001828054611d9c90615e0d565b8015611de95780601f10611dbe57610100808354040283529160200191611de9565b820191906000526020600020905b815481529060010190602001808311611dcc57829003601f168201915b50505050509050919050565b6000600182604051611e0791906154c1565b9081526020016040518091039020600301549050919050565b60066020528060005260406000206000915090508060000160009054906101000a900473ffffffffffffffffffffffffffffffffffffffff1690806001018054611e6990615e0d565b80601f0160208091040260200160405190810160405280929190818152602001828054611e9590615e0d565b8015611ee25780601f10611eb757610100808354040283529160200191611ee2565b820191906000526020600020905b815481529060010190602001808311611ec557829003601f168201915b5050505050905082565b7f3e206be88d1de4207c0189003e17add3718b1a1bf78910a785940577239bbdae81565b611f3a7f0996d044c7309cb5a01d79c18ee9e4c86aca84367cbd5bfd5f5d0606acc9927333612df5565b611f79576040517f08c379a0000000000000000000000000000000000000000000000000000000008152600401611f70906158e8565b60405180910390fd5b611fa37f97f21e7273917267af1fea4c3510695aa29abe57349ce57ceec11b346883180383612df5565b15611fe3576040517f08c379a0000000000000000000000000000000000000000000000000000000008152600401611fda906159a8565b60405180910390fd5b61200d7f0996d044c7309cb5a01d79c18ee9e4c86aca84367cbd5bfd5f5d0606acc9927383612df5565b1561204d576040517f08c379a000000000000000000000000000000000000000000000000000000000815260040161204490615a48565b60405180910390fd5b6120777f843b48dccc6ff192f9330133622b0536f7b94feca0cf36e7e46fc50060b6f88283612df5565b156120b7576040517f08c379a00000000000000000000000000000000000000000000000000000000081526004016120ae90615928565b60405180910390fd5b6120e17f47a6ab365f603cf120cb936195de17fd0bac3880ff606e7a0edb5e8e6580b1ae83612df5565b15612121576040517f08c379a000000000000000000000000000000000000000000000000000000000815260040161211890615ba8565b60405180910390fd5b61214b7f3e206be88d1de4207c0189003e17add3718b1a1bf78910a785940577239bbdae83612df5565b1561218b576040517f08c379a000000000000000000000000000000000000000000000000000000000815260040161218290615728565b60405180910390fd5b6121b57f97f21e7273917267af1fea4c3510695aa29abe57349ce57ceec11b3468831803836111e5565b6040518060400160405280600c81526020017f494e56455354494741544f520000000000000000000000000000000000000000815250600760008473ffffffffffffffffffffffffffffffffffffffff1673ffffffffffffffffffffffffffffffffffffffff168152602001908152602001600020908051906020019061223d929190613f5d565b508060056000600c548152602001908152602001600020600201908051906020019061226a929190613f5d565b503360056000600c54815260200190815260200160002060000160006101000a81548173ffffffffffffffffffffffffffffffffffffffff021916908373ffffffffffffffffffffffffffffffffffffffff1602179055508160056000600c54815260200190815260200160002060010160006101000a81548173ffffffffffffffffffffffffffffffffffffffff021916908373ffffffffffffffffffffffffffffffffffffffff160217905550600c600081548092919061232c90615e3f565b91905055507fe8418412d360af43b959e2ca49b9ad98feb77e7b5597963ca346077db47d69ba8260405161236091906154d8565b60405180910390a15050565b6123967f97f21e7273917267af1fea4c3510695aa29abe57349ce57ceec11b346883180333612df5565b6123d5576040517f08c379a00000000000000000000000000000000000000000000000000000000081526004016123cc90615a28565b60405180910390fd5b600115156001836040516123e991906154c1565b908152602001604051809103902060020160159054906101000a900460ff1615151461244a576040517f08c379a000000000000000000000000000000000000000000000000000000000815260040161244190615888565b60405180910390fd5b60018260405161245a91906154c1565b908152602001604051809103902060020160009054906101000a900473ffffffffffffffffffffffffffffffffffffffff1673ffffffffffffffffffffffffffffffffffffffff163373ffffffffffffffffffffffffffffffffffffffff16146124f9576040517f08c379a00000000000000000000000000000000000000000000000000000000081526004016124f0906157e8565b60405180910390fd5b600160028460405161250b91906154c1565b908152602001604051809103902060030160006101000a81548160ff0219169083151502179055508060028460405161254491906154c1565b908152602001604051809103902060000160006101000a81548173ffffffffffffffffffffffffffffffffffffffff021916908373ffffffffffffffffffffffffffffffffffffffff160217905550336002846040516125a491906154c1565b908152602001604051809103902060010160006101000a81548173ffffffffffffffffffffffffffffffffffffffff021916908373ffffffffffffffffffffffffffffffffffffffff1602179055508160028460405161260491906154c1565b90815260200160405180910390206002019080519060200190612628929190613f5d565b5060018260405161263991906154c1565b9081526020016040518091039020600301600081548092919061265b90615e3f565b919050555060028360405161267091906154c1565b9081526020016040518091039020600401849080600181540180825580915050600190039060005260206000200160009091909190915090805190602001906126ba929190613f5d565b506126e57fe5786ee6f50ab1a5567cb3f3f6840a2f4ddbafdf4a35cb2c52d5b732b1e84a32826111e5565b6040518060400160405280600781526020017f50415449454e5400000000000000000000000000000000000000000000000000815250600760008373ffffffffffffffffffffffffffffffffffffffff1673ffffffffffffffffffffffffffffffffffffffff168152602001908152602001600020908051906020019061276d929190613f5d565b507f76b4f38e7ada56c131a0c796e7382093d7b5a69175ca0bf513f5827f60f5314d838360405161279f9291906156f1565b60405180910390a150505050565b60606127d97f0996d044c7309cb5a01d79c18ee9e4c86aca84367cbd5bfd5f5d0606acc9927333612df5565b8061280a57506128097f97f21e7273917267af1fea4c3510695aa29abe57349ce57ceec11b346883180333612df5565b5b612849576040517f08c379a000000000000000000000000000000000000000000000000000000000815260040161284090615788565b60405180910390fd5b3373ffffffffffffffffffffffffffffffffffffffff1660018360405161287091906154c1565b908152602001604051809103902060010160009054906101000a900473ffffffffffffffffffffffffffffffffffffffff1673ffffffffffffffffffffffffffffffffffffffff16148061293057503373ffffffffffffffffffffffffffffffffffffffff166001836040516128e691906154c1565b908152602001604051809103902060020160009054906101000a900473ffffffffffffffffffffffffffffffffffffffff1673ffffffffffffffffffffffffffffffffffffffff16145b61296f576040517f08c379a000000000000000000000000000000000000000000000000000000000815260040161296690615868565b60405180910390fd5b60018260405161297f91906154c1565b908152602001604051809103902060020160159054906101000a900460ff166129dd576040517f08c379a00000000000000000000000000000000000000000000000000000000081526004016129d490615b08565b60405180910390fd5b6001826040516129ed91906154c1565b90815260200160405180910390206000018054612a0990615e0d565b80601f0160208091040260200160405190810160405280929190818152602001828054612a3590615e0d565b8015612a825780601f10612a5757610100808354040283529160200191612a82565b820191906000526020600020905b815481529060010190602001808311612a6557829003601f168201915b50505050509050919050565b612a96613fe3565b60011515600183604051612aaa91906154c1565b908152602001604051809103902060020160149054906101000a900460ff16151514612b0b576040517f08c379a0000000000000000000000000000000000000000000000000000000008152600401612b0290615848565b60405180910390fd5b60011515600183604051612b1f91906154c1565b908152602001604051809103902060020160159054906101000a900460ff16151514612b80576040517f08c379a0000000000000000000000000000000000000000000000000000000008152600401612b7790615bc8565b60405180910390fd5b600182604051612b9091906154c1565b908152602001604051809103902060405180610100016040529081600082018054612bba90615e0d565b80601f0160208091040260200160405190810160405280929190818152602001828054612be690615e0d565b8015612c335780601f10612c0857610100808354040283529160200191612c33565b820191906000526020600020905b815481529060010190602001808311612c1657829003601f168201915b505050505081526020016001820160009054906101000a900473ffffffffffffffffffffffffffffffffffffffff1673ffffffffffffffffffffffffffffffffffffffff1673ffffffffffffffffffffffffffffffffffffffff1681526020016002820160009054906101000a900473ffffffffffffffffffffffffffffffffffffffff1673ffffffffffffffffffffffffffffffffffffffff1673ffffffffffffffffffffffffffffffffffffffff1681526020016002820160149054906101000a900460ff161515151581526020016002820160159054906101000a900460ff161515151581526020016003820154815260200160048201548152602001600582018054612d4290615e0d565b80601f0160208091040260200160405190810160405280929190818152602001828054612d6e90615e0d565b8015612dbb5780601f10612d9057610100808354040283529160200191612dbb565b820191906000526020600020905b815481529060010190602001808311612d9e57829003601f168201915b5050505050815250509050919050565b600a5481565b7f843b48dccc6ff192f9330133622b0536f7b94feca0cf36e7e46fc50060b6f88281565b600080600084815260200190815260200160002060000160008373ffffffffffffffffffffffffffffffffffffffff1673ffffffffffffffffffffffffffffffffffffffff16815260200190815260200160002060009054906101000a900460ff16905092915050565b612e897f843b48dccc6ff192f9330133622b0536f7b94feca0cf36e7e46fc50060b6f88233612df5565b612ec8576040517f08c379a0000000000000000000000000000000000000000000000000000000008152600401612ebf90615b68565b60405180910390fd5b60011515600182604051612edc91906154c1565b908152602001604051809103902060020160149054906101000a900460ff16151514612f3d576040517f08c379a0000000000000000000000000000000000000000000000000000000008152600401612f3490615b28565b60405180910390fd5b60018082604051612f4e91906154c1565b908152602001604051809103902060020160156101000a81548160ff0219169083151502179055506040518060400160405280600981526020017f76616c6964617465640000000000000000000000000000000000000000000000815250600182604051612fbc91906154c1565b90815260200160405180910390206005019080519060200190612fe0929190613f5d565b507fbc0e66a9d9a6660141870110fa7932ebb7fe171d5e52ee9a42674665105f1d1b816040516130109190615605565b60405180910390a150565b6000801b81565b60028160405161303291906154c1565b908152602001604051809103902060000160009054906101000a900473ffffffffffffffffffffffffffffffffffffffff1673ffffffffffffffffffffffffffffffffffffffff163373ffffffffffffffffffffffffffffffffffffffff16146130d1576040517f08c379a00000000000000000000000000000000000000000000000000000000081526004016130c8906159e8565b60405180910390fd5b600115156002826040516130e591906154c1565b908152602001604051809103902060030160009054906101000a900460ff16151514613146576040517f08c379a000000000000000000000000000000000000000000000000000000000815260040161313d90615ac8565b60405180910390fd5b6000151560028260405161315a91906154c1565b908152602001604051809103902060030160009054906101000a9050505060028160405161318891906154c1565b9081526020016040518091039020600080820160006101000a81549073ffffffffffffffffffffffffffffffffffffffff02191690556001820160006101000a81549073ffffffffffffffffffffffffffffffffffffffff02191690556002820160006131f59190614058565b6003820160006101000a81549060ff02191690556004820160006132199190614098565b50507f1a24299bbcab71cb3013c24c40adca455867472f22ae6d056e4e0cb2bb0e5a738160405161324a9190615605565b60405180910390a150565b600d5481565b7f47a6ab365f603cf120cb936195de17fd0bac3880ff606e7a0edb5e8e6580b1ae81565b6000600160088460405161329391906154c1565b9081526020016040518091039020836040516132af91906154c1565b9081526020016040518091039020546132c89190615cf7565b905092915050565b6002818051602081018201805184825260208301602085012081835280955050505050506000915090508060000160009054906101000a900473ffffffffffffffffffffffffffffffffffffffff16908060010160009054906101000a900473ffffffffffffffffffffffffffffffffffffffff169080600201805461335590615e0d565b80601f016020809104026020016040519081016040528092919081815260200182805461338190615e0d565b80156133ce5780601f106133a3576101008083540402835291602001916133ce565b820191906000526020600020905b8154815290600101906020018083116133b157829003601f168201915b5050505050908060030160009054906101000a900460ff16905084565b6134157f97f21e7273917267af1fea4c3510695aa29abe57349ce57ceec11b346883180333612df5565b613454576040517f08c379a000000000000000000000000000000000000000000000000000000000815260040161344b90615968565b60405180910390fd5b60028260405161346491906154c1565b908152602001604051809103902060010160009054906101000a900473ffffffffffffffffffffffffffffffffffffffff1673ffffffffffffffffffffffffffffffffffffffff163373ffffffffffffffffffffffffffffffffffffffff1614613503576040517f08c379a00000000000000000000000000000000000000000000000000000000081526004016134fa90615b48565b60405180910390fd5b6001151560028360405161351791906154c1565b908152602001604051809103902060030160009054906101000a900460ff16151514613578576040517f08c379a000000000000000000000000000000000000000000000000000000000815260040161356f90615ae8565b60405180910390fd5b60028260405161358891906154c1565b9081526020016040518091039020600401819080600181540180825580915050600190039060005260206000200160009091909190915090805190602001906135d2929190613f5d565b507f2fd00fee6fba014584e65a085e3eb131b03ff5c389c44c3cf9e857d52c1650d6816040516136029190615605565b60405180910390a15050565b6003602052806000526040600020600091509050805461362d90615e0d565b80601f016020809104026020016040519081016040528092919081815260200182805461365990615e0d565b80156136a65780601f1061367b576101008083540402835291602001916136a6565b820191906000526020600020905b81548152906001019060200180831161368957829003601f168201915b505050505081565b7f97f21e7273917267af1fea4c3510695aa29abe57349ce57ceec11b346883180381565b6136eb6136de83611046565b6136e6613d94565b612df5565b61372a576040517f08c379a0000000000000000000000000000000000000000000000000000000008152600401613721906158c8565b60405180910390fd5b6137348282613e7c565b5050565b606060018260405161374a91906154c1565b9081526020016040518091039020600501805461376690615e0d565b80601f016020809104026020016040519081016040528092919081815260200182805461379290615e0d565b80156137df5780601f106137b4576101008083540402835291602001916137df565b820191906000526020600020905b8154815290600101906020018083116137c257829003601f168201915b50505050509050919050565b600b5481565b60056020528060005260406000206000915090508060000160009054906101000a900473ffffffffffffffffffffffffffffffffffffffff16908060010160009054906101000a900473ffffffffffffffffffffffffffffffffffffffff169080600201805461386090615e0d565b80601f016020809104026020016040519081016040528092919081815260200182805461388c90615e0d565b80156138d95780601f106138ae576101008083540402835291602001916138d9565b820191906000526020600020905b8154815290600101906020018083116138bc57829003601f168201915b5050505050905083565b60095481565b7f0996d044c7309cb5a01d79c18ee9e4c86aca84367cbd5bfd5f5d0606acc9927381565b60028160405161391d91906154c1565b908152602001604051809103902060000160009054906101000a900473ffffffffffffffffffffffffffffffffffffffff1673ffffffffffffffffffffffffffffffffffffffff163373ffffffffffffffffffffffffffffffffffffffff16146139bc576040517f08c379a00000000000000000000000000000000000000000000000000000000081526004016139b3906159e8565b60405180910390fd5b600015156002826040516139d091906154c1565b908152602001604051809103902060030160009054906101000a900460ff16151514613a31576040517f08c379a0000000000000000000000000000000000000000000000000000000008152600401613a2890615a68565b60405180910390fd5b60011515600282604051613a4591906154c1565b908152602001604051809103902060030160009054906101000a905050507fbf0bdf0dac0f40e06b9d86448186b0585c751a20ebbf3541074e23bb229e4f8181604051613a929190615605565b60405180910390a150565b6060613ac97f97f21e7273917267af1fea4c3510695aa29abe57349ce57ceec11b346883180333612df5565b613b08576040517f08c379a0000000000000000000000000000000000000000000000000000000008152600401613aff90615968565b60405180910390fd5b600282604051613b1891906154c1565b908152602001604051809103902060010160009054906101000a900473ffffffffffffffffffffffffffffffffffffffff1673ffffffffffffffffffffffffffffffffffffffff163373ffffffffffffffffffffffffffffffffffffffff1614613bb7576040517f08c379a0000000000000000000000000000000000000000000000000000000008152600401613bae90615b48565b60405180910390fd5b60011515600283604051613bcb91906154c1565b908152602001604051809103902060030160009054906101000a900460ff16151514613c2c576040517f08c379a0000000000000000000000000000000000000000000000000000000008152600401613c2390615ae8565b60405180910390fd5b600282604051613c3c91906154c1565b9081526020016040518091039020600401805480602002602001604051908101604052809291908181526020016000905b82821015613d19578382906000526020600020018054613c8c90615e0d565b80601f0160208091040260200160405190810160405280929190818152602001828054613cb890615e0d565b8015613d055780601f10613cda57610100808354040283529160200191613d05565b820191906000526020600020905b815481529060010190602001808311613ce857829003601f168201915b505050505081526020019060010190613c6d565b505050509050919050565b600c5481565b60007f01ffc9a7000000000000000000000000000000000000000000000000000000007bffffffffffffffffffffffffffffffffffffffffffffffffffffffff1916827bffffffffffffffffffffffffffffffffffffffffffffffffffffffff1916149050919050565b600033905090565b613da68282612df5565b613e7857600160008084815260200190815260200160002060000160008373ffffffffffffffffffffffffffffffffffffffff1673ffffffffffffffffffffffffffffffffffffffff16815260200190815260200160002060006101000a81548160ff021916908315150217905550613e1d613d94565b73ffffffffffffffffffffffffffffffffffffffff168173ffffffffffffffffffffffffffffffffffffffff16837f2f8788117e7eff1d82e926ec794901d17c78024a50270940304540a733656f0d60405160405180910390a45b5050565b613e868282612df5565b15613f5957600080600084815260200190815260200160002060000160008373ffffffffffffffffffffffffffffffffffffffff1673ffffffffffffffffffffffffffffffffffffffff16815260200190815260200160002060006101000a81548160ff021916908315150217905550613efe613d94565b73ffffffffffffffffffffffffffffffffffffffff168173ffffffffffffffffffffffffffffffffffffffff16837ff6391f5c32d9c69d2a47ea670b442974b53935d1edc7fd64eb21e047a839171b60405160405180910390a45b5050565b828054613f6990615e0d565b90600052602060002090601f016020900481019282613f8b5760008555613fd2565b82601f10613fa457805160ff1916838001178555613fd2565b82800160010185558215613fd2579182015b82811115613fd1578251825591602001919060010190613fb6565b5b509050613fdf91906140b9565b5090565b60405180610100016040528060608152602001600073ffffffffffffffffffffffffffffffffffffffff168152602001600073ffffffffffffffffffffffffffffffffffffffff1681526020016000151581526020016000151581526020016000815260200160008152602001606081525090565b50805461406490615e0d565b6000825580601f106140765750614095565b601f01602090049060005260206000209081019061409491906140b9565b5b50565b50805460008255906000526020600020908101906140b691906140d6565b50565b5b808211156140d25760008160009055506001016140ba565b5090565b5b808211156140f657600081816140ed9190614058565b506001016140d7565b5090565b600061410d61410884615c56565b615c25565b90508281526020810184848401111561412557600080fd5b614130848285615dcb565b509392505050565b60008135905061414781615f26565b92915050565b60008135905061415c81615f3d565b92915050565b60008135905061417181615f54565b92915050565b600082601f83011261418857600080fd5b81356141988482602086016140fa565b91505092915050565b6000813590506141b081615f6b565b92915050565b6000602082840312156141c857600080fd5b60006141d684828501614138565b91505092915050565b600080604083850312156141f257600080fd5b600061420085828601614138565b925050602083013567ffffffffffffffff81111561421d57600080fd5b61422985828601614177565b9150509250929050565b60006020828403121561424557600080fd5b60006142538482850161414d565b91505092915050565b6000806040838503121561426f57600080fd5b600061427d8582860161414d565b925050602061428e85828601614138565b9150509250929050565b6000602082840312156142aa57600080fd5b60006142b884828501614162565b91505092915050565b6000602082840312156142d357600080fd5b600082013567ffffffffffffffff8111156142ed57600080fd5b6142f984828501614177565b91505092915050565b6000806040838503121561431557600080fd5b600083013567ffffffffffffffff81111561432f57600080fd5b61433b85828601614177565b925050602083013567ffffffffffffffff81111561435857600080fd5b61436485828601614177565b9150509250929050565b6000806000806080858703121561438457600080fd5b600085013567ffffffffffffffff81111561439e57600080fd5b6143aa87828801614177565b945050602085013567ffffffffffffffff8111156143c757600080fd5b6143d387828801614177565b935050604085013567ffffffffffffffff8111156143f057600080fd5b6143fc87828801614177565b925050606061440d87828801614138565b91505092959194509250565b600080600080600060a0868803121561443157600080fd5b600086013567ffffffffffffffff81111561444b57600080fd5b61445788828901614177565b955050602086013567ffffffffffffffff81111561447457600080fd5b61448088828901614177565b945050604086013567ffffffffffffffff81111561449d57600080fd5b6144a988828901614177565b935050606086013567ffffffffffffffff8111156144c657600080fd5b6144d288828901614177565b92505060806144e388828901614138565b9150509295509295909350565b60006020828403121561450257600080fd5b6000614510848285016141a1565b91505092915050565b600061452583836145ed565b905092915050565b61453681615d4d565b82525050565b61454581615d4d565b82525050565b600061455682615c96565b6145608185615cb9565b93508360208202850161457285615c86565b8060005b858110156145ae578484038952815161458f8582614519565b945061459a83615cac565b925060208a01995050600181019050614576565b50829750879550505050505092915050565b6145c981615d5f565b82525050565b6145d881615d5f565b82525050565b6145e781615d6b565b82525050565b60006145f882615ca1565b6146028185615cca565b9350614612818560208601615dda565b61461b81615f15565b840191505092915050565b600061463182615ca1565b61463b8185615cdb565b935061464b818560208601615dda565b61465481615f15565b840191505092915050565b600061466a82615ca1565b6146748185615cec565b9350614684818560208601615dda565b80840191505092915050565b600061469d601a83615cdb565b91507f596f752061726520616e20617574686f726974792061646d696e0000000000006000830152602082019050919050565b60006146dd602e83615cdb565b91507f4f6e6c792074686520617574686f726974792061646d696e2063616e2061646460008301527f20696e76657374696761746f72730000000000000000000000000000000000006020830152604082019050919050565b6000614743602f83615cdb565b91507f416363657373436f6e74726f6c3a2073656e646572206d75737420626520616e60008301527f2061646d696e20746f206772616e7400000000000000000000000000000000006020830152604082019050919050565b60006147a9603083615cdb565b91507f6f6e6c792070726f6d6f7465727320616e6420696e76657374696761746f727360008301527f20686176652074686973207269676874000000000000000000000000000000006020830152604082019050919050565b600061480f602483615cdb565b91507f4f6e6c7920617574686f726969746965732063616e2073757370656e6420747260008301527f69616c73000000000000000000000000000000000000000000000000000000006020830152604082019050919050565b6000614875601783615cdb565b91507f596f752061726520616e20696e76657374696761746f720000000000000000006000830152602082019050919050565b60006148b5603683615cdb565b91507f596f7520646f206e6f74206861766520726967687420746f206164642070617460008301527f69656e747320746f20746869732070726f746f636f6c000000000000000000006020830152604082019050919050565b600061491b602983615cdb565b91507f50726f6d6f746572732061646d696e2063616e6e6f7420626520616e20696e7660008301527f657374696761746f7200000000000000000000000000000000000000000000006020830152604082019050919050565b6000614981602d83615cdb565b91507f4f6e6c79207468652070726f6d6f746f722061646d696e2063616e206164642060008301527f696e76657374696761746f7273000000000000000000000000000000000000006020830152604082019050919050565b60006149e7602183615cdb565b91507f5468657265206973206e6f2070726f746f636f6c20776974682074686973206960008301527f64000000000000000000000000000000000000000000000000000000000000006020830152604082019050919050565b6000614a4d602a83615cdb565b91507f596f7520646f206e6f74206861766520726967687420746f206f70656e20746860008301527f69732070726f6a656374000000000000000000000000000000000000000000006020830152604082019050919050565b6000614ab3602983615cdb565b91507f546869732070726f746f636f6c20686173206e6f74206265656e20617574686f60008301527f72697a65642079657400000000000000000000000000000000000000000000006020830152604082019050919050565b6000614b19602b83615cdb565b91507f417574686f7269746965732061646d696e2063616e6e6f7420626520616e206960008301527f6e76657374696761746f720000000000000000000000000000000000000000006020830152604082019050919050565b6000614b7f603083615cdb565b91507f416363657373436f6e74726f6c3a2073656e646572206d75737420626520616e60008301527f2061646d696e20746f207265766f6b65000000000000000000000000000000006020830152604082019050919050565b6000614be5602783615cdb565b91507f4f6e6c79207468652070726f6d6f746f722063616e2061646420696e7665737460008301527f696761746f7273000000000000000000000000000000000000000000000000006020830152604082019050919050565b6000614c4b601c83615cdb565b91507f596f752061726520616c726561647920616e20617574686f72697479000000006000830152602082019050919050565b6000614c8b601483615cdb565b91507f596f752061726520616e20617574686f726974790000000000000000000000006000830152602082019050919050565b6000614ccb602383615cdb565b91507f4f6e6c792070726f6d6f746572732063616e207375626d69742070726f746f6360008301527f6f6c7300000000000000000000000000000000000000000000000000000000006020830152604082019050919050565b6000614d31602383615cdb565b91507f4f6e6c7920696e76657374696761746f72732063616e20636f6c6c656374206460008301527f61746100000000000000000000000000000000000000000000000000000000006020830152604082019050919050565b6000614d97601a83615cdb565b91507f596f752061726520616c726561647920612070726f6d6f7465720000000000006000830152602082019050919050565b6000614dd7601f83615cdb565b91507f596f752061726520616c726561647920616e20696e76657374696761746f72006000830152602082019050919050565b6000614e17602983615cdb565b91507f54686520696e76657374696761746f72206d757374206265207265676973746560008301527f72656420666972737400000000000000000000000000000000000000000000006020830152604082019050919050565b6000614e7d601683615cdb565b91507f596f7572204944206973206e6f7420636f7272656374000000000000000000006000830152602082019050919050565b6000614ebd602183615cdb565b91507f50726f6d6f746572732063616e6e6f7420626520696e76657374696761746f7260008301527f73000000000000000000000000000000000000000000000000000000000000006020830152604082019050919050565b6000614f23603083615cdb565b91507f4f6e6c7920696e76657374696761746f72732063616e2061646420706174696560008301527f6e747320746f2070726f746f636f6c73000000000000000000000000000000006020830152604082019050919050565b6000614f89601283615cdb565b91507f596f752061726520612070726f6d6f74657200000000000000000000000000006000830152602082019050919050565b6000614fc9601783615cdb565b91507f596f7520646964206e6f7420636f6e73656e74207965740000000000000000006000830152602082019050919050565b6000615009602283615cdb565b91507f5468652070726f746f636f6c20697320616c726561647920726567697374657260008301527f65640000000000000000000000000000000000000000000000000000000000006020830152604082019050919050565b600061506f602383615cdb565b91507f417574686f7269746965732063616e6e6f7420626520696e766573746967617460008301527f6f727300000000000000000000000000000000000000000000000000000000006020830152604082019050919050565b60006150d5601f83615cdb565b91507f596f7520616c7265616479207265766f6b6520796f757220636f6e73656e74006000830152602082019050919050565b6000615115601d83615cdb565b91507f476574207468652070617469656e7420636f6e73656e742066697273740000006000830152602082019050919050565b6000615155602283615cdb565b91507f5468657265206973206e6f2070726f746f636f6c20776974682074686973206360008301527f69640000000000000000000000000000000000000000000000000000000000006020830152604082019050919050565b60006151bb602c83615cdb565b91507f5468657265206973206e6f2070726f746f636f6c206173736f6369617465642060008301527f77697468207468697320494400000000000000000000000000000000000000006020830152604082019050919050565b6000615221602683615cdb565b91507f596f7520646f206e6f74206861766520726967687420666f722074686973207060008301527f617469656e7400000000000000000000000000000000000000000000000000006020830152604082019050919050565b6000615287603183615cdb565b91507f4f6e6c7920617574686f726974696573206861766520726967687420746f207660008301527f616c69646174652070726f746f636f6c730000000000000000000000000000006020830152604082019050919050565b60006152ed602f83615cdb565b91507f416363657373436f6e74726f6c3a2063616e206f6e6c792072656e6f756e636560008301527f20726f6c657320666f722073656c6600000000000000000000000000000000006020830152604082019050919050565b6000615353601883615cdb565b91507f596f752061726520612070726f6d6f7465722061646d696e00000000000000006000830152602082019050919050565b6000615393602783615cdb565b91507f546869732070726f746f636f6c206873206e6f74206265656e2076616c69646160008301527f74656420796574000000000000000000000000000000000000000000000000006020830152604082019050919050565b600061010083016000830151848203600086015261540a82826145ed565b915050602083015161541f602086018261452d565b506040830151615432604086018261452d565b50606083015161544560608601826145c0565b50608083015161545860808601826145c0565b5060a083015161546b60a08601826154a3565b5060c083015161547e60c08601826154a3565b5060e083015184820360e086015261549682826145ed565b9150508091505092915050565b6154ac81615dc1565b82525050565b6154bb81615dc1565b82525050565b60006154cd828461465f565b915081905092915050565b60006020820190506154ed600083018461453c565b92915050565b6000606082019050615508600083018661453c565b615515602083018561453c565b81810360408301526155278184614626565b9050949350505050565b6000608082019050615546600083018761453c565b615553602083018661453c565b81810360408301526155658185614626565b905061557460608301846145cf565b95945050505050565b6000604082019050615592600083018561453c565b81810360208301526155a48184614626565b90509392505050565b600060208201905081810360008301526155c7818461454b565b905092915050565b60006020820190506155e460008301846145cf565b92915050565b60006020820190506155ff60008301846145de565b92915050565b6000602082019050818103600083015261561f8184614626565b905092915050565b600060608201905081810360008301526156418186614626565b9050615650602083018561453c565b61565d604083018461453c565b949350505050565b6000610100820190508181036000830152615680818b614626565b905061568f602083018a61453c565b61569c604083018961453c565b6156a960608301886145cf565b6156b660808301876145cf565b6156c360a08301866154b2565b6156d060c08301856154b2565b81810360e08301526156e28184614626565b90509998505050505050505050565b6000604082019050818103600083015261570b8185614626565b9050818103602083015261571f8184614626565b90509392505050565b6000602082019050818103600083015261574181614690565b9050919050565b60006020820190508181036000830152615761816146d0565b9050919050565b6000602082019050818103600083015261578181614736565b9050919050565b600060208201905081810360008301526157a18161479c565b9050919050565b600060208201905081810360008301526157c181614802565b9050919050565b600060208201905081810360008301526157e181614868565b9050919050565b60006020820190508181036000830152615801816148a8565b9050919050565b600060208201905081810360008301526158218161490e565b9050919050565b6000602082019050818103600083015261584181614974565b9050919050565b60006020820190508181036000830152615861816149da565b9050919050565b6000602082019050818103600083015261588181614a40565b9050919050565b600060208201905081810360008301526158a181614aa6565b9050919050565b600060208201905081810360008301526158c181614b0c565b9050919050565b600060208201905081810360008301526158e181614b72565b9050919050565b6000602082019050818103600083015261590181614bd8565b9050919050565b6000602082019050818103600083015261592181614c3e565b9050919050565b6000602082019050818103600083015261594181614c7e565b9050919050565b6000602082019050818103600083015261596181614cbe565b9050919050565b6000602082019050818103600083015261598181614d24565b9050919050565b600060208201905081810360008301526159a181614d8a565b9050919050565b600060208201905081810360008301526159c181614dca565b9050919050565b600060208201905081810360008301526159e181614e0a565b9050919050565b60006020820190508181036000830152615a0181614e70565b9050919050565b60006020820190508181036000830152615a2181614eb0565b9050919050565b60006020820190508181036000830152615a4181614f16565b9050919050565b60006020820190508181036000830152615a6181614f7c565b9050919050565b60006020820190508181036000830152615a8181614fbc565b9050919050565b60006020820190508181036000830152615aa181614ffc565b9050919050565b60006020820190508181036000830152615ac181615062565b9050919050565b60006020820190508181036000830152615ae1816150c8565b9050919050565b60006020820190508181036000830152615b0181615108565b9050919050565b60006020820190508181036000830152615b2181615148565b9050919050565b60006020820190508181036000830152615b41816151ae565b9050919050565b60006020820190508181036000830152615b6181615214565b9050919050565b60006020820190508181036000830152615b818161527a565b9050919050565b60006020820190508181036000830152615ba1816152e0565b9050919050565b60006020820190508181036000830152615bc181615346565b9050919050565b60006020820190508181036000830152615be181615386565b9050919050565b60006020820190508181036000830152615c0281846153ec565b905092915050565b6000602082019050615c1f60008301846154b2565b92915050565b6000604051905081810181811067ffffffffffffffff82111715615c4c57615c4b615ee6565b5b8060405250919050565b600067ffffffffffffffff821115615c7157615c70615ee6565b5b601f19601f8301169050602081019050919050565b6000819050602082019050919050565b600081519050919050565b600081519050919050565b6000602082019050919050565b600082825260208201905092915050565b600082825260208201905092915050565b600082825260208201905092915050565b600081905092915050565b6000615d0282615dc1565b9150615d0d83615dc1565b9250827fffffffffffffffffffffffffffffffffffffffffffffffffffffffffffffffff03821115615d4257615d41615e88565b5b828201905092915050565b6000615d5882615da1565b9050919050565b60008115159050919050565b6000819050919050565b60007fffffffff0000000000000000000000000000000000000000000000000000000082169050919050565b600073ffffffffffffffffffffffffffffffffffffffff82169050919050565b6000819050919050565b82818337600083830152505050565b60005b83811015615df8578082015181840152602081019050615ddd565b83811115615e07576000848401525b50505050565b60006002820490506001821680615e2557607f821691505b60208210811415615e3957615e38615eb7565b5b50919050565b6000615e4a82615dc1565b91507fffffffffffffffffffffffffffffffffffffffffffffffffffffffffffffffff821415615e7d57615e7c615e88565b5b600182019050919050565b7f4e487b7100000000000000000000000000000000000000000000000000000000600052601160045260246000fd5b7f4e487b7100000000000000000000000000000000000000000000000000000000600052602260045260246000fd5b7f4e487b7100000000000000000000000000000000000000000000000000000000600052604160045260246000fd5b6000601f19601f8301169050919050565b615f2f81615d4d565b8114615f3a57600080fd5b50565b615f4681615d6b565b8114615f5157600080fd5b50565b615f5d81615d75565b8114615f6857600080fd5b50565b615f7481615dc1565b8114615f7f57600080fd5b5056fea2646970667358221220d8b39f49a18d410dd007a21d9a03033f25c5d52fde05636375454ea34d535bde64736f6c63430008000033",
  "immutableReferences": {},
  "source": "// SPDX-License-Identifier: MIT\npragma solidity 0.8.0;\n\nimport \"../client/node_modules/@openzeppelin/contracts/access/AccessControl.sol\";\n\ncontract MedTrials is AccessControl {\n    struct Protocol {\n        string cid;\n        address promoter;\n        address investigator;\n        bool registered;\n        bool authorized;\n        uint256 nbOfPatients;\n        uint256 index;\n        string status;\n    }\n\n    struct Patient {\n        address patient;\n        address investigator;\n        string protocolID;\n        bool consent;\n        string[] cids;\n    }\n\n    struct Promoter {\n        address promoter;\n        string cid;\n    }\n\n    struct Investigator {\n        address promoter;\n        address investigator;\n        string cid;\n    }\n\n    struct Authority {\n        address authority;\n        string cid;\n    }\n\n    mapping(string => Protocol) public protocols;\n    mapping(string => Patient) public patients;\n    mapping(uint256 => string) public protocolsID;\n    mapping(uint256 => Promoter) public promoters;\n    mapping(uint256 => Investigator) public investigators;\n    mapping(uint256 => Authority) public authorities;\n    mapping(address => string) roles;\n\n    mapping(string => mapping(string => uint256)) private protocolNumerotation;\n\n    bytes32 public constant AUTHORITY = keccak256(\"AUTHORITY\");\n    bytes32 public constant AUTHORITY_ADMIN = keccak256(\"AUTHORITYADMIN\");\n    bytes32 public constant PROMOTER = keccak256(\"PROMOTER\");\n    bytes32 public constant PROMOTER_ADMIN = keccak256(\"PROMOTERADMIN\");\n    bytes32 public constant INVESTIGATOR = keccak256(\"INVESTIGATOR\");\n    bytes32 public constant PATIENT = keccak256(\"PATIENT\");\n\n    uint256 public nbOfProtocolsRegistered;\n    uint256 public nbOfPatients;\n    uint256 public nbOfPromoters;\n    uint256 public nbOfInvestigators;\n    uint256 public nbOfAuthorities;\n\n    event promoterAdded(address _address);\n    event authorityAdded(address _address);\n    event investigatorAdded(address _address);\n    event protocolValidated(string _id);\n    event newProtocol(string _id, address _promotor, address _investigator);\n    event patientAdded(string _patientID, string _protocolID);\n    event consentGiven(string _patientID);\n    event consentRevoked(string _patientID);\n    event cidSaved(string _cid);\n    event protocolSuspended(string _protocolID);\n    event protocolResumed(string _protocolID);\n\n    constructor(\n        address _default_admin,\n        address _authorityAdmin,\n        address _promotorAdmin\n    ) {\n        _setupRole(DEFAULT_ADMIN_ROLE, _default_admin);\n\n        _setRoleAdmin(AUTHORITY_ADMIN, DEFAULT_ADMIN_ROLE);\n        _setRoleAdmin(AUTHORITY, AUTHORITY_ADMIN);\n\n        _setRoleAdmin(PROMOTER_ADMIN, DEFAULT_ADMIN_ROLE);\n        _setRoleAdmin(PROMOTER, PROMOTER_ADMIN);\n\n        _setRoleAdmin(INVESTIGATOR, PROMOTER);\n\n        _setRoleAdmin(PATIENT, INVESTIGATOR);\n\n        _setupRole(AUTHORITY_ADMIN, _authorityAdmin);\n        _setupRole(PROMOTER_ADMIN, _promotorAdmin);\n\n        renounceRole(DEFAULT_ADMIN_ROLE, _default_admin);\n\n        roles[_authorityAdmin] = \"AUTHORITY ADMIN\";\n        roles[_promotorAdmin] = \"PROMOTER ADMIN\";\n    }\n\n    function addAuthority(address _address, string memory _cid) public {\n        require(\n            hasRole(AUTHORITY_ADMIN, msg.sender),\n            \"Only the authority admin can add investigators\"\n        );\n        require(!hasRole(AUTHORITY, _address), \"You are already an authority\");\n        require(!hasRole(PROMOTER, _address), \"You are a promoter\");\n        require(!hasRole(INVESTIGATOR, _address), \"You are an investigator\");\n        require(!hasRole(PROMOTER_ADMIN, _address), \"You are a promoter admin\");\n        require(\n            !hasRole(AUTHORITY_ADMIN, _address),\n            \"You are an authority admin\"\n        );\n\n        grantRole(AUTHORITY, _address);\n        roles[_address] = \"AUTHORITY\";\n\n        authorities[nbOfAuthorities].cid = _cid;\n        authorities[nbOfAuthorities].authority = _address;\n        nbOfAuthorities++;\n\n        emit authorityAdded(_address);\n    }\n\n    function addPromoter(address _address, string memory _cid) public {\n        require(\n            hasRole(PROMOTER_ADMIN, msg.sender),\n            \"Only the promotor admin can add investigators\"\n        );\n        require(!hasRole(PROMOTER, _address), \"You are already a promoter\");\n        require(!hasRole(INVESTIGATOR, _address), \"You are an investigator\");\n        require(!hasRole(AUTHORITY, _address), \"You are an authority\");\n        require(!hasRole(PROMOTER_ADMIN, _address), \"You are a promoter admin\");\n        require(\n            !hasRole(AUTHORITY_ADMIN, _address),\n            \"You are an authority admin\"\n        );\n\n        grantRole(PROMOTER, _address);\n        roles[_address] = \"PROMOTER\";\n\n        promoters[nbOfPromoters].cid = _cid;\n        promoters[nbOfPromoters].promoter = _address;\n        nbOfPromoters++;\n\n        emit promoterAdded(_address);\n    }\n\n    function addInvestigator(address _address, string memory _cid) public {\n        require(\n            hasRole(PROMOTER, msg.sender),\n            \"Only the promotor can add investigators\"\n        );\n        require(\n            !hasRole(INVESTIGATOR, _address),\n            \"You are already an investigator\"\n        );\n        require(!hasRole(PROMOTER, _address), \"You are a promoter\");\n        require(!hasRole(AUTHORITY, _address), \"You are an authority\");\n        require(!hasRole(PROMOTER_ADMIN, _address), \"You are a promoter admin\");\n        require(\n            !hasRole(AUTHORITY_ADMIN, _address),\n            \"You are an authority admin\"\n        );\n\n        grantRole(INVESTIGATOR, _address);\n        roles[_address] = \"INVESTIGATOR\";\n\n        investigators[nbOfInvestigators].cid = _cid;\n        investigators[nbOfInvestigators].promoter = msg.sender;\n        investigators[nbOfInvestigators].investigator = _address;\n        nbOfInvestigators++;\n\n        emit investigatorAdded(_address);\n    }\n\n    function registerProtocol(\n        string memory _id,\n        string memory _cid,\n        string memory center,\n        string memory category,\n        address _investigator\n    ) public {\n        require(\n            hasRole(PROMOTER, msg.sender),\n            \"Only promoters can submit protocols\"\n        );\n        require(\n            !hasRole(PROMOTER, _investigator),\n            \"Promoters cannot be investigators\"\n        );\n        require(\n            !hasRole(AUTHORITY, _investigator),\n            \"Authorities cannot be investigators\"\n        );\n        require(\n            !hasRole(PROMOTER_ADMIN, _investigator),\n            \"Promoters admin cannot be an investigator\"\n        );\n        require(\n            !hasRole(AUTHORITY_ADMIN, _investigator),\n            \"Authorities admin cannot be an investigator\"\n        );\n        require(\n            hasRole(INVESTIGATOR, _investigator),\n            \"The investigator must be registered first\"\n        );\n        require(\n            !protocols[_id].registered,\n            \"The protocol is already registered\"\n        );\n\n        protocols[_id].promoter = msg.sender;\n        protocols[_id].investigator = _investigator;\n        protocols[_id].registered = true;\n        protocols[_id].cid = _cid;\n        protocols[_id].status = \"registered\";\n        protocols[_id].index = nbOfProtocolsRegistered;\n\n        protocolsID[nbOfProtocolsRegistered] = _id;\n        nbOfProtocolsRegistered++;\n\n        protocolNumerotation[center][category]++;\n\n        emit newProtocol(_id, msg.sender, _investigator);\n    }\n\n    function getProtocolCID(string memory _id)\n        public\n        view\n        returns (string memory)\n    {\n        require(\n            hasRole(PROMOTER, msg.sender) || hasRole(INVESTIGATOR, msg.sender),\n            \"only promoters and investigators have this right\"\n        );\n        require(\n            protocols[_id].promoter == msg.sender ||\n                protocols[_id].investigator == msg.sender,\n            \"You do not have right to open this project\"\n        );\n        require(\n            protocols[_id].authorized,\n            \"There is no protocol with this cid\"\n        );\n\n        return protocols[_id].cid;\n    }\n\n    function validateProtocol(string memory _id) public {\n        require(\n            hasRole(AUTHORITY, msg.sender),\n            \"Only authorities have right to validate protocols\"\n        );\n        require(\n            protocols[_id].registered == true,\n            \"There is no protocol associated with this ID\"\n        );\n\n        protocols[_id].authorized = true;\n        protocols[_id].status = \"validated\";\n\n        emit protocolValidated(_id);\n    }\n\n    function getProtocol(string memory _id)\n        public\n        view\n        returns (Protocol memory)\n    {\n        require(\n            protocols[_id].registered == true,\n            \"There is no protocol with this id\"\n        );\n        require(\n            protocols[_id].authorized == true,\n            \"This protocol hs not been validated yet\"\n        );\n\n        return protocols[_id];\n    }\n\n    function addPatient(\n        string memory _cid,\n        string memory _patientID,\n        string memory _protocolID,\n        address _patientAddress\n    ) public {\n        require(\n            hasRole(INVESTIGATOR, msg.sender),\n            \"Only investigators can add patients to protocols\"\n        );\n        require(\n            protocols[_protocolID].authorized == true,\n            \"This protocol has not been authorized yet\"\n        );\n        require(\n            msg.sender == protocols[_protocolID].investigator,\n            \"You do not have right to add patients to this protocol\"\n        );\n        //require(_patientAddress != protocols[_protocolID].patient, \"This patient already exist\");\n\n        patients[_patientID].consent = true;\n        patients[_patientID].patient = _patientAddress;\n        patients[_patientID].investigator = msg.sender;\n        patients[_patientID].protocolID = _protocolID;\n        protocols[_protocolID].nbOfPatients++;\n        patients[_patientID].cids.push(_cid);\n\n        grantRole(PATIENT, _patientAddress);\n        roles[_patientAddress] = \"PATIENT\";\n\n        emit patientAdded(_patientID, _protocolID);\n    }\n\n    function giveConsent(string memory _patientID) public {\n        require(\n            msg.sender == patients[_patientID].patient,\n            \"Your ID is not correct\"\n        );\n        require(\n            patients[_patientID].consent == false,\n            \"You did not consent yet\"\n        );\n\n        patients[_patientID].consent == true;\n\n        emit consentGiven(_patientID);\n    }\n\n    function revokeConsent(string memory _patientID) public {\n        require(\n            msg.sender == patients[_patientID].patient,\n            \"Your ID is not correct\"\n        );\n        require(\n            patients[_patientID].consent == true,\n            \"You already revoke your consent\"\n        );\n\n        patients[_patientID].consent == false;\n        delete patients[_patientID];\n\n        emit consentRevoked(_patientID);\n    }\n\n    function suspendTrials(string memory _protocolID) public {\n        require(\n            hasRole(AUTHORITY, msg.sender),\n            \"Only authoriities can suspend trials\"\n        );\n        require(protocols[_protocolID].authorized);\n\n        protocols[_protocolID].authorized = false;\n        protocols[_protocolID].status = \"suspended\";\n\n        emit protocolSuspended(_protocolID);\n    }\n\n    function resumeTrials(string memory _protocolID) public {\n        require(\n            hasRole(AUTHORITY, msg.sender),\n            \"Only authoriities can suspend trials\"\n        );\n        require(!protocols[_protocolID].authorized);\n\n        protocols[_protocolID].authorized = true;\n        protocols[_protocolID].status = \"resumed\";\n\n        emit protocolResumed(_protocolID);\n    }\n\n    function storeDataCID(string memory _patientID, string memory _cid) public {\n        require(\n            hasRole(INVESTIGATOR, msg.sender),\n            \"Only investigators can collect data\"\n        );\n        require(\n            msg.sender == patients[_patientID].investigator,\n            \"You do not have right for this patient\"\n        );\n        require(\n            patients[_patientID].consent == true,\n            \"Get the patient consent first\"\n        );\n\n        patients[_patientID].cids.push(_cid);\n\n        emit cidSaved(_cid);\n    }\n\n    function getDataCID(string memory _patientID)\n        public\n        view\n        returns (string[] memory)\n    {\n        require(\n            hasRole(INVESTIGATOR, msg.sender),\n            \"Only investigators can collect data\"\n        );\n        require(\n            msg.sender == patients[_patientID].investigator,\n            \"You do not have right for this patient\"\n        );\n        require(\n            patients[_patientID].consent == true,\n            \"Get the patient consent first\"\n        );\n\n        return patients[_patientID].cids;\n    }\n\n    function getProtocolStatus(string memory _protocolID)\n        public\n        view\n        returns (string memory)\n    {\n        return protocols[_protocolID].status;\n    }\n\n    function numberOfPatientByProtocol(string memory _protocolID)\n        public\n        view\n        returns (uint256)\n    {\n        return protocols[_protocolID].nbOfPatients;\n    }\n\n    function getRole(address _address) public view returns (string memory) {\n        return roles[_address];\n    }\n\n    function getProtocoleNumerotation(\n        string memory center,\n        string memory category\n    ) public view returns (uint256) {\n        return protocolNumerotation[center][category] + 1;\n    }\n}\n",
  "sourcePath": "/Users/samuel/Documents/Projet/Pojet_Dev/MedTrials/contracts/MedTrials.sol",
  "compiler": {
    "name": "solc",
    "version": "0.8.0+commit.c7dfd78e.Emscripten.clang"
  },
  "schemaVersion": "3.3.4",
  "updatedAt": "2021-05-08T22:04:00.447Z",
  "networkType": "ethereum",
  "devdoc": {
    "kind": "dev",
    "methods": {
      "getRoleAdmin(bytes32)": {
        "details": "Returns the admin role that controls `role`. See {grantRole} and {revokeRole}. To change a role's admin, use {_setRoleAdmin}."
      },
      "grantRole(bytes32,address)": {
        "details": "Grants `role` to `account`. If `account` had not been already granted `role`, emits a {RoleGranted} event. Requirements: - the caller must have ``role``'s admin role."
      },
      "hasRole(bytes32,address)": {
        "details": "Returns `true` if `account` has been granted `role`."
      },
      "renounceRole(bytes32,address)": {
        "details": "Revokes `role` from the calling account. Roles are often managed via {grantRole} and {revokeRole}: this function's purpose is to provide a mechanism for accounts to lose their privileges if they are compromised (such as when a trusted device is misplaced). If the calling account had been granted `role`, emits a {RoleRevoked} event. Requirements: - the caller must be `account`."
      },
      "revokeRole(bytes32,address)": {
        "details": "Revokes `role` from `account`. If `account` had been granted `role`, emits a {RoleRevoked} event. Requirements: - the caller must have ``role``'s admin role."
      },
      "supportsInterface(bytes4)": {
        "details": "See {IERC165-supportsInterface}."
      }
    },
    "version": 1
  },
  "userdoc": {
    "kind": "user",
    "methods": {},
    "version": 1
  }
}