{
  "contractName": "MedTrials",
  "abi": [
    {
      "inputs": [
        {
          "internalType": "address",
          "name": "_default_admin",
          "type": "address"
        },
        {
          "internalType": "address",
          "name": "_authorityAdmin",
          "type": "address"
        },
        {
          "internalType": "address",
          "name": "_promotorAdmin",
          "type": "address"
        }
      ],
      "stateMutability": "nonpayable",
      "type": "constructor"
    },
    {
      "anonymous": false,
      "inputs": [
        {
          "indexed": true,
          "internalType": "bytes32",
          "name": "role",
          "type": "bytes32"
        },
        {
          "indexed": true,
          "internalType": "bytes32",
          "name": "previousAdminRole",
          "type": "bytes32"
        },
        {
          "indexed": true,
          "internalType": "bytes32",
          "name": "newAdminRole",
          "type": "bytes32"
        }
      ],
      "name": "RoleAdminChanged",
      "type": "event"
    },
    {
      "anonymous": false,
      "inputs": [
        {
          "indexed": true,
          "internalType": "bytes32",
          "name": "role",
          "type": "bytes32"
        },
        {
          "indexed": true,
          "internalType": "address",
          "name": "account",
          "type": "address"
        },
        {
          "indexed": true,
          "internalType": "address",
          "name": "sender",
          "type": "address"
        }
      ],
      "name": "RoleGranted",
      "type": "event"
    },
    {
      "anonymous": false,
      "inputs": [
        {
          "indexed": true,
          "internalType": "bytes32",
          "name": "role",
          "type": "bytes32"
        },
        {
          "indexed": true,
          "internalType": "address",
          "name": "account",
          "type": "address"
        },
        {
          "indexed": true,
          "internalType": "address",
          "name": "sender",
          "type": "address"
        }
      ],
      "name": "RoleRevoked",
      "type": "event"
    },
    {
      "anonymous": false,
      "inputs": [
        {
          "indexed": false,
          "internalType": "address",
          "name": "_address",
          "type": "address"
        }
      ],
      "name": "authorityAdded",
      "type": "event"
    },
    {
      "anonymous": false,
      "inputs": [
        {
          "indexed": false,
          "internalType": "string",
          "name": "_cid",
          "type": "string"
        }
      ],
      "name": "cidSaved",
      "type": "event"
    },
    {
      "anonymous": false,
      "inputs": [
        {
          "indexed": false,
          "internalType": "string",
          "name": "_patientID",
          "type": "string"
        }
      ],
      "name": "consentGiven",
      "type": "event"
    },
    {
      "anonymous": false,
      "inputs": [
        {
          "indexed": false,
          "internalType": "string",
          "name": "_patientID",
          "type": "string"
        }
      ],
      "name": "consentRevoked",
      "type": "event"
    },
    {
      "anonymous": false,
      "inputs": [
        {
          "indexed": false,
          "internalType": "address",
          "name": "_address",
          "type": "address"
        }
      ],
      "name": "investigatorAdded",
      "type": "event"
    },
    {
      "anonymous": false,
      "inputs": [
        {
          "indexed": false,
          "internalType": "string",
          "name": "_id",
          "type": "string"
        },
        {
          "indexed": false,
          "internalType": "address",
          "name": "_promotor",
          "type": "address"
        },
        {
          "indexed": false,
          "internalType": "address",
          "name": "_investigator",
          "type": "address"
        }
      ],
      "name": "newProtocol",
      "type": "event"
    },
    {
      "anonymous": false,
      "inputs": [
        {
          "indexed": false,
          "internalType": "string",
          "name": "_patientID",
          "type": "string"
        },
        {
          "indexed": false,
          "internalType": "string",
          "name": "_protocolID",
          "type": "string"
        }
      ],
      "name": "patientAdded",
      "type": "event"
    },
    {
      "anonymous": false,
      "inputs": [
        {
          "indexed": false,
          "internalType": "address",
          "name": "_address",
          "type": "address"
        }
      ],
      "name": "promoterAdded",
      "type": "event"
    },
    {
      "anonymous": false,
      "inputs": [
        {
          "indexed": false,
          "internalType": "string",
          "name": "_protocolID",
          "type": "string"
        }
      ],
      "name": "protocolResumed",
      "type": "event"
    },
    {
      "anonymous": false,
      "inputs": [
        {
          "indexed": false,
          "internalType": "string",
          "name": "_protocolID",
          "type": "string"
        }
      ],
      "name": "protocolSuspended",
      "type": "event"
    },
    {
      "anonymous": false,
      "inputs": [
        {
          "indexed": false,
          "internalType": "string",
          "name": "_id",
          "type": "string"
        }
      ],
      "name": "protocolValidated",
      "type": "event"
    },
    {
      "inputs": [],
      "name": "AUTHORITY",
      "outputs": [
        {
          "internalType": "bytes32",
          "name": "",
          "type": "bytes32"
        }
      ],
      "stateMutability": "view",
      "type": "function",
      "constant": true
    },
    {
      "inputs": [],
      "name": "AUTHORITY_ADMIN",
      "outputs": [
        {
          "internalType": "bytes32",
          "name": "",
          "type": "bytes32"
        }
      ],
      "stateMutability": "view",
      "type": "function",
      "constant": true
    },
    {
      "inputs": [],
      "name": "DEFAULT_ADMIN_ROLE",
      "outputs": [
        {
          "internalType": "bytes32",
          "name": "",
          "type": "bytes32"
        }
      ],
      "stateMutability": "view",
      "type": "function",
      "constant": true
    },
    {
      "inputs": [],
      "name": "INVESTIGATOR",
      "outputs": [
        {
          "internalType": "bytes32",
          "name": "",
          "type": "bytes32"
        }
      ],
      "stateMutability": "view",
      "type": "function",
      "constant": true
    },
    {
      "inputs": [],
      "name": "PATIENT",
      "outputs": [
        {
          "internalType": "bytes32",
          "name": "",
          "type": "bytes32"
        }
      ],
      "stateMutability": "view",
      "type": "function",
      "constant": true
    },
    {
      "inputs": [],
      "name": "PROMOTER",
      "outputs": [
        {
          "internalType": "bytes32",
          "name": "",
          "type": "bytes32"
        }
      ],
      "stateMutability": "view",
      "type": "function",
      "constant": true
    },
    {
      "inputs": [],
      "name": "PROMOTER_ADMIN",
      "outputs": [
        {
          "internalType": "bytes32",
          "name": "",
          "type": "bytes32"
        }
      ],
      "stateMutability": "view",
      "type": "function",
      "constant": true
    },
    {
      "inputs": [
        {
          "internalType": "bytes32",
          "name": "role",
          "type": "bytes32"
        }
      ],
      "name": "getRoleAdmin",
      "outputs": [
        {
          "internalType": "bytes32",
          "name": "",
          "type": "bytes32"
        }
      ],
      "stateMutability": "view",
      "type": "function",
      "constant": true
    },
    {
      "inputs": [
        {
          "internalType": "bytes32",
          "name": "role",
          "type": "bytes32"
        },
        {
          "internalType": "address",
          "name": "account",
          "type": "address"
        }
      ],
      "name": "grantRole",
      "outputs": [],
      "stateMutability": "nonpayable",
      "type": "function"
    },
    {
      "inputs": [
        {
          "internalType": "bytes32",
          "name": "role",
          "type": "bytes32"
        },
        {
          "internalType": "address",
          "name": "account",
          "type": "address"
        }
      ],
      "name": "hasRole",
      "outputs": [
        {
          "internalType": "bool",
          "name": "",
          "type": "bool"
        }
      ],
      "stateMutability": "view",
      "type": "function",
      "constant": true
    },
    {
      "inputs": [],
      "name": "nbOfPatients",
      "outputs": [
        {
          "internalType": "uint256",
          "name": "",
          "type": "uint256"
        }
      ],
      "stateMutability": "view",
      "type": "function",
      "constant": true
    },
    {
      "inputs": [],
      "name": "nbOfProtocolsRegistered",
      "outputs": [
        {
          "internalType": "uint256",
          "name": "",
          "type": "uint256"
        }
      ],
      "stateMutability": "view",
      "type": "function",
      "constant": true
    },
    {
      "inputs": [
        {
          "internalType": "string",
          "name": "",
          "type": "string"
        }
      ],
      "name": "patients",
      "outputs": [
        {
          "internalType": "address",
          "name": "patient",
          "type": "address"
        },
        {
          "internalType": "address",
          "name": "investigator",
          "type": "address"
        },
        {
          "internalType": "string",
          "name": "protocolID",
          "type": "string"
        },
        {
          "internalType": "bool",
          "name": "consent",
          "type": "bool"
        }
      ],
      "stateMutability": "view",
      "type": "function",
      "constant": true
    },
    {
      "inputs": [
        {
          "internalType": "string",
          "name": "",
          "type": "string"
        }
      ],
      "name": "protocols",
      "outputs": [
        {
          "internalType": "string",
          "name": "cid",
          "type": "string"
        },
        {
          "internalType": "address",
          "name": "promoter",
          "type": "address"
        },
        {
          "internalType": "address",
          "name": "investigator",
          "type": "address"
        },
        {
          "internalType": "bool",
          "name": "registered",
          "type": "bool"
        },
        {
          "internalType": "bool",
          "name": "authorized",
          "type": "bool"
        },
        {
          "internalType": "uint256",
          "name": "nbOfPatients",
          "type": "uint256"
        },
        {
          "internalType": "uint256",
          "name": "index",
          "type": "uint256"
        },
        {
          "internalType": "string",
          "name": "status",
          "type": "string"
        }
      ],
      "stateMutability": "view",
      "type": "function",
      "constant": true
    },
    {
      "inputs": [
        {
          "internalType": "uint256",
          "name": "",
          "type": "uint256"
        }
      ],
      "name": "protocolsID",
      "outputs": [
        {
          "internalType": "string",
          "name": "",
          "type": "string"
        }
      ],
      "stateMutability": "view",
      "type": "function",
      "constant": true
    },
    {
      "inputs": [
        {
          "internalType": "bytes32",
          "name": "role",
          "type": "bytes32"
        },
        {
          "internalType": "address",
          "name": "account",
          "type": "address"
        }
      ],
      "name": "renounceRole",
      "outputs": [],
      "stateMutability": "nonpayable",
      "type": "function"
    },
    {
      "inputs": [
        {
          "internalType": "bytes32",
          "name": "role",
          "type": "bytes32"
        },
        {
          "internalType": "address",
          "name": "account",
          "type": "address"
        }
      ],
      "name": "revokeRole",
      "outputs": [],
      "stateMutability": "nonpayable",
      "type": "function"
    },
    {
      "inputs": [
        {
          "internalType": "bytes4",
          "name": "interfaceId",
          "type": "bytes4"
        }
      ],
      "name": "supportsInterface",
      "outputs": [
        {
          "internalType": "bool",
          "name": "",
          "type": "bool"
        }
      ],
      "stateMutability": "view",
      "type": "function",
      "constant": true
    },
    {
      "inputs": [
        {
          "internalType": "address",
          "name": "_address",
          "type": "address"
        }
      ],
      "name": "isAuthority",
      "outputs": [
        {
          "internalType": "bool",
          "name": "",
          "type": "bool"
        }
      ],
      "stateMutability": "view",
      "type": "function",
      "constant": true
    },
    {
      "inputs": [
        {
          "internalType": "address",
          "name": "_address",
          "type": "address"
        }
      ],
      "name": "isPromoter",
      "outputs": [
        {
          "internalType": "bool",
          "name": "",
          "type": "bool"
        }
      ],
      "stateMutability": "view",
      "type": "function",
      "constant": true
    },
    {
      "inputs": [
        {
          "internalType": "address",
          "name": "_address",
          "type": "address"
        }
      ],
      "name": "isInvestigator",
      "outputs": [
        {
          "internalType": "bool",
          "name": "",
          "type": "bool"
        }
      ],
      "stateMutability": "view",
      "type": "function",
      "constant": true
    },
    {
      "inputs": [
        {
          "internalType": "address",
          "name": "_address",
          "type": "address"
        }
      ],
      "name": "addPromoter",
      "outputs": [],
      "stateMutability": "nonpayable",
      "type": "function"
    },
    {
      "inputs": [
        {
          "internalType": "address",
          "name": "_address",
          "type": "address"
        }
      ],
      "name": "addInvestigator",
      "outputs": [],
      "stateMutability": "nonpayable",
      "type": "function"
    },
    {
      "inputs": [
        {
          "internalType": "address",
          "name": "_address",
          "type": "address"
        }
      ],
      "name": "addAuthority",
      "outputs": [],
      "stateMutability": "nonpayable",
      "type": "function"
    },
    {
      "inputs": [
        {
          "internalType": "string",
          "name": "_id",
          "type": "string"
        },
        {
          "internalType": "string",
          "name": "_cid",
          "type": "string"
        },
        {
          "internalType": "string",
          "name": "center",
          "type": "string"
        },
        {
          "internalType": "string",
          "name": "category",
          "type": "string"
        },
        {
          "internalType": "address",
          "name": "_investigator",
          "type": "address"
        }
      ],
      "name": "registerProtocol",
      "outputs": [],
      "stateMutability": "nonpayable",
      "type": "function"
    },
    {
      "inputs": [
        {
          "internalType": "string",
          "name": "_id",
          "type": "string"
        }
      ],
      "name": "getProtocolCID",
      "outputs": [
        {
          "internalType": "string",
          "name": "",
          "type": "string"
        }
      ],
      "stateMutability": "view",
      "type": "function",
      "constant": true
    },
    {
      "inputs": [
        {
          "internalType": "string",
          "name": "_id",
          "type": "string"
        }
      ],
      "name": "validateProtocol",
      "outputs": [],
      "stateMutability": "nonpayable",
      "type": "function"
    },
    {
      "inputs": [
        {
          "internalType": "string",
          "name": "_id",
          "type": "string"
        }
      ],
      "name": "getProtocol",
      "outputs": [
        {
          "components": [
            {
              "internalType": "string",
              "name": "cid",
              "type": "string"
            },
            {
              "internalType": "address",
              "name": "promoter",
              "type": "address"
            },
            {
              "internalType": "address",
              "name": "investigator",
              "type": "address"
            },
            {
              "internalType": "bool",
              "name": "registered",
              "type": "bool"
            },
            {
              "internalType": "bool",
              "name": "authorized",
              "type": "bool"
            },
            {
              "internalType": "uint256",
              "name": "nbOfPatients",
              "type": "uint256"
            },
            {
              "internalType": "uint256",
              "name": "index",
              "type": "uint256"
            },
            {
              "internalType": "string",
              "name": "status",
              "type": "string"
            }
          ],
          "internalType": "struct MedTrials.Protocol",
          "name": "",
          "type": "tuple"
        }
      ],
      "stateMutability": "view",
      "type": "function",
      "constant": true
    },
    {
      "inputs": [
        {
          "internalType": "string",
          "name": "_patientID",
          "type": "string"
        },
        {
          "internalType": "address",
          "name": "_patientAddress",
          "type": "address"
        },
        {
          "internalType": "string",
          "name": "_protocolID",
          "type": "string"
        }
      ],
      "name": "addPatient",
      "outputs": [],
      "stateMutability": "nonpayable",
      "type": "function"
    },
    {
      "inputs": [
        {
          "internalType": "string",
          "name": "_patientID",
          "type": "string"
        }
      ],
      "name": "giveConsent",
      "outputs": [],
      "stateMutability": "nonpayable",
      "type": "function"
    },
    {
      "inputs": [
        {
          "internalType": "string",
          "name": "_patientID",
          "type": "string"
        }
      ],
      "name": "revokeConsent",
      "outputs": [],
      "stateMutability": "nonpayable",
      "type": "function"
    },
    {
      "inputs": [
        {
          "internalType": "string",
          "name": "_protocolID",
          "type": "string"
        }
      ],
      "name": "suspendTrials",
      "outputs": [],
      "stateMutability": "nonpayable",
      "type": "function"
    },
    {
      "inputs": [
        {
          "internalType": "string",
          "name": "_protocolID",
          "type": "string"
        }
      ],
      "name": "resumeTrials",
      "outputs": [],
      "stateMutability": "nonpayable",
      "type": "function"
    },
    {
      "inputs": [
        {
          "internalType": "string",
          "name": "_patientID",
          "type": "string"
        },
        {
          "internalType": "string",
          "name": "_cid",
          "type": "string"
        }
      ],
      "name": "storeDataCID",
      "outputs": [],
      "stateMutability": "nonpayable",
      "type": "function"
    },
    {
      "inputs": [
        {
          "internalType": "string",
          "name": "_patientID",
          "type": "string"
        }
      ],
      "name": "getDataCID",
      "outputs": [
        {
          "internalType": "string[]",
          "name": "",
          "type": "string[]"
        }
      ],
      "stateMutability": "view",
      "type": "function",
      "constant": true
    },
    {
      "inputs": [
        {
          "internalType": "string",
          "name": "_protocolID",
          "type": "string"
        }
      ],
      "name": "getProtocolStatus",
      "outputs": [
        {
          "internalType": "string",
          "name": "",
          "type": "string"
        }
      ],
      "stateMutability": "view",
      "type": "function",
      "constant": true
    },
    {
      "inputs": [
        {
          "internalType": "string",
          "name": "_protocolID",
          "type": "string"
        }
      ],
      "name": "numberOfPatientByProtocol",
      "outputs": [
        {
          "internalType": "uint256",
          "name": "",
          "type": "uint256"
        }
      ],
      "stateMutability": "view",
      "type": "function",
      "constant": true
    },
    {
      "inputs": [
        {
          "internalType": "address",
          "name": "_address",
          "type": "address"
        }
      ],
      "name": "getRole",
      "outputs": [
        {
          "internalType": "string",
          "name": "",
          "type": "string"
        }
      ],
      "stateMutability": "view",
      "type": "function",
      "constant": true
    },
    {
      "inputs": [
        {
          "internalType": "string",
          "name": "center",
          "type": "string"
        },
        {
          "internalType": "string",
          "name": "category",
          "type": "string"
        }
      ],
      "name": "getProtocoleNumerotation",
      "outputs": [
        {
          "internalType": "uint256",
          "name": "",
          "type": "uint256"
        }
      ],
      "stateMutability": "view",
      "type": "function",
      "constant": true
    }
  ],
  "bytecode": "0x60806040523480156200001157600080fd5b506040516200592c3803806200592c8339818101604052810190620000379190620005eb565b6200004c6000801b846200032f60201b60201c565b620000817f3e206be88d1de4207c0189003e17add3718b1a1bf78910a785940577239bbdae6000801b6200034560201b60201c565b620000d37f843b48dccc6ff192f9330133622b0536f7b94feca0cf36e7e46fc50060b6f8827f3e206be88d1de4207c0189003e17add3718b1a1bf78910a785940577239bbdae6200034560201b60201c565b620001087f47a6ab365f603cf120cb936195de17fd0bac3880ff606e7a0edb5e8e6580b1ae6000801b6200034560201b60201c565b6200015a7f0996d044c7309cb5a01d79c18ee9e4c86aca84367cbd5bfd5f5d0606acc992737f47a6ab365f603cf120cb936195de17fd0bac3880ff606e7a0edb5e8e6580b1ae6200034560201b60201c565b620001ac7f97f21e7273917267af1fea4c3510695aa29abe57349ce57ceec11b34688318037f0996d044c7309cb5a01d79c18ee9e4c86aca84367cbd5bfd5f5d0606acc992736200034560201b60201c565b620001de7f3e206be88d1de4207c0189003e17add3718b1a1bf78910a785940577239bbdae836200032f60201b60201c565b620002107f47a6ab365f603cf120cb936195de17fd0bac3880ff606e7a0edb5e8e6580b1ae826200032f60201b60201c565b6040518060400160405280600f81526020017f415554484f524954592041444d494e0000000000000000000000000000000000815250600460008473ffffffffffffffffffffffffffffffffffffffff1673ffffffffffffffffffffffffffffffffffffffff16815260200190815260200160002090805190602001906200029a92919062000524565b506040518060400160405280600e81526020017f50524f4d4f5445522041444d494e000000000000000000000000000000000000815250600460008373ffffffffffffffffffffffffffffffffffffffff1673ffffffffffffffffffffffffffffffffffffffff16815260200190815260200160002090805190602001906200032592919062000524565b50505050620006f4565b620003418282620003a260201b60201c565b5050565b8062000357836200049360201b60201c565b837fbd79b86ffe0ab8e8776151514217cd7cacd52c909f66475c3af44e129f0b00ff60405160405180910390a480600080848152602001908152602001600020600101819055505050565b620003b48282620004b260201b60201c565b6200048f57600160008084815260200190815260200160002060000160008373ffffffffffffffffffffffffffffffffffffffff1673ffffffffffffffffffffffffffffffffffffffff16815260200190815260200160002060006101000a81548160ff021916908315150217905550620004346200051c60201b60201c565b73ffffffffffffffffffffffffffffffffffffffff168173ffffffffffffffffffffffffffffffffffffffff16837f2f8788117e7eff1d82e926ec794901d17c78024a50270940304540a733656f0d60405160405180910390a45b5050565b6000806000838152602001908152602001600020600101549050919050565b600080600084815260200190815260200160002060000160008373ffffffffffffffffffffffffffffffffffffffff1673ffffffffffffffffffffffffffffffffffffffff16815260200190815260200160002060009054906101000a900460ff16905092915050565b600033905090565b828054620005329062000675565b90600052602060002090601f016020900481019282620005565760008555620005a2565b82601f106200057157805160ff1916838001178555620005a2565b82800160010185558215620005a2579182015b82811115620005a157825182559160200191906001019062000584565b5b509050620005b19190620005b5565b5090565b5b80821115620005d0576000816000905550600101620005b6565b5090565b600081519050620005e581620006da565b92915050565b6000806000606084860312156200060157600080fd5b60006200061186828701620005d4565b93505060206200062486828701620005d4565b92505060406200063786828701620005d4565b9150509250925092565b60006200064e8262000655565b9050919050565b600073ffffffffffffffffffffffffffffffffffffffff82169050919050565b600060028204905060018216806200068e57607f821691505b60208210811415620006a557620006a4620006ab565b5b50919050565b7f4e487b7100000000000000000000000000000000000000000000000000000000600052602260045260246000fd5b620006e58162000641565b8114620006f157600080fd5b50565b61522880620007046000396000f3fe608060405234801561001057600080fd5b506004361061023d5760003560e01c806389fcd7961161013b578063cb39dce5116100b8578063e5078ed71161007c578063e5078ed71461073e578063ebc483911461075a578063ec9f4bda14610778578063ed5ea0d214610796578063f7f093b6146107b25761023d565b8063cb39dce514610688578063cd5c3b2b146106a4578063cf2a9a93146106d4578063d547741f146106f2578063d751b1501461070e5761023d565b8063acfa3c67116100ff578063acfa3c67146105bb578063c1bd2c20146105eb578063c36f577514610609578063c4f3983014610625578063c6009d84146106555761023d565b806389fcd7961461051757806391d1485414610535578063a1a8316b14610565578063a217fddf14610581578063a24d96581461059f5761023d565b80632f77e62f116101c9578063591fe6da1161018d578063591fe6da1461044b5780637ba3ae71146104695780637beb4107146104995780637cb76b8b146104c9578063834afa81146104f95761023d565b80632f77e62f1461039757806336568abe146103b357806344276733146103cf578063484ed33e146103ff57806354a0c4581461042f5761023d565b80632330f247116102105780632330f247146102e3578063248a9ca31461031357806326defa73146103435780632de6388f1461035f5780632f2ff15d1461037b5761023d565b806301ffc9a71461024257806309c1ce8b146102725780631dae94541461028e5780631f500061146102c5575b600080fd5b61025c600480360381019061025791906138da565b6107e2565b604051610269919061491f565b60405180910390f35b61028c60048036038101906102879190613a2f565b61085c565b005b6102a860048036038101906102a39190613903565b610d80565b6040516102bc9897969594939291906149b5565b60405180910390f35b6102cd610f48565b6040516102da919061493a565b60405180910390f35b6102fd60048036038101906102f8919061384c565b610f6c565b60405161030a919061491f565b60405180910390f35b61032d60048036038101906103289190613875565b610f9f565b60405161033a919061493a565b60405180910390f35b61035d6004803603810190610358919061384c565b610fbe565b005b61037960048036038101906103749190613903565b611252565b005b6103956004803603810190610390919061389e565b6113d2565b005b6103b160048036038101906103ac9190613903565b611438565b005b6103cd60048036038101906103c8919061389e565b6115b8565b005b6103e960048036038101906103e4919061384c565b61163b565b6040516103f69190614955565b60405180910390f35b61041960048036038101906104149190613903565b61170c565b6040516104269190614e7a565b60405180910390f35b6104496004803603810190610444919061384c565b611737565b005b610453611961565b604051610460919061493a565b60405180910390f35b610483600480360381019061047e9190613903565b611985565b6040516104909190614955565b60405180910390f35b6104b360048036038101906104ae9190613903565b611c66565b6040516104c09190614e58565b60405180910390f35b6104e360048036038101906104de919061384c565b611fa3565b6040516104f0919061491f565b60405180910390f35b610501611fd6565b60405161050e9190614e7a565b60405180910390f35b61051f611fdc565b60405161052c919061493a565b60405180910390f35b61054f600480360381019061054a919061389e565b612000565b60405161055c919061491f565b60405180910390f35b61057f600480360381019061057a9190613903565b61206a565b005b610589612226565b604051610596919061493a565b60405180910390f35b6105b960048036038101906105b49190613903565b61222d565b005b6105d560048036038101906105d0919061384c565b612460565b6040516105e2919061491f565b60405180910390f35b6105f3612493565b604051610600919061493a565b60405180910390f35b610623600480360381019061061e9190613944565b6124b7565b005b61063f600480360381019061063a91906139c3565b6127e9565b60405161064c9190614e7a565b60405180910390f35b61066f600480360381019061066a9190613903565b61283a565b60405161067f94939291906148b1565b60405180910390f35b6106a2600480360381019061069d91906139c3565b612955565b005b6106be60048036038101906106b99190613b06565b612b78565b6040516106cb9190614955565b60405180910390f35b6106dc612c18565b6040516106e9919061493a565b60405180910390f35b61070c6004803603810190610707919061389e565b612c3c565b005b61072860048036038101906107239190613903565b612ca2565b6040516107359190614955565b60405180910390f35b6107586004803603810190610753919061384c565b612d55565b005b610762612f7f565b60405161076f9190614e7a565b60405180910390f35b610780612f85565b60405161078d919061493a565b60405180910390f35b6107b060048036038101906107ab9190613903565b612fa9565b005b6107cc60048036038101906107c79190613903565b613139565b6040516107d991906148fd565b60405180910390f35b60007f7965db0b000000000000000000000000000000000000000000000000000000007bffffffffffffffffffffffffffffffffffffffffffffffffffffffff1916827bffffffffffffffffffffffffffffffffffffffffffffffffffffffff191614806108555750610854826133c0565b5b9050919050565b6108867f0996d044c7309cb5a01d79c18ee9e4c86aca84367cbd5bfd5f5d0606acc9927333612000565b6108c5576040517f08c379a00000000000000000000000000000000000000000000000000000000081526004016108bc90614bf8565b60405180910390fd5b6108ef7f0996d044c7309cb5a01d79c18ee9e4c86aca84367cbd5bfd5f5d0606acc9927382612000565b1561092f576040517f08c379a000000000000000000000000000000000000000000000000000000000815260040161092690614c98565b60405180910390fd5b6109597f843b48dccc6ff192f9330133622b0536f7b94feca0cf36e7e46fc50060b6f88282612000565b15610999576040517f08c379a000000000000000000000000000000000000000000000000000000000815260040161099090614d38565b60405180910390fd5b6001856040516109a9919061487f565b908152602001604051809103902060020160149054906101000a900460ff1615610a08576040517f08c379a00000000000000000000000000000000000000000000000000000000081526004016109ff90614d18565b60405180910390fd5b33600186604051610a19919061487f565b908152602001604051809103902060010160006101000a81548173ffffffffffffffffffffffffffffffffffffffff021916908373ffffffffffffffffffffffffffffffffffffffff16021790555080600186604051610a79919061487f565b908152602001604051809103902060020160006101000a81548173ffffffffffffffffffffffffffffffffffffffff021916908373ffffffffffffffffffffffffffffffffffffffff16021790555060018086604051610ad9919061487f565b908152602001604051809103902060020160146101000a81548160ff02191690831515021790555083600186604051610b12919061487f565b90815260200160405180910390206000019080519060200190610b369291906135f3565b506040518060400160405280600a81526020017f7265676973746572656400000000000000000000000000000000000000000000815250600186604051610b7d919061487f565b90815260200160405180910390206005019080519060200190610ba19291906135f3565b50600654600186604051610bb5919061487f565b908152602001604051809103902060040181905550846003600060065481526020019081526020016000209080519060200190610bf39291906135f3565b5060066000815480929190610c07906150af565b9190505550600583604051610c1c919061487f565b908152602001604051809103902082604051610c38919061487f565b90815260200160405180910390206000815480929190610c57906150af565b9190505550610c867f97f21e7273917267af1fea4c3510695aa29abe57349ce57ceec11b346883180382612000565b610d3e57610cb47f97f21e7273917267af1fea4c3510695aa29abe57349ce57ceec11b3468831803826113d2565b6040518060400160405280600c81526020017f494e56455354494741544f520000000000000000000000000000000000000000815250600460008373ffffffffffffffffffffffffffffffffffffffff1673ffffffffffffffffffffffffffffffffffffffff1681526020019081526020016000209080519060200190610d3c9291906135f3565b505b7fff88452d1e63b10e4f05e166bed6696de7594668e0e30daf24839937a0a27fee853383604051610d7193929190614977565b60405180910390a15050505050565b600181805160208101820180518482526020830160208501208183528095505050505050600091509050806000018054610db99061507d565b80601f0160208091040260200160405190810160405280929190818152602001828054610de59061507d565b8015610e325780601f10610e0757610100808354040283529160200191610e32565b820191906000526020600020905b815481529060010190602001808311610e1557829003601f168201915b5050505050908060010160009054906101000a900473ffffffffffffffffffffffffffffffffffffffff16908060020160009054906101000a900473ffffffffffffffffffffffffffffffffffffffff16908060020160149054906101000a900460ff16908060020160159054906101000a900460ff1690806003015490806004015490806005018054610ec59061507d565b80601f0160208091040260200160405190810160405280929190818152602001828054610ef19061507d565b8015610f3e5780601f10610f1357610100808354040283529160200191610f3e565b820191906000526020600020905b815481529060010190602001808311610f2157829003601f168201915b5050505050905088565b7fe5786ee6f50ab1a5567cb3f3f6840a2f4ddbafdf4a35cb2c52d5b732b1e84a3281565b6000610f987f843b48dccc6ff192f9330133622b0536f7b94feca0cf36e7e46fc50060b6f88283612000565b9050919050565b6000806000838152602001908152602001600020600101549050919050565b610fe87f3e206be88d1de4207c0189003e17add3718b1a1bf78910a785940577239bbdae33612000565b611027576040517f08c379a000000000000000000000000000000000000000000000000000000000815260040161101e90614a78565b60405180910390fd5b6110517f843b48dccc6ff192f9330133622b0536f7b94feca0cf36e7e46fc50060b6f88282612000565b15611091576040517f08c379a000000000000000000000000000000000000000000000000000000000815260040161108890614bd8565b60405180910390fd5b6110bb7f0996d044c7309cb5a01d79c18ee9e4c86aca84367cbd5bfd5f5d0606acc9927382612000565b156110fb576040517f08c379a00000000000000000000000000000000000000000000000000000000081526004016110f290614cd8565b60405180910390fd5b6111257f97f21e7273917267af1fea4c3510695aa29abe57349ce57ceec11b346883180382612000565b15611165576040517f08c379a000000000000000000000000000000000000000000000000000000000815260040161115c90614af8565b60405180910390fd5b61118f7f843b48dccc6ff192f9330133622b0536f7b94feca0cf36e7e46fc50060b6f882826113d2565b6040518060400160405280600981526020017f415554484f524954590000000000000000000000000000000000000000000000815250600460008373ffffffffffffffffffffffffffffffffffffffff1673ffffffffffffffffffffffffffffffffffffffff16815260200190815260200160002090805190602001906112179291906135f3565b507f3c0aee07d693a6f94b1a6aca6097bdde55429f0834eb9c27e3c31a03081f09b4816040516112479190614896565b60405180910390a150565b61127c7f843b48dccc6ff192f9330133622b0536f7b94feca0cf36e7e46fc50060b6f88233612000565b6112bb576040517f08c379a00000000000000000000000000000000000000000000000000000000081526004016112b290614ad8565b60405180910390fd5b6001816040516112cb919061487f565b908152602001604051809103902060020160159054906101000a900460ff16156112f457600080fd5b60018082604051611305919061487f565b908152602001604051809103902060020160156101000a81548160ff0219169083151502179055506040518060400160405280600781526020017f726573756d656400000000000000000000000000000000000000000000000000815250600182604051611373919061487f565b908152602001604051809103902060050190805190602001906113979291906135f3565b507fd1c688ddb9e9baabcd8e5f84a85f4933173bc6600b2f361087b41cd9304e2920816040516113c79190614955565b60405180910390a150565b6113eb6113de83610f9f565b6113e661342a565b612000565b61142a576040517f08c379a000000000000000000000000000000000000000000000000000000000815260040161142190614a98565b60405180910390fd5b6114348282613432565b5050565b6114627f843b48dccc6ff192f9330133622b0536f7b94feca0cf36e7e46fc50060b6f88233612000565b6114a1576040517f08c379a000000000000000000000000000000000000000000000000000000000815260040161149890614ad8565b60405180910390fd5b6001816040516114b1919061487f565b908152602001604051809103902060020160159054906101000a900460ff166114d957600080fd5b60006001826040516114eb919061487f565b908152602001604051809103902060020160156101000a81548160ff0219169083151502179055506040518060400160405280600981526020017f73757370656e6465640000000000000000000000000000000000000000000000815250600182604051611559919061487f565b9081526020016040518091039020600501908051906020019061157d9291906135f3565b507fb9f86d562ae4d5d427f505b81f74024716097f50538bc3d5a16f0716ca399559816040516115ad9190614955565b60405180910390a150565b6115c061342a565b73ffffffffffffffffffffffffffffffffffffffff168173ffffffffffffffffffffffffffffffffffffffff161461162d576040517f08c379a000000000000000000000000000000000000000000000000000000000815260040161162490614e18565b60405180910390fd5b6116378282613512565b5050565b6060600460008373ffffffffffffffffffffffffffffffffffffffff1673ffffffffffffffffffffffffffffffffffffffff16815260200190815260200160002080546116879061507d565b80601f01602080910402602001604051908101604052809291908181526020018280546116b39061507d565b80156117005780601f106116d557610100808354040283529160200191611700565b820191906000526020600020905b8154815290600101906020018083116116e357829003601f168201915b50505050509050919050565b600060018260405161171e919061487f565b9081526020016040518091039020600301549050919050565b6117617f47a6ab365f603cf120cb936195de17fd0bac3880ff606e7a0edb5e8e6580b1ae33612000565b6117a0576040517f08c379a000000000000000000000000000000000000000000000000000000000815260040161179790614b38565b60405180910390fd5b6117ca7f0996d044c7309cb5a01d79c18ee9e4c86aca84367cbd5bfd5f5d0606acc9927382612000565b1561180a576040517f08c379a000000000000000000000000000000000000000000000000000000000815260040161180190614c38565b60405180910390fd5b6118347f97f21e7273917267af1fea4c3510695aa29abe57349ce57ceec11b346883180382612000565b15611874576040517f08c379a000000000000000000000000000000000000000000000000000000000815260040161186b90614af8565b60405180910390fd5b61189e7f0996d044c7309cb5a01d79c18ee9e4c86aca84367cbd5bfd5f5d0606acc99273826113d2565b6040518060400160405280600881526020017f50524f4d4f544552000000000000000000000000000000000000000000000000815250600460008373ffffffffffffffffffffffffffffffffffffffff1673ffffffffffffffffffffffffffffffffffffffff16815260200190815260200160002090805190602001906119269291906135f3565b507f786ebfd921e487d94a7dbf555edf33e5f264f7b59acdcdfe139c08f48f075559816040516119569190614896565b60405180910390a150565b7f3e206be88d1de4207c0189003e17add3718b1a1bf78910a785940577239bbdae81565b60606119b17f0996d044c7309cb5a01d79c18ee9e4c86aca84367cbd5bfd5f5d0606acc9927333612000565b806119e257506119e17f97f21e7273917267af1fea4c3510695aa29abe57349ce57ceec11b346883180333612000565b5b611a21576040517f08c379a0000000000000000000000000000000000000000000000000000000008152600401611a1890614ab8565b60405180910390fd5b3373ffffffffffffffffffffffffffffffffffffffff16600183604051611a48919061487f565b908152602001604051809103902060010160009054906101000a900473ffffffffffffffffffffffffffffffffffffffff1673ffffffffffffffffffffffffffffffffffffffff161480611b0857503373ffffffffffffffffffffffffffffffffffffffff16600183604051611abe919061487f565b908152602001604051809103902060020160009054906101000a900473ffffffffffffffffffffffffffffffffffffffff1673ffffffffffffffffffffffffffffffffffffffff16145b611b47576040517f08c379a0000000000000000000000000000000000000000000000000000000008152600401611b3e90614b78565b60405180910390fd5b600182604051611b57919061487f565b908152602001604051809103902060020160159054906101000a900460ff16611bb5576040517f08c379a0000000000000000000000000000000000000000000000000000000008152600401611bac90614d98565b60405180910390fd5b600182604051611bc5919061487f565b90815260200160405180910390206000018054611be19061507d565b80601f0160208091040260200160405190810160405280929190818152602001828054611c0d9061507d565b8015611c5a5780601f10611c2f57610100808354040283529160200191611c5a565b820191906000526020600020905b815481529060010190602001808311611c3d57829003601f168201915b50505050509050919050565b611c6e613679565b60011515600183604051611c82919061487f565b908152602001604051809103902060020160149054906101000a900460ff16151514611ce3576040517f08c379a0000000000000000000000000000000000000000000000000000000008152600401611cda90614b58565b60405180910390fd5b60011515600183604051611cf7919061487f565b908152602001604051809103902060020160159054906101000a900460ff16151514611d58576040517f08c379a0000000000000000000000000000000000000000000000000000000008152600401611d4f90614e38565b60405180910390fd5b600182604051611d68919061487f565b908152602001604051809103902060405180610100016040529081600082018054611d929061507d565b80601f0160208091040260200160405190810160405280929190818152602001828054611dbe9061507d565b8015611e0b5780601f10611de057610100808354040283529160200191611e0b565b820191906000526020600020905b815481529060010190602001808311611dee57829003601f168201915b505050505081526020016001820160009054906101000a900473ffffffffffffffffffffffffffffffffffffffff1673ffffffffffffffffffffffffffffffffffffffff1673ffffffffffffffffffffffffffffffffffffffff1681526020016002820160009054906101000a900473ffffffffffffffffffffffffffffffffffffffff1673ffffffffffffffffffffffffffffffffffffffff1673ffffffffffffffffffffffffffffffffffffffff1681526020016002820160149054906101000a900460ff161515151581526020016002820160159054906101000a900460ff161515151581526020016003820154815260200160048201548152602001600582018054611f1a9061507d565b80601f0160208091040260200160405190810160405280929190818152602001828054611f469061507d565b8015611f935780601f10611f6857610100808354040283529160200191611f93565b820191906000526020600020905b815481529060010190602001808311611f7657829003601f168201915b5050505050815250509050919050565b6000611fcf7f97f21e7273917267af1fea4c3510695aa29abe57349ce57ceec11b346883180383612000565b9050919050565b60075481565b7f843b48dccc6ff192f9330133622b0536f7b94feca0cf36e7e46fc50060b6f88281565b600080600084815260200190815260200160002060000160008373ffffffffffffffffffffffffffffffffffffffff1673ffffffffffffffffffffffffffffffffffffffff16815260200190815260200160002060009054906101000a900460ff16905092915050565b6120947f843b48dccc6ff192f9330133622b0536f7b94feca0cf36e7e46fc50060b6f88233612000565b6120d3576040517f08c379a00000000000000000000000000000000000000000000000000000000081526004016120ca90614df8565b60405180910390fd5b600115156001826040516120e7919061487f565b908152602001604051809103902060020160149054906101000a900460ff16151514612148576040517f08c379a000000000000000000000000000000000000000000000000000000000815260040161213f90614db8565b60405180910390fd5b60018082604051612159919061487f565b908152602001604051809103902060020160156101000a81548160ff0219169083151502179055506040518060400160405280600981526020017f76616c69646174656400000000000000000000000000000000000000000000008152506001826040516121c7919061487f565b908152602001604051809103902060050190805190602001906121eb9291906135f3565b507fbc0e66a9d9a6660141870110fa7932ebb7fe171d5e52ee9a42674665105f1d1b8160405161221b9190614955565b60405180910390a150565b6000801b81565b60028160405161223d919061487f565b908152602001604051809103902060000160009054906101000a900473ffffffffffffffffffffffffffffffffffffffff1673ffffffffffffffffffffffffffffffffffffffff163373ffffffffffffffffffffffffffffffffffffffff16146122dc576040517f08c379a00000000000000000000000000000000000000000000000000000000081526004016122d390614c78565b60405180910390fd5b600115156002826040516122f0919061487f565b908152602001604051809103902060030160009054906101000a900460ff16151514612351576040517f08c379a000000000000000000000000000000000000000000000000000000000815260040161234890614d58565b60405180910390fd5b60001515600282604051612365919061487f565b908152602001604051809103902060030160009054906101000a90505050600281604051612393919061487f565b9081526020016040518091039020600080820160006101000a81549073ffffffffffffffffffffffffffffffffffffffff02191690556001820160006101000a81549073ffffffffffffffffffffffffffffffffffffffff021916905560028201600061240091906136ee565b6003820160006101000a81549060ff0219169055600482016000612424919061372e565b50507f1a24299bbcab71cb3013c24c40adca455867472f22ae6d056e4e0cb2bb0e5a73816040516124559190614955565b60405180910390a150565b600061248c7f0996d044c7309cb5a01d79c18ee9e4c86aca84367cbd5bfd5f5d0606acc9927383612000565b9050919050565b7f47a6ab365f603cf120cb936195de17fd0bac3880ff606e7a0edb5e8e6580b1ae81565b6124e17f97f21e7273917267af1fea4c3510695aa29abe57349ce57ceec11b346883180333612000565b612520576040517f08c379a000000000000000000000000000000000000000000000000000000000815260040161251790614cb8565b60405180910390fd5b60011515600182604051612534919061487f565b908152602001604051809103902060020160159054906101000a900460ff16151514612595576040517f08c379a000000000000000000000000000000000000000000000000000000000815260040161258c90614b98565b60405180910390fd5b6001816040516125a5919061487f565b908152602001604051809103902060020160009054906101000a900473ffffffffffffffffffffffffffffffffffffffff1673ffffffffffffffffffffffffffffffffffffffff163373ffffffffffffffffffffffffffffffffffffffff1614612644576040517f08c379a000000000000000000000000000000000000000000000000000000000815260040161263b90614b18565b60405180910390fd5b6001600284604051612656919061487f565b908152602001604051809103902060030160006101000a81548160ff0219169083151502179055508160028460405161268f919061487f565b908152602001604051809103902060000160006101000a81548173ffffffffffffffffffffffffffffffffffffffff021916908373ffffffffffffffffffffffffffffffffffffffff160217905550336002846040516126ef919061487f565b908152602001604051809103902060010160006101000a81548173ffffffffffffffffffffffffffffffffffffffff021916908373ffffffffffffffffffffffffffffffffffffffff1602179055508060028460405161274f919061487f565b908152602001604051809103902060020190805190602001906127739291906135f3565b50600181604051612784919061487f565b908152602001604051809103902060030160008154809291906127a6906150af565b91905055507f76b4f38e7ada56c131a0c796e7382093d7b5a69175ca0bf513f5827f60f5314d83826040516127dc929190614a41565b60405180910390a1505050565b600060016005846040516127fd919061487f565b908152602001604051809103902083604051612819919061487f565b9081526020016040518091039020546128329190614f67565b905092915050565b6002818051602081018201805184825260208301602085012081835280955050505050506000915090508060000160009054906101000a900473ffffffffffffffffffffffffffffffffffffffff16908060010160009054906101000a900473ffffffffffffffffffffffffffffffffffffffff16908060020180546128bf9061507d565b80601f01602080910402602001604051908101604052809291908181526020018280546128eb9061507d565b80156129385780601f1061290d57610100808354040283529160200191612938565b820191906000526020600020905b81548152906001019060200180831161291b57829003601f168201915b5050505050908060030160009054906101000a900460ff16905084565b61297f7f97f21e7273917267af1fea4c3510695aa29abe57349ce57ceec11b346883180333612000565b6129be576040517f08c379a00000000000000000000000000000000000000000000000000000000081526004016129b590614c18565b60405180910390fd5b6002826040516129ce919061487f565b908152602001604051809103902060010160009054906101000a900473ffffffffffffffffffffffffffffffffffffffff1673ffffffffffffffffffffffffffffffffffffffff163373ffffffffffffffffffffffffffffffffffffffff1614612a6d576040517f08c379a0000000000000000000000000000000000000000000000000000000008152600401612a6490614dd8565b60405180910390fd5b60011515600283604051612a81919061487f565b908152602001604051809103902060030160009054906101000a900460ff16151514612ae2576040517f08c379a0000000000000000000000000000000000000000000000000000000008152600401612ad990614d78565b60405180910390fd5b600282604051612af2919061487f565b908152602001604051809103902060040181908060018154018082558091505060019003906000526020600020016000909190919091509080519060200190612b3c9291906135f3565b507f2fd00fee6fba014584e65a085e3eb131b03ff5c389c44c3cf9e857d52c1650d681604051612b6c9190614955565b60405180910390a15050565b60036020528060005260406000206000915090508054612b979061507d565b80601f0160208091040260200160405190810160405280929190818152602001828054612bc39061507d565b8015612c105780601f10612be557610100808354040283529160200191612c10565b820191906000526020600020905b815481529060010190602001808311612bf357829003601f168201915b505050505081565b7f97f21e7273917267af1fea4c3510695aa29abe57349ce57ceec11b346883180381565b612c55612c4883610f9f565b612c5061342a565b612000565b612c94576040517f08c379a0000000000000000000000000000000000000000000000000000000008152600401612c8b90614bb8565b60405180910390fd5b612c9e8282613512565b5050565b6060600182604051612cb4919061487f565b90815260200160405180910390206005018054612cd09061507d565b80601f0160208091040260200160405190810160405280929190818152602001828054612cfc9061507d565b8015612d495780601f10612d1e57610100808354040283529160200191612d49565b820191906000526020600020905b815481529060010190602001808311612d2c57829003601f168201915b50505050509050919050565b612d7f7f47a6ab365f603cf120cb936195de17fd0bac3880ff606e7a0edb5e8e6580b1ae33612000565b612dbe576040517f08c379a0000000000000000000000000000000000000000000000000000000008152600401612db590614b38565b60405180910390fd5b612de87f97f21e7273917267af1fea4c3510695aa29abe57349ce57ceec11b346883180382612000565b15612e28576040517f08c379a0000000000000000000000000000000000000000000000000000000008152600401612e1f90614c58565b60405180910390fd5b612e527f0996d044c7309cb5a01d79c18ee9e4c86aca84367cbd5bfd5f5d0606acc9927382612000565b15612e92576040517f08c379a0000000000000000000000000000000000000000000000000000000008152600401612e8990614cd8565b60405180910390fd5b612ebc7f97f21e7273917267af1fea4c3510695aa29abe57349ce57ceec11b3468831803826113d2565b6040518060400160405280600c81526020017f494e56455354494741544f520000000000000000000000000000000000000000815250600460008373ffffffffffffffffffffffffffffffffffffffff1673ffffffffffffffffffffffffffffffffffffffff1681526020019081526020016000209080519060200190612f449291906135f3565b507fe8418412d360af43b959e2ca49b9ad98feb77e7b5597963ca346077db47d69ba81604051612f749190614896565b60405180910390a150565b60065481565b7f0996d044c7309cb5a01d79c18ee9e4c86aca84367cbd5bfd5f5d0606acc9927381565b600281604051612fb9919061487f565b908152602001604051809103902060000160009054906101000a900473ffffffffffffffffffffffffffffffffffffffff1673ffffffffffffffffffffffffffffffffffffffff163373ffffffffffffffffffffffffffffffffffffffff1614613058576040517f08c379a000000000000000000000000000000000000000000000000000000000815260040161304f90614c78565b60405180910390fd5b6000151560028260405161306c919061487f565b908152602001604051809103902060030160009054906101000a900460ff161515146130cd576040517f08c379a00000000000000000000000000000000000000000000000000000000081526004016130c490614cf8565b60405180910390fd5b600115156002826040516130e1919061487f565b908152602001604051809103902060030160009054906101000a905050507fbf0bdf0dac0f40e06b9d86448186b0585c751a20ebbf3541074e23bb229e4f818160405161312e9190614955565b60405180910390a150565b60606131657f97f21e7273917267af1fea4c3510695aa29abe57349ce57ceec11b346883180333612000565b6131a4576040517f08c379a000000000000000000000000000000000000000000000000000000000815260040161319b90614c18565b60405180910390fd5b6002826040516131b4919061487f565b908152602001604051809103902060010160009054906101000a900473ffffffffffffffffffffffffffffffffffffffff1673ffffffffffffffffffffffffffffffffffffffff163373ffffffffffffffffffffffffffffffffffffffff1614613253576040517f08c379a000000000000000000000000000000000000000000000000000000000815260040161324a90614dd8565b60405180910390fd5b60011515600283604051613267919061487f565b908152602001604051809103902060030160009054906101000a900460ff161515146132c8576040517f08c379a00000000000000000000000000000000000000000000000000000000081526004016132bf90614d78565b60405180910390fd5b6002826040516132d8919061487f565b9081526020016040518091039020600401805480602002602001604051908101604052809291908181526020016000905b828210156133b55783829060005260206000200180546133289061507d565b80601f01602080910402602001604051908101604052809291908181526020018280546133549061507d565b80156133a15780601f10613376576101008083540402835291602001916133a1565b820191906000526020600020905b81548152906001019060200180831161338457829003601f168201915b505050505081526020019060010190613309565b505050509050919050565b60007f01ffc9a7000000000000000000000000000000000000000000000000000000007bffffffffffffffffffffffffffffffffffffffffffffffffffffffff1916827bffffffffffffffffffffffffffffffffffffffffffffffffffffffff1916149050919050565b600033905090565b61343c8282612000565b61350e57600160008084815260200190815260200160002060000160008373ffffffffffffffffffffffffffffffffffffffff1673ffffffffffffffffffffffffffffffffffffffff16815260200190815260200160002060006101000a81548160ff0219169083151502179055506134b361342a565b73ffffffffffffffffffffffffffffffffffffffff168173ffffffffffffffffffffffffffffffffffffffff16837f2f8788117e7eff1d82e926ec794901d17c78024a50270940304540a733656f0d60405160405180910390a45b5050565b61351c8282612000565b156135ef57600080600084815260200190815260200160002060000160008373ffffffffffffffffffffffffffffffffffffffff1673ffffffffffffffffffffffffffffffffffffffff16815260200190815260200160002060006101000a81548160ff02191690831515021790555061359461342a565b73ffffffffffffffffffffffffffffffffffffffff168173ffffffffffffffffffffffffffffffffffffffff16837ff6391f5c32d9c69d2a47ea670b442974b53935d1edc7fd64eb21e047a839171b60405160405180910390a45b5050565b8280546135ff9061507d565b90600052602060002090601f0160209004810192826136215760008555613668565b82601f1061363a57805160ff1916838001178555613668565b82800160010185558215613668579182015b8281111561366757825182559160200191906001019061364c565b5b509050613675919061374f565b5090565b60405180610100016040528060608152602001600073ffffffffffffffffffffffffffffffffffffffff168152602001600073ffffffffffffffffffffffffffffffffffffffff1681526020016000151581526020016000151581526020016000815260200160008152602001606081525090565b5080546136fa9061507d565b6000825580601f1061370c575061372b565b601f01602090049060005260206000209081019061372a919061374f565b5b50565b508054600082559060005260206000209081019061374c919061376c565b50565b5b80821115613768576000816000905550600101613750565b5090565b5b8082111561378c576000818161378391906136ee565b5060010161376d565b5090565b60006137a361379e84614ec6565b614e95565b9050828152602081018484840111156137bb57600080fd5b6137c684828561503b565b509392505050565b6000813590506137dd81615196565b92915050565b6000813590506137f2816151ad565b92915050565b600081359050613807816151c4565b92915050565b600082601f83011261381e57600080fd5b813561382e848260208601613790565b91505092915050565b600081359050613846816151db565b92915050565b60006020828403121561385e57600080fd5b600061386c848285016137ce565b91505092915050565b60006020828403121561388757600080fd5b6000613895848285016137e3565b91505092915050565b600080604083850312156138b157600080fd5b60006138bf858286016137e3565b92505060206138d0858286016137ce565b9150509250929050565b6000602082840312156138ec57600080fd5b60006138fa848285016137f8565b91505092915050565b60006020828403121561391557600080fd5b600082013567ffffffffffffffff81111561392f57600080fd5b61393b8482850161380d565b91505092915050565b60008060006060848603121561395957600080fd5b600084013567ffffffffffffffff81111561397357600080fd5b61397f8682870161380d565b9350506020613990868287016137ce565b925050604084013567ffffffffffffffff8111156139ad57600080fd5b6139b98682870161380d565b9150509250925092565b600080604083850312156139d657600080fd5b600083013567ffffffffffffffff8111156139f057600080fd5b6139fc8582860161380d565b925050602083013567ffffffffffffffff811115613a1957600080fd5b613a258582860161380d565b9150509250929050565b600080600080600060a08688031215613a4757600080fd5b600086013567ffffffffffffffff811115613a6157600080fd5b613a6d8882890161380d565b955050602086013567ffffffffffffffff811115613a8a57600080fd5b613a968882890161380d565b945050604086013567ffffffffffffffff811115613ab357600080fd5b613abf8882890161380d565b935050606086013567ffffffffffffffff811115613adc57600080fd5b613ae88882890161380d565b9250506080613af9888289016137ce565b9150509295509295909350565b600060208284031215613b1857600080fd5b6000613b2684828501613837565b91505092915050565b6000613b3b8383613c03565b905092915050565b613b4c81614fbd565b82525050565b613b5b81614fbd565b82525050565b6000613b6c82614f06565b613b768185614f29565b935083602082028501613b8885614ef6565b8060005b85811015613bc45784840389528151613ba58582613b2f565b9450613bb083614f1c565b925060208a01995050600181019050613b8c565b50829750879550505050505092915050565b613bdf81614fcf565b82525050565b613bee81614fcf565b82525050565b613bfd81614fdb565b82525050565b6000613c0e82614f11565b613c188185614f3a565b9350613c2881856020860161504a565b613c3181615185565b840191505092915050565b6000613c4782614f11565b613c518185614f4b565b9350613c6181856020860161504a565b613c6a81615185565b840191505092915050565b6000613c8082614f11565b613c8a8185614f5c565b9350613c9a81856020860161504a565b80840191505092915050565b6000613cb3602e83614f4b565b91507f4f6e6c792074686520617574686f726974792061646d696e2063616e2061646460008301527f20696e76657374696761746f72730000000000000000000000000000000000006020830152604082019050919050565b6000613d19602f83614f4b565b91507f416363657373436f6e74726f6c3a2073656e646572206d75737420626520616e60008301527f2061646d696e20746f206772616e7400000000000000000000000000000000006020830152604082019050919050565b6000613d7f603083614f4b565b91507f6f6e6c792070726f6d6f7465727320616e6420696e76657374696761746f727360008301527f20686176652074686973207269676874000000000000000000000000000000006020830152604082019050919050565b6000613de5602483614f4b565b91507f4f6e6c7920617574686f726969746965732063616e2073757370656e6420747260008301527f69616c73000000000000000000000000000000000000000000000000000000006020830152604082019050919050565b6000613e4b601783614f4b565b91507f596f752061726520616e20696e76657374696761746f720000000000000000006000830152602082019050919050565b6000613e8b603683614f4b565b91507f596f7520646f206e6f74206861766520726967687420746f206164642070617460008301527f69656e747320746f20746869732070726f746f636f6c000000000000000000006020830152604082019050919050565b6000613ef1602d83614f4b565b91507f4f6e6c79207468652070726f6d6f746f722061646d696e2063616e206164642060008301527f696e76657374696761746f7273000000000000000000000000000000000000006020830152604082019050919050565b6000613f57602183614f4b565b91507f5468657265206973206e6f2070726f746f636f6c20776974682074686973206960008301527f64000000000000000000000000000000000000000000000000000000000000006020830152604082019050919050565b6000613fbd602a83614f4b565b91507f596f7520646f206e6f74206861766520726967687420746f206f70656e20746860008301527f69732070726f6a656374000000000000000000000000000000000000000000006020830152604082019050919050565b6000614023602983614f4b565b91507f546869732070726f746f636f6c20686173206e6f74206265656e20617574686f60008301527f72697a65642079657400000000000000000000000000000000000000000000006020830152604082019050919050565b6000614089603083614f4b565b91507f416363657373436f6e74726f6c3a2073656e646572206d75737420626520616e60008301527f2061646d696e20746f207265766f6b65000000000000000000000000000000006020830152604082019050919050565b60006140ef601c83614f4b565b91507f596f752061726520616c726561647920616e20617574686f72697479000000006000830152602082019050919050565b600061412f602383614f4b565b91507f4f6e6c792070726f6d6f746572732063616e207375626d69742070726f746f6360008301527f6f6c7300000000000000000000000000000000000000000000000000000000006020830152604082019050919050565b6000614195602383614f4b565b91507f4f6e6c7920696e76657374696761746f72732063616e20636f6c6c656374206460008301527f61746100000000000000000000000000000000000000000000000000000000006020830152604082019050919050565b60006141fb601a83614f4b565b91507f596f752061726520616c726561647920612070726f6d6f7465720000000000006000830152602082019050919050565b600061423b601f83614f4b565b91507f596f752061726520616c726561647920616e20696e76657374696761746f72006000830152602082019050919050565b600061427b601683614f4b565b91507f596f7572204944206973206e6f7420636f7272656374000000000000000000006000830152602082019050919050565b60006142bb602183614f4b565b91507f50726f6d6f746572732063616e6e6f7420626520696e76657374696761746f7260008301527f73000000000000000000000000000000000000000000000000000000000000006020830152604082019050919050565b6000614321603083614f4b565b91507f4f6e6c7920696e76657374696761746f72732063616e2061646420706174696560008301527f6e747320746f2070726f746f636f6c73000000000000000000000000000000006020830152604082019050919050565b6000614387601283614f4b565b91507f596f752061726520612070726f6d6f74657200000000000000000000000000006000830152602082019050919050565b60006143c7601783614f4b565b91507f596f7520646964206e6f7420636f6e73656e74207965740000000000000000006000830152602082019050919050565b6000614407602283614f4b565b91507f5468652070726f746f636f6c20697320616c726561647920726567697374657260008301527f65640000000000000000000000000000000000000000000000000000000000006020830152604082019050919050565b600061446d602383614f4b565b91507f417574686f7269746965732063616e6e6f7420626520696e766573746967617460008301527f6f727300000000000000000000000000000000000000000000000000000000006020830152604082019050919050565b60006144d3601f83614f4b565b91507f596f7520616c7265616479207265766f6b6520796f757220636f6e73656e74006000830152602082019050919050565b6000614513601d83614f4b565b91507f476574207468652070617469656e7420636f6e73656e742066697273740000006000830152602082019050919050565b6000614553602283614f4b565b91507f5468657265206973206e6f2070726f746f636f6c20776974682074686973206360008301527f69640000000000000000000000000000000000000000000000000000000000006020830152604082019050919050565b60006145b9602c83614f4b565b91507f5468657265206973206e6f2070726f746f636f6c206173736f6369617465642060008301527f77697468207468697320494400000000000000000000000000000000000000006020830152604082019050919050565b600061461f602683614f4b565b91507f596f7520646f206e6f74206861766520726967687420666f722074686973207060008301527f617469656e7400000000000000000000000000000000000000000000000000006020830152604082019050919050565b6000614685603183614f4b565b91507f4f6e6c7920617574686f726974696573206861766520726967687420746f207660008301527f616c69646174652070726f746f636f6c730000000000000000000000000000006020830152604082019050919050565b60006146eb602f83614f4b565b91507f416363657373436f6e74726f6c3a2063616e206f6e6c792072656e6f756e636560008301527f20726f6c657320666f722073656c6600000000000000000000000000000000006020830152604082019050919050565b6000614751602783614f4b565b91507f546869732070726f746f636f6c206873206e6f74206265656e2076616c69646160008301527f74656420796574000000000000000000000000000000000000000000000000006020830152604082019050919050565b60006101008301600083015184820360008601526147c88282613c03565b91505060208301516147dd6020860182613b43565b5060408301516147f06040860182613b43565b5060608301516148036060860182613bd6565b5060808301516148166080860182613bd6565b5060a083015161482960a0860182614861565b5060c083015161483c60c0860182614861565b5060e083015184820360e08601526148548282613c03565b9150508091505092915050565b61486a81615031565b82525050565b61487981615031565b82525050565b600061488b8284613c75565b915081905092915050565b60006020820190506148ab6000830184613b52565b92915050565b60006080820190506148c66000830187613b52565b6148d36020830186613b52565b81810360408301526148e58185613c3c565b90506148f46060830184613be5565b95945050505050565b600060208201905081810360008301526149178184613b61565b905092915050565b60006020820190506149346000830184613be5565b92915050565b600060208201905061494f6000830184613bf4565b92915050565b6000602082019050818103600083015261496f8184613c3c565b905092915050565b600060608201905081810360008301526149918186613c3c565b90506149a06020830185613b52565b6149ad6040830184613b52565b949350505050565b60006101008201905081810360008301526149d0818b613c3c565b90506149df602083018a613b52565b6149ec6040830189613b52565b6149f96060830188613be5565b614a066080830187613be5565b614a1360a0830186614870565b614a2060c0830185614870565b81810360e0830152614a328184613c3c565b90509998505050505050505050565b60006040820190508181036000830152614a5b8185613c3c565b90508181036020830152614a6f8184613c3c565b90509392505050565b60006020820190508181036000830152614a9181613ca6565b9050919050565b60006020820190508181036000830152614ab181613d0c565b9050919050565b60006020820190508181036000830152614ad181613d72565b9050919050565b60006020820190508181036000830152614af181613dd8565b9050919050565b60006020820190508181036000830152614b1181613e3e565b9050919050565b60006020820190508181036000830152614b3181613e7e565b9050919050565b60006020820190508181036000830152614b5181613ee4565b9050919050565b60006020820190508181036000830152614b7181613f4a565b9050919050565b60006020820190508181036000830152614b9181613fb0565b9050919050565b60006020820190508181036000830152614bb181614016565b9050919050565b60006020820190508181036000830152614bd18161407c565b9050919050565b60006020820190508181036000830152614bf1816140e2565b9050919050565b60006020820190508181036000830152614c1181614122565b9050919050565b60006020820190508181036000830152614c3181614188565b9050919050565b60006020820190508181036000830152614c51816141ee565b9050919050565b60006020820190508181036000830152614c718161422e565b9050919050565b60006020820190508181036000830152614c918161426e565b9050919050565b60006020820190508181036000830152614cb1816142ae565b9050919050565b60006020820190508181036000830152614cd181614314565b9050919050565b60006020820190508181036000830152614cf18161437a565b9050919050565b60006020820190508181036000830152614d11816143ba565b9050919050565b60006020820190508181036000830152614d31816143fa565b9050919050565b60006020820190508181036000830152614d5181614460565b9050919050565b60006020820190508181036000830152614d71816144c6565b9050919050565b60006020820190508181036000830152614d9181614506565b9050919050565b60006020820190508181036000830152614db181614546565b9050919050565b60006020820190508181036000830152614dd1816145ac565b9050919050565b60006020820190508181036000830152614df181614612565b9050919050565b60006020820190508181036000830152614e1181614678565b9050919050565b60006020820190508181036000830152614e31816146de565b9050919050565b60006020820190508181036000830152614e5181614744565b9050919050565b60006020820190508181036000830152614e7281846147aa565b905092915050565b6000602082019050614e8f6000830184614870565b92915050565b6000604051905081810181811067ffffffffffffffff82111715614ebc57614ebb615156565b5b8060405250919050565b600067ffffffffffffffff821115614ee157614ee0615156565b5b601f19601f8301169050602081019050919050565b6000819050602082019050919050565b600081519050919050565b600081519050919050565b6000602082019050919050565b600082825260208201905092915050565b600082825260208201905092915050565b600082825260208201905092915050565b600081905092915050565b6000614f7282615031565b9150614f7d83615031565b9250827fffffffffffffffffffffffffffffffffffffffffffffffffffffffffffffffff03821115614fb257614fb16150f8565b5b828201905092915050565b6000614fc882615011565b9050919050565b60008115159050919050565b6000819050919050565b60007fffffffff0000000000000000000000000000000000000000000000000000000082169050919050565b600073ffffffffffffffffffffffffffffffffffffffff82169050919050565b6000819050919050565b82818337600083830152505050565b60005b8381101561506857808201518184015260208101905061504d565b83811115615077576000848401525b50505050565b6000600282049050600182168061509557607f821691505b602082108114156150a9576150a8615127565b5b50919050565b60006150ba82615031565b91507fffffffffffffffffffffffffffffffffffffffffffffffffffffffffffffffff8214156150ed576150ec6150f8565b5b600182019050919050565b7f4e487b7100000000000000000000000000000000000000000000000000000000600052601160045260246000fd5b7f4e487b7100000000000000000000000000000000000000000000000000000000600052602260045260246000fd5b7f4e487b7100000000000000000000000000000000000000000000000000000000600052604160045260246000fd5b6000601f19601f8301169050919050565b61519f81614fbd565b81146151aa57600080fd5b50565b6151b681614fdb565b81146151c157600080fd5b50565b6151cd81614fe5565b81146151d857600080fd5b50565b6151e481615031565b81146151ef57600080fd5b5056fea2646970667358221220a29890eb3542f8021abdb8e4418bace6caf81bbc3af07ae8d5abfd3e4a5b881964736f6c63430008000033",
  "immutableReferences": {},
  "source": "// SPDX-License-Identifier: MIT\npragma solidity 0.8.0;\n\nimport \"../client/node_modules/@openzeppelin/contracts/access/AccessControl.sol\";\n\ncontract MedTrials is AccessControl {\n    struct Protocol {\n        string cid;\n        address promoter;\n        address investigator;\n        bool registered;\n        bool authorized;\n        uint256 nbOfPatients;\n        uint256 index;\n        string status;\n    }\n\n    struct Patient {\n        address patient;\n        address investigator;\n        string protocolID;\n        bool consent;\n        string[] cids;\n    }\n\n    mapping(string => Protocol) public protocols;\n    mapping(string => Patient) public patients;\n    mapping(uint256 => string) public protocolsID;\n    mapping(address => string) roles;\n\n    mapping(string => mapping(string => uint256)) private protocolNumerotation;\n\n    bytes32 public constant AUTHORITY = keccak256(\"AUTHORITY\");\n    bytes32 public constant AUTHORITY_ADMIN = keccak256(\"AUTHORITYADMIN\");\n    bytes32 public constant PROMOTER = keccak256(\"PROMOTER\");\n    bytes32 public constant PROMOTER_ADMIN = keccak256(\"PROMOTERADMIN\");\n    bytes32 public constant INVESTIGATOR = keccak256(\"INVESTIGATOR\");\n    bytes32 public constant PATIENT = keccak256(\"PATIENT\");\n\n    uint256 public nbOfProtocolsRegistered;\n    uint256 public nbOfPatients;\n\n    event promoterAdded(address _address);\n    event authorityAdded(address _address);\n    event investigatorAdded(address _address);\n    event protocolValidated(string _id);\n    event newProtocol(string _id, address _promotor, address _investigator);\n    event patientAdded(string _patientID, string _protocolID);\n    event consentGiven(string _patientID);\n    event consentRevoked(string _patientID);\n    event cidSaved(string _cid);\n    event protocolSuspended(string _protocolID);\n    event protocolResumed(string _protocolID);\n\n    constructor(\n        address _default_admin,\n        address _authorityAdmin,\n        address _promotorAdmin\n    ) {\n        _setupRole(DEFAULT_ADMIN_ROLE, _default_admin);\n\n        _setRoleAdmin(AUTHORITY_ADMIN, DEFAULT_ADMIN_ROLE);\n        _setRoleAdmin(AUTHORITY, AUTHORITY_ADMIN);\n\n        _setRoleAdmin(PROMOTER_ADMIN, DEFAULT_ADMIN_ROLE);\n        _setRoleAdmin(PROMOTER, PROMOTER_ADMIN);\n\n        _setRoleAdmin(INVESTIGATOR, PROMOTER);\n\n        _setupRole(AUTHORITY_ADMIN, _authorityAdmin);\n        _setupRole(PROMOTER_ADMIN, _promotorAdmin);\n\n        //renounceRole(DEFAULT_ADMIN_ROLE, _default_admin);\n\n        roles[_authorityAdmin] = \"AUTHORITY ADMIN\";\n        roles[_promotorAdmin] = \"PROMOTER ADMIN\";\n    }\n\n    function isAuthority(address _address) public view returns (bool) {\n        return hasRole(AUTHORITY, _address);\n    }\n\n    function isPromoter(address _address) public view returns (bool) {\n        return hasRole(PROMOTER, _address);\n    }\n\n    function isInvestigator(address _address) public view returns (bool) {\n        return hasRole(INVESTIGATOR, _address);\n    }\n\n    function addPromoter(address _address) public {\n        require(\n            hasRole(PROMOTER_ADMIN, msg.sender),\n            \"Only the promotor admin can add investigators\"\n        );\n        require(!hasRole(PROMOTER, _address), \"You are already a promoter\");\n        require(!hasRole(INVESTIGATOR, _address), \"You are an investigator\");\n\n        grantRole(PROMOTER, _address);\n        roles[_address] = \"PROMOTER\";\n\n        emit promoterAdded(_address);\n    }\n\n    function addInvestigator(address _address) public {\n        require(\n            hasRole(PROMOTER_ADMIN, msg.sender),\n            \"Only the promotor admin can add investigators\"\n        );\n        require(\n            !hasRole(INVESTIGATOR, _address),\n            \"You are already an investigator\"\n        );\n        require(!hasRole(PROMOTER, _address), \"You are a promoter\");\n\n        grantRole(INVESTIGATOR, _address);\n        roles[_address] = \"INVESTIGATOR\";\n\n        emit investigatorAdded(_address);\n    }\n\n    function addAuthority(address _address) public {\n        require(\n            hasRole(AUTHORITY_ADMIN, msg.sender),\n            \"Only the authority admin can add investigators\"\n        );\n        require(!hasRole(AUTHORITY, _address), \"You are already an authority\");\n        require(!hasRole(PROMOTER, _address), \"You are a promoter\");\n        require(!hasRole(INVESTIGATOR, _address), \"You are an investigator\");\n\n        grantRole(AUTHORITY, _address);\n        roles[_address] = \"AUTHORITY\";\n\n        emit authorityAdded(_address);\n    }\n\n    function registerProtocol(\n        string memory _id,\n        string memory _cid,\n        string memory center,\n        string memory category,\n        address _investigator\n    ) public {\n        require(\n            hasRole(PROMOTER, msg.sender),\n            \"Only promoters can submit protocols\"\n        );\n        require(\n            !hasRole(PROMOTER, _investigator),\n            \"Promoters cannot be investigators\"\n        );\n        require(\n            !hasRole(AUTHORITY, _investigator),\n            \"Authorities cannot be investigators\"\n        );\n        require(\n            !protocols[_id].registered,\n            \"The protocol is already registered\"\n        );\n\n        protocols[_id].promoter = msg.sender;\n        protocols[_id].investigator = _investigator;\n        protocols[_id].registered = true;\n        protocols[_id].cid = _cid;\n        protocols[_id].status = \"registered\";\n        protocols[_id].index = nbOfProtocolsRegistered;\n\n        protocolsID[nbOfProtocolsRegistered] = _id;\n        nbOfProtocolsRegistered++;\n\n        protocolNumerotation[center][category]++;\n\n        if (!hasRole(INVESTIGATOR, _investigator)) {\n            grantRole(INVESTIGATOR, _investigator);\n            roles[_investigator] = \"INVESTIGATOR\";\n        }\n\n        emit newProtocol(_id, msg.sender, _investigator);\n    }\n\n    function getProtocolCID(string memory _id)\n        public\n        view\n        returns (string memory)\n    {\n        require(\n            hasRole(PROMOTER, msg.sender) || hasRole(INVESTIGATOR, msg.sender),\n            \"only promoters and investigators have this right\"\n        );\n        require(\n            protocols[_id].promoter == msg.sender ||\n                protocols[_id].investigator == msg.sender,\n            \"You do not have right to open this project\"\n        );\n        require(\n            protocols[_id].authorized,\n            \"There is no protocol with this cid\"\n        );\n\n        return protocols[_id].cid;\n    }\n\n    function validateProtocol(string memory _id) public {\n        require(\n            hasRole(AUTHORITY, msg.sender),\n            \"Only authorities have right to validate protocols\"\n        );\n        require(\n            protocols[_id].registered == true,\n            \"There is no protocol associated with this ID\"\n        );\n\n        protocols[_id].authorized = true;\n        protocols[_id].status = \"validated\";\n\n        emit protocolValidated(_id);\n    }\n\n    function getProtocol(string memory _id)\n        public\n        view\n        returns (Protocol memory)\n    {\n        require(\n            protocols[_id].registered == true,\n            \"There is no protocol with this id\"\n        );\n        require(\n            protocols[_id].authorized == true,\n            \"This protocol hs not been validated yet\"\n        );\n\n        return protocols[_id];\n    }\n\n    function addPatient(\n        string memory _patientID,\n        address _patientAddress,\n        string memory _protocolID\n    ) public {\n        require(\n            hasRole(INVESTIGATOR, msg.sender),\n            \"Only investigators can add patients to protocols\"\n        );\n        require(\n            protocols[_protocolID].authorized == true,\n            \"This protocol has not been authorized yet\"\n        );\n        require(\n            msg.sender == protocols[_protocolID].investigator,\n            \"You do not have right to add patients to this protocol\"\n        );\n        //require(_patientAddress != protocols[_protocolID].patient, \"This patient already exist\");\n\n        patients[_patientID].consent = true;\n        patients[_patientID].patient = _patientAddress;\n        patients[_patientID].investigator = msg.sender;\n        patients[_patientID].protocolID = _protocolID;\n        protocols[_protocolID].nbOfPatients++;\n\n        emit patientAdded(_patientID, _protocolID);\n    }\n\n    function giveConsent(string memory _patientID) public {\n        require(\n            msg.sender == patients[_patientID].patient,\n            \"Your ID is not correct\"\n        );\n        require(\n            patients[_patientID].consent == false,\n            \"You did not consent yet\"\n        );\n\n        patients[_patientID].consent == true;\n\n        emit consentGiven(_patientID);\n    }\n\n    function revokeConsent(string memory _patientID) public {\n        require(\n            msg.sender == patients[_patientID].patient,\n            \"Your ID is not correct\"\n        );\n        require(\n            patients[_patientID].consent == true,\n            \"You already revoke your consent\"\n        );\n\n        patients[_patientID].consent == false;\n        delete patients[_patientID];\n\n        emit consentRevoked(_patientID);\n    }\n\n    function suspendTrials(string memory _protocolID) public {\n        require(\n            hasRole(AUTHORITY, msg.sender),\n            \"Only authoriities can suspend trials\"\n        );\n        require(protocols[_protocolID].authorized);\n\n        protocols[_protocolID].authorized = false;\n        protocols[_protocolID].status = \"suspended\";\n\n        emit protocolSuspended(_protocolID);\n    }\n\n    function resumeTrials(string memory _protocolID) public {\n        require(\n            hasRole(AUTHORITY, msg.sender),\n            \"Only authoriities can suspend trials\"\n        );\n        require(!protocols[_protocolID].authorized);\n\n        protocols[_protocolID].authorized = true;\n        protocols[_protocolID].status = \"resumed\";\n\n        emit protocolResumed(_protocolID);\n    }\n\n    function storeDataCID(string memory _patientID, string memory _cid) public {\n        require(\n            hasRole(INVESTIGATOR, msg.sender),\n            \"Only investigators can collect data\"\n        );\n        require(\n            msg.sender == patients[_patientID].investigator,\n            \"You do not have right for this patient\"\n        );\n        require(\n            patients[_patientID].consent == true,\n            \"Get the patient consent first\"\n        );\n\n        patients[_patientID].cids.push(_cid);\n\n        emit cidSaved(_cid);\n    }\n\n    function getDataCID(string memory _patientID)\n        public\n        view\n        returns (string[] memory)\n    {\n        require(\n            hasRole(INVESTIGATOR, msg.sender),\n            \"Only investigators can collect data\"\n        );\n        require(\n            msg.sender == patients[_patientID].investigator,\n            \"You do not have right for this patient\"\n        );\n        require(\n            patients[_patientID].consent == true,\n            \"Get the patient consent first\"\n        );\n\n        return patients[_patientID].cids;\n    }\n\n    function getProtocolStatus(string memory _protocolID)\n        public\n        view\n        returns (string memory)\n    {\n        return protocols[_protocolID].status;\n    }\n\n    function numberOfPatientByProtocol(string memory _protocolID)\n        public\n        view\n        returns (uint256)\n    {\n        return protocols[_protocolID].nbOfPatients;\n    }\n\n    function getRole(address _address) public view returns (string memory) {\n        return roles[_address];\n    }\n\n    function getProtocoleNumerotation(\n        string memory center,\n        string memory category\n    ) public view returns (uint256) {\n        return protocolNumerotation[center][category] + 1;\n    }\n}\n",
  "sourcePath": "/Users/samuel/Documents/Projet/Pojet_Dev/MedTrials/contracts/MedTrials.sol",
  "compiler": {
    "name": "solc",
    "version": "0.8.0+commit.c7dfd78e.Emscripten.clang"
  },
  "schemaVersion": "3.3.4",
  "updatedAt": "2021-05-02T19:08:33.614Z",
  "networkType": "ethereum",
  "devdoc": {
    "kind": "dev",
    "methods": {
      "getRoleAdmin(bytes32)": {
        "details": "Returns the admin role that controls `role`. See {grantRole} and {revokeRole}. To change a role's admin, use {_setRoleAdmin}."
      },
      "grantRole(bytes32,address)": {
        "details": "Grants `role` to `account`. If `account` had not been already granted `role`, emits a {RoleGranted} event. Requirements: - the caller must have ``role``'s admin role."
      },
      "hasRole(bytes32,address)": {
        "details": "Returns `true` if `account` has been granted `role`."
      },
      "renounceRole(bytes32,address)": {
        "details": "Revokes `role` from the calling account. Roles are often managed via {grantRole} and {revokeRole}: this function's purpose is to provide a mechanism for accounts to lose their privileges if they are compromised (such as when a trusted device is misplaced). If the calling account had been granted `role`, emits a {RoleRevoked} event. Requirements: - the caller must be `account`."
      },
      "revokeRole(bytes32,address)": {
        "details": "Revokes `role` from `account`. If `account` had been granted `role`, emits a {RoleRevoked} event. Requirements: - the caller must have ``role``'s admin role."
      },
      "supportsInterface(bytes4)": {
        "details": "See {IERC165-supportsInterface}."
      }
    },
    "version": 1
  },
  "userdoc": {
    "kind": "user",
    "methods": {},
    "version": 1
  }
}