{
  "contractName": "MedTrials",
  "abi": [
    {
      "inputs": [
        {
          "internalType": "address",
          "name": "_default_admin",
          "type": "address"
        },
        {
          "internalType": "address",
          "name": "_authorityAdmin",
          "type": "address"
        },
        {
          "internalType": "address",
          "name": "_promotorAdmin",
          "type": "address"
        }
      ],
      "stateMutability": "nonpayable",
      "type": "constructor"
    },
    {
      "anonymous": false,
      "inputs": [
        {
          "indexed": true,
          "internalType": "bytes32",
          "name": "role",
          "type": "bytes32"
        },
        {
          "indexed": true,
          "internalType": "bytes32",
          "name": "previousAdminRole",
          "type": "bytes32"
        },
        {
          "indexed": true,
          "internalType": "bytes32",
          "name": "newAdminRole",
          "type": "bytes32"
        }
      ],
      "name": "RoleAdminChanged",
      "type": "event"
    },
    {
      "anonymous": false,
      "inputs": [
        {
          "indexed": true,
          "internalType": "bytes32",
          "name": "role",
          "type": "bytes32"
        },
        {
          "indexed": true,
          "internalType": "address",
          "name": "account",
          "type": "address"
        },
        {
          "indexed": true,
          "internalType": "address",
          "name": "sender",
          "type": "address"
        }
      ],
      "name": "RoleGranted",
      "type": "event"
    },
    {
      "anonymous": false,
      "inputs": [
        {
          "indexed": true,
          "internalType": "bytes32",
          "name": "role",
          "type": "bytes32"
        },
        {
          "indexed": true,
          "internalType": "address",
          "name": "account",
          "type": "address"
        },
        {
          "indexed": true,
          "internalType": "address",
          "name": "sender",
          "type": "address"
        }
      ],
      "name": "RoleRevoked",
      "type": "event"
    },
    {
      "anonymous": false,
      "inputs": [
        {
          "indexed": false,
          "internalType": "address",
          "name": "_address",
          "type": "address"
        }
      ],
      "name": "authorityAdded",
      "type": "event"
    },
    {
      "anonymous": false,
      "inputs": [
        {
          "indexed": false,
          "internalType": "string",
          "name": "_cid",
          "type": "string"
        }
      ],
      "name": "cidSaved",
      "type": "event"
    },
    {
      "anonymous": false,
      "inputs": [
        {
          "indexed": false,
          "internalType": "string",
          "name": "_patientID",
          "type": "string"
        }
      ],
      "name": "consentGiven",
      "type": "event"
    },
    {
      "anonymous": false,
      "inputs": [
        {
          "indexed": false,
          "internalType": "string",
          "name": "_patientID",
          "type": "string"
        }
      ],
      "name": "consentRevoked",
      "type": "event"
    },
    {
      "anonymous": false,
      "inputs": [
        {
          "indexed": false,
          "internalType": "address",
          "name": "_address",
          "type": "address"
        }
      ],
      "name": "investigatorAdded",
      "type": "event"
    },
    {
      "anonymous": false,
      "inputs": [
        {
          "indexed": false,
          "internalType": "string",
          "name": "_id",
          "type": "string"
        },
        {
          "indexed": false,
          "internalType": "address",
          "name": "_promotor",
          "type": "address"
        },
        {
          "indexed": false,
          "internalType": "address",
          "name": "_investigator",
          "type": "address"
        }
      ],
      "name": "newProtocol",
      "type": "event"
    },
    {
      "anonymous": false,
      "inputs": [
        {
          "indexed": false,
          "internalType": "string",
          "name": "_patientID",
          "type": "string"
        },
        {
          "indexed": false,
          "internalType": "string",
          "name": "_protocolID",
          "type": "string"
        }
      ],
      "name": "patientAdded",
      "type": "event"
    },
    {
      "anonymous": false,
      "inputs": [
        {
          "indexed": false,
          "internalType": "address",
          "name": "_address",
          "type": "address"
        }
      ],
      "name": "promoterAdded",
      "type": "event"
    },
    {
      "anonymous": false,
      "inputs": [
        {
          "indexed": false,
          "internalType": "string",
          "name": "_protocolID",
          "type": "string"
        }
      ],
      "name": "protocolResumed",
      "type": "event"
    },
    {
      "anonymous": false,
      "inputs": [
        {
          "indexed": false,
          "internalType": "string",
          "name": "_protocolID",
          "type": "string"
        }
      ],
      "name": "protocolSuspended",
      "type": "event"
    },
    {
      "anonymous": false,
      "inputs": [
        {
          "indexed": false,
          "internalType": "string",
          "name": "_id",
          "type": "string"
        }
      ],
      "name": "protocolValidated",
      "type": "event"
    },
    {
      "inputs": [],
      "name": "AUTHORITY",
      "outputs": [
        {
          "internalType": "bytes32",
          "name": "",
          "type": "bytes32"
        }
      ],
      "stateMutability": "view",
      "type": "function",
      "constant": true
    },
    {
      "inputs": [],
      "name": "AUTHORITY_ADMIN",
      "outputs": [
        {
          "internalType": "bytes32",
          "name": "",
          "type": "bytes32"
        }
      ],
      "stateMutability": "view",
      "type": "function",
      "constant": true
    },
    {
      "inputs": [],
      "name": "DEFAULT_ADMIN_ROLE",
      "outputs": [
        {
          "internalType": "bytes32",
          "name": "",
          "type": "bytes32"
        }
      ],
      "stateMutability": "view",
      "type": "function",
      "constant": true
    },
    {
      "inputs": [],
      "name": "INVESTIGATOR",
      "outputs": [
        {
          "internalType": "bytes32",
          "name": "",
          "type": "bytes32"
        }
      ],
      "stateMutability": "view",
      "type": "function",
      "constant": true
    },
    {
      "inputs": [],
      "name": "PATIENT",
      "outputs": [
        {
          "internalType": "bytes32",
          "name": "",
          "type": "bytes32"
        }
      ],
      "stateMutability": "view",
      "type": "function",
      "constant": true
    },
    {
      "inputs": [],
      "name": "PROMOTER",
      "outputs": [
        {
          "internalType": "bytes32",
          "name": "",
          "type": "bytes32"
        }
      ],
      "stateMutability": "view",
      "type": "function",
      "constant": true
    },
    {
      "inputs": [],
      "name": "PROMOTER_ADMIN",
      "outputs": [
        {
          "internalType": "bytes32",
          "name": "",
          "type": "bytes32"
        }
      ],
      "stateMutability": "view",
      "type": "function",
      "constant": true
    },
    {
      "inputs": [
        {
          "internalType": "uint256",
          "name": "",
          "type": "uint256"
        }
      ],
      "name": "authorities",
      "outputs": [
        {
          "internalType": "address",
          "name": "authority",
          "type": "address"
        },
        {
          "internalType": "string",
          "name": "cid",
          "type": "string"
        }
      ],
      "stateMutability": "view",
      "type": "function",
      "constant": true
    },
    {
      "inputs": [
        {
          "internalType": "bytes32",
          "name": "role",
          "type": "bytes32"
        }
      ],
      "name": "getRoleAdmin",
      "outputs": [
        {
          "internalType": "bytes32",
          "name": "",
          "type": "bytes32"
        }
      ],
      "stateMutability": "view",
      "type": "function",
      "constant": true
    },
    {
      "inputs": [
        {
          "internalType": "bytes32",
          "name": "role",
          "type": "bytes32"
        },
        {
          "internalType": "address",
          "name": "account",
          "type": "address"
        }
      ],
      "name": "grantRole",
      "outputs": [],
      "stateMutability": "nonpayable",
      "type": "function"
    },
    {
      "inputs": [
        {
          "internalType": "bytes32",
          "name": "role",
          "type": "bytes32"
        },
        {
          "internalType": "address",
          "name": "account",
          "type": "address"
        }
      ],
      "name": "hasRole",
      "outputs": [
        {
          "internalType": "bool",
          "name": "",
          "type": "bool"
        }
      ],
      "stateMutability": "view",
      "type": "function",
      "constant": true
    },
    {
      "inputs": [
        {
          "internalType": "uint256",
          "name": "",
          "type": "uint256"
        }
      ],
      "name": "investigators",
      "outputs": [
        {
          "internalType": "address",
          "name": "promoter",
          "type": "address"
        },
        {
          "internalType": "address",
          "name": "investigator",
          "type": "address"
        },
        {
          "internalType": "string",
          "name": "cid",
          "type": "string"
        }
      ],
      "stateMutability": "view",
      "type": "function",
      "constant": true
    },
    {
      "inputs": [],
      "name": "nbOfAuthorities",
      "outputs": [
        {
          "internalType": "uint256",
          "name": "",
          "type": "uint256"
        }
      ],
      "stateMutability": "view",
      "type": "function",
      "constant": true
    },
    {
      "inputs": [],
      "name": "nbOfInvestigators",
      "outputs": [
        {
          "internalType": "uint256",
          "name": "",
          "type": "uint256"
        }
      ],
      "stateMutability": "view",
      "type": "function",
      "constant": true
    },
    {
      "inputs": [],
      "name": "nbOfPatients",
      "outputs": [
        {
          "internalType": "uint256",
          "name": "",
          "type": "uint256"
        }
      ],
      "stateMutability": "view",
      "type": "function",
      "constant": true
    },
    {
      "inputs": [],
      "name": "nbOfPromoters",
      "outputs": [
        {
          "internalType": "uint256",
          "name": "",
          "type": "uint256"
        }
      ],
      "stateMutability": "view",
      "type": "function",
      "constant": true
    },
    {
      "inputs": [],
      "name": "nbOfProtocolsRegistered",
      "outputs": [
        {
          "internalType": "uint256",
          "name": "",
          "type": "uint256"
        }
      ],
      "stateMutability": "view",
      "type": "function",
      "constant": true
    },
    {
      "inputs": [
        {
          "internalType": "string",
          "name": "",
          "type": "string"
        }
      ],
      "name": "patients",
      "outputs": [
        {
          "internalType": "address",
          "name": "patient",
          "type": "address"
        },
        {
          "internalType": "address",
          "name": "investigator",
          "type": "address"
        },
        {
          "internalType": "string",
          "name": "protocolID",
          "type": "string"
        },
        {
          "internalType": "bool",
          "name": "consent",
          "type": "bool"
        }
      ],
      "stateMutability": "view",
      "type": "function",
      "constant": true
    },
    {
      "inputs": [
        {
          "internalType": "uint256",
          "name": "",
          "type": "uint256"
        }
      ],
      "name": "patientsID",
      "outputs": [
        {
          "internalType": "string",
          "name": "",
          "type": "string"
        }
      ],
      "stateMutability": "view",
      "type": "function",
      "constant": true
    },
    {
      "inputs": [
        {
          "internalType": "uint256",
          "name": "",
          "type": "uint256"
        }
      ],
      "name": "promoters",
      "outputs": [
        {
          "internalType": "address",
          "name": "promoter",
          "type": "address"
        },
        {
          "internalType": "string",
          "name": "cid",
          "type": "string"
        }
      ],
      "stateMutability": "view",
      "type": "function",
      "constant": true
    },
    {
      "inputs": [
        {
          "internalType": "string",
          "name": "",
          "type": "string"
        }
      ],
      "name": "protocols",
      "outputs": [
        {
          "internalType": "string",
          "name": "cid",
          "type": "string"
        },
        {
          "internalType": "address",
          "name": "promoter",
          "type": "address"
        },
        {
          "internalType": "string",
          "name": "status",
          "type": "string"
        },
        {
          "internalType": "address",
          "name": "investigator",
          "type": "address"
        },
        {
          "internalType": "bool",
          "name": "registered",
          "type": "bool"
        },
        {
          "internalType": "bool",
          "name": "authorized",
          "type": "bool"
        },
        {
          "internalType": "bool",
          "name": "alert",
          "type": "bool"
        },
        {
          "internalType": "uint256",
          "name": "nbOfPatients",
          "type": "uint256"
        },
        {
          "internalType": "uint256",
          "name": "index",
          "type": "uint256"
        }
      ],
      "stateMutability": "view",
      "type": "function",
      "constant": true
    },
    {
      "inputs": [
        {
          "internalType": "uint256",
          "name": "",
          "type": "uint256"
        }
      ],
      "name": "protocolsID",
      "outputs": [
        {
          "internalType": "string",
          "name": "",
          "type": "string"
        }
      ],
      "stateMutability": "view",
      "type": "function",
      "constant": true
    },
    {
      "inputs": [
        {
          "internalType": "bytes32",
          "name": "role",
          "type": "bytes32"
        },
        {
          "internalType": "address",
          "name": "account",
          "type": "address"
        }
      ],
      "name": "renounceRole",
      "outputs": [],
      "stateMutability": "nonpayable",
      "type": "function"
    },
    {
      "inputs": [
        {
          "internalType": "bytes32",
          "name": "role",
          "type": "bytes32"
        },
        {
          "internalType": "address",
          "name": "account",
          "type": "address"
        }
      ],
      "name": "revokeRole",
      "outputs": [],
      "stateMutability": "nonpayable",
      "type": "function"
    },
    {
      "inputs": [
        {
          "internalType": "bytes4",
          "name": "interfaceId",
          "type": "bytes4"
        }
      ],
      "name": "supportsInterface",
      "outputs": [
        {
          "internalType": "bool",
          "name": "",
          "type": "bool"
        }
      ],
      "stateMutability": "view",
      "type": "function",
      "constant": true
    },
    {
      "inputs": [
        {
          "internalType": "address",
          "name": "_address",
          "type": "address"
        },
        {
          "internalType": "string",
          "name": "_cid",
          "type": "string"
        }
      ],
      "name": "addAuthority",
      "outputs": [],
      "stateMutability": "nonpayable",
      "type": "function"
    },
    {
      "inputs": [
        {
          "internalType": "address",
          "name": "_address",
          "type": "address"
        },
        {
          "internalType": "string",
          "name": "_cid",
          "type": "string"
        }
      ],
      "name": "addPromoter",
      "outputs": [],
      "stateMutability": "nonpayable",
      "type": "function"
    },
    {
      "inputs": [
        {
          "internalType": "address",
          "name": "_address",
          "type": "address"
        },
        {
          "internalType": "string",
          "name": "_cid",
          "type": "string"
        }
      ],
      "name": "addInvestigator",
      "outputs": [],
      "stateMutability": "nonpayable",
      "type": "function"
    },
    {
      "inputs": [
        {
          "internalType": "string",
          "name": "_id",
          "type": "string"
        },
        {
          "internalType": "string",
          "name": "_cid",
          "type": "string"
        },
        {
          "internalType": "string",
          "name": "center",
          "type": "string"
        },
        {
          "internalType": "string",
          "name": "category",
          "type": "string"
        },
        {
          "internalType": "address",
          "name": "_investigator",
          "type": "address"
        }
      ],
      "name": "registerProtocol",
      "outputs": [],
      "stateMutability": "nonpayable",
      "type": "function"
    },
    {
      "inputs": [
        {
          "internalType": "string",
          "name": "_id",
          "type": "string"
        }
      ],
      "name": "getProtocolCID",
      "outputs": [
        {
          "internalType": "string",
          "name": "",
          "type": "string"
        }
      ],
      "stateMutability": "view",
      "type": "function",
      "constant": true
    },
    {
      "inputs": [
        {
          "internalType": "string",
          "name": "_id",
          "type": "string"
        }
      ],
      "name": "validateProtocol",
      "outputs": [],
      "stateMutability": "nonpayable",
      "type": "function"
    },
    {
      "inputs": [
        {
          "internalType": "string",
          "name": "_id",
          "type": "string"
        }
      ],
      "name": "getProtocol",
      "outputs": [
        {
          "components": [
            {
              "internalType": "string",
              "name": "cid",
              "type": "string"
            },
            {
              "internalType": "address",
              "name": "promoter",
              "type": "address"
            },
            {
              "internalType": "string",
              "name": "status",
              "type": "string"
            },
            {
              "internalType": "address",
              "name": "investigator",
              "type": "address"
            },
            {
              "internalType": "bool",
              "name": "registered",
              "type": "bool"
            },
            {
              "internalType": "bool",
              "name": "authorized",
              "type": "bool"
            },
            {
              "internalType": "bool",
              "name": "alert",
              "type": "bool"
            },
            {
              "internalType": "uint256",
              "name": "nbOfPatients",
              "type": "uint256"
            },
            {
              "internalType": "uint256",
              "name": "index",
              "type": "uint256"
            }
          ],
          "internalType": "struct MedTrials.Protocol",
          "name": "",
          "type": "tuple"
        }
      ],
      "stateMutability": "view",
      "type": "function",
      "constant": true
    },
    {
      "inputs": [
        {
          "internalType": "string",
          "name": "_cid",
          "type": "string"
        },
        {
          "internalType": "string",
          "name": "_patientID",
          "type": "string"
        },
        {
          "internalType": "string",
          "name": "_protocolID",
          "type": "string"
        },
        {
          "internalType": "address",
          "name": "_patientAddress",
          "type": "address"
        }
      ],
      "name": "addPatient",
      "outputs": [],
      "stateMutability": "nonpayable",
      "type": "function"
    },
    {
      "inputs": [
        {
          "internalType": "string",
          "name": "_patientID",
          "type": "string"
        },
        {
          "internalType": "string",
          "name": "_protocolID",
          "type": "string"
        },
        {
          "internalType": "address",
          "name": "_address",
          "type": "address"
        }
      ],
      "name": "revokeConsent",
      "outputs": [],
      "stateMutability": "nonpayable",
      "type": "function"
    },
    {
      "inputs": [
        {
          "internalType": "string",
          "name": "_protocolID",
          "type": "string"
        }
      ],
      "name": "suspendTrials",
      "outputs": [],
      "stateMutability": "nonpayable",
      "type": "function"
    },
    {
      "inputs": [
        {
          "internalType": "string",
          "name": "_protocolID",
          "type": "string"
        }
      ],
      "name": "resumeTrials",
      "outputs": [],
      "stateMutability": "nonpayable",
      "type": "function"
    },
    {
      "inputs": [
        {
          "internalType": "string",
          "name": "_patientID",
          "type": "string"
        },
        {
          "internalType": "string",
          "name": "_cid",
          "type": "string"
        },
        {
          "internalType": "uint256",
          "name": "_alert",
          "type": "uint256"
        }
      ],
      "name": "storeDataCID",
      "outputs": [],
      "stateMutability": "nonpayable",
      "type": "function"
    },
    {
      "inputs": [
        {
          "internalType": "string",
          "name": "_patientID",
          "type": "string"
        }
      ],
      "name": "getDataCID",
      "outputs": [
        {
          "internalType": "string[]",
          "name": "",
          "type": "string[]"
        }
      ],
      "stateMutability": "view",
      "type": "function",
      "constant": true
    },
    {
      "inputs": [
        {
          "internalType": "string",
          "name": "_protocolID",
          "type": "string"
        }
      ],
      "name": "getProtocolStatus",
      "outputs": [
        {
          "internalType": "string",
          "name": "",
          "type": "string"
        }
      ],
      "stateMutability": "view",
      "type": "function",
      "constant": true
    },
    {
      "inputs": [
        {
          "internalType": "address",
          "name": "_address",
          "type": "address"
        }
      ],
      "name": "getRole",
      "outputs": [
        {
          "internalType": "string",
          "name": "",
          "type": "string"
        }
      ],
      "stateMutability": "view",
      "type": "function",
      "constant": true
    },
    {
      "inputs": [
        {
          "internalType": "string",
          "name": "center",
          "type": "string"
        },
        {
          "internalType": "string",
          "name": "category",
          "type": "string"
        }
      ],
      "name": "getProtocoleNumerotation",
      "outputs": [
        {
          "internalType": "uint256",
          "name": "",
          "type": "uint256"
        }
      ],
      "stateMutability": "view",
      "type": "function",
      "constant": true
    },
    {
      "inputs": [
        {
          "internalType": "string",
          "name": "_protocolID",
          "type": "string"
        }
      ],
      "name": "getPatientNumerotation",
      "outputs": [
        {
          "internalType": "uint256",
          "name": "",
          "type": "uint256"
        }
      ],
      "stateMutability": "view",
      "type": "function",
      "constant": true
    }
  ],
  "bytecode": "0x60806040523480156200001157600080fd5b5060405162006267380380620062678339818101604052810190620000379190620007da565b6200004c6000801b846200039660201b60201c565b620000817f3e206be88d1de4207c0189003e17add3718b1a1bf78910a785940577239bbdae6000801b620003ac60201b60201c565b620000d37f843b48dccc6ff192f9330133622b0536f7b94feca0cf36e7e46fc50060b6f8827f3e206be88d1de4207c0189003e17add3718b1a1bf78910a785940577239bbdae620003ac60201b60201c565b620001087f47a6ab365f603cf120cb936195de17fd0bac3880ff606e7a0edb5e8e6580b1ae6000801b620003ac60201b60201c565b6200015a7f0996d044c7309cb5a01d79c18ee9e4c86aca84367cbd5bfd5f5d0606acc992737f47a6ab365f603cf120cb936195de17fd0bac3880ff606e7a0edb5e8e6580b1ae620003ac60201b60201c565b620001ac7f97f21e7273917267af1fea4c3510695aa29abe57349ce57ceec11b34688318037f0996d044c7309cb5a01d79c18ee9e4c86aca84367cbd5bfd5f5d0606acc99273620003ac60201b60201c565b620001fe7fe5786ee6f50ab1a5567cb3f3f6840a2f4ddbafdf4a35cb2c52d5b732b1e84a327f97f21e7273917267af1fea4c3510695aa29abe57349ce57ceec11b3468831803620003ac60201b60201c565b620002307f3e206be88d1de4207c0189003e17add3718b1a1bf78910a785940577239bbdae836200039660201b60201c565b620002627f47a6ab365f603cf120cb936195de17fd0bac3880ff606e7a0edb5e8e6580b1ae826200039660201b60201c565b620002776000801b846200040960201b60201c565b6040518060400160405280600f81526020017f415554484f524954592041444d494e0000000000000000000000000000000000815250600860008473ffffffffffffffffffffffffffffffffffffffff1673ffffffffffffffffffffffffffffffffffffffff16815260200190815260200160002090805190602001906200030192919062000713565b506040518060400160405280600e81526020017f50524f4d4f5445522041444d494e000000000000000000000000000000000000815250600860008373ffffffffffffffffffffffffffffffffffffffff1673ffffffffffffffffffffffffffffffffffffffff16815260200190815260200160002090805190602001906200038c92919062000713565b505050506200098c565b620003a882826200049f60201b60201c565b5050565b80620003be836200059060201b60201c565b837fbd79b86ffe0ab8e8776151514217cd7cacd52c909f66475c3af44e129f0b00ff60405160405180910390a480600080848152602001908152602001600020600101819055505050565b62000419620005af60201b60201c565b73ffffffffffffffffffffffffffffffffffffffff168173ffffffffffffffffffffffffffffffffffffffff161462000489576040517f08c379a0000000000000000000000000000000000000000000000000000000008152600401620004809062000857565b60405180910390fd5b6200049b8282620005b760201b60201c565b5050565b620004b18282620006a960201b60201c565b6200058c57600160008084815260200190815260200160002060000160008373ffffffffffffffffffffffffffffffffffffffff1673ffffffffffffffffffffffffffffffffffffffff16815260200190815260200160002060006101000a81548160ff02191690831515021790555062000531620005af60201b60201c565b73ffffffffffffffffffffffffffffffffffffffff168173ffffffffffffffffffffffffffffffffffffffff16837f2f8788117e7eff1d82e926ec794901d17c78024a50270940304540a733656f0d60405160405180910390a45b5050565b6000806000838152602001908152602001600020600101549050919050565b600033905090565b620005c98282620006a960201b60201c565b15620006a557600080600084815260200190815260200160002060000160008373ffffffffffffffffffffffffffffffffffffffff1673ffffffffffffffffffffffffffffffffffffffff16815260200190815260200160002060006101000a81548160ff0219169083151502179055506200064a620005af60201b60201c565b73ffffffffffffffffffffffffffffffffffffffff168173ffffffffffffffffffffffffffffffffffffffff16837ff6391f5c32d9c69d2a47ea670b442974b53935d1edc7fd64eb21e047a839171b60405160405180910390a45b5050565b600080600084815260200190815260200160002060000160008373ffffffffffffffffffffffffffffffffffffffff1673ffffffffffffffffffffffffffffffffffffffff16815260200190815260200160002060009054906101000a900460ff16905092915050565b8280546200072190620008be565b90600052602060002090601f01602090048101928262000745576000855562000791565b82601f106200076057805160ff191683800117855562000791565b8280016001018555821562000791579182015b828111156200079057825182559160200191906001019062000773565b5b509050620007a09190620007a4565b5090565b5b80821115620007bf576000816000905550600101620007a5565b5090565b600081519050620007d48162000972565b92915050565b600080600060608486031215620007f057600080fd5b60006200080086828701620007c3565b93505060206200081386828701620007c3565b92505060406200082686828701620007c3565b9150509250925092565b60006200083f602f8362000879565b91506200084c8262000923565b604082019050919050565b60006020820190508181036000830152620008728162000830565b9050919050565b600082825260208201905092915050565b600062000897826200089e565b9050919050565b600073ffffffffffffffffffffffffffffffffffffffff82169050919050565b60006002820490506001821680620008d757607f821691505b60208210811415620008ee57620008ed620008f4565b5b50919050565b7f4e487b7100000000000000000000000000000000000000000000000000000000600052602260045260246000fd5b7f416363657373436f6e74726f6c3a2063616e206f6e6c792072656e6f756e636560008201527f20726f6c657320666f722073656c660000000000000000000000000000000000602082015250565b6200097d816200088a565b81146200098957600080fd5b50565b6158cb806200099c6000396000f3fe608060405234801561001057600080fd5b506004361061025e5760003560e01c8063834afa8111610146578063cd5c3b2b116100c3578063eac9dcae11610087578063eac9dcae1461079e578063eb3b0fc8146107ba578063ebc48391146107ec578063ec9f4bda1461080a578063f7f093b614610828578063fad4fcc7146108585761025e565b8063cd5c3b2b146106e6578063cf2a9a9314610716578063d547741f14610734578063d751b15014610750578063e1d862d9146107805761025e565b8063b040c7c41161010a578063b040c7c41461062b578063b62f9c7414610647578063c1bd2c2014610665578063c4f3983014610683578063c6009d84146106b35761025e565b8063834afa811461058557806389fcd796146105a357806391d14854146105c1578063a1a8316b146105f1578063a217fddf1461060d5761025e565b8063393618a7116101df578063494503d4116101a3578063494503d41461049e578063591fe6da146104cf5780635e49bdaf146104ed5780637992fd37146105095780637ba3ae71146105255780637beb4107146105555761025e565b8063393618a7146103d55780633ca1d75f146103f15780633f0bee321461040d57806343913c5b1461043e578063442767331461046e5761025e565b8063248a9ca311610226578063248a9ca3146103355780632de6388f146103655780632f2ff15d146103815780632f77e62f1461039d57806336568abe146103b95761025e565b806301ffc9a714610263578063090c63301461029357806309c1ce8b146102c35780631dae9454146102df5780631f50006114610317575b600080fd5b61027d60048036038101906102789190613d6d565b610876565b60405161028a9190614852565b60405180910390f35b6102ad60048036038101906102a891906140c3565b6108f0565b6040516102ba9190614888565b60405180910390f35b6102dd60048036038101906102d89190613f6d565b610990565b005b6102f960048036038101906102f49190613d96565b610f0f565b60405161030e999897969594939291906148e8565b60405180910390f35b61031f6110ea565b60405161032c919061486d565b60405180910390f35b61034f600480360381019061034a9190613d08565b61110e565b60405161035c919061486d565b60405180910390f35b61037f600480360381019061037a9190613d96565b61112d565b005b61039b60048036038101906103969190613d31565b611275565b005b6103b760048036038101906103b29190613d96565b6112db565b005b6103d360048036038101906103ce9190613d31565b611490565b005b6103ef60048036038101906103ea9190613cb4565b611513565b005b61040b60048036038101906104069190613cb4565b611918565b005b610427600480360381019061042291906140c3565b611d1d565b604051610435929190614800565b60405180910390f35b61045860048036038101906104539190613d96565b611de9565b6040516104659190614d7c565b60405180910390f35b61048860048036038101906104839190613c8b565b611e5a565b6040516104959190614888565b60405180910390f35b6104b860048036038101906104b391906140c3565b611f2b565b6040516104c6929190614800565b60405180910390f35b6104d7611ff7565b6040516104e4919061486d565b60405180910390f35b61050760048036038101906105029190613cb4565b61201b565b005b610523600480360381019061051e9190613ec2565b612477565b005b61053f600480360381019061053a9190613d96565b612978565b60405161054c9190614888565b60405180910390f35b61056f600480360381019061056a9190613d96565b612a2b565b60405161057c9190614d5a565b60405180910390f35b61058d612c99565b60405161059a9190614d7c565b60405180910390f35b6105ab612c9f565b6040516105b8919061486d565b60405180910390f35b6105db60048036038101906105d69190613d31565b612cc3565b6040516105e89190614852565b60405180910390f35b61060b60048036038101906106069190613d96565b612d2d565b005b610615612ea6565b604051610622919061486d565b60405180910390f35b61064560048036038101906106409190614044565b612ead565b005b61064f6130db565b60405161065c9190614d7c565b60405180910390f35b61066d6130e1565b60405161067a919061486d565b60405180910390f35b61069d60048036038101906106989190613dd7565b613105565b6040516106aa9190614d7c565b60405180910390f35b6106cd60048036038101906106c89190613d96565b613156565b6040516106dd94939291906147b4565b60405180910390f35b61070060048036038101906106fb91906140c3565b613271565b60405161070d9190614888565b60405180910390f35b61071e613311565b60405161072b919061486d565b60405180910390f35b61074e60048036038101906107499190613d31565b613335565b005b61076a60048036038101906107659190613d96565b61339b565b6040516107779190614888565b60405180910390f35b61078861344e565b6040516107959190614d7c565b60405180910390f35b6107b860048036038101906107b39190613e43565b613454565b005b6107d460048036038101906107cf91906140c3565b6135c5565b6040516107e393929190614776565b60405180910390f35b6107f46136b7565b6040516108019190614d7c565b60405180910390f35b6108126136bd565b60405161081f919061486d565b60405180910390f35b610842600480360381019061083d9190613d96565b6136e1565b60405161084f9190614830565b60405180910390f35b610860613875565b60405161086d9190614d7c565b60405180910390f35b60007f7965db0b000000000000000000000000000000000000000000000000000000007bffffffffffffffffffffffffffffffffffffffffffffffffffffffff1916827bffffffffffffffffffffffffffffffffffffffffffffffffffffffff191614806108e957506108e88261387b565b5b9050919050565b6004602052806000526040600020600091509050805461090f90614f9e565b80601f016020809104026020016040519081016040528092919081815260200182805461093b90614f9e565b80156109885780601f1061095d57610100808354040283529160200191610988565b820191906000526020600020905b81548152906001019060200180831161096b57829003601f168201915b505050505081565b6109ba7f0996d044c7309cb5a01d79c18ee9e4c86aca84367cbd5bfd5f5d0606acc9927333612cc3565b6109f9576040517f08c379a00000000000000000000000000000000000000000000000000000000081526004016109f090614bba565b60405180910390fd5b610a237f0996d044c7309cb5a01d79c18ee9e4c86aca84367cbd5bfd5f5d0606acc9927382612cc3565b15610a63576040517f08c379a0000000000000000000000000000000000000000000000000000000008152600401610a5a90614c7a565b60405180910390fd5b610a8d7f843b48dccc6ff192f9330133622b0536f7b94feca0cf36e7e46fc50060b6f88282612cc3565b15610acd576040517f08c379a0000000000000000000000000000000000000000000000000000000008152600401610ac490614cda565b60405180910390fd5b610af77f47a6ab365f603cf120cb936195de17fd0bac3880ff606e7a0edb5e8e6580b1ae82612cc3565b15610b37576040517f08c379a0000000000000000000000000000000000000000000000000000000008152600401610b2e90614a7a565b60405180910390fd5b610b617f3e206be88d1de4207c0189003e17add3718b1a1bf78910a785940577239bbdae82612cc3565b15610ba1576040517f08c379a0000000000000000000000000000000000000000000000000000000008152600401610b9890614b1a565b60405180910390fd5b610bcb7f97f21e7273917267af1fea4c3510695aa29abe57349ce57ceec11b346883180382612cc3565b610c0a576040517f08c379a0000000000000000000000000000000000000000000000000000000008152600401610c0190614c5a565b60405180910390fd5b600185604051610c1a9190614744565b908152602001604051809103902060030160149054906101000a900460ff1615610c79576040517f08c379a0000000000000000000000000000000000000000000000000000000008152600401610c7090614cba565b60405180910390fd5b33600186604051610c8a9190614744565b908152602001604051809103902060010160006101000a81548173ffffffffffffffffffffffffffffffffffffffff021916908373ffffffffffffffffffffffffffffffffffffffff16021790555080600186604051610cea9190614744565b908152602001604051809103902060030160006101000a81548173ffffffffffffffffffffffffffffffffffffffff021916908373ffffffffffffffffffffffffffffffffffffffff16021790555060018086604051610d4a9190614744565b908152602001604051809103902060030160146101000a81548160ff02191690831515021790555083600186604051610d839190614744565b90815260200160405180910390206000019080519060200190610da7929190613aae565b506040518060400160405280600a81526020017f7265676973746572656400000000000000000000000000000000000000000000815250600186604051610dee9190614744565b90815260200160405180910390206002019080519060200190610e12929190613aae565b50600b54600186604051610e269190614744565b9081526020016040518091039020600501819055508460036000600b5481526020019081526020016000209080519060200190610e64929190613aae565b50600b6000815480929190610e7890615001565b9190505550600983604051610e8d9190614744565b908152602001604051809103902082604051610ea99190614744565b90815260200160405180910390206000815480929190610ec890615001565b91905055507fff88452d1e63b10e4f05e166bed6696de7594668e0e30daf24839937a0a27fee853383604051610f00939291906148aa565b60405180910390a15050505050565b600181805160208101820180518482526020830160208501208183528095505050505050600091509050806000018054610f4890614f9e565b80601f0160208091040260200160405190810160405280929190818152602001828054610f7490614f9e565b8015610fc15780601f10610f9657610100808354040283529160200191610fc1565b820191906000526020600020905b815481529060010190602001808311610fa457829003601f168201915b5050505050908060010160009054906101000a900473ffffffffffffffffffffffffffffffffffffffff1690806002018054610ffc90614f9e565b80601f016020809104026020016040519081016040528092919081815260200182805461102890614f9e565b80156110755780601f1061104a57610100808354040283529160200191611075565b820191906000526020600020905b81548152906001019060200180831161105857829003601f168201915b5050505050908060030160009054906101000a900473ffffffffffffffffffffffffffffffffffffffff16908060030160149054906101000a900460ff16908060030160159054906101000a900460ff16908060030160169054906101000a900460ff16908060040154908060050154905089565b7fe5786ee6f50ab1a5567cb3f3f6840a2f4ddbafdf4a35cb2c52d5b732b1e84a3281565b6000806000838152602001908152602001600020600101549050919050565b6111577f843b48dccc6ff192f9330133622b0536f7b94feca0cf36e7e46fc50060b6f88233612cc3565b611196576040517f08c379a000000000000000000000000000000000000000000000000000000000815260040161118d90614ada565b60405180910390fd5b60006001826040516111a89190614744565b908152602001604051809103902060030160166101000a81548160ff0219169083151502179055506040518060400160405280600781526020017f726573756d6564000000000000000000000000000000000000000000000000008152506001826040516112169190614744565b9081526020016040518091039020600201908051906020019061123a929190613aae565b507fd1c688ddb9e9baabcd8e5f84a85f4933173bc6600b2f361087b41cd9304e29208160405161126a9190614888565b60405180910390a150565b61128e6112818361110e565b6112896138e5565b612cc3565b6112cd576040517f08c379a00000000000000000000000000000000000000000000000000000000081526004016112c4906149fa565b60405180910390fd5b6112d782826138ed565b5050565b6113057f843b48dccc6ff192f9330133622b0536f7b94feca0cf36e7e46fc50060b6f88233612cc3565b611344576040517f08c379a000000000000000000000000000000000000000000000000000000000815260040161133b90614a1a565b60405180910390fd5b6001816040516113549190614744565b908152602001604051809103902060030160159054906101000a900460ff166113b2576040517f08c379a00000000000000000000000000000000000000000000000000000000081526004016113a990614a5a565b60405180910390fd5b600180826040516113c39190614744565b908152602001604051809103902060030160166101000a81548160ff0219169083151502179055506040518060400160405280600981526020017f73757370656e64656400000000000000000000000000000000000000000000008152506001826040516114319190614744565b90815260200160405180910390206002019080519060200190611455929190613aae565b507fb9f86d562ae4d5d427f505b81f74024716097f50538bc3d5a16f0716ca399559816040516114859190614888565b60405180910390a150565b6114986138e5565b73ffffffffffffffffffffffffffffffffffffffff168173ffffffffffffffffffffffffffffffffffffffff1614611505576040517f08c379a00000000000000000000000000000000000000000000000000000000081526004016114fc90614d1a565b60405180910390fd5b61150f82826139cd565b5050565b61153d7f47a6ab365f603cf120cb936195de17fd0bac3880ff606e7a0edb5e8e6580b1ae33612cc3565b61157c576040517f08c379a000000000000000000000000000000000000000000000000000000000815260040161157390614a9a565b60405180910390fd5b6115a67f0996d044c7309cb5a01d79c18ee9e4c86aca84367cbd5bfd5f5d0606acc9927383612cc3565b156115e6576040517f08c379a00000000000000000000000000000000000000000000000000000000081526004016115dd90614bda565b60405180910390fd5b6116107f97f21e7273917267af1fea4c3510695aa29abe57349ce57ceec11b346883180383612cc3565b15611650576040517f08c379a000000000000000000000000000000000000000000000000000000000815260040161164790614a3a565b60405180910390fd5b61167a7f843b48dccc6ff192f9330133622b0536f7b94feca0cf36e7e46fc50060b6f88283612cc3565b156116ba576040517f08c379a00000000000000000000000000000000000000000000000000000000081526004016116b190614b9a565b60405180910390fd5b6116e47f47a6ab365f603cf120cb936195de17fd0bac3880ff606e7a0edb5e8e6580b1ae83612cc3565b15611724576040517f08c379a000000000000000000000000000000000000000000000000000000000815260040161171b90614d3a565b60405180910390fd5b61174e7f3e206be88d1de4207c0189003e17add3718b1a1bf78910a785940577239bbdae83612cc3565b1561178e576040517f08c379a0000000000000000000000000000000000000000000000000000000008152600401611785906149ba565b60405180910390fd5b6117b87f0996d044c7309cb5a01d79c18ee9e4c86aca84367cbd5bfd5f5d0606acc9927383611275565b6040518060400160405280600881526020017f50524f4d4f544552000000000000000000000000000000000000000000000000815250600860008473ffffffffffffffffffffffffffffffffffffffff1673ffffffffffffffffffffffffffffffffffffffff1681526020019081526020016000209080519060200190611840929190613aae565b508060056000600d548152602001908152602001600020600101908051906020019061186d929190613aae565b508160056000600d54815260200190815260200160002060000160006101000a81548173ffffffffffffffffffffffffffffffffffffffff021916908373ffffffffffffffffffffffffffffffffffffffff160217905550600d60008154809291906118d890615001565b91905055507f786ebfd921e487d94a7dbf555edf33e5f264f7b59acdcdfe139c08f48f0755598260405161190c919061475b565b60405180910390a15050565b6119427f3e206be88d1de4207c0189003e17add3718b1a1bf78910a785940577239bbdae33612cc3565b611981576040517f08c379a0000000000000000000000000000000000000000000000000000000008152600401611978906149da565b60405180910390fd5b6119ab7f843b48dccc6ff192f9330133622b0536f7b94feca0cf36e7e46fc50060b6f88283612cc3565b156119eb576040517f08c379a00000000000000000000000000000000000000000000000000000000081526004016119e290614b7a565b60405180910390fd5b611a157f0996d044c7309cb5a01d79c18ee9e4c86aca84367cbd5bfd5f5d0606acc9927383612cc3565b15611a55576040517f08c379a0000000000000000000000000000000000000000000000000000000008152600401611a4c90614c9a565b60405180910390fd5b611a7f7f97f21e7273917267af1fea4c3510695aa29abe57349ce57ceec11b346883180383612cc3565b15611abf576040517f08c379a0000000000000000000000000000000000000000000000000000000008152600401611ab690614a3a565b60405180910390fd5b611ae97f47a6ab365f603cf120cb936195de17fd0bac3880ff606e7a0edb5e8e6580b1ae83612cc3565b15611b29576040517f08c379a0000000000000000000000000000000000000000000000000000000008152600401611b2090614d3a565b60405180910390fd5b611b537f3e206be88d1de4207c0189003e17add3718b1a1bf78910a785940577239bbdae83612cc3565b15611b93576040517f08c379a0000000000000000000000000000000000000000000000000000000008152600401611b8a906149ba565b60405180910390fd5b611bbd7f843b48dccc6ff192f9330133622b0536f7b94feca0cf36e7e46fc50060b6f88283611275565b6040518060400160405280600981526020017f415554484f524954590000000000000000000000000000000000000000000000815250600860008473ffffffffffffffffffffffffffffffffffffffff1673ffffffffffffffffffffffffffffffffffffffff1681526020019081526020016000209080519060200190611c45929190613aae565b508060076000600f5481526020019081526020016000206001019080519060200190611c72929190613aae565b508160076000600f54815260200190815260200160002060000160006101000a81548173ffffffffffffffffffffffffffffffffffffffff021916908373ffffffffffffffffffffffffffffffffffffffff160217905550600f6000815480929190611cdd90615001565b91905055507f3c0aee07d693a6f94b1a6aca6097bdde55429f0834eb9c27e3c31a03081f09b482604051611d11919061475b565b60405180910390a15050565b60056020528060005260406000206000915090508060000160009054906101000a900473ffffffffffffffffffffffffffffffffffffffff1690806001018054611d6690614f9e565b80601f0160208091040260200160405190810160405280929190818152602001828054611d9290614f9e565b8015611ddf5780601f10611db457610100808354040283529160200191611ddf565b820191906000526020600020905b815481529060010190602001808311611dc257829003601f168201915b5050505050905082565b60006001600a60003373ffffffffffffffffffffffffffffffffffffffff1673ffffffffffffffffffffffffffffffffffffffff16815260200190815260200160002083604051611e3a9190614744565b908152602001604051809103902054611e539190614e5e565b9050919050565b6060600860008373ffffffffffffffffffffffffffffffffffffffff1673ffffffffffffffffffffffffffffffffffffffff1681526020019081526020016000208054611ea690614f9e565b80601f0160208091040260200160405190810160405280929190818152602001828054611ed290614f9e565b8015611f1f5780601f10611ef457610100808354040283529160200191611f1f565b820191906000526020600020905b815481529060010190602001808311611f0257829003601f168201915b50505050509050919050565b60076020528060005260406000206000915090508060000160009054906101000a900473ffffffffffffffffffffffffffffffffffffffff1690806001018054611f7490614f9e565b80601f0160208091040260200160405190810160405280929190818152602001828054611fa090614f9e565b8015611fed5780601f10611fc257610100808354040283529160200191611fed565b820191906000526020600020905b815481529060010190602001808311611fd057829003601f168201915b5050505050905082565b7f3e206be88d1de4207c0189003e17add3718b1a1bf78910a785940577239bbdae81565b6120457f0996d044c7309cb5a01d79c18ee9e4c86aca84367cbd5bfd5f5d0606acc9927333612cc3565b612084576040517f08c379a000000000000000000000000000000000000000000000000000000000815260040161207b90614b5a565b60405180910390fd5b6120ae7f97f21e7273917267af1fea4c3510695aa29abe57349ce57ceec11b346883180383612cc3565b156120ee576040517f08c379a00000000000000000000000000000000000000000000000000000000081526004016120e590614c3a565b60405180910390fd5b6121187f0996d044c7309cb5a01d79c18ee9e4c86aca84367cbd5bfd5f5d0606acc9927383612cc3565b15612158576040517f08c379a000000000000000000000000000000000000000000000000000000000815260040161214f90614c9a565b60405180910390fd5b6121827f843b48dccc6ff192f9330133622b0536f7b94feca0cf36e7e46fc50060b6f88283612cc3565b156121c2576040517f08c379a00000000000000000000000000000000000000000000000000000000081526004016121b990614b9a565b60405180910390fd5b6121ec7f47a6ab365f603cf120cb936195de17fd0bac3880ff606e7a0edb5e8e6580b1ae83612cc3565b1561222c576040517f08c379a000000000000000000000000000000000000000000000000000000000815260040161222390614d3a565b60405180910390fd5b6122567f3e206be88d1de4207c0189003e17add3718b1a1bf78910a785940577239bbdae83612cc3565b15612296576040517f08c379a000000000000000000000000000000000000000000000000000000000815260040161228d906149ba565b60405180910390fd5b6122c07f97f21e7273917267af1fea4c3510695aa29abe57349ce57ceec11b346883180383611275565b6040518060400160405280600c81526020017f494e56455354494741544f520000000000000000000000000000000000000000815250600860008473ffffffffffffffffffffffffffffffffffffffff1673ffffffffffffffffffffffffffffffffffffffff1681526020019081526020016000209080519060200190612348929190613aae565b508060066000600e5481526020019081526020016000206002019080519060200190612375929190613aae565b503360066000600e54815260200190815260200160002060000160006101000a81548173ffffffffffffffffffffffffffffffffffffffff021916908373ffffffffffffffffffffffffffffffffffffffff1602179055508160066000600e54815260200190815260200160002060010160006101000a81548173ffffffffffffffffffffffffffffffffffffffff021916908373ffffffffffffffffffffffffffffffffffffffff160217905550600e600081548092919061243790615001565b91905055507fe8418412d360af43b959e2ca49b9ad98feb77e7b5597963ca346077db47d69ba8260405161246b919061475b565b60405180910390a15050565b6001151560018360405161248b9190614744565b908152602001604051809103902060030160159054906101000a900460ff161515146124ec576040517f08c379a00000000000000000000000000000000000000000000000000000000081526004016124e390614afa565b60405180910390fd5b600015156001836040516125009190614744565b908152602001604051809103902060030160169054906101000a900460ff16151514612561576040517f08c379a000000000000000000000000000000000000000000000000000000000815260040161255890614c1a565b60405180910390fd5b6002836040516125719190614744565b908152602001604051809103902060000160009054906101000a900473ffffffffffffffffffffffffffffffffffffffff1673ffffffffffffffffffffffffffffffffffffffff168173ffffffffffffffffffffffffffffffffffffffff161415612611576040517f08c379a000000000000000000000000000000000000000000000000000000000815260040161260890614bfa565b60405180910390fd5b60016002846040516126239190614744565b908152602001604051809103902060040160006101000a81548160ff0219169083151502179055508060028460405161265c9190614744565b908152602001604051809103902060000160006101000a81548173ffffffffffffffffffffffffffffffffffffffff021916908373ffffffffffffffffffffffffffffffffffffffff160217905550336002846040516126bc9190614744565b908152602001604051809103902060010160006101000a81548173ffffffffffffffffffffffffffffffffffffffff021916908373ffffffffffffffffffffffffffffffffffffffff1602179055508160028460405161271c9190614744565b90815260200160405180910390206002019080519060200190612740929190613aae565b506001826040516127519190614744565b9081526020016040518091039020600401600081548092919061277390615001565b91905055506002836040516127889190614744565b9081526020016040518091039020600301849080600181540180825580915050600190039060005260206000200160009091909190915090805190602001906127d2929190613aae565b508260046000600c54815260200190815260200160002090805190602001906127fc929190613aae565b50600a60003373ffffffffffffffffffffffffffffffffffffffff1673ffffffffffffffffffffffffffffffffffffffff1681526020019081526020016000208260405161284a9190614744565b9081526020016040518091039020600081548092919061286990615001565b9190505550600c600081548092919061288190615001565b91905055506128b07fe5786ee6f50ab1a5567cb3f3f6840a2f4ddbafdf4a35cb2c52d5b732b1e84a3282611275565b6040518060400160405280600781526020017f50415449454e5400000000000000000000000000000000000000000000000000815250600860008373ffffffffffffffffffffffffffffffffffffffff1673ffffffffffffffffffffffffffffffffffffffff1681526020019081526020016000209080519060200190612938929190613aae565b507f76b4f38e7ada56c131a0c796e7382093d7b5a69175ca0bf513f5827f60f5314d838360405161296a929190614983565b60405180910390a150505050565b606060018260405161298a9190614744565b908152602001604051809103902060000180546129a690614f9e565b80601f01602080910402602001604051908101604052809291908181526020018280546129d290614f9e565b8015612a1f5780601f106129f457610100808354040283529160200191612a1f565b820191906000526020600020905b815481529060010190602001808311612a0257829003601f168201915b50505050509050919050565b612a33613b34565b600182604051612a439190614744565b908152602001604051809103902060405180610120016040529081600082018054612a6d90614f9e565b80601f0160208091040260200160405190810160405280929190818152602001828054612a9990614f9e565b8015612ae65780601f10612abb57610100808354040283529160200191612ae6565b820191906000526020600020905b815481529060010190602001808311612ac957829003601f168201915b505050505081526020016001820160009054906101000a900473ffffffffffffffffffffffffffffffffffffffff1673ffffffffffffffffffffffffffffffffffffffff1673ffffffffffffffffffffffffffffffffffffffff168152602001600282018054612b5590614f9e565b80601f0160208091040260200160405190810160405280929190818152602001828054612b8190614f9e565b8015612bce5780601f10612ba357610100808354040283529160200191612bce565b820191906000526020600020905b815481529060010190602001808311612bb157829003601f168201915b505050505081526020016003820160009054906101000a900473ffffffffffffffffffffffffffffffffffffffff1673ffffffffffffffffffffffffffffffffffffffff1673ffffffffffffffffffffffffffffffffffffffff1681526020016003820160149054906101000a900460ff161515151581526020016003820160159054906101000a900460ff161515151581526020016003820160169054906101000a900460ff16151515158152602001600482015481526020016005820154815250509050919050565b600c5481565b7f843b48dccc6ff192f9330133622b0536f7b94feca0cf36e7e46fc50060b6f88281565b600080600084815260200190815260200160002060000160008373ffffffffffffffffffffffffffffffffffffffff1673ffffffffffffffffffffffffffffffffffffffff16815260200190815260200160002060009054906101000a900460ff16905092915050565b612d577f843b48dccc6ff192f9330133622b0536f7b94feca0cf36e7e46fc50060b6f88233612cc3565b612d96576040517f08c379a0000000000000000000000000000000000000000000000000000000008152600401612d8d90614cfa565b60405180910390fd5b60018082604051612da79190614744565b908152602001604051809103902060030160156101000a81548160ff0219169083151502179055506040518060400160405280600981526020017f76616c6964617465640000000000000000000000000000000000000000000000815250600182604051612e159190614744565b90815260200160405180910390206002019080519060200190612e39929190613aae565b5060001515600182604051612e4e9190614744565b908152602001604051809103902060030160169054906101000a905050507fbc0e66a9d9a6660141870110fa7932ebb7fe171d5e52ee9a42674665105f1d1b81604051612e9b9190614888565b60405180910390a150565b6000801b81565b600283604051612ebd9190614744565b908152602001604051809103902060030182908060018154018082558091505060019003906000526020600020016000909190919091509080519060200190612f07929190613aae565b50600181141561309f576000600284604051612f239190614744565b90815260200160405180910390206002018054612f3f90614f9e565b80601f0160208091040260200160405190810160405280929190818152602001828054612f6b90614f9e565b8015612fb85780601f10612f8d57610100808354040283529160200191612fb8565b820191906000526020600020905b815481529060010190602001808311612f9b57829003601f168201915b5050505050905060018082604051612fd09190614744565b908152602001604051809103902060030160166101000a81548160ff021916908315150217905550600060018260405161300a9190614744565b908152602001604051809103902060030160156101000a81548160ff0219169083151502179055506040518060400160405280600981526020017f73757370656e64656400000000000000000000000000000000000000000000008152506001826040516130789190614744565b9081526020016040518091039020600201908051906020019061309c929190613aae565b50505b7f2fd00fee6fba014584e65a085e3eb131b03ff5c389c44c3cf9e857d52c1650d6826040516130ce9190614888565b60405180910390a1505050565b600f5481565b7f47a6ab365f603cf120cb936195de17fd0bac3880ff606e7a0edb5e8e6580b1ae81565b600060016009846040516131199190614744565b9081526020016040518091039020836040516131359190614744565b90815260200160405180910390205461314e9190614e5e565b905092915050565b6002818051602081018201805184825260208301602085012081835280955050505050506000915090508060000160009054906101000a900473ffffffffffffffffffffffffffffffffffffffff16908060010160009054906101000a900473ffffffffffffffffffffffffffffffffffffffff16908060020180546131db90614f9e565b80601f016020809104026020016040519081016040528092919081815260200182805461320790614f9e565b80156132545780601f1061322957610100808354040283529160200191613254565b820191906000526020600020905b81548152906001019060200180831161323757829003601f168201915b5050505050908060040160009054906101000a900460ff16905084565b6003602052806000526040600020600091509050805461329090614f9e565b80601f01602080910402602001604051908101604052809291908181526020018280546132bc90614f9e565b80156133095780601f106132de57610100808354040283529160200191613309565b820191906000526020600020905b8154815290600101906020018083116132ec57829003601f168201915b505050505081565b7f97f21e7273917267af1fea4c3510695aa29abe57349ce57ceec11b346883180381565b61334e6133418361110e565b6133496138e5565b612cc3565b61338d576040517f08c379a000000000000000000000000000000000000000000000000000000000815260040161338490614b3a565b60405180910390fd5b61339782826139cd565b5050565b60606001826040516133ad9190614744565b908152602001604051809103902060020180546133c990614f9e565b80601f01602080910402602001604051908101604052809291908181526020018280546133f590614f9e565b80156134425780601f1061341757610100808354040283529160200191613442565b820191906000526020600020905b81548152906001019060200180831161342557829003601f168201915b50505050509050919050565b600d5481565b6001826040516134649190614744565b9081526020016040518091039020600401600081548092919061348690614f74565b9190505550600060028460405161349d9190614744565b908152602001604051809103902060040160006101000a81548160ff02191690831515021790555060006002846040516134d79190614744565b908152602001604051809103902060010160006101000a81548173ffffffffffffffffffffffffffffffffffffffff021916908373ffffffffffffffffffffffffffffffffffffffff16021790555060405180602001604052806000815250600860008373ffffffffffffffffffffffffffffffffffffffff1673ffffffffffffffffffffffffffffffffffffffff1681526020019081526020016000209080519060200190613588929190613aae565b507f1a24299bbcab71cb3013c24c40adca455867472f22ae6d056e4e0cb2bb0e5a73836040516135b89190614888565b60405180910390a1505050565b60066020528060005260406000206000915090508060000160009054906101000a900473ffffffffffffffffffffffffffffffffffffffff16908060010160009054906101000a900473ffffffffffffffffffffffffffffffffffffffff169080600201805461363490614f9e565b80601f016020809104026020016040519081016040528092919081815260200182805461366090614f9e565b80156136ad5780601f10613682576101008083540402835291602001916136ad565b820191906000526020600020905b81548152906001019060200180831161369057829003601f168201915b5050505050905083565b600b5481565b7f0996d044c7309cb5a01d79c18ee9e4c86aca84367cbd5bfd5f5d0606acc9927381565b606061370d7f97f21e7273917267af1fea4c3510695aa29abe57349ce57ceec11b346883180333612cc3565b8061373e575061373d7fe5786ee6f50ab1a5567cb3f3f6840a2f4ddbafdf4a35cb2c52d5b732b1e84a3233612cc3565b5b61377d576040517f08c379a000000000000000000000000000000000000000000000000000000000815260040161377490614aba565b60405180910390fd5b60028260405161378d9190614744565b9081526020016040518091039020600301805480602002602001604051908101604052809291908181526020016000905b8282101561386a5783829060005260206000200180546137dd90614f9e565b80601f016020809104026020016040519081016040528092919081815260200182805461380990614f9e565b80156138565780601f1061382b57610100808354040283529160200191613856565b820191906000526020600020905b81548152906001019060200180831161383957829003601f168201915b5050505050815260200190600101906137be565b505050509050919050565b600e5481565b60007f01ffc9a7000000000000000000000000000000000000000000000000000000007bffffffffffffffffffffffffffffffffffffffffffffffffffffffff1916827bffffffffffffffffffffffffffffffffffffffffffffffffffffffff1916149050919050565b600033905090565b6138f78282612cc3565b6139c957600160008084815260200190815260200160002060000160008373ffffffffffffffffffffffffffffffffffffffff1673ffffffffffffffffffffffffffffffffffffffff16815260200190815260200160002060006101000a81548160ff02191690831515021790555061396e6138e5565b73ffffffffffffffffffffffffffffffffffffffff168173ffffffffffffffffffffffffffffffffffffffff16837f2f8788117e7eff1d82e926ec794901d17c78024a50270940304540a733656f0d60405160405180910390a45b5050565b6139d78282612cc3565b15613aaa57600080600084815260200190815260200160002060000160008373ffffffffffffffffffffffffffffffffffffffff1673ffffffffffffffffffffffffffffffffffffffff16815260200190815260200160002060006101000a81548160ff021916908315150217905550613a4f6138e5565b73ffffffffffffffffffffffffffffffffffffffff168173ffffffffffffffffffffffffffffffffffffffff16837ff6391f5c32d9c69d2a47ea670b442974b53935d1edc7fd64eb21e047a839171b60405160405180910390a45b5050565b828054613aba90614f9e565b90600052602060002090601f016020900481019282613adc5760008555613b23565b82601f10613af557805160ff1916838001178555613b23565b82800160010185558215613b23579182015b82811115613b22578251825591602001919060010190613b07565b5b509050613b309190613bb2565b5090565b60405180610120016040528060608152602001600073ffffffffffffffffffffffffffffffffffffffff16815260200160608152602001600073ffffffffffffffffffffffffffffffffffffffff16815260200160001515815260200160001515815260200160001515815260200160008152602001600081525090565b5b80821115613bcb576000816000905550600101613bb3565b5090565b6000613be2613bdd84614dbc565b614d97565b905082815260208101848484011115613bfa57600080fd5b613c05848285614f32565b509392505050565b600081359050613c1c81615839565b92915050565b600081359050613c3181615850565b92915050565b600081359050613c4681615867565b92915050565b600082601f830112613c5d57600080fd5b8135613c6d848260208601613bcf565b91505092915050565b600081359050613c858161587e565b92915050565b600060208284031215613c9d57600080fd5b6000613cab84828501613c0d565b91505092915050565b60008060408385031215613cc757600080fd5b6000613cd585828601613c0d565b925050602083013567ffffffffffffffff811115613cf257600080fd5b613cfe85828601613c4c565b9150509250929050565b600060208284031215613d1a57600080fd5b6000613d2884828501613c22565b91505092915050565b60008060408385031215613d4457600080fd5b6000613d5285828601613c22565b9250506020613d6385828601613c0d565b9150509250929050565b600060208284031215613d7f57600080fd5b6000613d8d84828501613c37565b91505092915050565b600060208284031215613da857600080fd5b600082013567ffffffffffffffff811115613dc257600080fd5b613dce84828501613c4c565b91505092915050565b60008060408385031215613dea57600080fd5b600083013567ffffffffffffffff811115613e0457600080fd5b613e1085828601613c4c565b925050602083013567ffffffffffffffff811115613e2d57600080fd5b613e3985828601613c4c565b9150509250929050565b600080600060608486031215613e5857600080fd5b600084013567ffffffffffffffff811115613e7257600080fd5b613e7e86828701613c4c565b935050602084013567ffffffffffffffff811115613e9b57600080fd5b613ea786828701613c4c565b9250506040613eb886828701613c0d565b9150509250925092565b60008060008060808587031215613ed857600080fd5b600085013567ffffffffffffffff811115613ef257600080fd5b613efe87828801613c4c565b945050602085013567ffffffffffffffff811115613f1b57600080fd5b613f2787828801613c4c565b935050604085013567ffffffffffffffff811115613f4457600080fd5b613f5087828801613c4c565b9250506060613f6187828801613c0d565b91505092959194509250565b600080600080600060a08688031215613f8557600080fd5b600086013567ffffffffffffffff811115613f9f57600080fd5b613fab88828901613c4c565b955050602086013567ffffffffffffffff811115613fc857600080fd5b613fd488828901613c4c565b945050604086013567ffffffffffffffff811115613ff157600080fd5b613ffd88828901613c4c565b935050606086013567ffffffffffffffff81111561401a57600080fd5b61402688828901613c4c565b925050608061403788828901613c0d565b9150509295509295909350565b60008060006060848603121561405957600080fd5b600084013567ffffffffffffffff81111561407357600080fd5b61407f86828701613c4c565b935050602084013567ffffffffffffffff81111561409c57600080fd5b6140a886828701613c4c565b92505060406140b986828701613c76565b9150509250925092565b6000602082840312156140d557600080fd5b60006140e384828501613c76565b91505092915050565b60006140f883836141c0565b905092915050565b61410981614eb4565b82525050565b61411881614eb4565b82525050565b600061412982614dfd565b6141338185614e20565b93508360208202850161414585614ded565b8060005b85811015614181578484038952815161416285826140ec565b945061416d83614e13565b925060208a01995050600181019050614149565b50829750879550505050505092915050565b61419c81614ec6565b82525050565b6141ab81614ec6565b82525050565b6141ba81614ed2565b82525050565b60006141cb82614e08565b6141d58185614e31565b93506141e5818560208601614f41565b6141ee816150d7565b840191505092915050565b600061420482614e08565b61420e8185614e42565b935061421e818560208601614f41565b614227816150d7565b840191505092915050565b600061423d82614e08565b6142478185614e53565b9350614257818560208601614f41565b80840191505092915050565b6000614270601a83614e42565b915061427b826150e8565b602082019050919050565b6000614293602e83614e42565b915061429e82615111565b604082019050919050565b60006142b6602f83614e42565b91506142c182615160565b604082019050919050565b60006142d9602483614e42565b91506142e4826151af565b604082019050919050565b60006142fc601783614e42565b9150614307826151fe565b602082019050919050565b600061431f601b83614e42565b915061432a82615227565b602082019050919050565b6000614342602983614e42565b915061434d82615250565b604082019050919050565b6000614365602d83614e42565b91506143708261529f565b604082019050919050565b6000614388603683614e42565b9150614393826152ee565b604082019050919050565b60006143ab602383614e42565b91506143b68261533d565b604082019050919050565b60006143ce602983614e42565b91506143d98261538c565b604082019050919050565b60006143f1602b83614e42565b91506143fc826153db565b604082019050919050565b6000614414603083614e42565b915061441f8261542a565b604082019050919050565b6000614437602783614e42565b915061444282615479565b604082019050919050565b600061445a601c83614e42565b9150614465826154c8565b602082019050919050565b600061447d601483614e42565b9150614488826154f1565b602082019050919050565b60006144a0602383614e42565b91506144ab8261551a565b604082019050919050565b60006144c3601a83614e42565b91506144ce82615569565b602082019050919050565b60006144e6601a83614e42565b91506144f182615592565b602082019050919050565b6000614509601183614e42565b9150614514826155bb565b602082019050919050565b600061452c601f83614e42565b9150614537826155e4565b602082019050919050565b600061454f602983614e42565b915061455a8261560d565b604082019050919050565b6000614572602183614e42565b915061457d8261565c565b604082019050919050565b6000614595601283614e42565b91506145a0826156ab565b602082019050919050565b60006145b8602283614e42565b91506145c3826156d4565b604082019050919050565b60006145db602383614e42565b91506145e682615723565b604082019050919050565b60006145fe603183614e42565b915061460982615772565b604082019050919050565b6000614621602f83614e42565b915061462c826157c1565b604082019050919050565b6000614644601883614e42565b915061464f82615810565b602082019050919050565b600061012083016000830151848203600086015261467882826141c0565b915050602083015161468d6020860182614100565b50604083015184820360408601526146a582826141c0565b91505060608301516146ba6060860182614100565b5060808301516146cd6080860182614193565b5060a08301516146e060a0860182614193565b5060c08301516146f360c0860182614193565b5060e083015161470660e0860182614726565b5061010083015161471b610100860182614726565b508091505092915050565b61472f81614f28565b82525050565b61473e81614f28565b82525050565b60006147508284614232565b915081905092915050565b6000602082019050614770600083018461410f565b92915050565b600060608201905061478b600083018661410f565b614798602083018561410f565b81810360408301526147aa81846141f9565b9050949350505050565b60006080820190506147c9600083018761410f565b6147d6602083018661410f565b81810360408301526147e881856141f9565b90506147f760608301846141a2565b95945050505050565b6000604082019050614815600083018561410f565b818103602083015261482781846141f9565b90509392505050565b6000602082019050818103600083015261484a818461411e565b905092915050565b600060208201905061486760008301846141a2565b92915050565b600060208201905061488260008301846141b1565b92915050565b600060208201905081810360008301526148a281846141f9565b905092915050565b600060608201905081810360008301526148c481866141f9565b90506148d3602083018561410f565b6148e0604083018461410f565b949350505050565b6000610120820190508181036000830152614903818c6141f9565b9050614912602083018b61410f565b8181036040830152614924818a6141f9565b9050614933606083018961410f565b61494060808301886141a2565b61494d60a08301876141a2565b61495a60c08301866141a2565b61496760e0830185614735565b614975610100830184614735565b9a9950505050505050505050565b6000604082019050818103600083015261499d81856141f9565b905081810360208301526149b181846141f9565b90509392505050565b600060208201905081810360008301526149d381614263565b9050919050565b600060208201905081810360008301526149f381614286565b9050919050565b60006020820190508181036000830152614a13816142a9565b9050919050565b60006020820190508181036000830152614a33816142cc565b9050919050565b60006020820190508181036000830152614a53816142ef565b9050919050565b60006020820190508181036000830152614a7381614312565b9050919050565b60006020820190508181036000830152614a9381614335565b9050919050565b60006020820190508181036000830152614ab381614358565b9050919050565b60006020820190508181036000830152614ad38161437b565b9050919050565b60006020820190508181036000830152614af38161439e565b9050919050565b60006020820190508181036000830152614b13816143c1565b9050919050565b60006020820190508181036000830152614b33816143e4565b9050919050565b60006020820190508181036000830152614b5381614407565b9050919050565b60006020820190508181036000830152614b738161442a565b9050919050565b60006020820190508181036000830152614b938161444d565b9050919050565b60006020820190508181036000830152614bb381614470565b9050919050565b60006020820190508181036000830152614bd381614493565b9050919050565b60006020820190508181036000830152614bf3816144b6565b9050919050565b60006020820190508181036000830152614c13816144d9565b9050919050565b60006020820190508181036000830152614c33816144fc565b9050919050565b60006020820190508181036000830152614c538161451f565b9050919050565b60006020820190508181036000830152614c7381614542565b9050919050565b60006020820190508181036000830152614c9381614565565b9050919050565b60006020820190508181036000830152614cb381614588565b9050919050565b60006020820190508181036000830152614cd3816145ab565b9050919050565b60006020820190508181036000830152614cf3816145ce565b9050919050565b60006020820190508181036000830152614d13816145f1565b9050919050565b60006020820190508181036000830152614d3381614614565b9050919050565b60006020820190508181036000830152614d5381614637565b9050919050565b60006020820190508181036000830152614d74818461465a565b905092915050565b6000602082019050614d916000830184614735565b92915050565b6000614da1614db2565b9050614dad8282614fd0565b919050565b6000604051905090565b600067ffffffffffffffff821115614dd757614dd66150a8565b5b614de0826150d7565b9050602081019050919050565b6000819050602082019050919050565b600081519050919050565b600081519050919050565b6000602082019050919050565b600082825260208201905092915050565b600082825260208201905092915050565b600082825260208201905092915050565b600081905092915050565b6000614e6982614f28565b9150614e7483614f28565b9250827fffffffffffffffffffffffffffffffffffffffffffffffffffffffffffffffff03821115614ea957614ea861504a565b5b828201905092915050565b6000614ebf82614f08565b9050919050565b60008115159050919050565b6000819050919050565b60007fffffffff0000000000000000000000000000000000000000000000000000000082169050919050565b600073ffffffffffffffffffffffffffffffffffffffff82169050919050565b6000819050919050565b82818337600083830152505050565b60005b83811015614f5f578082015181840152602081019050614f44565b83811115614f6e576000848401525b50505050565b6000614f7f82614f28565b91506000821415614f9357614f9261504a565b5b600182039050919050565b60006002820490506001821680614fb657607f821691505b60208210811415614fca57614fc9615079565b5b50919050565b614fd9826150d7565b810181811067ffffffffffffffff82111715614ff857614ff76150a8565b5b80604052505050565b600061500c82614f28565b91507fffffffffffffffffffffffffffffffffffffffffffffffffffffffffffffffff82141561503f5761503e61504a565b5b600182019050919050565b7f4e487b7100000000000000000000000000000000000000000000000000000000600052601160045260246000fd5b7f4e487b7100000000000000000000000000000000000000000000000000000000600052602260045260246000fd5b7f4e487b7100000000000000000000000000000000000000000000000000000000600052604160045260246000fd5b6000601f19601f8301169050919050565b7f596f752061726520616e20617574686f726974792061646d696e000000000000600082015250565b7f4f6e6c792074686520617574686f726974792061646d696e2063616e2061646460008201527f20696e76657374696761746f7273000000000000000000000000000000000000602082015250565b7f416363657373436f6e74726f6c3a2073656e646572206d75737420626520616e60008201527f2061646d696e20746f206772616e740000000000000000000000000000000000602082015250565b7f4f6e6c7920617574686f726969746965732063616e2073757370656e6420747260008201527f69616c7300000000000000000000000000000000000000000000000000000000602082015250565b7f596f752061726520616e20696e76657374696761746f72000000000000000000600082015250565b7f50726f746f636f6c206e6f7420617574686f72697a6564207965740000000000600082015250565b7f50726f6d6f746572732061646d696e2063616e6e6f7420626520616e20696e7660008201527f657374696761746f720000000000000000000000000000000000000000000000602082015250565b7f4f6e6c79207468652070726f6d6f746f722061646d696e2063616e206164642060008201527f696e76657374696761746f727300000000000000000000000000000000000000602082015250565b7f4f6e6c7920696e76657374696761746f7273206f722070617469656e7420636160008201527f6e20636f6c6c656374206f722072656164206461746100000000000000000000602082015250565b7f4f6e6c7920617574686f7269746965732063616e2073757370656e642074726960008201527f616c730000000000000000000000000000000000000000000000000000000000602082015250565b7f546869732070726f746f636f6c20686173206e6f74206265656e20617574686f60008201527f72697a6564207965740000000000000000000000000000000000000000000000602082015250565b7f417574686f7269746965732061646d696e2063616e6e6f7420626520616e206960008201527f6e76657374696761746f72000000000000000000000000000000000000000000602082015250565b7f416363657373436f6e74726f6c3a2073656e646572206d75737420626520616e60008201527f2061646d696e20746f207265766f6b6500000000000000000000000000000000602082015250565b7f4f6e6c79207468652070726f6d6f746f722063616e2061646420696e7665737460008201527f696761746f727300000000000000000000000000000000000000000000000000602082015250565b7f596f752061726520616c726561647920616e20617574686f7269747900000000600082015250565b7f596f752061726520616e20617574686f72697479000000000000000000000000600082015250565b7f4f6e6c792070726f6d6f746572732063616e207375626d69742070726f746f6360008201527f6f6c730000000000000000000000000000000000000000000000000000000000602082015250565b7f596f752061726520616c726561647920612070726f6d6f746572000000000000600082015250565b7f546869732070617469656e7420616c7265616479206578697374000000000000600082015250565b7f546865726520697320616e20616c657274000000000000000000000000000000600082015250565b7f596f752061726520616c726561647920616e20696e76657374696761746f7200600082015250565b7f54686520696e76657374696761746f72206d757374206265207265676973746560008201527f7265642066697273740000000000000000000000000000000000000000000000602082015250565b7f50726f6d6f746572732063616e6e6f7420626520696e76657374696761746f7260008201527f7300000000000000000000000000000000000000000000000000000000000000602082015250565b7f596f752061726520612070726f6d6f7465720000000000000000000000000000600082015250565b7f5468652070726f746f636f6c20697320616c726561647920726567697374657260008201527f6564000000000000000000000000000000000000000000000000000000000000602082015250565b7f417574686f7269746965732063616e6e6f7420626520696e766573746967617460008201527f6f72730000000000000000000000000000000000000000000000000000000000602082015250565b7f4f6e6c7920617574686f726974696573206861766520726967687420746f207660008201527f616c69646174652070726f746f636f6c73000000000000000000000000000000602082015250565b7f416363657373436f6e74726f6c3a2063616e206f6e6c792072656e6f756e636560008201527f20726f6c657320666f722073656c660000000000000000000000000000000000602082015250565b7f596f752061726520612070726f6d6f7465722061646d696e0000000000000000600082015250565b61584281614eb4565b811461584d57600080fd5b50565b61585981614ed2565b811461586457600080fd5b50565b61587081614edc565b811461587b57600080fd5b50565b61588781614f28565b811461589257600080fd5b5056fea2646970667358221220e984270eee757f29b30d89afa5d659c8536d6cc570a6b348f2191cf37ebf14dc64736f6c63430008040033",
  "immutableReferences": {},
  "source": "// SPDX-License-Identifier: MIT\npragma solidity 0.8.4;\n\nimport \"../client/node_modules/@openzeppelin/contracts/access/AccessControl.sol\";\n\ncontract MedTrials is AccessControl {\n    struct Protocol {\n        string cid;\n        address promoter;\n        string status;\n        address investigator;\n        bool registered;\n        bool authorized;\n        bool alert;\n        uint256 nbOfPatients;\n        uint256 index;\n    }\n\n    struct Patient {\n        address patient;\n        address investigator;\n        string protocolID;\n        string[] cids;\n        bool consent;\n    }\n\n    struct Promoter {\n        address promoter;\n        string cid;\n    }\n\n    struct Investigator {\n        address promoter;\n        address investigator;\n        string cid;\n    }\n\n    struct Authority {\n        address authority;\n        string cid;\n    }\n\n    mapping(string => Protocol) public protocols;\n    mapping(string => Patient) public patients;\n    mapping(uint256 => string) public protocolsID;\n    mapping(uint256 => string) public patientsID;\n    mapping(uint256 => Promoter) public promoters;\n    mapping(uint256 => Investigator) public investigators;\n    mapping(uint256 => Authority) public authorities;\n    mapping(address => string) roles;\n\n    mapping(string => mapping(string => uint256)) private protocolNumerotation;\n    mapping(address => mapping(string => uint256)) private patientNumerotation;\n\n    bytes32 public constant AUTHORITY = keccak256(\"AUTHORITY\");\n    bytes32 public constant AUTHORITY_ADMIN = keccak256(\"AUTHORITYADMIN\");\n    bytes32 public constant PROMOTER = keccak256(\"PROMOTER\");\n    bytes32 public constant PROMOTER_ADMIN = keccak256(\"PROMOTERADMIN\");\n    bytes32 public constant INVESTIGATOR = keccak256(\"INVESTIGATOR\");\n    bytes32 public constant PATIENT = keccak256(\"PATIENT\");\n\n    uint256 public nbOfProtocolsRegistered;\n    uint256 public nbOfPatients;\n    uint256 public nbOfPromoters;\n    uint256 public nbOfInvestigators;\n    uint256 public nbOfAuthorities;\n\n    event promoterAdded(address _address);\n    event authorityAdded(address _address);\n    event investigatorAdded(address _address);\n    event protocolValidated(string _id);\n    event newProtocol(string _id, address _promotor, address _investigator);\n    event patientAdded(string _patientID, string _protocolID);\n    event consentGiven(string _patientID);\n    event consentRevoked(string _patientID);\n    event cidSaved(string _cid);\n    event protocolSuspended(string _protocolID);\n    event protocolResumed(string _protocolID);\n\n    constructor(\n        address _default_admin,\n        address _authorityAdmin,\n        address _promotorAdmin\n    ) {\n        _setupRole(DEFAULT_ADMIN_ROLE, _default_admin);\n\n        _setRoleAdmin(AUTHORITY_ADMIN, DEFAULT_ADMIN_ROLE);\n        _setRoleAdmin(AUTHORITY, AUTHORITY_ADMIN);\n\n        _setRoleAdmin(PROMOTER_ADMIN, DEFAULT_ADMIN_ROLE);\n        _setRoleAdmin(PROMOTER, PROMOTER_ADMIN);\n\n        _setRoleAdmin(INVESTIGATOR, PROMOTER);\n\n        _setRoleAdmin(PATIENT, INVESTIGATOR);\n\n        _setupRole(AUTHORITY_ADMIN, _authorityAdmin);\n        _setupRole(PROMOTER_ADMIN, _promotorAdmin);\n\n        renounceRole(DEFAULT_ADMIN_ROLE, _default_admin);\n\n        roles[_authorityAdmin] = \"AUTHORITY ADMIN\";\n        roles[_promotorAdmin] = \"PROMOTER ADMIN\";\n    }\n\n    function addAuthority(address _address, string memory _cid) public {\n        require(\n            hasRole(AUTHORITY_ADMIN, msg.sender),\n            \"Only the authority admin can add investigators\"\n        );\n        require(!hasRole(AUTHORITY, _address), \"You are already an authority\");\n        require(!hasRole(PROMOTER, _address), \"You are a promoter\");\n        require(!hasRole(INVESTIGATOR, _address), \"You are an investigator\");\n        require(!hasRole(PROMOTER_ADMIN, _address), \"You are a promoter admin\");\n        require(\n            !hasRole(AUTHORITY_ADMIN, _address),\n            \"You are an authority admin\"\n        );\n\n        grantRole(AUTHORITY, _address);\n        roles[_address] = \"AUTHORITY\";\n\n        authorities[nbOfAuthorities].cid = _cid;\n        authorities[nbOfAuthorities].authority = _address;\n        nbOfAuthorities++;\n\n        emit authorityAdded(_address);\n    }\n\n    function addPromoter(address _address, string memory _cid) public {\n        require(\n            hasRole(PROMOTER_ADMIN, msg.sender),\n            \"Only the promotor admin can add investigators\"\n        );\n        require(!hasRole(PROMOTER, _address), \"You are already a promoter\");\n        require(!hasRole(INVESTIGATOR, _address), \"You are an investigator\");\n        require(!hasRole(AUTHORITY, _address), \"You are an authority\");\n        require(!hasRole(PROMOTER_ADMIN, _address), \"You are a promoter admin\");\n        require(\n            !hasRole(AUTHORITY_ADMIN, _address),\n            \"You are an authority admin\"\n        );\n\n        grantRole(PROMOTER, _address);\n        roles[_address] = \"PROMOTER\";\n\n        promoters[nbOfPromoters].cid = _cid;\n        promoters[nbOfPromoters].promoter = _address;\n        nbOfPromoters++;\n\n        emit promoterAdded(_address);\n    }\n\n    function addInvestigator(address _address, string memory _cid) public {\n        require(\n            hasRole(PROMOTER, msg.sender),\n            \"Only the promotor can add investigators\"\n        );\n        require(\n            !hasRole(INVESTIGATOR, _address),\n            \"You are already an investigator\"\n        );\n        require(!hasRole(PROMOTER, _address), \"You are a promoter\");\n        require(!hasRole(AUTHORITY, _address), \"You are an authority\");\n        require(!hasRole(PROMOTER_ADMIN, _address), \"You are a promoter admin\");\n        require(\n            !hasRole(AUTHORITY_ADMIN, _address),\n            \"You are an authority admin\"\n        );\n\n        grantRole(INVESTIGATOR, _address);\n        roles[_address] = \"INVESTIGATOR\";\n\n        investigators[nbOfInvestigators].cid = _cid;\n        investigators[nbOfInvestigators].promoter = msg.sender;\n        investigators[nbOfInvestigators].investigator = _address;\n        nbOfInvestigators++;\n\n        emit investigatorAdded(_address);\n    }\n\n    function registerProtocol(\n        string memory _id,\n        string memory _cid,\n        string memory center,\n        string memory category,\n        address _investigator\n    ) public {\n        require(\n            hasRole(PROMOTER, msg.sender),\n            \"Only promoters can submit protocols\"\n        );\n        require(\n            !hasRole(PROMOTER, _investigator),\n            \"Promoters cannot be investigators\"\n        );\n        require(\n            !hasRole(AUTHORITY, _investigator),\n            \"Authorities cannot be investigators\"\n        );\n        require(\n            !hasRole(PROMOTER_ADMIN, _investigator),\n            \"Promoters admin cannot be an investigator\"\n        );\n        require(\n            !hasRole(AUTHORITY_ADMIN, _investigator),\n            \"Authorities admin cannot be an investigator\"\n        );\n        require(\n            hasRole(INVESTIGATOR, _investigator),\n            \"The investigator must be registered first\"\n        );\n        require(\n            !protocols[_id].registered,\n            \"The protocol is already registered\"\n        );\n\n        protocols[_id].promoter = msg.sender;\n        protocols[_id].investigator = _investigator;\n        protocols[_id].registered = true;\n        protocols[_id].cid = _cid;\n        protocols[_id].status = \"registered\";\n        protocols[_id].index = nbOfProtocolsRegistered;\n\n        protocolsID[nbOfProtocolsRegistered] = _id;\n        nbOfProtocolsRegistered++;\n\n        protocolNumerotation[center][category]++;\n\n        emit newProtocol(_id, msg.sender, _investigator);\n    }\n\n    function getProtocolCID(string memory _id)\n        public\n        view\n        returns (string memory)\n    {\n        return protocols[_id].cid;\n    }\n\n    function validateProtocol(string memory _id) public {\n        require(\n            hasRole(AUTHORITY, msg.sender),\n            \"Only authorities have right to validate protocols\"\n        );\n\n        protocols[_id].authorized = true;\n        protocols[_id].status = \"validated\";\n        protocols[_id].alert == false;\n\n        emit protocolValidated(_id);\n    }\n\n    function getProtocol(string memory _id)\n        public\n        view\n        returns (Protocol memory)\n    {\n        return protocols[_id];\n    }\n\n    function addPatient(\n        string memory _cid,\n        string memory _patientID,\n        string memory _protocolID,\n        address _patientAddress\n    ) public {\n        require(\n            protocols[_protocolID].authorized == true,\n            \"This protocol has not been authorized yet\"\n        );\n        require(protocols[_protocolID].alert == false, \"There is an alert\");\n        require(\n            _patientAddress != patients[_patientID].patient,\n            \"This patient already exist\"\n        );\n\n        patients[_patientID].consent = true;\n        patients[_patientID].patient = _patientAddress;\n        patients[_patientID].investigator = msg.sender;\n        patients[_patientID].protocolID = _protocolID;\n        protocols[_protocolID].nbOfPatients++;\n        patients[_patientID].cids.push(_cid);\n\n        patientsID[nbOfPatients] = _patientID;\n        patientNumerotation[msg.sender][_protocolID]++;\n\n        nbOfPatients++;\n\n        grantRole(PATIENT, _patientAddress);\n        roles[_patientAddress] = \"PATIENT\";\n\n        emit patientAdded(_patientID, _protocolID);\n    }\n\n    function revokeConsent(\n        string memory _patientID,\n        string memory _protocolID,\n        address _address\n    ) public {\n        protocols[_protocolID].nbOfPatients--;\n        patients[_patientID].consent = false;\n        patients[_patientID].investigator = address(0);\n        roles[_address] = \"\";\n\n        emit consentRevoked(_patientID);\n    }\n\n    function suspendTrials(string memory _protocolID) public {\n        require(\n            hasRole(AUTHORITY, msg.sender),\n            \"Only authoriities can suspend trials\"\n        );\n        require(\n            protocols[_protocolID].authorized,\n            \"Protocol not authorized yet\"\n        );\n\n        protocols[_protocolID].alert = true;\n        protocols[_protocolID].status = \"suspended\";\n\n        emit protocolSuspended(_protocolID);\n    }\n\n    function resumeTrials(string memory _protocolID) public {\n        require(\n            hasRole(AUTHORITY, msg.sender),\n            \"Only authorities can suspend trials\"\n        );\n\n        protocols[_protocolID].alert = false;\n        protocols[_protocolID].status = \"resumed\";\n\n        emit protocolResumed(_protocolID);\n    }\n\n    function storeDataCID(\n        string memory _patientID,\n        string memory _cid,\n        uint256 _alert\n    ) public {\n        patients[_patientID].cids.push(_cid);\n\n        if (_alert == 1) {\n            string memory protocolID = patients[_patientID].protocolID;\n\n            protocols[protocolID].alert = true;\n            protocols[protocolID].authorized = false;\n            protocols[protocolID].status = \"suspended\";\n        }\n\n        emit cidSaved(_cid);\n    }\n\n    function getDataCID(string memory _patientID)\n        public\n        view\n        returns (string[] memory)\n    {\n        require(\n            hasRole(INVESTIGATOR, msg.sender) || hasRole(PATIENT, msg.sender),\n            \"Only investigators or patient can collect or read data\"\n        );\n\n        return patients[_patientID].cids;\n    }\n\n    function getProtocolStatus(string memory _protocolID)\n        public\n        view\n        returns (string memory)\n    {\n        return protocols[_protocolID].status;\n    }\n\n    function getRole(address _address) public view returns (string memory) {\n        return roles[_address];\n    }\n\n    function getProtocoleNumerotation(\n        string memory center,\n        string memory category\n    ) public view returns (uint256) {\n        return protocolNumerotation[center][category] + 1;\n    }\n\n    function getPatientNumerotation(string memory _protocolID)\n        public\n        view\n        returns (uint256)\n    {\n        return patientNumerotation[msg.sender][_protocolID] + 1;\n    }\n}\n",
  "sourcePath": "/Users/samuel/Documents/Projet/Pojet_Dev/MedTrials/contracts/MedTrials.sol",
  "compiler": {
    "name": "solc",
    "version": "0.8.4+commit.c7e474f2.Emscripten.clang"
  },
  "schemaVersion": "3.3.4",
  "updatedAt": "2021-06-17T17:55:08.636Z",
  "networkType": "ethereum",
  "devdoc": {
    "kind": "dev",
    "methods": {
      "getRoleAdmin(bytes32)": {
        "details": "Returns the admin role that controls `role`. See {grantRole} and {revokeRole}. To change a role's admin, use {_setRoleAdmin}."
      },
      "grantRole(bytes32,address)": {
        "details": "Grants `role` to `account`. If `account` had not been already granted `role`, emits a {RoleGranted} event. Requirements: - the caller must have ``role``'s admin role."
      },
      "hasRole(bytes32,address)": {
        "details": "Returns `true` if `account` has been granted `role`."
      },
      "renounceRole(bytes32,address)": {
        "details": "Revokes `role` from the calling account. Roles are often managed via {grantRole} and {revokeRole}: this function's purpose is to provide a mechanism for accounts to lose their privileges if they are compromised (such as when a trusted device is misplaced). If the calling account had been granted `role`, emits a {RoleRevoked} event. Requirements: - the caller must be `account`."
      },
      "revokeRole(bytes32,address)": {
        "details": "Revokes `role` from `account`. If `account` had been granted `role`, emits a {RoleRevoked} event. Requirements: - the caller must have ``role``'s admin role."
      },
      "supportsInterface(bytes4)": {
        "details": "See {IERC165-supportsInterface}."
      }
    },
    "version": 1
  },
  "userdoc": {
    "kind": "user",
    "methods": {},
    "version": 1
  }
}