{
  "contractName": "MedTrials",
  "abi": [
    {
      "inputs": [
        {
          "internalType": "address",
          "name": "_default_admin",
          "type": "address"
        },
        {
          "internalType": "address",
          "name": "_authorityAdmin",
          "type": "address"
        },
        {
          "internalType": "address",
          "name": "_promotorAdmin",
          "type": "address"
        }
      ],
      "stateMutability": "nonpayable",
      "type": "constructor"
    },
    {
      "anonymous": false,
      "inputs": [
        {
          "indexed": true,
          "internalType": "bytes32",
          "name": "role",
          "type": "bytes32"
        },
        {
          "indexed": true,
          "internalType": "bytes32",
          "name": "previousAdminRole",
          "type": "bytes32"
        },
        {
          "indexed": true,
          "internalType": "bytes32",
          "name": "newAdminRole",
          "type": "bytes32"
        }
      ],
      "name": "RoleAdminChanged",
      "type": "event"
    },
    {
      "anonymous": false,
      "inputs": [
        {
          "indexed": true,
          "internalType": "bytes32",
          "name": "role",
          "type": "bytes32"
        },
        {
          "indexed": true,
          "internalType": "address",
          "name": "account",
          "type": "address"
        },
        {
          "indexed": true,
          "internalType": "address",
          "name": "sender",
          "type": "address"
        }
      ],
      "name": "RoleGranted",
      "type": "event"
    },
    {
      "anonymous": false,
      "inputs": [
        {
          "indexed": true,
          "internalType": "bytes32",
          "name": "role",
          "type": "bytes32"
        },
        {
          "indexed": true,
          "internalType": "address",
          "name": "account",
          "type": "address"
        },
        {
          "indexed": true,
          "internalType": "address",
          "name": "sender",
          "type": "address"
        }
      ],
      "name": "RoleRevoked",
      "type": "event"
    },
    {
      "anonymous": false,
      "inputs": [
        {
          "indexed": false,
          "internalType": "address",
          "name": "_address",
          "type": "address"
        }
      ],
      "name": "authorityAdded",
      "type": "event"
    },
    {
      "anonymous": false,
      "inputs": [
        {
          "indexed": false,
          "internalType": "string",
          "name": "_cid",
          "type": "string"
        }
      ],
      "name": "cidSaved",
      "type": "event"
    },
    {
      "anonymous": false,
      "inputs": [
        {
          "indexed": false,
          "internalType": "string",
          "name": "_patientID",
          "type": "string"
        }
      ],
      "name": "consentGiven",
      "type": "event"
    },
    {
      "anonymous": false,
      "inputs": [
        {
          "indexed": false,
          "internalType": "string",
          "name": "_patientID",
          "type": "string"
        }
      ],
      "name": "consentRevoked",
      "type": "event"
    },
    {
      "anonymous": false,
      "inputs": [
        {
          "indexed": false,
          "internalType": "address",
          "name": "_address",
          "type": "address"
        }
      ],
      "name": "investigatorAdded",
      "type": "event"
    },
    {
      "anonymous": false,
      "inputs": [
        {
          "indexed": false,
          "internalType": "string",
          "name": "_id",
          "type": "string"
        },
        {
          "indexed": false,
          "internalType": "address",
          "name": "_promotor",
          "type": "address"
        },
        {
          "indexed": false,
          "internalType": "address",
          "name": "_investigator",
          "type": "address"
        }
      ],
      "name": "newProtocol",
      "type": "event"
    },
    {
      "anonymous": false,
      "inputs": [
        {
          "indexed": false,
          "internalType": "string",
          "name": "_patientID",
          "type": "string"
        },
        {
          "indexed": false,
          "internalType": "string",
          "name": "_protocolID",
          "type": "string"
        }
      ],
      "name": "patientAdded",
      "type": "event"
    },
    {
      "anonymous": false,
      "inputs": [
        {
          "indexed": false,
          "internalType": "address",
          "name": "_address",
          "type": "address"
        }
      ],
      "name": "promoterAdded",
      "type": "event"
    },
    {
      "anonymous": false,
      "inputs": [
        {
          "indexed": false,
          "internalType": "string",
          "name": "_protocolID",
          "type": "string"
        }
      ],
      "name": "protocolResumed",
      "type": "event"
    },
    {
      "anonymous": false,
      "inputs": [
        {
          "indexed": false,
          "internalType": "string",
          "name": "_protocolID",
          "type": "string"
        }
      ],
      "name": "protocolSuspended",
      "type": "event"
    },
    {
      "anonymous": false,
      "inputs": [
        {
          "indexed": false,
          "internalType": "string",
          "name": "_id",
          "type": "string"
        }
      ],
      "name": "protocolValidated",
      "type": "event"
    },
    {
      "inputs": [],
      "name": "AUTHORITY",
      "outputs": [
        {
          "internalType": "bytes32",
          "name": "",
          "type": "bytes32"
        }
      ],
      "stateMutability": "view",
      "type": "function",
      "constant": true
    },
    {
      "inputs": [],
      "name": "AUTHORITY_ADMIN",
      "outputs": [
        {
          "internalType": "bytes32",
          "name": "",
          "type": "bytes32"
        }
      ],
      "stateMutability": "view",
      "type": "function",
      "constant": true
    },
    {
      "inputs": [],
      "name": "DEFAULT_ADMIN_ROLE",
      "outputs": [
        {
          "internalType": "bytes32",
          "name": "",
          "type": "bytes32"
        }
      ],
      "stateMutability": "view",
      "type": "function",
      "constant": true
    },
    {
      "inputs": [],
      "name": "INVESTIGATOR",
      "outputs": [
        {
          "internalType": "bytes32",
          "name": "",
          "type": "bytes32"
        }
      ],
      "stateMutability": "view",
      "type": "function",
      "constant": true
    },
    {
      "inputs": [],
      "name": "PATIENT",
      "outputs": [
        {
          "internalType": "bytes32",
          "name": "",
          "type": "bytes32"
        }
      ],
      "stateMutability": "view",
      "type": "function",
      "constant": true
    },
    {
      "inputs": [],
      "name": "PROMOTER",
      "outputs": [
        {
          "internalType": "bytes32",
          "name": "",
          "type": "bytes32"
        }
      ],
      "stateMutability": "view",
      "type": "function",
      "constant": true
    },
    {
      "inputs": [],
      "name": "PROMOTER_ADMIN",
      "outputs": [
        {
          "internalType": "bytes32",
          "name": "",
          "type": "bytes32"
        }
      ],
      "stateMutability": "view",
      "type": "function",
      "constant": true
    },
    {
      "inputs": [
        {
          "internalType": "uint256",
          "name": "",
          "type": "uint256"
        }
      ],
      "name": "authorities",
      "outputs": [
        {
          "internalType": "address",
          "name": "authority",
          "type": "address"
        },
        {
          "internalType": "string",
          "name": "cid",
          "type": "string"
        }
      ],
      "stateMutability": "view",
      "type": "function",
      "constant": true
    },
    {
      "inputs": [
        {
          "internalType": "bytes32",
          "name": "role",
          "type": "bytes32"
        }
      ],
      "name": "getRoleAdmin",
      "outputs": [
        {
          "internalType": "bytes32",
          "name": "",
          "type": "bytes32"
        }
      ],
      "stateMutability": "view",
      "type": "function",
      "constant": true
    },
    {
      "inputs": [
        {
          "internalType": "bytes32",
          "name": "role",
          "type": "bytes32"
        },
        {
          "internalType": "address",
          "name": "account",
          "type": "address"
        }
      ],
      "name": "grantRole",
      "outputs": [],
      "stateMutability": "nonpayable",
      "type": "function"
    },
    {
      "inputs": [
        {
          "internalType": "bytes32",
          "name": "role",
          "type": "bytes32"
        },
        {
          "internalType": "address",
          "name": "account",
          "type": "address"
        }
      ],
      "name": "hasRole",
      "outputs": [
        {
          "internalType": "bool",
          "name": "",
          "type": "bool"
        }
      ],
      "stateMutability": "view",
      "type": "function",
      "constant": true
    },
    {
      "inputs": [
        {
          "internalType": "uint256",
          "name": "",
          "type": "uint256"
        }
      ],
      "name": "investigators",
      "outputs": [
        {
          "internalType": "address",
          "name": "promoter",
          "type": "address"
        },
        {
          "internalType": "address",
          "name": "investigator",
          "type": "address"
        },
        {
          "internalType": "string",
          "name": "cid",
          "type": "string"
        }
      ],
      "stateMutability": "view",
      "type": "function",
      "constant": true
    },
    {
      "inputs": [],
      "name": "nbOfAuthorities",
      "outputs": [
        {
          "internalType": "uint256",
          "name": "",
          "type": "uint256"
        }
      ],
      "stateMutability": "view",
      "type": "function",
      "constant": true
    },
    {
      "inputs": [],
      "name": "nbOfInvestigators",
      "outputs": [
        {
          "internalType": "uint256",
          "name": "",
          "type": "uint256"
        }
      ],
      "stateMutability": "view",
      "type": "function",
      "constant": true
    },
    {
      "inputs": [],
      "name": "nbOfPatients",
      "outputs": [
        {
          "internalType": "uint256",
          "name": "",
          "type": "uint256"
        }
      ],
      "stateMutability": "view",
      "type": "function",
      "constant": true
    },
    {
      "inputs": [],
      "name": "nbOfPromoters",
      "outputs": [
        {
          "internalType": "uint256",
          "name": "",
          "type": "uint256"
        }
      ],
      "stateMutability": "view",
      "type": "function",
      "constant": true
    },
    {
      "inputs": [],
      "name": "nbOfProtocolsRegistered",
      "outputs": [
        {
          "internalType": "uint256",
          "name": "",
          "type": "uint256"
        }
      ],
      "stateMutability": "view",
      "type": "function",
      "constant": true
    },
    {
      "inputs": [
        {
          "internalType": "string",
          "name": "",
          "type": "string"
        }
      ],
      "name": "patients",
      "outputs": [
        {
          "internalType": "address",
          "name": "patient",
          "type": "address"
        },
        {
          "internalType": "address",
          "name": "investigator",
          "type": "address"
        },
        {
          "internalType": "string",
          "name": "protocolID",
          "type": "string"
        },
        {
          "internalType": "bool",
          "name": "consent",
          "type": "bool"
        }
      ],
      "stateMutability": "view",
      "type": "function",
      "constant": true
    },
    {
      "inputs": [
        {
          "internalType": "uint256",
          "name": "",
          "type": "uint256"
        }
      ],
      "name": "patientsID",
      "outputs": [
        {
          "internalType": "string",
          "name": "",
          "type": "string"
        }
      ],
      "stateMutability": "view",
      "type": "function",
      "constant": true
    },
    {
      "inputs": [
        {
          "internalType": "uint256",
          "name": "",
          "type": "uint256"
        }
      ],
      "name": "promoters",
      "outputs": [
        {
          "internalType": "address",
          "name": "promoter",
          "type": "address"
        },
        {
          "internalType": "string",
          "name": "cid",
          "type": "string"
        }
      ],
      "stateMutability": "view",
      "type": "function",
      "constant": true
    },
    {
      "inputs": [
        {
          "internalType": "string",
          "name": "",
          "type": "string"
        }
      ],
      "name": "protocols",
      "outputs": [
        {
          "internalType": "string",
          "name": "cid",
          "type": "string"
        },
        {
          "internalType": "address",
          "name": "promoter",
          "type": "address"
        },
        {
          "internalType": "string",
          "name": "status",
          "type": "string"
        },
        {
          "internalType": "address",
          "name": "investigator",
          "type": "address"
        },
        {
          "internalType": "bool",
          "name": "registered",
          "type": "bool"
        },
        {
          "internalType": "bool",
          "name": "authorized",
          "type": "bool"
        },
        {
          "internalType": "uint256",
          "name": "nbOfPatients",
          "type": "uint256"
        },
        {
          "internalType": "uint256",
          "name": "index",
          "type": "uint256"
        }
      ],
      "stateMutability": "view",
      "type": "function",
      "constant": true
    },
    {
      "inputs": [
        {
          "internalType": "uint256",
          "name": "",
          "type": "uint256"
        }
      ],
      "name": "protocolsID",
      "outputs": [
        {
          "internalType": "string",
          "name": "",
          "type": "string"
        }
      ],
      "stateMutability": "view",
      "type": "function",
      "constant": true
    },
    {
      "inputs": [
        {
          "internalType": "bytes32",
          "name": "role",
          "type": "bytes32"
        },
        {
          "internalType": "address",
          "name": "account",
          "type": "address"
        }
      ],
      "name": "renounceRole",
      "outputs": [],
      "stateMutability": "nonpayable",
      "type": "function"
    },
    {
      "inputs": [
        {
          "internalType": "bytes32",
          "name": "role",
          "type": "bytes32"
        },
        {
          "internalType": "address",
          "name": "account",
          "type": "address"
        }
      ],
      "name": "revokeRole",
      "outputs": [],
      "stateMutability": "nonpayable",
      "type": "function"
    },
    {
      "inputs": [
        {
          "internalType": "bytes4",
          "name": "interfaceId",
          "type": "bytes4"
        }
      ],
      "name": "supportsInterface",
      "outputs": [
        {
          "internalType": "bool",
          "name": "",
          "type": "bool"
        }
      ],
      "stateMutability": "view",
      "type": "function",
      "constant": true
    },
    {
      "inputs": [
        {
          "internalType": "address",
          "name": "_address",
          "type": "address"
        },
        {
          "internalType": "string",
          "name": "_cid",
          "type": "string"
        }
      ],
      "name": "addAuthority",
      "outputs": [],
      "stateMutability": "nonpayable",
      "type": "function"
    },
    {
      "inputs": [
        {
          "internalType": "address",
          "name": "_address",
          "type": "address"
        },
        {
          "internalType": "string",
          "name": "_cid",
          "type": "string"
        }
      ],
      "name": "addPromoter",
      "outputs": [],
      "stateMutability": "nonpayable",
      "type": "function"
    },
    {
      "inputs": [
        {
          "internalType": "address",
          "name": "_address",
          "type": "address"
        },
        {
          "internalType": "string",
          "name": "_cid",
          "type": "string"
        }
      ],
      "name": "addInvestigator",
      "outputs": [],
      "stateMutability": "nonpayable",
      "type": "function"
    },
    {
      "inputs": [
        {
          "internalType": "string",
          "name": "_id",
          "type": "string"
        },
        {
          "internalType": "string",
          "name": "_cid",
          "type": "string"
        },
        {
          "internalType": "string",
          "name": "center",
          "type": "string"
        },
        {
          "internalType": "string",
          "name": "category",
          "type": "string"
        },
        {
          "internalType": "address",
          "name": "_investigator",
          "type": "address"
        }
      ],
      "name": "registerProtocol",
      "outputs": [],
      "stateMutability": "nonpayable",
      "type": "function"
    },
    {
      "inputs": [
        {
          "internalType": "string",
          "name": "_id",
          "type": "string"
        }
      ],
      "name": "getProtocolCID",
      "outputs": [
        {
          "internalType": "string",
          "name": "",
          "type": "string"
        }
      ],
      "stateMutability": "view",
      "type": "function",
      "constant": true
    },
    {
      "inputs": [
        {
          "internalType": "string",
          "name": "_id",
          "type": "string"
        }
      ],
      "name": "validateProtocol",
      "outputs": [],
      "stateMutability": "nonpayable",
      "type": "function"
    },
    {
      "inputs": [
        {
          "internalType": "string",
          "name": "_id",
          "type": "string"
        }
      ],
      "name": "getProtocol",
      "outputs": [
        {
          "components": [
            {
              "internalType": "string",
              "name": "cid",
              "type": "string"
            },
            {
              "internalType": "address",
              "name": "promoter",
              "type": "address"
            },
            {
              "internalType": "string",
              "name": "status",
              "type": "string"
            },
            {
              "internalType": "address",
              "name": "investigator",
              "type": "address"
            },
            {
              "internalType": "bool",
              "name": "registered",
              "type": "bool"
            },
            {
              "internalType": "bool",
              "name": "authorized",
              "type": "bool"
            },
            {
              "internalType": "uint256",
              "name": "nbOfPatients",
              "type": "uint256"
            },
            {
              "internalType": "uint256",
              "name": "index",
              "type": "uint256"
            }
          ],
          "internalType": "struct MedTrials.Protocol",
          "name": "",
          "type": "tuple"
        }
      ],
      "stateMutability": "view",
      "type": "function",
      "constant": true
    },
    {
      "inputs": [
        {
          "internalType": "string",
          "name": "_cid",
          "type": "string"
        },
        {
          "internalType": "string",
          "name": "_patientID",
          "type": "string"
        },
        {
          "internalType": "string",
          "name": "_protocolID",
          "type": "string"
        },
        {
          "internalType": "address",
          "name": "_patientAddress",
          "type": "address"
        }
      ],
      "name": "addPatient",
      "outputs": [],
      "stateMutability": "nonpayable",
      "type": "function"
    },
    {
      "inputs": [
        {
          "internalType": "string",
          "name": "_patientID",
          "type": "string"
        }
      ],
      "name": "revokeConsent",
      "outputs": [],
      "stateMutability": "nonpayable",
      "type": "function"
    },
    {
      "inputs": [
        {
          "internalType": "string",
          "name": "_protocolID",
          "type": "string"
        }
      ],
      "name": "suspendTrials",
      "outputs": [],
      "stateMutability": "nonpayable",
      "type": "function"
    },
    {
      "inputs": [
        {
          "internalType": "string",
          "name": "_protocolID",
          "type": "string"
        }
      ],
      "name": "resumeTrials",
      "outputs": [],
      "stateMutability": "nonpayable",
      "type": "function"
    },
    {
      "inputs": [
        {
          "internalType": "string",
          "name": "_patientID",
          "type": "string"
        },
        {
          "internalType": "string",
          "name": "_cid",
          "type": "string"
        }
      ],
      "name": "storeDataCID",
      "outputs": [],
      "stateMutability": "nonpayable",
      "type": "function"
    },
    {
      "inputs": [
        {
          "internalType": "string",
          "name": "_patientID",
          "type": "string"
        }
      ],
      "name": "getDataCID",
      "outputs": [
        {
          "internalType": "string[]",
          "name": "",
          "type": "string[]"
        }
      ],
      "stateMutability": "view",
      "type": "function",
      "constant": true
    },
    {
      "inputs": [
        {
          "internalType": "string",
          "name": "_protocolID",
          "type": "string"
        }
      ],
      "name": "getProtocolStatus",
      "outputs": [
        {
          "internalType": "string",
          "name": "",
          "type": "string"
        }
      ],
      "stateMutability": "view",
      "type": "function",
      "constant": true
    },
    {
      "inputs": [
        {
          "internalType": "address",
          "name": "_address",
          "type": "address"
        }
      ],
      "name": "getRole",
      "outputs": [
        {
          "internalType": "string",
          "name": "",
          "type": "string"
        }
      ],
      "stateMutability": "view",
      "type": "function",
      "constant": true
    },
    {
      "inputs": [
        {
          "internalType": "string",
          "name": "center",
          "type": "string"
        },
        {
          "internalType": "string",
          "name": "category",
          "type": "string"
        }
      ],
      "name": "getProtocoleNumerotation",
      "outputs": [
        {
          "internalType": "uint256",
          "name": "",
          "type": "uint256"
        }
      ],
      "stateMutability": "view",
      "type": "function",
      "constant": true
    },
    {
      "inputs": [
        {
          "internalType": "string",
          "name": "_protocolID",
          "type": "string"
        }
      ],
      "name": "getPatientNumerotation",
      "outputs": [
        {
          "internalType": "uint256",
          "name": "",
          "type": "uint256"
        }
      ],
      "stateMutability": "view",
      "type": "function",
      "constant": true
    }
  ],
  "bytecode": "0x60806040523480156200001157600080fd5b5060405162006507380380620065078339818101604052810190620000379190620007da565b6200004c6000801b846200039660201b60201c565b620000817f3e206be88d1de4207c0189003e17add3718b1a1bf78910a785940577239bbdae6000801b620003ac60201b60201c565b620000d37f843b48dccc6ff192f9330133622b0536f7b94feca0cf36e7e46fc50060b6f8827f3e206be88d1de4207c0189003e17add3718b1a1bf78910a785940577239bbdae620003ac60201b60201c565b620001087f47a6ab365f603cf120cb936195de17fd0bac3880ff606e7a0edb5e8e6580b1ae6000801b620003ac60201b60201c565b6200015a7f0996d044c7309cb5a01d79c18ee9e4c86aca84367cbd5bfd5f5d0606acc992737f47a6ab365f603cf120cb936195de17fd0bac3880ff606e7a0edb5e8e6580b1ae620003ac60201b60201c565b620001ac7f97f21e7273917267af1fea4c3510695aa29abe57349ce57ceec11b34688318037f0996d044c7309cb5a01d79c18ee9e4c86aca84367cbd5bfd5f5d0606acc99273620003ac60201b60201c565b620001fe7fe5786ee6f50ab1a5567cb3f3f6840a2f4ddbafdf4a35cb2c52d5b732b1e84a327f97f21e7273917267af1fea4c3510695aa29abe57349ce57ceec11b3468831803620003ac60201b60201c565b620002307f3e206be88d1de4207c0189003e17add3718b1a1bf78910a785940577239bbdae836200039660201b60201c565b620002627f47a6ab365f603cf120cb936195de17fd0bac3880ff606e7a0edb5e8e6580b1ae826200039660201b60201c565b620002776000801b846200040960201b60201c565b6040518060400160405280600f81526020017f415554484f524954592041444d494e0000000000000000000000000000000000815250600860008473ffffffffffffffffffffffffffffffffffffffff1673ffffffffffffffffffffffffffffffffffffffff16815260200190815260200160002090805190602001906200030192919062000713565b506040518060400160405280600e81526020017f50524f4d4f5445522041444d494e000000000000000000000000000000000000815250600860008373ffffffffffffffffffffffffffffffffffffffff1673ffffffffffffffffffffffffffffffffffffffff16815260200190815260200160002090805190602001906200038c92919062000713565b505050506200097e565b620003a882826200049f60201b60201c565b5050565b80620003be836200059060201b60201c565b837fbd79b86ffe0ab8e8776151514217cd7cacd52c909f66475c3af44e129f0b00ff60405160405180910390a480600080848152602001908152602001600020600101819055505050565b62000419620005af60201b60201c565b73ffffffffffffffffffffffffffffffffffffffff168173ffffffffffffffffffffffffffffffffffffffff161462000489576040517f08c379a0000000000000000000000000000000000000000000000000000000008152600401620004809062000898565b60405180910390fd5b6200049b8282620005b760201b60201c565b5050565b620004b18282620006a960201b60201c565b6200058c57600160008084815260200190815260200160002060000160008373ffffffffffffffffffffffffffffffffffffffff1673ffffffffffffffffffffffffffffffffffffffff16815260200190815260200160002060006101000a81548160ff02191690831515021790555062000531620005af60201b60201c565b73ffffffffffffffffffffffffffffffffffffffff168173ffffffffffffffffffffffffffffffffffffffff16837f2f8788117e7eff1d82e926ec794901d17c78024a50270940304540a733656f0d60405160405180910390a45b5050565b6000806000838152602001908152602001600020600101549050919050565b600033905090565b620005c98282620006a960201b60201c565b15620006a557600080600084815260200190815260200160002060000160008373ffffffffffffffffffffffffffffffffffffffff1673ffffffffffffffffffffffffffffffffffffffff16815260200190815260200160002060006101000a81548160ff0219169083151502179055506200064a620005af60201b60201c565b73ffffffffffffffffffffffffffffffffffffffff168173ffffffffffffffffffffffffffffffffffffffff16837ff6391f5c32d9c69d2a47ea670b442974b53935d1edc7fd64eb21e047a839171b60405160405180910390a45b5050565b600080600084815260200190815260200160002060000160008373ffffffffffffffffffffffffffffffffffffffff1673ffffffffffffffffffffffffffffffffffffffff16815260200190815260200160002060009054906101000a900460ff16905092915050565b8280546200072190620008ff565b90600052602060002090601f01602090048101928262000745576000855562000791565b82601f106200076057805160ff191683800117855562000791565b8280016001018555821562000791579182015b828111156200079057825182559160200191906001019062000773565b5b509050620007a09190620007a4565b5090565b5b80821115620007bf576000816000905550600101620007a5565b5090565b600081519050620007d48162000964565b92915050565b600080600060608486031215620007f057600080fd5b60006200080086828701620007c3565b93505060206200081386828701620007c3565b92505060406200082686828701620007c3565b9150509250925092565b60006200083f602f83620008ba565b91507f416363657373436f6e74726f6c3a2063616e206f6e6c792072656e6f756e636560008301527f20726f6c657320666f722073656c6600000000000000000000000000000000006020830152604082019050919050565b60006020820190508181036000830152620008b38162000830565b9050919050565b600082825260208201905092915050565b6000620008d882620008df565b9050919050565b600073ffffffffffffffffffffffffffffffffffffffff82169050919050565b600060028204905060018216806200091857607f821691505b602082108114156200092f576200092e62000935565b5b50919050565b7f4e487b7100000000000000000000000000000000000000000000000000000000600052602260045260246000fd5b6200096f81620008cb565b81146200097b57600080fd5b50565b615b79806200098e6000396000f3fe608060405234801561001057600080fd5b506004361061025e5760003560e01c8063834afa8111610146578063cb39dce5116100c3578063e1d862d911610087578063e1d862d91461079b578063eb3b0fc8146107b9578063ebc48391146107eb578063ec9f4bda14610809578063f7f093b614610827578063fad4fcc7146108575761025e565b8063cb39dce5146106e5578063cd5c3b2b14610701578063cf2a9a9314610731578063d547741f1461074f578063d751b1501461076b5761025e565b8063a24d96581161010a578063a24d96581461062a578063b62f9c7414610646578063c1bd2c2014610664578063c4f3983014610682578063c6009d84146106b25761025e565b8063834afa811461058457806389fcd796146105a257806391d14854146105c0578063a1a8316b146105f0578063a217fddf1461060c5761025e565b8063393618a7116101df578063494503d4116101a3578063494503d41461049d578063591fe6da146104ce5780635e49bdaf146104ec5780637992fd37146105085780637ba3ae71146105245780637beb4107146105545761025e565b8063393618a7146103d45780633ca1d75f146103f05780633f0bee321461040c57806343913c5b1461043d578063442767331461046d5761025e565b8063248a9ca311610226578063248a9ca3146103345780632de6388f146103645780632f2ff15d146103805780632f77e62f1461039c57806336568abe146103b85761025e565b806301ffc9a714610263578063090c63301461029357806309c1ce8b146102c35780631dae9454146102df5780631f50006114610316575b600080fd5b61027d60048036038101906102789190614071565b610875565b60405161028a9190615210565b60405180910390f35b6102ad60048036038101906102a891906142c9565b6108ef565b6040516102ba9190615246565b60405180910390f35b6102dd60048036038101906102d891906141f2565b61098f565b005b6102f960048036038101906102f4919061409a565b610f0e565b60405161030d9897969594939291906152a6565b60405180910390f35b61031e6110d6565b60405161032b919061522b565b60405180910390f35b61034e6004803603810190610349919061400c565b6110fa565b60405161035b919061522b565b60405180910390f35b61037e6004803603810190610379919061409a565b611119565b005b61039a60048036038101906103959190614035565b611299565b005b6103b660048036038101906103b1919061409a565b6112ff565b005b6103d260048036038101906103cd9190614035565b61147f565b005b6103ee60048036038101906103e99190613fb8565b611502565b005b61040a60048036038101906104059190613fb8565b611907565b005b610426600480360381019061042191906142c9565b611d0c565b6040516104349291906151be565b60405180910390f35b6104576004803603810190610452919061409a565b611dd8565b60405161046491906157cb565b60405180910390f35b61048760048036038101906104829190613f8f565b611e49565b6040516104949190615246565b60405180910390f35b6104b760048036038101906104b291906142c9565b611f1a565b6040516104c59291906151be565b60405180910390f35b6104d6611fe6565b6040516104e3919061522b565b60405180910390f35b61050660048036038101906105019190613fb8565b61200a565b005b610522600480360381019061051d9190614147565b612466565b005b61053e6004803603810190610539919061409a565b6129f2565b60405161054b9190615246565b60405180910390f35b61056e6004803603810190610569919061409a565b612bcb565b60405161057b91906157a9565b60405180910390f35b61058c612e1e565b60405161059991906157cb565b60405180910390f35b6105aa612e24565b6040516105b7919061522b565b60405180910390f35b6105da60048036038101906105d59190614035565b612e48565b6040516105e79190615210565b60405180910390f35b61060a6004803603810190610605919061409a565b612eb2565b005b610614612ff9565b604051610621919061522b565b60405180910390f35b610644600480360381019061063f919061409a565b613000565b005b61064e613233565b60405161065b91906157cb565b60405180910390f35b61066c613239565b604051610679919061522b565b60405180910390f35b61069c600480360381019061069791906140db565b61325d565b6040516106a991906157cb565b60405180910390f35b6106cc60048036038101906106c7919061409a565b6132ae565b6040516106dc9493929190615172565b60405180910390f35b6106ff60048036038101906106fa91906140db565b6133c9565b005b61071b600480360381019061071691906142c9565b6135ec565b6040516107289190615246565b60405180910390f35b61073961368c565b604051610746919061522b565b60405180910390f35b61076960048036038101906107649190614035565b6136b0565b005b6107856004803603810190610780919061409a565b613716565b6040516107929190615246565b60405180910390f35b6107a36137c9565b6040516107b091906157cb565b60405180910390f35b6107d360048036038101906107ce91906142c9565b6137cf565b6040516107e293929190615134565b60405180910390f35b6107f36138c1565b60405161080091906157cb565b60405180910390f35b6108116138c7565b60405161081e919061522b565b60405180910390f35b610841600480360381019061083c919061409a565b6138eb565b60405161084e91906151ee565b60405180910390f35b61085f613afd565b60405161086c91906157cb565b60405180910390f35b60007f7965db0b000000000000000000000000000000000000000000000000000000007bffffffffffffffffffffffffffffffffffffffffffffffffffffffff1916827bffffffffffffffffffffffffffffffffffffffffffffffffffffffff191614806108e857506108e782613b03565b5b9050919050565b6004602052806000526040600020600091509050805461090e906159ce565b80601f016020809104026020016040519081016040528092919081815260200182805461093a906159ce565b80156109875780601f1061095c57610100808354040283529160200191610987565b820191906000526020600020905b81548152906001019060200180831161096a57829003601f168201915b505050505081565b6109b97f0996d044c7309cb5a01d79c18ee9e4c86aca84367cbd5bfd5f5d0606acc9927333612e48565b6109f8576040517f08c379a00000000000000000000000000000000000000000000000000000000081526004016109ef90615569565b60405180910390fd5b610a227f0996d044c7309cb5a01d79c18ee9e4c86aca84367cbd5bfd5f5d0606acc9927382612e48565b15610a62576040517f08c379a0000000000000000000000000000000000000000000000000000000008152600401610a5990615649565b60405180910390fd5b610a8c7f843b48dccc6ff192f9330133622b0536f7b94feca0cf36e7e46fc50060b6f88282612e48565b15610acc576040517f08c379a0000000000000000000000000000000000000000000000000000000008152600401610ac3906156c9565b60405180910390fd5b610af67f47a6ab365f603cf120cb936195de17fd0bac3880ff606e7a0edb5e8e6580b1ae82612e48565b15610b36576040517f08c379a0000000000000000000000000000000000000000000000000000000008152600401610b2d90615429565b60405180910390fd5b610b607f3e206be88d1de4207c0189003e17add3718b1a1bf78910a785940577239bbdae82612e48565b15610ba0576040517f08c379a0000000000000000000000000000000000000000000000000000000008152600401610b97906154c9565b60405180910390fd5b610bca7f97f21e7273917267af1fea4c3510695aa29abe57349ce57ceec11b346883180382612e48565b610c09576040517f08c379a0000000000000000000000000000000000000000000000000000000008152600401610c0090615609565b60405180910390fd5b600185604051610c199190615102565b908152602001604051809103902060030160149054906101000a900460ff1615610c78576040517f08c379a0000000000000000000000000000000000000000000000000000000008152600401610c6f906156a9565b60405180910390fd5b33600186604051610c899190615102565b908152602001604051809103902060010160006101000a81548173ffffffffffffffffffffffffffffffffffffffff021916908373ffffffffffffffffffffffffffffffffffffffff16021790555080600186604051610ce99190615102565b908152602001604051809103902060030160006101000a81548173ffffffffffffffffffffffffffffffffffffffff021916908373ffffffffffffffffffffffffffffffffffffffff16021790555060018086604051610d499190615102565b908152602001604051809103902060030160146101000a81548160ff02191690831515021790555083600186604051610d829190615102565b90815260200160405180910390206000019080519060200190610da6929190613d36565b506040518060400160405280600a81526020017f7265676973746572656400000000000000000000000000000000000000000000815250600186604051610ded9190615102565b90815260200160405180910390206002019080519060200190610e11929190613d36565b50600b54600186604051610e259190615102565b9081526020016040518091039020600501819055508460036000600b5481526020019081526020016000209080519060200190610e63929190613d36565b50600b6000815480929190610e7790615a00565b9190505550600983604051610e8c9190615102565b908152602001604051809103902082604051610ea89190615102565b90815260200160405180910390206000815480929190610ec790615a00565b91905055507fff88452d1e63b10e4f05e166bed6696de7594668e0e30daf24839937a0a27fee853383604051610eff93929190615268565b60405180910390a15050505050565b600181805160208101820180518482526020830160208501208183528095505050505050600091509050806000018054610f47906159ce565b80601f0160208091040260200160405190810160405280929190818152602001828054610f73906159ce565b8015610fc05780601f10610f9557610100808354040283529160200191610fc0565b820191906000526020600020905b815481529060010190602001808311610fa357829003601f168201915b5050505050908060010160009054906101000a900473ffffffffffffffffffffffffffffffffffffffff1690806002018054610ffb906159ce565b80601f0160208091040260200160405190810160405280929190818152602001828054611027906159ce565b80156110745780601f1061104957610100808354040283529160200191611074565b820191906000526020600020905b81548152906001019060200180831161105757829003601f168201915b5050505050908060030160009054906101000a900473ffffffffffffffffffffffffffffffffffffffff16908060030160149054906101000a900460ff16908060030160159054906101000a900460ff16908060040154908060050154905088565b7fe5786ee6f50ab1a5567cb3f3f6840a2f4ddbafdf4a35cb2c52d5b732b1e84a3281565b6000806000838152602001908152602001600020600101549050919050565b6111437f843b48dccc6ff192f9330133622b0536f7b94feca0cf36e7e46fc50060b6f88233612e48565b611182576040517f08c379a000000000000000000000000000000000000000000000000000000000815260040161117990615489565b60405180910390fd5b6001816040516111929190615102565b908152602001604051809103902060030160159054906101000a900460ff16156111bb57600080fd5b600180826040516111cc9190615102565b908152602001604051809103902060030160156101000a81548160ff0219169083151502179055506040518060400160405280600781526020017f726573756d65640000000000000000000000000000000000000000000000000081525060018260405161123a9190615102565b9081526020016040518091039020600201908051906020019061125e929190613d36565b507fd1c688ddb9e9baabcd8e5f84a85f4933173bc6600b2f361087b41cd9304e29208160405161128e9190615246565b60405180910390a150565b6112b26112a5836110fa565b6112ad613b6d565b612e48565b6112f1576040517f08c379a00000000000000000000000000000000000000000000000000000000081526004016112e8906153a9565b60405180910390fd5b6112fb8282613b75565b5050565b6113297f843b48dccc6ff192f9330133622b0536f7b94feca0cf36e7e46fc50060b6f88233612e48565b611368576040517f08c379a000000000000000000000000000000000000000000000000000000000815260040161135f906153c9565b60405180910390fd5b6001816040516113789190615102565b908152602001604051809103902060030160159054906101000a900460ff166113a057600080fd5b60006001826040516113b29190615102565b908152602001604051809103902060030160156101000a81548160ff0219169083151502179055506040518060400160405280600981526020017f73757370656e64656400000000000000000000000000000000000000000000008152506001826040516114209190615102565b90815260200160405180910390206002019080519060200190611444929190613d36565b507fb9f86d562ae4d5d427f505b81f74024716097f50538bc3d5a16f0716ca399559816040516114749190615246565b60405180910390a150565b611487613b6d565b73ffffffffffffffffffffffffffffffffffffffff168173ffffffffffffffffffffffffffffffffffffffff16146114f4576040517f08c379a00000000000000000000000000000000000000000000000000000000081526004016114eb90615769565b60405180910390fd5b6114fe8282613c55565b5050565b61152c7f47a6ab365f603cf120cb936195de17fd0bac3880ff606e7a0edb5e8e6580b1ae33612e48565b61156b576040517f08c379a000000000000000000000000000000000000000000000000000000000815260040161156290615449565b60405180910390fd5b6115957f0996d044c7309cb5a01d79c18ee9e4c86aca84367cbd5bfd5f5d0606acc9927383612e48565b156115d5576040517f08c379a00000000000000000000000000000000000000000000000000000000081526004016115cc906155a9565b60405180910390fd5b6115ff7f97f21e7273917267af1fea4c3510695aa29abe57349ce57ceec11b346883180383612e48565b1561163f576040517f08c379a0000000000000000000000000000000000000000000000000000000008152600401611636906153e9565b60405180910390fd5b6116697f843b48dccc6ff192f9330133622b0536f7b94feca0cf36e7e46fc50060b6f88283612e48565b156116a9576040517f08c379a00000000000000000000000000000000000000000000000000000000081526004016116a090615549565b60405180910390fd5b6116d37f47a6ab365f603cf120cb936195de17fd0bac3880ff606e7a0edb5e8e6580b1ae83612e48565b15611713576040517f08c379a000000000000000000000000000000000000000000000000000000000815260040161170a90615789565b60405180910390fd5b61173d7f3e206be88d1de4207c0189003e17add3718b1a1bf78910a785940577239bbdae83612e48565b1561177d576040517f08c379a000000000000000000000000000000000000000000000000000000000815260040161177490615369565b60405180910390fd5b6117a77f0996d044c7309cb5a01d79c18ee9e4c86aca84367cbd5bfd5f5d0606acc9927383611299565b6040518060400160405280600881526020017f50524f4d4f544552000000000000000000000000000000000000000000000000815250600860008473ffffffffffffffffffffffffffffffffffffffff1673ffffffffffffffffffffffffffffffffffffffff168152602001908152602001600020908051906020019061182f929190613d36565b508060056000600d548152602001908152602001600020600101908051906020019061185c929190613d36565b508160056000600d54815260200190815260200160002060000160006101000a81548173ffffffffffffffffffffffffffffffffffffffff021916908373ffffffffffffffffffffffffffffffffffffffff160217905550600d60008154809291906118c790615a00565b91905055507f786ebfd921e487d94a7dbf555edf33e5f264f7b59acdcdfe139c08f48f075559826040516118fb9190615119565b60405180910390a15050565b6119317f3e206be88d1de4207c0189003e17add3718b1a1bf78910a785940577239bbdae33612e48565b611970576040517f08c379a000000000000000000000000000000000000000000000000000000000815260040161196790615389565b60405180910390fd5b61199a7f843b48dccc6ff192f9330133622b0536f7b94feca0cf36e7e46fc50060b6f88283612e48565b156119da576040517f08c379a00000000000000000000000000000000000000000000000000000000081526004016119d190615529565b60405180910390fd5b611a047f0996d044c7309cb5a01d79c18ee9e4c86aca84367cbd5bfd5f5d0606acc9927383612e48565b15611a44576040517f08c379a0000000000000000000000000000000000000000000000000000000008152600401611a3b90615689565b60405180910390fd5b611a6e7f97f21e7273917267af1fea4c3510695aa29abe57349ce57ceec11b346883180383612e48565b15611aae576040517f08c379a0000000000000000000000000000000000000000000000000000000008152600401611aa5906153e9565b60405180910390fd5b611ad87f47a6ab365f603cf120cb936195de17fd0bac3880ff606e7a0edb5e8e6580b1ae83612e48565b15611b18576040517f08c379a0000000000000000000000000000000000000000000000000000000008152600401611b0f90615789565b60405180910390fd5b611b427f3e206be88d1de4207c0189003e17add3718b1a1bf78910a785940577239bbdae83612e48565b15611b82576040517f08c379a0000000000000000000000000000000000000000000000000000000008152600401611b7990615369565b60405180910390fd5b611bac7f843b48dccc6ff192f9330133622b0536f7b94feca0cf36e7e46fc50060b6f88283611299565b6040518060400160405280600981526020017f415554484f524954590000000000000000000000000000000000000000000000815250600860008473ffffffffffffffffffffffffffffffffffffffff1673ffffffffffffffffffffffffffffffffffffffff1681526020019081526020016000209080519060200190611c34929190613d36565b508060076000600f5481526020019081526020016000206001019080519060200190611c61929190613d36565b508160076000600f54815260200190815260200160002060000160006101000a81548173ffffffffffffffffffffffffffffffffffffffff021916908373ffffffffffffffffffffffffffffffffffffffff160217905550600f6000815480929190611ccc90615a00565b91905055507f3c0aee07d693a6f94b1a6aca6097bdde55429f0834eb9c27e3c31a03081f09b482604051611d009190615119565b60405180910390a15050565b60056020528060005260406000206000915090508060000160009054906101000a900473ffffffffffffffffffffffffffffffffffffffff1690806001018054611d55906159ce565b80601f0160208091040260200160405190810160405280929190818152602001828054611d81906159ce565b8015611dce5780601f10611da357610100808354040283529160200191611dce565b820191906000526020600020905b815481529060010190602001808311611db157829003601f168201915b5050505050905082565b60006001600a60003373ffffffffffffffffffffffffffffffffffffffff1673ffffffffffffffffffffffffffffffffffffffff16815260200190815260200160002083604051611e299190615102565b908152602001604051809103902054611e4291906158b8565b9050919050565b6060600860008373ffffffffffffffffffffffffffffffffffffffff1673ffffffffffffffffffffffffffffffffffffffff1681526020019081526020016000208054611e95906159ce565b80601f0160208091040260200160405190810160405280929190818152602001828054611ec1906159ce565b8015611f0e5780601f10611ee357610100808354040283529160200191611f0e565b820191906000526020600020905b815481529060010190602001808311611ef157829003601f168201915b50505050509050919050565b60076020528060005260406000206000915090508060000160009054906101000a900473ffffffffffffffffffffffffffffffffffffffff1690806001018054611f63906159ce565b80601f0160208091040260200160405190810160405280929190818152602001828054611f8f906159ce565b8015611fdc5780601f10611fb157610100808354040283529160200191611fdc565b820191906000526020600020905b815481529060010190602001808311611fbf57829003601f168201915b5050505050905082565b7f3e206be88d1de4207c0189003e17add3718b1a1bf78910a785940577239bbdae81565b6120347f0996d044c7309cb5a01d79c18ee9e4c86aca84367cbd5bfd5f5d0606acc9927333612e48565b612073576040517f08c379a000000000000000000000000000000000000000000000000000000000815260040161206a90615509565b60405180910390fd5b61209d7f97f21e7273917267af1fea4c3510695aa29abe57349ce57ceec11b346883180383612e48565b156120dd576040517f08c379a00000000000000000000000000000000000000000000000000000000081526004016120d4906155e9565b60405180910390fd5b6121077f0996d044c7309cb5a01d79c18ee9e4c86aca84367cbd5bfd5f5d0606acc9927383612e48565b15612147576040517f08c379a000000000000000000000000000000000000000000000000000000000815260040161213e90615689565b60405180910390fd5b6121717f843b48dccc6ff192f9330133622b0536f7b94feca0cf36e7e46fc50060b6f88283612e48565b156121b1576040517f08c379a00000000000000000000000000000000000000000000000000000000081526004016121a890615549565b60405180910390fd5b6121db7f47a6ab365f603cf120cb936195de17fd0bac3880ff606e7a0edb5e8e6580b1ae83612e48565b1561221b576040517f08c379a000000000000000000000000000000000000000000000000000000000815260040161221290615789565b60405180910390fd5b6122457f3e206be88d1de4207c0189003e17add3718b1a1bf78910a785940577239bbdae83612e48565b15612285576040517f08c379a000000000000000000000000000000000000000000000000000000000815260040161227c90615369565b60405180910390fd5b6122af7f97f21e7273917267af1fea4c3510695aa29abe57349ce57ceec11b346883180383611299565b6040518060400160405280600c81526020017f494e56455354494741544f520000000000000000000000000000000000000000815250600860008473ffffffffffffffffffffffffffffffffffffffff1673ffffffffffffffffffffffffffffffffffffffff1681526020019081526020016000209080519060200190612337929190613d36565b508060066000600e5481526020019081526020016000206002019080519060200190612364929190613d36565b503360066000600e54815260200190815260200160002060000160006101000a81548173ffffffffffffffffffffffffffffffffffffffff021916908373ffffffffffffffffffffffffffffffffffffffff1602179055508160066000600e54815260200190815260200160002060010160006101000a81548173ffffffffffffffffffffffffffffffffffffffff021916908373ffffffffffffffffffffffffffffffffffffffff160217905550600e600081548092919061242690615a00565b91905055507fe8418412d360af43b959e2ca49b9ad98feb77e7b5597963ca346077db47d69ba8260405161245a9190615119565b60405180910390a15050565b6124907f97f21e7273917267af1fea4c3510695aa29abe57349ce57ceec11b346883180333612e48565b6124cf576040517f08c379a00000000000000000000000000000000000000000000000000000000081526004016124c690615669565b60405180910390fd5b600115156001836040516124e39190615102565b908152602001604051809103902060030160159054906101000a900460ff16151514612544576040517f08c379a000000000000000000000000000000000000000000000000000000000815260040161253b906154a9565b60405180910390fd5b6001826040516125549190615102565b908152602001604051809103902060030160009054906101000a900473ffffffffffffffffffffffffffffffffffffffff1673ffffffffffffffffffffffffffffffffffffffff163373ffffffffffffffffffffffffffffffffffffffff16146125f3576040517f08c379a00000000000000000000000000000000000000000000000000000000081526004016125ea90615409565b60405180910390fd5b6002836040516126039190615102565b908152602001604051809103902060000160009054906101000a900473ffffffffffffffffffffffffffffffffffffffff1673ffffffffffffffffffffffffffffffffffffffff168173ffffffffffffffffffffffffffffffffffffffff1614156126a3576040517f08c379a000000000000000000000000000000000000000000000000000000000815260040161269a906155c9565b60405180910390fd5b60016002846040516126b59190615102565b908152602001604051809103902060040160006101000a81548160ff021916908315150217905550806002846040516126ee9190615102565b908152602001604051809103902060000160006101000a81548173ffffffffffffffffffffffffffffffffffffffff021916908373ffffffffffffffffffffffffffffffffffffffff1602179055503360028460405161274e9190615102565b908152602001604051809103902060010160006101000a81548173ffffffffffffffffffffffffffffffffffffffff021916908373ffffffffffffffffffffffffffffffffffffffff160217905550816002846040516127ae9190615102565b908152602001604051809103902060020190805190602001906127d2929190613d36565b506001826040516127e39190615102565b9081526020016040518091039020600401600081548092919061280590615a00565b919050555060028360405161281a9190615102565b908152602001604051809103902060030184908060018154018082558091505060019003906000526020600020016000909190919091509080519060200190612864929190613d36565b508260046000600c548152602001908152602001600020908051906020019061288e929190613d36565b50600a60003373ffffffffffffffffffffffffffffffffffffffff1673ffffffffffffffffffffffffffffffffffffffff168152602001908152602001600020826040516128dc9190615102565b908152602001604051809103902060008154809291906128fb90615a00565b919050555061292a7fe5786ee6f50ab1a5567cb3f3f6840a2f4ddbafdf4a35cb2c52d5b732b1e84a3282611299565b6040518060400160405280600781526020017f50415449454e5400000000000000000000000000000000000000000000000000815250600860008373ffffffffffffffffffffffffffffffffffffffff1673ffffffffffffffffffffffffffffffffffffffff16815260200190815260200160002090805190602001906129b2929190613d36565b507f76b4f38e7ada56c131a0c796e7382093d7b5a69175ca0bf513f5827f60f5314d83836040516129e4929190615332565b60405180910390a150505050565b60603373ffffffffffffffffffffffffffffffffffffffff16600183604051612a1b9190615102565b908152602001604051809103902060010160009054906101000a900473ffffffffffffffffffffffffffffffffffffffff1673ffffffffffffffffffffffffffffffffffffffff161480612adb57503373ffffffffffffffffffffffffffffffffffffffff16600183604051612a919190615102565b908152602001604051809103902060030160009054906101000a900473ffffffffffffffffffffffffffffffffffffffff1673ffffffffffffffffffffffffffffffffffffffff16145b612b1a576040517f08c379a0000000000000000000000000000000000000000000000000000000008152600401612b1190615469565b60405180910390fd5b600182604051612b2a9190615102565b90815260200160405180910390206000018054612b46906159ce565b80601f0160208091040260200160405190810160405280929190818152602001828054612b72906159ce565b8015612bbf5780601f10612b9457610100808354040283529160200191612bbf565b820191906000526020600020905b815481529060010190602001808311612ba257829003601f168201915b50505050509050919050565b612bd3613dbc565b600182604051612be39190615102565b908152602001604051809103902060405180610100016040529081600082018054612c0d906159ce565b80601f0160208091040260200160405190810160405280929190818152602001828054612c39906159ce565b8015612c865780601f10612c5b57610100808354040283529160200191612c86565b820191906000526020600020905b815481529060010190602001808311612c6957829003601f168201915b505050505081526020016001820160009054906101000a900473ffffffffffffffffffffffffffffffffffffffff1673ffffffffffffffffffffffffffffffffffffffff1673ffffffffffffffffffffffffffffffffffffffff168152602001600282018054612cf5906159ce565b80601f0160208091040260200160405190810160405280929190818152602001828054612d21906159ce565b8015612d6e5780601f10612d4357610100808354040283529160200191612d6e565b820191906000526020600020905b815481529060010190602001808311612d5157829003601f168201915b505050505081526020016003820160009054906101000a900473ffffffffffffffffffffffffffffffffffffffff1673ffffffffffffffffffffffffffffffffffffffff1673ffffffffffffffffffffffffffffffffffffffff1681526020016003820160149054906101000a900460ff161515151581526020016003820160159054906101000a900460ff16151515158152602001600482015481526020016005820154815250509050919050565b600c5481565b7f843b48dccc6ff192f9330133622b0536f7b94feca0cf36e7e46fc50060b6f88281565b600080600084815260200190815260200160002060000160008373ffffffffffffffffffffffffffffffffffffffff1673ffffffffffffffffffffffffffffffffffffffff16815260200190815260200160002060009054906101000a900460ff16905092915050565b612edc7f843b48dccc6ff192f9330133622b0536f7b94feca0cf36e7e46fc50060b6f88233612e48565b612f1b576040517f08c379a0000000000000000000000000000000000000000000000000000000008152600401612f1290615749565b60405180910390fd5b60018082604051612f2c9190615102565b908152602001604051809103902060030160156101000a81548160ff0219169083151502179055506040518060400160405280600981526020017f76616c6964617465640000000000000000000000000000000000000000000000815250600182604051612f9a9190615102565b90815260200160405180910390206002019080519060200190612fbe929190613d36565b507fbc0e66a9d9a6660141870110fa7932ebb7fe171d5e52ee9a42674665105f1d1b81604051612fee9190615246565b60405180910390a150565b6000801b81565b6002816040516130109190615102565b908152602001604051809103902060000160009054906101000a900473ffffffffffffffffffffffffffffffffffffffff1673ffffffffffffffffffffffffffffffffffffffff163373ffffffffffffffffffffffffffffffffffffffff16146130af576040517f08c379a00000000000000000000000000000000000000000000000000000000081526004016130a690615629565b60405180910390fd5b600115156002826040516130c39190615102565b908152602001604051809103902060040160009054906101000a900460ff16151514613124576040517f08c379a000000000000000000000000000000000000000000000000000000000815260040161311b906156e9565b60405180910390fd5b600015156002826040516131389190615102565b908152602001604051809103902060040160009054906101000a905050506002816040516131669190615102565b9081526020016040518091039020600080820160006101000a81549073ffffffffffffffffffffffffffffffffffffffff02191690556001820160006101000a81549073ffffffffffffffffffffffffffffffffffffffff02191690556002820160006131d39190613e31565b6003820160006131e39190613e71565b6004820160006101000a81549060ff021916905550507f1a24299bbcab71cb3013c24c40adca455867472f22ae6d056e4e0cb2bb0e5a73816040516132289190615246565b60405180910390a150565b600f5481565b7f47a6ab365f603cf120cb936195de17fd0bac3880ff606e7a0edb5e8e6580b1ae81565b600060016009846040516132719190615102565b90815260200160405180910390208360405161328d9190615102565b9081526020016040518091039020546132a691906158b8565b905092915050565b6002818051602081018201805184825260208301602085012081835280955050505050506000915090508060000160009054906101000a900473ffffffffffffffffffffffffffffffffffffffff16908060010160009054906101000a900473ffffffffffffffffffffffffffffffffffffffff1690806002018054613333906159ce565b80601f016020809104026020016040519081016040528092919081815260200182805461335f906159ce565b80156133ac5780601f10613381576101008083540402835291602001916133ac565b820191906000526020600020905b81548152906001019060200180831161338f57829003601f168201915b5050505050908060040160009054906101000a900460ff16905084565b6133f37f97f21e7273917267af1fea4c3510695aa29abe57349ce57ceec11b346883180333612e48565b613432576040517f08c379a000000000000000000000000000000000000000000000000000000000815260040161342990615589565b60405180910390fd5b6002826040516134429190615102565b908152602001604051809103902060010160009054906101000a900473ffffffffffffffffffffffffffffffffffffffff1673ffffffffffffffffffffffffffffffffffffffff163373ffffffffffffffffffffffffffffffffffffffff16146134e1576040517f08c379a00000000000000000000000000000000000000000000000000000000081526004016134d890615729565b60405180910390fd5b600115156002836040516134f59190615102565b908152602001604051809103902060040160009054906101000a900460ff16151514613556576040517f08c379a000000000000000000000000000000000000000000000000000000000815260040161354d90615709565b60405180910390fd5b6002826040516135669190615102565b9081526020016040518091039020600301819080600181540180825580915050600190039060005260206000200160009091909190915090805190602001906135b0929190613d36565b507f2fd00fee6fba014584e65a085e3eb131b03ff5c389c44c3cf9e857d52c1650d6816040516135e09190615246565b60405180910390a15050565b6003602052806000526040600020600091509050805461360b906159ce565b80601f0160208091040260200160405190810160405280929190818152602001828054613637906159ce565b80156136845780601f1061365957610100808354040283529160200191613684565b820191906000526020600020905b81548152906001019060200180831161366757829003601f168201915b505050505081565b7f97f21e7273917267af1fea4c3510695aa29abe57349ce57ceec11b346883180381565b6136c96136bc836110fa565b6136c4613b6d565b612e48565b613708576040517f08c379a00000000000000000000000000000000000000000000000000000000081526004016136ff906154e9565b60405180910390fd5b6137128282613c55565b5050565b60606001826040516137289190615102565b90815260200160405180910390206002018054613744906159ce565b80601f0160208091040260200160405190810160405280929190818152602001828054613770906159ce565b80156137bd5780601f10613792576101008083540402835291602001916137bd565b820191906000526020600020905b8154815290600101906020018083116137a057829003601f168201915b50505050509050919050565b600d5481565b60066020528060005260406000206000915090508060000160009054906101000a900473ffffffffffffffffffffffffffffffffffffffff16908060010160009054906101000a900473ffffffffffffffffffffffffffffffffffffffff169080600201805461383e906159ce565b80601f016020809104026020016040519081016040528092919081815260200182805461386a906159ce565b80156138b75780601f1061388c576101008083540402835291602001916138b7565b820191906000526020600020905b81548152906001019060200180831161389a57829003601f168201915b5050505050905083565b600b5481565b7f0996d044c7309cb5a01d79c18ee9e4c86aca84367cbd5bfd5f5d0606acc9927381565b60606139177f97f21e7273917267af1fea4c3510695aa29abe57349ce57ceec11b346883180333612e48565b613956576040517f08c379a000000000000000000000000000000000000000000000000000000000815260040161394d90615589565b60405180910390fd5b6002826040516139669190615102565b908152602001604051809103902060010160009054906101000a900473ffffffffffffffffffffffffffffffffffffffff1673ffffffffffffffffffffffffffffffffffffffff163373ffffffffffffffffffffffffffffffffffffffff1614613a05576040517f08c379a00000000000000000000000000000000000000000000000000000000081526004016139fc90615729565b60405180910390fd5b600282604051613a159190615102565b9081526020016040518091039020600301805480602002602001604051908101604052809291908181526020016000905b82821015613af2578382906000526020600020018054613a65906159ce565b80601f0160208091040260200160405190810160405280929190818152602001828054613a91906159ce565b8015613ade5780601f10613ab357610100808354040283529160200191613ade565b820191906000526020600020905b815481529060010190602001808311613ac157829003601f168201915b505050505081526020019060010190613a46565b505050509050919050565b600e5481565b60007f01ffc9a7000000000000000000000000000000000000000000000000000000007bffffffffffffffffffffffffffffffffffffffffffffffffffffffff1916827bffffffffffffffffffffffffffffffffffffffffffffffffffffffff1916149050919050565b600033905090565b613b7f8282612e48565b613c5157600160008084815260200190815260200160002060000160008373ffffffffffffffffffffffffffffffffffffffff1673ffffffffffffffffffffffffffffffffffffffff16815260200190815260200160002060006101000a81548160ff021916908315150217905550613bf6613b6d565b73ffffffffffffffffffffffffffffffffffffffff168173ffffffffffffffffffffffffffffffffffffffff16837f2f8788117e7eff1d82e926ec794901d17c78024a50270940304540a733656f0d60405160405180910390a45b5050565b613c5f8282612e48565b15613d3257600080600084815260200190815260200160002060000160008373ffffffffffffffffffffffffffffffffffffffff1673ffffffffffffffffffffffffffffffffffffffff16815260200190815260200160002060006101000a81548160ff021916908315150217905550613cd7613b6d565b73ffffffffffffffffffffffffffffffffffffffff168173ffffffffffffffffffffffffffffffffffffffff16837ff6391f5c32d9c69d2a47ea670b442974b53935d1edc7fd64eb21e047a839171b60405160405180910390a45b5050565b828054613d42906159ce565b90600052602060002090601f016020900481019282613d645760008555613dab565b82601f10613d7d57805160ff1916838001178555613dab565b82800160010185558215613dab579182015b82811115613daa578251825591602001919060010190613d8f565b5b509050613db89190613e92565b5090565b60405180610100016040528060608152602001600073ffffffffffffffffffffffffffffffffffffffff16815260200160608152602001600073ffffffffffffffffffffffffffffffffffffffff16815260200160001515815260200160001515815260200160008152602001600081525090565b508054613e3d906159ce565b6000825580601f10613e4f5750613e6e565b601f016020900490600052602060002090810190613e6d9190613e92565b5b50565b5080546000825590600052602060002090810190613e8f9190613eaf565b50565b5b80821115613eab576000816000905550600101613e93565b5090565b5b80821115613ecf5760008181613ec69190613e31565b50600101613eb0565b5090565b6000613ee6613ee184615817565b6157e6565b905082815260208101848484011115613efe57600080fd5b613f0984828561598c565b509392505050565b600081359050613f2081615ae7565b92915050565b600081359050613f3581615afe565b92915050565b600081359050613f4a81615b15565b92915050565b600082601f830112613f6157600080fd5b8135613f71848260208601613ed3565b91505092915050565b600081359050613f8981615b2c565b92915050565b600060208284031215613fa157600080fd5b6000613faf84828501613f11565b91505092915050565b60008060408385031215613fcb57600080fd5b6000613fd985828601613f11565b925050602083013567ffffffffffffffff811115613ff657600080fd5b61400285828601613f50565b9150509250929050565b60006020828403121561401e57600080fd5b600061402c84828501613f26565b91505092915050565b6000806040838503121561404857600080fd5b600061405685828601613f26565b925050602061406785828601613f11565b9150509250929050565b60006020828403121561408357600080fd5b600061409184828501613f3b565b91505092915050565b6000602082840312156140ac57600080fd5b600082013567ffffffffffffffff8111156140c657600080fd5b6140d284828501613f50565b91505092915050565b600080604083850312156140ee57600080fd5b600083013567ffffffffffffffff81111561410857600080fd5b61411485828601613f50565b925050602083013567ffffffffffffffff81111561413157600080fd5b61413d85828601613f50565b9150509250929050565b6000806000806080858703121561415d57600080fd5b600085013567ffffffffffffffff81111561417757600080fd5b61418387828801613f50565b945050602085013567ffffffffffffffff8111156141a057600080fd5b6141ac87828801613f50565b935050604085013567ffffffffffffffff8111156141c957600080fd5b6141d587828801613f50565b92505060606141e687828801613f11565b91505092959194509250565b600080600080600060a0868803121561420a57600080fd5b600086013567ffffffffffffffff81111561422457600080fd5b61423088828901613f50565b955050602086013567ffffffffffffffff81111561424d57600080fd5b61425988828901613f50565b945050604086013567ffffffffffffffff81111561427657600080fd5b61428288828901613f50565b935050606086013567ffffffffffffffff81111561429f57600080fd5b6142ab88828901613f50565b92505060806142bc88828901613f11565b9150509295509295909350565b6000602082840312156142db57600080fd5b60006142e984828501613f7a565b91505092915050565b60006142fe83836143c6565b905092915050565b61430f8161590e565b82525050565b61431e8161590e565b82525050565b600061432f82615857565b614339818561587a565b93508360208202850161434b85615847565b8060005b85811015614387578484038952815161436885826142f2565b94506143738361586d565b925060208a0199505060018101905061434f565b50829750879550505050505092915050565b6143a281615920565b82525050565b6143b181615920565b82525050565b6143c08161592c565b82525050565b60006143d182615862565b6143db818561588b565b93506143eb81856020860161599b565b6143f481615ad6565b840191505092915050565b600061440a82615862565b614414818561589c565b935061442481856020860161599b565b61442d81615ad6565b840191505092915050565b600061444382615862565b61444d81856158ad565b935061445d81856020860161599b565b80840191505092915050565b6000614476601a8361589c565b91507f596f752061726520616e20617574686f726974792061646d696e0000000000006000830152602082019050919050565b60006144b6602e8361589c565b91507f4f6e6c792074686520617574686f726974792061646d696e2063616e2061646460008301527f20696e76657374696761746f72730000000000000000000000000000000000006020830152604082019050919050565b600061451c602f8361589c565b91507f416363657373436f6e74726f6c3a2073656e646572206d75737420626520616e60008301527f2061646d696e20746f206772616e7400000000000000000000000000000000006020830152604082019050919050565b600061458260248361589c565b91507f4f6e6c7920617574686f726969746965732063616e2073757370656e6420747260008301527f69616c73000000000000000000000000000000000000000000000000000000006020830152604082019050919050565b60006145e860178361589c565b91507f596f752061726520616e20696e76657374696761746f720000000000000000006000830152602082019050919050565b600061462860368361589c565b91507f596f7520646f206e6f74206861766520726967687420746f206164642070617460008301527f69656e747320746f20746869732070726f746f636f6c000000000000000000006020830152604082019050919050565b600061468e60298361589c565b91507f50726f6d6f746572732061646d696e2063616e6e6f7420626520616e20696e7660008301527f657374696761746f7200000000000000000000000000000000000000000000006020830152604082019050919050565b60006146f4602d8361589c565b91507f4f6e6c79207468652070726f6d6f746f722061646d696e2063616e206164642060008301527f696e76657374696761746f7273000000000000000000000000000000000000006020830152604082019050919050565b600061475a602a8361589c565b91507f596f7520646f206e6f74206861766520726967687420746f206f70656e20746860008301527f69732070726f6a656374000000000000000000000000000000000000000000006020830152604082019050919050565b60006147c060238361589c565b91507f4f6e6c7920617574686f7269746965732063616e2073757370656e642074726960008301527f616c7300000000000000000000000000000000000000000000000000000000006020830152604082019050919050565b600061482660298361589c565b91507f546869732070726f746f636f6c20686173206e6f74206265656e20617574686f60008301527f72697a65642079657400000000000000000000000000000000000000000000006020830152604082019050919050565b600061488c602b8361589c565b91507f417574686f7269746965732061646d696e2063616e6e6f7420626520616e206960008301527f6e76657374696761746f720000000000000000000000000000000000000000006020830152604082019050919050565b60006148f260308361589c565b91507f416363657373436f6e74726f6c3a2073656e646572206d75737420626520616e60008301527f2061646d696e20746f207265766f6b65000000000000000000000000000000006020830152604082019050919050565b600061495860278361589c565b91507f4f6e6c79207468652070726f6d6f746f722063616e2061646420696e7665737460008301527f696761746f7273000000000000000000000000000000000000000000000000006020830152604082019050919050565b60006149be601c8361589c565b91507f596f752061726520616c726561647920616e20617574686f72697479000000006000830152602082019050919050565b60006149fe60148361589c565b91507f596f752061726520616e20617574686f726974790000000000000000000000006000830152602082019050919050565b6000614a3e60238361589c565b91507f4f6e6c792070726f6d6f746572732063616e207375626d69742070726f746f6360008301527f6f6c7300000000000000000000000000000000000000000000000000000000006020830152604082019050919050565b6000614aa460238361589c565b91507f4f6e6c7920696e76657374696761746f72732063616e20636f6c6c656374206460008301527f61746100000000000000000000000000000000000000000000000000000000006020830152604082019050919050565b6000614b0a601a8361589c565b91507f596f752061726520616c726561647920612070726f6d6f7465720000000000006000830152602082019050919050565b6000614b4a601a8361589c565b91507f546869732070617469656e7420616c72656164792065786973740000000000006000830152602082019050919050565b6000614b8a601f8361589c565b91507f596f752061726520616c726561647920616e20696e76657374696761746f72006000830152602082019050919050565b6000614bca60298361589c565b91507f54686520696e76657374696761746f72206d757374206265207265676973746560008301527f72656420666972737400000000000000000000000000000000000000000000006020830152604082019050919050565b6000614c3060168361589c565b91507f596f7572204944206973206e6f7420636f7272656374000000000000000000006000830152602082019050919050565b6000614c7060218361589c565b91507f50726f6d6f746572732063616e6e6f7420626520696e76657374696761746f7260008301527f73000000000000000000000000000000000000000000000000000000000000006020830152604082019050919050565b6000614cd660308361589c565b91507f4f6e6c7920696e76657374696761746f72732063616e2061646420706174696560008301527f6e747320746f2070726f746f636f6c73000000000000000000000000000000006020830152604082019050919050565b6000614d3c60128361589c565b91507f596f752061726520612070726f6d6f74657200000000000000000000000000006000830152602082019050919050565b6000614d7c60228361589c565b91507f5468652070726f746f636f6c20697320616c726561647920726567697374657260008301527f65640000000000000000000000000000000000000000000000000000000000006020830152604082019050919050565b6000614de260238361589c565b91507f417574686f7269746965732063616e6e6f7420626520696e766573746967617460008301527f6f727300000000000000000000000000000000000000000000000000000000006020830152604082019050919050565b6000614e48601f8361589c565b91507f596f7520616c7265616479207265766f6b6520796f757220636f6e73656e74006000830152602082019050919050565b6000614e88601d8361589c565b91507f476574207468652070617469656e7420636f6e73656e742066697273740000006000830152602082019050919050565b6000614ec860268361589c565b91507f596f7520646f206e6f74206861766520726967687420666f722074686973207060008301527f617469656e7400000000000000000000000000000000000000000000000000006020830152604082019050919050565b6000614f2e60318361589c565b91507f4f6e6c7920617574686f726974696573206861766520726967687420746f207660008301527f616c69646174652070726f746f636f6c730000000000000000000000000000006020830152604082019050919050565b6000614f94602f8361589c565b91507f416363657373436f6e74726f6c3a2063616e206f6e6c792072656e6f756e636560008301527f20726f6c657320666f722073656c6600000000000000000000000000000000006020830152604082019050919050565b6000614ffa60188361589c565b91507f596f752061726520612070726f6d6f7465722061646d696e00000000000000006000830152602082019050919050565b600061010083016000830151848203600086015261504b82826143c6565b91505060208301516150606020860182614306565b506040830151848203604086015261507882826143c6565b915050606083015161508d6060860182614306565b5060808301516150a06080860182614399565b5060a08301516150b360a0860182614399565b5060c08301516150c660c08601826150e4565b5060e08301516150d960e08601826150e4565b508091505092915050565b6150ed81615982565b82525050565b6150fc81615982565b82525050565b600061510e8284614438565b915081905092915050565b600060208201905061512e6000830184614315565b92915050565b60006060820190506151496000830186614315565b6151566020830185614315565b818103604083015261516881846143ff565b9050949350505050565b60006080820190506151876000830187614315565b6151946020830186614315565b81810360408301526151a681856143ff565b90506151b560608301846143a8565b95945050505050565b60006040820190506151d36000830185614315565b81810360208301526151e581846143ff565b90509392505050565b600060208201905081810360008301526152088184614324565b905092915050565b600060208201905061522560008301846143a8565b92915050565b600060208201905061524060008301846143b7565b92915050565b6000602082019050818103600083015261526081846143ff565b905092915050565b6000606082019050818103600083015261528281866143ff565b90506152916020830185614315565b61529e6040830184614315565b949350505050565b60006101008201905081810360008301526152c1818b6143ff565b90506152d0602083018a614315565b81810360408301526152e281896143ff565b90506152f16060830188614315565b6152fe60808301876143a8565b61530b60a08301866143a8565b61531860c08301856150f3565b61532560e08301846150f3565b9998505050505050505050565b6000604082019050818103600083015261534c81856143ff565b9050818103602083015261536081846143ff565b90509392505050565b6000602082019050818103600083015261538281614469565b9050919050565b600060208201905081810360008301526153a2816144a9565b9050919050565b600060208201905081810360008301526153c28161450f565b9050919050565b600060208201905081810360008301526153e281614575565b9050919050565b60006020820190508181036000830152615402816145db565b9050919050565b600060208201905081810360008301526154228161461b565b9050919050565b6000602082019050818103600083015261544281614681565b9050919050565b60006020820190508181036000830152615462816146e7565b9050919050565b600060208201905081810360008301526154828161474d565b9050919050565b600060208201905081810360008301526154a2816147b3565b9050919050565b600060208201905081810360008301526154c281614819565b9050919050565b600060208201905081810360008301526154e28161487f565b9050919050565b60006020820190508181036000830152615502816148e5565b9050919050565b600060208201905081810360008301526155228161494b565b9050919050565b60006020820190508181036000830152615542816149b1565b9050919050565b60006020820190508181036000830152615562816149f1565b9050919050565b6000602082019050818103600083015261558281614a31565b9050919050565b600060208201905081810360008301526155a281614a97565b9050919050565b600060208201905081810360008301526155c281614afd565b9050919050565b600060208201905081810360008301526155e281614b3d565b9050919050565b6000602082019050818103600083015261560281614b7d565b9050919050565b6000602082019050818103600083015261562281614bbd565b9050919050565b6000602082019050818103600083015261564281614c23565b9050919050565b6000602082019050818103600083015261566281614c63565b9050919050565b6000602082019050818103600083015261568281614cc9565b9050919050565b600060208201905081810360008301526156a281614d2f565b9050919050565b600060208201905081810360008301526156c281614d6f565b9050919050565b600060208201905081810360008301526156e281614dd5565b9050919050565b6000602082019050818103600083015261570281614e3b565b9050919050565b6000602082019050818103600083015261572281614e7b565b9050919050565b6000602082019050818103600083015261574281614ebb565b9050919050565b6000602082019050818103600083015261576281614f21565b9050919050565b6000602082019050818103600083015261578281614f87565b9050919050565b600060208201905081810360008301526157a281614fed565b9050919050565b600060208201905081810360008301526157c3818461502d565b905092915050565b60006020820190506157e060008301846150f3565b92915050565b6000604051905081810181811067ffffffffffffffff8211171561580d5761580c615aa7565b5b8060405250919050565b600067ffffffffffffffff82111561583257615831615aa7565b5b601f19601f8301169050602081019050919050565b6000819050602082019050919050565b600081519050919050565b600081519050919050565b6000602082019050919050565b600082825260208201905092915050565b600082825260208201905092915050565b600082825260208201905092915050565b600081905092915050565b60006158c382615982565b91506158ce83615982565b9250827fffffffffffffffffffffffffffffffffffffffffffffffffffffffffffffffff0382111561590357615902615a49565b5b828201905092915050565b600061591982615962565b9050919050565b60008115159050919050565b6000819050919050565b60007fffffffff0000000000000000000000000000000000000000000000000000000082169050919050565b600073ffffffffffffffffffffffffffffffffffffffff82169050919050565b6000819050919050565b82818337600083830152505050565b60005b838110156159b957808201518184015260208101905061599e565b838111156159c8576000848401525b50505050565b600060028204905060018216806159e657607f821691505b602082108114156159fa576159f9615a78565b5b50919050565b6000615a0b82615982565b91507fffffffffffffffffffffffffffffffffffffffffffffffffffffffffffffffff821415615a3e57615a3d615a49565b5b600182019050919050565b7f4e487b7100000000000000000000000000000000000000000000000000000000600052601160045260246000fd5b7f4e487b7100000000000000000000000000000000000000000000000000000000600052602260045260246000fd5b7f4e487b7100000000000000000000000000000000000000000000000000000000600052604160045260246000fd5b6000601f19601f8301169050919050565b615af08161590e565b8114615afb57600080fd5b50565b615b078161592c565b8114615b1257600080fd5b50565b615b1e81615936565b8114615b2957600080fd5b50565b615b3581615982565b8114615b4057600080fd5b5056fea264697066735822122056b0abe7ee922d9727fda50b4db307efffb2827e606a056e914afb8160cf0a1564736f6c63430008000033",
  "immutableReferences": {},
  "source": "// SPDX-License-Identifier: MIT\npragma solidity 0.8.0;\n\nimport \"../client/node_modules/@openzeppelin/contracts/access/AccessControl.sol\";\n\ncontract MedTrials is AccessControl {\n    struct Protocol {\n        string cid;\n        address promoter;\n        string status;\n        address investigator;\n        bool registered;\n        bool authorized;\n        uint256 nbOfPatients;\n        uint256 index;\n    }\n\n    struct Patient {\n        address patient;\n        address investigator;\n        string protocolID;\n        string[] cids;\n        bool consent;\n    }\n\n    struct Promoter {\n        address promoter;\n        string cid;\n    }\n\n    struct Investigator {\n        address promoter;\n        address investigator;\n        string cid;\n    }\n\n    struct Authority {\n        address authority;\n        string cid;\n    }\n\n    mapping(string => Protocol) public protocols;\n    mapping(string => Patient) public patients;\n    mapping(uint256 => string) public protocolsID;\n    mapping(uint256 => string) public patientsID;\n    mapping(uint256 => Promoter) public promoters;\n    mapping(uint256 => Investigator) public investigators;\n    mapping(uint256 => Authority) public authorities;\n    mapping(address => string) roles;\n\n    mapping(string => mapping(string => uint256)) private protocolNumerotation;\n    mapping(address => mapping(string => uint256)) private patientNumerotation;\n\n    bytes32 public constant AUTHORITY = keccak256(\"AUTHORITY\");\n    bytes32 public constant AUTHORITY_ADMIN = keccak256(\"AUTHORITYADMIN\");\n    bytes32 public constant PROMOTER = keccak256(\"PROMOTER\");\n    bytes32 public constant PROMOTER_ADMIN = keccak256(\"PROMOTERADMIN\");\n    bytes32 public constant INVESTIGATOR = keccak256(\"INVESTIGATOR\");\n    bytes32 public constant PATIENT = keccak256(\"PATIENT\");\n\n    uint256 public nbOfProtocolsRegistered;\n    uint256 public nbOfPatients;\n    uint256 public nbOfPromoters;\n    uint256 public nbOfInvestigators;\n    uint256 public nbOfAuthorities;\n\n    event promoterAdded(address _address);\n    event authorityAdded(address _address);\n    event investigatorAdded(address _address);\n    event protocolValidated(string _id);\n    event newProtocol(string _id, address _promotor, address _investigator);\n    event patientAdded(string _patientID, string _protocolID);\n    event consentGiven(string _patientID);\n    event consentRevoked(string _patientID);\n    event cidSaved(string _cid);\n    event protocolSuspended(string _protocolID);\n    event protocolResumed(string _protocolID);\n\n    constructor(\n        address _default_admin,\n        address _authorityAdmin,\n        address _promotorAdmin\n    ) {\n        _setupRole(DEFAULT_ADMIN_ROLE, _default_admin);\n\n        _setRoleAdmin(AUTHORITY_ADMIN, DEFAULT_ADMIN_ROLE);\n        _setRoleAdmin(AUTHORITY, AUTHORITY_ADMIN);\n\n        _setRoleAdmin(PROMOTER_ADMIN, DEFAULT_ADMIN_ROLE);\n        _setRoleAdmin(PROMOTER, PROMOTER_ADMIN);\n\n        _setRoleAdmin(INVESTIGATOR, PROMOTER);\n\n        _setRoleAdmin(PATIENT, INVESTIGATOR);\n\n        _setupRole(AUTHORITY_ADMIN, _authorityAdmin);\n        _setupRole(PROMOTER_ADMIN, _promotorAdmin);\n\n        renounceRole(DEFAULT_ADMIN_ROLE, _default_admin);\n\n        roles[_authorityAdmin] = \"AUTHORITY ADMIN\";\n        roles[_promotorAdmin] = \"PROMOTER ADMIN\";\n    }\n\n    function addAuthority(address _address, string memory _cid) public {\n        require(\n            hasRole(AUTHORITY_ADMIN, msg.sender),\n            \"Only the authority admin can add investigators\"\n        );\n        require(!hasRole(AUTHORITY, _address), \"You are already an authority\");\n        require(!hasRole(PROMOTER, _address), \"You are a promoter\");\n        require(!hasRole(INVESTIGATOR, _address), \"You are an investigator\");\n        require(!hasRole(PROMOTER_ADMIN, _address), \"You are a promoter admin\");\n        require(\n            !hasRole(AUTHORITY_ADMIN, _address),\n            \"You are an authority admin\"\n        );\n\n        grantRole(AUTHORITY, _address);\n        roles[_address] = \"AUTHORITY\";\n\n        authorities[nbOfAuthorities].cid = _cid;\n        authorities[nbOfAuthorities].authority = _address;\n        nbOfAuthorities++;\n\n        emit authorityAdded(_address);\n    }\n\n    function addPromoter(address _address, string memory _cid) public {\n        require(\n            hasRole(PROMOTER_ADMIN, msg.sender),\n            \"Only the promotor admin can add investigators\"\n        );\n        require(!hasRole(PROMOTER, _address), \"You are already a promoter\");\n        require(!hasRole(INVESTIGATOR, _address), \"You are an investigator\");\n        require(!hasRole(AUTHORITY, _address), \"You are an authority\");\n        require(!hasRole(PROMOTER_ADMIN, _address), \"You are a promoter admin\");\n        require(\n            !hasRole(AUTHORITY_ADMIN, _address),\n            \"You are an authority admin\"\n        );\n\n        grantRole(PROMOTER, _address);\n        roles[_address] = \"PROMOTER\";\n\n        promoters[nbOfPromoters].cid = _cid;\n        promoters[nbOfPromoters].promoter = _address;\n        nbOfPromoters++;\n\n        emit promoterAdded(_address);\n    }\n\n    function addInvestigator(address _address, string memory _cid) public {\n        require(\n            hasRole(PROMOTER, msg.sender),\n            \"Only the promotor can add investigators\"\n        );\n        require(\n            !hasRole(INVESTIGATOR, _address),\n            \"You are already an investigator\"\n        );\n        require(!hasRole(PROMOTER, _address), \"You are a promoter\");\n        require(!hasRole(AUTHORITY, _address), \"You are an authority\");\n        require(!hasRole(PROMOTER_ADMIN, _address), \"You are a promoter admin\");\n        require(\n            !hasRole(AUTHORITY_ADMIN, _address),\n            \"You are an authority admin\"\n        );\n\n        grantRole(INVESTIGATOR, _address);\n        roles[_address] = \"INVESTIGATOR\";\n\n        investigators[nbOfInvestigators].cid = _cid;\n        investigators[nbOfInvestigators].promoter = msg.sender;\n        investigators[nbOfInvestigators].investigator = _address;\n        nbOfInvestigators++;\n\n        emit investigatorAdded(_address);\n    }\n\n    function registerProtocol(\n        string memory _id,\n        string memory _cid,\n        string memory center,\n        string memory category,\n        address _investigator\n    ) public {\n        require(\n            hasRole(PROMOTER, msg.sender),\n            \"Only promoters can submit protocols\"\n        );\n        require(\n            !hasRole(PROMOTER, _investigator),\n            \"Promoters cannot be investigators\"\n        );\n        require(\n            !hasRole(AUTHORITY, _investigator),\n            \"Authorities cannot be investigators\"\n        );\n        require(\n            !hasRole(PROMOTER_ADMIN, _investigator),\n            \"Promoters admin cannot be an investigator\"\n        );\n        require(\n            !hasRole(AUTHORITY_ADMIN, _investigator),\n            \"Authorities admin cannot be an investigator\"\n        );\n        require(\n            hasRole(INVESTIGATOR, _investigator),\n            \"The investigator must be registered first\"\n        );\n        require(\n            !protocols[_id].registered,\n            \"The protocol is already registered\"\n        );\n\n        protocols[_id].promoter = msg.sender;\n        protocols[_id].investigator = _investigator;\n        protocols[_id].registered = true;\n        protocols[_id].cid = _cid;\n        protocols[_id].status = \"registered\";\n        protocols[_id].index = nbOfProtocolsRegistered;\n\n        protocolsID[nbOfProtocolsRegistered] = _id;\n        nbOfProtocolsRegistered++;\n\n        protocolNumerotation[center][category]++;\n\n        emit newProtocol(_id, msg.sender, _investigator);\n    }\n\n    function getProtocolCID(string memory _id)\n        public\n        view\n        returns (string memory)\n    {\n        require(\n            protocols[_id].promoter == msg.sender ||\n                protocols[_id].investigator == msg.sender,\n            \"You do not have right to open this project\"\n        );\n\n        return protocols[_id].cid;\n    }\n\n    function validateProtocol(string memory _id) public {\n        require(\n            hasRole(AUTHORITY, msg.sender),\n            \"Only authorities have right to validate protocols\"\n        );\n\n        protocols[_id].authorized = true;\n        protocols[_id].status = \"validated\";\n\n        emit protocolValidated(_id);\n    }\n\n    function getProtocol(string memory _id)\n        public\n        view\n        returns (Protocol memory)\n    {\n        return protocols[_id];\n    }\n\n    function addPatient(\n        string memory _cid,\n        string memory _patientID,\n        string memory _protocolID,\n        address _patientAddress\n    ) public {\n        require(\n            hasRole(INVESTIGATOR, msg.sender),\n            \"Only investigators can add patients to protocols\"\n        );\n        require(\n            protocols[_protocolID].authorized == true,\n            \"This protocol has not been authorized yet\"\n        );\n        require(\n            msg.sender == protocols[_protocolID].investigator,\n            \"You do not have right to add patients to this protocol\"\n        );\n        require(\n            _patientAddress != patients[_patientID].patient,\n            \"This patient already exist\"\n        );\n\n        patients[_patientID].consent = true;\n        patients[_patientID].patient = _patientAddress;\n        patients[_patientID].investigator = msg.sender;\n        patients[_patientID].protocolID = _protocolID;\n        protocols[_protocolID].nbOfPatients++;\n        patients[_patientID].cids.push(_cid);\n\n        patientsID[nbOfPatients] = _patientID;\n        patientNumerotation[msg.sender][_protocolID]++;\n\n        grantRole(PATIENT, _patientAddress);\n        roles[_patientAddress] = \"PATIENT\";\n\n        emit patientAdded(_patientID, _protocolID);\n    }\n\n    function revokeConsent(string memory _patientID) public {\n        require(\n            msg.sender == patients[_patientID].patient,\n            \"Your ID is not correct\"\n        );\n        require(\n            patients[_patientID].consent == true,\n            \"You already revoke your consent\"\n        );\n\n        patients[_patientID].consent == false;\n        delete patients[_patientID];\n\n        emit consentRevoked(_patientID);\n    }\n\n    function suspendTrials(string memory _protocolID) public {\n        require(\n            hasRole(AUTHORITY, msg.sender),\n            \"Only authoriities can suspend trials\"\n        );\n        require(protocols[_protocolID].authorized);\n\n        protocols[_protocolID].authorized = false;\n        protocols[_protocolID].status = \"suspended\";\n\n        emit protocolSuspended(_protocolID);\n    }\n\n    function resumeTrials(string memory _protocolID) public {\n        require(\n            hasRole(AUTHORITY, msg.sender),\n            \"Only authorities can suspend trials\"\n        );\n        require(!protocols[_protocolID].authorized);\n\n        protocols[_protocolID].authorized = true;\n        protocols[_protocolID].status = \"resumed\";\n\n        emit protocolResumed(_protocolID);\n    }\n\n    function storeDataCID(string memory _patientID, string memory _cid) public {\n        require(\n            hasRole(INVESTIGATOR, msg.sender),\n            \"Only investigators can collect data\"\n        );\n        require(\n            msg.sender == patients[_patientID].investigator,\n            \"You do not have right for this patient\"\n        );\n        require(\n            patients[_patientID].consent == true,\n            \"Get the patient consent first\"\n        );\n\n        patients[_patientID].cids.push(_cid);\n\n        emit cidSaved(_cid);\n    }\n\n    function getDataCID(string memory _patientID)\n        public\n        view\n        returns (string[] memory)\n    {\n        require(\n            hasRole(INVESTIGATOR, msg.sender),\n            \"Only investigators can collect data\"\n        );\n        require(\n            msg.sender == patients[_patientID].investigator,\n            \"You do not have right for this patient\"\n        );\n\n        return patients[_patientID].cids;\n    }\n\n    function getProtocolStatus(string memory _protocolID)\n        public\n        view\n        returns (string memory)\n    {\n        return protocols[_protocolID].status;\n    }\n\n    function getRole(address _address) public view returns (string memory) {\n        return roles[_address];\n    }\n\n    function getProtocoleNumerotation(\n        string memory center,\n        string memory category\n    ) public view returns (uint256) {\n        return protocolNumerotation[center][category] + 1;\n    }\n\n    function getPatientNumerotation(string memory _protocolID)\n        public\n        view\n        returns (uint256)\n    {\n        return patientNumerotation[msg.sender][_protocolID] + 1;\n    }\n}\n",
  "sourcePath": "/Users/samuel/Documents/Projet/Pojet_Dev/MedTrials/contracts/MedTrials.sol",
  "compiler": {
    "name": "solc",
    "version": "0.8.0+commit.c7dfd78e.Emscripten.clang"
  },
  "schemaVersion": "3.3.4",
  "updatedAt": "2021-05-09T18:57:07.655Z",
  "networkType": "ethereum",
  "devdoc": {
    "kind": "dev",
    "methods": {
      "getRoleAdmin(bytes32)": {
        "details": "Returns the admin role that controls `role`. See {grantRole} and {revokeRole}. To change a role's admin, use {_setRoleAdmin}."
      },
      "grantRole(bytes32,address)": {
        "details": "Grants `role` to `account`. If `account` had not been already granted `role`, emits a {RoleGranted} event. Requirements: - the caller must have ``role``'s admin role."
      },
      "hasRole(bytes32,address)": {
        "details": "Returns `true` if `account` has been granted `role`."
      },
      "renounceRole(bytes32,address)": {
        "details": "Revokes `role` from the calling account. Roles are often managed via {grantRole} and {revokeRole}: this function's purpose is to provide a mechanism for accounts to lose their privileges if they are compromised (such as when a trusted device is misplaced). If the calling account had been granted `role`, emits a {RoleRevoked} event. Requirements: - the caller must be `account`."
      },
      "revokeRole(bytes32,address)": {
        "details": "Revokes `role` from `account`. If `account` had been granted `role`, emits a {RoleRevoked} event. Requirements: - the caller must have ``role``'s admin role."
      },
      "supportsInterface(bytes4)": {
        "details": "See {IERC165-supportsInterface}."
      }
    },
    "version": 1
  },
  "userdoc": {
    "kind": "user",
    "methods": {},
    "version": 1
  }
}