{
  "contractName": "MedTrials",
  "abi": [
    {
      "inputs": [
        {
          "internalType": "address",
          "name": "_default_admin",
          "type": "address"
        },
        {
          "internalType": "address",
          "name": "_authorityAdmin",
          "type": "address"
        },
        {
          "internalType": "address",
          "name": "_promotorAdmin",
          "type": "address"
        }
      ],
      "stateMutability": "nonpayable",
      "type": "constructor"
    },
    {
      "anonymous": false,
      "inputs": [
        {
          "indexed": true,
          "internalType": "bytes32",
          "name": "role",
          "type": "bytes32"
        },
        {
          "indexed": true,
          "internalType": "bytes32",
          "name": "previousAdminRole",
          "type": "bytes32"
        },
        {
          "indexed": true,
          "internalType": "bytes32",
          "name": "newAdminRole",
          "type": "bytes32"
        }
      ],
      "name": "RoleAdminChanged",
      "type": "event"
    },
    {
      "anonymous": false,
      "inputs": [
        {
          "indexed": true,
          "internalType": "bytes32",
          "name": "role",
          "type": "bytes32"
        },
        {
          "indexed": true,
          "internalType": "address",
          "name": "account",
          "type": "address"
        },
        {
          "indexed": true,
          "internalType": "address",
          "name": "sender",
          "type": "address"
        }
      ],
      "name": "RoleGranted",
      "type": "event"
    },
    {
      "anonymous": false,
      "inputs": [
        {
          "indexed": true,
          "internalType": "bytes32",
          "name": "role",
          "type": "bytes32"
        },
        {
          "indexed": true,
          "internalType": "address",
          "name": "account",
          "type": "address"
        },
        {
          "indexed": true,
          "internalType": "address",
          "name": "sender",
          "type": "address"
        }
      ],
      "name": "RoleRevoked",
      "type": "event"
    },
    {
      "anonymous": false,
      "inputs": [
        {
          "indexed": false,
          "internalType": "address",
          "name": "_address",
          "type": "address"
        }
      ],
      "name": "authorityAdded",
      "type": "event"
    },
    {
      "anonymous": false,
      "inputs": [
        {
          "indexed": false,
          "internalType": "string",
          "name": "_cid",
          "type": "string"
        }
      ],
      "name": "cidSaved",
      "type": "event"
    },
    {
      "anonymous": false,
      "inputs": [
        {
          "indexed": false,
          "internalType": "string",
          "name": "_patientID",
          "type": "string"
        }
      ],
      "name": "consentGiven",
      "type": "event"
    },
    {
      "anonymous": false,
      "inputs": [
        {
          "indexed": false,
          "internalType": "string",
          "name": "_patientID",
          "type": "string"
        }
      ],
      "name": "consentRevoked",
      "type": "event"
    },
    {
      "anonymous": false,
      "inputs": [
        {
          "indexed": false,
          "internalType": "address",
          "name": "_address",
          "type": "address"
        }
      ],
      "name": "investigatorAdded",
      "type": "event"
    },
    {
      "anonymous": false,
      "inputs": [
        {
          "indexed": false,
          "internalType": "string",
          "name": "_id",
          "type": "string"
        },
        {
          "indexed": false,
          "internalType": "address",
          "name": "_promotor",
          "type": "address"
        },
        {
          "indexed": false,
          "internalType": "address",
          "name": "_investigator",
          "type": "address"
        }
      ],
      "name": "newProtocol",
      "type": "event"
    },
    {
      "anonymous": false,
      "inputs": [
        {
          "indexed": false,
          "internalType": "string",
          "name": "_patientID",
          "type": "string"
        },
        {
          "indexed": false,
          "internalType": "string",
          "name": "_protocolID",
          "type": "string"
        }
      ],
      "name": "patientAdded",
      "type": "event"
    },
    {
      "anonymous": false,
      "inputs": [
        {
          "indexed": false,
          "internalType": "address",
          "name": "_address",
          "type": "address"
        }
      ],
      "name": "promoterAdded",
      "type": "event"
    },
    {
      "anonymous": false,
      "inputs": [
        {
          "indexed": false,
          "internalType": "string",
          "name": "_protocolID",
          "type": "string"
        }
      ],
      "name": "protocolResumed",
      "type": "event"
    },
    {
      "anonymous": false,
      "inputs": [
        {
          "indexed": false,
          "internalType": "string",
          "name": "_protocolID",
          "type": "string"
        }
      ],
      "name": "protocolSuspended",
      "type": "event"
    },
    {
      "anonymous": false,
      "inputs": [
        {
          "indexed": false,
          "internalType": "string",
          "name": "_id",
          "type": "string"
        }
      ],
      "name": "protocolValidated",
      "type": "event"
    },
    {
      "inputs": [],
      "name": "AUTHORITY",
      "outputs": [
        {
          "internalType": "bytes32",
          "name": "",
          "type": "bytes32"
        }
      ],
      "stateMutability": "view",
      "type": "function",
      "constant": true
    },
    {
      "inputs": [],
      "name": "AUTHORITY_ADMIN",
      "outputs": [
        {
          "internalType": "bytes32",
          "name": "",
          "type": "bytes32"
        }
      ],
      "stateMutability": "view",
      "type": "function",
      "constant": true
    },
    {
      "inputs": [],
      "name": "DEFAULT_ADMIN_ROLE",
      "outputs": [
        {
          "internalType": "bytes32",
          "name": "",
          "type": "bytes32"
        }
      ],
      "stateMutability": "view",
      "type": "function",
      "constant": true
    },
    {
      "inputs": [],
      "name": "INVESTIGATOR",
      "outputs": [
        {
          "internalType": "bytes32",
          "name": "",
          "type": "bytes32"
        }
      ],
      "stateMutability": "view",
      "type": "function",
      "constant": true
    },
    {
      "inputs": [],
      "name": "PATIENT",
      "outputs": [
        {
          "internalType": "bytes32",
          "name": "",
          "type": "bytes32"
        }
      ],
      "stateMutability": "view",
      "type": "function",
      "constant": true
    },
    {
      "inputs": [],
      "name": "PROMOTER",
      "outputs": [
        {
          "internalType": "bytes32",
          "name": "",
          "type": "bytes32"
        }
      ],
      "stateMutability": "view",
      "type": "function",
      "constant": true
    },
    {
      "inputs": [],
      "name": "PROMOTER_ADMIN",
      "outputs": [
        {
          "internalType": "bytes32",
          "name": "",
          "type": "bytes32"
        }
      ],
      "stateMutability": "view",
      "type": "function",
      "constant": true
    },
    {
      "inputs": [
        {
          "internalType": "bytes32",
          "name": "role",
          "type": "bytes32"
        }
      ],
      "name": "getRoleAdmin",
      "outputs": [
        {
          "internalType": "bytes32",
          "name": "",
          "type": "bytes32"
        }
      ],
      "stateMutability": "view",
      "type": "function",
      "constant": true
    },
    {
      "inputs": [
        {
          "internalType": "bytes32",
          "name": "role",
          "type": "bytes32"
        },
        {
          "internalType": "address",
          "name": "account",
          "type": "address"
        }
      ],
      "name": "grantRole",
      "outputs": [],
      "stateMutability": "nonpayable",
      "type": "function"
    },
    {
      "inputs": [
        {
          "internalType": "bytes32",
          "name": "role",
          "type": "bytes32"
        },
        {
          "internalType": "address",
          "name": "account",
          "type": "address"
        }
      ],
      "name": "hasRole",
      "outputs": [
        {
          "internalType": "bool",
          "name": "",
          "type": "bool"
        }
      ],
      "stateMutability": "view",
      "type": "function",
      "constant": true
    },
    {
      "inputs": [],
      "name": "nbOfPatients",
      "outputs": [
        {
          "internalType": "uint256",
          "name": "",
          "type": "uint256"
        }
      ],
      "stateMutability": "view",
      "type": "function",
      "constant": true
    },
    {
      "inputs": [],
      "name": "nbOfPromoters",
      "outputs": [
        {
          "internalType": "uint256",
          "name": "",
          "type": "uint256"
        }
      ],
      "stateMutability": "view",
      "type": "function",
      "constant": true
    },
    {
      "inputs": [],
      "name": "nbOfProtocolsRegistered",
      "outputs": [
        {
          "internalType": "uint256",
          "name": "",
          "type": "uint256"
        }
      ],
      "stateMutability": "view",
      "type": "function",
      "constant": true
    },
    {
      "inputs": [
        {
          "internalType": "string",
          "name": "",
          "type": "string"
        }
      ],
      "name": "patients",
      "outputs": [
        {
          "internalType": "address",
          "name": "patient",
          "type": "address"
        },
        {
          "internalType": "address",
          "name": "investigator",
          "type": "address"
        },
        {
          "internalType": "string",
          "name": "protocolID",
          "type": "string"
        },
        {
          "internalType": "bool",
          "name": "consent",
          "type": "bool"
        }
      ],
      "stateMutability": "view",
      "type": "function",
      "constant": true
    },
    {
      "inputs": [
        {
          "internalType": "uint256",
          "name": "",
          "type": "uint256"
        }
      ],
      "name": "promoters",
      "outputs": [
        {
          "internalType": "address",
          "name": "promoter",
          "type": "address"
        },
        {
          "internalType": "string",
          "name": "cid",
          "type": "string"
        }
      ],
      "stateMutability": "view",
      "type": "function",
      "constant": true
    },
    {
      "inputs": [
        {
          "internalType": "string",
          "name": "",
          "type": "string"
        }
      ],
      "name": "protocols",
      "outputs": [
        {
          "internalType": "string",
          "name": "cid",
          "type": "string"
        },
        {
          "internalType": "address",
          "name": "promoter",
          "type": "address"
        },
        {
          "internalType": "address",
          "name": "investigator",
          "type": "address"
        },
        {
          "internalType": "bool",
          "name": "registered",
          "type": "bool"
        },
        {
          "internalType": "bool",
          "name": "authorized",
          "type": "bool"
        },
        {
          "internalType": "uint256",
          "name": "nbOfPatients",
          "type": "uint256"
        },
        {
          "internalType": "uint256",
          "name": "index",
          "type": "uint256"
        },
        {
          "internalType": "string",
          "name": "status",
          "type": "string"
        }
      ],
      "stateMutability": "view",
      "type": "function",
      "constant": true
    },
    {
      "inputs": [
        {
          "internalType": "uint256",
          "name": "",
          "type": "uint256"
        }
      ],
      "name": "protocolsID",
      "outputs": [
        {
          "internalType": "string",
          "name": "",
          "type": "string"
        }
      ],
      "stateMutability": "view",
      "type": "function",
      "constant": true
    },
    {
      "inputs": [
        {
          "internalType": "bytes32",
          "name": "role",
          "type": "bytes32"
        },
        {
          "internalType": "address",
          "name": "account",
          "type": "address"
        }
      ],
      "name": "renounceRole",
      "outputs": [],
      "stateMutability": "nonpayable",
      "type": "function"
    },
    {
      "inputs": [
        {
          "internalType": "bytes32",
          "name": "role",
          "type": "bytes32"
        },
        {
          "internalType": "address",
          "name": "account",
          "type": "address"
        }
      ],
      "name": "revokeRole",
      "outputs": [],
      "stateMutability": "nonpayable",
      "type": "function"
    },
    {
      "inputs": [
        {
          "internalType": "bytes4",
          "name": "interfaceId",
          "type": "bytes4"
        }
      ],
      "name": "supportsInterface",
      "outputs": [
        {
          "internalType": "bool",
          "name": "",
          "type": "bool"
        }
      ],
      "stateMutability": "view",
      "type": "function",
      "constant": true
    },
    {
      "inputs": [
        {
          "internalType": "address",
          "name": "_address",
          "type": "address"
        }
      ],
      "name": "isAuthority",
      "outputs": [
        {
          "internalType": "bool",
          "name": "",
          "type": "bool"
        }
      ],
      "stateMutability": "view",
      "type": "function",
      "constant": true
    },
    {
      "inputs": [
        {
          "internalType": "address",
          "name": "_address",
          "type": "address"
        }
      ],
      "name": "isPromoter",
      "outputs": [
        {
          "internalType": "bool",
          "name": "",
          "type": "bool"
        }
      ],
      "stateMutability": "view",
      "type": "function",
      "constant": true
    },
    {
      "inputs": [
        {
          "internalType": "address",
          "name": "_address",
          "type": "address"
        }
      ],
      "name": "isInvestigator",
      "outputs": [
        {
          "internalType": "bool",
          "name": "",
          "type": "bool"
        }
      ],
      "stateMutability": "view",
      "type": "function",
      "constant": true
    },
    {
      "inputs": [
        {
          "internalType": "address",
          "name": "_address",
          "type": "address"
        },
        {
          "internalType": "string",
          "name": "_cid",
          "type": "string"
        }
      ],
      "name": "addPromoter",
      "outputs": [],
      "stateMutability": "nonpayable",
      "type": "function"
    },
    {
      "inputs": [
        {
          "internalType": "address",
          "name": "_address",
          "type": "address"
        }
      ],
      "name": "addInvestigator",
      "outputs": [],
      "stateMutability": "nonpayable",
      "type": "function"
    },
    {
      "inputs": [
        {
          "internalType": "address",
          "name": "_address",
          "type": "address"
        }
      ],
      "name": "addAuthority",
      "outputs": [],
      "stateMutability": "nonpayable",
      "type": "function"
    },
    {
      "inputs": [
        {
          "internalType": "string",
          "name": "_id",
          "type": "string"
        },
        {
          "internalType": "string",
          "name": "_cid",
          "type": "string"
        },
        {
          "internalType": "string",
          "name": "center",
          "type": "string"
        },
        {
          "internalType": "string",
          "name": "category",
          "type": "string"
        },
        {
          "internalType": "address",
          "name": "_investigator",
          "type": "address"
        }
      ],
      "name": "registerProtocol",
      "outputs": [],
      "stateMutability": "nonpayable",
      "type": "function"
    },
    {
      "inputs": [
        {
          "internalType": "string",
          "name": "_id",
          "type": "string"
        }
      ],
      "name": "getProtocolCID",
      "outputs": [
        {
          "internalType": "string",
          "name": "",
          "type": "string"
        }
      ],
      "stateMutability": "view",
      "type": "function",
      "constant": true
    },
    {
      "inputs": [
        {
          "internalType": "string",
          "name": "_id",
          "type": "string"
        }
      ],
      "name": "validateProtocol",
      "outputs": [],
      "stateMutability": "nonpayable",
      "type": "function"
    },
    {
      "inputs": [
        {
          "internalType": "string",
          "name": "_id",
          "type": "string"
        }
      ],
      "name": "getProtocol",
      "outputs": [
        {
          "components": [
            {
              "internalType": "string",
              "name": "cid",
              "type": "string"
            },
            {
              "internalType": "address",
              "name": "promoter",
              "type": "address"
            },
            {
              "internalType": "address",
              "name": "investigator",
              "type": "address"
            },
            {
              "internalType": "bool",
              "name": "registered",
              "type": "bool"
            },
            {
              "internalType": "bool",
              "name": "authorized",
              "type": "bool"
            },
            {
              "internalType": "uint256",
              "name": "nbOfPatients",
              "type": "uint256"
            },
            {
              "internalType": "uint256",
              "name": "index",
              "type": "uint256"
            },
            {
              "internalType": "string",
              "name": "status",
              "type": "string"
            }
          ],
          "internalType": "struct MedTrials.Protocol",
          "name": "",
          "type": "tuple"
        }
      ],
      "stateMutability": "view",
      "type": "function",
      "constant": true
    },
    {
      "inputs": [
        {
          "internalType": "string",
          "name": "_patientID",
          "type": "string"
        },
        {
          "internalType": "address",
          "name": "_patientAddress",
          "type": "address"
        },
        {
          "internalType": "string",
          "name": "_protocolID",
          "type": "string"
        }
      ],
      "name": "addPatient",
      "outputs": [],
      "stateMutability": "nonpayable",
      "type": "function"
    },
    {
      "inputs": [
        {
          "internalType": "string",
          "name": "_patientID",
          "type": "string"
        }
      ],
      "name": "giveConsent",
      "outputs": [],
      "stateMutability": "nonpayable",
      "type": "function"
    },
    {
      "inputs": [
        {
          "internalType": "string",
          "name": "_patientID",
          "type": "string"
        }
      ],
      "name": "revokeConsent",
      "outputs": [],
      "stateMutability": "nonpayable",
      "type": "function"
    },
    {
      "inputs": [
        {
          "internalType": "string",
          "name": "_protocolID",
          "type": "string"
        }
      ],
      "name": "suspendTrials",
      "outputs": [],
      "stateMutability": "nonpayable",
      "type": "function"
    },
    {
      "inputs": [
        {
          "internalType": "string",
          "name": "_protocolID",
          "type": "string"
        }
      ],
      "name": "resumeTrials",
      "outputs": [],
      "stateMutability": "nonpayable",
      "type": "function"
    },
    {
      "inputs": [
        {
          "internalType": "string",
          "name": "_patientID",
          "type": "string"
        },
        {
          "internalType": "string",
          "name": "_cid",
          "type": "string"
        }
      ],
      "name": "storeDataCID",
      "outputs": [],
      "stateMutability": "nonpayable",
      "type": "function"
    },
    {
      "inputs": [
        {
          "internalType": "string",
          "name": "_patientID",
          "type": "string"
        }
      ],
      "name": "getDataCID",
      "outputs": [
        {
          "internalType": "string[]",
          "name": "",
          "type": "string[]"
        }
      ],
      "stateMutability": "view",
      "type": "function",
      "constant": true
    },
    {
      "inputs": [
        {
          "internalType": "string",
          "name": "_protocolID",
          "type": "string"
        }
      ],
      "name": "getProtocolStatus",
      "outputs": [
        {
          "internalType": "string",
          "name": "",
          "type": "string"
        }
      ],
      "stateMutability": "view",
      "type": "function",
      "constant": true
    },
    {
      "inputs": [
        {
          "internalType": "string",
          "name": "_protocolID",
          "type": "string"
        }
      ],
      "name": "numberOfPatientByProtocol",
      "outputs": [
        {
          "internalType": "uint256",
          "name": "",
          "type": "uint256"
        }
      ],
      "stateMutability": "view",
      "type": "function",
      "constant": true
    },
    {
      "inputs": [
        {
          "internalType": "address",
          "name": "_address",
          "type": "address"
        }
      ],
      "name": "getRole",
      "outputs": [
        {
          "internalType": "string",
          "name": "",
          "type": "string"
        }
      ],
      "stateMutability": "view",
      "type": "function",
      "constant": true
    },
    {
      "inputs": [
        {
          "internalType": "string",
          "name": "center",
          "type": "string"
        },
        {
          "internalType": "string",
          "name": "category",
          "type": "string"
        }
      ],
      "name": "getProtocoleNumerotation",
      "outputs": [
        {
          "internalType": "uint256",
          "name": "",
          "type": "uint256"
        }
      ],
      "stateMutability": "view",
      "type": "function",
      "constant": true
    }
  ],
  "bytecode": "0x60806040523480156200001157600080fd5b5060405162005cb838038062005cb88339818101604052810190620000379190620005eb565b6200004c6000801b846200032f60201b60201c565b620000817f3e206be88d1de4207c0189003e17add3718b1a1bf78910a785940577239bbdae6000801b6200034560201b60201c565b620000d37f843b48dccc6ff192f9330133622b0536f7b94feca0cf36e7e46fc50060b6f8827f3e206be88d1de4207c0189003e17add3718b1a1bf78910a785940577239bbdae6200034560201b60201c565b620001087f47a6ab365f603cf120cb936195de17fd0bac3880ff606e7a0edb5e8e6580b1ae6000801b6200034560201b60201c565b6200015a7f0996d044c7309cb5a01d79c18ee9e4c86aca84367cbd5bfd5f5d0606acc992737f47a6ab365f603cf120cb936195de17fd0bac3880ff606e7a0edb5e8e6580b1ae6200034560201b60201c565b620001ac7f97f21e7273917267af1fea4c3510695aa29abe57349ce57ceec11b34688318037f0996d044c7309cb5a01d79c18ee9e4c86aca84367cbd5bfd5f5d0606acc992736200034560201b60201c565b620001de7f3e206be88d1de4207c0189003e17add3718b1a1bf78910a785940577239bbdae836200032f60201b60201c565b620002107f47a6ab365f603cf120cb936195de17fd0bac3880ff606e7a0edb5e8e6580b1ae826200032f60201b60201c565b6040518060400160405280600f81526020017f415554484f524954592041444d494e0000000000000000000000000000000000815250600560008473ffffffffffffffffffffffffffffffffffffffff1673ffffffffffffffffffffffffffffffffffffffff16815260200190815260200160002090805190602001906200029a92919062000524565b506040518060400160405280600e81526020017f50524f4d4f5445522041444d494e000000000000000000000000000000000000815250600560008373ffffffffffffffffffffffffffffffffffffffff1673ffffffffffffffffffffffffffffffffffffffff16815260200190815260200160002090805190602001906200032592919062000524565b50505050620006f4565b620003418282620003a260201b60201c565b5050565b8062000357836200049360201b60201c565b837fbd79b86ffe0ab8e8776151514217cd7cacd52c909f66475c3af44e129f0b00ff60405160405180910390a480600080848152602001908152602001600020600101819055505050565b620003b48282620004b260201b60201c565b6200048f57600160008084815260200190815260200160002060000160008373ffffffffffffffffffffffffffffffffffffffff1673ffffffffffffffffffffffffffffffffffffffff16815260200190815260200160002060006101000a81548160ff021916908315150217905550620004346200051c60201b60201c565b73ffffffffffffffffffffffffffffffffffffffff168173ffffffffffffffffffffffffffffffffffffffff16837f2f8788117e7eff1d82e926ec794901d17c78024a50270940304540a733656f0d60405160405180910390a45b5050565b6000806000838152602001908152602001600020600101549050919050565b600080600084815260200190815260200160002060000160008373ffffffffffffffffffffffffffffffffffffffff1673ffffffffffffffffffffffffffffffffffffffff16815260200190815260200160002060009054906101000a900460ff16905092915050565b600033905090565b828054620005329062000675565b90600052602060002090601f016020900481019282620005565760008555620005a2565b82601f106200057157805160ff1916838001178555620005a2565b82800160010185558215620005a2579182015b82811115620005a157825182559160200191906001019062000584565b5b509050620005b19190620005b5565b5090565b5b80821115620005d0576000816000905550600101620005b6565b5090565b600081519050620005e581620006da565b92915050565b6000806000606084860312156200060157600080fd5b60006200061186828701620005d4565b93505060206200062486828701620005d4565b92505060406200063786828701620005d4565b9150509250925092565b60006200064e8262000655565b9050919050565b600073ffffffffffffffffffffffffffffffffffffffff82169050919050565b600060028204905060018216806200068e57607f821691505b60208210811415620006a557620006a4620006ab565b5b50919050565b7f4e487b7100000000000000000000000000000000000000000000000000000000600052602260045260246000fd5b620006e58162000641565b8114620006f157600080fd5b50565b6155b480620007046000396000f3fe608060405234801561001057600080fd5b50600436106102535760003560e01c806389fcd79611610146578063cb39dce5116100c3578063e1d862d911610087578063e1d862d914610785578063e5078ed7146107a3578063ebc48391146107bf578063ec9f4bda146107dd578063ed5ea0d2146107fb578063f7f093b61461081757610253565b8063cb39dce5146106cf578063cd5c3b2b146106eb578063cf2a9a931461071b578063d547741f14610739578063d751b1501461075557610253565b8063acfa3c671161010a578063acfa3c6714610602578063c1bd2c2014610632578063c36f577514610650578063c4f398301461066c578063c6009d841461069c57610253565b806389fcd7961461055e57806391d148541461057c578063a1a8316b146105ac578063a217fddf146105c8578063a24d9658146105e657610253565b806336568abe116101d4578063591fe6da11610198578063591fe6da146104925780637ba3ae71146104b05780637beb4107146104e05780637cb76b8b14610510578063834afa811461054057610253565b806336568abe146103c9578063393618a7146103e55780633f0bee32146104015780634427673314610432578063484ed33e1461046257610253565b8063248a9ca31161021b578063248a9ca31461032957806326defa73146103595780632de6388f146103755780632f2ff15d146103915780632f77e62f146103ad57610253565b806301ffc9a71461025857806309c1ce8b146102885780631dae9454146102a45780631f500061146102db5780632330f247146102f9575b600080fd5b610272600480360381019061026d9190613bd6565b610847565b60405161027f9190614c8b565b60405180910390f35b6102a2600480360381019061029d9190613d2b565b6108c1565b005b6102be60048036038101906102b99190613bff565b610de5565b6040516102d2989796959493929190614d21565b60405180910390f35b6102e3610fad565b6040516102f09190614ca6565b60405180910390f35b610313600480360381019061030e9190613af4565b610fd1565b6040516103209190614c8b565b60405180910390f35b610343600480360381019061033e9190613b71565b611004565b6040516103509190614ca6565b60405180910390f35b610373600480360381019061036e9190613af4565b611023565b005b61038f600480360381019061038a9190613bff565b6112b7565b005b6103ab60048036038101906103a69190613b9a565b611437565b005b6103c760048036038101906103c29190613bff565b61149d565b005b6103e360048036038101906103de9190613b9a565b61161d565b005b6103ff60048036038101906103fa9190613b1d565b6116a0565b005b61041b60048036038101906104169190613e02565b6119d1565b604051610429929190614c39565b60405180910390f35b61044c60048036038101906104479190613af4565b611a9d565b6040516104599190614cc1565b60405180910390f35b61047c60048036038101906104779190613bff565b611b6e565b6040516104899190615206565b60405180910390f35b61049a611b99565b6040516104a79190614ca6565b60405180910390f35b6104ca60048036038101906104c59190613bff565b611bbd565b6040516104d79190614cc1565b60405180910390f35b6104fa60048036038101906104f59190613bff565b611e9e565b60405161050791906151e4565b60405180910390f35b61052a60048036038101906105259190613af4565b6121db565b6040516105379190614c8b565b60405180910390f35b61054861220e565b6040516105559190615206565b60405180910390f35b610566612214565b6040516105739190614ca6565b60405180910390f35b61059660048036038101906105919190613b9a565b612238565b6040516105a39190614c8b565b60405180910390f35b6105c660048036038101906105c19190613bff565b6122a2565b005b6105d061245e565b6040516105dd9190614ca6565b60405180910390f35b61060060048036038101906105fb9190613bff565b612465565b005b61061c60048036038101906106179190613af4565b612698565b6040516106299190614c8b565b60405180910390f35b61063a6126cb565b6040516106479190614ca6565b60405180910390f35b61066a60048036038101906106659190613c40565b6126ef565b005b61068660048036038101906106819190613cbf565b612a21565b6040516106939190615206565b60405180910390f35b6106b660048036038101906106b19190613bff565b612a72565b6040516106c69493929190614bed565b60405180910390f35b6106e960048036038101906106e49190613cbf565b612b8d565b005b61070560048036038101906107009190613e02565b612db0565b6040516107129190614cc1565b60405180910390f35b610723612e50565b6040516107309190614ca6565b60405180910390f35b610753600480360381019061074e9190613b9a565b612e74565b005b61076f600480360381019061076a9190613bff565b612eda565b60405161077c9190614cc1565b60405180910390f35b61078d612f8d565b60405161079a9190615206565b60405180910390f35b6107bd60048036038101906107b89190613af4565b612f93565b005b6107c7613227565b6040516107d49190615206565b60405180910390f35b6107e561322d565b6040516107f29190614ca6565b60405180910390f35b61081560048036038101906108109190613bff565b613251565b005b610831600480360381019061082c9190613bff565b6133e1565b60405161083e9190614c69565b60405180910390f35b60007f7965db0b000000000000000000000000000000000000000000000000000000007bffffffffffffffffffffffffffffffffffffffffffffffffffffffff1916827bffffffffffffffffffffffffffffffffffffffffffffffffffffffff191614806108ba57506108b982613668565b5b9050919050565b6108eb7f0996d044c7309cb5a01d79c18ee9e4c86aca84367cbd5bfd5f5d0606acc9927333612238565b61092a576040517f08c379a000000000000000000000000000000000000000000000000000000000815260040161092190614f84565b60405180910390fd5b6109547f0996d044c7309cb5a01d79c18ee9e4c86aca84367cbd5bfd5f5d0606acc9927382612238565b15610994576040517f08c379a000000000000000000000000000000000000000000000000000000000815260040161098b90615024565b60405180910390fd5b6109be7f843b48dccc6ff192f9330133622b0536f7b94feca0cf36e7e46fc50060b6f88282612238565b156109fe576040517f08c379a00000000000000000000000000000000000000000000000000000000081526004016109f5906150c4565b60405180910390fd5b600185604051610a0e9190614bbb565b908152602001604051809103902060020160149054906101000a900460ff1615610a6d576040517f08c379a0000000000000000000000000000000000000000000000000000000008152600401610a64906150a4565b60405180910390fd5b33600186604051610a7e9190614bbb565b908152602001604051809103902060010160006101000a81548173ffffffffffffffffffffffffffffffffffffffff021916908373ffffffffffffffffffffffffffffffffffffffff16021790555080600186604051610ade9190614bbb565b908152602001604051809103902060020160006101000a81548173ffffffffffffffffffffffffffffffffffffffff021916908373ffffffffffffffffffffffffffffffffffffffff16021790555060018086604051610b3e9190614bbb565b908152602001604051809103902060020160146101000a81548160ff02191690831515021790555083600186604051610b779190614bbb565b90815260200160405180910390206000019080519060200190610b9b92919061389b565b506040518060400160405280600a81526020017f7265676973746572656400000000000000000000000000000000000000000000815250600186604051610be29190614bbb565b90815260200160405180910390206005019080519060200190610c0692919061389b565b50600754600186604051610c1a9190614bbb565b908152602001604051809103902060040181905550846003600060075481526020019081526020016000209080519060200190610c5892919061389b565b5060076000815480929190610c6c9061543b565b9190505550600683604051610c819190614bbb565b908152602001604051809103902082604051610c9d9190614bbb565b90815260200160405180910390206000815480929190610cbc9061543b565b9190505550610ceb7f97f21e7273917267af1fea4c3510695aa29abe57349ce57ceec11b346883180382612238565b610da357610d197f97f21e7273917267af1fea4c3510695aa29abe57349ce57ceec11b346883180382611437565b6040518060400160405280600c81526020017f494e56455354494741544f520000000000000000000000000000000000000000815250600560008373ffffffffffffffffffffffffffffffffffffffff1673ffffffffffffffffffffffffffffffffffffffff1681526020019081526020016000209080519060200190610da192919061389b565b505b7fff88452d1e63b10e4f05e166bed6696de7594668e0e30daf24839937a0a27fee853383604051610dd693929190614ce3565b60405180910390a15050505050565b600181805160208101820180518482526020830160208501208183528095505050505050600091509050806000018054610e1e90615409565b80601f0160208091040260200160405190810160405280929190818152602001828054610e4a90615409565b8015610e975780601f10610e6c57610100808354040283529160200191610e97565b820191906000526020600020905b815481529060010190602001808311610e7a57829003601f168201915b5050505050908060010160009054906101000a900473ffffffffffffffffffffffffffffffffffffffff16908060020160009054906101000a900473ffffffffffffffffffffffffffffffffffffffff16908060020160149054906101000a900460ff16908060020160159054906101000a900460ff1690806003015490806004015490806005018054610f2a90615409565b80601f0160208091040260200160405190810160405280929190818152602001828054610f5690615409565b8015610fa35780601f10610f7857610100808354040283529160200191610fa3565b820191906000526020600020905b815481529060010190602001808311610f8657829003601f168201915b5050505050905088565b7fe5786ee6f50ab1a5567cb3f3f6840a2f4ddbafdf4a35cb2c52d5b732b1e84a3281565b6000610ffd7f843b48dccc6ff192f9330133622b0536f7b94feca0cf36e7e46fc50060b6f88283612238565b9050919050565b6000806000838152602001908152602001600020600101549050919050565b61104d7f3e206be88d1de4207c0189003e17add3718b1a1bf78910a785940577239bbdae33612238565b61108c576040517f08c379a000000000000000000000000000000000000000000000000000000000815260040161108390614de4565b60405180910390fd5b6110b67f843b48dccc6ff192f9330133622b0536f7b94feca0cf36e7e46fc50060b6f88282612238565b156110f6576040517f08c379a00000000000000000000000000000000000000000000000000000000081526004016110ed90614f44565b60405180910390fd5b6111207f0996d044c7309cb5a01d79c18ee9e4c86aca84367cbd5bfd5f5d0606acc9927382612238565b15611160576040517f08c379a000000000000000000000000000000000000000000000000000000000815260040161115790615064565b60405180910390fd5b61118a7f97f21e7273917267af1fea4c3510695aa29abe57349ce57ceec11b346883180382612238565b156111ca576040517f08c379a00000000000000000000000000000000000000000000000000000000081526004016111c190614e64565b60405180910390fd5b6111f47f843b48dccc6ff192f9330133622b0536f7b94feca0cf36e7e46fc50060b6f88282611437565b6040518060400160405280600981526020017f415554484f524954590000000000000000000000000000000000000000000000815250600560008373ffffffffffffffffffffffffffffffffffffffff1673ffffffffffffffffffffffffffffffffffffffff168152602001908152602001600020908051906020019061127c92919061389b565b507f3c0aee07d693a6f94b1a6aca6097bdde55429f0834eb9c27e3c31a03081f09b4816040516112ac9190614bd2565b60405180910390a150565b6112e17f843b48dccc6ff192f9330133622b0536f7b94feca0cf36e7e46fc50060b6f88233612238565b611320576040517f08c379a000000000000000000000000000000000000000000000000000000000815260040161131790614e44565b60405180910390fd5b6001816040516113309190614bbb565b908152602001604051809103902060020160159054906101000a900460ff161561135957600080fd5b6001808260405161136a9190614bbb565b908152602001604051809103902060020160156101000a81548160ff0219169083151502179055506040518060400160405280600781526020017f726573756d6564000000000000000000000000000000000000000000000000008152506001826040516113d89190614bbb565b908152602001604051809103902060050190805190602001906113fc92919061389b565b507fd1c688ddb9e9baabcd8e5f84a85f4933173bc6600b2f361087b41cd9304e29208160405161142c9190614cc1565b60405180910390a150565b61145061144383611004565b61144b6136d2565b612238565b61148f576040517f08c379a000000000000000000000000000000000000000000000000000000000815260040161148690614e04565b60405180910390fd5b61149982826136da565b5050565b6114c77f843b48dccc6ff192f9330133622b0536f7b94feca0cf36e7e46fc50060b6f88233612238565b611506576040517f08c379a00000000000000000000000000000000000000000000000000000000081526004016114fd90614e44565b60405180910390fd5b6001816040516115169190614bbb565b908152602001604051809103902060020160159054906101000a900460ff1661153e57600080fd5b60006001826040516115509190614bbb565b908152602001604051809103902060020160156101000a81548160ff0219169083151502179055506040518060400160405280600981526020017f73757370656e64656400000000000000000000000000000000000000000000008152506001826040516115be9190614bbb565b908152602001604051809103902060050190805190602001906115e292919061389b565b507fb9f86d562ae4d5d427f505b81f74024716097f50538bc3d5a16f0716ca399559816040516116129190614cc1565b60405180910390a150565b6116256136d2565b73ffffffffffffffffffffffffffffffffffffffff168173ffffffffffffffffffffffffffffffffffffffff1614611692576040517f08c379a0000000000000000000000000000000000000000000000000000000008152600401611689906151a4565b60405180910390fd5b61169c82826137ba565b5050565b6116ca7f47a6ab365f603cf120cb936195de17fd0bac3880ff606e7a0edb5e8e6580b1ae33612238565b611709576040517f08c379a000000000000000000000000000000000000000000000000000000000815260040161170090614ea4565b60405180910390fd5b6117337f0996d044c7309cb5a01d79c18ee9e4c86aca84367cbd5bfd5f5d0606acc9927383612238565b15611773576040517f08c379a000000000000000000000000000000000000000000000000000000000815260040161176a90614fc4565b60405180910390fd5b61179d7f97f21e7273917267af1fea4c3510695aa29abe57349ce57ceec11b346883180383612238565b156117dd576040517f08c379a00000000000000000000000000000000000000000000000000000000081526004016117d490614e64565b60405180910390fd5b6118077f843b48dccc6ff192f9330133622b0536f7b94feca0cf36e7e46fc50060b6f88283612238565b15611847576040517f08c379a000000000000000000000000000000000000000000000000000000000815260040161183e90614f64565b60405180910390fd5b6118717f0996d044c7309cb5a01d79c18ee9e4c86aca84367cbd5bfd5f5d0606acc9927383611437565b6040518060400160405280600881526020017f50524f4d4f544552000000000000000000000000000000000000000000000000815250600560008473ffffffffffffffffffffffffffffffffffffffff1673ffffffffffffffffffffffffffffffffffffffff16815260200190815260200160002090805190602001906118f992919061389b565b5080600460006009548152602001908152602001600020600101908051906020019061192692919061389b565b508160046000600954815260200190815260200160002060000160006101000a81548173ffffffffffffffffffffffffffffffffffffffff021916908373ffffffffffffffffffffffffffffffffffffffff160217905550600960008154809291906119919061543b565b91905055507f786ebfd921e487d94a7dbf555edf33e5f264f7b59acdcdfe139c08f48f075559826040516119c59190614bd2565b60405180910390a15050565b60046020528060005260406000206000915090508060000160009054906101000a900473ffffffffffffffffffffffffffffffffffffffff1690806001018054611a1a90615409565b80601f0160208091040260200160405190810160405280929190818152602001828054611a4690615409565b8015611a935780601f10611a6857610100808354040283529160200191611a93565b820191906000526020600020905b815481529060010190602001808311611a7657829003601f168201915b5050505050905082565b6060600560008373ffffffffffffffffffffffffffffffffffffffff1673ffffffffffffffffffffffffffffffffffffffff1681526020019081526020016000208054611ae990615409565b80601f0160208091040260200160405190810160405280929190818152602001828054611b1590615409565b8015611b625780601f10611b3757610100808354040283529160200191611b62565b820191906000526020600020905b815481529060010190602001808311611b4557829003601f168201915b50505050509050919050565b6000600182604051611b809190614bbb565b9081526020016040518091039020600301549050919050565b7f3e206be88d1de4207c0189003e17add3718b1a1bf78910a785940577239bbdae81565b6060611be97f0996d044c7309cb5a01d79c18ee9e4c86aca84367cbd5bfd5f5d0606acc9927333612238565b80611c1a5750611c197f97f21e7273917267af1fea4c3510695aa29abe57349ce57ceec11b346883180333612238565b5b611c59576040517f08c379a0000000000000000000000000000000000000000000000000000000008152600401611c5090614e24565b60405180910390fd5b3373ffffffffffffffffffffffffffffffffffffffff16600183604051611c809190614bbb565b908152602001604051809103902060010160009054906101000a900473ffffffffffffffffffffffffffffffffffffffff1673ffffffffffffffffffffffffffffffffffffffff161480611d4057503373ffffffffffffffffffffffffffffffffffffffff16600183604051611cf69190614bbb565b908152602001604051809103902060020160009054906101000a900473ffffffffffffffffffffffffffffffffffffffff1673ffffffffffffffffffffffffffffffffffffffff16145b611d7f576040517f08c379a0000000000000000000000000000000000000000000000000000000008152600401611d7690614ee4565b60405180910390fd5b600182604051611d8f9190614bbb565b908152602001604051809103902060020160159054906101000a900460ff16611ded576040517f08c379a0000000000000000000000000000000000000000000000000000000008152600401611de490615124565b60405180910390fd5b600182604051611dfd9190614bbb565b90815260200160405180910390206000018054611e1990615409565b80601f0160208091040260200160405190810160405280929190818152602001828054611e4590615409565b8015611e925780601f10611e6757610100808354040283529160200191611e92565b820191906000526020600020905b815481529060010190602001808311611e7557829003601f168201915b50505050509050919050565b611ea6613921565b60011515600183604051611eba9190614bbb565b908152602001604051809103902060020160149054906101000a900460ff16151514611f1b576040517f08c379a0000000000000000000000000000000000000000000000000000000008152600401611f1290614ec4565b60405180910390fd5b60011515600183604051611f2f9190614bbb565b908152602001604051809103902060020160159054906101000a900460ff16151514611f90576040517f08c379a0000000000000000000000000000000000000000000000000000000008152600401611f87906151c4565b60405180910390fd5b600182604051611fa09190614bbb565b908152602001604051809103902060405180610100016040529081600082018054611fca90615409565b80601f0160208091040260200160405190810160405280929190818152602001828054611ff690615409565b80156120435780601f1061201857610100808354040283529160200191612043565b820191906000526020600020905b81548152906001019060200180831161202657829003601f168201915b505050505081526020016001820160009054906101000a900473ffffffffffffffffffffffffffffffffffffffff1673ffffffffffffffffffffffffffffffffffffffff1673ffffffffffffffffffffffffffffffffffffffff1681526020016002820160009054906101000a900473ffffffffffffffffffffffffffffffffffffffff1673ffffffffffffffffffffffffffffffffffffffff1673ffffffffffffffffffffffffffffffffffffffff1681526020016002820160149054906101000a900460ff161515151581526020016002820160159054906101000a900460ff16151515158152602001600382015481526020016004820154815260200160058201805461215290615409565b80601f016020809104026020016040519081016040528092919081815260200182805461217e90615409565b80156121cb5780601f106121a0576101008083540402835291602001916121cb565b820191906000526020600020905b8154815290600101906020018083116121ae57829003601f168201915b5050505050815250509050919050565b60006122077f97f21e7273917267af1fea4c3510695aa29abe57349ce57ceec11b346883180383612238565b9050919050565b60085481565b7f843b48dccc6ff192f9330133622b0536f7b94feca0cf36e7e46fc50060b6f88281565b600080600084815260200190815260200160002060000160008373ffffffffffffffffffffffffffffffffffffffff1673ffffffffffffffffffffffffffffffffffffffff16815260200190815260200160002060009054906101000a900460ff16905092915050565b6122cc7f843b48dccc6ff192f9330133622b0536f7b94feca0cf36e7e46fc50060b6f88233612238565b61230b576040517f08c379a000000000000000000000000000000000000000000000000000000000815260040161230290615184565b60405180910390fd5b6001151560018260405161231f9190614bbb565b908152602001604051809103902060020160149054906101000a900460ff16151514612380576040517f08c379a000000000000000000000000000000000000000000000000000000000815260040161237790615144565b60405180910390fd5b600180826040516123919190614bbb565b908152602001604051809103902060020160156101000a81548160ff0219169083151502179055506040518060400160405280600981526020017f76616c69646174656400000000000000000000000000000000000000000000008152506001826040516123ff9190614bbb565b9081526020016040518091039020600501908051906020019061242392919061389b565b507fbc0e66a9d9a6660141870110fa7932ebb7fe171d5e52ee9a42674665105f1d1b816040516124539190614cc1565b60405180910390a150565b6000801b81565b6002816040516124759190614bbb565b908152602001604051809103902060000160009054906101000a900473ffffffffffffffffffffffffffffffffffffffff1673ffffffffffffffffffffffffffffffffffffffff163373ffffffffffffffffffffffffffffffffffffffff1614612514576040517f08c379a000000000000000000000000000000000000000000000000000000000815260040161250b90615004565b60405180910390fd5b600115156002826040516125289190614bbb565b908152602001604051809103902060030160009054906101000a900460ff16151514612589576040517f08c379a0000000000000000000000000000000000000000000000000000000008152600401612580906150e4565b60405180910390fd5b6000151560028260405161259d9190614bbb565b908152602001604051809103902060030160009054906101000a905050506002816040516125cb9190614bbb565b9081526020016040518091039020600080820160006101000a81549073ffffffffffffffffffffffffffffffffffffffff02191690556001820160006101000a81549073ffffffffffffffffffffffffffffffffffffffff02191690556002820160006126389190613996565b6003820160006101000a81549060ff021916905560048201600061265c91906139d6565b50507f1a24299bbcab71cb3013c24c40adca455867472f22ae6d056e4e0cb2bb0e5a738160405161268d9190614cc1565b60405180910390a150565b60006126c47f0996d044c7309cb5a01d79c18ee9e4c86aca84367cbd5bfd5f5d0606acc9927383612238565b9050919050565b7f47a6ab365f603cf120cb936195de17fd0bac3880ff606e7a0edb5e8e6580b1ae81565b6127197f97f21e7273917267af1fea4c3510695aa29abe57349ce57ceec11b346883180333612238565b612758576040517f08c379a000000000000000000000000000000000000000000000000000000000815260040161274f90615044565b60405180910390fd5b6001151560018260405161276c9190614bbb565b908152602001604051809103902060020160159054906101000a900460ff161515146127cd576040517f08c379a00000000000000000000000000000000000000000000000000000000081526004016127c490614f04565b60405180910390fd5b6001816040516127dd9190614bbb565b908152602001604051809103902060020160009054906101000a900473ffffffffffffffffffffffffffffffffffffffff1673ffffffffffffffffffffffffffffffffffffffff163373ffffffffffffffffffffffffffffffffffffffff161461287c576040517f08c379a000000000000000000000000000000000000000000000000000000000815260040161287390614e84565b60405180910390fd5b600160028460405161288e9190614bbb565b908152602001604051809103902060030160006101000a81548160ff021916908315150217905550816002846040516128c79190614bbb565b908152602001604051809103902060000160006101000a81548173ffffffffffffffffffffffffffffffffffffffff021916908373ffffffffffffffffffffffffffffffffffffffff160217905550336002846040516129279190614bbb565b908152602001604051809103902060010160006101000a81548173ffffffffffffffffffffffffffffffffffffffff021916908373ffffffffffffffffffffffffffffffffffffffff160217905550806002846040516129879190614bbb565b908152602001604051809103902060020190805190602001906129ab92919061389b565b506001816040516129bc9190614bbb565b908152602001604051809103902060030160008154809291906129de9061543b565b91905055507f76b4f38e7ada56c131a0c796e7382093d7b5a69175ca0bf513f5827f60f5314d8382604051612a14929190614dad565b60405180910390a1505050565b60006001600684604051612a359190614bbb565b908152602001604051809103902083604051612a519190614bbb565b908152602001604051809103902054612a6a91906152f3565b905092915050565b6002818051602081018201805184825260208301602085012081835280955050505050506000915090508060000160009054906101000a900473ffffffffffffffffffffffffffffffffffffffff16908060010160009054906101000a900473ffffffffffffffffffffffffffffffffffffffff1690806002018054612af790615409565b80601f0160208091040260200160405190810160405280929190818152602001828054612b2390615409565b8015612b705780601f10612b4557610100808354040283529160200191612b70565b820191906000526020600020905b815481529060010190602001808311612b5357829003601f168201915b5050505050908060030160009054906101000a900460ff16905084565b612bb77f97f21e7273917267af1fea4c3510695aa29abe57349ce57ceec11b346883180333612238565b612bf6576040517f08c379a0000000000000000000000000000000000000000000000000000000008152600401612bed90614fa4565b60405180910390fd5b600282604051612c069190614bbb565b908152602001604051809103902060010160009054906101000a900473ffffffffffffffffffffffffffffffffffffffff1673ffffffffffffffffffffffffffffffffffffffff163373ffffffffffffffffffffffffffffffffffffffff1614612ca5576040517f08c379a0000000000000000000000000000000000000000000000000000000008152600401612c9c90615164565b60405180910390fd5b60011515600283604051612cb99190614bbb565b908152602001604051809103902060030160009054906101000a900460ff16151514612d1a576040517f08c379a0000000000000000000000000000000000000000000000000000000008152600401612d1190615104565b60405180910390fd5b600282604051612d2a9190614bbb565b908152602001604051809103902060040181908060018154018082558091505060019003906000526020600020016000909190919091509080519060200190612d7492919061389b565b507f2fd00fee6fba014584e65a085e3eb131b03ff5c389c44c3cf9e857d52c1650d681604051612da49190614cc1565b60405180910390a15050565b60036020528060005260406000206000915090508054612dcf90615409565b80601f0160208091040260200160405190810160405280929190818152602001828054612dfb90615409565b8015612e485780601f10612e1d57610100808354040283529160200191612e48565b820191906000526020600020905b815481529060010190602001808311612e2b57829003601f168201915b505050505081565b7f97f21e7273917267af1fea4c3510695aa29abe57349ce57ceec11b346883180381565b612e8d612e8083611004565b612e886136d2565b612238565b612ecc576040517f08c379a0000000000000000000000000000000000000000000000000000000008152600401612ec390614f24565b60405180910390fd5b612ed682826137ba565b5050565b6060600182604051612eec9190614bbb565b90815260200160405180910390206005018054612f0890615409565b80601f0160208091040260200160405190810160405280929190818152602001828054612f3490615409565b8015612f815780601f10612f5657610100808354040283529160200191612f81565b820191906000526020600020905b815481529060010190602001808311612f6457829003601f168201915b50505050509050919050565b60095481565b612fbd7f47a6ab365f603cf120cb936195de17fd0bac3880ff606e7a0edb5e8e6580b1ae33612238565b612ffc576040517f08c379a0000000000000000000000000000000000000000000000000000000008152600401612ff390614ea4565b60405180910390fd5b6130267f97f21e7273917267af1fea4c3510695aa29abe57349ce57ceec11b346883180382612238565b15613066576040517f08c379a000000000000000000000000000000000000000000000000000000000815260040161305d90614fe4565b60405180910390fd5b6130907f0996d044c7309cb5a01d79c18ee9e4c86aca84367cbd5bfd5f5d0606acc9927382612238565b156130d0576040517f08c379a00000000000000000000000000000000000000000000000000000000081526004016130c790615064565b60405180910390fd5b6130fa7f843b48dccc6ff192f9330133622b0536f7b94feca0cf36e7e46fc50060b6f88282612238565b1561313a576040517f08c379a000000000000000000000000000000000000000000000000000000000815260040161313190614f64565b60405180910390fd5b6131647f97f21e7273917267af1fea4c3510695aa29abe57349ce57ceec11b346883180382611437565b6040518060400160405280600c81526020017f494e56455354494741544f520000000000000000000000000000000000000000815250600560008373ffffffffffffffffffffffffffffffffffffffff1673ffffffffffffffffffffffffffffffffffffffff16815260200190815260200160002090805190602001906131ec92919061389b565b507fe8418412d360af43b959e2ca49b9ad98feb77e7b5597963ca346077db47d69ba8160405161321c9190614bd2565b60405180910390a150565b60075481565b7f0996d044c7309cb5a01d79c18ee9e4c86aca84367cbd5bfd5f5d0606acc9927381565b6002816040516132619190614bbb565b908152602001604051809103902060000160009054906101000a900473ffffffffffffffffffffffffffffffffffffffff1673ffffffffffffffffffffffffffffffffffffffff163373ffffffffffffffffffffffffffffffffffffffff1614613300576040517f08c379a00000000000000000000000000000000000000000000000000000000081526004016132f790615004565b60405180910390fd5b600015156002826040516133149190614bbb565b908152602001604051809103902060030160009054906101000a900460ff16151514613375576040517f08c379a000000000000000000000000000000000000000000000000000000000815260040161336c90615084565b60405180910390fd5b600115156002826040516133899190614bbb565b908152602001604051809103902060030160009054906101000a905050507fbf0bdf0dac0f40e06b9d86448186b0585c751a20ebbf3541074e23bb229e4f81816040516133d69190614cc1565b60405180910390a150565b606061340d7f97f21e7273917267af1fea4c3510695aa29abe57349ce57ceec11b346883180333612238565b61344c576040517f08c379a000000000000000000000000000000000000000000000000000000000815260040161344390614fa4565b60405180910390fd5b60028260405161345c9190614bbb565b908152602001604051809103902060010160009054906101000a900473ffffffffffffffffffffffffffffffffffffffff1673ffffffffffffffffffffffffffffffffffffffff163373ffffffffffffffffffffffffffffffffffffffff16146134fb576040517f08c379a00000000000000000000000000000000000000000000000000000000081526004016134f290615164565b60405180910390fd5b6001151560028360405161350f9190614bbb565b908152602001604051809103902060030160009054906101000a900460ff16151514613570576040517f08c379a000000000000000000000000000000000000000000000000000000000815260040161356790615104565b60405180910390fd5b6002826040516135809190614bbb565b9081526020016040518091039020600401805480602002602001604051908101604052809291908181526020016000905b8282101561365d5783829060005260206000200180546135d090615409565b80601f01602080910402602001604051908101604052809291908181526020018280546135fc90615409565b80156136495780601f1061361e57610100808354040283529160200191613649565b820191906000526020600020905b81548152906001019060200180831161362c57829003601f168201915b5050505050815260200190600101906135b1565b505050509050919050565b60007f01ffc9a7000000000000000000000000000000000000000000000000000000007bffffffffffffffffffffffffffffffffffffffffffffffffffffffff1916827bffffffffffffffffffffffffffffffffffffffffffffffffffffffff1916149050919050565b600033905090565b6136e48282612238565b6137b657600160008084815260200190815260200160002060000160008373ffffffffffffffffffffffffffffffffffffffff1673ffffffffffffffffffffffffffffffffffffffff16815260200190815260200160002060006101000a81548160ff02191690831515021790555061375b6136d2565b73ffffffffffffffffffffffffffffffffffffffff168173ffffffffffffffffffffffffffffffffffffffff16837f2f8788117e7eff1d82e926ec794901d17c78024a50270940304540a733656f0d60405160405180910390a45b5050565b6137c48282612238565b1561389757600080600084815260200190815260200160002060000160008373ffffffffffffffffffffffffffffffffffffffff1673ffffffffffffffffffffffffffffffffffffffff16815260200190815260200160002060006101000a81548160ff02191690831515021790555061383c6136d2565b73ffffffffffffffffffffffffffffffffffffffff168173ffffffffffffffffffffffffffffffffffffffff16837ff6391f5c32d9c69d2a47ea670b442974b53935d1edc7fd64eb21e047a839171b60405160405180910390a45b5050565b8280546138a790615409565b90600052602060002090601f0160209004810192826138c95760008555613910565b82601f106138e257805160ff1916838001178555613910565b82800160010185558215613910579182015b8281111561390f5782518255916020019190600101906138f4565b5b50905061391d91906139f7565b5090565b60405180610100016040528060608152602001600073ffffffffffffffffffffffffffffffffffffffff168152602001600073ffffffffffffffffffffffffffffffffffffffff1681526020016000151581526020016000151581526020016000815260200160008152602001606081525090565b5080546139a290615409565b6000825580601f106139b457506139d3565b601f0160209004906000526020600020908101906139d291906139f7565b5b50565b50805460008255906000526020600020908101906139f49190613a14565b50565b5b80821115613a105760008160009055506001016139f8565b5090565b5b80821115613a345760008181613a2b9190613996565b50600101613a15565b5090565b6000613a4b613a4684615252565b615221565b905082815260208101848484011115613a6357600080fd5b613a6e8482856153c7565b509392505050565b600081359050613a8581615522565b92915050565b600081359050613a9a81615539565b92915050565b600081359050613aaf81615550565b92915050565b600082601f830112613ac657600080fd5b8135613ad6848260208601613a38565b91505092915050565b600081359050613aee81615567565b92915050565b600060208284031215613b0657600080fd5b6000613b1484828501613a76565b91505092915050565b60008060408385031215613b3057600080fd5b6000613b3e85828601613a76565b925050602083013567ffffffffffffffff811115613b5b57600080fd5b613b6785828601613ab5565b9150509250929050565b600060208284031215613b8357600080fd5b6000613b9184828501613a8b565b91505092915050565b60008060408385031215613bad57600080fd5b6000613bbb85828601613a8b565b9250506020613bcc85828601613a76565b9150509250929050565b600060208284031215613be857600080fd5b6000613bf684828501613aa0565b91505092915050565b600060208284031215613c1157600080fd5b600082013567ffffffffffffffff811115613c2b57600080fd5b613c3784828501613ab5565b91505092915050565b600080600060608486031215613c5557600080fd5b600084013567ffffffffffffffff811115613c6f57600080fd5b613c7b86828701613ab5565b9350506020613c8c86828701613a76565b925050604084013567ffffffffffffffff811115613ca957600080fd5b613cb586828701613ab5565b9150509250925092565b60008060408385031215613cd257600080fd5b600083013567ffffffffffffffff811115613cec57600080fd5b613cf885828601613ab5565b925050602083013567ffffffffffffffff811115613d1557600080fd5b613d2185828601613ab5565b9150509250929050565b600080600080600060a08688031215613d4357600080fd5b600086013567ffffffffffffffff811115613d5d57600080fd5b613d6988828901613ab5565b955050602086013567ffffffffffffffff811115613d8657600080fd5b613d9288828901613ab5565b945050604086013567ffffffffffffffff811115613daf57600080fd5b613dbb88828901613ab5565b935050606086013567ffffffffffffffff811115613dd857600080fd5b613de488828901613ab5565b9250506080613df588828901613a76565b9150509295509295909350565b600060208284031215613e1457600080fd5b6000613e2284828501613adf565b91505092915050565b6000613e378383613eff565b905092915050565b613e4881615349565b82525050565b613e5781615349565b82525050565b6000613e6882615292565b613e7281856152b5565b935083602082028501613e8485615282565b8060005b85811015613ec05784840389528151613ea18582613e2b565b9450613eac836152a8565b925060208a01995050600181019050613e88565b50829750879550505050505092915050565b613edb8161535b565b82525050565b613eea8161535b565b82525050565b613ef981615367565b82525050565b6000613f0a8261529d565b613f1481856152c6565b9350613f248185602086016153d6565b613f2d81615511565b840191505092915050565b6000613f438261529d565b613f4d81856152d7565b9350613f5d8185602086016153d6565b613f6681615511565b840191505092915050565b6000613f7c8261529d565b613f8681856152e8565b9350613f968185602086016153d6565b80840191505092915050565b6000613faf602e836152d7565b91507f4f6e6c792074686520617574686f726974792061646d696e2063616e2061646460008301527f20696e76657374696761746f72730000000000000000000000000000000000006020830152604082019050919050565b6000614015602f836152d7565b91507f416363657373436f6e74726f6c3a2073656e646572206d75737420626520616e60008301527f2061646d696e20746f206772616e7400000000000000000000000000000000006020830152604082019050919050565b600061407b6030836152d7565b91507f6f6e6c792070726f6d6f7465727320616e6420696e76657374696761746f727360008301527f20686176652074686973207269676874000000000000000000000000000000006020830152604082019050919050565b60006140e16024836152d7565b91507f4f6e6c7920617574686f726969746965732063616e2073757370656e6420747260008301527f69616c73000000000000000000000000000000000000000000000000000000006020830152604082019050919050565b60006141476017836152d7565b91507f596f752061726520616e20696e76657374696761746f720000000000000000006000830152602082019050919050565b60006141876036836152d7565b91507f596f7520646f206e6f74206861766520726967687420746f206164642070617460008301527f69656e747320746f20746869732070726f746f636f6c000000000000000000006020830152604082019050919050565b60006141ed602d836152d7565b91507f4f6e6c79207468652070726f6d6f746f722061646d696e2063616e206164642060008301527f696e76657374696761746f7273000000000000000000000000000000000000006020830152604082019050919050565b60006142536021836152d7565b91507f5468657265206973206e6f2070726f746f636f6c20776974682074686973206960008301527f64000000000000000000000000000000000000000000000000000000000000006020830152604082019050919050565b60006142b9602a836152d7565b91507f596f7520646f206e6f74206861766520726967687420746f206f70656e20746860008301527f69732070726f6a656374000000000000000000000000000000000000000000006020830152604082019050919050565b600061431f6029836152d7565b91507f546869732070726f746f636f6c20686173206e6f74206265656e20617574686f60008301527f72697a65642079657400000000000000000000000000000000000000000000006020830152604082019050919050565b60006143856030836152d7565b91507f416363657373436f6e74726f6c3a2073656e646572206d75737420626520616e60008301527f2061646d696e20746f207265766f6b65000000000000000000000000000000006020830152604082019050919050565b60006143eb601c836152d7565b91507f596f752061726520616c726561647920616e20617574686f72697479000000006000830152602082019050919050565b600061442b6014836152d7565b91507f596f752061726520616e20617574686f726974790000000000000000000000006000830152602082019050919050565b600061446b6023836152d7565b91507f4f6e6c792070726f6d6f746572732063616e207375626d69742070726f746f6360008301527f6f6c7300000000000000000000000000000000000000000000000000000000006020830152604082019050919050565b60006144d16023836152d7565b91507f4f6e6c7920696e76657374696761746f72732063616e20636f6c6c656374206460008301527f61746100000000000000000000000000000000000000000000000000000000006020830152604082019050919050565b6000614537601a836152d7565b91507f596f752061726520616c726561647920612070726f6d6f7465720000000000006000830152602082019050919050565b6000614577601f836152d7565b91507f596f752061726520616c726561647920616e20696e76657374696761746f72006000830152602082019050919050565b60006145b76016836152d7565b91507f596f7572204944206973206e6f7420636f7272656374000000000000000000006000830152602082019050919050565b60006145f76021836152d7565b91507f50726f6d6f746572732063616e6e6f7420626520696e76657374696761746f7260008301527f73000000000000000000000000000000000000000000000000000000000000006020830152604082019050919050565b600061465d6030836152d7565b91507f4f6e6c7920696e76657374696761746f72732063616e2061646420706174696560008301527f6e747320746f2070726f746f636f6c73000000000000000000000000000000006020830152604082019050919050565b60006146c36012836152d7565b91507f596f752061726520612070726f6d6f74657200000000000000000000000000006000830152602082019050919050565b60006147036017836152d7565b91507f596f7520646964206e6f7420636f6e73656e74207965740000000000000000006000830152602082019050919050565b60006147436022836152d7565b91507f5468652070726f746f636f6c20697320616c726561647920726567697374657260008301527f65640000000000000000000000000000000000000000000000000000000000006020830152604082019050919050565b60006147a96023836152d7565b91507f417574686f7269746965732063616e6e6f7420626520696e766573746967617460008301527f6f727300000000000000000000000000000000000000000000000000000000006020830152604082019050919050565b600061480f601f836152d7565b91507f596f7520616c7265616479207265766f6b6520796f757220636f6e73656e74006000830152602082019050919050565b600061484f601d836152d7565b91507f476574207468652070617469656e7420636f6e73656e742066697273740000006000830152602082019050919050565b600061488f6022836152d7565b91507f5468657265206973206e6f2070726f746f636f6c20776974682074686973206360008301527f69640000000000000000000000000000000000000000000000000000000000006020830152604082019050919050565b60006148f5602c836152d7565b91507f5468657265206973206e6f2070726f746f636f6c206173736f6369617465642060008301527f77697468207468697320494400000000000000000000000000000000000000006020830152604082019050919050565b600061495b6026836152d7565b91507f596f7520646f206e6f74206861766520726967687420666f722074686973207060008301527f617469656e7400000000000000000000000000000000000000000000000000006020830152604082019050919050565b60006149c16031836152d7565b91507f4f6e6c7920617574686f726974696573206861766520726967687420746f207660008301527f616c69646174652070726f746f636f6c730000000000000000000000000000006020830152604082019050919050565b6000614a27602f836152d7565b91507f416363657373436f6e74726f6c3a2063616e206f6e6c792072656e6f756e636560008301527f20726f6c657320666f722073656c6600000000000000000000000000000000006020830152604082019050919050565b6000614a8d6027836152d7565b91507f546869732070726f746f636f6c206873206e6f74206265656e2076616c69646160008301527f74656420796574000000000000000000000000000000000000000000000000006020830152604082019050919050565b6000610100830160008301518482036000860152614b048282613eff565b9150506020830151614b196020860182613e3f565b506040830151614b2c6040860182613e3f565b506060830151614b3f6060860182613ed2565b506080830151614b526080860182613ed2565b5060a0830151614b6560a0860182614b9d565b5060c0830151614b7860c0860182614b9d565b5060e083015184820360e0860152614b908282613eff565b9150508091505092915050565b614ba6816153bd565b82525050565b614bb5816153bd565b82525050565b6000614bc78284613f71565b915081905092915050565b6000602082019050614be76000830184613e4e565b92915050565b6000608082019050614c026000830187613e4e565b614c0f6020830186613e4e565b8181036040830152614c218185613f38565b9050614c306060830184613ee1565b95945050505050565b6000604082019050614c4e6000830185613e4e565b8181036020830152614c608184613f38565b90509392505050565b60006020820190508181036000830152614c838184613e5d565b905092915050565b6000602082019050614ca06000830184613ee1565b92915050565b6000602082019050614cbb6000830184613ef0565b92915050565b60006020820190508181036000830152614cdb8184613f38565b905092915050565b60006060820190508181036000830152614cfd8186613f38565b9050614d0c6020830185613e4e565b614d196040830184613e4e565b949350505050565b6000610100820190508181036000830152614d3c818b613f38565b9050614d4b602083018a613e4e565b614d586040830189613e4e565b614d656060830188613ee1565b614d726080830187613ee1565b614d7f60a0830186614bac565b614d8c60c0830185614bac565b81810360e0830152614d9e8184613f38565b90509998505050505050505050565b60006040820190508181036000830152614dc78185613f38565b90508181036020830152614ddb8184613f38565b90509392505050565b60006020820190508181036000830152614dfd81613fa2565b9050919050565b60006020820190508181036000830152614e1d81614008565b9050919050565b60006020820190508181036000830152614e3d8161406e565b9050919050565b60006020820190508181036000830152614e5d816140d4565b9050919050565b60006020820190508181036000830152614e7d8161413a565b9050919050565b60006020820190508181036000830152614e9d8161417a565b9050919050565b60006020820190508181036000830152614ebd816141e0565b9050919050565b60006020820190508181036000830152614edd81614246565b9050919050565b60006020820190508181036000830152614efd816142ac565b9050919050565b60006020820190508181036000830152614f1d81614312565b9050919050565b60006020820190508181036000830152614f3d81614378565b9050919050565b60006020820190508181036000830152614f5d816143de565b9050919050565b60006020820190508181036000830152614f7d8161441e565b9050919050565b60006020820190508181036000830152614f9d8161445e565b9050919050565b60006020820190508181036000830152614fbd816144c4565b9050919050565b60006020820190508181036000830152614fdd8161452a565b9050919050565b60006020820190508181036000830152614ffd8161456a565b9050919050565b6000602082019050818103600083015261501d816145aa565b9050919050565b6000602082019050818103600083015261503d816145ea565b9050919050565b6000602082019050818103600083015261505d81614650565b9050919050565b6000602082019050818103600083015261507d816146b6565b9050919050565b6000602082019050818103600083015261509d816146f6565b9050919050565b600060208201905081810360008301526150bd81614736565b9050919050565b600060208201905081810360008301526150dd8161479c565b9050919050565b600060208201905081810360008301526150fd81614802565b9050919050565b6000602082019050818103600083015261511d81614842565b9050919050565b6000602082019050818103600083015261513d81614882565b9050919050565b6000602082019050818103600083015261515d816148e8565b9050919050565b6000602082019050818103600083015261517d8161494e565b9050919050565b6000602082019050818103600083015261519d816149b4565b9050919050565b600060208201905081810360008301526151bd81614a1a565b9050919050565b600060208201905081810360008301526151dd81614a80565b9050919050565b600060208201905081810360008301526151fe8184614ae6565b905092915050565b600060208201905061521b6000830184614bac565b92915050565b6000604051905081810181811067ffffffffffffffff82111715615248576152476154e2565b5b8060405250919050565b600067ffffffffffffffff82111561526d5761526c6154e2565b5b601f19601f8301169050602081019050919050565b6000819050602082019050919050565b600081519050919050565b600081519050919050565b6000602082019050919050565b600082825260208201905092915050565b600082825260208201905092915050565b600082825260208201905092915050565b600081905092915050565b60006152fe826153bd565b9150615309836153bd565b9250827fffffffffffffffffffffffffffffffffffffffffffffffffffffffffffffffff0382111561533e5761533d615484565b5b828201905092915050565b60006153548261539d565b9050919050565b60008115159050919050565b6000819050919050565b60007fffffffff0000000000000000000000000000000000000000000000000000000082169050919050565b600073ffffffffffffffffffffffffffffffffffffffff82169050919050565b6000819050919050565b82818337600083830152505050565b60005b838110156153f45780820151818401526020810190506153d9565b83811115615403576000848401525b50505050565b6000600282049050600182168061542157607f821691505b60208210811415615435576154346154b3565b5b50919050565b6000615446826153bd565b91507fffffffffffffffffffffffffffffffffffffffffffffffffffffffffffffffff82141561547957615478615484565b5b600182019050919050565b7f4e487b7100000000000000000000000000000000000000000000000000000000600052601160045260246000fd5b7f4e487b7100000000000000000000000000000000000000000000000000000000600052602260045260246000fd5b7f4e487b7100000000000000000000000000000000000000000000000000000000600052604160045260246000fd5b6000601f19601f8301169050919050565b61552b81615349565b811461553657600080fd5b50565b61554281615367565b811461554d57600080fd5b50565b61555981615371565b811461556457600080fd5b50565b615570816153bd565b811461557b57600080fd5b5056fea2646970667358221220b25560706f2ad45b83cc660d990c8b98fe7ba76d5ad17686b02d822a48d7fcd764736f6c63430008000033",
  "immutableReferences": {},
  "source": "// SPDX-License-Identifier: MIT\npragma solidity 0.8.0;\n\nimport \"../client/node_modules/@openzeppelin/contracts/access/AccessControl.sol\";\n\ncontract MedTrials is AccessControl {\n    struct Protocol {\n        string cid;\n        address promoter;\n        address investigator;\n        bool registered;\n        bool authorized;\n        uint256 nbOfPatients;\n        uint256 index;\n        string status;\n    }\n\n    struct Patient {\n        address patient;\n        address investigator;\n        string protocolID;\n        bool consent;\n        string[] cids;\n    }\n\n    struct Promoter {\n        address promoter;\n        string cid;\n    }\n\n    mapping(string => Protocol) public protocols;\n    mapping(string => Patient) public patients;\n    mapping(uint256 => string) public protocolsID;\n    mapping(uint256 => Promoter) public promoters;\n    mapping(address => string) roles;\n\n    mapping(string => mapping(string => uint256)) private protocolNumerotation;\n\n    bytes32 public constant AUTHORITY = keccak256(\"AUTHORITY\");\n    bytes32 public constant AUTHORITY_ADMIN = keccak256(\"AUTHORITYADMIN\");\n    bytes32 public constant PROMOTER = keccak256(\"PROMOTER\");\n    bytes32 public constant PROMOTER_ADMIN = keccak256(\"PROMOTERADMIN\");\n    bytes32 public constant INVESTIGATOR = keccak256(\"INVESTIGATOR\");\n    bytes32 public constant PATIENT = keccak256(\"PATIENT\");\n\n    uint256 public nbOfProtocolsRegistered;\n    uint256 public nbOfPatients;\n    uint256 public nbOfPromoters;\n\n    event promoterAdded(address _address);\n    event authorityAdded(address _address);\n    event investigatorAdded(address _address);\n    event protocolValidated(string _id);\n    event newProtocol(string _id, address _promotor, address _investigator);\n    event patientAdded(string _patientID, string _protocolID);\n    event consentGiven(string _patientID);\n    event consentRevoked(string _patientID);\n    event cidSaved(string _cid);\n    event protocolSuspended(string _protocolID);\n    event protocolResumed(string _protocolID);\n\n    constructor(\n        address _default_admin,\n        address _authorityAdmin,\n        address _promotorAdmin\n    ) {\n        _setupRole(DEFAULT_ADMIN_ROLE, _default_admin);\n\n        _setRoleAdmin(AUTHORITY_ADMIN, DEFAULT_ADMIN_ROLE);\n        _setRoleAdmin(AUTHORITY, AUTHORITY_ADMIN);\n\n        _setRoleAdmin(PROMOTER_ADMIN, DEFAULT_ADMIN_ROLE);\n        _setRoleAdmin(PROMOTER, PROMOTER_ADMIN);\n\n        _setRoleAdmin(INVESTIGATOR, PROMOTER);\n\n        _setupRole(AUTHORITY_ADMIN, _authorityAdmin);\n        _setupRole(PROMOTER_ADMIN, _promotorAdmin);\n\n        //renounceRole(DEFAULT_ADMIN_ROLE, _default_admin);\n\n        roles[_authorityAdmin] = \"AUTHORITY ADMIN\";\n        roles[_promotorAdmin] = \"PROMOTER ADMIN\";\n    }\n\n    function isAuthority(address _address) public view returns (bool) {\n        return hasRole(AUTHORITY, _address);\n    }\n\n    function isPromoter(address _address) public view returns (bool) {\n        return hasRole(PROMOTER, _address);\n    }\n\n    function isInvestigator(address _address) public view returns (bool) {\n        return hasRole(INVESTIGATOR, _address);\n    }\n\n    function addPromoter(address _address, string memory _cid) public {\n        require(\n            hasRole(PROMOTER_ADMIN, msg.sender),\n            \"Only the promotor admin can add investigators\"\n        );\n        require(!hasRole(PROMOTER, _address), \"You are already a promoter\");\n        require(!hasRole(INVESTIGATOR, _address), \"You are an investigator\");\n        require(!hasRole(AUTHORITY, _address), \"You are an authority\");\n\n        grantRole(PROMOTER, _address);\n        roles[_address] = \"PROMOTER\";\n\n        promoters[nbOfPromoters].cid = _cid;\n        promoters[nbOfPromoters].promoter = _address;\n        nbOfPromoters++;\n\n        emit promoterAdded(_address);\n    }\n\n    function addInvestigator(address _address) public {\n        require(\n            hasRole(PROMOTER_ADMIN, msg.sender),\n            \"Only the promotor admin can add investigators\"\n        );\n        require(\n            !hasRole(INVESTIGATOR, _address),\n            \"You are already an investigator\"\n        );\n        require(!hasRole(PROMOTER, _address), \"You are a promoter\");\n        require(!hasRole(AUTHORITY, _address), \"You are an authority\");\n\n        grantRole(INVESTIGATOR, _address);\n        roles[_address] = \"INVESTIGATOR\";\n\n        emit investigatorAdded(_address);\n    }\n\n    function addAuthority(address _address) public {\n        require(\n            hasRole(AUTHORITY_ADMIN, msg.sender),\n            \"Only the authority admin can add investigators\"\n        );\n        require(!hasRole(AUTHORITY, _address), \"You are already an authority\");\n        require(!hasRole(PROMOTER, _address), \"You are a promoter\");\n        require(!hasRole(INVESTIGATOR, _address), \"You are an investigator\");\n\n        grantRole(AUTHORITY, _address);\n        roles[_address] = \"AUTHORITY\";\n\n        emit authorityAdded(_address);\n    }\n\n    function registerProtocol(\n        string memory _id,\n        string memory _cid,\n        string memory center,\n        string memory category,\n        address _investigator\n    ) public {\n        require(\n            hasRole(PROMOTER, msg.sender),\n            \"Only promoters can submit protocols\"\n        );\n        require(\n            !hasRole(PROMOTER, _investigator),\n            \"Promoters cannot be investigators\"\n        );\n        require(\n            !hasRole(AUTHORITY, _investigator),\n            \"Authorities cannot be investigators\"\n        );\n        require(\n            !protocols[_id].registered,\n            \"The protocol is already registered\"\n        );\n\n        protocols[_id].promoter = msg.sender;\n        protocols[_id].investigator = _investigator;\n        protocols[_id].registered = true;\n        protocols[_id].cid = _cid;\n        protocols[_id].status = \"registered\";\n        protocols[_id].index = nbOfProtocolsRegistered;\n\n        protocolsID[nbOfProtocolsRegistered] = _id;\n        nbOfProtocolsRegistered++;\n\n        protocolNumerotation[center][category]++;\n\n        if (!hasRole(INVESTIGATOR, _investigator)) {\n            grantRole(INVESTIGATOR, _investigator);\n            roles[_investigator] = \"INVESTIGATOR\";\n        }\n\n        emit newProtocol(_id, msg.sender, _investigator);\n    }\n\n    function getProtocolCID(string memory _id)\n        public\n        view\n        returns (string memory)\n    {\n        require(\n            hasRole(PROMOTER, msg.sender) || hasRole(INVESTIGATOR, msg.sender),\n            \"only promoters and investigators have this right\"\n        );\n        require(\n            protocols[_id].promoter == msg.sender ||\n                protocols[_id].investigator == msg.sender,\n            \"You do not have right to open this project\"\n        );\n        require(\n            protocols[_id].authorized,\n            \"There is no protocol with this cid\"\n        );\n\n        return protocols[_id].cid;\n    }\n\n    function validateProtocol(string memory _id) public {\n        require(\n            hasRole(AUTHORITY, msg.sender),\n            \"Only authorities have right to validate protocols\"\n        );\n        require(\n            protocols[_id].registered == true,\n            \"There is no protocol associated with this ID\"\n        );\n\n        protocols[_id].authorized = true;\n        protocols[_id].status = \"validated\";\n\n        emit protocolValidated(_id);\n    }\n\n    function getProtocol(string memory _id)\n        public\n        view\n        returns (Protocol memory)\n    {\n        require(\n            protocols[_id].registered == true,\n            \"There is no protocol with this id\"\n        );\n        require(\n            protocols[_id].authorized == true,\n            \"This protocol hs not been validated yet\"\n        );\n\n        return protocols[_id];\n    }\n\n    function addPatient(\n        string memory _patientID,\n        address _patientAddress,\n        string memory _protocolID\n    ) public {\n        require(\n            hasRole(INVESTIGATOR, msg.sender),\n            \"Only investigators can add patients to protocols\"\n        );\n        require(\n            protocols[_protocolID].authorized == true,\n            \"This protocol has not been authorized yet\"\n        );\n        require(\n            msg.sender == protocols[_protocolID].investigator,\n            \"You do not have right to add patients to this protocol\"\n        );\n        //require(_patientAddress != protocols[_protocolID].patient, \"This patient already exist\");\n\n        patients[_patientID].consent = true;\n        patients[_patientID].patient = _patientAddress;\n        patients[_patientID].investigator = msg.sender;\n        patients[_patientID].protocolID = _protocolID;\n        protocols[_protocolID].nbOfPatients++;\n\n        emit patientAdded(_patientID, _protocolID);\n    }\n\n    function giveConsent(string memory _patientID) public {\n        require(\n            msg.sender == patients[_patientID].patient,\n            \"Your ID is not correct\"\n        );\n        require(\n            patients[_patientID].consent == false,\n            \"You did not consent yet\"\n        );\n\n        patients[_patientID].consent == true;\n\n        emit consentGiven(_patientID);\n    }\n\n    function revokeConsent(string memory _patientID) public {\n        require(\n            msg.sender == patients[_patientID].patient,\n            \"Your ID is not correct\"\n        );\n        require(\n            patients[_patientID].consent == true,\n            \"You already revoke your consent\"\n        );\n\n        patients[_patientID].consent == false;\n        delete patients[_patientID];\n\n        emit consentRevoked(_patientID);\n    }\n\n    function suspendTrials(string memory _protocolID) public {\n        require(\n            hasRole(AUTHORITY, msg.sender),\n            \"Only authoriities can suspend trials\"\n        );\n        require(protocols[_protocolID].authorized);\n\n        protocols[_protocolID].authorized = false;\n        protocols[_protocolID].status = \"suspended\";\n\n        emit protocolSuspended(_protocolID);\n    }\n\n    function resumeTrials(string memory _protocolID) public {\n        require(\n            hasRole(AUTHORITY, msg.sender),\n            \"Only authoriities can suspend trials\"\n        );\n        require(!protocols[_protocolID].authorized);\n\n        protocols[_protocolID].authorized = true;\n        protocols[_protocolID].status = \"resumed\";\n\n        emit protocolResumed(_protocolID);\n    }\n\n    function storeDataCID(string memory _patientID, string memory _cid) public {\n        require(\n            hasRole(INVESTIGATOR, msg.sender),\n            \"Only investigators can collect data\"\n        );\n        require(\n            msg.sender == patients[_patientID].investigator,\n            \"You do not have right for this patient\"\n        );\n        require(\n            patients[_patientID].consent == true,\n            \"Get the patient consent first\"\n        );\n\n        patients[_patientID].cids.push(_cid);\n\n        emit cidSaved(_cid);\n    }\n\n    function getDataCID(string memory _patientID)\n        public\n        view\n        returns (string[] memory)\n    {\n        require(\n            hasRole(INVESTIGATOR, msg.sender),\n            \"Only investigators can collect data\"\n        );\n        require(\n            msg.sender == patients[_patientID].investigator,\n            \"You do not have right for this patient\"\n        );\n        require(\n            patients[_patientID].consent == true,\n            \"Get the patient consent first\"\n        );\n\n        return patients[_patientID].cids;\n    }\n\n    function getProtocolStatus(string memory _protocolID)\n        public\n        view\n        returns (string memory)\n    {\n        return protocols[_protocolID].status;\n    }\n\n    function numberOfPatientByProtocol(string memory _protocolID)\n        public\n        view\n        returns (uint256)\n    {\n        return protocols[_protocolID].nbOfPatients;\n    }\n\n    function getRole(address _address) public view returns (string memory) {\n        return roles[_address];\n    }\n\n    function getProtocoleNumerotation(\n        string memory center,\n        string memory category\n    ) public view returns (uint256) {\n        return protocolNumerotation[center][category] + 1;\n    }\n}\n",
  "sourcePath": "/Users/samuel/Documents/Projet/Pojet_Dev/MedTrials/contracts/MedTrials.sol",
  "compiler": {
    "name": "solc",
    "version": "0.8.0+commit.c7dfd78e.Emscripten.clang"
  },
  "schemaVersion": "3.3.4",
  "updatedAt": "2021-05-03T16:37:22.472Z",
  "networkType": "ethereum",
  "devdoc": {
    "kind": "dev",
    "methods": {
      "getRoleAdmin(bytes32)": {
        "details": "Returns the admin role that controls `role`. See {grantRole} and {revokeRole}. To change a role's admin, use {_setRoleAdmin}."
      },
      "grantRole(bytes32,address)": {
        "details": "Grants `role` to `account`. If `account` had not been already granted `role`, emits a {RoleGranted} event. Requirements: - the caller must have ``role``'s admin role."
      },
      "hasRole(bytes32,address)": {
        "details": "Returns `true` if `account` has been granted `role`."
      },
      "renounceRole(bytes32,address)": {
        "details": "Revokes `role` from the calling account. Roles are often managed via {grantRole} and {revokeRole}: this function's purpose is to provide a mechanism for accounts to lose their privileges if they are compromised (such as when a trusted device is misplaced). If the calling account had been granted `role`, emits a {RoleRevoked} event. Requirements: - the caller must be `account`."
      },
      "revokeRole(bytes32,address)": {
        "details": "Revokes `role` from `account`. If `account` had been granted `role`, emits a {RoleRevoked} event. Requirements: - the caller must have ``role``'s admin role."
      },
      "supportsInterface(bytes4)": {
        "details": "See {IERC165-supportsInterface}."
      }
    },
    "version": 1
  },
  "userdoc": {
    "kind": "user",
    "methods": {},
    "version": 1
  }
}