{
  "contractName": "MedTrials",
  "abi": [
    {
      "inputs": [
        {
          "internalType": "address",
          "name": "_default_admin",
          "type": "address"
        },
        {
          "internalType": "address",
          "name": "_authorityAdmin",
          "type": "address"
        },
        {
          "internalType": "address",
          "name": "_promotorAdmin",
          "type": "address"
        }
      ],
      "stateMutability": "nonpayable",
      "type": "constructor"
    },
    {
      "anonymous": false,
      "inputs": [
        {
          "indexed": true,
          "internalType": "bytes32",
          "name": "role",
          "type": "bytes32"
        },
        {
          "indexed": true,
          "internalType": "bytes32",
          "name": "previousAdminRole",
          "type": "bytes32"
        },
        {
          "indexed": true,
          "internalType": "bytes32",
          "name": "newAdminRole",
          "type": "bytes32"
        }
      ],
      "name": "RoleAdminChanged",
      "type": "event"
    },
    {
      "anonymous": false,
      "inputs": [
        {
          "indexed": true,
          "internalType": "bytes32",
          "name": "role",
          "type": "bytes32"
        },
        {
          "indexed": true,
          "internalType": "address",
          "name": "account",
          "type": "address"
        },
        {
          "indexed": true,
          "internalType": "address",
          "name": "sender",
          "type": "address"
        }
      ],
      "name": "RoleGranted",
      "type": "event"
    },
    {
      "anonymous": false,
      "inputs": [
        {
          "indexed": true,
          "internalType": "bytes32",
          "name": "role",
          "type": "bytes32"
        },
        {
          "indexed": true,
          "internalType": "address",
          "name": "account",
          "type": "address"
        },
        {
          "indexed": true,
          "internalType": "address",
          "name": "sender",
          "type": "address"
        }
      ],
      "name": "RoleRevoked",
      "type": "event"
    },
    {
      "anonymous": false,
      "inputs": [
        {
          "indexed": false,
          "internalType": "address",
          "name": "_address",
          "type": "address"
        }
      ],
      "name": "authorityAdded",
      "type": "event"
    },
    {
      "anonymous": false,
      "inputs": [
        {
          "indexed": false,
          "internalType": "string",
          "name": "_cid",
          "type": "string"
        }
      ],
      "name": "cidSaved",
      "type": "event"
    },
    {
      "anonymous": false,
      "inputs": [
        {
          "indexed": false,
          "internalType": "string",
          "name": "_patientID",
          "type": "string"
        }
      ],
      "name": "consentGiven",
      "type": "event"
    },
    {
      "anonymous": false,
      "inputs": [
        {
          "indexed": false,
          "internalType": "string",
          "name": "_patientID",
          "type": "string"
        }
      ],
      "name": "consentRevoked",
      "type": "event"
    },
    {
      "anonymous": false,
      "inputs": [
        {
          "indexed": false,
          "internalType": "address",
          "name": "_address",
          "type": "address"
        }
      ],
      "name": "investigatorAdded",
      "type": "event"
    },
    {
      "anonymous": false,
      "inputs": [
        {
          "indexed": false,
          "internalType": "string",
          "name": "_id",
          "type": "string"
        },
        {
          "indexed": false,
          "internalType": "address",
          "name": "_promotor",
          "type": "address"
        },
        {
          "indexed": false,
          "internalType": "address",
          "name": "_investigator",
          "type": "address"
        }
      ],
      "name": "newProtocol",
      "type": "event"
    },
    {
      "anonymous": false,
      "inputs": [
        {
          "indexed": false,
          "internalType": "string",
          "name": "_patientID",
          "type": "string"
        },
        {
          "indexed": false,
          "internalType": "string",
          "name": "_protocolID",
          "type": "string"
        }
      ],
      "name": "patientAdded",
      "type": "event"
    },
    {
      "anonymous": false,
      "inputs": [
        {
          "indexed": false,
          "internalType": "address",
          "name": "_address",
          "type": "address"
        }
      ],
      "name": "promoterAdded",
      "type": "event"
    },
    {
      "anonymous": false,
      "inputs": [
        {
          "indexed": false,
          "internalType": "string",
          "name": "_protocolID",
          "type": "string"
        }
      ],
      "name": "protocolResumed",
      "type": "event"
    },
    {
      "anonymous": false,
      "inputs": [
        {
          "indexed": false,
          "internalType": "string",
          "name": "_protocolID",
          "type": "string"
        }
      ],
      "name": "protocolSuspended",
      "type": "event"
    },
    {
      "anonymous": false,
      "inputs": [
        {
          "indexed": false,
          "internalType": "string",
          "name": "_id",
          "type": "string"
        }
      ],
      "name": "protocolValidated",
      "type": "event"
    },
    {
      "inputs": [],
      "name": "AUTHORITY",
      "outputs": [
        {
          "internalType": "bytes32",
          "name": "",
          "type": "bytes32"
        }
      ],
      "stateMutability": "view",
      "type": "function",
      "constant": true
    },
    {
      "inputs": [],
      "name": "AUTHORITY_ADMIN",
      "outputs": [
        {
          "internalType": "bytes32",
          "name": "",
          "type": "bytes32"
        }
      ],
      "stateMutability": "view",
      "type": "function",
      "constant": true
    },
    {
      "inputs": [],
      "name": "DEFAULT_ADMIN_ROLE",
      "outputs": [
        {
          "internalType": "bytes32",
          "name": "",
          "type": "bytes32"
        }
      ],
      "stateMutability": "view",
      "type": "function",
      "constant": true
    },
    {
      "inputs": [],
      "name": "INVESTIGATOR",
      "outputs": [
        {
          "internalType": "bytes32",
          "name": "",
          "type": "bytes32"
        }
      ],
      "stateMutability": "view",
      "type": "function",
      "constant": true
    },
    {
      "inputs": [],
      "name": "PATIENT",
      "outputs": [
        {
          "internalType": "bytes32",
          "name": "",
          "type": "bytes32"
        }
      ],
      "stateMutability": "view",
      "type": "function",
      "constant": true
    },
    {
      "inputs": [],
      "name": "PROMOTER",
      "outputs": [
        {
          "internalType": "bytes32",
          "name": "",
          "type": "bytes32"
        }
      ],
      "stateMutability": "view",
      "type": "function",
      "constant": true
    },
    {
      "inputs": [],
      "name": "PROMOTER_ADMIN",
      "outputs": [
        {
          "internalType": "bytes32",
          "name": "",
          "type": "bytes32"
        }
      ],
      "stateMutability": "view",
      "type": "function",
      "constant": true
    },
    {
      "inputs": [
        {
          "internalType": "bytes32",
          "name": "role",
          "type": "bytes32"
        }
      ],
      "name": "getRoleAdmin",
      "outputs": [
        {
          "internalType": "bytes32",
          "name": "",
          "type": "bytes32"
        }
      ],
      "stateMutability": "view",
      "type": "function",
      "constant": true
    },
    {
      "inputs": [
        {
          "internalType": "bytes32",
          "name": "role",
          "type": "bytes32"
        },
        {
          "internalType": "address",
          "name": "account",
          "type": "address"
        }
      ],
      "name": "grantRole",
      "outputs": [],
      "stateMutability": "nonpayable",
      "type": "function"
    },
    {
      "inputs": [
        {
          "internalType": "bytes32",
          "name": "role",
          "type": "bytes32"
        },
        {
          "internalType": "address",
          "name": "account",
          "type": "address"
        }
      ],
      "name": "hasRole",
      "outputs": [
        {
          "internalType": "bool",
          "name": "",
          "type": "bool"
        }
      ],
      "stateMutability": "view",
      "type": "function",
      "constant": true
    },
    {
      "inputs": [],
      "name": "nbOfPatients",
      "outputs": [
        {
          "internalType": "uint256",
          "name": "",
          "type": "uint256"
        }
      ],
      "stateMutability": "view",
      "type": "function",
      "constant": true
    },
    {
      "inputs": [],
      "name": "nbOfPromoters",
      "outputs": [
        {
          "internalType": "uint256",
          "name": "",
          "type": "uint256"
        }
      ],
      "stateMutability": "view",
      "type": "function",
      "constant": true
    },
    {
      "inputs": [],
      "name": "nbOfProtocolsRegistered",
      "outputs": [
        {
          "internalType": "uint256",
          "name": "",
          "type": "uint256"
        }
      ],
      "stateMutability": "view",
      "type": "function",
      "constant": true
    },
    {
      "inputs": [
        {
          "internalType": "string",
          "name": "",
          "type": "string"
        }
      ],
      "name": "patients",
      "outputs": [
        {
          "internalType": "address",
          "name": "patient",
          "type": "address"
        },
        {
          "internalType": "address",
          "name": "investigator",
          "type": "address"
        },
        {
          "internalType": "string",
          "name": "protocolID",
          "type": "string"
        },
        {
          "internalType": "bool",
          "name": "consent",
          "type": "bool"
        }
      ],
      "stateMutability": "view",
      "type": "function",
      "constant": true
    },
    {
      "inputs": [
        {
          "internalType": "uint256",
          "name": "",
          "type": "uint256"
        }
      ],
      "name": "promoters",
      "outputs": [
        {
          "internalType": "address",
          "name": "promoter",
          "type": "address"
        },
        {
          "internalType": "string",
          "name": "cid",
          "type": "string"
        }
      ],
      "stateMutability": "view",
      "type": "function",
      "constant": true
    },
    {
      "inputs": [
        {
          "internalType": "string",
          "name": "",
          "type": "string"
        }
      ],
      "name": "protocols",
      "outputs": [
        {
          "internalType": "string",
          "name": "cid",
          "type": "string"
        },
        {
          "internalType": "address",
          "name": "promoter",
          "type": "address"
        },
        {
          "internalType": "address",
          "name": "investigator",
          "type": "address"
        },
        {
          "internalType": "bool",
          "name": "registered",
          "type": "bool"
        },
        {
          "internalType": "bool",
          "name": "authorized",
          "type": "bool"
        },
        {
          "internalType": "uint256",
          "name": "nbOfPatients",
          "type": "uint256"
        },
        {
          "internalType": "uint256",
          "name": "index",
          "type": "uint256"
        },
        {
          "internalType": "string",
          "name": "status",
          "type": "string"
        }
      ],
      "stateMutability": "view",
      "type": "function",
      "constant": true
    },
    {
      "inputs": [
        {
          "internalType": "uint256",
          "name": "",
          "type": "uint256"
        }
      ],
      "name": "protocolsID",
      "outputs": [
        {
          "internalType": "string",
          "name": "",
          "type": "string"
        }
      ],
      "stateMutability": "view",
      "type": "function",
      "constant": true
    },
    {
      "inputs": [
        {
          "internalType": "bytes32",
          "name": "role",
          "type": "bytes32"
        },
        {
          "internalType": "address",
          "name": "account",
          "type": "address"
        }
      ],
      "name": "renounceRole",
      "outputs": [],
      "stateMutability": "nonpayable",
      "type": "function"
    },
    {
      "inputs": [
        {
          "internalType": "bytes32",
          "name": "role",
          "type": "bytes32"
        },
        {
          "internalType": "address",
          "name": "account",
          "type": "address"
        }
      ],
      "name": "revokeRole",
      "outputs": [],
      "stateMutability": "nonpayable",
      "type": "function"
    },
    {
      "inputs": [
        {
          "internalType": "bytes4",
          "name": "interfaceId",
          "type": "bytes4"
        }
      ],
      "name": "supportsInterface",
      "outputs": [
        {
          "internalType": "bool",
          "name": "",
          "type": "bool"
        }
      ],
      "stateMutability": "view",
      "type": "function",
      "constant": true
    },
    {
      "inputs": [
        {
          "internalType": "address",
          "name": "_address",
          "type": "address"
        },
        {
          "internalType": "string",
          "name": "_cid",
          "type": "string"
        }
      ],
      "name": "addPromoter",
      "outputs": [],
      "stateMutability": "nonpayable",
      "type": "function"
    },
    {
      "inputs": [
        {
          "internalType": "address",
          "name": "_address",
          "type": "address"
        }
      ],
      "name": "addInvestigator",
      "outputs": [],
      "stateMutability": "nonpayable",
      "type": "function"
    },
    {
      "inputs": [
        {
          "internalType": "address",
          "name": "_address",
          "type": "address"
        }
      ],
      "name": "addAuthority",
      "outputs": [],
      "stateMutability": "nonpayable",
      "type": "function"
    },
    {
      "inputs": [
        {
          "internalType": "string",
          "name": "_id",
          "type": "string"
        },
        {
          "internalType": "string",
          "name": "_cid",
          "type": "string"
        },
        {
          "internalType": "string",
          "name": "center",
          "type": "string"
        },
        {
          "internalType": "string",
          "name": "category",
          "type": "string"
        },
        {
          "internalType": "address",
          "name": "_investigator",
          "type": "address"
        }
      ],
      "name": "registerProtocol",
      "outputs": [],
      "stateMutability": "nonpayable",
      "type": "function"
    },
    {
      "inputs": [
        {
          "internalType": "string",
          "name": "_id",
          "type": "string"
        }
      ],
      "name": "getProtocolCID",
      "outputs": [
        {
          "internalType": "string",
          "name": "",
          "type": "string"
        }
      ],
      "stateMutability": "view",
      "type": "function",
      "constant": true
    },
    {
      "inputs": [
        {
          "internalType": "string",
          "name": "_id",
          "type": "string"
        }
      ],
      "name": "validateProtocol",
      "outputs": [],
      "stateMutability": "nonpayable",
      "type": "function"
    },
    {
      "inputs": [
        {
          "internalType": "string",
          "name": "_id",
          "type": "string"
        }
      ],
      "name": "getProtocol",
      "outputs": [
        {
          "components": [
            {
              "internalType": "string",
              "name": "cid",
              "type": "string"
            },
            {
              "internalType": "address",
              "name": "promoter",
              "type": "address"
            },
            {
              "internalType": "address",
              "name": "investigator",
              "type": "address"
            },
            {
              "internalType": "bool",
              "name": "registered",
              "type": "bool"
            },
            {
              "internalType": "bool",
              "name": "authorized",
              "type": "bool"
            },
            {
              "internalType": "uint256",
              "name": "nbOfPatients",
              "type": "uint256"
            },
            {
              "internalType": "uint256",
              "name": "index",
              "type": "uint256"
            },
            {
              "internalType": "string",
              "name": "status",
              "type": "string"
            }
          ],
          "internalType": "struct MedTrials.Protocol",
          "name": "",
          "type": "tuple"
        }
      ],
      "stateMutability": "view",
      "type": "function",
      "constant": true
    },
    {
      "inputs": [
        {
          "internalType": "string",
          "name": "_patientID",
          "type": "string"
        },
        {
          "internalType": "address",
          "name": "_patientAddress",
          "type": "address"
        },
        {
          "internalType": "string",
          "name": "_protocolID",
          "type": "string"
        }
      ],
      "name": "addPatient",
      "outputs": [],
      "stateMutability": "nonpayable",
      "type": "function"
    },
    {
      "inputs": [
        {
          "internalType": "string",
          "name": "_patientID",
          "type": "string"
        }
      ],
      "name": "giveConsent",
      "outputs": [],
      "stateMutability": "nonpayable",
      "type": "function"
    },
    {
      "inputs": [
        {
          "internalType": "string",
          "name": "_patientID",
          "type": "string"
        }
      ],
      "name": "revokeConsent",
      "outputs": [],
      "stateMutability": "nonpayable",
      "type": "function"
    },
    {
      "inputs": [
        {
          "internalType": "string",
          "name": "_protocolID",
          "type": "string"
        }
      ],
      "name": "suspendTrials",
      "outputs": [],
      "stateMutability": "nonpayable",
      "type": "function"
    },
    {
      "inputs": [
        {
          "internalType": "string",
          "name": "_protocolID",
          "type": "string"
        }
      ],
      "name": "resumeTrials",
      "outputs": [],
      "stateMutability": "nonpayable",
      "type": "function"
    },
    {
      "inputs": [
        {
          "internalType": "string",
          "name": "_patientID",
          "type": "string"
        },
        {
          "internalType": "string",
          "name": "_cid",
          "type": "string"
        }
      ],
      "name": "storeDataCID",
      "outputs": [],
      "stateMutability": "nonpayable",
      "type": "function"
    },
    {
      "inputs": [
        {
          "internalType": "string",
          "name": "_patientID",
          "type": "string"
        }
      ],
      "name": "getDataCID",
      "outputs": [
        {
          "internalType": "string[]",
          "name": "",
          "type": "string[]"
        }
      ],
      "stateMutability": "view",
      "type": "function",
      "constant": true
    },
    {
      "inputs": [
        {
          "internalType": "string",
          "name": "_protocolID",
          "type": "string"
        }
      ],
      "name": "getProtocolStatus",
      "outputs": [
        {
          "internalType": "string",
          "name": "",
          "type": "string"
        }
      ],
      "stateMutability": "view",
      "type": "function",
      "constant": true
    },
    {
      "inputs": [
        {
          "internalType": "string",
          "name": "_protocolID",
          "type": "string"
        }
      ],
      "name": "numberOfPatientByProtocol",
      "outputs": [
        {
          "internalType": "uint256",
          "name": "",
          "type": "uint256"
        }
      ],
      "stateMutability": "view",
      "type": "function",
      "constant": true
    },
    {
      "inputs": [
        {
          "internalType": "address",
          "name": "_address",
          "type": "address"
        }
      ],
      "name": "getRole",
      "outputs": [
        {
          "internalType": "string",
          "name": "",
          "type": "string"
        }
      ],
      "stateMutability": "view",
      "type": "function",
      "constant": true
    },
    {
      "inputs": [
        {
          "internalType": "string",
          "name": "center",
          "type": "string"
        },
        {
          "internalType": "string",
          "name": "category",
          "type": "string"
        }
      ],
      "name": "getProtocoleNumerotation",
      "outputs": [
        {
          "internalType": "uint256",
          "name": "",
          "type": "uint256"
        }
      ],
      "stateMutability": "view",
      "type": "function",
      "constant": true
    }
  ],
  "bytecode": "0x60806040523480156200001157600080fd5b50604051620062c2380380620062c2833981810160405281019062000037919062000788565b6200004c6000801b846200034460201b60201c565b620000817f3e206be88d1de4207c0189003e17add3718b1a1bf78910a785940577239bbdae6000801b6200035a60201b60201c565b620000d37f843b48dccc6ff192f9330133622b0536f7b94feca0cf36e7e46fc50060b6f8827f3e206be88d1de4207c0189003e17add3718b1a1bf78910a785940577239bbdae6200035a60201b60201c565b620001087f47a6ab365f603cf120cb936195de17fd0bac3880ff606e7a0edb5e8e6580b1ae6000801b6200035a60201b60201c565b6200015a7f0996d044c7309cb5a01d79c18ee9e4c86aca84367cbd5bfd5f5d0606acc992737f47a6ab365f603cf120cb936195de17fd0bac3880ff606e7a0edb5e8e6580b1ae6200035a60201b60201c565b620001ac7f97f21e7273917267af1fea4c3510695aa29abe57349ce57ceec11b34688318037f0996d044c7309cb5a01d79c18ee9e4c86aca84367cbd5bfd5f5d0606acc992736200035a60201b60201c565b620001de7f3e206be88d1de4207c0189003e17add3718b1a1bf78910a785940577239bbdae836200034460201b60201c565b620002107f47a6ab365f603cf120cb936195de17fd0bac3880ff606e7a0edb5e8e6580b1ae826200034460201b60201c565b620002256000801b84620003b760201b60201c565b6040518060400160405280600f81526020017f415554484f524954592041444d494e0000000000000000000000000000000000815250600560008473ffffffffffffffffffffffffffffffffffffffff1673ffffffffffffffffffffffffffffffffffffffff1681526020019081526020016000209080519060200190620002af929190620006c1565b506040518060400160405280600e81526020017f50524f4d4f5445522041444d494e000000000000000000000000000000000000815250600560008373ffffffffffffffffffffffffffffffffffffffff1673ffffffffffffffffffffffffffffffffffffffff16815260200190815260200160002090805190602001906200033a929190620006c1565b505050506200092c565b6200035682826200044d60201b60201c565b5050565b806200036c836200053e60201b60201c565b837fbd79b86ffe0ab8e8776151514217cd7cacd52c909f66475c3af44e129f0b00ff60405160405180910390a480600080848152602001908152602001600020600101819055505050565b620003c76200055d60201b60201c565b73ffffffffffffffffffffffffffffffffffffffff168173ffffffffffffffffffffffffffffffffffffffff161462000437576040517f08c379a00000000000000000000000000000000000000000000000000000000081526004016200042e9062000846565b60405180910390fd5b6200044982826200056560201b60201c565b5050565b6200045f82826200065760201b60201c565b6200053a57600160008084815260200190815260200160002060000160008373ffffffffffffffffffffffffffffffffffffffff1673ffffffffffffffffffffffffffffffffffffffff16815260200190815260200160002060006101000a81548160ff021916908315150217905550620004df6200055d60201b60201c565b73ffffffffffffffffffffffffffffffffffffffff168173ffffffffffffffffffffffffffffffffffffffff16837f2f8788117e7eff1d82e926ec794901d17c78024a50270940304540a733656f0d60405160405180910390a45b5050565b6000806000838152602001908152602001600020600101549050919050565b600033905090565b6200057782826200065760201b60201c565b156200065357600080600084815260200190815260200160002060000160008373ffffffffffffffffffffffffffffffffffffffff1673ffffffffffffffffffffffffffffffffffffffff16815260200190815260200160002060006101000a81548160ff021916908315150217905550620005f86200055d60201b60201c565b73ffffffffffffffffffffffffffffffffffffffff168173ffffffffffffffffffffffffffffffffffffffff16837ff6391f5c32d9c69d2a47ea670b442974b53935d1edc7fd64eb21e047a839171b60405160405180910390a45b5050565b600080600084815260200190815260200160002060000160008373ffffffffffffffffffffffffffffffffffffffff1673ffffffffffffffffffffffffffffffffffffffff16815260200190815260200160002060009054906101000a900460ff16905092915050565b828054620006cf90620008ad565b90600052602060002090601f016020900481019282620006f357600085556200073f565b82601f106200070e57805160ff19168380011785556200073f565b828001600101855582156200073f579182015b828111156200073e57825182559160200191906001019062000721565b5b5090506200074e919062000752565b5090565b5b808211156200076d57600081600090555060010162000753565b5090565b600081519050620007828162000912565b92915050565b6000806000606084860312156200079e57600080fd5b6000620007ae8682870162000771565b9350506020620007c18682870162000771565b9250506040620007d48682870162000771565b9150509250925092565b6000620007ed602f8362000868565b91507f416363657373436f6e74726f6c3a2063616e206f6e6c792072656e6f756e636560008301527f20726f6c657320666f722073656c6600000000000000000000000000000000006020830152604082019050919050565b600060208201905081810360008301526200086181620007de565b9050919050565b600082825260208201905092915050565b600062000886826200088d565b9050919050565b600073ffffffffffffffffffffffffffffffffffffffff82169050919050565b60006002820490506001821680620008c657607f821691505b60208210811415620008dd57620008dc620008e3565b5b50919050565b7f4e487b7100000000000000000000000000000000000000000000000000000000600052602260045260246000fd5b6200091d8162000879565b81146200092957600080fd5b50565b615986806200093c6000396000f3fe608060405234801561001057600080fd5b50600436106102325760003560e01c806391d1485411610130578063cd5c3b2b116100b8578063e5078ed71161007c578063e5078ed7146106f2578063ebc483911461070e578063ec9f4bda1461072c578063ed5ea0d21461074a578063f7f093b61461076657610232565b8063cd5c3b2b1461063a578063cf2a9a931461066a578063d547741f14610688578063d751b150146106a4578063e1d862d9146106d457610232565b8063c1bd2c20116100ff578063c1bd2c2014610581578063c36f57751461059f578063c4f39830146105bb578063c6009d84146105eb578063cb39dce51461061e57610232565b806391d14854146104fb578063a1a8316b1461052b578063a217fddf14610547578063a24d96581461056557610232565b806336568abe116101be578063591fe6da11610182578063591fe6da146104415780637ba3ae711461045f5780637beb41071461048f578063834afa81146104bf57806389fcd796146104dd57610232565b806336568abe14610378578063393618a7146103945780633f0bee32146103b057806344276733146103e1578063484ed33e1461041157610232565b8063248a9ca311610205578063248a9ca3146102d857806326defa73146103085780632de6388f146103245780632f2ff15d146103405780632f77e62f1461035c57610232565b806301ffc9a71461023757806309c1ce8b146102675780631dae9454146102835780631f500061146102ba575b600080fd5b610251600480360381019061024c9190613ddc565b610796565b60405161025e9190614fdd565b60405180910390f35b610281600480360381019061027c9190613f31565b610810565b005b61029d60048036038101906102989190613e05565b610e08565b6040516102b1989796959493929190615073565b60405180910390f35b6102c2610fd0565b6040516102cf9190614ff8565b60405180910390f35b6102f260048036038101906102ed9190613d77565b610ff4565b6040516102ff9190614ff8565b60405180910390f35b610322600480360381019061031d9190613cfa565b611013565b005b61033e60048036038101906103399190613e05565b61137b565b005b61035a60048036038101906103559190613da0565b6114fb565b005b61037660048036038101906103719190613e05565b611561565b005b610392600480360381019061038d9190613da0565b6116e1565b005b6103ae60048036038101906103a99190613d23565b611764565b005b6103ca60048036038101906103c59190614008565b611b69565b6040516103d8929190614f8b565b60405180910390f35b6103fb60048036038101906103f69190613cfa565b611c35565b6040516104089190615013565b60405180910390f35b61042b60048036038101906104269190613e05565b611d06565b60405161043891906155d8565b60405180910390f35b610449611d31565b6040516104569190614ff8565b60405180910390f35b61047960048036038101906104749190613e05565b611d55565b6040516104869190615013565b60405180910390f35b6104a960048036038101906104a49190613e05565b612036565b6040516104b691906155b6565b60405180910390f35b6104c7612373565b6040516104d491906155d8565b60405180910390f35b6104e5612379565b6040516104f29190614ff8565b60405180910390f35b61051560048036038101906105109190613da0565b61239d565b6040516105229190614fdd565b60405180910390f35b61054560048036038101906105409190613e05565b612407565b005b61054f6125c3565b60405161055c9190614ff8565b60405180910390f35b61057f600480360381019061057a9190613e05565b6125ca565b005b6105896127fd565b6040516105969190614ff8565b60405180910390f35b6105b960048036038101906105b49190613e46565b612821565b005b6105d560048036038101906105d09190613ec5565b612b53565b6040516105e291906155d8565b60405180910390f35b61060560048036038101906106009190613e05565b612ba4565b6040516106159493929190614f3f565b60405180910390f35b61063860048036038101906106339190613ec5565b612cbf565b005b610654600480360381019061064f9190614008565b612ee2565b6040516106619190615013565b60405180910390f35b610672612f82565b60405161067f9190614ff8565b60405180910390f35b6106a2600480360381019061069d9190613da0565b612fa6565b005b6106be60048036038101906106b99190613e05565b61300c565b6040516106cb9190615013565b60405180910390f35b6106dc6130bf565b6040516106e991906155d8565b60405180910390f35b61070c60048036038101906107079190613cfa565b6130c5565b005b61071661342d565b60405161072391906155d8565b60405180910390f35b610734613433565b6040516107419190614ff8565b60405180910390f35b610764600480360381019061075f9190613e05565b613457565b005b610780600480360381019061077b9190613e05565b6135e7565b60405161078d9190614fbb565b60405180910390f35b60007f7965db0b000000000000000000000000000000000000000000000000000000007bffffffffffffffffffffffffffffffffffffffffffffffffffffffff1916827bffffffffffffffffffffffffffffffffffffffffffffffffffffffff1916148061080957506108088261386e565b5b9050919050565b61083a7f0996d044c7309cb5a01d79c18ee9e4c86aca84367cbd5bfd5f5d0606acc992733361239d565b610879576040517f08c379a000000000000000000000000000000000000000000000000000000000815260040161087090615336565b60405180910390fd5b6108a37f0996d044c7309cb5a01d79c18ee9e4c86aca84367cbd5bfd5f5d0606acc992738261239d565b156108e3576040517f08c379a00000000000000000000000000000000000000000000000000000000081526004016108da906153d6565b60405180910390fd5b61090d7f843b48dccc6ff192f9330133622b0536f7b94feca0cf36e7e46fc50060b6f8828261239d565b1561094d576040517f08c379a000000000000000000000000000000000000000000000000000000000815260040161094490615476565b60405180910390fd5b6109777f47a6ab365f603cf120cb936195de17fd0bac3880ff606e7a0edb5e8e6580b1ae8261239d565b156109b7576040517f08c379a00000000000000000000000000000000000000000000000000000000081526004016109ae90615216565b60405180910390fd5b6109e17f3e206be88d1de4207c0189003e17add3718b1a1bf78910a785940577239bbdae8261239d565b15610a21576040517f08c379a0000000000000000000000000000000000000000000000000000000008152600401610a18906152b6565b60405180910390fd5b600185604051610a319190614f0d565b908152602001604051809103902060020160149054906101000a900460ff1615610a90576040517f08c379a0000000000000000000000000000000000000000000000000000000008152600401610a8790615456565b60405180910390fd5b33600186604051610aa19190614f0d565b908152602001604051809103902060010160006101000a81548173ffffffffffffffffffffffffffffffffffffffff021916908373ffffffffffffffffffffffffffffffffffffffff16021790555080600186604051610b019190614f0d565b908152602001604051809103902060020160006101000a81548173ffffffffffffffffffffffffffffffffffffffff021916908373ffffffffffffffffffffffffffffffffffffffff16021790555060018086604051610b619190614f0d565b908152602001604051809103902060020160146101000a81548160ff02191690831515021790555083600186604051610b9a9190614f0d565b90815260200160405180910390206000019080519060200190610bbe929190613aa1565b506040518060400160405280600a81526020017f7265676973746572656400000000000000000000000000000000000000000000815250600186604051610c059190614f0d565b90815260200160405180910390206005019080519060200190610c29929190613aa1565b50600754600186604051610c3d9190614f0d565b908152602001604051809103902060040181905550846003600060075481526020019081526020016000209080519060200190610c7b929190613aa1565b5060076000815480929190610c8f9061580d565b9190505550600683604051610ca49190614f0d565b908152602001604051809103902082604051610cc09190614f0d565b90815260200160405180910390206000815480929190610cdf9061580d565b9190505550610d0e7f97f21e7273917267af1fea4c3510695aa29abe57349ce57ceec11b34688318038261239d565b610dc657610d3c7f97f21e7273917267af1fea4c3510695aa29abe57349ce57ceec11b3468831803826114fb565b6040518060400160405280600c81526020017f494e56455354494741544f520000000000000000000000000000000000000000815250600560008373ffffffffffffffffffffffffffffffffffffffff1673ffffffffffffffffffffffffffffffffffffffff1681526020019081526020016000209080519060200190610dc4929190613aa1565b505b7fff88452d1e63b10e4f05e166bed6696de7594668e0e30daf24839937a0a27fee853383604051610df993929190615035565b60405180910390a15050505050565b600181805160208101820180518482526020830160208501208183528095505050505050600091509050806000018054610e41906157db565b80601f0160208091040260200160405190810160405280929190818152602001828054610e6d906157db565b8015610eba5780601f10610e8f57610100808354040283529160200191610eba565b820191906000526020600020905b815481529060010190602001808311610e9d57829003601f168201915b5050505050908060010160009054906101000a900473ffffffffffffffffffffffffffffffffffffffff16908060020160009054906101000a900473ffffffffffffffffffffffffffffffffffffffff16908060020160149054906101000a900460ff16908060020160159054906101000a900460ff1690806003015490806004015490806005018054610f4d906157db565b80601f0160208091040260200160405190810160405280929190818152602001828054610f79906157db565b8015610fc65780601f10610f9b57610100808354040283529160200191610fc6565b820191906000526020600020905b815481529060010190602001808311610fa957829003601f168201915b5050505050905088565b7fe5786ee6f50ab1a5567cb3f3f6840a2f4ddbafdf4a35cb2c52d5b732b1e84a3281565b6000806000838152602001908152602001600020600101549050919050565b61103d7f3e206be88d1de4207c0189003e17add3718b1a1bf78910a785940577239bbdae3361239d565b61107c576040517f08c379a000000000000000000000000000000000000000000000000000000000815260040161107390615156565b60405180910390fd5b6110a67f843b48dccc6ff192f9330133622b0536f7b94feca0cf36e7e46fc50060b6f8828261239d565b156110e6576040517f08c379a00000000000000000000000000000000000000000000000000000000081526004016110dd906152f6565b60405180910390fd5b6111107f0996d044c7309cb5a01d79c18ee9e4c86aca84367cbd5bfd5f5d0606acc992738261239d565b15611150576040517f08c379a000000000000000000000000000000000000000000000000000000000815260040161114790615416565b60405180910390fd5b61117a7f97f21e7273917267af1fea4c3510695aa29abe57349ce57ceec11b34688318038261239d565b156111ba576040517f08c379a00000000000000000000000000000000000000000000000000000000081526004016111b1906151d6565b60405180910390fd5b6111e47f47a6ab365f603cf120cb936195de17fd0bac3880ff606e7a0edb5e8e6580b1ae8261239d565b15611224576040517f08c379a000000000000000000000000000000000000000000000000000000000815260040161121b90615576565b60405180910390fd5b61124e7f3e206be88d1de4207c0189003e17add3718b1a1bf78910a785940577239bbdae8261239d565b1561128e576040517f08c379a000000000000000000000000000000000000000000000000000000000815260040161128590615136565b60405180910390fd5b6112b87f843b48dccc6ff192f9330133622b0536f7b94feca0cf36e7e46fc50060b6f882826114fb565b6040518060400160405280600981526020017f415554484f524954590000000000000000000000000000000000000000000000815250600560008373ffffffffffffffffffffffffffffffffffffffff1673ffffffffffffffffffffffffffffffffffffffff1681526020019081526020016000209080519060200190611340929190613aa1565b507f3c0aee07d693a6f94b1a6aca6097bdde55429f0834eb9c27e3c31a03081f09b4816040516113709190614f24565b60405180910390a150565b6113a57f843b48dccc6ff192f9330133622b0536f7b94feca0cf36e7e46fc50060b6f8823361239d565b6113e4576040517f08c379a00000000000000000000000000000000000000000000000000000000081526004016113db906151b6565b60405180910390fd5b6001816040516113f49190614f0d565b908152602001604051809103902060020160159054906101000a900460ff161561141d57600080fd5b6001808260405161142e9190614f0d565b908152602001604051809103902060020160156101000a81548160ff0219169083151502179055506040518060400160405280600781526020017f726573756d65640000000000000000000000000000000000000000000000000081525060018260405161149c9190614f0d565b908152602001604051809103902060050190805190602001906114c0929190613aa1565b507fd1c688ddb9e9baabcd8e5f84a85f4933173bc6600b2f361087b41cd9304e2920816040516114f09190615013565b60405180910390a150565b61151461150783610ff4565b61150f6138d8565b61239d565b611553576040517f08c379a000000000000000000000000000000000000000000000000000000000815260040161154a90615176565b60405180910390fd5b61155d82826138e0565b5050565b61158b7f843b48dccc6ff192f9330133622b0536f7b94feca0cf36e7e46fc50060b6f8823361239d565b6115ca576040517f08c379a00000000000000000000000000000000000000000000000000000000081526004016115c1906151b6565b60405180910390fd5b6001816040516115da9190614f0d565b908152602001604051809103902060020160159054906101000a900460ff1661160257600080fd5b60006001826040516116149190614f0d565b908152602001604051809103902060020160156101000a81548160ff0219169083151502179055506040518060400160405280600981526020017f73757370656e64656400000000000000000000000000000000000000000000008152506001826040516116829190614f0d565b908152602001604051809103902060050190805190602001906116a6929190613aa1565b507fb9f86d562ae4d5d427f505b81f74024716097f50538bc3d5a16f0716ca399559816040516116d69190615013565b60405180910390a150565b6116e96138d8565b73ffffffffffffffffffffffffffffffffffffffff168173ffffffffffffffffffffffffffffffffffffffff1614611756576040517f08c379a000000000000000000000000000000000000000000000000000000000815260040161174d90615556565b60405180910390fd5b61176082826139c0565b5050565b61178e7f47a6ab365f603cf120cb936195de17fd0bac3880ff606e7a0edb5e8e6580b1ae3361239d565b6117cd576040517f08c379a00000000000000000000000000000000000000000000000000000000081526004016117c490615236565b60405180910390fd5b6117f77f0996d044c7309cb5a01d79c18ee9e4c86aca84367cbd5bfd5f5d0606acc992738361239d565b15611837576040517f08c379a000000000000000000000000000000000000000000000000000000000815260040161182e90615376565b60405180910390fd5b6118617f97f21e7273917267af1fea4c3510695aa29abe57349ce57ceec11b34688318038361239d565b156118a1576040517f08c379a0000000000000000000000000000000000000000000000000000000008152600401611898906151d6565b60405180910390fd5b6118cb7f843b48dccc6ff192f9330133622b0536f7b94feca0cf36e7e46fc50060b6f8828361239d565b1561190b576040517f08c379a000000000000000000000000000000000000000000000000000000000815260040161190290615316565b60405180910390fd5b6119357f47a6ab365f603cf120cb936195de17fd0bac3880ff606e7a0edb5e8e6580b1ae8361239d565b15611975576040517f08c379a000000000000000000000000000000000000000000000000000000000815260040161196c90615576565b60405180910390fd5b61199f7f3e206be88d1de4207c0189003e17add3718b1a1bf78910a785940577239bbdae8361239d565b156119df576040517f08c379a00000000000000000000000000000000000000000000000000000000081526004016119d690615136565b60405180910390fd5b611a097f0996d044c7309cb5a01d79c18ee9e4c86aca84367cbd5bfd5f5d0606acc99273836114fb565b6040518060400160405280600881526020017f50524f4d4f544552000000000000000000000000000000000000000000000000815250600560008473ffffffffffffffffffffffffffffffffffffffff1673ffffffffffffffffffffffffffffffffffffffff1681526020019081526020016000209080519060200190611a91929190613aa1565b50806004600060095481526020019081526020016000206001019080519060200190611abe929190613aa1565b508160046000600954815260200190815260200160002060000160006101000a81548173ffffffffffffffffffffffffffffffffffffffff021916908373ffffffffffffffffffffffffffffffffffffffff16021790555060096000815480929190611b299061580d565b91905055507f786ebfd921e487d94a7dbf555edf33e5f264f7b59acdcdfe139c08f48f07555982604051611b5d9190614f24565b60405180910390a15050565b60046020528060005260406000206000915090508060000160009054906101000a900473ffffffffffffffffffffffffffffffffffffffff1690806001018054611bb2906157db565b80601f0160208091040260200160405190810160405280929190818152602001828054611bde906157db565b8015611c2b5780601f10611c0057610100808354040283529160200191611c2b565b820191906000526020600020905b815481529060010190602001808311611c0e57829003601f168201915b5050505050905082565b6060600560008373ffffffffffffffffffffffffffffffffffffffff1673ffffffffffffffffffffffffffffffffffffffff1681526020019081526020016000208054611c81906157db565b80601f0160208091040260200160405190810160405280929190818152602001828054611cad906157db565b8015611cfa5780601f10611ccf57610100808354040283529160200191611cfa565b820191906000526020600020905b815481529060010190602001808311611cdd57829003601f168201915b50505050509050919050565b6000600182604051611d189190614f0d565b9081526020016040518091039020600301549050919050565b7f3e206be88d1de4207c0189003e17add3718b1a1bf78910a785940577239bbdae81565b6060611d817f0996d044c7309cb5a01d79c18ee9e4c86aca84367cbd5bfd5f5d0606acc992733361239d565b80611db25750611db17f97f21e7273917267af1fea4c3510695aa29abe57349ce57ceec11b34688318033361239d565b5b611df1576040517f08c379a0000000000000000000000000000000000000000000000000000000008152600401611de890615196565b60405180910390fd5b3373ffffffffffffffffffffffffffffffffffffffff16600183604051611e189190614f0d565b908152602001604051809103902060010160009054906101000a900473ffffffffffffffffffffffffffffffffffffffff1673ffffffffffffffffffffffffffffffffffffffff161480611ed857503373ffffffffffffffffffffffffffffffffffffffff16600183604051611e8e9190614f0d565b908152602001604051809103902060020160009054906101000a900473ffffffffffffffffffffffffffffffffffffffff1673ffffffffffffffffffffffffffffffffffffffff16145b611f17576040517f08c379a0000000000000000000000000000000000000000000000000000000008152600401611f0e90615276565b60405180910390fd5b600182604051611f279190614f0d565b908152602001604051809103902060020160159054906101000a900460ff16611f85576040517f08c379a0000000000000000000000000000000000000000000000000000000008152600401611f7c906154d6565b60405180910390fd5b600182604051611f959190614f0d565b90815260200160405180910390206000018054611fb1906157db565b80601f0160208091040260200160405190810160405280929190818152602001828054611fdd906157db565b801561202a5780601f10611fff5761010080835404028352916020019161202a565b820191906000526020600020905b81548152906001019060200180831161200d57829003601f168201915b50505050509050919050565b61203e613b27565b600115156001836040516120529190614f0d565b908152602001604051809103902060020160149054906101000a900460ff161515146120b3576040517f08c379a00000000000000000000000000000000000000000000000000000000081526004016120aa90615256565b60405180910390fd5b600115156001836040516120c79190614f0d565b908152602001604051809103902060020160159054906101000a900460ff16151514612128576040517f08c379a000000000000000000000000000000000000000000000000000000000815260040161211f90615596565b60405180910390fd5b6001826040516121389190614f0d565b908152602001604051809103902060405180610100016040529081600082018054612162906157db565b80601f016020809104026020016040519081016040528092919081815260200182805461218e906157db565b80156121db5780601f106121b0576101008083540402835291602001916121db565b820191906000526020600020905b8154815290600101906020018083116121be57829003601f168201915b505050505081526020016001820160009054906101000a900473ffffffffffffffffffffffffffffffffffffffff1673ffffffffffffffffffffffffffffffffffffffff1673ffffffffffffffffffffffffffffffffffffffff1681526020016002820160009054906101000a900473ffffffffffffffffffffffffffffffffffffffff1673ffffffffffffffffffffffffffffffffffffffff1673ffffffffffffffffffffffffffffffffffffffff1681526020016002820160149054906101000a900460ff161515151581526020016002820160159054906101000a900460ff1615151515815260200160038201548152602001600482015481526020016005820180546122ea906157db565b80601f0160208091040260200160405190810160405280929190818152602001828054612316906157db565b80156123635780601f1061233857610100808354040283529160200191612363565b820191906000526020600020905b81548152906001019060200180831161234657829003601f168201915b5050505050815250509050919050565b60085481565b7f843b48dccc6ff192f9330133622b0536f7b94feca0cf36e7e46fc50060b6f88281565b600080600084815260200190815260200160002060000160008373ffffffffffffffffffffffffffffffffffffffff1673ffffffffffffffffffffffffffffffffffffffff16815260200190815260200160002060009054906101000a900460ff16905092915050565b6124317f843b48dccc6ff192f9330133622b0536f7b94feca0cf36e7e46fc50060b6f8823361239d565b612470576040517f08c379a000000000000000000000000000000000000000000000000000000000815260040161246790615536565b60405180910390fd5b600115156001826040516124849190614f0d565b908152602001604051809103902060020160149054906101000a900460ff161515146124e5576040517f08c379a00000000000000000000000000000000000000000000000000000000081526004016124dc906154f6565b60405180910390fd5b600180826040516124f69190614f0d565b908152602001604051809103902060020160156101000a81548160ff0219169083151502179055506040518060400160405280600981526020017f76616c69646174656400000000000000000000000000000000000000000000008152506001826040516125649190614f0d565b90815260200160405180910390206005019080519060200190612588929190613aa1565b507fbc0e66a9d9a6660141870110fa7932ebb7fe171d5e52ee9a42674665105f1d1b816040516125b89190615013565b60405180910390a150565b6000801b81565b6002816040516125da9190614f0d565b908152602001604051809103902060000160009054906101000a900473ffffffffffffffffffffffffffffffffffffffff1673ffffffffffffffffffffffffffffffffffffffff163373ffffffffffffffffffffffffffffffffffffffff1614612679576040517f08c379a0000000000000000000000000000000000000000000000000000000008152600401612670906153b6565b60405180910390fd5b6001151560028260405161268d9190614f0d565b908152602001604051809103902060030160009054906101000a900460ff161515146126ee576040517f08c379a00000000000000000000000000000000000000000000000000000000081526004016126e590615496565b60405180910390fd5b600015156002826040516127029190614f0d565b908152602001604051809103902060030160009054906101000a905050506002816040516127309190614f0d565b9081526020016040518091039020600080820160006101000a81549073ffffffffffffffffffffffffffffffffffffffff02191690556001820160006101000a81549073ffffffffffffffffffffffffffffffffffffffff021916905560028201600061279d9190613b9c565b6003820160006101000a81549060ff02191690556004820160006127c19190613bdc565b50507f1a24299bbcab71cb3013c24c40adca455867472f22ae6d056e4e0cb2bb0e5a73816040516127f29190615013565b60405180910390a150565b7f47a6ab365f603cf120cb936195de17fd0bac3880ff606e7a0edb5e8e6580b1ae81565b61284b7f97f21e7273917267af1fea4c3510695aa29abe57349ce57ceec11b34688318033361239d565b61288a576040517f08c379a0000000000000000000000000000000000000000000000000000000008152600401612881906153f6565b60405180910390fd5b6001151560018260405161289e9190614f0d565b908152602001604051809103902060020160159054906101000a900460ff161515146128ff576040517f08c379a00000000000000000000000000000000000000000000000000000000081526004016128f690615296565b60405180910390fd5b60018160405161290f9190614f0d565b908152602001604051809103902060020160009054906101000a900473ffffffffffffffffffffffffffffffffffffffff1673ffffffffffffffffffffffffffffffffffffffff163373ffffffffffffffffffffffffffffffffffffffff16146129ae576040517f08c379a00000000000000000000000000000000000000000000000000000000081526004016129a5906151f6565b60405180910390fd5b60016002846040516129c09190614f0d565b908152602001604051809103902060030160006101000a81548160ff021916908315150217905550816002846040516129f99190614f0d565b908152602001604051809103902060000160006101000a81548173ffffffffffffffffffffffffffffffffffffffff021916908373ffffffffffffffffffffffffffffffffffffffff16021790555033600284604051612a599190614f0d565b908152602001604051809103902060010160006101000a81548173ffffffffffffffffffffffffffffffffffffffff021916908373ffffffffffffffffffffffffffffffffffffffff16021790555080600284604051612ab99190614f0d565b90815260200160405180910390206002019080519060200190612add929190613aa1565b50600181604051612aee9190614f0d565b90815260200160405180910390206003016000815480929190612b109061580d565b91905055507f76b4f38e7ada56c131a0c796e7382093d7b5a69175ca0bf513f5827f60f5314d8382604051612b469291906150ff565b60405180910390a1505050565b60006001600684604051612b679190614f0d565b908152602001604051809103902083604051612b839190614f0d565b908152602001604051809103902054612b9c91906156c5565b905092915050565b6002818051602081018201805184825260208301602085012081835280955050505050506000915090508060000160009054906101000a900473ffffffffffffffffffffffffffffffffffffffff16908060010160009054906101000a900473ffffffffffffffffffffffffffffffffffffffff1690806002018054612c29906157db565b80601f0160208091040260200160405190810160405280929190818152602001828054612c55906157db565b8015612ca25780601f10612c7757610100808354040283529160200191612ca2565b820191906000526020600020905b815481529060010190602001808311612c8557829003601f168201915b5050505050908060030160009054906101000a900460ff16905084565b612ce97f97f21e7273917267af1fea4c3510695aa29abe57349ce57ceec11b34688318033361239d565b612d28576040517f08c379a0000000000000000000000000000000000000000000000000000000008152600401612d1f90615356565b60405180910390fd5b600282604051612d389190614f0d565b908152602001604051809103902060010160009054906101000a900473ffffffffffffffffffffffffffffffffffffffff1673ffffffffffffffffffffffffffffffffffffffff163373ffffffffffffffffffffffffffffffffffffffff1614612dd7576040517f08c379a0000000000000000000000000000000000000000000000000000000008152600401612dce90615516565b60405180910390fd5b60011515600283604051612deb9190614f0d565b908152602001604051809103902060030160009054906101000a900460ff16151514612e4c576040517f08c379a0000000000000000000000000000000000000000000000000000000008152600401612e43906154b6565b60405180910390fd5b600282604051612e5c9190614f0d565b908152602001604051809103902060040181908060018154018082558091505060019003906000526020600020016000909190919091509080519060200190612ea6929190613aa1565b507f2fd00fee6fba014584e65a085e3eb131b03ff5c389c44c3cf9e857d52c1650d681604051612ed69190615013565b60405180910390a15050565b60036020528060005260406000206000915090508054612f01906157db565b80601f0160208091040260200160405190810160405280929190818152602001828054612f2d906157db565b8015612f7a5780601f10612f4f57610100808354040283529160200191612f7a565b820191906000526020600020905b815481529060010190602001808311612f5d57829003601f168201915b505050505081565b7f97f21e7273917267af1fea4c3510695aa29abe57349ce57ceec11b346883180381565b612fbf612fb283610ff4565b612fba6138d8565b61239d565b612ffe576040517f08c379a0000000000000000000000000000000000000000000000000000000008152600401612ff5906152d6565b60405180910390fd5b61300882826139c0565b5050565b606060018260405161301e9190614f0d565b9081526020016040518091039020600501805461303a906157db565b80601f0160208091040260200160405190810160405280929190818152602001828054613066906157db565b80156130b35780601f10613088576101008083540402835291602001916130b3565b820191906000526020600020905b81548152906001019060200180831161309657829003601f168201915b50505050509050919050565b60095481565b6130ef7f47a6ab365f603cf120cb936195de17fd0bac3880ff606e7a0edb5e8e6580b1ae3361239d565b61312e576040517f08c379a000000000000000000000000000000000000000000000000000000000815260040161312590615236565b60405180910390fd5b6131587f97f21e7273917267af1fea4c3510695aa29abe57349ce57ceec11b34688318038261239d565b15613198576040517f08c379a000000000000000000000000000000000000000000000000000000000815260040161318f90615396565b60405180910390fd5b6131c27f0996d044c7309cb5a01d79c18ee9e4c86aca84367cbd5bfd5f5d0606acc992738261239d565b15613202576040517f08c379a00000000000000000000000000000000000000000000000000000000081526004016131f990615416565b60405180910390fd5b61322c7f843b48dccc6ff192f9330133622b0536f7b94feca0cf36e7e46fc50060b6f8828261239d565b1561326c576040517f08c379a000000000000000000000000000000000000000000000000000000000815260040161326390615316565b60405180910390fd5b6132967f47a6ab365f603cf120cb936195de17fd0bac3880ff606e7a0edb5e8e6580b1ae8261239d565b156132d6576040517f08c379a00000000000000000000000000000000000000000000000000000000081526004016132cd90615576565b60405180910390fd5b6133007f3e206be88d1de4207c0189003e17add3718b1a1bf78910a785940577239bbdae8261239d565b15613340576040517f08c379a000000000000000000000000000000000000000000000000000000000815260040161333790615136565b60405180910390fd5b61336a7f97f21e7273917267af1fea4c3510695aa29abe57349ce57ceec11b3468831803826114fb565b6040518060400160405280600c81526020017f494e56455354494741544f520000000000000000000000000000000000000000815250600560008373ffffffffffffffffffffffffffffffffffffffff1673ffffffffffffffffffffffffffffffffffffffff16815260200190815260200160002090805190602001906133f2929190613aa1565b507fe8418412d360af43b959e2ca49b9ad98feb77e7b5597963ca346077db47d69ba816040516134229190614f24565b60405180910390a150565b60075481565b7f0996d044c7309cb5a01d79c18ee9e4c86aca84367cbd5bfd5f5d0606acc9927381565b6002816040516134679190614f0d565b908152602001604051809103902060000160009054906101000a900473ffffffffffffffffffffffffffffffffffffffff1673ffffffffffffffffffffffffffffffffffffffff163373ffffffffffffffffffffffffffffffffffffffff1614613506576040517f08c379a00000000000000000000000000000000000000000000000000000000081526004016134fd906153b6565b60405180910390fd5b6000151560028260405161351a9190614f0d565b908152602001604051809103902060030160009054906101000a900460ff1615151461357b576040517f08c379a000000000000000000000000000000000000000000000000000000000815260040161357290615436565b60405180910390fd5b6001151560028260405161358f9190614f0d565b908152602001604051809103902060030160009054906101000a905050507fbf0bdf0dac0f40e06b9d86448186b0585c751a20ebbf3541074e23bb229e4f81816040516135dc9190615013565b60405180910390a150565b60606136137f97f21e7273917267af1fea4c3510695aa29abe57349ce57ceec11b34688318033361239d565b613652576040517f08c379a000000000000000000000000000000000000000000000000000000000815260040161364990615356565b60405180910390fd5b6002826040516136629190614f0d565b908152602001604051809103902060010160009054906101000a900473ffffffffffffffffffffffffffffffffffffffff1673ffffffffffffffffffffffffffffffffffffffff163373ffffffffffffffffffffffffffffffffffffffff1614613701576040517f08c379a00000000000000000000000000000000000000000000000000000000081526004016136f890615516565b60405180910390fd5b600115156002836040516137159190614f0d565b908152602001604051809103902060030160009054906101000a900460ff16151514613776576040517f08c379a000000000000000000000000000000000000000000000000000000000815260040161376d906154b6565b60405180910390fd5b6002826040516137869190614f0d565b9081526020016040518091039020600401805480602002602001604051908101604052809291908181526020016000905b828210156138635783829060005260206000200180546137d6906157db565b80601f0160208091040260200160405190810160405280929190818152602001828054613802906157db565b801561384f5780601f106138245761010080835404028352916020019161384f565b820191906000526020600020905b81548152906001019060200180831161383257829003601f168201915b5050505050815260200190600101906137b7565b505050509050919050565b60007f01ffc9a7000000000000000000000000000000000000000000000000000000007bffffffffffffffffffffffffffffffffffffffffffffffffffffffff1916827bffffffffffffffffffffffffffffffffffffffffffffffffffffffff1916149050919050565b600033905090565b6138ea828261239d565b6139bc57600160008084815260200190815260200160002060000160008373ffffffffffffffffffffffffffffffffffffffff1673ffffffffffffffffffffffffffffffffffffffff16815260200190815260200160002060006101000a81548160ff0219169083151502179055506139616138d8565b73ffffffffffffffffffffffffffffffffffffffff168173ffffffffffffffffffffffffffffffffffffffff16837f2f8788117e7eff1d82e926ec794901d17c78024a50270940304540a733656f0d60405160405180910390a45b5050565b6139ca828261239d565b15613a9d57600080600084815260200190815260200160002060000160008373ffffffffffffffffffffffffffffffffffffffff1673ffffffffffffffffffffffffffffffffffffffff16815260200190815260200160002060006101000a81548160ff021916908315150217905550613a426138d8565b73ffffffffffffffffffffffffffffffffffffffff168173ffffffffffffffffffffffffffffffffffffffff16837ff6391f5c32d9c69d2a47ea670b442974b53935d1edc7fd64eb21e047a839171b60405160405180910390a45b5050565b828054613aad906157db565b90600052602060002090601f016020900481019282613acf5760008555613b16565b82601f10613ae857805160ff1916838001178555613b16565b82800160010185558215613b16579182015b82811115613b15578251825591602001919060010190613afa565b5b509050613b239190613bfd565b5090565b60405180610100016040528060608152602001600073ffffffffffffffffffffffffffffffffffffffff168152602001600073ffffffffffffffffffffffffffffffffffffffff1681526020016000151581526020016000151581526020016000815260200160008152602001606081525090565b508054613ba8906157db565b6000825580601f10613bba5750613bd9565b601f016020900490600052602060002090810190613bd89190613bfd565b5b50565b5080546000825590600052602060002090810190613bfa9190613c1a565b50565b5b80821115613c16576000816000905550600101613bfe565b5090565b5b80821115613c3a5760008181613c319190613b9c565b50600101613c1b565b5090565b6000613c51613c4c84615624565b6155f3565b905082815260208101848484011115613c6957600080fd5b613c74848285615799565b509392505050565b600081359050613c8b816158f4565b92915050565b600081359050613ca08161590b565b92915050565b600081359050613cb581615922565b92915050565b600082601f830112613ccc57600080fd5b8135613cdc848260208601613c3e565b91505092915050565b600081359050613cf481615939565b92915050565b600060208284031215613d0c57600080fd5b6000613d1a84828501613c7c565b91505092915050565b60008060408385031215613d3657600080fd5b6000613d4485828601613c7c565b925050602083013567ffffffffffffffff811115613d6157600080fd5b613d6d85828601613cbb565b9150509250929050565b600060208284031215613d8957600080fd5b6000613d9784828501613c91565b91505092915050565b60008060408385031215613db357600080fd5b6000613dc185828601613c91565b9250506020613dd285828601613c7c565b9150509250929050565b600060208284031215613dee57600080fd5b6000613dfc84828501613ca6565b91505092915050565b600060208284031215613e1757600080fd5b600082013567ffffffffffffffff811115613e3157600080fd5b613e3d84828501613cbb565b91505092915050565b600080600060608486031215613e5b57600080fd5b600084013567ffffffffffffffff811115613e7557600080fd5b613e8186828701613cbb565b9350506020613e9286828701613c7c565b925050604084013567ffffffffffffffff811115613eaf57600080fd5b613ebb86828701613cbb565b9150509250925092565b60008060408385031215613ed857600080fd5b600083013567ffffffffffffffff811115613ef257600080fd5b613efe85828601613cbb565b925050602083013567ffffffffffffffff811115613f1b57600080fd5b613f2785828601613cbb565b9150509250929050565b600080600080600060a08688031215613f4957600080fd5b600086013567ffffffffffffffff811115613f6357600080fd5b613f6f88828901613cbb565b955050602086013567ffffffffffffffff811115613f8c57600080fd5b613f9888828901613cbb565b945050604086013567ffffffffffffffff811115613fb557600080fd5b613fc188828901613cbb565b935050606086013567ffffffffffffffff811115613fde57600080fd5b613fea88828901613cbb565b9250506080613ffb88828901613c7c565b9150509295509295909350565b60006020828403121561401a57600080fd5b600061402884828501613ce5565b91505092915050565b600061403d8383614105565b905092915050565b61404e8161571b565b82525050565b61405d8161571b565b82525050565b600061406e82615664565b6140788185615687565b93508360208202850161408a85615654565b8060005b858110156140c657848403895281516140a78582614031565b94506140b28361567a565b925060208a0199505060018101905061408e565b50829750879550505050505092915050565b6140e18161572d565b82525050565b6140f08161572d565b82525050565b6140ff81615739565b82525050565b60006141108261566f565b61411a8185615698565b935061412a8185602086016157a8565b614133816158e3565b840191505092915050565b60006141498261566f565b61415381856156a9565b93506141638185602086016157a8565b61416c816158e3565b840191505092915050565b60006141828261566f565b61418c81856156ba565b935061419c8185602086016157a8565b80840191505092915050565b60006141b5601a836156a9565b91507f596f752061726520616e20617574686f726974792061646d696e0000000000006000830152602082019050919050565b60006141f5602e836156a9565b91507f4f6e6c792074686520617574686f726974792061646d696e2063616e2061646460008301527f20696e76657374696761746f72730000000000000000000000000000000000006020830152604082019050919050565b600061425b602f836156a9565b91507f416363657373436f6e74726f6c3a2073656e646572206d75737420626520616e60008301527f2061646d696e20746f206772616e7400000000000000000000000000000000006020830152604082019050919050565b60006142c16030836156a9565b91507f6f6e6c792070726f6d6f7465727320616e6420696e76657374696761746f727360008301527f20686176652074686973207269676874000000000000000000000000000000006020830152604082019050919050565b60006143276024836156a9565b91507f4f6e6c7920617574686f726969746965732063616e2073757370656e6420747260008301527f69616c73000000000000000000000000000000000000000000000000000000006020830152604082019050919050565b600061438d6017836156a9565b91507f596f752061726520616e20696e76657374696761746f720000000000000000006000830152602082019050919050565b60006143cd6036836156a9565b91507f596f7520646f206e6f74206861766520726967687420746f206164642070617460008301527f69656e747320746f20746869732070726f746f636f6c000000000000000000006020830152604082019050919050565b60006144336029836156a9565b91507f50726f6d6f746572732061646d696e2063616e6e6f7420626520616e20696e7660008301527f657374696761746f7200000000000000000000000000000000000000000000006020830152604082019050919050565b6000614499602d836156a9565b91507f4f6e6c79207468652070726f6d6f746f722061646d696e2063616e206164642060008301527f696e76657374696761746f7273000000000000000000000000000000000000006020830152604082019050919050565b60006144ff6021836156a9565b91507f5468657265206973206e6f2070726f746f636f6c20776974682074686973206960008301527f64000000000000000000000000000000000000000000000000000000000000006020830152604082019050919050565b6000614565602a836156a9565b91507f596f7520646f206e6f74206861766520726967687420746f206f70656e20746860008301527f69732070726f6a656374000000000000000000000000000000000000000000006020830152604082019050919050565b60006145cb6029836156a9565b91507f546869732070726f746f636f6c20686173206e6f74206265656e20617574686f60008301527f72697a65642079657400000000000000000000000000000000000000000000006020830152604082019050919050565b6000614631602b836156a9565b91507f417574686f7269746965732061646d696e2063616e6e6f7420626520616e206960008301527f6e76657374696761746f720000000000000000000000000000000000000000006020830152604082019050919050565b60006146976030836156a9565b91507f416363657373436f6e74726f6c3a2073656e646572206d75737420626520616e60008301527f2061646d696e20746f207265766f6b65000000000000000000000000000000006020830152604082019050919050565b60006146fd601c836156a9565b91507f596f752061726520616c726561647920616e20617574686f72697479000000006000830152602082019050919050565b600061473d6014836156a9565b91507f596f752061726520616e20617574686f726974790000000000000000000000006000830152602082019050919050565b600061477d6023836156a9565b91507f4f6e6c792070726f6d6f746572732063616e207375626d69742070726f746f6360008301527f6f6c7300000000000000000000000000000000000000000000000000000000006020830152604082019050919050565b60006147e36023836156a9565b91507f4f6e6c7920696e76657374696761746f72732063616e20636f6c6c656374206460008301527f61746100000000000000000000000000000000000000000000000000000000006020830152604082019050919050565b6000614849601a836156a9565b91507f596f752061726520616c726561647920612070726f6d6f7465720000000000006000830152602082019050919050565b6000614889601f836156a9565b91507f596f752061726520616c726561647920616e20696e76657374696761746f72006000830152602082019050919050565b60006148c96016836156a9565b91507f596f7572204944206973206e6f7420636f7272656374000000000000000000006000830152602082019050919050565b60006149096021836156a9565b91507f50726f6d6f746572732063616e6e6f7420626520696e76657374696761746f7260008301527f73000000000000000000000000000000000000000000000000000000000000006020830152604082019050919050565b600061496f6030836156a9565b91507f4f6e6c7920696e76657374696761746f72732063616e2061646420706174696560008301527f6e747320746f2070726f746f636f6c73000000000000000000000000000000006020830152604082019050919050565b60006149d56012836156a9565b91507f596f752061726520612070726f6d6f74657200000000000000000000000000006000830152602082019050919050565b6000614a156017836156a9565b91507f596f7520646964206e6f7420636f6e73656e74207965740000000000000000006000830152602082019050919050565b6000614a556022836156a9565b91507f5468652070726f746f636f6c20697320616c726561647920726567697374657260008301527f65640000000000000000000000000000000000000000000000000000000000006020830152604082019050919050565b6000614abb6023836156a9565b91507f417574686f7269746965732063616e6e6f7420626520696e766573746967617460008301527f6f727300000000000000000000000000000000000000000000000000000000006020830152604082019050919050565b6000614b21601f836156a9565b91507f596f7520616c7265616479207265766f6b6520796f757220636f6e73656e74006000830152602082019050919050565b6000614b61601d836156a9565b91507f476574207468652070617469656e7420636f6e73656e742066697273740000006000830152602082019050919050565b6000614ba16022836156a9565b91507f5468657265206973206e6f2070726f746f636f6c20776974682074686973206360008301527f69640000000000000000000000000000000000000000000000000000000000006020830152604082019050919050565b6000614c07602c836156a9565b91507f5468657265206973206e6f2070726f746f636f6c206173736f6369617465642060008301527f77697468207468697320494400000000000000000000000000000000000000006020830152604082019050919050565b6000614c6d6026836156a9565b91507f596f7520646f206e6f74206861766520726967687420666f722074686973207060008301527f617469656e7400000000000000000000000000000000000000000000000000006020830152604082019050919050565b6000614cd36031836156a9565b91507f4f6e6c7920617574686f726974696573206861766520726967687420746f207660008301527f616c69646174652070726f746f636f6c730000000000000000000000000000006020830152604082019050919050565b6000614d39602f836156a9565b91507f416363657373436f6e74726f6c3a2063616e206f6e6c792072656e6f756e636560008301527f20726f6c657320666f722073656c6600000000000000000000000000000000006020830152604082019050919050565b6000614d9f6018836156a9565b91507f596f752061726520612070726f6d6f7465722061646d696e00000000000000006000830152602082019050919050565b6000614ddf6027836156a9565b91507f546869732070726f746f636f6c206873206e6f74206265656e2076616c69646160008301527f74656420796574000000000000000000000000000000000000000000000000006020830152604082019050919050565b6000610100830160008301518482036000860152614e568282614105565b9150506020830151614e6b6020860182614045565b506040830151614e7e6040860182614045565b506060830151614e9160608601826140d8565b506080830151614ea460808601826140d8565b5060a0830151614eb760a0860182614eef565b5060c0830151614eca60c0860182614eef565b5060e083015184820360e0860152614ee28282614105565b9150508091505092915050565b614ef88161578f565b82525050565b614f078161578f565b82525050565b6000614f198284614177565b915081905092915050565b6000602082019050614f396000830184614054565b92915050565b6000608082019050614f546000830187614054565b614f616020830186614054565b8181036040830152614f73818561413e565b9050614f8260608301846140e7565b95945050505050565b6000604082019050614fa06000830185614054565b8181036020830152614fb2818461413e565b90509392505050565b60006020820190508181036000830152614fd58184614063565b905092915050565b6000602082019050614ff260008301846140e7565b92915050565b600060208201905061500d60008301846140f6565b92915050565b6000602082019050818103600083015261502d818461413e565b905092915050565b6000606082019050818103600083015261504f818661413e565b905061505e6020830185614054565b61506b6040830184614054565b949350505050565b600061010082019050818103600083015261508e818b61413e565b905061509d602083018a614054565b6150aa6040830189614054565b6150b760608301886140e7565b6150c460808301876140e7565b6150d160a0830186614efe565b6150de60c0830185614efe565b81810360e08301526150f0818461413e565b90509998505050505050505050565b60006040820190508181036000830152615119818561413e565b9050818103602083015261512d818461413e565b90509392505050565b6000602082019050818103600083015261514f816141a8565b9050919050565b6000602082019050818103600083015261516f816141e8565b9050919050565b6000602082019050818103600083015261518f8161424e565b9050919050565b600060208201905081810360008301526151af816142b4565b9050919050565b600060208201905081810360008301526151cf8161431a565b9050919050565b600060208201905081810360008301526151ef81614380565b9050919050565b6000602082019050818103600083015261520f816143c0565b9050919050565b6000602082019050818103600083015261522f81614426565b9050919050565b6000602082019050818103600083015261524f8161448c565b9050919050565b6000602082019050818103600083015261526f816144f2565b9050919050565b6000602082019050818103600083015261528f81614558565b9050919050565b600060208201905081810360008301526152af816145be565b9050919050565b600060208201905081810360008301526152cf81614624565b9050919050565b600060208201905081810360008301526152ef8161468a565b9050919050565b6000602082019050818103600083015261530f816146f0565b9050919050565b6000602082019050818103600083015261532f81614730565b9050919050565b6000602082019050818103600083015261534f81614770565b9050919050565b6000602082019050818103600083015261536f816147d6565b9050919050565b6000602082019050818103600083015261538f8161483c565b9050919050565b600060208201905081810360008301526153af8161487c565b9050919050565b600060208201905081810360008301526153cf816148bc565b9050919050565b600060208201905081810360008301526153ef816148fc565b9050919050565b6000602082019050818103600083015261540f81614962565b9050919050565b6000602082019050818103600083015261542f816149c8565b9050919050565b6000602082019050818103600083015261544f81614a08565b9050919050565b6000602082019050818103600083015261546f81614a48565b9050919050565b6000602082019050818103600083015261548f81614aae565b9050919050565b600060208201905081810360008301526154af81614b14565b9050919050565b600060208201905081810360008301526154cf81614b54565b9050919050565b600060208201905081810360008301526154ef81614b94565b9050919050565b6000602082019050818103600083015261550f81614bfa565b9050919050565b6000602082019050818103600083015261552f81614c60565b9050919050565b6000602082019050818103600083015261554f81614cc6565b9050919050565b6000602082019050818103600083015261556f81614d2c565b9050919050565b6000602082019050818103600083015261558f81614d92565b9050919050565b600060208201905081810360008301526155af81614dd2565b9050919050565b600060208201905081810360008301526155d08184614e38565b905092915050565b60006020820190506155ed6000830184614efe565b92915050565b6000604051905081810181811067ffffffffffffffff8211171561561a576156196158b4565b5b8060405250919050565b600067ffffffffffffffff82111561563f5761563e6158b4565b5b601f19601f8301169050602081019050919050565b6000819050602082019050919050565b600081519050919050565b600081519050919050565b6000602082019050919050565b600082825260208201905092915050565b600082825260208201905092915050565b600082825260208201905092915050565b600081905092915050565b60006156d08261578f565b91506156db8361578f565b9250827fffffffffffffffffffffffffffffffffffffffffffffffffffffffffffffffff038211156157105761570f615856565b5b828201905092915050565b60006157268261576f565b9050919050565b60008115159050919050565b6000819050919050565b60007fffffffff0000000000000000000000000000000000000000000000000000000082169050919050565b600073ffffffffffffffffffffffffffffffffffffffff82169050919050565b6000819050919050565b82818337600083830152505050565b60005b838110156157c65780820151818401526020810190506157ab565b838111156157d5576000848401525b50505050565b600060028204905060018216806157f357607f821691505b6020821081141561580757615806615885565b5b50919050565b60006158188261578f565b91507fffffffffffffffffffffffffffffffffffffffffffffffffffffffffffffffff82141561584b5761584a615856565b5b600182019050919050565b7f4e487b7100000000000000000000000000000000000000000000000000000000600052601160045260246000fd5b7f4e487b7100000000000000000000000000000000000000000000000000000000600052602260045260246000fd5b7f4e487b7100000000000000000000000000000000000000000000000000000000600052604160045260246000fd5b6000601f19601f8301169050919050565b6158fd8161571b565b811461590857600080fd5b50565b61591481615739565b811461591f57600080fd5b50565b61592b81615743565b811461593657600080fd5b50565b6159428161578f565b811461594d57600080fd5b5056fea2646970667358221220a54bc9defbff9f9b3916bae87b2663b575ea64bdad9239bcc6d7fe84f1fa9c6a64736f6c63430008000033",
  "immutableReferences": {},
  "source": "// SPDX-License-Identifier: MIT\npragma solidity 0.8.0;\n\nimport \"../client/node_modules/@openzeppelin/contracts/access/AccessControl.sol\";\n\ncontract MedTrials is AccessControl {\n    struct Protocol {\n        string cid;\n        address promoter;\n        address investigator;\n        bool registered;\n        bool authorized;\n        uint256 nbOfPatients;\n        uint256 index;\n        string status;\n    }\n\n    struct Patient {\n        address patient;\n        address investigator;\n        string protocolID;\n        bool consent;\n        string[] cids;\n    }\n\n    struct Promoter {\n        address promoter;\n        string cid;\n    }\n\n    mapping(string => Protocol) public protocols;\n    mapping(string => Patient) public patients;\n    mapping(uint256 => string) public protocolsID;\n    mapping(uint256 => Promoter) public promoters;\n    mapping(address => string) roles;\n\n    mapping(string => mapping(string => uint256)) private protocolNumerotation;\n\n    bytes32 public constant AUTHORITY = keccak256(\"AUTHORITY\");\n    bytes32 public constant AUTHORITY_ADMIN = keccak256(\"AUTHORITYADMIN\");\n    bytes32 public constant PROMOTER = keccak256(\"PROMOTER\");\n    bytes32 public constant PROMOTER_ADMIN = keccak256(\"PROMOTERADMIN\");\n    bytes32 public constant INVESTIGATOR = keccak256(\"INVESTIGATOR\");\n    bytes32 public constant PATIENT = keccak256(\"PATIENT\");\n\n    uint256 public nbOfProtocolsRegistered;\n    uint256 public nbOfPatients;\n    uint256 public nbOfPromoters;\n\n    event promoterAdded(address _address);\n    event authorityAdded(address _address);\n    event investigatorAdded(address _address);\n    event protocolValidated(string _id);\n    event newProtocol(string _id, address _promotor, address _investigator);\n    event patientAdded(string _patientID, string _protocolID);\n    event consentGiven(string _patientID);\n    event consentRevoked(string _patientID);\n    event cidSaved(string _cid);\n    event protocolSuspended(string _protocolID);\n    event protocolResumed(string _protocolID);\n\n    constructor(\n        address _default_admin,\n        address _authorityAdmin,\n        address _promotorAdmin\n    ) {\n        _setupRole(DEFAULT_ADMIN_ROLE, _default_admin);\n\n        _setRoleAdmin(AUTHORITY_ADMIN, DEFAULT_ADMIN_ROLE);\n        _setRoleAdmin(AUTHORITY, AUTHORITY_ADMIN);\n\n        _setRoleAdmin(PROMOTER_ADMIN, DEFAULT_ADMIN_ROLE);\n        _setRoleAdmin(PROMOTER, PROMOTER_ADMIN);\n\n        _setRoleAdmin(INVESTIGATOR, PROMOTER);\n\n        _setupRole(AUTHORITY_ADMIN, _authorityAdmin);\n        _setupRole(PROMOTER_ADMIN, _promotorAdmin);\n\n        renounceRole(DEFAULT_ADMIN_ROLE, _default_admin);\n\n        roles[_authorityAdmin] = \"AUTHORITY ADMIN\";\n        roles[_promotorAdmin] = \"PROMOTER ADMIN\";\n    }\n\n    function addPromoter(address _address, string memory _cid) public {\n        require(\n            hasRole(PROMOTER_ADMIN, msg.sender),\n            \"Only the promotor admin can add investigators\"\n        );\n        require(!hasRole(PROMOTER, _address), \"You are already a promoter\");\n        require(!hasRole(INVESTIGATOR, _address), \"You are an investigator\");\n        require(!hasRole(AUTHORITY, _address), \"You are an authority\");\n        require(!hasRole(PROMOTER_ADMIN, _address), \"You are a promoter admin\");\n        require(\n            !hasRole(AUTHORITY_ADMIN, _address),\n            \"You are an authority admin\"\n        );\n\n        grantRole(PROMOTER, _address);\n        roles[_address] = \"PROMOTER\";\n\n        promoters[nbOfPromoters].cid = _cid;\n        promoters[nbOfPromoters].promoter = _address;\n        nbOfPromoters++;\n\n        emit promoterAdded(_address);\n    }\n\n    function addInvestigator(address _address) public {\n        require(\n            hasRole(PROMOTER_ADMIN, msg.sender),\n            \"Only the promotor admin can add investigators\"\n        );\n        require(\n            !hasRole(INVESTIGATOR, _address),\n            \"You are already an investigator\"\n        );\n        require(!hasRole(PROMOTER, _address), \"You are a promoter\");\n        require(!hasRole(AUTHORITY, _address), \"You are an authority\");\n        require(!hasRole(PROMOTER_ADMIN, _address), \"You are a promoter admin\");\n        require(\n            !hasRole(AUTHORITY_ADMIN, _address),\n            \"You are an authority admin\"\n        );\n\n        grantRole(INVESTIGATOR, _address);\n        roles[_address] = \"INVESTIGATOR\";\n\n        emit investigatorAdded(_address);\n    }\n\n    function addAuthority(address _address) public {\n        require(\n            hasRole(AUTHORITY_ADMIN, msg.sender),\n            \"Only the authority admin can add investigators\"\n        );\n        require(!hasRole(AUTHORITY, _address), \"You are already an authority\");\n        require(!hasRole(PROMOTER, _address), \"You are a promoter\");\n        require(!hasRole(INVESTIGATOR, _address), \"You are an investigator\");\n        require(!hasRole(PROMOTER_ADMIN, _address), \"You are a promoter admin\");\n        require(\n            !hasRole(AUTHORITY_ADMIN, _address),\n            \"You are an authority admin\"\n        );\n\n        grantRole(AUTHORITY, _address);\n        roles[_address] = \"AUTHORITY\";\n\n        emit authorityAdded(_address);\n    }\n\n    function registerProtocol(\n        string memory _id,\n        string memory _cid,\n        string memory center,\n        string memory category,\n        address _investigator\n    ) public {\n        require(\n            hasRole(PROMOTER, msg.sender),\n            \"Only promoters can submit protocols\"\n        );\n        require(\n            !hasRole(PROMOTER, _investigator),\n            \"Promoters cannot be investigators\"\n        );\n        require(\n            !hasRole(AUTHORITY, _investigator),\n            \"Authorities cannot be investigators\"\n        );\n        require(\n            !hasRole(PROMOTER_ADMIN, _investigator),\n            \"Promoters admin cannot be an investigator\"\n        );\n        require(\n            !hasRole(AUTHORITY_ADMIN, _investigator),\n            \"Authorities admin cannot be an investigator\"\n        );\n        require(\n            !protocols[_id].registered,\n            \"The protocol is already registered\"\n        );\n\n        protocols[_id].promoter = msg.sender;\n        protocols[_id].investigator = _investigator;\n        protocols[_id].registered = true;\n        protocols[_id].cid = _cid;\n        protocols[_id].status = \"registered\";\n        protocols[_id].index = nbOfProtocolsRegistered;\n\n        protocolsID[nbOfProtocolsRegistered] = _id;\n        nbOfProtocolsRegistered++;\n\n        protocolNumerotation[center][category]++;\n\n        if (!hasRole(INVESTIGATOR, _investigator)) {\n            grantRole(INVESTIGATOR, _investigator);\n            roles[_investigator] = \"INVESTIGATOR\";\n        }\n\n        emit newProtocol(_id, msg.sender, _investigator);\n    }\n\n    function getProtocolCID(string memory _id)\n        public\n        view\n        returns (string memory)\n    {\n        require(\n            hasRole(PROMOTER, msg.sender) || hasRole(INVESTIGATOR, msg.sender),\n            \"only promoters and investigators have this right\"\n        );\n        require(\n            protocols[_id].promoter == msg.sender ||\n                protocols[_id].investigator == msg.sender,\n            \"You do not have right to open this project\"\n        );\n        require(\n            protocols[_id].authorized,\n            \"There is no protocol with this cid\"\n        );\n\n        return protocols[_id].cid;\n    }\n\n    function validateProtocol(string memory _id) public {\n        require(\n            hasRole(AUTHORITY, msg.sender),\n            \"Only authorities have right to validate protocols\"\n        );\n        require(\n            protocols[_id].registered == true,\n            \"There is no protocol associated with this ID\"\n        );\n\n        protocols[_id].authorized = true;\n        protocols[_id].status = \"validated\";\n\n        emit protocolValidated(_id);\n    }\n\n    function getProtocol(string memory _id)\n        public\n        view\n        returns (Protocol memory)\n    {\n        require(\n            protocols[_id].registered == true,\n            \"There is no protocol with this id\"\n        );\n        require(\n            protocols[_id].authorized == true,\n            \"This protocol hs not been validated yet\"\n        );\n\n        return protocols[_id];\n    }\n\n    function addPatient(\n        string memory _patientID,\n        address _patientAddress,\n        string memory _protocolID\n    ) public {\n        require(\n            hasRole(INVESTIGATOR, msg.sender),\n            \"Only investigators can add patients to protocols\"\n        );\n        require(\n            protocols[_protocolID].authorized == true,\n            \"This protocol has not been authorized yet\"\n        );\n        require(\n            msg.sender == protocols[_protocolID].investigator,\n            \"You do not have right to add patients to this protocol\"\n        );\n        //require(_patientAddress != protocols[_protocolID].patient, \"This patient already exist\");\n\n        patients[_patientID].consent = true;\n        patients[_patientID].patient = _patientAddress;\n        patients[_patientID].investigator = msg.sender;\n        patients[_patientID].protocolID = _protocolID;\n        protocols[_protocolID].nbOfPatients++;\n\n        emit patientAdded(_patientID, _protocolID);\n    }\n\n    function giveConsent(string memory _patientID) public {\n        require(\n            msg.sender == patients[_patientID].patient,\n            \"Your ID is not correct\"\n        );\n        require(\n            patients[_patientID].consent == false,\n            \"You did not consent yet\"\n        );\n\n        patients[_patientID].consent == true;\n\n        emit consentGiven(_patientID);\n    }\n\n    function revokeConsent(string memory _patientID) public {\n        require(\n            msg.sender == patients[_patientID].patient,\n            \"Your ID is not correct\"\n        );\n        require(\n            patients[_patientID].consent == true,\n            \"You already revoke your consent\"\n        );\n\n        patients[_patientID].consent == false;\n        delete patients[_patientID];\n\n        emit consentRevoked(_patientID);\n    }\n\n    function suspendTrials(string memory _protocolID) public {\n        require(\n            hasRole(AUTHORITY, msg.sender),\n            \"Only authoriities can suspend trials\"\n        );\n        require(protocols[_protocolID].authorized);\n\n        protocols[_protocolID].authorized = false;\n        protocols[_protocolID].status = \"suspended\";\n\n        emit protocolSuspended(_protocolID);\n    }\n\n    function resumeTrials(string memory _protocolID) public {\n        require(\n            hasRole(AUTHORITY, msg.sender),\n            \"Only authoriities can suspend trials\"\n        );\n        require(!protocols[_protocolID].authorized);\n\n        protocols[_protocolID].authorized = true;\n        protocols[_protocolID].status = \"resumed\";\n\n        emit protocolResumed(_protocolID);\n    }\n\n    function storeDataCID(string memory _patientID, string memory _cid) public {\n        require(\n            hasRole(INVESTIGATOR, msg.sender),\n            \"Only investigators can collect data\"\n        );\n        require(\n            msg.sender == patients[_patientID].investigator,\n            \"You do not have right for this patient\"\n        );\n        require(\n            patients[_patientID].consent == true,\n            \"Get the patient consent first\"\n        );\n\n        patients[_patientID].cids.push(_cid);\n\n        emit cidSaved(_cid);\n    }\n\n    function getDataCID(string memory _patientID)\n        public\n        view\n        returns (string[] memory)\n    {\n        require(\n            hasRole(INVESTIGATOR, msg.sender),\n            \"Only investigators can collect data\"\n        );\n        require(\n            msg.sender == patients[_patientID].investigator,\n            \"You do not have right for this patient\"\n        );\n        require(\n            patients[_patientID].consent == true,\n            \"Get the patient consent first\"\n        );\n\n        return patients[_patientID].cids;\n    }\n\n    function getProtocolStatus(string memory _protocolID)\n        public\n        view\n        returns (string memory)\n    {\n        return protocols[_protocolID].status;\n    }\n\n    function numberOfPatientByProtocol(string memory _protocolID)\n        public\n        view\n        returns (uint256)\n    {\n        return protocols[_protocolID].nbOfPatients;\n    }\n\n    function getRole(address _address) public view returns (string memory) {\n        return roles[_address];\n    }\n\n    function getProtocoleNumerotation(\n        string memory center,\n        string memory category\n    ) public view returns (uint256) {\n        return protocolNumerotation[center][category] + 1;\n    }\n}\n",
  "sourcePath": "/Users/samuel/Documents/Projet/Pojet_Dev/MedTrials/contracts/MedTrials.sol",
  "compiler": {
    "name": "solc",
    "version": "0.8.0+commit.c7dfd78e.Emscripten.clang"
  },
  "schemaVersion": "3.3.4",
  "updatedAt": "2021-05-04T21:05:34.199Z",
  "networkType": "ethereum",
  "devdoc": {
    "kind": "dev",
    "methods": {
      "getRoleAdmin(bytes32)": {
        "details": "Returns the admin role that controls `role`. See {grantRole} and {revokeRole}. To change a role's admin, use {_setRoleAdmin}."
      },
      "grantRole(bytes32,address)": {
        "details": "Grants `role` to `account`. If `account` had not been already granted `role`, emits a {RoleGranted} event. Requirements: - the caller must have ``role``'s admin role."
      },
      "hasRole(bytes32,address)": {
        "details": "Returns `true` if `account` has been granted `role`."
      },
      "renounceRole(bytes32,address)": {
        "details": "Revokes `role` from the calling account. Roles are often managed via {grantRole} and {revokeRole}: this function's purpose is to provide a mechanism for accounts to lose their privileges if they are compromised (such as when a trusted device is misplaced). If the calling account had been granted `role`, emits a {RoleRevoked} event. Requirements: - the caller must be `account`."
      },
      "revokeRole(bytes32,address)": {
        "details": "Revokes `role` from `account`. If `account` had been granted `role`, emits a {RoleRevoked} event. Requirements: - the caller must have ``role``'s admin role."
      },
      "supportsInterface(bytes4)": {
        "details": "See {IERC165-supportsInterface}."
      }
    },
    "version": 1
  },
  "userdoc": {
    "kind": "user",
    "methods": {},
    "version": 1
  }
}