{
  "contractName": "MedTrials",
  "abi": [
    {
      "inputs": [
        {
          "internalType": "address",
          "name": "_default_admin",
          "type": "address"
        },
        {
          "internalType": "address",
          "name": "_authorityAdmin",
          "type": "address"
        },
        {
          "internalType": "address",
          "name": "_promotorAdmin",
          "type": "address"
        }
      ],
      "stateMutability": "nonpayable",
      "type": "constructor"
    },
    {
      "anonymous": false,
      "inputs": [
        {
          "indexed": true,
          "internalType": "bytes32",
          "name": "role",
          "type": "bytes32"
        },
        {
          "indexed": true,
          "internalType": "bytes32",
          "name": "previousAdminRole",
          "type": "bytes32"
        },
        {
          "indexed": true,
          "internalType": "bytes32",
          "name": "newAdminRole",
          "type": "bytes32"
        }
      ],
      "name": "RoleAdminChanged",
      "type": "event"
    },
    {
      "anonymous": false,
      "inputs": [
        {
          "indexed": true,
          "internalType": "bytes32",
          "name": "role",
          "type": "bytes32"
        },
        {
          "indexed": true,
          "internalType": "address",
          "name": "account",
          "type": "address"
        },
        {
          "indexed": true,
          "internalType": "address",
          "name": "sender",
          "type": "address"
        }
      ],
      "name": "RoleGranted",
      "type": "event"
    },
    {
      "anonymous": false,
      "inputs": [
        {
          "indexed": true,
          "internalType": "bytes32",
          "name": "role",
          "type": "bytes32"
        },
        {
          "indexed": true,
          "internalType": "address",
          "name": "account",
          "type": "address"
        },
        {
          "indexed": true,
          "internalType": "address",
          "name": "sender",
          "type": "address"
        }
      ],
      "name": "RoleRevoked",
      "type": "event"
    },
    {
      "anonymous": false,
      "inputs": [
        {
          "indexed": false,
          "internalType": "address",
          "name": "_address",
          "type": "address"
        }
      ],
      "name": "authorityAdded",
      "type": "event"
    },
    {
      "anonymous": false,
      "inputs": [
        {
          "indexed": false,
          "internalType": "string",
          "name": "_cid",
          "type": "string"
        }
      ],
      "name": "cidSaved",
      "type": "event"
    },
    {
      "anonymous": false,
      "inputs": [
        {
          "indexed": false,
          "internalType": "string",
          "name": "_patientID",
          "type": "string"
        }
      ],
      "name": "consentGiven",
      "type": "event"
    },
    {
      "anonymous": false,
      "inputs": [
        {
          "indexed": false,
          "internalType": "string",
          "name": "_patientID",
          "type": "string"
        }
      ],
      "name": "consentRevoked",
      "type": "event"
    },
    {
      "anonymous": false,
      "inputs": [
        {
          "indexed": false,
          "internalType": "address",
          "name": "_address",
          "type": "address"
        }
      ],
      "name": "investigatorAdded",
      "type": "event"
    },
    {
      "anonymous": false,
      "inputs": [
        {
          "indexed": false,
          "internalType": "string",
          "name": "_id",
          "type": "string"
        },
        {
          "indexed": false,
          "internalType": "address",
          "name": "_promotor",
          "type": "address"
        },
        {
          "indexed": false,
          "internalType": "address",
          "name": "_investigator",
          "type": "address"
        }
      ],
      "name": "newProtocol",
      "type": "event"
    },
    {
      "anonymous": false,
      "inputs": [
        {
          "indexed": false,
          "internalType": "string",
          "name": "_patientID",
          "type": "string"
        },
        {
          "indexed": false,
          "internalType": "string",
          "name": "_protocolID",
          "type": "string"
        }
      ],
      "name": "patientAdded",
      "type": "event"
    },
    {
      "anonymous": false,
      "inputs": [
        {
          "indexed": false,
          "internalType": "address",
          "name": "_address",
          "type": "address"
        }
      ],
      "name": "promoterAdded",
      "type": "event"
    },
    {
      "anonymous": false,
      "inputs": [
        {
          "indexed": false,
          "internalType": "string",
          "name": "_protocolID",
          "type": "string"
        }
      ],
      "name": "protocolResumed",
      "type": "event"
    },
    {
      "anonymous": false,
      "inputs": [
        {
          "indexed": false,
          "internalType": "string",
          "name": "_protocolID",
          "type": "string"
        }
      ],
      "name": "protocolSuspended",
      "type": "event"
    },
    {
      "anonymous": false,
      "inputs": [
        {
          "indexed": false,
          "internalType": "string",
          "name": "_id",
          "type": "string"
        }
      ],
      "name": "protocolValidated",
      "type": "event"
    },
    {
      "inputs": [],
      "name": "AUTHORITY",
      "outputs": [
        {
          "internalType": "bytes32",
          "name": "",
          "type": "bytes32"
        }
      ],
      "stateMutability": "view",
      "type": "function",
      "constant": true
    },
    {
      "inputs": [],
      "name": "AUTHORITY_ADMIN",
      "outputs": [
        {
          "internalType": "bytes32",
          "name": "",
          "type": "bytes32"
        }
      ],
      "stateMutability": "view",
      "type": "function",
      "constant": true
    },
    {
      "inputs": [],
      "name": "DEFAULT_ADMIN_ROLE",
      "outputs": [
        {
          "internalType": "bytes32",
          "name": "",
          "type": "bytes32"
        }
      ],
      "stateMutability": "view",
      "type": "function",
      "constant": true
    },
    {
      "inputs": [],
      "name": "INVESTIGATOR",
      "outputs": [
        {
          "internalType": "bytes32",
          "name": "",
          "type": "bytes32"
        }
      ],
      "stateMutability": "view",
      "type": "function",
      "constant": true
    },
    {
      "inputs": [],
      "name": "PATIENT",
      "outputs": [
        {
          "internalType": "bytes32",
          "name": "",
          "type": "bytes32"
        }
      ],
      "stateMutability": "view",
      "type": "function",
      "constant": true
    },
    {
      "inputs": [],
      "name": "PROMOTER",
      "outputs": [
        {
          "internalType": "bytes32",
          "name": "",
          "type": "bytes32"
        }
      ],
      "stateMutability": "view",
      "type": "function",
      "constant": true
    },
    {
      "inputs": [],
      "name": "PROMOTER_ADMIN",
      "outputs": [
        {
          "internalType": "bytes32",
          "name": "",
          "type": "bytes32"
        }
      ],
      "stateMutability": "view",
      "type": "function",
      "constant": true
    },
    {
      "inputs": [
        {
          "internalType": "uint256",
          "name": "",
          "type": "uint256"
        }
      ],
      "name": "authorities",
      "outputs": [
        {
          "internalType": "address",
          "name": "authority",
          "type": "address"
        },
        {
          "internalType": "string",
          "name": "cid",
          "type": "string"
        }
      ],
      "stateMutability": "view",
      "type": "function",
      "constant": true
    },
    {
      "inputs": [
        {
          "internalType": "bytes32",
          "name": "role",
          "type": "bytes32"
        }
      ],
      "name": "getRoleAdmin",
      "outputs": [
        {
          "internalType": "bytes32",
          "name": "",
          "type": "bytes32"
        }
      ],
      "stateMutability": "view",
      "type": "function",
      "constant": true
    },
    {
      "inputs": [
        {
          "internalType": "bytes32",
          "name": "role",
          "type": "bytes32"
        },
        {
          "internalType": "address",
          "name": "account",
          "type": "address"
        }
      ],
      "name": "grantRole",
      "outputs": [],
      "stateMutability": "nonpayable",
      "type": "function"
    },
    {
      "inputs": [
        {
          "internalType": "bytes32",
          "name": "role",
          "type": "bytes32"
        },
        {
          "internalType": "address",
          "name": "account",
          "type": "address"
        }
      ],
      "name": "hasRole",
      "outputs": [
        {
          "internalType": "bool",
          "name": "",
          "type": "bool"
        }
      ],
      "stateMutability": "view",
      "type": "function",
      "constant": true
    },
    {
      "inputs": [
        {
          "internalType": "uint256",
          "name": "",
          "type": "uint256"
        }
      ],
      "name": "investigators",
      "outputs": [
        {
          "internalType": "address",
          "name": "promoter",
          "type": "address"
        },
        {
          "internalType": "address",
          "name": "investigator",
          "type": "address"
        },
        {
          "internalType": "string",
          "name": "cid",
          "type": "string"
        }
      ],
      "stateMutability": "view",
      "type": "function",
      "constant": true
    },
    {
      "inputs": [],
      "name": "nbOfAuthorities",
      "outputs": [
        {
          "internalType": "uint256",
          "name": "",
          "type": "uint256"
        }
      ],
      "stateMutability": "view",
      "type": "function",
      "constant": true
    },
    {
      "inputs": [],
      "name": "nbOfInvestigators",
      "outputs": [
        {
          "internalType": "uint256",
          "name": "",
          "type": "uint256"
        }
      ],
      "stateMutability": "view",
      "type": "function",
      "constant": true
    },
    {
      "inputs": [],
      "name": "nbOfPatients",
      "outputs": [
        {
          "internalType": "uint256",
          "name": "",
          "type": "uint256"
        }
      ],
      "stateMutability": "view",
      "type": "function",
      "constant": true
    },
    {
      "inputs": [],
      "name": "nbOfPromoters",
      "outputs": [
        {
          "internalType": "uint256",
          "name": "",
          "type": "uint256"
        }
      ],
      "stateMutability": "view",
      "type": "function",
      "constant": true
    },
    {
      "inputs": [],
      "name": "nbOfProtocolsRegistered",
      "outputs": [
        {
          "internalType": "uint256",
          "name": "",
          "type": "uint256"
        }
      ],
      "stateMutability": "view",
      "type": "function",
      "constant": true
    },
    {
      "inputs": [
        {
          "internalType": "string",
          "name": "",
          "type": "string"
        }
      ],
      "name": "patients",
      "outputs": [
        {
          "internalType": "address",
          "name": "patient",
          "type": "address"
        },
        {
          "internalType": "address",
          "name": "investigator",
          "type": "address"
        },
        {
          "internalType": "string",
          "name": "protocolID",
          "type": "string"
        },
        {
          "internalType": "bool",
          "name": "consent",
          "type": "bool"
        }
      ],
      "stateMutability": "view",
      "type": "function",
      "constant": true
    },
    {
      "inputs": [
        {
          "internalType": "uint256",
          "name": "",
          "type": "uint256"
        }
      ],
      "name": "promoters",
      "outputs": [
        {
          "internalType": "address",
          "name": "promoter",
          "type": "address"
        },
        {
          "internalType": "string",
          "name": "cid",
          "type": "string"
        }
      ],
      "stateMutability": "view",
      "type": "function",
      "constant": true
    },
    {
      "inputs": [
        {
          "internalType": "string",
          "name": "",
          "type": "string"
        }
      ],
      "name": "protocols",
      "outputs": [
        {
          "internalType": "string",
          "name": "cid",
          "type": "string"
        },
        {
          "internalType": "address",
          "name": "promoter",
          "type": "address"
        },
        {
          "internalType": "address",
          "name": "investigator",
          "type": "address"
        },
        {
          "internalType": "bool",
          "name": "registered",
          "type": "bool"
        },
        {
          "internalType": "bool",
          "name": "authorized",
          "type": "bool"
        },
        {
          "internalType": "uint256",
          "name": "nbOfPatients",
          "type": "uint256"
        },
        {
          "internalType": "uint256",
          "name": "index",
          "type": "uint256"
        },
        {
          "internalType": "string",
          "name": "status",
          "type": "string"
        }
      ],
      "stateMutability": "view",
      "type": "function",
      "constant": true
    },
    {
      "inputs": [
        {
          "internalType": "uint256",
          "name": "",
          "type": "uint256"
        }
      ],
      "name": "protocolsID",
      "outputs": [
        {
          "internalType": "string",
          "name": "",
          "type": "string"
        }
      ],
      "stateMutability": "view",
      "type": "function",
      "constant": true
    },
    {
      "inputs": [
        {
          "internalType": "bytes32",
          "name": "role",
          "type": "bytes32"
        },
        {
          "internalType": "address",
          "name": "account",
          "type": "address"
        }
      ],
      "name": "renounceRole",
      "outputs": [],
      "stateMutability": "nonpayable",
      "type": "function"
    },
    {
      "inputs": [
        {
          "internalType": "bytes32",
          "name": "role",
          "type": "bytes32"
        },
        {
          "internalType": "address",
          "name": "account",
          "type": "address"
        }
      ],
      "name": "revokeRole",
      "outputs": [],
      "stateMutability": "nonpayable",
      "type": "function"
    },
    {
      "inputs": [
        {
          "internalType": "bytes4",
          "name": "interfaceId",
          "type": "bytes4"
        }
      ],
      "name": "supportsInterface",
      "outputs": [
        {
          "internalType": "bool",
          "name": "",
          "type": "bool"
        }
      ],
      "stateMutability": "view",
      "type": "function",
      "constant": true
    },
    {
      "inputs": [
        {
          "internalType": "address",
          "name": "_address",
          "type": "address"
        },
        {
          "internalType": "string",
          "name": "_cid",
          "type": "string"
        }
      ],
      "name": "addAuthority",
      "outputs": [],
      "stateMutability": "nonpayable",
      "type": "function"
    },
    {
      "inputs": [
        {
          "internalType": "address",
          "name": "_address",
          "type": "address"
        },
        {
          "internalType": "string",
          "name": "_cid",
          "type": "string"
        }
      ],
      "name": "addPromoter",
      "outputs": [],
      "stateMutability": "nonpayable",
      "type": "function"
    },
    {
      "inputs": [
        {
          "internalType": "address",
          "name": "_address",
          "type": "address"
        },
        {
          "internalType": "string",
          "name": "_cid",
          "type": "string"
        }
      ],
      "name": "addInvestigator",
      "outputs": [],
      "stateMutability": "nonpayable",
      "type": "function"
    },
    {
      "inputs": [
        {
          "internalType": "string",
          "name": "_id",
          "type": "string"
        },
        {
          "internalType": "string",
          "name": "_cid",
          "type": "string"
        },
        {
          "internalType": "string",
          "name": "center",
          "type": "string"
        },
        {
          "internalType": "string",
          "name": "category",
          "type": "string"
        },
        {
          "internalType": "address",
          "name": "_investigator",
          "type": "address"
        }
      ],
      "name": "registerProtocol",
      "outputs": [],
      "stateMutability": "nonpayable",
      "type": "function"
    },
    {
      "inputs": [
        {
          "internalType": "string",
          "name": "_id",
          "type": "string"
        }
      ],
      "name": "getProtocolCID",
      "outputs": [
        {
          "internalType": "string",
          "name": "",
          "type": "string"
        }
      ],
      "stateMutability": "view",
      "type": "function",
      "constant": true
    },
    {
      "inputs": [
        {
          "internalType": "string",
          "name": "_id",
          "type": "string"
        }
      ],
      "name": "validateProtocol",
      "outputs": [],
      "stateMutability": "nonpayable",
      "type": "function"
    },
    {
      "inputs": [
        {
          "internalType": "string",
          "name": "_id",
          "type": "string"
        }
      ],
      "name": "getProtocol",
      "outputs": [
        {
          "components": [
            {
              "internalType": "string",
              "name": "cid",
              "type": "string"
            },
            {
              "internalType": "address",
              "name": "promoter",
              "type": "address"
            },
            {
              "internalType": "address",
              "name": "investigator",
              "type": "address"
            },
            {
              "internalType": "bool",
              "name": "registered",
              "type": "bool"
            },
            {
              "internalType": "bool",
              "name": "authorized",
              "type": "bool"
            },
            {
              "internalType": "uint256",
              "name": "nbOfPatients",
              "type": "uint256"
            },
            {
              "internalType": "uint256",
              "name": "index",
              "type": "uint256"
            },
            {
              "internalType": "string",
              "name": "status",
              "type": "string"
            }
          ],
          "internalType": "struct MedTrials.Protocol",
          "name": "",
          "type": "tuple"
        }
      ],
      "stateMutability": "view",
      "type": "function",
      "constant": true
    },
    {
      "inputs": [
        {
          "internalType": "string",
          "name": "_patientID",
          "type": "string"
        },
        {
          "internalType": "address",
          "name": "_patientAddress",
          "type": "address"
        },
        {
          "internalType": "string",
          "name": "_protocolID",
          "type": "string"
        }
      ],
      "name": "addPatient",
      "outputs": [],
      "stateMutability": "nonpayable",
      "type": "function"
    },
    {
      "inputs": [
        {
          "internalType": "string",
          "name": "_patientID",
          "type": "string"
        }
      ],
      "name": "giveConsent",
      "outputs": [],
      "stateMutability": "nonpayable",
      "type": "function"
    },
    {
      "inputs": [
        {
          "internalType": "string",
          "name": "_patientID",
          "type": "string"
        }
      ],
      "name": "revokeConsent",
      "outputs": [],
      "stateMutability": "nonpayable",
      "type": "function"
    },
    {
      "inputs": [
        {
          "internalType": "string",
          "name": "_protocolID",
          "type": "string"
        }
      ],
      "name": "suspendTrials",
      "outputs": [],
      "stateMutability": "nonpayable",
      "type": "function"
    },
    {
      "inputs": [
        {
          "internalType": "string",
          "name": "_protocolID",
          "type": "string"
        }
      ],
      "name": "resumeTrials",
      "outputs": [],
      "stateMutability": "nonpayable",
      "type": "function"
    },
    {
      "inputs": [
        {
          "internalType": "string",
          "name": "_patientID",
          "type": "string"
        },
        {
          "internalType": "string",
          "name": "_cid",
          "type": "string"
        }
      ],
      "name": "storeDataCID",
      "outputs": [],
      "stateMutability": "nonpayable",
      "type": "function"
    },
    {
      "inputs": [
        {
          "internalType": "string",
          "name": "_patientID",
          "type": "string"
        }
      ],
      "name": "getDataCID",
      "outputs": [
        {
          "internalType": "string[]",
          "name": "",
          "type": "string[]"
        }
      ],
      "stateMutability": "view",
      "type": "function",
      "constant": true
    },
    {
      "inputs": [
        {
          "internalType": "string",
          "name": "_protocolID",
          "type": "string"
        }
      ],
      "name": "getProtocolStatus",
      "outputs": [
        {
          "internalType": "string",
          "name": "",
          "type": "string"
        }
      ],
      "stateMutability": "view",
      "type": "function",
      "constant": true
    },
    {
      "inputs": [
        {
          "internalType": "string",
          "name": "_protocolID",
          "type": "string"
        }
      ],
      "name": "numberOfPatientByProtocol",
      "outputs": [
        {
          "internalType": "uint256",
          "name": "",
          "type": "uint256"
        }
      ],
      "stateMutability": "view",
      "type": "function",
      "constant": true
    },
    {
      "inputs": [
        {
          "internalType": "address",
          "name": "_address",
          "type": "address"
        }
      ],
      "name": "getRole",
      "outputs": [
        {
          "internalType": "string",
          "name": "",
          "type": "string"
        }
      ],
      "stateMutability": "view",
      "type": "function",
      "constant": true
    },
    {
      "inputs": [
        {
          "internalType": "string",
          "name": "center",
          "type": "string"
        },
        {
          "internalType": "string",
          "name": "category",
          "type": "string"
        }
      ],
      "name": "getProtocoleNumerotation",
      "outputs": [
        {
          "internalType": "uint256",
          "name": "",
          "type": "uint256"
        }
      ],
      "stateMutability": "view",
      "type": "function",
      "constant": true
    }
  ],
  "bytecode": "0x60806040523480156200001157600080fd5b50604051620068be380380620068be8339818101604052810190620000379190620007da565b6200004c6000801b846200039660201b60201c565b620000817f3e206be88d1de4207c0189003e17add3718b1a1bf78910a785940577239bbdae6000801b620003ac60201b60201c565b620000d37f843b48dccc6ff192f9330133622b0536f7b94feca0cf36e7e46fc50060b6f8827f3e206be88d1de4207c0189003e17add3718b1a1bf78910a785940577239bbdae620003ac60201b60201c565b620001087f47a6ab365f603cf120cb936195de17fd0bac3880ff606e7a0edb5e8e6580b1ae6000801b620003ac60201b60201c565b6200015a7f0996d044c7309cb5a01d79c18ee9e4c86aca84367cbd5bfd5f5d0606acc992737f47a6ab365f603cf120cb936195de17fd0bac3880ff606e7a0edb5e8e6580b1ae620003ac60201b60201c565b620001ac7f97f21e7273917267af1fea4c3510695aa29abe57349ce57ceec11b34688318037f0996d044c7309cb5a01d79c18ee9e4c86aca84367cbd5bfd5f5d0606acc99273620003ac60201b60201c565b620001fe7fe5786ee6f50ab1a5567cb3f3f6840a2f4ddbafdf4a35cb2c52d5b732b1e84a327f97f21e7273917267af1fea4c3510695aa29abe57349ce57ceec11b3468831803620003ac60201b60201c565b620002307f3e206be88d1de4207c0189003e17add3718b1a1bf78910a785940577239bbdae836200039660201b60201c565b620002627f47a6ab365f603cf120cb936195de17fd0bac3880ff606e7a0edb5e8e6580b1ae826200039660201b60201c565b620002776000801b846200040960201b60201c565b6040518060400160405280600f81526020017f415554484f524954592041444d494e0000000000000000000000000000000000815250600760008473ffffffffffffffffffffffffffffffffffffffff1673ffffffffffffffffffffffffffffffffffffffff16815260200190815260200160002090805190602001906200030192919062000713565b506040518060400160405280600e81526020017f50524f4d4f5445522041444d494e000000000000000000000000000000000000815250600760008373ffffffffffffffffffffffffffffffffffffffff1673ffffffffffffffffffffffffffffffffffffffff16815260200190815260200160002090805190602001906200038c92919062000713565b505050506200097e565b620003a882826200049f60201b60201c565b5050565b80620003be836200059060201b60201c565b837fbd79b86ffe0ab8e8776151514217cd7cacd52c909f66475c3af44e129f0b00ff60405160405180910390a480600080848152602001908152602001600020600101819055505050565b62000419620005af60201b60201c565b73ffffffffffffffffffffffffffffffffffffffff168173ffffffffffffffffffffffffffffffffffffffff161462000489576040517f08c379a0000000000000000000000000000000000000000000000000000000008152600401620004809062000898565b60405180910390fd5b6200049b8282620005b760201b60201c565b5050565b620004b18282620006a960201b60201c565b6200058c57600160008084815260200190815260200160002060000160008373ffffffffffffffffffffffffffffffffffffffff1673ffffffffffffffffffffffffffffffffffffffff16815260200190815260200160002060006101000a81548160ff02191690831515021790555062000531620005af60201b60201c565b73ffffffffffffffffffffffffffffffffffffffff168173ffffffffffffffffffffffffffffffffffffffff16837f2f8788117e7eff1d82e926ec794901d17c78024a50270940304540a733656f0d60405160405180910390a45b5050565b6000806000838152602001908152602001600020600101549050919050565b600033905090565b620005c98282620006a960201b60201c565b15620006a557600080600084815260200190815260200160002060000160008373ffffffffffffffffffffffffffffffffffffffff1673ffffffffffffffffffffffffffffffffffffffff16815260200190815260200160002060006101000a81548160ff0219169083151502179055506200064a620005af60201b60201c565b73ffffffffffffffffffffffffffffffffffffffff168173ffffffffffffffffffffffffffffffffffffffff16837ff6391f5c32d9c69d2a47ea670b442974b53935d1edc7fd64eb21e047a839171b60405160405180910390a45b5050565b600080600084815260200190815260200160002060000160008373ffffffffffffffffffffffffffffffffffffffff1673ffffffffffffffffffffffffffffffffffffffff16815260200190815260200160002060009054906101000a900460ff16905092915050565b8280546200072190620008ff565b90600052602060002090601f01602090048101928262000745576000855562000791565b82601f106200076057805160ff191683800117855562000791565b8280016001018555821562000791579182015b828111156200079057825182559160200191906001019062000773565b5b509050620007a09190620007a4565b5090565b5b80821115620007bf576000816000905550600101620007a5565b5090565b600081519050620007d48162000964565b92915050565b600080600060608486031215620007f057600080fd5b60006200080086828701620007c3565b93505060206200081386828701620007c3565b92505060406200082686828701620007c3565b9150509250925092565b60006200083f602f83620008ba565b91507f416363657373436f6e74726f6c3a2063616e206f6e6c792072656e6f756e636560008301527f20726f6c657320666f722073656c6600000000000000000000000000000000006020830152604082019050919050565b60006020820190508181036000830152620008b38162000830565b9050919050565b600082825260208201905092915050565b6000620008d882620008df565b9050919050565b600073ffffffffffffffffffffffffffffffffffffffff82169050919050565b600060028204905060018216806200091857607f821691505b602082108114156200092f576200092e62000935565b5b50919050565b7f4e487b7100000000000000000000000000000000000000000000000000000000600052602260045260246000fd5b6200096f81620008cb565b81146200097b57600080fd5b50565b615f30806200098e6000396000f3fe608060405234801561001057600080fd5b506004361061025e5760003560e01c806391d1485411610146578063cd5c3b2b116100c3578063eb3b0fc811610087578063eb3b0fc814610789578063ebc48391146107bb578063ec9f4bda146107d9578063ed5ea0d2146107f7578063f7f093b614610813578063fad4fcc7146108435761025e565b8063cd5c3b2b146106d1578063cf2a9a9314610701578063d547741f1461071f578063d751b1501461073b578063e1d862d91461076b5761025e565b8063c1bd2c201161010a578063c1bd2c2014610618578063c36f577514610636578063c4f3983014610652578063c6009d8414610682578063cb39dce5146106b55761025e565b806391d1485414610574578063a1a8316b146105a4578063a217fddf146105c0578063a24d9658146105de578063b62f9c74146105fa5761025e565b80633ca1d75f116101df578063591fe6da116101a3578063591fe6da1461049e5780635e49bdaf146104bc5780637ba3ae71146104d85780637beb410714610508578063834afa811461053857806389fcd796146105565761025e565b80633ca1d75f146103c05780633f0bee32146103dc578063442767331461040d578063484ed33e1461043d578063494503d41461046d5761025e565b80632de6388f116102265780632de6388f146103345780632f2ff15d146103505780632f77e62f1461036c57806336568abe14610388578063393618a7146103a45761025e565b806301ffc9a71461026357806309c1ce8b146102935780631dae9454146102af5780631f500061146102e6578063248a9ca314610304575b600080fd5b61027d6004803603810190610278919061423c565b610861565b60405161028a9190615547565b60405180910390f35b6102ad60048036038101906102a89190614391565b6108db565b005b6102c960048036038101906102c49190614265565b610e5a565b6040516102dd9897969594939291906155dd565b60405180910390f35b6102ee611022565b6040516102fb9190615562565b60405180910390f35b61031e600480360381019061031991906141d7565b611046565b60405161032b9190615562565b60405180910390f35b61034e60048036038101906103499190614265565b611065565b005b61036a60048036038101906103659190614200565b6111e5565b005b61038660048036038101906103819190614265565b61124b565b005b6103a2600480360381019061039d9190614200565b6113cb565b005b6103be60048036038101906103b99190614183565b61144e565b005b6103da60048036038101906103d59190614183565b611853565b005b6103f660048036038101906103f19190614468565b611c58565b6040516104049291906154f5565b60405180910390f35b6104276004803603810190610422919061415a565b611d24565b604051610434919061557d565b60405180910390f35b61045760048036038101906104529190614265565b611df5565b6040516104649190615b82565b60405180910390f35b61048760048036038101906104829190614468565b611e20565b6040516104959291906154f5565b60405180910390f35b6104a6611eec565b6040516104b39190615562565b60405180910390f35b6104d660048036038101906104d19190614183565b611f10565b005b6104f260048036038101906104ed9190614265565b61236c565b6040516104ff919061557d565b60405180910390f35b610522600480360381019061051d9190614265565b61264d565b60405161052f9190615b60565b60405180910390f35b61054061298a565b60405161054d9190615b82565b60405180910390f35b61055e612990565b60405161056b9190615562565b60405180910390f35b61058e60048036038101906105899190614200565b6129b4565b60405161059b9190615547565b60405180910390f35b6105be60048036038101906105b99190614265565b612a1e565b005b6105c8612bda565b6040516105d59190615562565b60405180910390f35b6105f860048036038101906105f39190614265565b612be1565b005b610602612e14565b60405161060f9190615b82565b60405180910390f35b610620612e1a565b60405161062d9190615562565b60405180910390f35b610650600480360381019061064b91906142a6565b612e3e565b005b61066c60048036038101906106679190614325565b613223565b6040516106799190615b82565b60405180910390f35b61069c60048036038101906106979190614265565b613274565b6040516106ac94939291906154a9565b60405180910390f35b6106cf60048036038101906106ca9190614325565b61338f565b005b6106eb60048036038101906106e69190614468565b6135b2565b6040516106f8919061557d565b60405180910390f35b610709613652565b6040516107169190615562565b60405180910390f35b61073960048036038101906107349190614200565b613676565b005b61075560048036038101906107509190614265565b6136dc565b604051610762919061557d565b60405180910390f35b61077361378f565b6040516107809190615b82565b60405180910390f35b6107a3600480360381019061079e9190614468565b613795565b6040516107b29392919061546b565b60405180910390f35b6107c3613887565b6040516107d09190615b82565b60405180910390f35b6107e161388d565b6040516107ee9190615562565b60405180910390f35b610811600480360381019061080c9190614265565b6138b1565b005b61082d60048036038101906108289190614265565b613a41565b60405161083a9190615525565b60405180910390f35b61084b613cc8565b6040516108589190615b82565b60405180910390f35b60007f7965db0b000000000000000000000000000000000000000000000000000000007bffffffffffffffffffffffffffffffffffffffffffffffffffffffff1916827bffffffffffffffffffffffffffffffffffffffffffffffffffffffff191614806108d457506108d382613cce565b5b9050919050565b6109057f0996d044c7309cb5a01d79c18ee9e4c86aca84367cbd5bfd5f5d0606acc99273336129b4565b610944576040517f08c379a000000000000000000000000000000000000000000000000000000000815260040161093b906158c0565b60405180910390fd5b61096e7f0996d044c7309cb5a01d79c18ee9e4c86aca84367cbd5bfd5f5d0606acc99273826129b4565b156109ae576040517f08c379a00000000000000000000000000000000000000000000000000000000081526004016109a590615980565b60405180910390fd5b6109d87f843b48dccc6ff192f9330133622b0536f7b94feca0cf36e7e46fc50060b6f882826129b4565b15610a18576040517f08c379a0000000000000000000000000000000000000000000000000000000008152600401610a0f90615a20565b60405180910390fd5b610a427f47a6ab365f603cf120cb936195de17fd0bac3880ff606e7a0edb5e8e6580b1ae826129b4565b15610a82576040517f08c379a0000000000000000000000000000000000000000000000000000000008152600401610a7990615780565b60405180910390fd5b610aac7f3e206be88d1de4207c0189003e17add3718b1a1bf78910a785940577239bbdae826129b4565b15610aec576040517f08c379a0000000000000000000000000000000000000000000000000000000008152600401610ae390615820565b60405180910390fd5b610b167f97f21e7273917267af1fea4c3510695aa29abe57349ce57ceec11b3468831803826129b4565b610b55576040517f08c379a0000000000000000000000000000000000000000000000000000000008152600401610b4c90615940565b60405180910390fd5b600185604051610b659190615439565b908152602001604051809103902060020160149054906101000a900460ff1615610bc4576040517f08c379a0000000000000000000000000000000000000000000000000000000008152600401610bbb90615a00565b60405180910390fd5b33600186604051610bd59190615439565b908152602001604051809103902060010160006101000a81548173ffffffffffffffffffffffffffffffffffffffff021916908373ffffffffffffffffffffffffffffffffffffffff16021790555080600186604051610c359190615439565b908152602001604051809103902060020160006101000a81548173ffffffffffffffffffffffffffffffffffffffff021916908373ffffffffffffffffffffffffffffffffffffffff16021790555060018086604051610c959190615439565b908152602001604051809103902060020160146101000a81548160ff02191690831515021790555083600186604051610cce9190615439565b90815260200160405180910390206000019080519060200190610cf2929190613f01565b506040518060400160405280600a81526020017f7265676973746572656400000000000000000000000000000000000000000000815250600186604051610d399190615439565b90815260200160405180910390206005019080519060200190610d5d929190613f01565b50600954600186604051610d719190615439565b908152602001604051809103902060040181905550846003600060095481526020019081526020016000209080519060200190610daf929190613f01565b5060096000815480929190610dc390615db7565b9190505550600883604051610dd89190615439565b908152602001604051809103902082604051610df49190615439565b90815260200160405180910390206000815480929190610e1390615db7565b91905055507fff88452d1e63b10e4f05e166bed6696de7594668e0e30daf24839937a0a27fee853383604051610e4b9392919061559f565b60405180910390a15050505050565b600181805160208101820180518482526020830160208501208183528095505050505050600091509050806000018054610e9390615d85565b80601f0160208091040260200160405190810160405280929190818152602001828054610ebf90615d85565b8015610f0c5780601f10610ee157610100808354040283529160200191610f0c565b820191906000526020600020905b815481529060010190602001808311610eef57829003601f168201915b5050505050908060010160009054906101000a900473ffffffffffffffffffffffffffffffffffffffff16908060020160009054906101000a900473ffffffffffffffffffffffffffffffffffffffff16908060020160149054906101000a900460ff16908060020160159054906101000a900460ff1690806003015490806004015490806005018054610f9f90615d85565b80601f0160208091040260200160405190810160405280929190818152602001828054610fcb90615d85565b80156110185780601f10610fed57610100808354040283529160200191611018565b820191906000526020600020905b815481529060010190602001808311610ffb57829003601f168201915b5050505050905088565b7fe5786ee6f50ab1a5567cb3f3f6840a2f4ddbafdf4a35cb2c52d5b732b1e84a3281565b6000806000838152602001908152602001600020600101549050919050565b61108f7f843b48dccc6ff192f9330133622b0536f7b94feca0cf36e7e46fc50060b6f882336129b4565b6110ce576040517f08c379a00000000000000000000000000000000000000000000000000000000081526004016110c590615720565b60405180910390fd5b6001816040516110de9190615439565b908152602001604051809103902060020160159054906101000a900460ff161561110757600080fd5b600180826040516111189190615439565b908152602001604051809103902060020160156101000a81548160ff0219169083151502179055506040518060400160405280600781526020017f726573756d6564000000000000000000000000000000000000000000000000008152506001826040516111869190615439565b908152602001604051809103902060050190805190602001906111aa929190613f01565b507fd1c688ddb9e9baabcd8e5f84a85f4933173bc6600b2f361087b41cd9304e2920816040516111da919061557d565b60405180910390a150565b6111fe6111f183611046565b6111f9613d38565b6129b4565b61123d576040517f08c379a0000000000000000000000000000000000000000000000000000000008152600401611234906156e0565b60405180910390fd5b6112478282613d40565b5050565b6112757f843b48dccc6ff192f9330133622b0536f7b94feca0cf36e7e46fc50060b6f882336129b4565b6112b4576040517f08c379a00000000000000000000000000000000000000000000000000000000081526004016112ab90615720565b60405180910390fd5b6001816040516112c49190615439565b908152602001604051809103902060020160159054906101000a900460ff166112ec57600080fd5b60006001826040516112fe9190615439565b908152602001604051809103902060020160156101000a81548160ff0219169083151502179055506040518060400160405280600981526020017f73757370656e646564000000000000000000000000000000000000000000000081525060018260405161136c9190615439565b90815260200160405180910390206005019080519060200190611390929190613f01565b507fb9f86d562ae4d5d427f505b81f74024716097f50538bc3d5a16f0716ca399559816040516113c0919061557d565b60405180910390a150565b6113d3613d38565b73ffffffffffffffffffffffffffffffffffffffff168173ffffffffffffffffffffffffffffffffffffffff1614611440576040517f08c379a000000000000000000000000000000000000000000000000000000000815260040161143790615b00565b60405180910390fd5b61144a8282613e20565b5050565b6114787f47a6ab365f603cf120cb936195de17fd0bac3880ff606e7a0edb5e8e6580b1ae336129b4565b6114b7576040517f08c379a00000000000000000000000000000000000000000000000000000000081526004016114ae906157a0565b60405180910390fd5b6114e17f0996d044c7309cb5a01d79c18ee9e4c86aca84367cbd5bfd5f5d0606acc99273836129b4565b15611521576040517f08c379a000000000000000000000000000000000000000000000000000000000815260040161151890615900565b60405180910390fd5b61154b7f97f21e7273917267af1fea4c3510695aa29abe57349ce57ceec11b3468831803836129b4565b1561158b576040517f08c379a000000000000000000000000000000000000000000000000000000000815260040161158290615740565b60405180910390fd5b6115b57f843b48dccc6ff192f9330133622b0536f7b94feca0cf36e7e46fc50060b6f882836129b4565b156115f5576040517f08c379a00000000000000000000000000000000000000000000000000000000081526004016115ec906158a0565b60405180910390fd5b61161f7f47a6ab365f603cf120cb936195de17fd0bac3880ff606e7a0edb5e8e6580b1ae836129b4565b1561165f576040517f08c379a000000000000000000000000000000000000000000000000000000000815260040161165690615b20565b60405180910390fd5b6116897f3e206be88d1de4207c0189003e17add3718b1a1bf78910a785940577239bbdae836129b4565b156116c9576040517f08c379a00000000000000000000000000000000000000000000000000000000081526004016116c0906156a0565b60405180910390fd5b6116f37f0996d044c7309cb5a01d79c18ee9e4c86aca84367cbd5bfd5f5d0606acc99273836111e5565b6040518060400160405280600881526020017f50524f4d4f544552000000000000000000000000000000000000000000000000815250600760008473ffffffffffffffffffffffffffffffffffffffff1673ffffffffffffffffffffffffffffffffffffffff168152602001908152602001600020908051906020019061177b929190613f01565b508060046000600b54815260200190815260200160002060010190805190602001906117a8929190613f01565b508160046000600b54815260200190815260200160002060000160006101000a81548173ffffffffffffffffffffffffffffffffffffffff021916908373ffffffffffffffffffffffffffffffffffffffff160217905550600b600081548092919061181390615db7565b91905055507f786ebfd921e487d94a7dbf555edf33e5f264f7b59acdcdfe139c08f48f075559826040516118479190615450565b60405180910390a15050565b61187d7f3e206be88d1de4207c0189003e17add3718b1a1bf78910a785940577239bbdae336129b4565b6118bc576040517f08c379a00000000000000000000000000000000000000000000000000000000081526004016118b3906156c0565b60405180910390fd5b6118e67f843b48dccc6ff192f9330133622b0536f7b94feca0cf36e7e46fc50060b6f882836129b4565b15611926576040517f08c379a000000000000000000000000000000000000000000000000000000000815260040161191d90615880565b60405180910390fd5b6119507f0996d044c7309cb5a01d79c18ee9e4c86aca84367cbd5bfd5f5d0606acc99273836129b4565b15611990576040517f08c379a0000000000000000000000000000000000000000000000000000000008152600401611987906159c0565b60405180910390fd5b6119ba7f97f21e7273917267af1fea4c3510695aa29abe57349ce57ceec11b3468831803836129b4565b156119fa576040517f08c379a00000000000000000000000000000000000000000000000000000000081526004016119f190615740565b60405180910390fd5b611a247f47a6ab365f603cf120cb936195de17fd0bac3880ff606e7a0edb5e8e6580b1ae836129b4565b15611a64576040517f08c379a0000000000000000000000000000000000000000000000000000000008152600401611a5b90615b20565b60405180910390fd5b611a8e7f3e206be88d1de4207c0189003e17add3718b1a1bf78910a785940577239bbdae836129b4565b15611ace576040517f08c379a0000000000000000000000000000000000000000000000000000000008152600401611ac5906156a0565b60405180910390fd5b611af87f843b48dccc6ff192f9330133622b0536f7b94feca0cf36e7e46fc50060b6f882836111e5565b6040518060400160405280600981526020017f415554484f524954590000000000000000000000000000000000000000000000815250600760008473ffffffffffffffffffffffffffffffffffffffff1673ffffffffffffffffffffffffffffffffffffffff1681526020019081526020016000209080519060200190611b80929190613f01565b508060066000600d5481526020019081526020016000206001019080519060200190611bad929190613f01565b508160066000600d54815260200190815260200160002060000160006101000a81548173ffffffffffffffffffffffffffffffffffffffff021916908373ffffffffffffffffffffffffffffffffffffffff160217905550600d6000815480929190611c1890615db7565b91905055507f3c0aee07d693a6f94b1a6aca6097bdde55429f0834eb9c27e3c31a03081f09b482604051611c4c9190615450565b60405180910390a15050565b60046020528060005260406000206000915090508060000160009054906101000a900473ffffffffffffffffffffffffffffffffffffffff1690806001018054611ca190615d85565b80601f0160208091040260200160405190810160405280929190818152602001828054611ccd90615d85565b8015611d1a5780601f10611cef57610100808354040283529160200191611d1a565b820191906000526020600020905b815481529060010190602001808311611cfd57829003601f168201915b5050505050905082565b6060600760008373ffffffffffffffffffffffffffffffffffffffff1673ffffffffffffffffffffffffffffffffffffffff1681526020019081526020016000208054611d7090615d85565b80601f0160208091040260200160405190810160405280929190818152602001828054611d9c90615d85565b8015611de95780601f10611dbe57610100808354040283529160200191611de9565b820191906000526020600020905b815481529060010190602001808311611dcc57829003601f168201915b50505050509050919050565b6000600182604051611e079190615439565b9081526020016040518091039020600301549050919050565b60066020528060005260406000206000915090508060000160009054906101000a900473ffffffffffffffffffffffffffffffffffffffff1690806001018054611e6990615d85565b80601f0160208091040260200160405190810160405280929190818152602001828054611e9590615d85565b8015611ee25780601f10611eb757610100808354040283529160200191611ee2565b820191906000526020600020905b815481529060010190602001808311611ec557829003601f168201915b5050505050905082565b7f3e206be88d1de4207c0189003e17add3718b1a1bf78910a785940577239bbdae81565b611f3a7f0996d044c7309cb5a01d79c18ee9e4c86aca84367cbd5bfd5f5d0606acc99273336129b4565b611f79576040517f08c379a0000000000000000000000000000000000000000000000000000000008152600401611f7090615860565b60405180910390fd5b611fa37f97f21e7273917267af1fea4c3510695aa29abe57349ce57ceec11b3468831803836129b4565b15611fe3576040517f08c379a0000000000000000000000000000000000000000000000000000000008152600401611fda90615920565b60405180910390fd5b61200d7f0996d044c7309cb5a01d79c18ee9e4c86aca84367cbd5bfd5f5d0606acc99273836129b4565b1561204d576040517f08c379a0000000000000000000000000000000000000000000000000000000008152600401612044906159c0565b60405180910390fd5b6120777f843b48dccc6ff192f9330133622b0536f7b94feca0cf36e7e46fc50060b6f882836129b4565b156120b7576040517f08c379a00000000000000000000000000000000000000000000000000000000081526004016120ae906158a0565b60405180910390fd5b6120e17f47a6ab365f603cf120cb936195de17fd0bac3880ff606e7a0edb5e8e6580b1ae836129b4565b15612121576040517f08c379a000000000000000000000000000000000000000000000000000000000815260040161211890615b20565b60405180910390fd5b61214b7f3e206be88d1de4207c0189003e17add3718b1a1bf78910a785940577239bbdae836129b4565b1561218b576040517f08c379a0000000000000000000000000000000000000000000000000000000008152600401612182906156a0565b60405180910390fd5b6121b57f97f21e7273917267af1fea4c3510695aa29abe57349ce57ceec11b3468831803836111e5565b6040518060400160405280600c81526020017f494e56455354494741544f520000000000000000000000000000000000000000815250600760008473ffffffffffffffffffffffffffffffffffffffff1673ffffffffffffffffffffffffffffffffffffffff168152602001908152602001600020908051906020019061223d929190613f01565b508060056000600c548152602001908152602001600020600201908051906020019061226a929190613f01565b503360056000600c54815260200190815260200160002060000160006101000a81548173ffffffffffffffffffffffffffffffffffffffff021916908373ffffffffffffffffffffffffffffffffffffffff1602179055508160056000600c54815260200190815260200160002060010160006101000a81548173ffffffffffffffffffffffffffffffffffffffff021916908373ffffffffffffffffffffffffffffffffffffffff160217905550600c600081548092919061232c90615db7565b91905055507fe8418412d360af43b959e2ca49b9ad98feb77e7b5597963ca346077db47d69ba826040516123609190615450565b60405180910390a15050565b60606123987f0996d044c7309cb5a01d79c18ee9e4c86aca84367cbd5bfd5f5d0606acc99273336129b4565b806123c957506123c87f97f21e7273917267af1fea4c3510695aa29abe57349ce57ceec11b3468831803336129b4565b5b612408576040517f08c379a00000000000000000000000000000000000000000000000000000000081526004016123ff90615700565b60405180910390fd5b3373ffffffffffffffffffffffffffffffffffffffff1660018360405161242f9190615439565b908152602001604051809103902060010160009054906101000a900473ffffffffffffffffffffffffffffffffffffffff1673ffffffffffffffffffffffffffffffffffffffff1614806124ef57503373ffffffffffffffffffffffffffffffffffffffff166001836040516124a59190615439565b908152602001604051809103902060020160009054906101000a900473ffffffffffffffffffffffffffffffffffffffff1673ffffffffffffffffffffffffffffffffffffffff16145b61252e576040517f08c379a0000000000000000000000000000000000000000000000000000000008152600401612525906157e0565b60405180910390fd5b60018260405161253e9190615439565b908152602001604051809103902060020160159054906101000a900460ff1661259c576040517f08c379a000000000000000000000000000000000000000000000000000000000815260040161259390615a80565b60405180910390fd5b6001826040516125ac9190615439565b908152602001604051809103902060000180546125c890615d85565b80601f01602080910402602001604051908101604052809291908181526020018280546125f490615d85565b80156126415780601f1061261657610100808354040283529160200191612641565b820191906000526020600020905b81548152906001019060200180831161262457829003601f168201915b50505050509050919050565b612655613f87565b600115156001836040516126699190615439565b908152602001604051809103902060020160149054906101000a900460ff161515146126ca576040517f08c379a00000000000000000000000000000000000000000000000000000000081526004016126c1906157c0565b60405180910390fd5b600115156001836040516126de9190615439565b908152602001604051809103902060020160159054906101000a900460ff1615151461273f576040517f08c379a000000000000000000000000000000000000000000000000000000000815260040161273690615b40565b60405180910390fd5b60018260405161274f9190615439565b90815260200160405180910390206040518061010001604052908160008201805461277990615d85565b80601f01602080910402602001604051908101604052809291908181526020018280546127a590615d85565b80156127f25780601f106127c7576101008083540402835291602001916127f2565b820191906000526020600020905b8154815290600101906020018083116127d557829003601f168201915b505050505081526020016001820160009054906101000a900473ffffffffffffffffffffffffffffffffffffffff1673ffffffffffffffffffffffffffffffffffffffff1673ffffffffffffffffffffffffffffffffffffffff1681526020016002820160009054906101000a900473ffffffffffffffffffffffffffffffffffffffff1673ffffffffffffffffffffffffffffffffffffffff1673ffffffffffffffffffffffffffffffffffffffff1681526020016002820160149054906101000a900460ff161515151581526020016002820160159054906101000a900460ff16151515158152602001600382015481526020016004820154815260200160058201805461290190615d85565b80601f016020809104026020016040519081016040528092919081815260200182805461292d90615d85565b801561297a5780601f1061294f5761010080835404028352916020019161297a565b820191906000526020600020905b81548152906001019060200180831161295d57829003601f168201915b5050505050815250509050919050565b600a5481565b7f843b48dccc6ff192f9330133622b0536f7b94feca0cf36e7e46fc50060b6f88281565b600080600084815260200190815260200160002060000160008373ffffffffffffffffffffffffffffffffffffffff1673ffffffffffffffffffffffffffffffffffffffff16815260200190815260200160002060009054906101000a900460ff16905092915050565b612a487f843b48dccc6ff192f9330133622b0536f7b94feca0cf36e7e46fc50060b6f882336129b4565b612a87576040517f08c379a0000000000000000000000000000000000000000000000000000000008152600401612a7e90615ae0565b60405180910390fd5b60011515600182604051612a9b9190615439565b908152602001604051809103902060020160149054906101000a900460ff16151514612afc576040517f08c379a0000000000000000000000000000000000000000000000000000000008152600401612af390615aa0565b60405180910390fd5b60018082604051612b0d9190615439565b908152602001604051809103902060020160156101000a81548160ff0219169083151502179055506040518060400160405280600981526020017f76616c6964617465640000000000000000000000000000000000000000000000815250600182604051612b7b9190615439565b90815260200160405180910390206005019080519060200190612b9f929190613f01565b507fbc0e66a9d9a6660141870110fa7932ebb7fe171d5e52ee9a42674665105f1d1b81604051612bcf919061557d565b60405180910390a150565b6000801b81565b600281604051612bf19190615439565b908152602001604051809103902060000160009054906101000a900473ffffffffffffffffffffffffffffffffffffffff1673ffffffffffffffffffffffffffffffffffffffff163373ffffffffffffffffffffffffffffffffffffffff1614612c90576040517f08c379a0000000000000000000000000000000000000000000000000000000008152600401612c8790615960565b60405180910390fd5b60011515600282604051612ca49190615439565b908152602001604051809103902060030160009054906101000a900460ff16151514612d05576040517f08c379a0000000000000000000000000000000000000000000000000000000008152600401612cfc90615a40565b60405180910390fd5b60001515600282604051612d199190615439565b908152602001604051809103902060030160009054906101000a90505050600281604051612d479190615439565b9081526020016040518091039020600080820160006101000a81549073ffffffffffffffffffffffffffffffffffffffff02191690556001820160006101000a81549073ffffffffffffffffffffffffffffffffffffffff0219169055600282016000612db49190613ffc565b6003820160006101000a81549060ff0219169055600482016000612dd8919061403c565b50507f1a24299bbcab71cb3013c24c40adca455867472f22ae6d056e4e0cb2bb0e5a7381604051612e09919061557d565b60405180910390a150565b600d5481565b7f47a6ab365f603cf120cb936195de17fd0bac3880ff606e7a0edb5e8e6580b1ae81565b612e687f97f21e7273917267af1fea4c3510695aa29abe57349ce57ceec11b3468831803336129b4565b612ea7576040517f08c379a0000000000000000000000000000000000000000000000000000000008152600401612e9e906159a0565b60405180910390fd5b60011515600182604051612ebb9190615439565b908152602001604051809103902060020160159054906101000a900460ff16151514612f1c576040517f08c379a0000000000000000000000000000000000000000000000000000000008152600401612f1390615800565b60405180910390fd5b600181604051612f2c9190615439565b908152602001604051809103902060020160009054906101000a900473ffffffffffffffffffffffffffffffffffffffff1673ffffffffffffffffffffffffffffffffffffffff163373ffffffffffffffffffffffffffffffffffffffff1614612fcb576040517f08c379a0000000000000000000000000000000000000000000000000000000008152600401612fc290615760565b60405180910390fd5b6001600284604051612fdd9190615439565b908152602001604051809103902060030160006101000a81548160ff021916908315150217905550816002846040516130169190615439565b908152602001604051809103902060000160006101000a81548173ffffffffffffffffffffffffffffffffffffffff021916908373ffffffffffffffffffffffffffffffffffffffff160217905550336002846040516130769190615439565b908152602001604051809103902060010160006101000a81548173ffffffffffffffffffffffffffffffffffffffff021916908373ffffffffffffffffffffffffffffffffffffffff160217905550806002846040516130d69190615439565b908152602001604051809103902060020190805190602001906130fa929190613f01565b5060018160405161310b9190615439565b9081526020016040518091039020600301600081548092919061312d90615db7565b919050555061315c7fe5786ee6f50ab1a5567cb3f3f6840a2f4ddbafdf4a35cb2c52d5b732b1e84a32836111e5565b6040518060400160405280600781526020017f50415449454e5400000000000000000000000000000000000000000000000000815250600760008473ffffffffffffffffffffffffffffffffffffffff1673ffffffffffffffffffffffffffffffffffffffff16815260200190815260200160002090805190602001906131e4929190613f01565b507f76b4f38e7ada56c131a0c796e7382093d7b5a69175ca0bf513f5827f60f5314d8382604051613216929190615669565b60405180910390a1505050565b600060016008846040516132379190615439565b9081526020016040518091039020836040516132539190615439565b90815260200160405180910390205461326c9190615c6f565b905092915050565b6002818051602081018201805184825260208301602085012081835280955050505050506000915090508060000160009054906101000a900473ffffffffffffffffffffffffffffffffffffffff16908060010160009054906101000a900473ffffffffffffffffffffffffffffffffffffffff16908060020180546132f990615d85565b80601f016020809104026020016040519081016040528092919081815260200182805461332590615d85565b80156133725780601f1061334757610100808354040283529160200191613372565b820191906000526020600020905b81548152906001019060200180831161335557829003601f168201915b5050505050908060030160009054906101000a900460ff16905084565b6133b97f97f21e7273917267af1fea4c3510695aa29abe57349ce57ceec11b3468831803336129b4565b6133f8576040517f08c379a00000000000000000000000000000000000000000000000000000000081526004016133ef906158e0565b60405180910390fd5b6002826040516134089190615439565b908152602001604051809103902060010160009054906101000a900473ffffffffffffffffffffffffffffffffffffffff1673ffffffffffffffffffffffffffffffffffffffff163373ffffffffffffffffffffffffffffffffffffffff16146134a7576040517f08c379a000000000000000000000000000000000000000000000000000000000815260040161349e90615ac0565b60405180910390fd5b600115156002836040516134bb9190615439565b908152602001604051809103902060030160009054906101000a900460ff1615151461351c576040517f08c379a000000000000000000000000000000000000000000000000000000000815260040161351390615a60565b60405180910390fd5b60028260405161352c9190615439565b908152602001604051809103902060040181908060018154018082558091505060019003906000526020600020016000909190919091509080519060200190613576929190613f01565b507f2fd00fee6fba014584e65a085e3eb131b03ff5c389c44c3cf9e857d52c1650d6816040516135a6919061557d565b60405180910390a15050565b600360205280600052604060002060009150905080546135d190615d85565b80601f01602080910402602001604051908101604052809291908181526020018280546135fd90615d85565b801561364a5780601f1061361f5761010080835404028352916020019161364a565b820191906000526020600020905b81548152906001019060200180831161362d57829003601f168201915b505050505081565b7f97f21e7273917267af1fea4c3510695aa29abe57349ce57ceec11b346883180381565b61368f61368283611046565b61368a613d38565b6129b4565b6136ce576040517f08c379a00000000000000000000000000000000000000000000000000000000081526004016136c590615840565b60405180910390fd5b6136d88282613e20565b5050565b60606001826040516136ee9190615439565b9081526020016040518091039020600501805461370a90615d85565b80601f016020809104026020016040519081016040528092919081815260200182805461373690615d85565b80156137835780601f1061375857610100808354040283529160200191613783565b820191906000526020600020905b81548152906001019060200180831161376657829003601f168201915b50505050509050919050565b600b5481565b60056020528060005260406000206000915090508060000160009054906101000a900473ffffffffffffffffffffffffffffffffffffffff16908060010160009054906101000a900473ffffffffffffffffffffffffffffffffffffffff169080600201805461380490615d85565b80601f016020809104026020016040519081016040528092919081815260200182805461383090615d85565b801561387d5780601f106138525761010080835404028352916020019161387d565b820191906000526020600020905b81548152906001019060200180831161386057829003601f168201915b5050505050905083565b60095481565b7f0996d044c7309cb5a01d79c18ee9e4c86aca84367cbd5bfd5f5d0606acc9927381565b6002816040516138c19190615439565b908152602001604051809103902060000160009054906101000a900473ffffffffffffffffffffffffffffffffffffffff1673ffffffffffffffffffffffffffffffffffffffff163373ffffffffffffffffffffffffffffffffffffffff1614613960576040517f08c379a000000000000000000000000000000000000000000000000000000000815260040161395790615960565b60405180910390fd5b600015156002826040516139749190615439565b908152602001604051809103902060030160009054906101000a900460ff161515146139d5576040517f08c379a00000000000000000000000000000000000000000000000000000000081526004016139cc906159e0565b60405180910390fd5b600115156002826040516139e99190615439565b908152602001604051809103902060030160009054906101000a905050507fbf0bdf0dac0f40e06b9d86448186b0585c751a20ebbf3541074e23bb229e4f8181604051613a36919061557d565b60405180910390a150565b6060613a6d7f97f21e7273917267af1fea4c3510695aa29abe57349ce57ceec11b3468831803336129b4565b613aac576040517f08c379a0000000000000000000000000000000000000000000000000000000008152600401613aa3906158e0565b60405180910390fd5b600282604051613abc9190615439565b908152602001604051809103902060010160009054906101000a900473ffffffffffffffffffffffffffffffffffffffff1673ffffffffffffffffffffffffffffffffffffffff163373ffffffffffffffffffffffffffffffffffffffff1614613b5b576040517f08c379a0000000000000000000000000000000000000000000000000000000008152600401613b5290615ac0565b60405180910390fd5b60011515600283604051613b6f9190615439565b908152602001604051809103902060030160009054906101000a900460ff16151514613bd0576040517f08c379a0000000000000000000000000000000000000000000000000000000008152600401613bc790615a60565b60405180910390fd5b600282604051613be09190615439565b9081526020016040518091039020600401805480602002602001604051908101604052809291908181526020016000905b82821015613cbd578382906000526020600020018054613c3090615d85565b80601f0160208091040260200160405190810160405280929190818152602001828054613c5c90615d85565b8015613ca95780601f10613c7e57610100808354040283529160200191613ca9565b820191906000526020600020905b815481529060010190602001808311613c8c57829003601f168201915b505050505081526020019060010190613c11565b505050509050919050565b600c5481565b60007f01ffc9a7000000000000000000000000000000000000000000000000000000007bffffffffffffffffffffffffffffffffffffffffffffffffffffffff1916827bffffffffffffffffffffffffffffffffffffffffffffffffffffffff1916149050919050565b600033905090565b613d4a82826129b4565b613e1c57600160008084815260200190815260200160002060000160008373ffffffffffffffffffffffffffffffffffffffff1673ffffffffffffffffffffffffffffffffffffffff16815260200190815260200160002060006101000a81548160ff021916908315150217905550613dc1613d38565b73ffffffffffffffffffffffffffffffffffffffff168173ffffffffffffffffffffffffffffffffffffffff16837f2f8788117e7eff1d82e926ec794901d17c78024a50270940304540a733656f0d60405160405180910390a45b5050565b613e2a82826129b4565b15613efd57600080600084815260200190815260200160002060000160008373ffffffffffffffffffffffffffffffffffffffff1673ffffffffffffffffffffffffffffffffffffffff16815260200190815260200160002060006101000a81548160ff021916908315150217905550613ea2613d38565b73ffffffffffffffffffffffffffffffffffffffff168173ffffffffffffffffffffffffffffffffffffffff16837ff6391f5c32d9c69d2a47ea670b442974b53935d1edc7fd64eb21e047a839171b60405160405180910390a45b5050565b828054613f0d90615d85565b90600052602060002090601f016020900481019282613f2f5760008555613f76565b82601f10613f4857805160ff1916838001178555613f76565b82800160010185558215613f76579182015b82811115613f75578251825591602001919060010190613f5a565b5b509050613f83919061405d565b5090565b60405180610100016040528060608152602001600073ffffffffffffffffffffffffffffffffffffffff168152602001600073ffffffffffffffffffffffffffffffffffffffff1681526020016000151581526020016000151581526020016000815260200160008152602001606081525090565b50805461400890615d85565b6000825580601f1061401a5750614039565b601f016020900490600052602060002090810190614038919061405d565b5b50565b508054600082559060005260206000209081019061405a919061407a565b50565b5b8082111561407657600081600090555060010161405e565b5090565b5b8082111561409a57600081816140919190613ffc565b5060010161407b565b5090565b60006140b16140ac84615bce565b615b9d565b9050828152602081018484840111156140c957600080fd5b6140d4848285615d43565b509392505050565b6000813590506140eb81615e9e565b92915050565b60008135905061410081615eb5565b92915050565b60008135905061411581615ecc565b92915050565b600082601f83011261412c57600080fd5b813561413c84826020860161409e565b91505092915050565b60008135905061415481615ee3565b92915050565b60006020828403121561416c57600080fd5b600061417a848285016140dc565b91505092915050565b6000806040838503121561419657600080fd5b60006141a4858286016140dc565b925050602083013567ffffffffffffffff8111156141c157600080fd5b6141cd8582860161411b565b9150509250929050565b6000602082840312156141e957600080fd5b60006141f7848285016140f1565b91505092915050565b6000806040838503121561421357600080fd5b6000614221858286016140f1565b9250506020614232858286016140dc565b9150509250929050565b60006020828403121561424e57600080fd5b600061425c84828501614106565b91505092915050565b60006020828403121561427757600080fd5b600082013567ffffffffffffffff81111561429157600080fd5b61429d8482850161411b565b91505092915050565b6000806000606084860312156142bb57600080fd5b600084013567ffffffffffffffff8111156142d557600080fd5b6142e18682870161411b565b93505060206142f2868287016140dc565b925050604084013567ffffffffffffffff81111561430f57600080fd5b61431b8682870161411b565b9150509250925092565b6000806040838503121561433857600080fd5b600083013567ffffffffffffffff81111561435257600080fd5b61435e8582860161411b565b925050602083013567ffffffffffffffff81111561437b57600080fd5b6143878582860161411b565b9150509250929050565b600080600080600060a086880312156143a957600080fd5b600086013567ffffffffffffffff8111156143c357600080fd5b6143cf8882890161411b565b955050602086013567ffffffffffffffff8111156143ec57600080fd5b6143f88882890161411b565b945050604086013567ffffffffffffffff81111561441557600080fd5b6144218882890161411b565b935050606086013567ffffffffffffffff81111561443e57600080fd5b61444a8882890161411b565b925050608061445b888289016140dc565b9150509295509295909350565b60006020828403121561447a57600080fd5b600061448884828501614145565b91505092915050565b600061449d8383614565565b905092915050565b6144ae81615cc5565b82525050565b6144bd81615cc5565b82525050565b60006144ce82615c0e565b6144d88185615c31565b9350836020820285016144ea85615bfe565b8060005b8581101561452657848403895281516145078582614491565b945061451283615c24565b925060208a019950506001810190506144ee565b50829750879550505050505092915050565b61454181615cd7565b82525050565b61455081615cd7565b82525050565b61455f81615ce3565b82525050565b600061457082615c19565b61457a8185615c42565b935061458a818560208601615d52565b61459381615e8d565b840191505092915050565b60006145a982615c19565b6145b38185615c53565b93506145c3818560208601615d52565b6145cc81615e8d565b840191505092915050565b60006145e282615c19565b6145ec8185615c64565b93506145fc818560208601615d52565b80840191505092915050565b6000614615601a83615c53565b91507f596f752061726520616e20617574686f726974792061646d696e0000000000006000830152602082019050919050565b6000614655602e83615c53565b91507f4f6e6c792074686520617574686f726974792061646d696e2063616e2061646460008301527f20696e76657374696761746f72730000000000000000000000000000000000006020830152604082019050919050565b60006146bb602f83615c53565b91507f416363657373436f6e74726f6c3a2073656e646572206d75737420626520616e60008301527f2061646d696e20746f206772616e7400000000000000000000000000000000006020830152604082019050919050565b6000614721603083615c53565b91507f6f6e6c792070726f6d6f7465727320616e6420696e76657374696761746f727360008301527f20686176652074686973207269676874000000000000000000000000000000006020830152604082019050919050565b6000614787602483615c53565b91507f4f6e6c7920617574686f726969746965732063616e2073757370656e6420747260008301527f69616c73000000000000000000000000000000000000000000000000000000006020830152604082019050919050565b60006147ed601783615c53565b91507f596f752061726520616e20696e76657374696761746f720000000000000000006000830152602082019050919050565b600061482d603683615c53565b91507f596f7520646f206e6f74206861766520726967687420746f206164642070617460008301527f69656e747320746f20746869732070726f746f636f6c000000000000000000006020830152604082019050919050565b6000614893602983615c53565b91507f50726f6d6f746572732061646d696e2063616e6e6f7420626520616e20696e7660008301527f657374696761746f7200000000000000000000000000000000000000000000006020830152604082019050919050565b60006148f9602d83615c53565b91507f4f6e6c79207468652070726f6d6f746f722061646d696e2063616e206164642060008301527f696e76657374696761746f7273000000000000000000000000000000000000006020830152604082019050919050565b600061495f602183615c53565b91507f5468657265206973206e6f2070726f746f636f6c20776974682074686973206960008301527f64000000000000000000000000000000000000000000000000000000000000006020830152604082019050919050565b60006149c5602a83615c53565b91507f596f7520646f206e6f74206861766520726967687420746f206f70656e20746860008301527f69732070726f6a656374000000000000000000000000000000000000000000006020830152604082019050919050565b6000614a2b602983615c53565b91507f546869732070726f746f636f6c20686173206e6f74206265656e20617574686f60008301527f72697a65642079657400000000000000000000000000000000000000000000006020830152604082019050919050565b6000614a91602b83615c53565b91507f417574686f7269746965732061646d696e2063616e6e6f7420626520616e206960008301527f6e76657374696761746f720000000000000000000000000000000000000000006020830152604082019050919050565b6000614af7603083615c53565b91507f416363657373436f6e74726f6c3a2073656e646572206d75737420626520616e60008301527f2061646d696e20746f207265766f6b65000000000000000000000000000000006020830152604082019050919050565b6000614b5d602783615c53565b91507f4f6e6c79207468652070726f6d6f746f722063616e2061646420696e7665737460008301527f696761746f7273000000000000000000000000000000000000000000000000006020830152604082019050919050565b6000614bc3601c83615c53565b91507f596f752061726520616c726561647920616e20617574686f72697479000000006000830152602082019050919050565b6000614c03601483615c53565b91507f596f752061726520616e20617574686f726974790000000000000000000000006000830152602082019050919050565b6000614c43602383615c53565b91507f4f6e6c792070726f6d6f746572732063616e207375626d69742070726f746f6360008301527f6f6c7300000000000000000000000000000000000000000000000000000000006020830152604082019050919050565b6000614ca9602383615c53565b91507f4f6e6c7920696e76657374696761746f72732063616e20636f6c6c656374206460008301527f61746100000000000000000000000000000000000000000000000000000000006020830152604082019050919050565b6000614d0f601a83615c53565b91507f596f752061726520616c726561647920612070726f6d6f7465720000000000006000830152602082019050919050565b6000614d4f601f83615c53565b91507f596f752061726520616c726561647920616e20696e76657374696761746f72006000830152602082019050919050565b6000614d8f602983615c53565b91507f54686520696e76657374696761746f72206d757374206265207265676973746560008301527f72656420666972737400000000000000000000000000000000000000000000006020830152604082019050919050565b6000614df5601683615c53565b91507f596f7572204944206973206e6f7420636f7272656374000000000000000000006000830152602082019050919050565b6000614e35602183615c53565b91507f50726f6d6f746572732063616e6e6f7420626520696e76657374696761746f7260008301527f73000000000000000000000000000000000000000000000000000000000000006020830152604082019050919050565b6000614e9b603083615c53565b91507f4f6e6c7920696e76657374696761746f72732063616e2061646420706174696560008301527f6e747320746f2070726f746f636f6c73000000000000000000000000000000006020830152604082019050919050565b6000614f01601283615c53565b91507f596f752061726520612070726f6d6f74657200000000000000000000000000006000830152602082019050919050565b6000614f41601783615c53565b91507f596f7520646964206e6f7420636f6e73656e74207965740000000000000000006000830152602082019050919050565b6000614f81602283615c53565b91507f5468652070726f746f636f6c20697320616c726561647920726567697374657260008301527f65640000000000000000000000000000000000000000000000000000000000006020830152604082019050919050565b6000614fe7602383615c53565b91507f417574686f7269746965732063616e6e6f7420626520696e766573746967617460008301527f6f727300000000000000000000000000000000000000000000000000000000006020830152604082019050919050565b600061504d601f83615c53565b91507f596f7520616c7265616479207265766f6b6520796f757220636f6e73656e74006000830152602082019050919050565b600061508d601d83615c53565b91507f476574207468652070617469656e7420636f6e73656e742066697273740000006000830152602082019050919050565b60006150cd602283615c53565b91507f5468657265206973206e6f2070726f746f636f6c20776974682074686973206360008301527f69640000000000000000000000000000000000000000000000000000000000006020830152604082019050919050565b6000615133602c83615c53565b91507f5468657265206973206e6f2070726f746f636f6c206173736f6369617465642060008301527f77697468207468697320494400000000000000000000000000000000000000006020830152604082019050919050565b6000615199602683615c53565b91507f596f7520646f206e6f74206861766520726967687420666f722074686973207060008301527f617469656e7400000000000000000000000000000000000000000000000000006020830152604082019050919050565b60006151ff603183615c53565b91507f4f6e6c7920617574686f726974696573206861766520726967687420746f207660008301527f616c69646174652070726f746f636f6c730000000000000000000000000000006020830152604082019050919050565b6000615265602f83615c53565b91507f416363657373436f6e74726f6c3a2063616e206f6e6c792072656e6f756e636560008301527f20726f6c657320666f722073656c6600000000000000000000000000000000006020830152604082019050919050565b60006152cb601883615c53565b91507f596f752061726520612070726f6d6f7465722061646d696e00000000000000006000830152602082019050919050565b600061530b602783615c53565b91507f546869732070726f746f636f6c206873206e6f74206265656e2076616c69646160008301527f74656420796574000000000000000000000000000000000000000000000000006020830152604082019050919050565b60006101008301600083015184820360008601526153828282614565565b915050602083015161539760208601826144a5565b5060408301516153aa60408601826144a5565b5060608301516153bd6060860182614538565b5060808301516153d06080860182614538565b5060a08301516153e360a086018261541b565b5060c08301516153f660c086018261541b565b5060e083015184820360e086015261540e8282614565565b9150508091505092915050565b61542481615d39565b82525050565b61543381615d39565b82525050565b600061544582846145d7565b915081905092915050565b600060208201905061546560008301846144b4565b92915050565b600060608201905061548060008301866144b4565b61548d60208301856144b4565b818103604083015261549f818461459e565b9050949350505050565b60006080820190506154be60008301876144b4565b6154cb60208301866144b4565b81810360408301526154dd818561459e565b90506154ec6060830184614547565b95945050505050565b600060408201905061550a60008301856144b4565b818103602083015261551c818461459e565b90509392505050565b6000602082019050818103600083015261553f81846144c3565b905092915050565b600060208201905061555c6000830184614547565b92915050565b60006020820190506155776000830184614556565b92915050565b60006020820190508181036000830152615597818461459e565b905092915050565b600060608201905081810360008301526155b9818661459e565b90506155c860208301856144b4565b6155d560408301846144b4565b949350505050565b60006101008201905081810360008301526155f8818b61459e565b9050615607602083018a6144b4565b61561460408301896144b4565b6156216060830188614547565b61562e6080830187614547565b61563b60a083018661542a565b61564860c083018561542a565b81810360e083015261565a818461459e565b90509998505050505050505050565b60006040820190508181036000830152615683818561459e565b90508181036020830152615697818461459e565b90509392505050565b600060208201905081810360008301526156b981614608565b9050919050565b600060208201905081810360008301526156d981614648565b9050919050565b600060208201905081810360008301526156f9816146ae565b9050919050565b6000602082019050818103600083015261571981614714565b9050919050565b600060208201905081810360008301526157398161477a565b9050919050565b60006020820190508181036000830152615759816147e0565b9050919050565b6000602082019050818103600083015261577981614820565b9050919050565b6000602082019050818103600083015261579981614886565b9050919050565b600060208201905081810360008301526157b9816148ec565b9050919050565b600060208201905081810360008301526157d981614952565b9050919050565b600060208201905081810360008301526157f9816149b8565b9050919050565b6000602082019050818103600083015261581981614a1e565b9050919050565b6000602082019050818103600083015261583981614a84565b9050919050565b6000602082019050818103600083015261585981614aea565b9050919050565b6000602082019050818103600083015261587981614b50565b9050919050565b6000602082019050818103600083015261589981614bb6565b9050919050565b600060208201905081810360008301526158b981614bf6565b9050919050565b600060208201905081810360008301526158d981614c36565b9050919050565b600060208201905081810360008301526158f981614c9c565b9050919050565b6000602082019050818103600083015261591981614d02565b9050919050565b6000602082019050818103600083015261593981614d42565b9050919050565b6000602082019050818103600083015261595981614d82565b9050919050565b6000602082019050818103600083015261597981614de8565b9050919050565b6000602082019050818103600083015261599981614e28565b9050919050565b600060208201905081810360008301526159b981614e8e565b9050919050565b600060208201905081810360008301526159d981614ef4565b9050919050565b600060208201905081810360008301526159f981614f34565b9050919050565b60006020820190508181036000830152615a1981614f74565b9050919050565b60006020820190508181036000830152615a3981614fda565b9050919050565b60006020820190508181036000830152615a5981615040565b9050919050565b60006020820190508181036000830152615a7981615080565b9050919050565b60006020820190508181036000830152615a99816150c0565b9050919050565b60006020820190508181036000830152615ab981615126565b9050919050565b60006020820190508181036000830152615ad98161518c565b9050919050565b60006020820190508181036000830152615af9816151f2565b9050919050565b60006020820190508181036000830152615b1981615258565b9050919050565b60006020820190508181036000830152615b39816152be565b9050919050565b60006020820190508181036000830152615b59816152fe565b9050919050565b60006020820190508181036000830152615b7a8184615364565b905092915050565b6000602082019050615b97600083018461542a565b92915050565b6000604051905081810181811067ffffffffffffffff82111715615bc457615bc3615e5e565b5b8060405250919050565b600067ffffffffffffffff821115615be957615be8615e5e565b5b601f19601f8301169050602081019050919050565b6000819050602082019050919050565b600081519050919050565b600081519050919050565b6000602082019050919050565b600082825260208201905092915050565b600082825260208201905092915050565b600082825260208201905092915050565b600081905092915050565b6000615c7a82615d39565b9150615c8583615d39565b9250827fffffffffffffffffffffffffffffffffffffffffffffffffffffffffffffffff03821115615cba57615cb9615e00565b5b828201905092915050565b6000615cd082615d19565b9050919050565b60008115159050919050565b6000819050919050565b60007fffffffff0000000000000000000000000000000000000000000000000000000082169050919050565b600073ffffffffffffffffffffffffffffffffffffffff82169050919050565b6000819050919050565b82818337600083830152505050565b60005b83811015615d70578082015181840152602081019050615d55565b83811115615d7f576000848401525b50505050565b60006002820490506001821680615d9d57607f821691505b60208210811415615db157615db0615e2f565b5b50919050565b6000615dc282615d39565b91507fffffffffffffffffffffffffffffffffffffffffffffffffffffffffffffffff821415615df557615df4615e00565b5b600182019050919050565b7f4e487b7100000000000000000000000000000000000000000000000000000000600052601160045260246000fd5b7f4e487b7100000000000000000000000000000000000000000000000000000000600052602260045260246000fd5b7f4e487b7100000000000000000000000000000000000000000000000000000000600052604160045260246000fd5b6000601f19601f8301169050919050565b615ea781615cc5565b8114615eb257600080fd5b50565b615ebe81615ce3565b8114615ec957600080fd5b50565b615ed581615ced565b8114615ee057600080fd5b50565b615eec81615d39565b8114615ef757600080fd5b5056fea26469706673582212202a339171b9acfe5dbfdef5081db6e2adaf15f6b066f4b84bb29eba9885332cea64736f6c63430008000033",
  "immutableReferences": {},
  "source": "// SPDX-License-Identifier: MIT\npragma solidity 0.8.0;\n\nimport \"../client/node_modules/@openzeppelin/contracts/access/AccessControl.sol\";\n\ncontract MedTrials is AccessControl {\n    struct Protocol {\n        string cid;\n        address promoter;\n        address investigator;\n        bool registered;\n        bool authorized;\n        uint256 nbOfPatients;\n        uint256 index;\n        string status;\n    }\n\n    struct Patient {\n        address patient;\n        address investigator;\n        string protocolID;\n        bool consent;\n        string[] cids;\n    }\n\n    struct Promoter {\n        address promoter;\n        string cid;\n    }\n\n    struct Investigator {\n        address promoter;\n        address investigator;\n        string cid;\n    }\n\n    struct Authority {\n        address authority;\n        string cid;\n    }\n\n    mapping(string => Protocol) public protocols;\n    mapping(string => Patient) public patients;\n    mapping(uint256 => string) public protocolsID;\n    mapping(uint256 => Promoter) public promoters;\n    mapping(uint256 => Investigator) public investigators;\n    mapping(uint256 => Authority) public authorities;\n    mapping(address => string) roles;\n\n    mapping(string => mapping(string => uint256)) private protocolNumerotation;\n\n    bytes32 public constant AUTHORITY = keccak256(\"AUTHORITY\");\n    bytes32 public constant AUTHORITY_ADMIN = keccak256(\"AUTHORITYADMIN\");\n    bytes32 public constant PROMOTER = keccak256(\"PROMOTER\");\n    bytes32 public constant PROMOTER_ADMIN = keccak256(\"PROMOTERADMIN\");\n    bytes32 public constant INVESTIGATOR = keccak256(\"INVESTIGATOR\");\n    bytes32 public constant PATIENT = keccak256(\"PATIENT\");\n\n    uint256 public nbOfProtocolsRegistered;\n    uint256 public nbOfPatients;\n    uint256 public nbOfPromoters;\n    uint256 public nbOfInvestigators;\n    uint256 public nbOfAuthorities;\n\n    event promoterAdded(address _address);\n    event authorityAdded(address _address);\n    event investigatorAdded(address _address);\n    event protocolValidated(string _id);\n    event newProtocol(string _id, address _promotor, address _investigator);\n    event patientAdded(string _patientID, string _protocolID);\n    event consentGiven(string _patientID);\n    event consentRevoked(string _patientID);\n    event cidSaved(string _cid);\n    event protocolSuspended(string _protocolID);\n    event protocolResumed(string _protocolID);\n\n    constructor(\n        address _default_admin,\n        address _authorityAdmin,\n        address _promotorAdmin\n    ) {\n        _setupRole(DEFAULT_ADMIN_ROLE, _default_admin);\n\n        _setRoleAdmin(AUTHORITY_ADMIN, DEFAULT_ADMIN_ROLE);\n        _setRoleAdmin(AUTHORITY, AUTHORITY_ADMIN);\n\n        _setRoleAdmin(PROMOTER_ADMIN, DEFAULT_ADMIN_ROLE);\n        _setRoleAdmin(PROMOTER, PROMOTER_ADMIN);\n\n        _setRoleAdmin(INVESTIGATOR, PROMOTER);\n\n        _setRoleAdmin(PATIENT, INVESTIGATOR);\n\n        _setupRole(AUTHORITY_ADMIN, _authorityAdmin);\n        _setupRole(PROMOTER_ADMIN, _promotorAdmin);\n\n        renounceRole(DEFAULT_ADMIN_ROLE, _default_admin);\n\n        roles[_authorityAdmin] = \"AUTHORITY ADMIN\";\n        roles[_promotorAdmin] = \"PROMOTER ADMIN\";\n    }\n\n    function addAuthority(address _address, string memory _cid) public {\n        require(\n            hasRole(AUTHORITY_ADMIN, msg.sender),\n            \"Only the authority admin can add investigators\"\n        );\n        require(!hasRole(AUTHORITY, _address), \"You are already an authority\");\n        require(!hasRole(PROMOTER, _address), \"You are a promoter\");\n        require(!hasRole(INVESTIGATOR, _address), \"You are an investigator\");\n        require(!hasRole(PROMOTER_ADMIN, _address), \"You are a promoter admin\");\n        require(\n            !hasRole(AUTHORITY_ADMIN, _address),\n            \"You are an authority admin\"\n        );\n\n        grantRole(AUTHORITY, _address);\n        roles[_address] = \"AUTHORITY\";\n\n        authorities[nbOfAuthorities].cid = _cid;\n        authorities[nbOfAuthorities].authority = _address;\n        nbOfAuthorities++;\n\n        emit authorityAdded(_address);\n    }\n\n    function addPromoter(address _address, string memory _cid) public {\n        require(\n            hasRole(PROMOTER_ADMIN, msg.sender),\n            \"Only the promotor admin can add investigators\"\n        );\n        require(!hasRole(PROMOTER, _address), \"You are already a promoter\");\n        require(!hasRole(INVESTIGATOR, _address), \"You are an investigator\");\n        require(!hasRole(AUTHORITY, _address), \"You are an authority\");\n        require(!hasRole(PROMOTER_ADMIN, _address), \"You are a promoter admin\");\n        require(\n            !hasRole(AUTHORITY_ADMIN, _address),\n            \"You are an authority admin\"\n        );\n\n        grantRole(PROMOTER, _address);\n        roles[_address] = \"PROMOTER\";\n\n        promoters[nbOfPromoters].cid = _cid;\n        promoters[nbOfPromoters].promoter = _address;\n        nbOfPromoters++;\n\n        emit promoterAdded(_address);\n    }\n\n    function addInvestigator(address _address, string memory _cid) public {\n        require(\n            hasRole(PROMOTER, msg.sender),\n            \"Only the promotor can add investigators\"\n        );\n        require(\n            !hasRole(INVESTIGATOR, _address),\n            \"You are already an investigator\"\n        );\n        require(!hasRole(PROMOTER, _address), \"You are a promoter\");\n        require(!hasRole(AUTHORITY, _address), \"You are an authority\");\n        require(!hasRole(PROMOTER_ADMIN, _address), \"You are a promoter admin\");\n        require(\n            !hasRole(AUTHORITY_ADMIN, _address),\n            \"You are an authority admin\"\n        );\n\n        grantRole(INVESTIGATOR, _address);\n        roles[_address] = \"INVESTIGATOR\";\n\n        investigators[nbOfInvestigators].cid = _cid;\n        investigators[nbOfInvestigators].promoter = msg.sender;\n        investigators[nbOfInvestigators].investigator = _address;\n        nbOfInvestigators++;\n\n        emit investigatorAdded(_address);\n    }\n\n    function registerProtocol(\n        string memory _id,\n        string memory _cid,\n        string memory center,\n        string memory category,\n        address _investigator\n    ) public {\n        require(\n            hasRole(PROMOTER, msg.sender),\n            \"Only promoters can submit protocols\"\n        );\n        require(\n            !hasRole(PROMOTER, _investigator),\n            \"Promoters cannot be investigators\"\n        );\n        require(\n            !hasRole(AUTHORITY, _investigator),\n            \"Authorities cannot be investigators\"\n        );\n        require(\n            !hasRole(PROMOTER_ADMIN, _investigator),\n            \"Promoters admin cannot be an investigator\"\n        );\n        require(\n            !hasRole(AUTHORITY_ADMIN, _investigator),\n            \"Authorities admin cannot be an investigator\"\n        );\n        require(\n            hasRole(INVESTIGATOR, _investigator),\n            \"The investigator must be registered first\"\n        );\n        require(\n            !protocols[_id].registered,\n            \"The protocol is already registered\"\n        );\n\n        protocols[_id].promoter = msg.sender;\n        protocols[_id].investigator = _investigator;\n        protocols[_id].registered = true;\n        protocols[_id].cid = _cid;\n        protocols[_id].status = \"registered\";\n        protocols[_id].index = nbOfProtocolsRegistered;\n\n        protocolsID[nbOfProtocolsRegistered] = _id;\n        nbOfProtocolsRegistered++;\n\n        protocolNumerotation[center][category]++;\n\n        emit newProtocol(_id, msg.sender, _investigator);\n    }\n\n    function getProtocolCID(string memory _id)\n        public\n        view\n        returns (string memory)\n    {\n        require(\n            hasRole(PROMOTER, msg.sender) || hasRole(INVESTIGATOR, msg.sender),\n            \"only promoters and investigators have this right\"\n        );\n        require(\n            protocols[_id].promoter == msg.sender ||\n                protocols[_id].investigator == msg.sender,\n            \"You do not have right to open this project\"\n        );\n        require(\n            protocols[_id].authorized,\n            \"There is no protocol with this cid\"\n        );\n\n        return protocols[_id].cid;\n    }\n\n    function validateProtocol(string memory _id) public {\n        require(\n            hasRole(AUTHORITY, msg.sender),\n            \"Only authorities have right to validate protocols\"\n        );\n        require(\n            protocols[_id].registered == true,\n            \"There is no protocol associated with this ID\"\n        );\n\n        protocols[_id].authorized = true;\n        protocols[_id].status = \"validated\";\n\n        emit protocolValidated(_id);\n    }\n\n    function getProtocol(string memory _id)\n        public\n        view\n        returns (Protocol memory)\n    {\n        require(\n            protocols[_id].registered == true,\n            \"There is no protocol with this id\"\n        );\n        require(\n            protocols[_id].authorized == true,\n            \"This protocol hs not been validated yet\"\n        );\n\n        return protocols[_id];\n    }\n\n    function addPatient(\n        string memory _patientID,\n        address _patientAddress,\n        string memory _protocolID\n    ) public {\n        require(\n            hasRole(INVESTIGATOR, msg.sender),\n            \"Only investigators can add patients to protocols\"\n        );\n        require(\n            protocols[_protocolID].authorized == true,\n            \"This protocol has not been authorized yet\"\n        );\n        require(\n            msg.sender == protocols[_protocolID].investigator,\n            \"You do not have right to add patients to this protocol\"\n        );\n        //require(_patientAddress != protocols[_protocolID].patient, \"This patient already exist\");\n\n        patients[_patientID].consent = true;\n        patients[_patientID].patient = _patientAddress;\n        patients[_patientID].investigator = msg.sender;\n        patients[_patientID].protocolID = _protocolID;\n        protocols[_protocolID].nbOfPatients++;\n\n        grantRole(PATIENT, _patientAddress);\n        roles[_patientAddress] = \"PATIENT\";\n\n        emit patientAdded(_patientID, _protocolID);\n    }\n\n    function giveConsent(string memory _patientID) public {\n        require(\n            msg.sender == patients[_patientID].patient,\n            \"Your ID is not correct\"\n        );\n        require(\n            patients[_patientID].consent == false,\n            \"You did not consent yet\"\n        );\n\n        patients[_patientID].consent == true;\n\n        emit consentGiven(_patientID);\n    }\n\n    function revokeConsent(string memory _patientID) public {\n        require(\n            msg.sender == patients[_patientID].patient,\n            \"Your ID is not correct\"\n        );\n        require(\n            patients[_patientID].consent == true,\n            \"You already revoke your consent\"\n        );\n\n        patients[_patientID].consent == false;\n        delete patients[_patientID];\n\n        emit consentRevoked(_patientID);\n    }\n\n    function suspendTrials(string memory _protocolID) public {\n        require(\n            hasRole(AUTHORITY, msg.sender),\n            \"Only authoriities can suspend trials\"\n        );\n        require(protocols[_protocolID].authorized);\n\n        protocols[_protocolID].authorized = false;\n        protocols[_protocolID].status = \"suspended\";\n\n        emit protocolSuspended(_protocolID);\n    }\n\n    function resumeTrials(string memory _protocolID) public {\n        require(\n            hasRole(AUTHORITY, msg.sender),\n            \"Only authoriities can suspend trials\"\n        );\n        require(!protocols[_protocolID].authorized);\n\n        protocols[_protocolID].authorized = true;\n        protocols[_protocolID].status = \"resumed\";\n\n        emit protocolResumed(_protocolID);\n    }\n\n    function storeDataCID(string memory _patientID, string memory _cid) public {\n        require(\n            hasRole(INVESTIGATOR, msg.sender),\n            \"Only investigators can collect data\"\n        );\n        require(\n            msg.sender == patients[_patientID].investigator,\n            \"You do not have right for this patient\"\n        );\n        require(\n            patients[_patientID].consent == true,\n            \"Get the patient consent first\"\n        );\n\n        patients[_patientID].cids.push(_cid);\n\n        emit cidSaved(_cid);\n    }\n\n    function getDataCID(string memory _patientID)\n        public\n        view\n        returns (string[] memory)\n    {\n        require(\n            hasRole(INVESTIGATOR, msg.sender),\n            \"Only investigators can collect data\"\n        );\n        require(\n            msg.sender == patients[_patientID].investigator,\n            \"You do not have right for this patient\"\n        );\n        require(\n            patients[_patientID].consent == true,\n            \"Get the patient consent first\"\n        );\n\n        return patients[_patientID].cids;\n    }\n\n    function getProtocolStatus(string memory _protocolID)\n        public\n        view\n        returns (string memory)\n    {\n        return protocols[_protocolID].status;\n    }\n\n    function numberOfPatientByProtocol(string memory _protocolID)\n        public\n        view\n        returns (uint256)\n    {\n        return protocols[_protocolID].nbOfPatients;\n    }\n\n    function getRole(address _address) public view returns (string memory) {\n        return roles[_address];\n    }\n\n    function getProtocoleNumerotation(\n        string memory center,\n        string memory category\n    ) public view returns (uint256) {\n        return protocolNumerotation[center][category] + 1;\n    }\n}\n",
  "sourcePath": "/Users/samuel/Documents/Projet/Pojet_Dev/MedTrials/contracts/MedTrials.sol",
  "compiler": {
    "name": "solc",
    "version": "0.8.0+commit.c7dfd78e.Emscripten.clang"
  },
  "schemaVersion": "3.3.4",
  "updatedAt": "2021-05-07T16:42:21.943Z",
  "networkType": "ethereum",
  "devdoc": {
    "kind": "dev",
    "methods": {
      "getRoleAdmin(bytes32)": {
        "details": "Returns the admin role that controls `role`. See {grantRole} and {revokeRole}. To change a role's admin, use {_setRoleAdmin}."
      },
      "grantRole(bytes32,address)": {
        "details": "Grants `role` to `account`. If `account` had not been already granted `role`, emits a {RoleGranted} event. Requirements: - the caller must have ``role``'s admin role."
      },
      "hasRole(bytes32,address)": {
        "details": "Returns `true` if `account` has been granted `role`."
      },
      "renounceRole(bytes32,address)": {
        "details": "Revokes `role` from the calling account. Roles are often managed via {grantRole} and {revokeRole}: this function's purpose is to provide a mechanism for accounts to lose their privileges if they are compromised (such as when a trusted device is misplaced). If the calling account had been granted `role`, emits a {RoleRevoked} event. Requirements: - the caller must be `account`."
      },
      "revokeRole(bytes32,address)": {
        "details": "Revokes `role` from `account`. If `account` had been granted `role`, emits a {RoleRevoked} event. Requirements: - the caller must have ``role``'s admin role."
      },
      "supportsInterface(bytes4)": {
        "details": "See {IERC165-supportsInterface}."
      }
    },
    "version": 1
  },
  "userdoc": {
    "kind": "user",
    "methods": {},
    "version": 1
  }
}