{
  "contractName": "MedTrials",
  "abi": [
    {
      "inputs": [
        {
          "internalType": "address",
          "name": "_default_admin",
          "type": "address"
        },
        {
          "internalType": "address",
          "name": "_authorityAdmin",
          "type": "address"
        },
        {
          "internalType": "address",
          "name": "_promotorAdmin",
          "type": "address"
        }
      ],
      "stateMutability": "nonpayable",
      "type": "constructor"
    },
    {
      "anonymous": false,
      "inputs": [
        {
          "indexed": true,
          "internalType": "bytes32",
          "name": "role",
          "type": "bytes32"
        },
        {
          "indexed": true,
          "internalType": "bytes32",
          "name": "previousAdminRole",
          "type": "bytes32"
        },
        {
          "indexed": true,
          "internalType": "bytes32",
          "name": "newAdminRole",
          "type": "bytes32"
        }
      ],
      "name": "RoleAdminChanged",
      "type": "event"
    },
    {
      "anonymous": false,
      "inputs": [
        {
          "indexed": true,
          "internalType": "bytes32",
          "name": "role",
          "type": "bytes32"
        },
        {
          "indexed": true,
          "internalType": "address",
          "name": "account",
          "type": "address"
        },
        {
          "indexed": true,
          "internalType": "address",
          "name": "sender",
          "type": "address"
        }
      ],
      "name": "RoleGranted",
      "type": "event"
    },
    {
      "anonymous": false,
      "inputs": [
        {
          "indexed": true,
          "internalType": "bytes32",
          "name": "role",
          "type": "bytes32"
        },
        {
          "indexed": true,
          "internalType": "address",
          "name": "account",
          "type": "address"
        },
        {
          "indexed": true,
          "internalType": "address",
          "name": "sender",
          "type": "address"
        }
      ],
      "name": "RoleRevoked",
      "type": "event"
    },
    {
      "anonymous": false,
      "inputs": [
        {
          "indexed": false,
          "internalType": "address",
          "name": "_address",
          "type": "address"
        }
      ],
      "name": "authorityAdded",
      "type": "event"
    },
    {
      "anonymous": false,
      "inputs": [
        {
          "indexed": false,
          "internalType": "string",
          "name": "_cid",
          "type": "string"
        }
      ],
      "name": "cidSaved",
      "type": "event"
    },
    {
      "anonymous": false,
      "inputs": [
        {
          "indexed": false,
          "internalType": "string",
          "name": "_patientID",
          "type": "string"
        }
      ],
      "name": "consentGiven",
      "type": "event"
    },
    {
      "anonymous": false,
      "inputs": [
        {
          "indexed": false,
          "internalType": "string",
          "name": "_patientID",
          "type": "string"
        }
      ],
      "name": "consentRevoked",
      "type": "event"
    },
    {
      "anonymous": false,
      "inputs": [
        {
          "indexed": false,
          "internalType": "address",
          "name": "_address",
          "type": "address"
        }
      ],
      "name": "investigatorAdded",
      "type": "event"
    },
    {
      "anonymous": false,
      "inputs": [
        {
          "indexed": false,
          "internalType": "string",
          "name": "_id",
          "type": "string"
        },
        {
          "indexed": false,
          "internalType": "address",
          "name": "_promotor",
          "type": "address"
        },
        {
          "indexed": false,
          "internalType": "address",
          "name": "_investigator",
          "type": "address"
        }
      ],
      "name": "newProtocol",
      "type": "event"
    },
    {
      "anonymous": false,
      "inputs": [
        {
          "indexed": false,
          "internalType": "string",
          "name": "_patientID",
          "type": "string"
        },
        {
          "indexed": false,
          "internalType": "string",
          "name": "_protocolID",
          "type": "string"
        }
      ],
      "name": "patientAdded",
      "type": "event"
    },
    {
      "anonymous": false,
      "inputs": [
        {
          "indexed": false,
          "internalType": "address",
          "name": "_address",
          "type": "address"
        }
      ],
      "name": "promoterAdded",
      "type": "event"
    },
    {
      "anonymous": false,
      "inputs": [
        {
          "indexed": false,
          "internalType": "string",
          "name": "_protocolID",
          "type": "string"
        }
      ],
      "name": "protocolResumed",
      "type": "event"
    },
    {
      "anonymous": false,
      "inputs": [
        {
          "indexed": false,
          "internalType": "string",
          "name": "_protocolID",
          "type": "string"
        }
      ],
      "name": "protocolSuspended",
      "type": "event"
    },
    {
      "anonymous": false,
      "inputs": [
        {
          "indexed": false,
          "internalType": "string",
          "name": "_id",
          "type": "string"
        }
      ],
      "name": "protocolValidated",
      "type": "event"
    },
    {
      "inputs": [],
      "name": "AUTHORITY",
      "outputs": [
        {
          "internalType": "bytes32",
          "name": "",
          "type": "bytes32"
        }
      ],
      "stateMutability": "view",
      "type": "function",
      "constant": true
    },
    {
      "inputs": [],
      "name": "AUTHORITY_ADMIN",
      "outputs": [
        {
          "internalType": "bytes32",
          "name": "",
          "type": "bytes32"
        }
      ],
      "stateMutability": "view",
      "type": "function",
      "constant": true
    },
    {
      "inputs": [],
      "name": "DEFAULT_ADMIN_ROLE",
      "outputs": [
        {
          "internalType": "bytes32",
          "name": "",
          "type": "bytes32"
        }
      ],
      "stateMutability": "view",
      "type": "function",
      "constant": true
    },
    {
      "inputs": [],
      "name": "INVESTIGATOR",
      "outputs": [
        {
          "internalType": "bytes32",
          "name": "",
          "type": "bytes32"
        }
      ],
      "stateMutability": "view",
      "type": "function",
      "constant": true
    },
    {
      "inputs": [],
      "name": "PATIENT",
      "outputs": [
        {
          "internalType": "bytes32",
          "name": "",
          "type": "bytes32"
        }
      ],
      "stateMutability": "view",
      "type": "function",
      "constant": true
    },
    {
      "inputs": [],
      "name": "PROMOTER",
      "outputs": [
        {
          "internalType": "bytes32",
          "name": "",
          "type": "bytes32"
        }
      ],
      "stateMutability": "view",
      "type": "function",
      "constant": true
    },
    {
      "inputs": [],
      "name": "PROMOTER_ADMIN",
      "outputs": [
        {
          "internalType": "bytes32",
          "name": "",
          "type": "bytes32"
        }
      ],
      "stateMutability": "view",
      "type": "function",
      "constant": true
    },
    {
      "inputs": [
        {
          "internalType": "uint256",
          "name": "",
          "type": "uint256"
        }
      ],
      "name": "authorities",
      "outputs": [
        {
          "internalType": "address",
          "name": "authority",
          "type": "address"
        },
        {
          "internalType": "string",
          "name": "cid",
          "type": "string"
        }
      ],
      "stateMutability": "view",
      "type": "function",
      "constant": true
    },
    {
      "inputs": [
        {
          "internalType": "bytes32",
          "name": "role",
          "type": "bytes32"
        }
      ],
      "name": "getRoleAdmin",
      "outputs": [
        {
          "internalType": "bytes32",
          "name": "",
          "type": "bytes32"
        }
      ],
      "stateMutability": "view",
      "type": "function",
      "constant": true
    },
    {
      "inputs": [
        {
          "internalType": "bytes32",
          "name": "role",
          "type": "bytes32"
        },
        {
          "internalType": "address",
          "name": "account",
          "type": "address"
        }
      ],
      "name": "grantRole",
      "outputs": [],
      "stateMutability": "nonpayable",
      "type": "function"
    },
    {
      "inputs": [
        {
          "internalType": "bytes32",
          "name": "role",
          "type": "bytes32"
        },
        {
          "internalType": "address",
          "name": "account",
          "type": "address"
        }
      ],
      "name": "hasRole",
      "outputs": [
        {
          "internalType": "bool",
          "name": "",
          "type": "bool"
        }
      ],
      "stateMutability": "view",
      "type": "function",
      "constant": true
    },
    {
      "inputs": [],
      "name": "nbOfAuthorities",
      "outputs": [
        {
          "internalType": "uint256",
          "name": "",
          "type": "uint256"
        }
      ],
      "stateMutability": "view",
      "type": "function",
      "constant": true
    },
    {
      "inputs": [],
      "name": "nbOfPatients",
      "outputs": [
        {
          "internalType": "uint256",
          "name": "",
          "type": "uint256"
        }
      ],
      "stateMutability": "view",
      "type": "function",
      "constant": true
    },
    {
      "inputs": [],
      "name": "nbOfPromoters",
      "outputs": [
        {
          "internalType": "uint256",
          "name": "",
          "type": "uint256"
        }
      ],
      "stateMutability": "view",
      "type": "function",
      "constant": true
    },
    {
      "inputs": [],
      "name": "nbOfProtocolsRegistered",
      "outputs": [
        {
          "internalType": "uint256",
          "name": "",
          "type": "uint256"
        }
      ],
      "stateMutability": "view",
      "type": "function",
      "constant": true
    },
    {
      "inputs": [
        {
          "internalType": "string",
          "name": "",
          "type": "string"
        }
      ],
      "name": "patients",
      "outputs": [
        {
          "internalType": "address",
          "name": "patient",
          "type": "address"
        },
        {
          "internalType": "address",
          "name": "investigator",
          "type": "address"
        },
        {
          "internalType": "string",
          "name": "protocolID",
          "type": "string"
        },
        {
          "internalType": "bool",
          "name": "consent",
          "type": "bool"
        }
      ],
      "stateMutability": "view",
      "type": "function",
      "constant": true
    },
    {
      "inputs": [
        {
          "internalType": "uint256",
          "name": "",
          "type": "uint256"
        }
      ],
      "name": "promoters",
      "outputs": [
        {
          "internalType": "address",
          "name": "promoter",
          "type": "address"
        },
        {
          "internalType": "string",
          "name": "cid",
          "type": "string"
        }
      ],
      "stateMutability": "view",
      "type": "function",
      "constant": true
    },
    {
      "inputs": [
        {
          "internalType": "string",
          "name": "",
          "type": "string"
        }
      ],
      "name": "protocols",
      "outputs": [
        {
          "internalType": "string",
          "name": "cid",
          "type": "string"
        },
        {
          "internalType": "address",
          "name": "promoter",
          "type": "address"
        },
        {
          "internalType": "address",
          "name": "investigator",
          "type": "address"
        },
        {
          "internalType": "bool",
          "name": "registered",
          "type": "bool"
        },
        {
          "internalType": "bool",
          "name": "authorized",
          "type": "bool"
        },
        {
          "internalType": "uint256",
          "name": "nbOfPatients",
          "type": "uint256"
        },
        {
          "internalType": "uint256",
          "name": "index",
          "type": "uint256"
        },
        {
          "internalType": "string",
          "name": "status",
          "type": "string"
        }
      ],
      "stateMutability": "view",
      "type": "function",
      "constant": true
    },
    {
      "inputs": [
        {
          "internalType": "uint256",
          "name": "",
          "type": "uint256"
        }
      ],
      "name": "protocolsID",
      "outputs": [
        {
          "internalType": "string",
          "name": "",
          "type": "string"
        }
      ],
      "stateMutability": "view",
      "type": "function",
      "constant": true
    },
    {
      "inputs": [
        {
          "internalType": "bytes32",
          "name": "role",
          "type": "bytes32"
        },
        {
          "internalType": "address",
          "name": "account",
          "type": "address"
        }
      ],
      "name": "renounceRole",
      "outputs": [],
      "stateMutability": "nonpayable",
      "type": "function"
    },
    {
      "inputs": [
        {
          "internalType": "bytes32",
          "name": "role",
          "type": "bytes32"
        },
        {
          "internalType": "address",
          "name": "account",
          "type": "address"
        }
      ],
      "name": "revokeRole",
      "outputs": [],
      "stateMutability": "nonpayable",
      "type": "function"
    },
    {
      "inputs": [
        {
          "internalType": "bytes4",
          "name": "interfaceId",
          "type": "bytes4"
        }
      ],
      "name": "supportsInterface",
      "outputs": [
        {
          "internalType": "bool",
          "name": "",
          "type": "bool"
        }
      ],
      "stateMutability": "view",
      "type": "function",
      "constant": true
    },
    {
      "inputs": [
        {
          "internalType": "address",
          "name": "_address",
          "type": "address"
        },
        {
          "internalType": "string",
          "name": "_cid",
          "type": "string"
        }
      ],
      "name": "addAuthority",
      "outputs": [],
      "stateMutability": "nonpayable",
      "type": "function"
    },
    {
      "inputs": [
        {
          "internalType": "address",
          "name": "_address",
          "type": "address"
        },
        {
          "internalType": "string",
          "name": "_cid",
          "type": "string"
        }
      ],
      "name": "addPromoter",
      "outputs": [],
      "stateMutability": "nonpayable",
      "type": "function"
    },
    {
      "inputs": [
        {
          "internalType": "address",
          "name": "_address",
          "type": "address"
        }
      ],
      "name": "addInvestigator",
      "outputs": [],
      "stateMutability": "nonpayable",
      "type": "function"
    },
    {
      "inputs": [
        {
          "internalType": "string",
          "name": "_id",
          "type": "string"
        },
        {
          "internalType": "string",
          "name": "_cid",
          "type": "string"
        },
        {
          "internalType": "string",
          "name": "center",
          "type": "string"
        },
        {
          "internalType": "string",
          "name": "category",
          "type": "string"
        },
        {
          "internalType": "address",
          "name": "_investigator",
          "type": "address"
        }
      ],
      "name": "registerProtocol",
      "outputs": [],
      "stateMutability": "nonpayable",
      "type": "function"
    },
    {
      "inputs": [
        {
          "internalType": "string",
          "name": "_id",
          "type": "string"
        }
      ],
      "name": "getProtocolCID",
      "outputs": [
        {
          "internalType": "string",
          "name": "",
          "type": "string"
        }
      ],
      "stateMutability": "view",
      "type": "function",
      "constant": true
    },
    {
      "inputs": [
        {
          "internalType": "string",
          "name": "_id",
          "type": "string"
        }
      ],
      "name": "validateProtocol",
      "outputs": [],
      "stateMutability": "nonpayable",
      "type": "function"
    },
    {
      "inputs": [
        {
          "internalType": "string",
          "name": "_id",
          "type": "string"
        }
      ],
      "name": "getProtocol",
      "outputs": [
        {
          "components": [
            {
              "internalType": "string",
              "name": "cid",
              "type": "string"
            },
            {
              "internalType": "address",
              "name": "promoter",
              "type": "address"
            },
            {
              "internalType": "address",
              "name": "investigator",
              "type": "address"
            },
            {
              "internalType": "bool",
              "name": "registered",
              "type": "bool"
            },
            {
              "internalType": "bool",
              "name": "authorized",
              "type": "bool"
            },
            {
              "internalType": "uint256",
              "name": "nbOfPatients",
              "type": "uint256"
            },
            {
              "internalType": "uint256",
              "name": "index",
              "type": "uint256"
            },
            {
              "internalType": "string",
              "name": "status",
              "type": "string"
            }
          ],
          "internalType": "struct MedTrials.Protocol",
          "name": "",
          "type": "tuple"
        }
      ],
      "stateMutability": "view",
      "type": "function",
      "constant": true
    },
    {
      "inputs": [
        {
          "internalType": "string",
          "name": "_patientID",
          "type": "string"
        },
        {
          "internalType": "address",
          "name": "_patientAddress",
          "type": "address"
        },
        {
          "internalType": "string",
          "name": "_protocolID",
          "type": "string"
        }
      ],
      "name": "addPatient",
      "outputs": [],
      "stateMutability": "nonpayable",
      "type": "function"
    },
    {
      "inputs": [
        {
          "internalType": "string",
          "name": "_patientID",
          "type": "string"
        }
      ],
      "name": "giveConsent",
      "outputs": [],
      "stateMutability": "nonpayable",
      "type": "function"
    },
    {
      "inputs": [
        {
          "internalType": "string",
          "name": "_patientID",
          "type": "string"
        }
      ],
      "name": "revokeConsent",
      "outputs": [],
      "stateMutability": "nonpayable",
      "type": "function"
    },
    {
      "inputs": [
        {
          "internalType": "string",
          "name": "_protocolID",
          "type": "string"
        }
      ],
      "name": "suspendTrials",
      "outputs": [],
      "stateMutability": "nonpayable",
      "type": "function"
    },
    {
      "inputs": [
        {
          "internalType": "string",
          "name": "_protocolID",
          "type": "string"
        }
      ],
      "name": "resumeTrials",
      "outputs": [],
      "stateMutability": "nonpayable",
      "type": "function"
    },
    {
      "inputs": [
        {
          "internalType": "string",
          "name": "_patientID",
          "type": "string"
        },
        {
          "internalType": "string",
          "name": "_cid",
          "type": "string"
        }
      ],
      "name": "storeDataCID",
      "outputs": [],
      "stateMutability": "nonpayable",
      "type": "function"
    },
    {
      "inputs": [
        {
          "internalType": "string",
          "name": "_patientID",
          "type": "string"
        }
      ],
      "name": "getDataCID",
      "outputs": [
        {
          "internalType": "string[]",
          "name": "",
          "type": "string[]"
        }
      ],
      "stateMutability": "view",
      "type": "function",
      "constant": true
    },
    {
      "inputs": [
        {
          "internalType": "string",
          "name": "_protocolID",
          "type": "string"
        }
      ],
      "name": "getProtocolStatus",
      "outputs": [
        {
          "internalType": "string",
          "name": "",
          "type": "string"
        }
      ],
      "stateMutability": "view",
      "type": "function",
      "constant": true
    },
    {
      "inputs": [
        {
          "internalType": "string",
          "name": "_protocolID",
          "type": "string"
        }
      ],
      "name": "numberOfPatientByProtocol",
      "outputs": [
        {
          "internalType": "uint256",
          "name": "",
          "type": "uint256"
        }
      ],
      "stateMutability": "view",
      "type": "function",
      "constant": true
    },
    {
      "inputs": [
        {
          "internalType": "address",
          "name": "_address",
          "type": "address"
        }
      ],
      "name": "getRole",
      "outputs": [
        {
          "internalType": "string",
          "name": "",
          "type": "string"
        }
      ],
      "stateMutability": "view",
      "type": "function",
      "constant": true
    },
    {
      "inputs": [
        {
          "internalType": "string",
          "name": "center",
          "type": "string"
        },
        {
          "internalType": "string",
          "name": "category",
          "type": "string"
        }
      ],
      "name": "getProtocoleNumerotation",
      "outputs": [
        {
          "internalType": "uint256",
          "name": "",
          "type": "uint256"
        }
      ],
      "stateMutability": "view",
      "type": "function",
      "constant": true
    }
  ],
  "bytecode": "0x60806040523480156200001157600080fd5b506040516200649638038062006496833981810160405281019062000037919062000788565b6200004c6000801b846200034460201b60201c565b620000817f3e206be88d1de4207c0189003e17add3718b1a1bf78910a785940577239bbdae6000801b6200035a60201b60201c565b620000d37f843b48dccc6ff192f9330133622b0536f7b94feca0cf36e7e46fc50060b6f8827f3e206be88d1de4207c0189003e17add3718b1a1bf78910a785940577239bbdae6200035a60201b60201c565b620001087f47a6ab365f603cf120cb936195de17fd0bac3880ff606e7a0edb5e8e6580b1ae6000801b6200035a60201b60201c565b6200015a7f0996d044c7309cb5a01d79c18ee9e4c86aca84367cbd5bfd5f5d0606acc992737f47a6ab365f603cf120cb936195de17fd0bac3880ff606e7a0edb5e8e6580b1ae6200035a60201b60201c565b620001ac7f97f21e7273917267af1fea4c3510695aa29abe57349ce57ceec11b34688318037f0996d044c7309cb5a01d79c18ee9e4c86aca84367cbd5bfd5f5d0606acc992736200035a60201b60201c565b620001de7f3e206be88d1de4207c0189003e17add3718b1a1bf78910a785940577239bbdae836200034460201b60201c565b620002107f47a6ab365f603cf120cb936195de17fd0bac3880ff606e7a0edb5e8e6580b1ae826200034460201b60201c565b620002256000801b84620003b760201b60201c565b6040518060400160405280600f81526020017f415554484f524954592041444d494e0000000000000000000000000000000000815250600660008473ffffffffffffffffffffffffffffffffffffffff1673ffffffffffffffffffffffffffffffffffffffff1681526020019081526020016000209080519060200190620002af929190620006c1565b506040518060400160405280600e81526020017f50524f4d4f5445522041444d494e000000000000000000000000000000000000815250600660008373ffffffffffffffffffffffffffffffffffffffff1673ffffffffffffffffffffffffffffffffffffffff16815260200190815260200160002090805190602001906200033a929190620006c1565b505050506200092c565b6200035682826200044d60201b60201c565b5050565b806200036c836200053e60201b60201c565b837fbd79b86ffe0ab8e8776151514217cd7cacd52c909f66475c3af44e129f0b00ff60405160405180910390a480600080848152602001908152602001600020600101819055505050565b620003c76200055d60201b60201c565b73ffffffffffffffffffffffffffffffffffffffff168173ffffffffffffffffffffffffffffffffffffffff161462000437576040517f08c379a00000000000000000000000000000000000000000000000000000000081526004016200042e9062000846565b60405180910390fd5b6200044982826200056560201b60201c565b5050565b6200045f82826200065760201b60201c565b6200053a57600160008084815260200190815260200160002060000160008373ffffffffffffffffffffffffffffffffffffffff1673ffffffffffffffffffffffffffffffffffffffff16815260200190815260200160002060006101000a81548160ff021916908315150217905550620004df6200055d60201b60201c565b73ffffffffffffffffffffffffffffffffffffffff168173ffffffffffffffffffffffffffffffffffffffff16837f2f8788117e7eff1d82e926ec794901d17c78024a50270940304540a733656f0d60405160405180910390a45b5050565b6000806000838152602001908152602001600020600101549050919050565b600033905090565b6200057782826200065760201b60201c565b156200065357600080600084815260200190815260200160002060000160008373ffffffffffffffffffffffffffffffffffffffff1673ffffffffffffffffffffffffffffffffffffffff16815260200190815260200160002060006101000a81548160ff021916908315150217905550620005f86200055d60201b60201c565b73ffffffffffffffffffffffffffffffffffffffff168173ffffffffffffffffffffffffffffffffffffffff16837ff6391f5c32d9c69d2a47ea670b442974b53935d1edc7fd64eb21e047a839171b60405160405180910390a45b5050565b600080600084815260200190815260200160002060000160008373ffffffffffffffffffffffffffffffffffffffff1673ffffffffffffffffffffffffffffffffffffffff16815260200190815260200160002060009054906101000a900460ff16905092915050565b828054620006cf90620008ad565b90600052602060002090601f016020900481019282620006f357600085556200073f565b82601f106200070e57805160ff19168380011785556200073f565b828001600101855582156200073f579182015b828111156200073e57825182559160200191906001019062000721565b5b5090506200074e919062000752565b5090565b5b808211156200076d57600081600090555060010162000753565b5090565b600081519050620007828162000912565b92915050565b6000806000606084860312156200079e57600080fd5b6000620007ae8682870162000771565b9350506020620007c18682870162000771565b9250506040620007d48682870162000771565b9150509250925092565b6000620007ed602f8362000868565b91507f416363657373436f6e74726f6c3a2063616e206f6e6c792072656e6f756e636560008301527f20726f6c657320666f722073656c6600000000000000000000000000000000006020830152604082019050919050565b600060208201905081810360008301526200086181620007de565b9050919050565b600082825260208201905092915050565b600062000886826200088d565b9050919050565b600073ffffffffffffffffffffffffffffffffffffffff82169050919050565b60006002820490506001821680620008c657607f821691505b60208210811415620008dd57620008dc620008e3565b5b50919050565b7f4e487b7100000000000000000000000000000000000000000000000000000000600052602260045260246000fd5b6200091d8162000879565b81146200092957600080fd5b50565b615b5a806200093c6000396000f3fe608060405234801561001057600080fd5b50600436106102485760003560e01c806391d148541161013b578063cd5c3b2b116100b8578063e5078ed71161007c578063e5078ed714610757578063ebc4839114610773578063ec9f4bda14610791578063ed5ea0d2146107af578063f7f093b6146107cb57610248565b8063cd5c3b2b1461069f578063cf2a9a93146106cf578063d547741f146106ed578063d751b15014610709578063e1d862d91461073957610248565b8063c1bd2c20116100ff578063c1bd2c20146105e6578063c36f577514610604578063c4f3983014610620578063c6009d8414610650578063cb39dce51461068357610248565b806391d1485414610542578063a1a8316b14610572578063a217fddf1461058e578063a24d9658146105ac578063b62f9c74146105c857610248565b80633ca1d75f116101c9578063591fe6da1161018d578063591fe6da146104885780637ba3ae71146104a65780637beb4107146104d6578063834afa811461050657806389fcd7961461052457610248565b80633ca1d75f146103aa5780633f0bee32146103c657806344276733146103f7578063484ed33e14610427578063494503d41461045757610248565b80632de6388f116102105780632de6388f1461031e5780632f2ff15d1461033a5780632f77e62f1461035657806336568abe14610372578063393618a71461038e57610248565b806301ffc9a71461024d57806309c1ce8b1461027d5780631dae9454146102995780631f500061146102d0578063248a9ca3146102ee575b600080fd5b61026760048036038101906102629190613fb0565b6107fb565b60405161027491906151b1565b60405180910390f35b61029760048036038101906102929190614105565b610875565b005b6102b360048036038101906102ae9190613fd9565b610e6d565b6040516102c7989796959493929190615247565b60405180910390f35b6102d8611035565b6040516102e591906151cc565b60405180910390f35b61030860048036038101906103039190613f4b565b611059565b60405161031591906151cc565b60405180910390f35b61033860048036038101906103339190613fd9565b611078565b005b610354600480360381019061034f9190613f74565b6111f8565b005b610370600480360381019061036b9190613fd9565b61125e565b005b61038c60048036038101906103879190613f74565b6113de565b005b6103a860048036038101906103a39190613ef7565b611461565b005b6103c460048036038101906103bf9190613ef7565b611866565b005b6103e060048036038101906103db91906141dc565b611c6b565b6040516103ee92919061515f565b60405180910390f35b610411600480360381019061040c9190613ece565b611d37565b60405161041e91906151e7565b60405180910390f35b610441600480360381019061043c9190613fd9565b611e08565b60405161044e91906157ac565b60405180910390f35b610471600480360381019061046c91906141dc565b611e33565b60405161047f92919061515f565b60405180910390f35b610490611eff565b60405161049d91906151cc565b60405180910390f35b6104c060048036038101906104bb9190613fd9565b611f23565b6040516104cd91906151e7565b60405180910390f35b6104f060048036038101906104eb9190613fd9565b612204565b6040516104fd919061578a565b60405180910390f35b61050e612541565b60405161051b91906157ac565b60405180910390f35b61052c612547565b60405161053991906151cc565b60405180910390f35b61055c60048036038101906105579190613f74565b61256b565b60405161056991906151b1565b60405180910390f35b61058c60048036038101906105879190613fd9565b6125d5565b005b610596612791565b6040516105a391906151cc565b60405180910390f35b6105c660048036038101906105c19190613fd9565b612798565b005b6105d06129cb565b6040516105dd91906157ac565b60405180910390f35b6105ee6129d1565b6040516105fb91906151cc565b60405180910390f35b61061e6004803603810190610619919061401a565b6129f5565b005b61063a60048036038101906106359190614099565b612d27565b60405161064791906157ac565b60405180910390f35b61066a60048036038101906106659190613fd9565b612d78565b60405161067a9493929190615113565b60405180910390f35b61069d60048036038101906106989190614099565b612e93565b005b6106b960048036038101906106b491906141dc565b6130b6565b6040516106c691906151e7565b60405180910390f35b6106d7613156565b6040516106e491906151cc565b60405180910390f35b61070760048036038101906107029190613f74565b61317a565b005b610723600480360381019061071e9190613fd9565b6131e0565b60405161073091906151e7565b60405180910390f35b610741613293565b60405161074e91906157ac565b60405180910390f35b610771600480360381019061076c9190613ece565b613299565b005b61077b613601565b60405161078891906157ac565b60405180910390f35b610799613607565b6040516107a691906151cc565b60405180910390f35b6107c960048036038101906107c49190613fd9565b61362b565b005b6107e560048036038101906107e09190613fd9565b6137bb565b6040516107f2919061518f565b60405180910390f35b60007f7965db0b000000000000000000000000000000000000000000000000000000007bffffffffffffffffffffffffffffffffffffffffffffffffffffffff1916827bffffffffffffffffffffffffffffffffffffffffffffffffffffffff1916148061086e575061086d82613a42565b5b9050919050565b61089f7f0996d044c7309cb5a01d79c18ee9e4c86aca84367cbd5bfd5f5d0606acc992733361256b565b6108de576040517f08c379a00000000000000000000000000000000000000000000000000000000081526004016108d59061550a565b60405180910390fd5b6109087f0996d044c7309cb5a01d79c18ee9e4c86aca84367cbd5bfd5f5d0606acc992738261256b565b15610948576040517f08c379a000000000000000000000000000000000000000000000000000000000815260040161093f906155aa565b60405180910390fd5b6109727f843b48dccc6ff192f9330133622b0536f7b94feca0cf36e7e46fc50060b6f8828261256b565b156109b2576040517f08c379a00000000000000000000000000000000000000000000000000000000081526004016109a99061564a565b60405180910390fd5b6109dc7f47a6ab365f603cf120cb936195de17fd0bac3880ff606e7a0edb5e8e6580b1ae8261256b565b15610a1c576040517f08c379a0000000000000000000000000000000000000000000000000000000008152600401610a13906153ea565b60405180910390fd5b610a467f3e206be88d1de4207c0189003e17add3718b1a1bf78910a785940577239bbdae8261256b565b15610a86576040517f08c379a0000000000000000000000000000000000000000000000000000000008152600401610a7d9061548a565b60405180910390fd5b600185604051610a9691906150e1565b908152602001604051809103902060020160149054906101000a900460ff1615610af5576040517f08c379a0000000000000000000000000000000000000000000000000000000008152600401610aec9061562a565b60405180910390fd5b33600186604051610b0691906150e1565b908152602001604051809103902060010160006101000a81548173ffffffffffffffffffffffffffffffffffffffff021916908373ffffffffffffffffffffffffffffffffffffffff16021790555080600186604051610b6691906150e1565b908152602001604051809103902060020160006101000a81548173ffffffffffffffffffffffffffffffffffffffff021916908373ffffffffffffffffffffffffffffffffffffffff16021790555060018086604051610bc691906150e1565b908152602001604051809103902060020160146101000a81548160ff02191690831515021790555083600186604051610bff91906150e1565b90815260200160405180910390206000019080519060200190610c23929190613c75565b506040518060400160405280600a81526020017f7265676973746572656400000000000000000000000000000000000000000000815250600186604051610c6a91906150e1565b90815260200160405180910390206005019080519060200190610c8e929190613c75565b50600854600186604051610ca291906150e1565b908152602001604051809103902060040181905550846003600060085481526020019081526020016000209080519060200190610ce0929190613c75565b5060086000815480929190610cf4906159e1565b9190505550600783604051610d0991906150e1565b908152602001604051809103902082604051610d2591906150e1565b90815260200160405180910390206000815480929190610d44906159e1565b9190505550610d737f97f21e7273917267af1fea4c3510695aa29abe57349ce57ceec11b34688318038261256b565b610e2b57610da17f97f21e7273917267af1fea4c3510695aa29abe57349ce57ceec11b3468831803826111f8565b6040518060400160405280600c81526020017f494e56455354494741544f520000000000000000000000000000000000000000815250600660008373ffffffffffffffffffffffffffffffffffffffff1673ffffffffffffffffffffffffffffffffffffffff1681526020019081526020016000209080519060200190610e29929190613c75565b505b7fff88452d1e63b10e4f05e166bed6696de7594668e0e30daf24839937a0a27fee853383604051610e5e93929190615209565b60405180910390a15050505050565b600181805160208101820180518482526020830160208501208183528095505050505050600091509050806000018054610ea6906159af565b80601f0160208091040260200160405190810160405280929190818152602001828054610ed2906159af565b8015610f1f5780601f10610ef457610100808354040283529160200191610f1f565b820191906000526020600020905b815481529060010190602001808311610f0257829003601f168201915b5050505050908060010160009054906101000a900473ffffffffffffffffffffffffffffffffffffffff16908060020160009054906101000a900473ffffffffffffffffffffffffffffffffffffffff16908060020160149054906101000a900460ff16908060020160159054906101000a900460ff1690806003015490806004015490806005018054610fb2906159af565b80601f0160208091040260200160405190810160405280929190818152602001828054610fde906159af565b801561102b5780601f106110005761010080835404028352916020019161102b565b820191906000526020600020905b81548152906001019060200180831161100e57829003601f168201915b5050505050905088565b7fe5786ee6f50ab1a5567cb3f3f6840a2f4ddbafdf4a35cb2c52d5b732b1e84a3281565b6000806000838152602001908152602001600020600101549050919050565b6110a27f843b48dccc6ff192f9330133622b0536f7b94feca0cf36e7e46fc50060b6f8823361256b565b6110e1576040517f08c379a00000000000000000000000000000000000000000000000000000000081526004016110d89061538a565b60405180910390fd5b6001816040516110f191906150e1565b908152602001604051809103902060020160159054906101000a900460ff161561111a57600080fd5b6001808260405161112b91906150e1565b908152602001604051809103902060020160156101000a81548160ff0219169083151502179055506040518060400160405280600781526020017f726573756d65640000000000000000000000000000000000000000000000000081525060018260405161119991906150e1565b908152602001604051809103902060050190805190602001906111bd929190613c75565b507fd1c688ddb9e9baabcd8e5f84a85f4933173bc6600b2f361087b41cd9304e2920816040516111ed91906151e7565b60405180910390a150565b61121161120483611059565b61120c613aac565b61256b565b611250576040517f08c379a00000000000000000000000000000000000000000000000000000000081526004016112479061534a565b60405180910390fd5b61125a8282613ab4565b5050565b6112887f843b48dccc6ff192f9330133622b0536f7b94feca0cf36e7e46fc50060b6f8823361256b565b6112c7576040517f08c379a00000000000000000000000000000000000000000000000000000000081526004016112be9061538a565b60405180910390fd5b6001816040516112d791906150e1565b908152602001604051809103902060020160159054906101000a900460ff166112ff57600080fd5b600060018260405161131191906150e1565b908152602001604051809103902060020160156101000a81548160ff0219169083151502179055506040518060400160405280600981526020017f73757370656e646564000000000000000000000000000000000000000000000081525060018260405161137f91906150e1565b908152602001604051809103902060050190805190602001906113a3929190613c75565b507fb9f86d562ae4d5d427f505b81f74024716097f50538bc3d5a16f0716ca399559816040516113d391906151e7565b60405180910390a150565b6113e6613aac565b73ffffffffffffffffffffffffffffffffffffffff168173ffffffffffffffffffffffffffffffffffffffff1614611453576040517f08c379a000000000000000000000000000000000000000000000000000000000815260040161144a9061572a565b60405180910390fd5b61145d8282613b94565b5050565b61148b7f47a6ab365f603cf120cb936195de17fd0bac3880ff606e7a0edb5e8e6580b1ae3361256b565b6114ca576040517f08c379a00000000000000000000000000000000000000000000000000000000081526004016114c19061540a565b60405180910390fd5b6114f47f0996d044c7309cb5a01d79c18ee9e4c86aca84367cbd5bfd5f5d0606acc992738361256b565b15611534576040517f08c379a000000000000000000000000000000000000000000000000000000000815260040161152b9061554a565b60405180910390fd5b61155e7f97f21e7273917267af1fea4c3510695aa29abe57349ce57ceec11b34688318038361256b565b1561159e576040517f08c379a0000000000000000000000000000000000000000000000000000000008152600401611595906153aa565b60405180910390fd5b6115c87f843b48dccc6ff192f9330133622b0536f7b94feca0cf36e7e46fc50060b6f8828361256b565b15611608576040517f08c379a00000000000000000000000000000000000000000000000000000000081526004016115ff906154ea565b60405180910390fd5b6116327f47a6ab365f603cf120cb936195de17fd0bac3880ff606e7a0edb5e8e6580b1ae8361256b565b15611672576040517f08c379a00000000000000000000000000000000000000000000000000000000081526004016116699061574a565b60405180910390fd5b61169c7f3e206be88d1de4207c0189003e17add3718b1a1bf78910a785940577239bbdae8361256b565b156116dc576040517f08c379a00000000000000000000000000000000000000000000000000000000081526004016116d39061530a565b60405180910390fd5b6117067f0996d044c7309cb5a01d79c18ee9e4c86aca84367cbd5bfd5f5d0606acc99273836111f8565b6040518060400160405280600881526020017f50524f4d4f544552000000000000000000000000000000000000000000000000815250600660008473ffffffffffffffffffffffffffffffffffffffff1673ffffffffffffffffffffffffffffffffffffffff168152602001908152602001600020908051906020019061178e929190613c75565b508060046000600a54815260200190815260200160002060010190805190602001906117bb929190613c75565b508160046000600a54815260200190815260200160002060000160006101000a81548173ffffffffffffffffffffffffffffffffffffffff021916908373ffffffffffffffffffffffffffffffffffffffff160217905550600a6000815480929190611826906159e1565b91905055507f786ebfd921e487d94a7dbf555edf33e5f264f7b59acdcdfe139c08f48f0755598260405161185a91906150f8565b60405180910390a15050565b6118907f3e206be88d1de4207c0189003e17add3718b1a1bf78910a785940577239bbdae3361256b565b6118cf576040517f08c379a00000000000000000000000000000000000000000000000000000000081526004016118c69061532a565b60405180910390fd5b6118f97f843b48dccc6ff192f9330133622b0536f7b94feca0cf36e7e46fc50060b6f8828361256b565b15611939576040517f08c379a0000000000000000000000000000000000000000000000000000000008152600401611930906154ca565b60405180910390fd5b6119637f0996d044c7309cb5a01d79c18ee9e4c86aca84367cbd5bfd5f5d0606acc992738361256b565b156119a3576040517f08c379a000000000000000000000000000000000000000000000000000000000815260040161199a906155ea565b60405180910390fd5b6119cd7f97f21e7273917267af1fea4c3510695aa29abe57349ce57ceec11b34688318038361256b565b15611a0d576040517f08c379a0000000000000000000000000000000000000000000000000000000008152600401611a04906153aa565b60405180910390fd5b611a377f47a6ab365f603cf120cb936195de17fd0bac3880ff606e7a0edb5e8e6580b1ae8361256b565b15611a77576040517f08c379a0000000000000000000000000000000000000000000000000000000008152600401611a6e9061574a565b60405180910390fd5b611aa17f3e206be88d1de4207c0189003e17add3718b1a1bf78910a785940577239bbdae8361256b565b15611ae1576040517f08c379a0000000000000000000000000000000000000000000000000000000008152600401611ad89061530a565b60405180910390fd5b611b0b7f843b48dccc6ff192f9330133622b0536f7b94feca0cf36e7e46fc50060b6f882836111f8565b6040518060400160405280600981526020017f415554484f524954590000000000000000000000000000000000000000000000815250600660008473ffffffffffffffffffffffffffffffffffffffff1673ffffffffffffffffffffffffffffffffffffffff1681526020019081526020016000209080519060200190611b93929190613c75565b508060056000600b5481526020019081526020016000206001019080519060200190611bc0929190613c75565b508160056000600b54815260200190815260200160002060000160006101000a81548173ffffffffffffffffffffffffffffffffffffffff021916908373ffffffffffffffffffffffffffffffffffffffff160217905550600b6000815480929190611c2b906159e1565b91905055507f3c0aee07d693a6f94b1a6aca6097bdde55429f0834eb9c27e3c31a03081f09b482604051611c5f91906150f8565b60405180910390a15050565b60046020528060005260406000206000915090508060000160009054906101000a900473ffffffffffffffffffffffffffffffffffffffff1690806001018054611cb4906159af565b80601f0160208091040260200160405190810160405280929190818152602001828054611ce0906159af565b8015611d2d5780601f10611d0257610100808354040283529160200191611d2d565b820191906000526020600020905b815481529060010190602001808311611d1057829003601f168201915b5050505050905082565b6060600660008373ffffffffffffffffffffffffffffffffffffffff1673ffffffffffffffffffffffffffffffffffffffff1681526020019081526020016000208054611d83906159af565b80601f0160208091040260200160405190810160405280929190818152602001828054611daf906159af565b8015611dfc5780601f10611dd157610100808354040283529160200191611dfc565b820191906000526020600020905b815481529060010190602001808311611ddf57829003601f168201915b50505050509050919050565b6000600182604051611e1a91906150e1565b9081526020016040518091039020600301549050919050565b60056020528060005260406000206000915090508060000160009054906101000a900473ffffffffffffffffffffffffffffffffffffffff1690806001018054611e7c906159af565b80601f0160208091040260200160405190810160405280929190818152602001828054611ea8906159af565b8015611ef55780601f10611eca57610100808354040283529160200191611ef5565b820191906000526020600020905b815481529060010190602001808311611ed857829003601f168201915b5050505050905082565b7f3e206be88d1de4207c0189003e17add3718b1a1bf78910a785940577239bbdae81565b6060611f4f7f0996d044c7309cb5a01d79c18ee9e4c86aca84367cbd5bfd5f5d0606acc992733361256b565b80611f805750611f7f7f97f21e7273917267af1fea4c3510695aa29abe57349ce57ceec11b34688318033361256b565b5b611fbf576040517f08c379a0000000000000000000000000000000000000000000000000000000008152600401611fb69061536a565b60405180910390fd5b3373ffffffffffffffffffffffffffffffffffffffff16600183604051611fe691906150e1565b908152602001604051809103902060010160009054906101000a900473ffffffffffffffffffffffffffffffffffffffff1673ffffffffffffffffffffffffffffffffffffffff1614806120a657503373ffffffffffffffffffffffffffffffffffffffff1660018360405161205c91906150e1565b908152602001604051809103902060020160009054906101000a900473ffffffffffffffffffffffffffffffffffffffff1673ffffffffffffffffffffffffffffffffffffffff16145b6120e5576040517f08c379a00000000000000000000000000000000000000000000000000000000081526004016120dc9061544a565b60405180910390fd5b6001826040516120f591906150e1565b908152602001604051809103902060020160159054906101000a900460ff16612153576040517f08c379a000000000000000000000000000000000000000000000000000000000815260040161214a906156aa565b60405180910390fd5b60018260405161216391906150e1565b9081526020016040518091039020600001805461217f906159af565b80601f01602080910402602001604051908101604052809291908181526020018280546121ab906159af565b80156121f85780601f106121cd576101008083540402835291602001916121f8565b820191906000526020600020905b8154815290600101906020018083116121db57829003601f168201915b50505050509050919050565b61220c613cfb565b6001151560018360405161222091906150e1565b908152602001604051809103902060020160149054906101000a900460ff16151514612281576040517f08c379a00000000000000000000000000000000000000000000000000000000081526004016122789061542a565b60405180910390fd5b6001151560018360405161229591906150e1565b908152602001604051809103902060020160159054906101000a900460ff161515146122f6576040517f08c379a00000000000000000000000000000000000000000000000000000000081526004016122ed9061576a565b60405180910390fd5b60018260405161230691906150e1565b908152602001604051809103902060405180610100016040529081600082018054612330906159af565b80601f016020809104026020016040519081016040528092919081815260200182805461235c906159af565b80156123a95780601f1061237e576101008083540402835291602001916123a9565b820191906000526020600020905b81548152906001019060200180831161238c57829003601f168201915b505050505081526020016001820160009054906101000a900473ffffffffffffffffffffffffffffffffffffffff1673ffffffffffffffffffffffffffffffffffffffff1673ffffffffffffffffffffffffffffffffffffffff1681526020016002820160009054906101000a900473ffffffffffffffffffffffffffffffffffffffff1673ffffffffffffffffffffffffffffffffffffffff1673ffffffffffffffffffffffffffffffffffffffff1681526020016002820160149054906101000a900460ff161515151581526020016002820160159054906101000a900460ff1615151515815260200160038201548152602001600482015481526020016005820180546124b8906159af565b80601f01602080910402602001604051908101604052809291908181526020018280546124e4906159af565b80156125315780601f1061250657610100808354040283529160200191612531565b820191906000526020600020905b81548152906001019060200180831161251457829003601f168201915b5050505050815250509050919050565b60095481565b7f843b48dccc6ff192f9330133622b0536f7b94feca0cf36e7e46fc50060b6f88281565b600080600084815260200190815260200160002060000160008373ffffffffffffffffffffffffffffffffffffffff1673ffffffffffffffffffffffffffffffffffffffff16815260200190815260200160002060009054906101000a900460ff16905092915050565b6125ff7f843b48dccc6ff192f9330133622b0536f7b94feca0cf36e7e46fc50060b6f8823361256b565b61263e576040517f08c379a00000000000000000000000000000000000000000000000000000000081526004016126359061570a565b60405180910390fd5b6001151560018260405161265291906150e1565b908152602001604051809103902060020160149054906101000a900460ff161515146126b3576040517f08c379a00000000000000000000000000000000000000000000000000000000081526004016126aa906156ca565b60405180910390fd5b600180826040516126c491906150e1565b908152602001604051809103902060020160156101000a81548160ff0219169083151502179055506040518060400160405280600981526020017f76616c696461746564000000000000000000000000000000000000000000000081525060018260405161273291906150e1565b90815260200160405180910390206005019080519060200190612756929190613c75565b507fbc0e66a9d9a6660141870110fa7932ebb7fe171d5e52ee9a42674665105f1d1b8160405161278691906151e7565b60405180910390a150565b6000801b81565b6002816040516127a891906150e1565b908152602001604051809103902060000160009054906101000a900473ffffffffffffffffffffffffffffffffffffffff1673ffffffffffffffffffffffffffffffffffffffff163373ffffffffffffffffffffffffffffffffffffffff1614612847576040517f08c379a000000000000000000000000000000000000000000000000000000000815260040161283e9061558a565b60405180910390fd5b6001151560028260405161285b91906150e1565b908152602001604051809103902060030160009054906101000a900460ff161515146128bc576040517f08c379a00000000000000000000000000000000000000000000000000000000081526004016128b39061566a565b60405180910390fd5b600015156002826040516128d091906150e1565b908152602001604051809103902060030160009054906101000a905050506002816040516128fe91906150e1565b9081526020016040518091039020600080820160006101000a81549073ffffffffffffffffffffffffffffffffffffffff02191690556001820160006101000a81549073ffffffffffffffffffffffffffffffffffffffff021916905560028201600061296b9190613d70565b6003820160006101000a81549060ff021916905560048201600061298f9190613db0565b50507f1a24299bbcab71cb3013c24c40adca455867472f22ae6d056e4e0cb2bb0e5a73816040516129c091906151e7565b60405180910390a150565b600b5481565b7f47a6ab365f603cf120cb936195de17fd0bac3880ff606e7a0edb5e8e6580b1ae81565b612a1f7f97f21e7273917267af1fea4c3510695aa29abe57349ce57ceec11b34688318033361256b565b612a5e576040517f08c379a0000000000000000000000000000000000000000000000000000000008152600401612a55906155ca565b60405180910390fd5b60011515600182604051612a7291906150e1565b908152602001604051809103902060020160159054906101000a900460ff16151514612ad3576040517f08c379a0000000000000000000000000000000000000000000000000000000008152600401612aca9061546a565b60405180910390fd5b600181604051612ae391906150e1565b908152602001604051809103902060020160009054906101000a900473ffffffffffffffffffffffffffffffffffffffff1673ffffffffffffffffffffffffffffffffffffffff163373ffffffffffffffffffffffffffffffffffffffff1614612b82576040517f08c379a0000000000000000000000000000000000000000000000000000000008152600401612b79906153ca565b60405180910390fd5b6001600284604051612b9491906150e1565b908152602001604051809103902060030160006101000a81548160ff02191690831515021790555081600284604051612bcd91906150e1565b908152602001604051809103902060000160006101000a81548173ffffffffffffffffffffffffffffffffffffffff021916908373ffffffffffffffffffffffffffffffffffffffff16021790555033600284604051612c2d91906150e1565b908152602001604051809103902060010160006101000a81548173ffffffffffffffffffffffffffffffffffffffff021916908373ffffffffffffffffffffffffffffffffffffffff16021790555080600284604051612c8d91906150e1565b90815260200160405180910390206002019080519060200190612cb1929190613c75565b50600181604051612cc291906150e1565b90815260200160405180910390206003016000815480929190612ce4906159e1565b91905055507f76b4f38e7ada56c131a0c796e7382093d7b5a69175ca0bf513f5827f60f5314d8382604051612d1a9291906152d3565b60405180910390a1505050565b60006001600784604051612d3b91906150e1565b908152602001604051809103902083604051612d5791906150e1565b908152602001604051809103902054612d709190615899565b905092915050565b6002818051602081018201805184825260208301602085012081835280955050505050506000915090508060000160009054906101000a900473ffffffffffffffffffffffffffffffffffffffff16908060010160009054906101000a900473ffffffffffffffffffffffffffffffffffffffff1690806002018054612dfd906159af565b80601f0160208091040260200160405190810160405280929190818152602001828054612e29906159af565b8015612e765780601f10612e4b57610100808354040283529160200191612e76565b820191906000526020600020905b815481529060010190602001808311612e5957829003601f168201915b5050505050908060030160009054906101000a900460ff16905084565b612ebd7f97f21e7273917267af1fea4c3510695aa29abe57349ce57ceec11b34688318033361256b565b612efc576040517f08c379a0000000000000000000000000000000000000000000000000000000008152600401612ef39061552a565b60405180910390fd5b600282604051612f0c91906150e1565b908152602001604051809103902060010160009054906101000a900473ffffffffffffffffffffffffffffffffffffffff1673ffffffffffffffffffffffffffffffffffffffff163373ffffffffffffffffffffffffffffffffffffffff1614612fab576040517f08c379a0000000000000000000000000000000000000000000000000000000008152600401612fa2906156ea565b60405180910390fd5b60011515600283604051612fbf91906150e1565b908152602001604051809103902060030160009054906101000a900460ff16151514613020576040517f08c379a00000000000000000000000000000000000000000000000000000000081526004016130179061568a565b60405180910390fd5b60028260405161303091906150e1565b90815260200160405180910390206004018190806001815401808255809150506001900390600052602060002001600090919091909150908051906020019061307a929190613c75565b507f2fd00fee6fba014584e65a085e3eb131b03ff5c389c44c3cf9e857d52c1650d6816040516130aa91906151e7565b60405180910390a15050565b600360205280600052604060002060009150905080546130d5906159af565b80601f0160208091040260200160405190810160405280929190818152602001828054613101906159af565b801561314e5780601f106131235761010080835404028352916020019161314e565b820191906000526020600020905b81548152906001019060200180831161313157829003601f168201915b505050505081565b7f97f21e7273917267af1fea4c3510695aa29abe57349ce57ceec11b346883180381565b61319361318683611059565b61318e613aac565b61256b565b6131d2576040517f08c379a00000000000000000000000000000000000000000000000000000000081526004016131c9906154aa565b60405180910390fd5b6131dc8282613b94565b5050565b60606001826040516131f291906150e1565b9081526020016040518091039020600501805461320e906159af565b80601f016020809104026020016040519081016040528092919081815260200182805461323a906159af565b80156132875780601f1061325c57610100808354040283529160200191613287565b820191906000526020600020905b81548152906001019060200180831161326a57829003601f168201915b50505050509050919050565b600a5481565b6132c37f47a6ab365f603cf120cb936195de17fd0bac3880ff606e7a0edb5e8e6580b1ae3361256b565b613302576040517f08c379a00000000000000000000000000000000000000000000000000000000081526004016132f99061540a565b60405180910390fd5b61332c7f97f21e7273917267af1fea4c3510695aa29abe57349ce57ceec11b34688318038261256b565b1561336c576040517f08c379a00000000000000000000000000000000000000000000000000000000081526004016133639061556a565b60405180910390fd5b6133967f0996d044c7309cb5a01d79c18ee9e4c86aca84367cbd5bfd5f5d0606acc992738261256b565b156133d6576040517f08c379a00000000000000000000000000000000000000000000000000000000081526004016133cd906155ea565b60405180910390fd5b6134007f843b48dccc6ff192f9330133622b0536f7b94feca0cf36e7e46fc50060b6f8828261256b565b15613440576040517f08c379a0000000000000000000000000000000000000000000000000000000008152600401613437906154ea565b60405180910390fd5b61346a7f47a6ab365f603cf120cb936195de17fd0bac3880ff606e7a0edb5e8e6580b1ae8261256b565b156134aa576040517f08c379a00000000000000000000000000000000000000000000000000000000081526004016134a19061574a565b60405180910390fd5b6134d47f3e206be88d1de4207c0189003e17add3718b1a1bf78910a785940577239bbdae8261256b565b15613514576040517f08c379a000000000000000000000000000000000000000000000000000000000815260040161350b9061530a565b60405180910390fd5b61353e7f97f21e7273917267af1fea4c3510695aa29abe57349ce57ceec11b3468831803826111f8565b6040518060400160405280600c81526020017f494e56455354494741544f520000000000000000000000000000000000000000815250600660008373ffffffffffffffffffffffffffffffffffffffff1673ffffffffffffffffffffffffffffffffffffffff16815260200190815260200160002090805190602001906135c6929190613c75565b507fe8418412d360af43b959e2ca49b9ad98feb77e7b5597963ca346077db47d69ba816040516135f691906150f8565b60405180910390a150565b60085481565b7f0996d044c7309cb5a01d79c18ee9e4c86aca84367cbd5bfd5f5d0606acc9927381565b60028160405161363b91906150e1565b908152602001604051809103902060000160009054906101000a900473ffffffffffffffffffffffffffffffffffffffff1673ffffffffffffffffffffffffffffffffffffffff163373ffffffffffffffffffffffffffffffffffffffff16146136da576040517f08c379a00000000000000000000000000000000000000000000000000000000081526004016136d19061558a565b60405180910390fd5b600015156002826040516136ee91906150e1565b908152602001604051809103902060030160009054906101000a900460ff1615151461374f576040517f08c379a00000000000000000000000000000000000000000000000000000000081526004016137469061560a565b60405180910390fd5b6001151560028260405161376391906150e1565b908152602001604051809103902060030160009054906101000a905050507fbf0bdf0dac0f40e06b9d86448186b0585c751a20ebbf3541074e23bb229e4f81816040516137b091906151e7565b60405180910390a150565b60606137e77f97f21e7273917267af1fea4c3510695aa29abe57349ce57ceec11b34688318033361256b565b613826576040517f08c379a000000000000000000000000000000000000000000000000000000000815260040161381d9061552a565b60405180910390fd5b60028260405161383691906150e1565b908152602001604051809103902060010160009054906101000a900473ffffffffffffffffffffffffffffffffffffffff1673ffffffffffffffffffffffffffffffffffffffff163373ffffffffffffffffffffffffffffffffffffffff16146138d5576040517f08c379a00000000000000000000000000000000000000000000000000000000081526004016138cc906156ea565b60405180910390fd5b600115156002836040516138e991906150e1565b908152602001604051809103902060030160009054906101000a900460ff1615151461394a576040517f08c379a00000000000000000000000000000000000000000000000000000000081526004016139419061568a565b60405180910390fd5b60028260405161395a91906150e1565b9081526020016040518091039020600401805480602002602001604051908101604052809291908181526020016000905b82821015613a375783829060005260206000200180546139aa906159af565b80601f01602080910402602001604051908101604052809291908181526020018280546139d6906159af565b8015613a235780601f106139f857610100808354040283529160200191613a23565b820191906000526020600020905b815481529060010190602001808311613a0657829003601f168201915b50505050508152602001906001019061398b565b505050509050919050565b60007f01ffc9a7000000000000000000000000000000000000000000000000000000007bffffffffffffffffffffffffffffffffffffffffffffffffffffffff1916827bffffffffffffffffffffffffffffffffffffffffffffffffffffffff1916149050919050565b600033905090565b613abe828261256b565b613b9057600160008084815260200190815260200160002060000160008373ffffffffffffffffffffffffffffffffffffffff1673ffffffffffffffffffffffffffffffffffffffff16815260200190815260200160002060006101000a81548160ff021916908315150217905550613b35613aac565b73ffffffffffffffffffffffffffffffffffffffff168173ffffffffffffffffffffffffffffffffffffffff16837f2f8788117e7eff1d82e926ec794901d17c78024a50270940304540a733656f0d60405160405180910390a45b5050565b613b9e828261256b565b15613c7157600080600084815260200190815260200160002060000160008373ffffffffffffffffffffffffffffffffffffffff1673ffffffffffffffffffffffffffffffffffffffff16815260200190815260200160002060006101000a81548160ff021916908315150217905550613c16613aac565b73ffffffffffffffffffffffffffffffffffffffff168173ffffffffffffffffffffffffffffffffffffffff16837ff6391f5c32d9c69d2a47ea670b442974b53935d1edc7fd64eb21e047a839171b60405160405180910390a45b5050565b828054613c81906159af565b90600052602060002090601f016020900481019282613ca35760008555613cea565b82601f10613cbc57805160ff1916838001178555613cea565b82800160010185558215613cea579182015b82811115613ce9578251825591602001919060010190613cce565b5b509050613cf79190613dd1565b5090565b60405180610100016040528060608152602001600073ffffffffffffffffffffffffffffffffffffffff168152602001600073ffffffffffffffffffffffffffffffffffffffff1681526020016000151581526020016000151581526020016000815260200160008152602001606081525090565b508054613d7c906159af565b6000825580601f10613d8e5750613dad565b601f016020900490600052602060002090810190613dac9190613dd1565b5b50565b5080546000825590600052602060002090810190613dce9190613dee565b50565b5b80821115613dea576000816000905550600101613dd2565b5090565b5b80821115613e0e5760008181613e059190613d70565b50600101613def565b5090565b6000613e25613e20846157f8565b6157c7565b905082815260208101848484011115613e3d57600080fd5b613e4884828561596d565b509392505050565b600081359050613e5f81615ac8565b92915050565b600081359050613e7481615adf565b92915050565b600081359050613e8981615af6565b92915050565b600082601f830112613ea057600080fd5b8135613eb0848260208601613e12565b91505092915050565b600081359050613ec881615b0d565b92915050565b600060208284031215613ee057600080fd5b6000613eee84828501613e50565b91505092915050565b60008060408385031215613f0a57600080fd5b6000613f1885828601613e50565b925050602083013567ffffffffffffffff811115613f3557600080fd5b613f4185828601613e8f565b9150509250929050565b600060208284031215613f5d57600080fd5b6000613f6b84828501613e65565b91505092915050565b60008060408385031215613f8757600080fd5b6000613f9585828601613e65565b9250506020613fa685828601613e50565b9150509250929050565b600060208284031215613fc257600080fd5b6000613fd084828501613e7a565b91505092915050565b600060208284031215613feb57600080fd5b600082013567ffffffffffffffff81111561400557600080fd5b61401184828501613e8f565b91505092915050565b60008060006060848603121561402f57600080fd5b600084013567ffffffffffffffff81111561404957600080fd5b61405586828701613e8f565b935050602061406686828701613e50565b925050604084013567ffffffffffffffff81111561408357600080fd5b61408f86828701613e8f565b9150509250925092565b600080604083850312156140ac57600080fd5b600083013567ffffffffffffffff8111156140c657600080fd5b6140d285828601613e8f565b925050602083013567ffffffffffffffff8111156140ef57600080fd5b6140fb85828601613e8f565b9150509250929050565b600080600080600060a0868803121561411d57600080fd5b600086013567ffffffffffffffff81111561413757600080fd5b61414388828901613e8f565b955050602086013567ffffffffffffffff81111561416057600080fd5b61416c88828901613e8f565b945050604086013567ffffffffffffffff81111561418957600080fd5b61419588828901613e8f565b935050606086013567ffffffffffffffff8111156141b257600080fd5b6141be88828901613e8f565b92505060806141cf88828901613e50565b9150509295509295909350565b6000602082840312156141ee57600080fd5b60006141fc84828501613eb9565b91505092915050565b600061421183836142d9565b905092915050565b614222816158ef565b82525050565b614231816158ef565b82525050565b600061424282615838565b61424c818561585b565b93508360208202850161425e85615828565b8060005b8581101561429a578484038952815161427b8582614205565b94506142868361584e565b925060208a01995050600181019050614262565b50829750879550505050505092915050565b6142b581615901565b82525050565b6142c481615901565b82525050565b6142d38161590d565b82525050565b60006142e482615843565b6142ee818561586c565b93506142fe81856020860161597c565b61430781615ab7565b840191505092915050565b600061431d82615843565b614327818561587d565b935061433781856020860161597c565b61434081615ab7565b840191505092915050565b600061435682615843565b614360818561588e565b935061437081856020860161597c565b80840191505092915050565b6000614389601a8361587d565b91507f596f752061726520616e20617574686f726974792061646d696e0000000000006000830152602082019050919050565b60006143c9602e8361587d565b91507f4f6e6c792074686520617574686f726974792061646d696e2063616e2061646460008301527f20696e76657374696761746f72730000000000000000000000000000000000006020830152604082019050919050565b600061442f602f8361587d565b91507f416363657373436f6e74726f6c3a2073656e646572206d75737420626520616e60008301527f2061646d696e20746f206772616e7400000000000000000000000000000000006020830152604082019050919050565b600061449560308361587d565b91507f6f6e6c792070726f6d6f7465727320616e6420696e76657374696761746f727360008301527f20686176652074686973207269676874000000000000000000000000000000006020830152604082019050919050565b60006144fb60248361587d565b91507f4f6e6c7920617574686f726969746965732063616e2073757370656e6420747260008301527f69616c73000000000000000000000000000000000000000000000000000000006020830152604082019050919050565b600061456160178361587d565b91507f596f752061726520616e20696e76657374696761746f720000000000000000006000830152602082019050919050565b60006145a160368361587d565b91507f596f7520646f206e6f74206861766520726967687420746f206164642070617460008301527f69656e747320746f20746869732070726f746f636f6c000000000000000000006020830152604082019050919050565b600061460760298361587d565b91507f50726f6d6f746572732061646d696e2063616e6e6f7420626520616e20696e7660008301527f657374696761746f7200000000000000000000000000000000000000000000006020830152604082019050919050565b600061466d602d8361587d565b91507f4f6e6c79207468652070726f6d6f746f722061646d696e2063616e206164642060008301527f696e76657374696761746f7273000000000000000000000000000000000000006020830152604082019050919050565b60006146d360218361587d565b91507f5468657265206973206e6f2070726f746f636f6c20776974682074686973206960008301527f64000000000000000000000000000000000000000000000000000000000000006020830152604082019050919050565b6000614739602a8361587d565b91507f596f7520646f206e6f74206861766520726967687420746f206f70656e20746860008301527f69732070726f6a656374000000000000000000000000000000000000000000006020830152604082019050919050565b600061479f60298361587d565b91507f546869732070726f746f636f6c20686173206e6f74206265656e20617574686f60008301527f72697a65642079657400000000000000000000000000000000000000000000006020830152604082019050919050565b6000614805602b8361587d565b91507f417574686f7269746965732061646d696e2063616e6e6f7420626520616e206960008301527f6e76657374696761746f720000000000000000000000000000000000000000006020830152604082019050919050565b600061486b60308361587d565b91507f416363657373436f6e74726f6c3a2073656e646572206d75737420626520616e60008301527f2061646d696e20746f207265766f6b65000000000000000000000000000000006020830152604082019050919050565b60006148d1601c8361587d565b91507f596f752061726520616c726561647920616e20617574686f72697479000000006000830152602082019050919050565b600061491160148361587d565b91507f596f752061726520616e20617574686f726974790000000000000000000000006000830152602082019050919050565b600061495160238361587d565b91507f4f6e6c792070726f6d6f746572732063616e207375626d69742070726f746f6360008301527f6f6c7300000000000000000000000000000000000000000000000000000000006020830152604082019050919050565b60006149b760238361587d565b91507f4f6e6c7920696e76657374696761746f72732063616e20636f6c6c656374206460008301527f61746100000000000000000000000000000000000000000000000000000000006020830152604082019050919050565b6000614a1d601a8361587d565b91507f596f752061726520616c726561647920612070726f6d6f7465720000000000006000830152602082019050919050565b6000614a5d601f8361587d565b91507f596f752061726520616c726561647920616e20696e76657374696761746f72006000830152602082019050919050565b6000614a9d60168361587d565b91507f596f7572204944206973206e6f7420636f7272656374000000000000000000006000830152602082019050919050565b6000614add60218361587d565b91507f50726f6d6f746572732063616e6e6f7420626520696e76657374696761746f7260008301527f73000000000000000000000000000000000000000000000000000000000000006020830152604082019050919050565b6000614b4360308361587d565b91507f4f6e6c7920696e76657374696761746f72732063616e2061646420706174696560008301527f6e747320746f2070726f746f636f6c73000000000000000000000000000000006020830152604082019050919050565b6000614ba960128361587d565b91507f596f752061726520612070726f6d6f74657200000000000000000000000000006000830152602082019050919050565b6000614be960178361587d565b91507f596f7520646964206e6f7420636f6e73656e74207965740000000000000000006000830152602082019050919050565b6000614c2960228361587d565b91507f5468652070726f746f636f6c20697320616c726561647920726567697374657260008301527f65640000000000000000000000000000000000000000000000000000000000006020830152604082019050919050565b6000614c8f60238361587d565b91507f417574686f7269746965732063616e6e6f7420626520696e766573746967617460008301527f6f727300000000000000000000000000000000000000000000000000000000006020830152604082019050919050565b6000614cf5601f8361587d565b91507f596f7520616c7265616479207265766f6b6520796f757220636f6e73656e74006000830152602082019050919050565b6000614d35601d8361587d565b91507f476574207468652070617469656e7420636f6e73656e742066697273740000006000830152602082019050919050565b6000614d7560228361587d565b91507f5468657265206973206e6f2070726f746f636f6c20776974682074686973206360008301527f69640000000000000000000000000000000000000000000000000000000000006020830152604082019050919050565b6000614ddb602c8361587d565b91507f5468657265206973206e6f2070726f746f636f6c206173736f6369617465642060008301527f77697468207468697320494400000000000000000000000000000000000000006020830152604082019050919050565b6000614e4160268361587d565b91507f596f7520646f206e6f74206861766520726967687420666f722074686973207060008301527f617469656e7400000000000000000000000000000000000000000000000000006020830152604082019050919050565b6000614ea760318361587d565b91507f4f6e6c7920617574686f726974696573206861766520726967687420746f207660008301527f616c69646174652070726f746f636f6c730000000000000000000000000000006020830152604082019050919050565b6000614f0d602f8361587d565b91507f416363657373436f6e74726f6c3a2063616e206f6e6c792072656e6f756e636560008301527f20726f6c657320666f722073656c6600000000000000000000000000000000006020830152604082019050919050565b6000614f7360188361587d565b91507f596f752061726520612070726f6d6f7465722061646d696e00000000000000006000830152602082019050919050565b6000614fb360278361587d565b91507f546869732070726f746f636f6c206873206e6f74206265656e2076616c69646160008301527f74656420796574000000000000000000000000000000000000000000000000006020830152604082019050919050565b600061010083016000830151848203600086015261502a82826142d9565b915050602083015161503f6020860182614219565b5060408301516150526040860182614219565b50606083015161506560608601826142ac565b50608083015161507860808601826142ac565b5060a083015161508b60a08601826150c3565b5060c083015161509e60c08601826150c3565b5060e083015184820360e08601526150b682826142d9565b9150508091505092915050565b6150cc81615963565b82525050565b6150db81615963565b82525050565b60006150ed828461434b565b915081905092915050565b600060208201905061510d6000830184614228565b92915050565b60006080820190506151286000830187614228565b6151356020830186614228565b81810360408301526151478185614312565b905061515660608301846142bb565b95945050505050565b60006040820190506151746000830185614228565b81810360208301526151868184614312565b90509392505050565b600060208201905081810360008301526151a98184614237565b905092915050565b60006020820190506151c660008301846142bb565b92915050565b60006020820190506151e160008301846142ca565b92915050565b600060208201905081810360008301526152018184614312565b905092915050565b600060608201905081810360008301526152238186614312565b90506152326020830185614228565b61523f6040830184614228565b949350505050565b6000610100820190508181036000830152615262818b614312565b9050615271602083018a614228565b61527e6040830189614228565b61528b60608301886142bb565b61529860808301876142bb565b6152a560a08301866150d2565b6152b260c08301856150d2565b81810360e08301526152c48184614312565b90509998505050505050505050565b600060408201905081810360008301526152ed8185614312565b905081810360208301526153018184614312565b90509392505050565b600060208201905081810360008301526153238161437c565b9050919050565b60006020820190508181036000830152615343816143bc565b9050919050565b6000602082019050818103600083015261536381614422565b9050919050565b6000602082019050818103600083015261538381614488565b9050919050565b600060208201905081810360008301526153a3816144ee565b9050919050565b600060208201905081810360008301526153c381614554565b9050919050565b600060208201905081810360008301526153e381614594565b9050919050565b60006020820190508181036000830152615403816145fa565b9050919050565b6000602082019050818103600083015261542381614660565b9050919050565b60006020820190508181036000830152615443816146c6565b9050919050565b600060208201905081810360008301526154638161472c565b9050919050565b6000602082019050818103600083015261548381614792565b9050919050565b600060208201905081810360008301526154a3816147f8565b9050919050565b600060208201905081810360008301526154c38161485e565b9050919050565b600060208201905081810360008301526154e3816148c4565b9050919050565b6000602082019050818103600083015261550381614904565b9050919050565b6000602082019050818103600083015261552381614944565b9050919050565b60006020820190508181036000830152615543816149aa565b9050919050565b6000602082019050818103600083015261556381614a10565b9050919050565b6000602082019050818103600083015261558381614a50565b9050919050565b600060208201905081810360008301526155a381614a90565b9050919050565b600060208201905081810360008301526155c381614ad0565b9050919050565b600060208201905081810360008301526155e381614b36565b9050919050565b6000602082019050818103600083015261560381614b9c565b9050919050565b6000602082019050818103600083015261562381614bdc565b9050919050565b6000602082019050818103600083015261564381614c1c565b9050919050565b6000602082019050818103600083015261566381614c82565b9050919050565b6000602082019050818103600083015261568381614ce8565b9050919050565b600060208201905081810360008301526156a381614d28565b9050919050565b600060208201905081810360008301526156c381614d68565b9050919050565b600060208201905081810360008301526156e381614dce565b9050919050565b6000602082019050818103600083015261570381614e34565b9050919050565b6000602082019050818103600083015261572381614e9a565b9050919050565b6000602082019050818103600083015261574381614f00565b9050919050565b6000602082019050818103600083015261576381614f66565b9050919050565b6000602082019050818103600083015261578381614fa6565b9050919050565b600060208201905081810360008301526157a4818461500c565b905092915050565b60006020820190506157c160008301846150d2565b92915050565b6000604051905081810181811067ffffffffffffffff821117156157ee576157ed615a88565b5b8060405250919050565b600067ffffffffffffffff82111561581357615812615a88565b5b601f19601f8301169050602081019050919050565b6000819050602082019050919050565b600081519050919050565b600081519050919050565b6000602082019050919050565b600082825260208201905092915050565b600082825260208201905092915050565b600082825260208201905092915050565b600081905092915050565b60006158a482615963565b91506158af83615963565b9250827fffffffffffffffffffffffffffffffffffffffffffffffffffffffffffffffff038211156158e4576158e3615a2a565b5b828201905092915050565b60006158fa82615943565b9050919050565b60008115159050919050565b6000819050919050565b60007fffffffff0000000000000000000000000000000000000000000000000000000082169050919050565b600073ffffffffffffffffffffffffffffffffffffffff82169050919050565b6000819050919050565b82818337600083830152505050565b60005b8381101561599a57808201518184015260208101905061597f565b838111156159a9576000848401525b50505050565b600060028204905060018216806159c757607f821691505b602082108114156159db576159da615a59565b5b50919050565b60006159ec82615963565b91507fffffffffffffffffffffffffffffffffffffffffffffffffffffffffffffffff821415615a1f57615a1e615a2a565b5b600182019050919050565b7f4e487b7100000000000000000000000000000000000000000000000000000000600052601160045260246000fd5b7f4e487b7100000000000000000000000000000000000000000000000000000000600052602260045260246000fd5b7f4e487b7100000000000000000000000000000000000000000000000000000000600052604160045260246000fd5b6000601f19601f8301169050919050565b615ad1816158ef565b8114615adc57600080fd5b50565b615ae88161590d565b8114615af357600080fd5b50565b615aff81615917565b8114615b0a57600080fd5b50565b615b1681615963565b8114615b2157600080fd5b5056fea26469706673582212207b95bfe21aa2e207405b20a3a94eccfcf23231604bae6145d7d773c3680a14b564736f6c63430008000033",
  "immutableReferences": {},
  "source": "// SPDX-License-Identifier: MIT\npragma solidity 0.8.0;\n\nimport \"../client/node_modules/@openzeppelin/contracts/access/AccessControl.sol\";\n\ncontract MedTrials is AccessControl {\n    struct Protocol {\n        string cid;\n        address promoter;\n        address investigator;\n        bool registered;\n        bool authorized;\n        uint256 nbOfPatients;\n        uint256 index;\n        string status;\n    }\n\n    struct Patient {\n        address patient;\n        address investigator;\n        string protocolID;\n        bool consent;\n        string[] cids;\n    }\n\n    struct Promoter {\n        address promoter;\n        string cid;\n    }\n\n    struct Authority {\n        address authority;\n        string cid;\n    }\n\n    mapping(string => Protocol) public protocols;\n    mapping(string => Patient) public patients;\n    mapping(uint256 => string) public protocolsID;\n    mapping(uint256 => Promoter) public promoters;\n    mapping(uint256 => Authority) public authorities;\n    mapping(address => string) roles;\n\n    mapping(string => mapping(string => uint256)) private protocolNumerotation;\n\n    bytes32 public constant AUTHORITY = keccak256(\"AUTHORITY\");\n    bytes32 public constant AUTHORITY_ADMIN = keccak256(\"AUTHORITYADMIN\");\n    bytes32 public constant PROMOTER = keccak256(\"PROMOTER\");\n    bytes32 public constant PROMOTER_ADMIN = keccak256(\"PROMOTERADMIN\");\n    bytes32 public constant INVESTIGATOR = keccak256(\"INVESTIGATOR\");\n    bytes32 public constant PATIENT = keccak256(\"PATIENT\");\n\n    uint256 public nbOfProtocolsRegistered;\n    uint256 public nbOfPatients;\n    uint256 public nbOfPromoters;\n    uint256 public nbOfAuthorities;\n\n    event promoterAdded(address _address);\n    event authorityAdded(address _address);\n    event investigatorAdded(address _address);\n    event protocolValidated(string _id);\n    event newProtocol(string _id, address _promotor, address _investigator);\n    event patientAdded(string _patientID, string _protocolID);\n    event consentGiven(string _patientID);\n    event consentRevoked(string _patientID);\n    event cidSaved(string _cid);\n    event protocolSuspended(string _protocolID);\n    event protocolResumed(string _protocolID);\n\n    constructor(\n        address _default_admin,\n        address _authorityAdmin,\n        address _promotorAdmin\n    ) {\n        _setupRole(DEFAULT_ADMIN_ROLE, _default_admin);\n\n        _setRoleAdmin(AUTHORITY_ADMIN, DEFAULT_ADMIN_ROLE);\n        _setRoleAdmin(AUTHORITY, AUTHORITY_ADMIN);\n\n        _setRoleAdmin(PROMOTER_ADMIN, DEFAULT_ADMIN_ROLE);\n        _setRoleAdmin(PROMOTER, PROMOTER_ADMIN);\n\n        _setRoleAdmin(INVESTIGATOR, PROMOTER);\n\n        _setupRole(AUTHORITY_ADMIN, _authorityAdmin);\n        _setupRole(PROMOTER_ADMIN, _promotorAdmin);\n\n        renounceRole(DEFAULT_ADMIN_ROLE, _default_admin);\n\n        roles[_authorityAdmin] = \"AUTHORITY ADMIN\";\n        roles[_promotorAdmin] = \"PROMOTER ADMIN\";\n    }\n\n    function addAuthority(address _address, string memory _cid) public {\n        require(\n            hasRole(AUTHORITY_ADMIN, msg.sender),\n            \"Only the authority admin can add investigators\"\n        );\n        require(!hasRole(AUTHORITY, _address), \"You are already an authority\");\n        require(!hasRole(PROMOTER, _address), \"You are a promoter\");\n        require(!hasRole(INVESTIGATOR, _address), \"You are an investigator\");\n        require(!hasRole(PROMOTER_ADMIN, _address), \"You are a promoter admin\");\n        require(\n            !hasRole(AUTHORITY_ADMIN, _address),\n            \"You are an authority admin\"\n        );\n\n        grantRole(AUTHORITY, _address);\n        roles[_address] = \"AUTHORITY\";\n\n        authorities[nbOfAuthorities].cid = _cid;\n        authorities[nbOfAuthorities].authority = _address;\n        nbOfAuthorities++;\n\n        emit authorityAdded(_address);\n    }\n\n    function addPromoter(address _address, string memory _cid) public {\n        require(\n            hasRole(PROMOTER_ADMIN, msg.sender),\n            \"Only the promotor admin can add investigators\"\n        );\n        require(!hasRole(PROMOTER, _address), \"You are already a promoter\");\n        require(!hasRole(INVESTIGATOR, _address), \"You are an investigator\");\n        require(!hasRole(AUTHORITY, _address), \"You are an authority\");\n        require(!hasRole(PROMOTER_ADMIN, _address), \"You are a promoter admin\");\n        require(\n            !hasRole(AUTHORITY_ADMIN, _address),\n            \"You are an authority admin\"\n        );\n\n        grantRole(PROMOTER, _address);\n        roles[_address] = \"PROMOTER\";\n\n        promoters[nbOfPromoters].cid = _cid;\n        promoters[nbOfPromoters].promoter = _address;\n        nbOfPromoters++;\n\n        emit promoterAdded(_address);\n    }\n\n    function addInvestigator(address _address) public {\n        require(\n            hasRole(PROMOTER_ADMIN, msg.sender),\n            \"Only the promotor admin can add investigators\"\n        );\n        require(\n            !hasRole(INVESTIGATOR, _address),\n            \"You are already an investigator\"\n        );\n        require(!hasRole(PROMOTER, _address), \"You are a promoter\");\n        require(!hasRole(AUTHORITY, _address), \"You are an authority\");\n        require(!hasRole(PROMOTER_ADMIN, _address), \"You are a promoter admin\");\n        require(\n            !hasRole(AUTHORITY_ADMIN, _address),\n            \"You are an authority admin\"\n        );\n\n        grantRole(INVESTIGATOR, _address);\n        roles[_address] = \"INVESTIGATOR\";\n\n        emit investigatorAdded(_address);\n    }\n\n    function registerProtocol(\n        string memory _id,\n        string memory _cid,\n        string memory center,\n        string memory category,\n        address _investigator\n    ) public {\n        require(\n            hasRole(PROMOTER, msg.sender),\n            \"Only promoters can submit protocols\"\n        );\n        require(\n            !hasRole(PROMOTER, _investigator),\n            \"Promoters cannot be investigators\"\n        );\n        require(\n            !hasRole(AUTHORITY, _investigator),\n            \"Authorities cannot be investigators\"\n        );\n        require(\n            !hasRole(PROMOTER_ADMIN, _investigator),\n            \"Promoters admin cannot be an investigator\"\n        );\n        require(\n            !hasRole(AUTHORITY_ADMIN, _investigator),\n            \"Authorities admin cannot be an investigator\"\n        );\n        require(\n            !protocols[_id].registered,\n            \"The protocol is already registered\"\n        );\n\n        protocols[_id].promoter = msg.sender;\n        protocols[_id].investigator = _investigator;\n        protocols[_id].registered = true;\n        protocols[_id].cid = _cid;\n        protocols[_id].status = \"registered\";\n        protocols[_id].index = nbOfProtocolsRegistered;\n\n        protocolsID[nbOfProtocolsRegistered] = _id;\n        nbOfProtocolsRegistered++;\n\n        protocolNumerotation[center][category]++;\n\n        if (!hasRole(INVESTIGATOR, _investigator)) {\n            grantRole(INVESTIGATOR, _investigator);\n            roles[_investigator] = \"INVESTIGATOR\";\n        }\n\n        emit newProtocol(_id, msg.sender, _investigator);\n    }\n\n    function getProtocolCID(string memory _id)\n        public\n        view\n        returns (string memory)\n    {\n        require(\n            hasRole(PROMOTER, msg.sender) || hasRole(INVESTIGATOR, msg.sender),\n            \"only promoters and investigators have this right\"\n        );\n        require(\n            protocols[_id].promoter == msg.sender ||\n                protocols[_id].investigator == msg.sender,\n            \"You do not have right to open this project\"\n        );\n        require(\n            protocols[_id].authorized,\n            \"There is no protocol with this cid\"\n        );\n\n        return protocols[_id].cid;\n    }\n\n    function validateProtocol(string memory _id) public {\n        require(\n            hasRole(AUTHORITY, msg.sender),\n            \"Only authorities have right to validate protocols\"\n        );\n        require(\n            protocols[_id].registered == true,\n            \"There is no protocol associated with this ID\"\n        );\n\n        protocols[_id].authorized = true;\n        protocols[_id].status = \"validated\";\n\n        emit protocolValidated(_id);\n    }\n\n    function getProtocol(string memory _id)\n        public\n        view\n        returns (Protocol memory)\n    {\n        require(\n            protocols[_id].registered == true,\n            \"There is no protocol with this id\"\n        );\n        require(\n            protocols[_id].authorized == true,\n            \"This protocol hs not been validated yet\"\n        );\n\n        return protocols[_id];\n    }\n\n    function addPatient(\n        string memory _patientID,\n        address _patientAddress,\n        string memory _protocolID\n    ) public {\n        require(\n            hasRole(INVESTIGATOR, msg.sender),\n            \"Only investigators can add patients to protocols\"\n        );\n        require(\n            protocols[_protocolID].authorized == true,\n            \"This protocol has not been authorized yet\"\n        );\n        require(\n            msg.sender == protocols[_protocolID].investigator,\n            \"You do not have right to add patients to this protocol\"\n        );\n        //require(_patientAddress != protocols[_protocolID].patient, \"This patient already exist\");\n\n        patients[_patientID].consent = true;\n        patients[_patientID].patient = _patientAddress;\n        patients[_patientID].investigator = msg.sender;\n        patients[_patientID].protocolID = _protocolID;\n        protocols[_protocolID].nbOfPatients++;\n\n        emit patientAdded(_patientID, _protocolID);\n    }\n\n    function giveConsent(string memory _patientID) public {\n        require(\n            msg.sender == patients[_patientID].patient,\n            \"Your ID is not correct\"\n        );\n        require(\n            patients[_patientID].consent == false,\n            \"You did not consent yet\"\n        );\n\n        patients[_patientID].consent == true;\n\n        emit consentGiven(_patientID);\n    }\n\n    function revokeConsent(string memory _patientID) public {\n        require(\n            msg.sender == patients[_patientID].patient,\n            \"Your ID is not correct\"\n        );\n        require(\n            patients[_patientID].consent == true,\n            \"You already revoke your consent\"\n        );\n\n        patients[_patientID].consent == false;\n        delete patients[_patientID];\n\n        emit consentRevoked(_patientID);\n    }\n\n    function suspendTrials(string memory _protocolID) public {\n        require(\n            hasRole(AUTHORITY, msg.sender),\n            \"Only authoriities can suspend trials\"\n        );\n        require(protocols[_protocolID].authorized);\n\n        protocols[_protocolID].authorized = false;\n        protocols[_protocolID].status = \"suspended\";\n\n        emit protocolSuspended(_protocolID);\n    }\n\n    function resumeTrials(string memory _protocolID) public {\n        require(\n            hasRole(AUTHORITY, msg.sender),\n            \"Only authoriities can suspend trials\"\n        );\n        require(!protocols[_protocolID].authorized);\n\n        protocols[_protocolID].authorized = true;\n        protocols[_protocolID].status = \"resumed\";\n\n        emit protocolResumed(_protocolID);\n    }\n\n    function storeDataCID(string memory _patientID, string memory _cid) public {\n        require(\n            hasRole(INVESTIGATOR, msg.sender),\n            \"Only investigators can collect data\"\n        );\n        require(\n            msg.sender == patients[_patientID].investigator,\n            \"You do not have right for this patient\"\n        );\n        require(\n            patients[_patientID].consent == true,\n            \"Get the patient consent first\"\n        );\n\n        patients[_patientID].cids.push(_cid);\n\n        emit cidSaved(_cid);\n    }\n\n    function getDataCID(string memory _patientID)\n        public\n        view\n        returns (string[] memory)\n    {\n        require(\n            hasRole(INVESTIGATOR, msg.sender),\n            \"Only investigators can collect data\"\n        );\n        require(\n            msg.sender == patients[_patientID].investigator,\n            \"You do not have right for this patient\"\n        );\n        require(\n            patients[_patientID].consent == true,\n            \"Get the patient consent first\"\n        );\n\n        return patients[_patientID].cids;\n    }\n\n    function getProtocolStatus(string memory _protocolID)\n        public\n        view\n        returns (string memory)\n    {\n        return protocols[_protocolID].status;\n    }\n\n    function numberOfPatientByProtocol(string memory _protocolID)\n        public\n        view\n        returns (uint256)\n    {\n        return protocols[_protocolID].nbOfPatients;\n    }\n\n    function getRole(address _address) public view returns (string memory) {\n        return roles[_address];\n    }\n\n    function getProtocoleNumerotation(\n        string memory center,\n        string memory category\n    ) public view returns (uint256) {\n        return protocolNumerotation[center][category] + 1;\n    }\n}\n",
  "sourcePath": "/Users/samuel/Documents/Projet/Pojet_Dev/MedTrials/contracts/MedTrials.sol",
  "compiler": {
    "name": "solc",
    "version": "0.8.0+commit.c7dfd78e.Emscripten.clang"
  },
  "schemaVersion": "3.3.4",
  "updatedAt": "2021-05-04T23:53:11.783Z",
  "networkType": "ethereum",
  "devdoc": {
    "kind": "dev",
    "methods": {
      "getRoleAdmin(bytes32)": {
        "details": "Returns the admin role that controls `role`. See {grantRole} and {revokeRole}. To change a role's admin, use {_setRoleAdmin}."
      },
      "grantRole(bytes32,address)": {
        "details": "Grants `role` to `account`. If `account` had not been already granted `role`, emits a {RoleGranted} event. Requirements: - the caller must have ``role``'s admin role."
      },
      "hasRole(bytes32,address)": {
        "details": "Returns `true` if `account` has been granted `role`."
      },
      "renounceRole(bytes32,address)": {
        "details": "Revokes `role` from the calling account. Roles are often managed via {grantRole} and {revokeRole}: this function's purpose is to provide a mechanism for accounts to lose their privileges if they are compromised (such as when a trusted device is misplaced). If the calling account had been granted `role`, emits a {RoleRevoked} event. Requirements: - the caller must be `account`."
      },
      "revokeRole(bytes32,address)": {
        "details": "Revokes `role` from `account`. If `account` had been granted `role`, emits a {RoleRevoked} event. Requirements: - the caller must have ``role``'s admin role."
      },
      "supportsInterface(bytes4)": {
        "details": "See {IERC165-supportsInterface}."
      }
    },
    "version": 1
  },
  "userdoc": {
    "kind": "user",
    "methods": {},
    "version": 1
  }
}