{
  "contractName": "MedTrials",
  "abi": [
    {
      "inputs": [
        {
          "internalType": "address",
          "name": "_default_admin",
          "type": "address"
        },
        {
          "internalType": "address",
          "name": "_authorityAdmin",
          "type": "address"
        },
        {
          "internalType": "address",
          "name": "_promotorAdmin",
          "type": "address"
        }
      ],
      "stateMutability": "nonpayable",
      "type": "constructor"
    },
    {
      "anonymous": false,
      "inputs": [
        {
          "indexed": true,
          "internalType": "bytes32",
          "name": "role",
          "type": "bytes32"
        },
        {
          "indexed": true,
          "internalType": "bytes32",
          "name": "previousAdminRole",
          "type": "bytes32"
        },
        {
          "indexed": true,
          "internalType": "bytes32",
          "name": "newAdminRole",
          "type": "bytes32"
        }
      ],
      "name": "RoleAdminChanged",
      "type": "event"
    },
    {
      "anonymous": false,
      "inputs": [
        {
          "indexed": true,
          "internalType": "bytes32",
          "name": "role",
          "type": "bytes32"
        },
        {
          "indexed": true,
          "internalType": "address",
          "name": "account",
          "type": "address"
        },
        {
          "indexed": true,
          "internalType": "address",
          "name": "sender",
          "type": "address"
        }
      ],
      "name": "RoleGranted",
      "type": "event"
    },
    {
      "anonymous": false,
      "inputs": [
        {
          "indexed": true,
          "internalType": "bytes32",
          "name": "role",
          "type": "bytes32"
        },
        {
          "indexed": true,
          "internalType": "address",
          "name": "account",
          "type": "address"
        },
        {
          "indexed": true,
          "internalType": "address",
          "name": "sender",
          "type": "address"
        }
      ],
      "name": "RoleRevoked",
      "type": "event"
    },
    {
      "anonymous": false,
      "inputs": [
        {
          "indexed": false,
          "internalType": "address",
          "name": "_address",
          "type": "address"
        }
      ],
      "name": "authorityAdded",
      "type": "event"
    },
    {
      "anonymous": false,
      "inputs": [
        {
          "indexed": false,
          "internalType": "string",
          "name": "_cid",
          "type": "string"
        }
      ],
      "name": "cidSaved",
      "type": "event"
    },
    {
      "anonymous": false,
      "inputs": [
        {
          "indexed": false,
          "internalType": "string",
          "name": "_patientID",
          "type": "string"
        }
      ],
      "name": "consentGiven",
      "type": "event"
    },
    {
      "anonymous": false,
      "inputs": [
        {
          "indexed": false,
          "internalType": "string",
          "name": "_patientID",
          "type": "string"
        }
      ],
      "name": "consentRevoked",
      "type": "event"
    },
    {
      "anonymous": false,
      "inputs": [
        {
          "indexed": false,
          "internalType": "address",
          "name": "_address",
          "type": "address"
        }
      ],
      "name": "investigatorAdded",
      "type": "event"
    },
    {
      "anonymous": false,
      "inputs": [
        {
          "indexed": false,
          "internalType": "string",
          "name": "_id",
          "type": "string"
        },
        {
          "indexed": false,
          "internalType": "address",
          "name": "_promotor",
          "type": "address"
        },
        {
          "indexed": false,
          "internalType": "address",
          "name": "_investigator",
          "type": "address"
        }
      ],
      "name": "newProtocol",
      "type": "event"
    },
    {
      "anonymous": false,
      "inputs": [
        {
          "indexed": false,
          "internalType": "string",
          "name": "_patientID",
          "type": "string"
        },
        {
          "indexed": false,
          "internalType": "string",
          "name": "_protocolID",
          "type": "string"
        }
      ],
      "name": "patientAdded",
      "type": "event"
    },
    {
      "anonymous": false,
      "inputs": [
        {
          "indexed": false,
          "internalType": "address",
          "name": "_address",
          "type": "address"
        }
      ],
      "name": "promoterAdded",
      "type": "event"
    },
    {
      "anonymous": false,
      "inputs": [
        {
          "indexed": false,
          "internalType": "string",
          "name": "_protocolID",
          "type": "string"
        }
      ],
      "name": "protocolResumed",
      "type": "event"
    },
    {
      "anonymous": false,
      "inputs": [
        {
          "indexed": false,
          "internalType": "string",
          "name": "_protocolID",
          "type": "string"
        }
      ],
      "name": "protocolSuspended",
      "type": "event"
    },
    {
      "anonymous": false,
      "inputs": [
        {
          "indexed": false,
          "internalType": "string",
          "name": "_id",
          "type": "string"
        }
      ],
      "name": "protocolValidated",
      "type": "event"
    },
    {
      "inputs": [],
      "name": "AUTHORITY",
      "outputs": [
        {
          "internalType": "bytes32",
          "name": "",
          "type": "bytes32"
        }
      ],
      "stateMutability": "view",
      "type": "function",
      "constant": true
    },
    {
      "inputs": [],
      "name": "AUTHORITY_ADMIN",
      "outputs": [
        {
          "internalType": "bytes32",
          "name": "",
          "type": "bytes32"
        }
      ],
      "stateMutability": "view",
      "type": "function",
      "constant": true
    },
    {
      "inputs": [],
      "name": "DEFAULT_ADMIN_ROLE",
      "outputs": [
        {
          "internalType": "bytes32",
          "name": "",
          "type": "bytes32"
        }
      ],
      "stateMutability": "view",
      "type": "function",
      "constant": true
    },
    {
      "inputs": [],
      "name": "INVESTIGATOR",
      "outputs": [
        {
          "internalType": "bytes32",
          "name": "",
          "type": "bytes32"
        }
      ],
      "stateMutability": "view",
      "type": "function",
      "constant": true
    },
    {
      "inputs": [],
      "name": "PATIENT",
      "outputs": [
        {
          "internalType": "bytes32",
          "name": "",
          "type": "bytes32"
        }
      ],
      "stateMutability": "view",
      "type": "function",
      "constant": true
    },
    {
      "inputs": [],
      "name": "PROMOTER",
      "outputs": [
        {
          "internalType": "bytes32",
          "name": "",
          "type": "bytes32"
        }
      ],
      "stateMutability": "view",
      "type": "function",
      "constant": true
    },
    {
      "inputs": [],
      "name": "PROMOTER_ADMIN",
      "outputs": [
        {
          "internalType": "bytes32",
          "name": "",
          "type": "bytes32"
        }
      ],
      "stateMutability": "view",
      "type": "function",
      "constant": true
    },
    {
      "inputs": [
        {
          "internalType": "uint256",
          "name": "",
          "type": "uint256"
        }
      ],
      "name": "authorities",
      "outputs": [
        {
          "internalType": "address",
          "name": "authority",
          "type": "address"
        },
        {
          "internalType": "string",
          "name": "cid",
          "type": "string"
        }
      ],
      "stateMutability": "view",
      "type": "function",
      "constant": true
    },
    {
      "inputs": [
        {
          "internalType": "bytes32",
          "name": "role",
          "type": "bytes32"
        }
      ],
      "name": "getRoleAdmin",
      "outputs": [
        {
          "internalType": "bytes32",
          "name": "",
          "type": "bytes32"
        }
      ],
      "stateMutability": "view",
      "type": "function",
      "constant": true
    },
    {
      "inputs": [
        {
          "internalType": "bytes32",
          "name": "role",
          "type": "bytes32"
        },
        {
          "internalType": "address",
          "name": "account",
          "type": "address"
        }
      ],
      "name": "grantRole",
      "outputs": [],
      "stateMutability": "nonpayable",
      "type": "function"
    },
    {
      "inputs": [
        {
          "internalType": "bytes32",
          "name": "role",
          "type": "bytes32"
        },
        {
          "internalType": "address",
          "name": "account",
          "type": "address"
        }
      ],
      "name": "hasRole",
      "outputs": [
        {
          "internalType": "bool",
          "name": "",
          "type": "bool"
        }
      ],
      "stateMutability": "view",
      "type": "function",
      "constant": true
    },
    {
      "inputs": [
        {
          "internalType": "uint256",
          "name": "",
          "type": "uint256"
        }
      ],
      "name": "investigators",
      "outputs": [
        {
          "internalType": "address",
          "name": "promoter",
          "type": "address"
        },
        {
          "internalType": "address",
          "name": "investigator",
          "type": "address"
        },
        {
          "internalType": "string",
          "name": "cid",
          "type": "string"
        }
      ],
      "stateMutability": "view",
      "type": "function",
      "constant": true
    },
    {
      "inputs": [],
      "name": "nbOfAuthorities",
      "outputs": [
        {
          "internalType": "uint256",
          "name": "",
          "type": "uint256"
        }
      ],
      "stateMutability": "view",
      "type": "function",
      "constant": true
    },
    {
      "inputs": [],
      "name": "nbOfInvestigators",
      "outputs": [
        {
          "internalType": "uint256",
          "name": "",
          "type": "uint256"
        }
      ],
      "stateMutability": "view",
      "type": "function",
      "constant": true
    },
    {
      "inputs": [],
      "name": "nbOfPatients",
      "outputs": [
        {
          "internalType": "uint256",
          "name": "",
          "type": "uint256"
        }
      ],
      "stateMutability": "view",
      "type": "function",
      "constant": true
    },
    {
      "inputs": [],
      "name": "nbOfPromoters",
      "outputs": [
        {
          "internalType": "uint256",
          "name": "",
          "type": "uint256"
        }
      ],
      "stateMutability": "view",
      "type": "function",
      "constant": true
    },
    {
      "inputs": [],
      "name": "nbOfProtocolsRegistered",
      "outputs": [
        {
          "internalType": "uint256",
          "name": "",
          "type": "uint256"
        }
      ],
      "stateMutability": "view",
      "type": "function",
      "constant": true
    },
    {
      "inputs": [
        {
          "internalType": "string",
          "name": "",
          "type": "string"
        }
      ],
      "name": "patients",
      "outputs": [
        {
          "internalType": "address",
          "name": "patient",
          "type": "address"
        },
        {
          "internalType": "address",
          "name": "investigator",
          "type": "address"
        },
        {
          "internalType": "string",
          "name": "protocolID",
          "type": "string"
        },
        {
          "internalType": "bool",
          "name": "consent",
          "type": "bool"
        }
      ],
      "stateMutability": "view",
      "type": "function",
      "constant": true
    },
    {
      "inputs": [
        {
          "internalType": "uint256",
          "name": "",
          "type": "uint256"
        }
      ],
      "name": "promoters",
      "outputs": [
        {
          "internalType": "address",
          "name": "promoter",
          "type": "address"
        },
        {
          "internalType": "string",
          "name": "cid",
          "type": "string"
        }
      ],
      "stateMutability": "view",
      "type": "function",
      "constant": true
    },
    {
      "inputs": [
        {
          "internalType": "string",
          "name": "",
          "type": "string"
        }
      ],
      "name": "protocols",
      "outputs": [
        {
          "internalType": "string",
          "name": "cid",
          "type": "string"
        },
        {
          "internalType": "address",
          "name": "promoter",
          "type": "address"
        },
        {
          "internalType": "string",
          "name": "status",
          "type": "string"
        },
        {
          "internalType": "address",
          "name": "investigator",
          "type": "address"
        },
        {
          "internalType": "bool",
          "name": "registered",
          "type": "bool"
        },
        {
          "internalType": "bool",
          "name": "authorized",
          "type": "bool"
        },
        {
          "internalType": "uint256",
          "name": "nbOfPatients",
          "type": "uint256"
        },
        {
          "internalType": "uint256",
          "name": "index",
          "type": "uint256"
        }
      ],
      "stateMutability": "view",
      "type": "function",
      "constant": true
    },
    {
      "inputs": [
        {
          "internalType": "uint256",
          "name": "",
          "type": "uint256"
        }
      ],
      "name": "protocolsID",
      "outputs": [
        {
          "internalType": "string",
          "name": "",
          "type": "string"
        }
      ],
      "stateMutability": "view",
      "type": "function",
      "constant": true
    },
    {
      "inputs": [
        {
          "internalType": "bytes32",
          "name": "role",
          "type": "bytes32"
        },
        {
          "internalType": "address",
          "name": "account",
          "type": "address"
        }
      ],
      "name": "renounceRole",
      "outputs": [],
      "stateMutability": "nonpayable",
      "type": "function"
    },
    {
      "inputs": [
        {
          "internalType": "bytes32",
          "name": "role",
          "type": "bytes32"
        },
        {
          "internalType": "address",
          "name": "account",
          "type": "address"
        }
      ],
      "name": "revokeRole",
      "outputs": [],
      "stateMutability": "nonpayable",
      "type": "function"
    },
    {
      "inputs": [
        {
          "internalType": "bytes4",
          "name": "interfaceId",
          "type": "bytes4"
        }
      ],
      "name": "supportsInterface",
      "outputs": [
        {
          "internalType": "bool",
          "name": "",
          "type": "bool"
        }
      ],
      "stateMutability": "view",
      "type": "function",
      "constant": true
    },
    {
      "inputs": [
        {
          "internalType": "address",
          "name": "_address",
          "type": "address"
        },
        {
          "internalType": "string",
          "name": "_cid",
          "type": "string"
        }
      ],
      "name": "addAuthority",
      "outputs": [],
      "stateMutability": "nonpayable",
      "type": "function"
    },
    {
      "inputs": [
        {
          "internalType": "address",
          "name": "_address",
          "type": "address"
        },
        {
          "internalType": "string",
          "name": "_cid",
          "type": "string"
        }
      ],
      "name": "addPromoter",
      "outputs": [],
      "stateMutability": "nonpayable",
      "type": "function"
    },
    {
      "inputs": [
        {
          "internalType": "address",
          "name": "_address",
          "type": "address"
        },
        {
          "internalType": "string",
          "name": "_cid",
          "type": "string"
        }
      ],
      "name": "addInvestigator",
      "outputs": [],
      "stateMutability": "nonpayable",
      "type": "function"
    },
    {
      "inputs": [
        {
          "internalType": "string",
          "name": "_id",
          "type": "string"
        },
        {
          "internalType": "string",
          "name": "_cid",
          "type": "string"
        },
        {
          "internalType": "string",
          "name": "center",
          "type": "string"
        },
        {
          "internalType": "string",
          "name": "category",
          "type": "string"
        },
        {
          "internalType": "address",
          "name": "_investigator",
          "type": "address"
        }
      ],
      "name": "registerProtocol",
      "outputs": [],
      "stateMutability": "nonpayable",
      "type": "function"
    },
    {
      "inputs": [
        {
          "internalType": "string",
          "name": "_id",
          "type": "string"
        }
      ],
      "name": "getProtocolCID",
      "outputs": [
        {
          "internalType": "string",
          "name": "",
          "type": "string"
        }
      ],
      "stateMutability": "view",
      "type": "function",
      "constant": true
    },
    {
      "inputs": [
        {
          "internalType": "string",
          "name": "_id",
          "type": "string"
        }
      ],
      "name": "validateProtocol",
      "outputs": [],
      "stateMutability": "nonpayable",
      "type": "function"
    },
    {
      "inputs": [
        {
          "internalType": "string",
          "name": "_id",
          "type": "string"
        }
      ],
      "name": "getProtocol",
      "outputs": [
        {
          "components": [
            {
              "internalType": "string",
              "name": "cid",
              "type": "string"
            },
            {
              "internalType": "address",
              "name": "promoter",
              "type": "address"
            },
            {
              "internalType": "string",
              "name": "status",
              "type": "string"
            },
            {
              "internalType": "address",
              "name": "investigator",
              "type": "address"
            },
            {
              "internalType": "bool",
              "name": "registered",
              "type": "bool"
            },
            {
              "internalType": "bool",
              "name": "authorized",
              "type": "bool"
            },
            {
              "internalType": "uint256",
              "name": "nbOfPatients",
              "type": "uint256"
            },
            {
              "internalType": "uint256",
              "name": "index",
              "type": "uint256"
            }
          ],
          "internalType": "struct MedTrials.Protocol",
          "name": "",
          "type": "tuple"
        }
      ],
      "stateMutability": "view",
      "type": "function",
      "constant": true
    },
    {
      "inputs": [
        {
          "internalType": "string",
          "name": "_cid",
          "type": "string"
        },
        {
          "internalType": "string",
          "name": "_patientID",
          "type": "string"
        },
        {
          "internalType": "string",
          "name": "_protocolID",
          "type": "string"
        },
        {
          "internalType": "address",
          "name": "_patientAddress",
          "type": "address"
        }
      ],
      "name": "addPatient",
      "outputs": [],
      "stateMutability": "nonpayable",
      "type": "function"
    },
    {
      "inputs": [
        {
          "internalType": "string",
          "name": "_patientID",
          "type": "string"
        }
      ],
      "name": "revokeConsent",
      "outputs": [],
      "stateMutability": "nonpayable",
      "type": "function"
    },
    {
      "inputs": [
        {
          "internalType": "string",
          "name": "_protocolID",
          "type": "string"
        }
      ],
      "name": "suspendTrials",
      "outputs": [],
      "stateMutability": "nonpayable",
      "type": "function"
    },
    {
      "inputs": [
        {
          "internalType": "string",
          "name": "_protocolID",
          "type": "string"
        }
      ],
      "name": "resumeTrials",
      "outputs": [],
      "stateMutability": "nonpayable",
      "type": "function"
    },
    {
      "inputs": [
        {
          "internalType": "string",
          "name": "_patientID",
          "type": "string"
        },
        {
          "internalType": "string",
          "name": "_cid",
          "type": "string"
        }
      ],
      "name": "storeDataCID",
      "outputs": [],
      "stateMutability": "nonpayable",
      "type": "function"
    },
    {
      "inputs": [
        {
          "internalType": "string",
          "name": "_patientID",
          "type": "string"
        }
      ],
      "name": "getDataCID",
      "outputs": [
        {
          "internalType": "string[]",
          "name": "",
          "type": "string[]"
        }
      ],
      "stateMutability": "view",
      "type": "function",
      "constant": true
    },
    {
      "inputs": [
        {
          "internalType": "string",
          "name": "_protocolID",
          "type": "string"
        }
      ],
      "name": "getProtocolStatus",
      "outputs": [
        {
          "internalType": "string",
          "name": "",
          "type": "string"
        }
      ],
      "stateMutability": "view",
      "type": "function",
      "constant": true
    },
    {
      "inputs": [
        {
          "internalType": "string",
          "name": "_protocolID",
          "type": "string"
        }
      ],
      "name": "numberOfPatientByProtocol",
      "outputs": [
        {
          "internalType": "uint256",
          "name": "",
          "type": "uint256"
        }
      ],
      "stateMutability": "view",
      "type": "function",
      "constant": true
    },
    {
      "inputs": [
        {
          "internalType": "address",
          "name": "_address",
          "type": "address"
        }
      ],
      "name": "getRole",
      "outputs": [
        {
          "internalType": "string",
          "name": "",
          "type": "string"
        }
      ],
      "stateMutability": "view",
      "type": "function",
      "constant": true
    },
    {
      "inputs": [
        {
          "internalType": "string",
          "name": "center",
          "type": "string"
        },
        {
          "internalType": "string",
          "name": "category",
          "type": "string"
        }
      ],
      "name": "getProtocoleNumerotation",
      "outputs": [
        {
          "internalType": "uint256",
          "name": "",
          "type": "uint256"
        }
      ],
      "stateMutability": "view",
      "type": "function",
      "constant": true
    },
    {
      "inputs": [
        {
          "internalType": "string",
          "name": "_protocolID",
          "type": "string"
        }
      ],
      "name": "getPatientNumerotation",
      "outputs": [
        {
          "internalType": "uint256",
          "name": "",
          "type": "uint256"
        }
      ],
      "stateMutability": "view",
      "type": "function",
      "constant": true
    }
  ],
  "bytecode": "0x60806040523480156200001157600080fd5b506040516200684c3803806200684c8339818101604052810190620000379190620007da565b6200004c6000801b846200039660201b60201c565b620000817f3e206be88d1de4207c0189003e17add3718b1a1bf78910a785940577239bbdae6000801b620003ac60201b60201c565b620000d37f843b48dccc6ff192f9330133622b0536f7b94feca0cf36e7e46fc50060b6f8827f3e206be88d1de4207c0189003e17add3718b1a1bf78910a785940577239bbdae620003ac60201b60201c565b620001087f47a6ab365f603cf120cb936195de17fd0bac3880ff606e7a0edb5e8e6580b1ae6000801b620003ac60201b60201c565b6200015a7f0996d044c7309cb5a01d79c18ee9e4c86aca84367cbd5bfd5f5d0606acc992737f47a6ab365f603cf120cb936195de17fd0bac3880ff606e7a0edb5e8e6580b1ae620003ac60201b60201c565b620001ac7f97f21e7273917267af1fea4c3510695aa29abe57349ce57ceec11b34688318037f0996d044c7309cb5a01d79c18ee9e4c86aca84367cbd5bfd5f5d0606acc99273620003ac60201b60201c565b620001fe7fe5786ee6f50ab1a5567cb3f3f6840a2f4ddbafdf4a35cb2c52d5b732b1e84a327f97f21e7273917267af1fea4c3510695aa29abe57349ce57ceec11b3468831803620003ac60201b60201c565b620002307f3e206be88d1de4207c0189003e17add3718b1a1bf78910a785940577239bbdae836200039660201b60201c565b620002627f47a6ab365f603cf120cb936195de17fd0bac3880ff606e7a0edb5e8e6580b1ae826200039660201b60201c565b620002776000801b846200040960201b60201c565b6040518060400160405280600f81526020017f415554484f524954592041444d494e0000000000000000000000000000000000815250600760008473ffffffffffffffffffffffffffffffffffffffff1673ffffffffffffffffffffffffffffffffffffffff16815260200190815260200160002090805190602001906200030192919062000713565b506040518060400160405280600e81526020017f50524f4d4f5445522041444d494e000000000000000000000000000000000000815250600760008373ffffffffffffffffffffffffffffffffffffffff1673ffffffffffffffffffffffffffffffffffffffff16815260200190815260200160002090805190602001906200038c92919062000713565b505050506200097e565b620003a882826200049f60201b60201c565b5050565b80620003be836200059060201b60201c565b837fbd79b86ffe0ab8e8776151514217cd7cacd52c909f66475c3af44e129f0b00ff60405160405180910390a480600080848152602001908152602001600020600101819055505050565b62000419620005af60201b60201c565b73ffffffffffffffffffffffffffffffffffffffff168173ffffffffffffffffffffffffffffffffffffffff161462000489576040517f08c379a0000000000000000000000000000000000000000000000000000000008152600401620004809062000898565b60405180910390fd5b6200049b8282620005b760201b60201c565b5050565b620004b18282620006a960201b60201c565b6200058c57600160008084815260200190815260200160002060000160008373ffffffffffffffffffffffffffffffffffffffff1673ffffffffffffffffffffffffffffffffffffffff16815260200190815260200160002060006101000a81548160ff02191690831515021790555062000531620005af60201b60201c565b73ffffffffffffffffffffffffffffffffffffffff168173ffffffffffffffffffffffffffffffffffffffff16837f2f8788117e7eff1d82e926ec794901d17c78024a50270940304540a733656f0d60405160405180910390a45b5050565b6000806000838152602001908152602001600020600101549050919050565b600033905090565b620005c98282620006a960201b60201c565b15620006a557600080600084815260200190815260200160002060000160008373ffffffffffffffffffffffffffffffffffffffff1673ffffffffffffffffffffffffffffffffffffffff16815260200190815260200160002060006101000a81548160ff0219169083151502179055506200064a620005af60201b60201c565b73ffffffffffffffffffffffffffffffffffffffff168173ffffffffffffffffffffffffffffffffffffffff16837ff6391f5c32d9c69d2a47ea670b442974b53935d1edc7fd64eb21e047a839171b60405160405180910390a45b5050565b600080600084815260200190815260200160002060000160008373ffffffffffffffffffffffffffffffffffffffff1673ffffffffffffffffffffffffffffffffffffffff16815260200190815260200160002060009054906101000a900460ff16905092915050565b8280546200072190620008ff565b90600052602060002090601f01602090048101928262000745576000855562000791565b82601f106200076057805160ff191683800117855562000791565b8280016001018555821562000791579182015b828111156200079057825182559160200191906001019062000773565b5b509050620007a09190620007a4565b5090565b5b80821115620007bf576000816000905550600101620007a5565b5090565b600081519050620007d48162000964565b92915050565b600080600060608486031215620007f057600080fd5b60006200080086828701620007c3565b93505060206200081386828701620007c3565b92505060406200082686828701620007c3565b9150509250925092565b60006200083f602f83620008ba565b91507f416363657373436f6e74726f6c3a2063616e206f6e6c792072656e6f756e636560008301527f20726f6c657320666f722073656c6600000000000000000000000000000000006020830152604082019050919050565b60006020820190508181036000830152620008b38162000830565b9050919050565b600082825260208201905092915050565b6000620008d882620008df565b9050919050565b600073ffffffffffffffffffffffffffffffffffffffff82169050919050565b600060028204905060018216806200091857607f821691505b602082108114156200092f576200092e62000935565b5b50919050565b7f4e487b7100000000000000000000000000000000000000000000000000000000600052602260045260246000fd5b6200096f81620008cb565b81146200097b57600080fd5b50565b615ebe806200098e6000396000f3fe608060405234801561001057600080fd5b506004361061025e5760003560e01c8063834afa8111610146578063cb39dce5116100c3578063e1d862d911610087578063e1d862d91461079b578063eb3b0fc8146107b9578063ebc48391146107eb578063ec9f4bda14610809578063f7f093b614610827578063fad4fcc7146108575761025e565b8063cb39dce5146106e5578063cd5c3b2b14610701578063cf2a9a9314610731578063d547741f1461074f578063d751b1501461076b5761025e565b8063a24d96581161010a578063a24d96581461062a578063b62f9c7414610646578063c1bd2c2014610664578063c4f3983014610682578063c6009d84146106b25761025e565b8063834afa811461058457806389fcd796146105a257806391d14854146105c0578063a1a8316b146105f0578063a217fddf1461060c5761025e565b80633ca1d75f116101df578063494503d4116101a3578063494503d41461049d578063591fe6da146104ce5780635e49bdaf146104ec5780637992fd37146105085780637ba3ae71146105245780637beb4107146105545761025e565b80633ca1d75f146103c05780633f0bee32146103dc57806343913c5b1461040d578063442767331461043d578063484ed33e1461046d5761025e565b80632de6388f116102265780632de6388f146103345780632f2ff15d146103505780632f77e62f1461036c57806336568abe14610388578063393618a7146103a45761025e565b806301ffc9a71461026357806309c1ce8b146102935780631dae9454146102af5780631f500061146102e6578063248a9ca314610304575b600080fd5b61027d600480360381019061027891906141fe565b610875565b60405161028a91906154f5565b60405180910390f35b6102ad60048036038101906102a8919061437f565b6108ef565b005b6102c960048036038101906102c49190614227565b610e6e565b6040516102dd98979695949392919061558b565b60405180910390f35b6102ee611036565b6040516102fb9190615510565b60405180910390f35b61031e60048036038101906103199190614199565b61105a565b60405161032b9190615510565b60405180910390f35b61034e60048036038101906103499190614227565b611079565b005b61036a600480360381019061036591906141c2565b6111f9565b005b61038660048036038101906103819190614227565b61125f565b005b6103a2600480360381019061039d91906141c2565b6113df565b005b6103be60048036038101906103b99190614145565b611462565b005b6103da60048036038101906103d59190614145565b611867565b005b6103f660048036038101906103f19190614456565b611c6c565b6040516104049291906154a3565b60405180910390f35b61042760048036038101906104229190614227565b611d38565b6040516104349190615b10565b60405180910390f35b6104576004803603810190610452919061411c565b611da9565b604051610464919061552b565b60405180910390f35b61048760048036038101906104829190614227565b611e7a565b6040516104949190615b10565b60405180910390f35b6104b760048036038101906104b29190614456565b611ea5565b6040516104c59291906154a3565b60405180910390f35b6104d6611f71565b6040516104e39190615510565b60405180910390f35b61050660048036038101906105019190614145565b611f95565b005b610522600480360381019061051d91906142d4565b6123f1565b005b61053e60048036038101906105399190614227565b6128a3565b60405161054b919061552b565b60405180910390f35b61056e60048036038101906105699190614227565b612b84565b60405161057b9190615aee565b60405180910390f35b61058c612ec1565b6040516105999190615b10565b60405180910390f35b6105aa612ec7565b6040516105b79190615510565b60405180910390f35b6105da60048036038101906105d591906141c2565b612eeb565b6040516105e791906154f5565b60405180910390f35b61060a60048036038101906106059190614227565b612f55565b005b610614613111565b6040516106219190615510565b60405180910390f35b610644600480360381019061063f9190614227565b613118565b005b61064e61334b565b60405161065b9190615b10565b60405180910390f35b61066c613351565b6040516106799190615510565b60405180910390f35b61069c60048036038101906106979190614268565b613375565b6040516106a99190615b10565b60405180910390f35b6106cc60048036038101906106c79190614227565b6133c6565b6040516106dc9493929190615457565b60405180910390f35b6106ff60048036038101906106fa9190614268565b6134e1565b005b61071b60048036038101906107169190614456565b613704565b604051610728919061552b565b60405180910390f35b6107396137a4565b6040516107469190615510565b60405180910390f35b610769600480360381019061076491906141c2565b6137c8565b005b61078560048036038101906107809190614227565b61382e565b604051610792919061552b565b60405180910390f35b6107a36138e1565b6040516107b09190615b10565b60405180910390f35b6107d360048036038101906107ce9190614456565b6138e7565b6040516107e293929190615419565b60405180910390f35b6107f36139d9565b6040516108009190615b10565b60405180910390f35b6108116139df565b60405161081e9190615510565b60405180910390f35b610841600480360381019061083c9190614227565b613a03565b60405161084e91906154d3565b60405180910390f35b61085f613c8a565b60405161086c9190615b10565b60405180910390f35b60007f7965db0b000000000000000000000000000000000000000000000000000000007bffffffffffffffffffffffffffffffffffffffffffffffffffffffff1916827bffffffffffffffffffffffffffffffffffffffffffffffffffffffff191614806108e857506108e782613c90565b5b9050919050565b6109197f0996d044c7309cb5a01d79c18ee9e4c86aca84367cbd5bfd5f5d0606acc9927333612eeb565b610958576040517f08c379a000000000000000000000000000000000000000000000000000000000815260040161094f9061586e565b60405180910390fd5b6109827f0996d044c7309cb5a01d79c18ee9e4c86aca84367cbd5bfd5f5d0606acc9927382612eeb565b156109c2576040517f08c379a00000000000000000000000000000000000000000000000000000000081526004016109b99061592e565b60405180910390fd5b6109ec7f843b48dccc6ff192f9330133622b0536f7b94feca0cf36e7e46fc50060b6f88282612eeb565b15610a2c576040517f08c379a0000000000000000000000000000000000000000000000000000000008152600401610a23906159ae565b60405180910390fd5b610a567f47a6ab365f603cf120cb936195de17fd0bac3880ff606e7a0edb5e8e6580b1ae82612eeb565b15610a96576040517f08c379a0000000000000000000000000000000000000000000000000000000008152600401610a8d9061572e565b60405180910390fd5b610ac07f3e206be88d1de4207c0189003e17add3718b1a1bf78910a785940577239bbdae82612eeb565b15610b00576040517f08c379a0000000000000000000000000000000000000000000000000000000008152600401610af7906157ce565b60405180910390fd5b610b2a7f97f21e7273917267af1fea4c3510695aa29abe57349ce57ceec11b346883180382612eeb565b610b69576040517f08c379a0000000000000000000000000000000000000000000000000000000008152600401610b60906158ee565b60405180910390fd5b600185604051610b7991906153e7565b908152602001604051809103902060030160149054906101000a900460ff1615610bd8576040517f08c379a0000000000000000000000000000000000000000000000000000000008152600401610bcf9061598e565b60405180910390fd5b33600186604051610be991906153e7565b908152602001604051809103902060010160006101000a81548173ffffffffffffffffffffffffffffffffffffffff021916908373ffffffffffffffffffffffffffffffffffffffff16021790555080600186604051610c4991906153e7565b908152602001604051809103902060030160006101000a81548173ffffffffffffffffffffffffffffffffffffffff021916908373ffffffffffffffffffffffffffffffffffffffff16021790555060018086604051610ca991906153e7565b908152602001604051809103902060030160146101000a81548160ff02191690831515021790555083600186604051610ce291906153e7565b90815260200160405180910390206000019080519060200190610d06929190613ec3565b506040518060400160405280600a81526020017f7265676973746572656400000000000000000000000000000000000000000000815250600186604051610d4d91906153e7565b90815260200160405180910390206002019080519060200190610d71929190613ec3565b50600a54600186604051610d8591906153e7565b9081526020016040518091039020600501819055508460036000600a5481526020019081526020016000209080519060200190610dc3929190613ec3565b50600a6000815480929190610dd790615d45565b9190505550600883604051610dec91906153e7565b908152602001604051809103902082604051610e0891906153e7565b90815260200160405180910390206000815480929190610e2790615d45565b91905055507fff88452d1e63b10e4f05e166bed6696de7594668e0e30daf24839937a0a27fee853383604051610e5f9392919061554d565b60405180910390a15050505050565b600181805160208101820180518482526020830160208501208183528095505050505050600091509050806000018054610ea790615d13565b80601f0160208091040260200160405190810160405280929190818152602001828054610ed390615d13565b8015610f205780601f10610ef557610100808354040283529160200191610f20565b820191906000526020600020905b815481529060010190602001808311610f0357829003601f168201915b5050505050908060010160009054906101000a900473ffffffffffffffffffffffffffffffffffffffff1690806002018054610f5b90615d13565b80601f0160208091040260200160405190810160405280929190818152602001828054610f8790615d13565b8015610fd45780601f10610fa957610100808354040283529160200191610fd4565b820191906000526020600020905b815481529060010190602001808311610fb757829003601f168201915b5050505050908060030160009054906101000a900473ffffffffffffffffffffffffffffffffffffffff16908060030160149054906101000a900460ff16908060030160159054906101000a900460ff16908060040154908060050154905088565b7fe5786ee6f50ab1a5567cb3f3f6840a2f4ddbafdf4a35cb2c52d5b732b1e84a3281565b6000806000838152602001908152602001600020600101549050919050565b6110a37f843b48dccc6ff192f9330133622b0536f7b94feca0cf36e7e46fc50060b6f88233612eeb565b6110e2576040517f08c379a00000000000000000000000000000000000000000000000000000000081526004016110d9906156ce565b60405180910390fd5b6001816040516110f291906153e7565b908152602001604051809103902060030160159054906101000a900460ff161561111b57600080fd5b6001808260405161112c91906153e7565b908152602001604051809103902060030160156101000a81548160ff0219169083151502179055506040518060400160405280600781526020017f726573756d65640000000000000000000000000000000000000000000000000081525060018260405161119a91906153e7565b908152602001604051809103902060020190805190602001906111be929190613ec3565b507fd1c688ddb9e9baabcd8e5f84a85f4933173bc6600b2f361087b41cd9304e2920816040516111ee919061552b565b60405180910390a150565b6112126112058361105a565b61120d613cfa565b612eeb565b611251576040517f08c379a00000000000000000000000000000000000000000000000000000000081526004016112489061568e565b60405180910390fd5b61125b8282613d02565b5050565b6112897f843b48dccc6ff192f9330133622b0536f7b94feca0cf36e7e46fc50060b6f88233612eeb565b6112c8576040517f08c379a00000000000000000000000000000000000000000000000000000000081526004016112bf906156ce565b60405180910390fd5b6001816040516112d891906153e7565b908152602001604051809103902060030160159054906101000a900460ff1661130057600080fd5b600060018260405161131291906153e7565b908152602001604051809103902060030160156101000a81548160ff0219169083151502179055506040518060400160405280600981526020017f73757370656e646564000000000000000000000000000000000000000000000081525060018260405161138091906153e7565b908152602001604051809103902060020190805190602001906113a4929190613ec3565b507fb9f86d562ae4d5d427f505b81f74024716097f50538bc3d5a16f0716ca399559816040516113d4919061552b565b60405180910390a150565b6113e7613cfa565b73ffffffffffffffffffffffffffffffffffffffff168173ffffffffffffffffffffffffffffffffffffffff1614611454576040517f08c379a000000000000000000000000000000000000000000000000000000000815260040161144b90615a8e565b60405180910390fd5b61145e8282613de2565b5050565b61148c7f47a6ab365f603cf120cb936195de17fd0bac3880ff606e7a0edb5e8e6580b1ae33612eeb565b6114cb576040517f08c379a00000000000000000000000000000000000000000000000000000000081526004016114c29061574e565b60405180910390fd5b6114f57f0996d044c7309cb5a01d79c18ee9e4c86aca84367cbd5bfd5f5d0606acc9927383612eeb565b15611535576040517f08c379a000000000000000000000000000000000000000000000000000000000815260040161152c906158ae565b60405180910390fd5b61155f7f97f21e7273917267af1fea4c3510695aa29abe57349ce57ceec11b346883180383612eeb565b1561159f576040517f08c379a0000000000000000000000000000000000000000000000000000000008152600401611596906156ee565b60405180910390fd5b6115c97f843b48dccc6ff192f9330133622b0536f7b94feca0cf36e7e46fc50060b6f88283612eeb565b15611609576040517f08c379a00000000000000000000000000000000000000000000000000000000081526004016116009061584e565b60405180910390fd5b6116337f47a6ab365f603cf120cb936195de17fd0bac3880ff606e7a0edb5e8e6580b1ae83612eeb565b15611673576040517f08c379a000000000000000000000000000000000000000000000000000000000815260040161166a90615aae565b60405180910390fd5b61169d7f3e206be88d1de4207c0189003e17add3718b1a1bf78910a785940577239bbdae83612eeb565b156116dd576040517f08c379a00000000000000000000000000000000000000000000000000000000081526004016116d49061564e565b60405180910390fd5b6117077f0996d044c7309cb5a01d79c18ee9e4c86aca84367cbd5bfd5f5d0606acc99273836111f9565b6040518060400160405280600881526020017f50524f4d4f544552000000000000000000000000000000000000000000000000815250600760008473ffffffffffffffffffffffffffffffffffffffff1673ffffffffffffffffffffffffffffffffffffffff168152602001908152602001600020908051906020019061178f929190613ec3565b508060046000600c54815260200190815260200160002060010190805190602001906117bc929190613ec3565b508160046000600c54815260200190815260200160002060000160006101000a81548173ffffffffffffffffffffffffffffffffffffffff021916908373ffffffffffffffffffffffffffffffffffffffff160217905550600c600081548092919061182790615d45565b91905055507f786ebfd921e487d94a7dbf555edf33e5f264f7b59acdcdfe139c08f48f0755598260405161185b91906153fe565b60405180910390a15050565b6118917f3e206be88d1de4207c0189003e17add3718b1a1bf78910a785940577239bbdae33612eeb565b6118d0576040517f08c379a00000000000000000000000000000000000000000000000000000000081526004016118c79061566e565b60405180910390fd5b6118fa7f843b48dccc6ff192f9330133622b0536f7b94feca0cf36e7e46fc50060b6f88283612eeb565b1561193a576040517f08c379a00000000000000000000000000000000000000000000000000000000081526004016119319061582e565b60405180910390fd5b6119647f0996d044c7309cb5a01d79c18ee9e4c86aca84367cbd5bfd5f5d0606acc9927383612eeb565b156119a4576040517f08c379a000000000000000000000000000000000000000000000000000000000815260040161199b9061596e565b60405180910390fd5b6119ce7f97f21e7273917267af1fea4c3510695aa29abe57349ce57ceec11b346883180383612eeb565b15611a0e576040517f08c379a0000000000000000000000000000000000000000000000000000000008152600401611a05906156ee565b60405180910390fd5b611a387f47a6ab365f603cf120cb936195de17fd0bac3880ff606e7a0edb5e8e6580b1ae83612eeb565b15611a78576040517f08c379a0000000000000000000000000000000000000000000000000000000008152600401611a6f90615aae565b60405180910390fd5b611aa27f3e206be88d1de4207c0189003e17add3718b1a1bf78910a785940577239bbdae83612eeb565b15611ae2576040517f08c379a0000000000000000000000000000000000000000000000000000000008152600401611ad99061564e565b60405180910390fd5b611b0c7f843b48dccc6ff192f9330133622b0536f7b94feca0cf36e7e46fc50060b6f882836111f9565b6040518060400160405280600981526020017f415554484f524954590000000000000000000000000000000000000000000000815250600760008473ffffffffffffffffffffffffffffffffffffffff1673ffffffffffffffffffffffffffffffffffffffff1681526020019081526020016000209080519060200190611b94929190613ec3565b508060066000600e5481526020019081526020016000206001019080519060200190611bc1929190613ec3565b508160066000600e54815260200190815260200160002060000160006101000a81548173ffffffffffffffffffffffffffffffffffffffff021916908373ffffffffffffffffffffffffffffffffffffffff160217905550600e6000815480929190611c2c90615d45565b91905055507f3c0aee07d693a6f94b1a6aca6097bdde55429f0834eb9c27e3c31a03081f09b482604051611c6091906153fe565b60405180910390a15050565b60046020528060005260406000206000915090508060000160009054906101000a900473ffffffffffffffffffffffffffffffffffffffff1690806001018054611cb590615d13565b80601f0160208091040260200160405190810160405280929190818152602001828054611ce190615d13565b8015611d2e5780601f10611d0357610100808354040283529160200191611d2e565b820191906000526020600020905b815481529060010190602001808311611d1157829003601f168201915b5050505050905082565b60006001600960003373ffffffffffffffffffffffffffffffffffffffff1673ffffffffffffffffffffffffffffffffffffffff16815260200190815260200160002083604051611d8991906153e7565b908152602001604051809103902054611da29190615bfd565b9050919050565b6060600760008373ffffffffffffffffffffffffffffffffffffffff1673ffffffffffffffffffffffffffffffffffffffff1681526020019081526020016000208054611df590615d13565b80601f0160208091040260200160405190810160405280929190818152602001828054611e2190615d13565b8015611e6e5780601f10611e4357610100808354040283529160200191611e6e565b820191906000526020600020905b815481529060010190602001808311611e5157829003601f168201915b50505050509050919050565b6000600182604051611e8c91906153e7565b9081526020016040518091039020600401549050919050565b60066020528060005260406000206000915090508060000160009054906101000a900473ffffffffffffffffffffffffffffffffffffffff1690806001018054611eee90615d13565b80601f0160208091040260200160405190810160405280929190818152602001828054611f1a90615d13565b8015611f675780601f10611f3c57610100808354040283529160200191611f67565b820191906000526020600020905b815481529060010190602001808311611f4a57829003601f168201915b5050505050905082565b7f3e206be88d1de4207c0189003e17add3718b1a1bf78910a785940577239bbdae81565b611fbf7f0996d044c7309cb5a01d79c18ee9e4c86aca84367cbd5bfd5f5d0606acc9927333612eeb565b611ffe576040517f08c379a0000000000000000000000000000000000000000000000000000000008152600401611ff59061580e565b60405180910390fd5b6120287f97f21e7273917267af1fea4c3510695aa29abe57349ce57ceec11b346883180383612eeb565b15612068576040517f08c379a000000000000000000000000000000000000000000000000000000000815260040161205f906158ce565b60405180910390fd5b6120927f0996d044c7309cb5a01d79c18ee9e4c86aca84367cbd5bfd5f5d0606acc9927383612eeb565b156120d2576040517f08c379a00000000000000000000000000000000000000000000000000000000081526004016120c99061596e565b60405180910390fd5b6120fc7f843b48dccc6ff192f9330133622b0536f7b94feca0cf36e7e46fc50060b6f88283612eeb565b1561213c576040517f08c379a00000000000000000000000000000000000000000000000000000000081526004016121339061584e565b60405180910390fd5b6121667f47a6ab365f603cf120cb936195de17fd0bac3880ff606e7a0edb5e8e6580b1ae83612eeb565b156121a6576040517f08c379a000000000000000000000000000000000000000000000000000000000815260040161219d90615aae565b60405180910390fd5b6121d07f3e206be88d1de4207c0189003e17add3718b1a1bf78910a785940577239bbdae83612eeb565b15612210576040517f08c379a00000000000000000000000000000000000000000000000000000000081526004016122079061564e565b60405180910390fd5b61223a7f97f21e7273917267af1fea4c3510695aa29abe57349ce57ceec11b3468831803836111f9565b6040518060400160405280600c81526020017f494e56455354494741544f520000000000000000000000000000000000000000815250600760008473ffffffffffffffffffffffffffffffffffffffff1673ffffffffffffffffffffffffffffffffffffffff16815260200190815260200160002090805190602001906122c2929190613ec3565b508060056000600d54815260200190815260200160002060020190805190602001906122ef929190613ec3565b503360056000600d54815260200190815260200160002060000160006101000a81548173ffffffffffffffffffffffffffffffffffffffff021916908373ffffffffffffffffffffffffffffffffffffffff1602179055508160056000600d54815260200190815260200160002060010160006101000a81548173ffffffffffffffffffffffffffffffffffffffff021916908373ffffffffffffffffffffffffffffffffffffffff160217905550600d60008154809291906123b190615d45565b91905055507fe8418412d360af43b959e2ca49b9ad98feb77e7b5597963ca346077db47d69ba826040516123e591906153fe565b60405180910390a15050565b61241b7f97f21e7273917267af1fea4c3510695aa29abe57349ce57ceec11b346883180333612eeb565b61245a576040517f08c379a00000000000000000000000000000000000000000000000000000000081526004016124519061594e565b60405180910390fd5b6001151560018360405161246e91906153e7565b908152602001604051809103902060030160159054906101000a900460ff161515146124cf576040517f08c379a00000000000000000000000000000000000000000000000000000000081526004016124c6906157ae565b60405180910390fd5b6001826040516124df91906153e7565b908152602001604051809103902060030160009054906101000a900473ffffffffffffffffffffffffffffffffffffffff1673ffffffffffffffffffffffffffffffffffffffff163373ffffffffffffffffffffffffffffffffffffffff161461257e576040517f08c379a00000000000000000000000000000000000000000000000000000000081526004016125759061570e565b60405180910390fd5b600160028460405161259091906153e7565b908152602001604051809103902060040160006101000a81548160ff021916908315150217905550806002846040516125c991906153e7565b908152602001604051809103902060000160006101000a81548173ffffffffffffffffffffffffffffffffffffffff021916908373ffffffffffffffffffffffffffffffffffffffff1602179055503360028460405161262991906153e7565b908152602001604051809103902060010160006101000a81548173ffffffffffffffffffffffffffffffffffffffff021916908373ffffffffffffffffffffffffffffffffffffffff1602179055508160028460405161268991906153e7565b908152602001604051809103902060020190805190602001906126ad929190613ec3565b506001826040516126be91906153e7565b908152602001604051809103902060040160008154809291906126e090615d45565b91905055506002836040516126f591906153e7565b90815260200160405180910390206003018490806001815401808255809150506001900390600052602060002001600090919091909150908051906020019061273f929190613ec3565b50600960003373ffffffffffffffffffffffffffffffffffffffff1673ffffffffffffffffffffffffffffffffffffffff1681526020019081526020016000208260405161278d91906153e7565b908152602001604051809103902060008154809291906127ac90615d45565b91905055506127db7fe5786ee6f50ab1a5567cb3f3f6840a2f4ddbafdf4a35cb2c52d5b732b1e84a32826111f9565b6040518060400160405280600781526020017f50415449454e5400000000000000000000000000000000000000000000000000815250600760008373ffffffffffffffffffffffffffffffffffffffff1673ffffffffffffffffffffffffffffffffffffffff1681526020019081526020016000209080519060200190612863929190613ec3565b507f76b4f38e7ada56c131a0c796e7382093d7b5a69175ca0bf513f5827f60f5314d8383604051612895929190615617565b60405180910390a150505050565b60606128cf7f0996d044c7309cb5a01d79c18ee9e4c86aca84367cbd5bfd5f5d0606acc9927333612eeb565b8061290057506128ff7f97f21e7273917267af1fea4c3510695aa29abe57349ce57ceec11b346883180333612eeb565b5b61293f576040517f08c379a0000000000000000000000000000000000000000000000000000000008152600401612936906156ae565b60405180910390fd5b3373ffffffffffffffffffffffffffffffffffffffff1660018360405161296691906153e7565b908152602001604051809103902060010160009054906101000a900473ffffffffffffffffffffffffffffffffffffffff1673ffffffffffffffffffffffffffffffffffffffff161480612a2657503373ffffffffffffffffffffffffffffffffffffffff166001836040516129dc91906153e7565b908152602001604051809103902060030160009054906101000a900473ffffffffffffffffffffffffffffffffffffffff1673ffffffffffffffffffffffffffffffffffffffff16145b612a65576040517f08c379a0000000000000000000000000000000000000000000000000000000008152600401612a5c9061578e565b60405180910390fd5b600182604051612a7591906153e7565b908152602001604051809103902060030160159054906101000a900460ff16612ad3576040517f08c379a0000000000000000000000000000000000000000000000000000000008152600401612aca90615a0e565b60405180910390fd5b600182604051612ae391906153e7565b90815260200160405180910390206000018054612aff90615d13565b80601f0160208091040260200160405190810160405280929190818152602001828054612b2b90615d13565b8015612b785780601f10612b4d57610100808354040283529160200191612b78565b820191906000526020600020905b815481529060010190602001808311612b5b57829003601f168201915b50505050509050919050565b612b8c613f49565b60011515600183604051612ba091906153e7565b908152602001604051809103902060030160149054906101000a900460ff16151514612c01576040517f08c379a0000000000000000000000000000000000000000000000000000000008152600401612bf89061576e565b60405180910390fd5b60011515600183604051612c1591906153e7565b908152602001604051809103902060030160159054906101000a900460ff16151514612c76576040517f08c379a0000000000000000000000000000000000000000000000000000000008152600401612c6d90615ace565b60405180910390fd5b600182604051612c8691906153e7565b908152602001604051809103902060405180610100016040529081600082018054612cb090615d13565b80601f0160208091040260200160405190810160405280929190818152602001828054612cdc90615d13565b8015612d295780601f10612cfe57610100808354040283529160200191612d29565b820191906000526020600020905b815481529060010190602001808311612d0c57829003601f168201915b505050505081526020016001820160009054906101000a900473ffffffffffffffffffffffffffffffffffffffff1673ffffffffffffffffffffffffffffffffffffffff1673ffffffffffffffffffffffffffffffffffffffff168152602001600282018054612d9890615d13565b80601f0160208091040260200160405190810160405280929190818152602001828054612dc490615d13565b8015612e115780601f10612de657610100808354040283529160200191612e11565b820191906000526020600020905b815481529060010190602001808311612df457829003601f168201915b505050505081526020016003820160009054906101000a900473ffffffffffffffffffffffffffffffffffffffff1673ffffffffffffffffffffffffffffffffffffffff1673ffffffffffffffffffffffffffffffffffffffff1681526020016003820160149054906101000a900460ff161515151581526020016003820160159054906101000a900460ff16151515158152602001600482015481526020016005820154815250509050919050565b600b5481565b7f843b48dccc6ff192f9330133622b0536f7b94feca0cf36e7e46fc50060b6f88281565b600080600084815260200190815260200160002060000160008373ffffffffffffffffffffffffffffffffffffffff1673ffffffffffffffffffffffffffffffffffffffff16815260200190815260200160002060009054906101000a900460ff16905092915050565b612f7f7f843b48dccc6ff192f9330133622b0536f7b94feca0cf36e7e46fc50060b6f88233612eeb565b612fbe576040517f08c379a0000000000000000000000000000000000000000000000000000000008152600401612fb590615a6e565b60405180910390fd5b60011515600182604051612fd291906153e7565b908152602001604051809103902060030160149054906101000a900460ff16151514613033576040517f08c379a000000000000000000000000000000000000000000000000000000000815260040161302a90615a2e565b60405180910390fd5b6001808260405161304491906153e7565b908152602001604051809103902060030160156101000a81548160ff0219169083151502179055506040518060400160405280600981526020017f76616c69646174656400000000000000000000000000000000000000000000008152506001826040516130b291906153e7565b908152602001604051809103902060020190805190602001906130d6929190613ec3565b507fbc0e66a9d9a6660141870110fa7932ebb7fe171d5e52ee9a42674665105f1d1b81604051613106919061552b565b60405180910390a150565b6000801b81565b60028160405161312891906153e7565b908152602001604051809103902060000160009054906101000a900473ffffffffffffffffffffffffffffffffffffffff1673ffffffffffffffffffffffffffffffffffffffff163373ffffffffffffffffffffffffffffffffffffffff16146131c7576040517f08c379a00000000000000000000000000000000000000000000000000000000081526004016131be9061590e565b60405180910390fd5b600115156002826040516131db91906153e7565b908152602001604051809103902060040160009054906101000a900460ff1615151461323c576040517f08c379a0000000000000000000000000000000000000000000000000000000008152600401613233906159ce565b60405180910390fd5b6000151560028260405161325091906153e7565b908152602001604051809103902060040160009054906101000a9050505060028160405161327e91906153e7565b9081526020016040518091039020600080820160006101000a81549073ffffffffffffffffffffffffffffffffffffffff02191690556001820160006101000a81549073ffffffffffffffffffffffffffffffffffffffff02191690556002820160006132eb9190613fbe565b6003820160006132fb9190613ffe565b6004820160006101000a81549060ff021916905550507f1a24299bbcab71cb3013c24c40adca455867472f22ae6d056e4e0cb2bb0e5a7381604051613340919061552b565b60405180910390a150565b600e5481565b7f47a6ab365f603cf120cb936195de17fd0bac3880ff606e7a0edb5e8e6580b1ae81565b6000600160088460405161338991906153e7565b9081526020016040518091039020836040516133a591906153e7565b9081526020016040518091039020546133be9190615bfd565b905092915050565b6002818051602081018201805184825260208301602085012081835280955050505050506000915090508060000160009054906101000a900473ffffffffffffffffffffffffffffffffffffffff16908060010160009054906101000a900473ffffffffffffffffffffffffffffffffffffffff169080600201805461344b90615d13565b80601f016020809104026020016040519081016040528092919081815260200182805461347790615d13565b80156134c45780601f10613499576101008083540402835291602001916134c4565b820191906000526020600020905b8154815290600101906020018083116134a757829003601f168201915b5050505050908060040160009054906101000a900460ff16905084565b61350b7f97f21e7273917267af1fea4c3510695aa29abe57349ce57ceec11b346883180333612eeb565b61354a576040517f08c379a00000000000000000000000000000000000000000000000000000000081526004016135419061588e565b60405180910390fd5b60028260405161355a91906153e7565b908152602001604051809103902060010160009054906101000a900473ffffffffffffffffffffffffffffffffffffffff1673ffffffffffffffffffffffffffffffffffffffff163373ffffffffffffffffffffffffffffffffffffffff16146135f9576040517f08c379a00000000000000000000000000000000000000000000000000000000081526004016135f090615a4e565b60405180910390fd5b6001151560028360405161360d91906153e7565b908152602001604051809103902060040160009054906101000a900460ff1615151461366e576040517f08c379a0000000000000000000000000000000000000000000000000000000008152600401613665906159ee565b60405180910390fd5b60028260405161367e91906153e7565b9081526020016040518091039020600301819080600181540180825580915050600190039060005260206000200160009091909190915090805190602001906136c8929190613ec3565b507f2fd00fee6fba014584e65a085e3eb131b03ff5c389c44c3cf9e857d52c1650d6816040516136f8919061552b565b60405180910390a15050565b6003602052806000526040600020600091509050805461372390615d13565b80601f016020809104026020016040519081016040528092919081815260200182805461374f90615d13565b801561379c5780601f106137715761010080835404028352916020019161379c565b820191906000526020600020905b81548152906001019060200180831161377f57829003601f168201915b505050505081565b7f97f21e7273917267af1fea4c3510695aa29abe57349ce57ceec11b346883180381565b6137e16137d48361105a565b6137dc613cfa565b612eeb565b613820576040517f08c379a0000000000000000000000000000000000000000000000000000000008152600401613817906157ee565b60405180910390fd5b61382a8282613de2565b5050565b606060018260405161384091906153e7565b9081526020016040518091039020600201805461385c90615d13565b80601f016020809104026020016040519081016040528092919081815260200182805461388890615d13565b80156138d55780601f106138aa576101008083540402835291602001916138d5565b820191906000526020600020905b8154815290600101906020018083116138b857829003601f168201915b50505050509050919050565b600c5481565b60056020528060005260406000206000915090508060000160009054906101000a900473ffffffffffffffffffffffffffffffffffffffff16908060010160009054906101000a900473ffffffffffffffffffffffffffffffffffffffff169080600201805461395690615d13565b80601f016020809104026020016040519081016040528092919081815260200182805461398290615d13565b80156139cf5780601f106139a4576101008083540402835291602001916139cf565b820191906000526020600020905b8154815290600101906020018083116139b257829003601f168201915b5050505050905083565b600a5481565b7f0996d044c7309cb5a01d79c18ee9e4c86aca84367cbd5bfd5f5d0606acc9927381565b6060613a2f7f97f21e7273917267af1fea4c3510695aa29abe57349ce57ceec11b346883180333612eeb565b613a6e576040517f08c379a0000000000000000000000000000000000000000000000000000000008152600401613a659061588e565b60405180910390fd5b600282604051613a7e91906153e7565b908152602001604051809103902060010160009054906101000a900473ffffffffffffffffffffffffffffffffffffffff1673ffffffffffffffffffffffffffffffffffffffff163373ffffffffffffffffffffffffffffffffffffffff1614613b1d576040517f08c379a0000000000000000000000000000000000000000000000000000000008152600401613b1490615a4e565b60405180910390fd5b60011515600283604051613b3191906153e7565b908152602001604051809103902060040160009054906101000a900460ff16151514613b92576040517f08c379a0000000000000000000000000000000000000000000000000000000008152600401613b89906159ee565b60405180910390fd5b600282604051613ba291906153e7565b9081526020016040518091039020600301805480602002602001604051908101604052809291908181526020016000905b82821015613c7f578382906000526020600020018054613bf290615d13565b80601f0160208091040260200160405190810160405280929190818152602001828054613c1e90615d13565b8015613c6b5780601f10613c4057610100808354040283529160200191613c6b565b820191906000526020600020905b815481529060010190602001808311613c4e57829003601f168201915b505050505081526020019060010190613bd3565b505050509050919050565b600d5481565b60007f01ffc9a7000000000000000000000000000000000000000000000000000000007bffffffffffffffffffffffffffffffffffffffffffffffffffffffff1916827bffffffffffffffffffffffffffffffffffffffffffffffffffffffff1916149050919050565b600033905090565b613d0c8282612eeb565b613dde57600160008084815260200190815260200160002060000160008373ffffffffffffffffffffffffffffffffffffffff1673ffffffffffffffffffffffffffffffffffffffff16815260200190815260200160002060006101000a81548160ff021916908315150217905550613d83613cfa565b73ffffffffffffffffffffffffffffffffffffffff168173ffffffffffffffffffffffffffffffffffffffff16837f2f8788117e7eff1d82e926ec794901d17c78024a50270940304540a733656f0d60405160405180910390a45b5050565b613dec8282612eeb565b15613ebf57600080600084815260200190815260200160002060000160008373ffffffffffffffffffffffffffffffffffffffff1673ffffffffffffffffffffffffffffffffffffffff16815260200190815260200160002060006101000a81548160ff021916908315150217905550613e64613cfa565b73ffffffffffffffffffffffffffffffffffffffff168173ffffffffffffffffffffffffffffffffffffffff16837ff6391f5c32d9c69d2a47ea670b442974b53935d1edc7fd64eb21e047a839171b60405160405180910390a45b5050565b828054613ecf90615d13565b90600052602060002090601f016020900481019282613ef15760008555613f38565b82601f10613f0a57805160ff1916838001178555613f38565b82800160010185558215613f38579182015b82811115613f37578251825591602001919060010190613f1c565b5b509050613f45919061401f565b5090565b60405180610100016040528060608152602001600073ffffffffffffffffffffffffffffffffffffffff16815260200160608152602001600073ffffffffffffffffffffffffffffffffffffffff16815260200160001515815260200160001515815260200160008152602001600081525090565b508054613fca90615d13565b6000825580601f10613fdc5750613ffb565b601f016020900490600052602060002090810190613ffa919061401f565b5b50565b508054600082559060005260206000209081019061401c919061403c565b50565b5b80821115614038576000816000905550600101614020565b5090565b5b8082111561405c57600081816140539190613fbe565b5060010161403d565b5090565b600061407361406e84615b5c565b615b2b565b90508281526020810184848401111561408b57600080fd5b614096848285615cd1565b509392505050565b6000813590506140ad81615e2c565b92915050565b6000813590506140c281615e43565b92915050565b6000813590506140d781615e5a565b92915050565b600082601f8301126140ee57600080fd5b81356140fe848260208601614060565b91505092915050565b60008135905061411681615e71565b92915050565b60006020828403121561412e57600080fd5b600061413c8482850161409e565b91505092915050565b6000806040838503121561415857600080fd5b60006141668582860161409e565b925050602083013567ffffffffffffffff81111561418357600080fd5b61418f858286016140dd565b9150509250929050565b6000602082840312156141ab57600080fd5b60006141b9848285016140b3565b91505092915050565b600080604083850312156141d557600080fd5b60006141e3858286016140b3565b92505060206141f48582860161409e565b9150509250929050565b60006020828403121561421057600080fd5b600061421e848285016140c8565b91505092915050565b60006020828403121561423957600080fd5b600082013567ffffffffffffffff81111561425357600080fd5b61425f848285016140dd565b91505092915050565b6000806040838503121561427b57600080fd5b600083013567ffffffffffffffff81111561429557600080fd5b6142a1858286016140dd565b925050602083013567ffffffffffffffff8111156142be57600080fd5b6142ca858286016140dd565b9150509250929050565b600080600080608085870312156142ea57600080fd5b600085013567ffffffffffffffff81111561430457600080fd5b614310878288016140dd565b945050602085013567ffffffffffffffff81111561432d57600080fd5b614339878288016140dd565b935050604085013567ffffffffffffffff81111561435657600080fd5b614362878288016140dd565b92505060606143738782880161409e565b91505092959194509250565b600080600080600060a0868803121561439757600080fd5b600086013567ffffffffffffffff8111156143b157600080fd5b6143bd888289016140dd565b955050602086013567ffffffffffffffff8111156143da57600080fd5b6143e6888289016140dd565b945050604086013567ffffffffffffffff81111561440357600080fd5b61440f888289016140dd565b935050606086013567ffffffffffffffff81111561442c57600080fd5b614438888289016140dd565b92505060806144498882890161409e565b9150509295509295909350565b60006020828403121561446857600080fd5b600061447684828501614107565b91505092915050565b600061448b8383614553565b905092915050565b61449c81615c53565b82525050565b6144ab81615c53565b82525050565b60006144bc82615b9c565b6144c68185615bbf565b9350836020820285016144d885615b8c565b8060005b8581101561451457848403895281516144f5858261447f565b945061450083615bb2565b925060208a019950506001810190506144dc565b50829750879550505050505092915050565b61452f81615c65565b82525050565b61453e81615c65565b82525050565b61454d81615c71565b82525050565b600061455e82615ba7565b6145688185615bd0565b9350614578818560208601615ce0565b61458181615e1b565b840191505092915050565b600061459782615ba7565b6145a18185615be1565b93506145b1818560208601615ce0565b6145ba81615e1b565b840191505092915050565b60006145d082615ba7565b6145da8185615bf2565b93506145ea818560208601615ce0565b80840191505092915050565b6000614603601a83615be1565b91507f596f752061726520616e20617574686f726974792061646d696e0000000000006000830152602082019050919050565b6000614643602e83615be1565b91507f4f6e6c792074686520617574686f726974792061646d696e2063616e2061646460008301527f20696e76657374696761746f72730000000000000000000000000000000000006020830152604082019050919050565b60006146a9602f83615be1565b91507f416363657373436f6e74726f6c3a2073656e646572206d75737420626520616e60008301527f2061646d696e20746f206772616e7400000000000000000000000000000000006020830152604082019050919050565b600061470f603083615be1565b91507f6f6e6c792070726f6d6f7465727320616e6420696e76657374696761746f727360008301527f20686176652074686973207269676874000000000000000000000000000000006020830152604082019050919050565b6000614775602483615be1565b91507f4f6e6c7920617574686f726969746965732063616e2073757370656e6420747260008301527f69616c73000000000000000000000000000000000000000000000000000000006020830152604082019050919050565b60006147db601783615be1565b91507f596f752061726520616e20696e76657374696761746f720000000000000000006000830152602082019050919050565b600061481b603683615be1565b91507f596f7520646f206e6f74206861766520726967687420746f206164642070617460008301527f69656e747320746f20746869732070726f746f636f6c000000000000000000006020830152604082019050919050565b6000614881602983615be1565b91507f50726f6d6f746572732061646d696e2063616e6e6f7420626520616e20696e7660008301527f657374696761746f7200000000000000000000000000000000000000000000006020830152604082019050919050565b60006148e7602d83615be1565b91507f4f6e6c79207468652070726f6d6f746f722061646d696e2063616e206164642060008301527f696e76657374696761746f7273000000000000000000000000000000000000006020830152604082019050919050565b600061494d602183615be1565b91507f5468657265206973206e6f2070726f746f636f6c20776974682074686973206960008301527f64000000000000000000000000000000000000000000000000000000000000006020830152604082019050919050565b60006149b3602a83615be1565b91507f596f7520646f206e6f74206861766520726967687420746f206f70656e20746860008301527f69732070726f6a656374000000000000000000000000000000000000000000006020830152604082019050919050565b6000614a19602983615be1565b91507f546869732070726f746f636f6c20686173206e6f74206265656e20617574686f60008301527f72697a65642079657400000000000000000000000000000000000000000000006020830152604082019050919050565b6000614a7f602b83615be1565b91507f417574686f7269746965732061646d696e2063616e6e6f7420626520616e206960008301527f6e76657374696761746f720000000000000000000000000000000000000000006020830152604082019050919050565b6000614ae5603083615be1565b91507f416363657373436f6e74726f6c3a2073656e646572206d75737420626520616e60008301527f2061646d696e20746f207265766f6b65000000000000000000000000000000006020830152604082019050919050565b6000614b4b602783615be1565b91507f4f6e6c79207468652070726f6d6f746f722063616e2061646420696e7665737460008301527f696761746f7273000000000000000000000000000000000000000000000000006020830152604082019050919050565b6000614bb1601c83615be1565b91507f596f752061726520616c726561647920616e20617574686f72697479000000006000830152602082019050919050565b6000614bf1601483615be1565b91507f596f752061726520616e20617574686f726974790000000000000000000000006000830152602082019050919050565b6000614c31602383615be1565b91507f4f6e6c792070726f6d6f746572732063616e207375626d69742070726f746f6360008301527f6f6c7300000000000000000000000000000000000000000000000000000000006020830152604082019050919050565b6000614c97602383615be1565b91507f4f6e6c7920696e76657374696761746f72732063616e20636f6c6c656374206460008301527f61746100000000000000000000000000000000000000000000000000000000006020830152604082019050919050565b6000614cfd601a83615be1565b91507f596f752061726520616c726561647920612070726f6d6f7465720000000000006000830152602082019050919050565b6000614d3d601f83615be1565b91507f596f752061726520616c726561647920616e20696e76657374696761746f72006000830152602082019050919050565b6000614d7d602983615be1565b91507f54686520696e76657374696761746f72206d757374206265207265676973746560008301527f72656420666972737400000000000000000000000000000000000000000000006020830152604082019050919050565b6000614de3601683615be1565b91507f596f7572204944206973206e6f7420636f7272656374000000000000000000006000830152602082019050919050565b6000614e23602183615be1565b91507f50726f6d6f746572732063616e6e6f7420626520696e76657374696761746f7260008301527f73000000000000000000000000000000000000000000000000000000000000006020830152604082019050919050565b6000614e89603083615be1565b91507f4f6e6c7920696e76657374696761746f72732063616e2061646420706174696560008301527f6e747320746f2070726f746f636f6c73000000000000000000000000000000006020830152604082019050919050565b6000614eef601283615be1565b91507f596f752061726520612070726f6d6f74657200000000000000000000000000006000830152602082019050919050565b6000614f2f602283615be1565b91507f5468652070726f746f636f6c20697320616c726561647920726567697374657260008301527f65640000000000000000000000000000000000000000000000000000000000006020830152604082019050919050565b6000614f95602383615be1565b91507f417574686f7269746965732063616e6e6f7420626520696e766573746967617460008301527f6f727300000000000000000000000000000000000000000000000000000000006020830152604082019050919050565b6000614ffb601f83615be1565b91507f596f7520616c7265616479207265766f6b6520796f757220636f6e73656e74006000830152602082019050919050565b600061503b601d83615be1565b91507f476574207468652070617469656e7420636f6e73656e742066697273740000006000830152602082019050919050565b600061507b602283615be1565b91507f5468657265206973206e6f2070726f746f636f6c20776974682074686973206360008301527f69640000000000000000000000000000000000000000000000000000000000006020830152604082019050919050565b60006150e1602c83615be1565b91507f5468657265206973206e6f2070726f746f636f6c206173736f6369617465642060008301527f77697468207468697320494400000000000000000000000000000000000000006020830152604082019050919050565b6000615147602683615be1565b91507f596f7520646f206e6f74206861766520726967687420666f722074686973207060008301527f617469656e7400000000000000000000000000000000000000000000000000006020830152604082019050919050565b60006151ad603183615be1565b91507f4f6e6c7920617574686f726974696573206861766520726967687420746f207660008301527f616c69646174652070726f746f636f6c730000000000000000000000000000006020830152604082019050919050565b6000615213602f83615be1565b91507f416363657373436f6e74726f6c3a2063616e206f6e6c792072656e6f756e636560008301527f20726f6c657320666f722073656c6600000000000000000000000000000000006020830152604082019050919050565b6000615279601883615be1565b91507f596f752061726520612070726f6d6f7465722061646d696e00000000000000006000830152602082019050919050565b60006152b9602783615be1565b91507f546869732070726f746f636f6c206873206e6f74206265656e2076616c69646160008301527f74656420796574000000000000000000000000000000000000000000000000006020830152604082019050919050565b60006101008301600083015184820360008601526153308282614553565b91505060208301516153456020860182614493565b506040830151848203604086015261535d8282614553565b91505060608301516153726060860182614493565b5060808301516153856080860182614526565b5060a083015161539860a0860182614526565b5060c08301516153ab60c08601826153c9565b5060e08301516153be60e08601826153c9565b508091505092915050565b6153d281615cc7565b82525050565b6153e181615cc7565b82525050565b60006153f382846145c5565b915081905092915050565b600060208201905061541360008301846144a2565b92915050565b600060608201905061542e60008301866144a2565b61543b60208301856144a2565b818103604083015261544d818461458c565b9050949350505050565b600060808201905061546c60008301876144a2565b61547960208301866144a2565b818103604083015261548b818561458c565b905061549a6060830184614535565b95945050505050565b60006040820190506154b860008301856144a2565b81810360208301526154ca818461458c565b90509392505050565b600060208201905081810360008301526154ed81846144b1565b905092915050565b600060208201905061550a6000830184614535565b92915050565b60006020820190506155256000830184614544565b92915050565b60006020820190508181036000830152615545818461458c565b905092915050565b60006060820190508181036000830152615567818661458c565b905061557660208301856144a2565b61558360408301846144a2565b949350505050565b60006101008201905081810360008301526155a6818b61458c565b90506155b5602083018a6144a2565b81810360408301526155c7818961458c565b90506155d660608301886144a2565b6155e36080830187614535565b6155f060a0830186614535565b6155fd60c08301856153d8565b61560a60e08301846153d8565b9998505050505050505050565b60006040820190508181036000830152615631818561458c565b90508181036020830152615645818461458c565b90509392505050565b60006020820190508181036000830152615667816145f6565b9050919050565b6000602082019050818103600083015261568781614636565b9050919050565b600060208201905081810360008301526156a78161469c565b9050919050565b600060208201905081810360008301526156c781614702565b9050919050565b600060208201905081810360008301526156e781614768565b9050919050565b60006020820190508181036000830152615707816147ce565b9050919050565b600060208201905081810360008301526157278161480e565b9050919050565b6000602082019050818103600083015261574781614874565b9050919050565b60006020820190508181036000830152615767816148da565b9050919050565b6000602082019050818103600083015261578781614940565b9050919050565b600060208201905081810360008301526157a7816149a6565b9050919050565b600060208201905081810360008301526157c781614a0c565b9050919050565b600060208201905081810360008301526157e781614a72565b9050919050565b6000602082019050818103600083015261580781614ad8565b9050919050565b6000602082019050818103600083015261582781614b3e565b9050919050565b6000602082019050818103600083015261584781614ba4565b9050919050565b6000602082019050818103600083015261586781614be4565b9050919050565b6000602082019050818103600083015261588781614c24565b9050919050565b600060208201905081810360008301526158a781614c8a565b9050919050565b600060208201905081810360008301526158c781614cf0565b9050919050565b600060208201905081810360008301526158e781614d30565b9050919050565b6000602082019050818103600083015261590781614d70565b9050919050565b6000602082019050818103600083015261592781614dd6565b9050919050565b6000602082019050818103600083015261594781614e16565b9050919050565b6000602082019050818103600083015261596781614e7c565b9050919050565b6000602082019050818103600083015261598781614ee2565b9050919050565b600060208201905081810360008301526159a781614f22565b9050919050565b600060208201905081810360008301526159c781614f88565b9050919050565b600060208201905081810360008301526159e781614fee565b9050919050565b60006020820190508181036000830152615a078161502e565b9050919050565b60006020820190508181036000830152615a278161506e565b9050919050565b60006020820190508181036000830152615a47816150d4565b9050919050565b60006020820190508181036000830152615a678161513a565b9050919050565b60006020820190508181036000830152615a87816151a0565b9050919050565b60006020820190508181036000830152615aa781615206565b9050919050565b60006020820190508181036000830152615ac78161526c565b9050919050565b60006020820190508181036000830152615ae7816152ac565b9050919050565b60006020820190508181036000830152615b088184615312565b905092915050565b6000602082019050615b2560008301846153d8565b92915050565b6000604051905081810181811067ffffffffffffffff82111715615b5257615b51615dec565b5b8060405250919050565b600067ffffffffffffffff821115615b7757615b76615dec565b5b601f19601f8301169050602081019050919050565b6000819050602082019050919050565b600081519050919050565b600081519050919050565b6000602082019050919050565b600082825260208201905092915050565b600082825260208201905092915050565b600082825260208201905092915050565b600081905092915050565b6000615c0882615cc7565b9150615c1383615cc7565b9250827fffffffffffffffffffffffffffffffffffffffffffffffffffffffffffffffff03821115615c4857615c47615d8e565b5b828201905092915050565b6000615c5e82615ca7565b9050919050565b60008115159050919050565b6000819050919050565b60007fffffffff0000000000000000000000000000000000000000000000000000000082169050919050565b600073ffffffffffffffffffffffffffffffffffffffff82169050919050565b6000819050919050565b82818337600083830152505050565b60005b83811015615cfe578082015181840152602081019050615ce3565b83811115615d0d576000848401525b50505050565b60006002820490506001821680615d2b57607f821691505b60208210811415615d3f57615d3e615dbd565b5b50919050565b6000615d5082615cc7565b91507fffffffffffffffffffffffffffffffffffffffffffffffffffffffffffffffff821415615d8357615d82615d8e565b5b600182019050919050565b7f4e487b7100000000000000000000000000000000000000000000000000000000600052601160045260246000fd5b7f4e487b7100000000000000000000000000000000000000000000000000000000600052602260045260246000fd5b7f4e487b7100000000000000000000000000000000000000000000000000000000600052604160045260246000fd5b6000601f19601f8301169050919050565b615e3581615c53565b8114615e4057600080fd5b50565b615e4c81615c71565b8114615e5757600080fd5b50565b615e6381615c7b565b8114615e6e57600080fd5b50565b615e7a81615cc7565b8114615e8557600080fd5b5056fea2646970667358221220c6722aa83823feb8a1f45418a862a39625661461dd3b7266ff7d4866078a14ac64736f6c63430008000033",
  "immutableReferences": {},
  "source": "// SPDX-License-Identifier: MIT\npragma solidity 0.8.0;\n\nimport \"../client/node_modules/@openzeppelin/contracts/access/AccessControl.sol\";\n\ncontract MedTrials is AccessControl {\n    struct Protocol {\n        string cid;\n        address promoter;\n        string status;\n        address investigator;\n        bool registered;\n        bool authorized;\n        uint256 nbOfPatients;\n        uint256 index;\n    }\n\n    struct Patient {\n        address patient;\n        address investigator;\n        string protocolID;\n        string[] cids;\n        bool consent;\n    }\n\n    struct Promoter {\n        address promoter;\n        string cid;\n    }\n\n    struct Investigator {\n        address promoter;\n        address investigator;\n        string cid;\n    }\n\n    struct Authority {\n        address authority;\n        string cid;\n    }\n\n    mapping(string => Protocol) public protocols;\n    mapping(string => Patient) public patients;\n    mapping(uint256 => string) public protocolsID;\n    mapping(uint256 => Promoter) public promoters;\n    mapping(uint256 => Investigator) public investigators;\n    mapping(uint256 => Authority) public authorities;\n    mapping(address => string) roles;\n\n    mapping(string => mapping(string => uint256)) private protocolNumerotation;\n    mapping(address => mapping(string => uint256)) private patientNumerotation;\n\n    bytes32 public constant AUTHORITY = keccak256(\"AUTHORITY\");\n    bytes32 public constant AUTHORITY_ADMIN = keccak256(\"AUTHORITYADMIN\");\n    bytes32 public constant PROMOTER = keccak256(\"PROMOTER\");\n    bytes32 public constant PROMOTER_ADMIN = keccak256(\"PROMOTERADMIN\");\n    bytes32 public constant INVESTIGATOR = keccak256(\"INVESTIGATOR\");\n    bytes32 public constant PATIENT = keccak256(\"PATIENT\");\n\n    uint256 public nbOfProtocolsRegistered;\n    uint256 public nbOfPatients;\n    uint256 public nbOfPromoters;\n    uint256 public nbOfInvestigators;\n    uint256 public nbOfAuthorities;\n\n    event promoterAdded(address _address);\n    event authorityAdded(address _address);\n    event investigatorAdded(address _address);\n    event protocolValidated(string _id);\n    event newProtocol(string _id, address _promotor, address _investigator);\n    event patientAdded(string _patientID, string _protocolID);\n    event consentGiven(string _patientID);\n    event consentRevoked(string _patientID);\n    event cidSaved(string _cid);\n    event protocolSuspended(string _protocolID);\n    event protocolResumed(string _protocolID);\n\n    constructor(\n        address _default_admin,\n        address _authorityAdmin,\n        address _promotorAdmin\n    ) {\n        _setupRole(DEFAULT_ADMIN_ROLE, _default_admin);\n\n        _setRoleAdmin(AUTHORITY_ADMIN, DEFAULT_ADMIN_ROLE);\n        _setRoleAdmin(AUTHORITY, AUTHORITY_ADMIN);\n\n        _setRoleAdmin(PROMOTER_ADMIN, DEFAULT_ADMIN_ROLE);\n        _setRoleAdmin(PROMOTER, PROMOTER_ADMIN);\n\n        _setRoleAdmin(INVESTIGATOR, PROMOTER);\n\n        _setRoleAdmin(PATIENT, INVESTIGATOR);\n\n        _setupRole(AUTHORITY_ADMIN, _authorityAdmin);\n        _setupRole(PROMOTER_ADMIN, _promotorAdmin);\n\n        renounceRole(DEFAULT_ADMIN_ROLE, _default_admin);\n\n        roles[_authorityAdmin] = \"AUTHORITY ADMIN\";\n        roles[_promotorAdmin] = \"PROMOTER ADMIN\";\n    }\n\n    function addAuthority(address _address, string memory _cid) public {\n        require(\n            hasRole(AUTHORITY_ADMIN, msg.sender),\n            \"Only the authority admin can add investigators\"\n        );\n        require(!hasRole(AUTHORITY, _address), \"You are already an authority\");\n        require(!hasRole(PROMOTER, _address), \"You are a promoter\");\n        require(!hasRole(INVESTIGATOR, _address), \"You are an investigator\");\n        require(!hasRole(PROMOTER_ADMIN, _address), \"You are a promoter admin\");\n        require(\n            !hasRole(AUTHORITY_ADMIN, _address),\n            \"You are an authority admin\"\n        );\n\n        grantRole(AUTHORITY, _address);\n        roles[_address] = \"AUTHORITY\";\n\n        authorities[nbOfAuthorities].cid = _cid;\n        authorities[nbOfAuthorities].authority = _address;\n        nbOfAuthorities++;\n\n        emit authorityAdded(_address);\n    }\n\n    function addPromoter(address _address, string memory _cid) public {\n        require(\n            hasRole(PROMOTER_ADMIN, msg.sender),\n            \"Only the promotor admin can add investigators\"\n        );\n        require(!hasRole(PROMOTER, _address), \"You are already a promoter\");\n        require(!hasRole(INVESTIGATOR, _address), \"You are an investigator\");\n        require(!hasRole(AUTHORITY, _address), \"You are an authority\");\n        require(!hasRole(PROMOTER_ADMIN, _address), \"You are a promoter admin\");\n        require(\n            !hasRole(AUTHORITY_ADMIN, _address),\n            \"You are an authority admin\"\n        );\n\n        grantRole(PROMOTER, _address);\n        roles[_address] = \"PROMOTER\";\n\n        promoters[nbOfPromoters].cid = _cid;\n        promoters[nbOfPromoters].promoter = _address;\n        nbOfPromoters++;\n\n        emit promoterAdded(_address);\n    }\n\n    function addInvestigator(address _address, string memory _cid) public {\n        require(\n            hasRole(PROMOTER, msg.sender),\n            \"Only the promotor can add investigators\"\n        );\n        require(\n            !hasRole(INVESTIGATOR, _address),\n            \"You are already an investigator\"\n        );\n        require(!hasRole(PROMOTER, _address), \"You are a promoter\");\n        require(!hasRole(AUTHORITY, _address), \"You are an authority\");\n        require(!hasRole(PROMOTER_ADMIN, _address), \"You are a promoter admin\");\n        require(\n            !hasRole(AUTHORITY_ADMIN, _address),\n            \"You are an authority admin\"\n        );\n\n        grantRole(INVESTIGATOR, _address);\n        roles[_address] = \"INVESTIGATOR\";\n\n        investigators[nbOfInvestigators].cid = _cid;\n        investigators[nbOfInvestigators].promoter = msg.sender;\n        investigators[nbOfInvestigators].investigator = _address;\n        nbOfInvestigators++;\n\n        emit investigatorAdded(_address);\n    }\n\n    function registerProtocol(\n        string memory _id,\n        string memory _cid,\n        string memory center,\n        string memory category,\n        address _investigator\n    ) public {\n        require(\n            hasRole(PROMOTER, msg.sender),\n            \"Only promoters can submit protocols\"\n        );\n        require(\n            !hasRole(PROMOTER, _investigator),\n            \"Promoters cannot be investigators\"\n        );\n        require(\n            !hasRole(AUTHORITY, _investigator),\n            \"Authorities cannot be investigators\"\n        );\n        require(\n            !hasRole(PROMOTER_ADMIN, _investigator),\n            \"Promoters admin cannot be an investigator\"\n        );\n        require(\n            !hasRole(AUTHORITY_ADMIN, _investigator),\n            \"Authorities admin cannot be an investigator\"\n        );\n        require(\n            hasRole(INVESTIGATOR, _investigator),\n            \"The investigator must be registered first\"\n        );\n        require(\n            !protocols[_id].registered,\n            \"The protocol is already registered\"\n        );\n\n        protocols[_id].promoter = msg.sender;\n        protocols[_id].investigator = _investigator;\n        protocols[_id].registered = true;\n        protocols[_id].cid = _cid;\n        protocols[_id].status = \"registered\";\n        protocols[_id].index = nbOfProtocolsRegistered;\n\n        protocolsID[nbOfProtocolsRegistered] = _id;\n        nbOfProtocolsRegistered++;\n\n        protocolNumerotation[center][category]++;\n\n        emit newProtocol(_id, msg.sender, _investigator);\n    }\n\n    function getProtocolCID(string memory _id)\n        public\n        view\n        returns (string memory)\n    {\n        require(\n            hasRole(PROMOTER, msg.sender) || hasRole(INVESTIGATOR, msg.sender),\n            \"only promoters and investigators have this right\"\n        );\n        require(\n            protocols[_id].promoter == msg.sender ||\n                protocols[_id].investigator == msg.sender,\n            \"You do not have right to open this project\"\n        );\n        require(\n            protocols[_id].authorized,\n            \"There is no protocol with this cid\"\n        );\n\n        return protocols[_id].cid;\n    }\n\n    function validateProtocol(string memory _id) public {\n        require(\n            hasRole(AUTHORITY, msg.sender),\n            \"Only authorities have right to validate protocols\"\n        );\n        require(\n            protocols[_id].registered == true,\n            \"There is no protocol associated with this ID\"\n        );\n\n        protocols[_id].authorized = true;\n        protocols[_id].status = \"validated\";\n\n        emit protocolValidated(_id);\n    }\n\n    function getProtocol(string memory _id)\n        public\n        view\n        returns (Protocol memory)\n    {\n        require(\n            protocols[_id].registered == true,\n            \"There is no protocol with this id\"\n        );\n        require(\n            protocols[_id].authorized == true,\n            \"This protocol hs not been validated yet\"\n        );\n\n        return protocols[_id];\n    }\n\n    function addPatient(\n        string memory _cid,\n        string memory _patientID,\n        string memory _protocolID,\n        address _patientAddress\n    ) public {\n        require(\n            hasRole(INVESTIGATOR, msg.sender),\n            \"Only investigators can add patients to protocols\"\n        );\n        require(\n            protocols[_protocolID].authorized == true,\n            \"This protocol has not been authorized yet\"\n        );\n        require(\n            msg.sender == protocols[_protocolID].investigator,\n            \"You do not have right to add patients to this protocol\"\n        );\n        //require(_patientAddress != protocols[_protocolID].patient, \"This patient already exist\");\n\n        patients[_patientID].consent = true;\n        patients[_patientID].patient = _patientAddress;\n        patients[_patientID].investigator = msg.sender;\n        patients[_patientID].protocolID = _protocolID;\n        protocols[_protocolID].nbOfPatients++;\n        patients[_patientID].cids.push(_cid);\n\n        patientNumerotation[msg.sender][_protocolID]++;\n\n        grantRole(PATIENT, _patientAddress);\n        roles[_patientAddress] = \"PATIENT\";\n\n        emit patientAdded(_patientID, _protocolID);\n    }\n\n    function revokeConsent(string memory _patientID) public {\n        require(\n            msg.sender == patients[_patientID].patient,\n            \"Your ID is not correct\"\n        );\n        require(\n            patients[_patientID].consent == true,\n            \"You already revoke your consent\"\n        );\n\n        patients[_patientID].consent == false;\n        delete patients[_patientID];\n\n        emit consentRevoked(_patientID);\n    }\n\n    function suspendTrials(string memory _protocolID) public {\n        require(\n            hasRole(AUTHORITY, msg.sender),\n            \"Only authoriities can suspend trials\"\n        );\n        require(protocols[_protocolID].authorized);\n\n        protocols[_protocolID].authorized = false;\n        protocols[_protocolID].status = \"suspended\";\n\n        emit protocolSuspended(_protocolID);\n    }\n\n    function resumeTrials(string memory _protocolID) public {\n        require(\n            hasRole(AUTHORITY, msg.sender),\n            \"Only authoriities can suspend trials\"\n        );\n        require(!protocols[_protocolID].authorized);\n\n        protocols[_protocolID].authorized = true;\n        protocols[_protocolID].status = \"resumed\";\n\n        emit protocolResumed(_protocolID);\n    }\n\n    function storeDataCID(string memory _patientID, string memory _cid) public {\n        require(\n            hasRole(INVESTIGATOR, msg.sender),\n            \"Only investigators can collect data\"\n        );\n        require(\n            msg.sender == patients[_patientID].investigator,\n            \"You do not have right for this patient\"\n        );\n        require(\n            patients[_patientID].consent == true,\n            \"Get the patient consent first\"\n        );\n\n        patients[_patientID].cids.push(_cid);\n\n        emit cidSaved(_cid);\n    }\n\n    function getDataCID(string memory _patientID)\n        public\n        view\n        returns (string[] memory)\n    {\n        require(\n            hasRole(INVESTIGATOR, msg.sender),\n            \"Only investigators can collect data\"\n        );\n        require(\n            msg.sender == patients[_patientID].investigator,\n            \"You do not have right for this patient\"\n        );\n        require(\n            patients[_patientID].consent == true,\n            \"Get the patient consent first\"\n        );\n\n        return patients[_patientID].cids;\n    }\n\n    function getProtocolStatus(string memory _protocolID)\n        public\n        view\n        returns (string memory)\n    {\n        return protocols[_protocolID].status;\n    }\n\n    function numberOfPatientByProtocol(string memory _protocolID)\n        public\n        view\n        returns (uint256)\n    {\n        return protocols[_protocolID].nbOfPatients;\n    }\n\n    function getRole(address _address) public view returns (string memory) {\n        return roles[_address];\n    }\n\n    function getProtocoleNumerotation(\n        string memory center,\n        string memory category\n    ) public view returns (uint256) {\n        return protocolNumerotation[center][category] + 1;\n    }\n\n    function getPatientNumerotation(string memory _protocolID)\n        public\n        view\n        returns (uint256)\n    {\n        return patientNumerotation[msg.sender][_protocolID] + 1;\n    }\n}\n",
  "sourcePath": "/Users/samuel/Documents/Projet/Pojet_Dev/MedTrials/contracts/MedTrials.sol",
  "compiler": {
    "name": "solc",
    "version": "0.8.0+commit.c7dfd78e.Emscripten.clang"
  },
  "schemaVersion": "3.3.4",
  "updatedAt": "2021-05-09T17:01:49.854Z",
  "networkType": "ethereum",
  "devdoc": {
    "kind": "dev",
    "methods": {
      "getRoleAdmin(bytes32)": {
        "details": "Returns the admin role that controls `role`. See {grantRole} and {revokeRole}. To change a role's admin, use {_setRoleAdmin}."
      },
      "grantRole(bytes32,address)": {
        "details": "Grants `role` to `account`. If `account` had not been already granted `role`, emits a {RoleGranted} event. Requirements: - the caller must have ``role``'s admin role."
      },
      "hasRole(bytes32,address)": {
        "details": "Returns `true` if `account` has been granted `role`."
      },
      "renounceRole(bytes32,address)": {
        "details": "Revokes `role` from the calling account. Roles are often managed via {grantRole} and {revokeRole}: this function's purpose is to provide a mechanism for accounts to lose their privileges if they are compromised (such as when a trusted device is misplaced). If the calling account had been granted `role`, emits a {RoleRevoked} event. Requirements: - the caller must be `account`."
      },
      "revokeRole(bytes32,address)": {
        "details": "Revokes `role` from `account`. If `account` had been granted `role`, emits a {RoleRevoked} event. Requirements: - the caller must have ``role``'s admin role."
      },
      "supportsInterface(bytes4)": {
        "details": "See {IERC165-supportsInterface}."
      }
    },
    "version": 1
  },
  "userdoc": {
    "kind": "user",
    "methods": {},
    "version": 1
  }
}