{
  "contractName": "MedTrials",
  "abi": [
    {
      "inputs": [
        {
          "internalType": "address",
          "name": "_default_admin",
          "type": "address"
        },
        {
          "internalType": "address",
          "name": "_authorityAdmin",
          "type": "address"
        },
        {
          "internalType": "address",
          "name": "_promotorAdmin",
          "type": "address"
        }
      ],
      "stateMutability": "nonpayable",
      "type": "constructor"
    },
    {
      "anonymous": false,
      "inputs": [
        {
          "indexed": true,
          "internalType": "bytes32",
          "name": "role",
          "type": "bytes32"
        },
        {
          "indexed": true,
          "internalType": "bytes32",
          "name": "previousAdminRole",
          "type": "bytes32"
        },
        {
          "indexed": true,
          "internalType": "bytes32",
          "name": "newAdminRole",
          "type": "bytes32"
        }
      ],
      "name": "RoleAdminChanged",
      "type": "event"
    },
    {
      "anonymous": false,
      "inputs": [
        {
          "indexed": true,
          "internalType": "bytes32",
          "name": "role",
          "type": "bytes32"
        },
        {
          "indexed": true,
          "internalType": "address",
          "name": "account",
          "type": "address"
        },
        {
          "indexed": true,
          "internalType": "address",
          "name": "sender",
          "type": "address"
        }
      ],
      "name": "RoleGranted",
      "type": "event"
    },
    {
      "anonymous": false,
      "inputs": [
        {
          "indexed": true,
          "internalType": "bytes32",
          "name": "role",
          "type": "bytes32"
        },
        {
          "indexed": true,
          "internalType": "address",
          "name": "account",
          "type": "address"
        },
        {
          "indexed": true,
          "internalType": "address",
          "name": "sender",
          "type": "address"
        }
      ],
      "name": "RoleRevoked",
      "type": "event"
    },
    {
      "anonymous": false,
      "inputs": [
        {
          "indexed": false,
          "internalType": "address",
          "name": "_address",
          "type": "address"
        }
      ],
      "name": "authorityAdded",
      "type": "event"
    },
    {
      "anonymous": false,
      "inputs": [
        {
          "indexed": false,
          "internalType": "string",
          "name": "_cid",
          "type": "string"
        }
      ],
      "name": "cidSaved",
      "type": "event"
    },
    {
      "anonymous": false,
      "inputs": [
        {
          "indexed": false,
          "internalType": "string",
          "name": "_patientID",
          "type": "string"
        }
      ],
      "name": "consentGiven",
      "type": "event"
    },
    {
      "anonymous": false,
      "inputs": [
        {
          "indexed": false,
          "internalType": "string",
          "name": "_patientID",
          "type": "string"
        }
      ],
      "name": "consentRevoked",
      "type": "event"
    },
    {
      "anonymous": false,
      "inputs": [
        {
          "indexed": false,
          "internalType": "address",
          "name": "_address",
          "type": "address"
        }
      ],
      "name": "investigatorAdded",
      "type": "event"
    },
    {
      "anonymous": false,
      "inputs": [
        {
          "indexed": false,
          "internalType": "string",
          "name": "_id",
          "type": "string"
        },
        {
          "indexed": false,
          "internalType": "address",
          "name": "_promotor",
          "type": "address"
        },
        {
          "indexed": false,
          "internalType": "address",
          "name": "_investigator",
          "type": "address"
        }
      ],
      "name": "newProtocol",
      "type": "event"
    },
    {
      "anonymous": false,
      "inputs": [
        {
          "indexed": false,
          "internalType": "string",
          "name": "_patientID",
          "type": "string"
        },
        {
          "indexed": false,
          "internalType": "string",
          "name": "_protocolID",
          "type": "string"
        }
      ],
      "name": "patientAdded",
      "type": "event"
    },
    {
      "anonymous": false,
      "inputs": [
        {
          "indexed": false,
          "internalType": "address",
          "name": "_address",
          "type": "address"
        }
      ],
      "name": "promoterAdded",
      "type": "event"
    },
    {
      "anonymous": false,
      "inputs": [
        {
          "indexed": false,
          "internalType": "string",
          "name": "_protocolID",
          "type": "string"
        }
      ],
      "name": "protocolResumed",
      "type": "event"
    },
    {
      "anonymous": false,
      "inputs": [
        {
          "indexed": false,
          "internalType": "string",
          "name": "_protocolID",
          "type": "string"
        }
      ],
      "name": "protocolSuspended",
      "type": "event"
    },
    {
      "anonymous": false,
      "inputs": [
        {
          "indexed": false,
          "internalType": "string",
          "name": "_id",
          "type": "string"
        }
      ],
      "name": "protocolValidated",
      "type": "event"
    },
    {
      "inputs": [],
      "name": "AUTHORITY",
      "outputs": [
        {
          "internalType": "bytes32",
          "name": "",
          "type": "bytes32"
        }
      ],
      "stateMutability": "view",
      "type": "function",
      "constant": true
    },
    {
      "inputs": [],
      "name": "AUTHORITY_ADMIN",
      "outputs": [
        {
          "internalType": "bytes32",
          "name": "",
          "type": "bytes32"
        }
      ],
      "stateMutability": "view",
      "type": "function",
      "constant": true
    },
    {
      "inputs": [],
      "name": "DEFAULT_ADMIN_ROLE",
      "outputs": [
        {
          "internalType": "bytes32",
          "name": "",
          "type": "bytes32"
        }
      ],
      "stateMutability": "view",
      "type": "function",
      "constant": true
    },
    {
      "inputs": [],
      "name": "INVESTIGATOR",
      "outputs": [
        {
          "internalType": "bytes32",
          "name": "",
          "type": "bytes32"
        }
      ],
      "stateMutability": "view",
      "type": "function",
      "constant": true
    },
    {
      "inputs": [],
      "name": "PATIENT",
      "outputs": [
        {
          "internalType": "bytes32",
          "name": "",
          "type": "bytes32"
        }
      ],
      "stateMutability": "view",
      "type": "function",
      "constant": true
    },
    {
      "inputs": [],
      "name": "PROMOTER",
      "outputs": [
        {
          "internalType": "bytes32",
          "name": "",
          "type": "bytes32"
        }
      ],
      "stateMutability": "view",
      "type": "function",
      "constant": true
    },
    {
      "inputs": [],
      "name": "PROMOTER_ADMIN",
      "outputs": [
        {
          "internalType": "bytes32",
          "name": "",
          "type": "bytes32"
        }
      ],
      "stateMutability": "view",
      "type": "function",
      "constant": true
    },
    {
      "inputs": [
        {
          "internalType": "uint256",
          "name": "",
          "type": "uint256"
        }
      ],
      "name": "authorities",
      "outputs": [
        {
          "internalType": "address",
          "name": "authority",
          "type": "address"
        },
        {
          "internalType": "string",
          "name": "cid",
          "type": "string"
        }
      ],
      "stateMutability": "view",
      "type": "function",
      "constant": true
    },
    {
      "inputs": [
        {
          "internalType": "bytes32",
          "name": "role",
          "type": "bytes32"
        }
      ],
      "name": "getRoleAdmin",
      "outputs": [
        {
          "internalType": "bytes32",
          "name": "",
          "type": "bytes32"
        }
      ],
      "stateMutability": "view",
      "type": "function",
      "constant": true
    },
    {
      "inputs": [
        {
          "internalType": "bytes32",
          "name": "role",
          "type": "bytes32"
        },
        {
          "internalType": "address",
          "name": "account",
          "type": "address"
        }
      ],
      "name": "grantRole",
      "outputs": [],
      "stateMutability": "nonpayable",
      "type": "function"
    },
    {
      "inputs": [
        {
          "internalType": "bytes32",
          "name": "role",
          "type": "bytes32"
        },
        {
          "internalType": "address",
          "name": "account",
          "type": "address"
        }
      ],
      "name": "hasRole",
      "outputs": [
        {
          "internalType": "bool",
          "name": "",
          "type": "bool"
        }
      ],
      "stateMutability": "view",
      "type": "function",
      "constant": true
    },
    {
      "inputs": [
        {
          "internalType": "uint256",
          "name": "",
          "type": "uint256"
        }
      ],
      "name": "investigators",
      "outputs": [
        {
          "internalType": "address",
          "name": "promoter",
          "type": "address"
        },
        {
          "internalType": "address",
          "name": "investigator",
          "type": "address"
        },
        {
          "internalType": "string",
          "name": "cid",
          "type": "string"
        }
      ],
      "stateMutability": "view",
      "type": "function",
      "constant": true
    },
    {
      "inputs": [],
      "name": "nbOfAuthorities",
      "outputs": [
        {
          "internalType": "uint256",
          "name": "",
          "type": "uint256"
        }
      ],
      "stateMutability": "view",
      "type": "function",
      "constant": true
    },
    {
      "inputs": [],
      "name": "nbOfInvestigators",
      "outputs": [
        {
          "internalType": "uint256",
          "name": "",
          "type": "uint256"
        }
      ],
      "stateMutability": "view",
      "type": "function",
      "constant": true
    },
    {
      "inputs": [],
      "name": "nbOfPatients",
      "outputs": [
        {
          "internalType": "uint256",
          "name": "",
          "type": "uint256"
        }
      ],
      "stateMutability": "view",
      "type": "function",
      "constant": true
    },
    {
      "inputs": [],
      "name": "nbOfPromoters",
      "outputs": [
        {
          "internalType": "uint256",
          "name": "",
          "type": "uint256"
        }
      ],
      "stateMutability": "view",
      "type": "function",
      "constant": true
    },
    {
      "inputs": [],
      "name": "nbOfProtocolsRegistered",
      "outputs": [
        {
          "internalType": "uint256",
          "name": "",
          "type": "uint256"
        }
      ],
      "stateMutability": "view",
      "type": "function",
      "constant": true
    },
    {
      "inputs": [
        {
          "internalType": "string",
          "name": "",
          "type": "string"
        }
      ],
      "name": "patients",
      "outputs": [
        {
          "internalType": "address",
          "name": "patient",
          "type": "address"
        },
        {
          "internalType": "address",
          "name": "investigator",
          "type": "address"
        },
        {
          "internalType": "string",
          "name": "protocolID",
          "type": "string"
        },
        {
          "internalType": "bool",
          "name": "consent",
          "type": "bool"
        }
      ],
      "stateMutability": "view",
      "type": "function",
      "constant": true
    },
    {
      "inputs": [
        {
          "internalType": "uint256",
          "name": "",
          "type": "uint256"
        }
      ],
      "name": "promoters",
      "outputs": [
        {
          "internalType": "address",
          "name": "promoter",
          "type": "address"
        },
        {
          "internalType": "string",
          "name": "cid",
          "type": "string"
        }
      ],
      "stateMutability": "view",
      "type": "function",
      "constant": true
    },
    {
      "inputs": [
        {
          "internalType": "string",
          "name": "",
          "type": "string"
        }
      ],
      "name": "protocols",
      "outputs": [
        {
          "internalType": "string",
          "name": "cid",
          "type": "string"
        },
        {
          "internalType": "address",
          "name": "promoter",
          "type": "address"
        },
        {
          "internalType": "address",
          "name": "investigator",
          "type": "address"
        },
        {
          "internalType": "bool",
          "name": "registered",
          "type": "bool"
        },
        {
          "internalType": "bool",
          "name": "authorized",
          "type": "bool"
        },
        {
          "internalType": "uint256",
          "name": "nbOfPatients",
          "type": "uint256"
        },
        {
          "internalType": "uint256",
          "name": "index",
          "type": "uint256"
        },
        {
          "internalType": "string",
          "name": "status",
          "type": "string"
        }
      ],
      "stateMutability": "view",
      "type": "function",
      "constant": true
    },
    {
      "inputs": [
        {
          "internalType": "uint256",
          "name": "",
          "type": "uint256"
        }
      ],
      "name": "protocolsID",
      "outputs": [
        {
          "internalType": "string",
          "name": "",
          "type": "string"
        }
      ],
      "stateMutability": "view",
      "type": "function",
      "constant": true
    },
    {
      "inputs": [
        {
          "internalType": "bytes32",
          "name": "role",
          "type": "bytes32"
        },
        {
          "internalType": "address",
          "name": "account",
          "type": "address"
        }
      ],
      "name": "renounceRole",
      "outputs": [],
      "stateMutability": "nonpayable",
      "type": "function"
    },
    {
      "inputs": [
        {
          "internalType": "bytes32",
          "name": "role",
          "type": "bytes32"
        },
        {
          "internalType": "address",
          "name": "account",
          "type": "address"
        }
      ],
      "name": "revokeRole",
      "outputs": [],
      "stateMutability": "nonpayable",
      "type": "function"
    },
    {
      "inputs": [
        {
          "internalType": "bytes4",
          "name": "interfaceId",
          "type": "bytes4"
        }
      ],
      "name": "supportsInterface",
      "outputs": [
        {
          "internalType": "bool",
          "name": "",
          "type": "bool"
        }
      ],
      "stateMutability": "view",
      "type": "function",
      "constant": true
    },
    {
      "inputs": [
        {
          "internalType": "address",
          "name": "_address",
          "type": "address"
        },
        {
          "internalType": "string",
          "name": "_cid",
          "type": "string"
        }
      ],
      "name": "addAuthority",
      "outputs": [],
      "stateMutability": "nonpayable",
      "type": "function"
    },
    {
      "inputs": [
        {
          "internalType": "address",
          "name": "_address",
          "type": "address"
        },
        {
          "internalType": "string",
          "name": "_cid",
          "type": "string"
        }
      ],
      "name": "addPromoter",
      "outputs": [],
      "stateMutability": "nonpayable",
      "type": "function"
    },
    {
      "inputs": [
        {
          "internalType": "address",
          "name": "_address",
          "type": "address"
        },
        {
          "internalType": "string",
          "name": "_cid",
          "type": "string"
        }
      ],
      "name": "addInvestigator",
      "outputs": [],
      "stateMutability": "nonpayable",
      "type": "function"
    },
    {
      "inputs": [
        {
          "internalType": "string",
          "name": "_id",
          "type": "string"
        },
        {
          "internalType": "string",
          "name": "_cid",
          "type": "string"
        },
        {
          "internalType": "string",
          "name": "center",
          "type": "string"
        },
        {
          "internalType": "string",
          "name": "category",
          "type": "string"
        },
        {
          "internalType": "address",
          "name": "_investigator",
          "type": "address"
        }
      ],
      "name": "registerProtocol",
      "outputs": [],
      "stateMutability": "nonpayable",
      "type": "function"
    },
    {
      "inputs": [
        {
          "internalType": "string",
          "name": "_id",
          "type": "string"
        }
      ],
      "name": "getProtocolCID",
      "outputs": [
        {
          "internalType": "string",
          "name": "",
          "type": "string"
        }
      ],
      "stateMutability": "view",
      "type": "function",
      "constant": true
    },
    {
      "inputs": [
        {
          "internalType": "string",
          "name": "_id",
          "type": "string"
        }
      ],
      "name": "validateProtocol",
      "outputs": [],
      "stateMutability": "nonpayable",
      "type": "function"
    },
    {
      "inputs": [
        {
          "internalType": "string",
          "name": "_id",
          "type": "string"
        }
      ],
      "name": "getProtocol",
      "outputs": [
        {
          "components": [
            {
              "internalType": "string",
              "name": "cid",
              "type": "string"
            },
            {
              "internalType": "address",
              "name": "promoter",
              "type": "address"
            },
            {
              "internalType": "address",
              "name": "investigator",
              "type": "address"
            },
            {
              "internalType": "bool",
              "name": "registered",
              "type": "bool"
            },
            {
              "internalType": "bool",
              "name": "authorized",
              "type": "bool"
            },
            {
              "internalType": "uint256",
              "name": "nbOfPatients",
              "type": "uint256"
            },
            {
              "internalType": "uint256",
              "name": "index",
              "type": "uint256"
            },
            {
              "internalType": "string",
              "name": "status",
              "type": "string"
            }
          ],
          "internalType": "struct MedTrials.Protocol",
          "name": "",
          "type": "tuple"
        }
      ],
      "stateMutability": "view",
      "type": "function",
      "constant": true
    },
    {
      "inputs": [
        {
          "internalType": "string",
          "name": "_patientID",
          "type": "string"
        },
        {
          "internalType": "address",
          "name": "_patientAddress",
          "type": "address"
        },
        {
          "internalType": "string",
          "name": "_protocolID",
          "type": "string"
        }
      ],
      "name": "addPatient",
      "outputs": [],
      "stateMutability": "nonpayable",
      "type": "function"
    },
    {
      "inputs": [
        {
          "internalType": "string",
          "name": "_patientID",
          "type": "string"
        }
      ],
      "name": "giveConsent",
      "outputs": [],
      "stateMutability": "nonpayable",
      "type": "function"
    },
    {
      "inputs": [
        {
          "internalType": "string",
          "name": "_patientID",
          "type": "string"
        }
      ],
      "name": "revokeConsent",
      "outputs": [],
      "stateMutability": "nonpayable",
      "type": "function"
    },
    {
      "inputs": [
        {
          "internalType": "string",
          "name": "_protocolID",
          "type": "string"
        }
      ],
      "name": "suspendTrials",
      "outputs": [],
      "stateMutability": "nonpayable",
      "type": "function"
    },
    {
      "inputs": [
        {
          "internalType": "string",
          "name": "_protocolID",
          "type": "string"
        }
      ],
      "name": "resumeTrials",
      "outputs": [],
      "stateMutability": "nonpayable",
      "type": "function"
    },
    {
      "inputs": [
        {
          "internalType": "string",
          "name": "_patientID",
          "type": "string"
        },
        {
          "internalType": "string",
          "name": "_cid",
          "type": "string"
        }
      ],
      "name": "storeDataCID",
      "outputs": [],
      "stateMutability": "nonpayable",
      "type": "function"
    },
    {
      "inputs": [
        {
          "internalType": "string",
          "name": "_patientID",
          "type": "string"
        }
      ],
      "name": "getDataCID",
      "outputs": [
        {
          "internalType": "string[]",
          "name": "",
          "type": "string[]"
        }
      ],
      "stateMutability": "view",
      "type": "function",
      "constant": true
    },
    {
      "inputs": [
        {
          "internalType": "string",
          "name": "_protocolID",
          "type": "string"
        }
      ],
      "name": "getProtocolStatus",
      "outputs": [
        {
          "internalType": "string",
          "name": "",
          "type": "string"
        }
      ],
      "stateMutability": "view",
      "type": "function",
      "constant": true
    },
    {
      "inputs": [
        {
          "internalType": "string",
          "name": "_protocolID",
          "type": "string"
        }
      ],
      "name": "numberOfPatientByProtocol",
      "outputs": [
        {
          "internalType": "uint256",
          "name": "",
          "type": "uint256"
        }
      ],
      "stateMutability": "view",
      "type": "function",
      "constant": true
    },
    {
      "inputs": [
        {
          "internalType": "address",
          "name": "_address",
          "type": "address"
        }
      ],
      "name": "getRole",
      "outputs": [
        {
          "internalType": "string",
          "name": "",
          "type": "string"
        }
      ],
      "stateMutability": "view",
      "type": "function",
      "constant": true
    },
    {
      "inputs": [
        {
          "internalType": "string",
          "name": "center",
          "type": "string"
        },
        {
          "internalType": "string",
          "name": "category",
          "type": "string"
        }
      ],
      "name": "getProtocoleNumerotation",
      "outputs": [
        {
          "internalType": "uint256",
          "name": "",
          "type": "uint256"
        }
      ],
      "stateMutability": "view",
      "type": "function",
      "constant": true
    }
  ],
  "bytecode": "0x60806040523480156200001157600080fd5b50604051620068b1380380620068b18339818101604052810190620000379190620007da565b6200004c6000801b846200039660201b60201c565b620000817f3e206be88d1de4207c0189003e17add3718b1a1bf78910a785940577239bbdae6000801b620003ac60201b60201c565b620000d37f843b48dccc6ff192f9330133622b0536f7b94feca0cf36e7e46fc50060b6f8827f3e206be88d1de4207c0189003e17add3718b1a1bf78910a785940577239bbdae620003ac60201b60201c565b620001087f47a6ab365f603cf120cb936195de17fd0bac3880ff606e7a0edb5e8e6580b1ae6000801b620003ac60201b60201c565b6200015a7f0996d044c7309cb5a01d79c18ee9e4c86aca84367cbd5bfd5f5d0606acc992737f47a6ab365f603cf120cb936195de17fd0bac3880ff606e7a0edb5e8e6580b1ae620003ac60201b60201c565b620001ac7f97f21e7273917267af1fea4c3510695aa29abe57349ce57ceec11b34688318037f0996d044c7309cb5a01d79c18ee9e4c86aca84367cbd5bfd5f5d0606acc99273620003ac60201b60201c565b620001fe7fe5786ee6f50ab1a5567cb3f3f6840a2f4ddbafdf4a35cb2c52d5b732b1e84a327f97f21e7273917267af1fea4c3510695aa29abe57349ce57ceec11b3468831803620003ac60201b60201c565b620002307f3e206be88d1de4207c0189003e17add3718b1a1bf78910a785940577239bbdae836200039660201b60201c565b620002627f47a6ab365f603cf120cb936195de17fd0bac3880ff606e7a0edb5e8e6580b1ae826200039660201b60201c565b620002776000801b846200040960201b60201c565b6040518060400160405280600f81526020017f415554484f524954592041444d494e0000000000000000000000000000000000815250600760008473ffffffffffffffffffffffffffffffffffffffff1673ffffffffffffffffffffffffffffffffffffffff16815260200190815260200160002090805190602001906200030192919062000713565b506040518060400160405280600e81526020017f50524f4d4f5445522041444d494e000000000000000000000000000000000000815250600760008373ffffffffffffffffffffffffffffffffffffffff1673ffffffffffffffffffffffffffffffffffffffff16815260200190815260200160002090805190602001906200038c92919062000713565b505050506200097e565b620003a882826200049f60201b60201c565b5050565b80620003be836200059060201b60201c565b837fbd79b86ffe0ab8e8776151514217cd7cacd52c909f66475c3af44e129f0b00ff60405160405180910390a480600080848152602001908152602001600020600101819055505050565b62000419620005af60201b60201c565b73ffffffffffffffffffffffffffffffffffffffff168173ffffffffffffffffffffffffffffffffffffffff161462000489576040517f08c379a0000000000000000000000000000000000000000000000000000000008152600401620004809062000898565b60405180910390fd5b6200049b8282620005b760201b60201c565b5050565b620004b18282620006a960201b60201c565b6200058c57600160008084815260200190815260200160002060000160008373ffffffffffffffffffffffffffffffffffffffff1673ffffffffffffffffffffffffffffffffffffffff16815260200190815260200160002060006101000a81548160ff02191690831515021790555062000531620005af60201b60201c565b73ffffffffffffffffffffffffffffffffffffffff168173ffffffffffffffffffffffffffffffffffffffff16837f2f8788117e7eff1d82e926ec794901d17c78024a50270940304540a733656f0d60405160405180910390a45b5050565b6000806000838152602001908152602001600020600101549050919050565b600033905090565b620005c98282620006a960201b60201c565b15620006a557600080600084815260200190815260200160002060000160008373ffffffffffffffffffffffffffffffffffffffff1673ffffffffffffffffffffffffffffffffffffffff16815260200190815260200160002060006101000a81548160ff0219169083151502179055506200064a620005af60201b60201c565b73ffffffffffffffffffffffffffffffffffffffff168173ffffffffffffffffffffffffffffffffffffffff16837ff6391f5c32d9c69d2a47ea670b442974b53935d1edc7fd64eb21e047a839171b60405160405180910390a45b5050565b600080600084815260200190815260200160002060000160008373ffffffffffffffffffffffffffffffffffffffff1673ffffffffffffffffffffffffffffffffffffffff16815260200190815260200160002060009054906101000a900460ff16905092915050565b8280546200072190620008ff565b90600052602060002090601f01602090048101928262000745576000855562000791565b82601f106200076057805160ff191683800117855562000791565b8280016001018555821562000791579182015b828111156200079057825182559160200191906001019062000773565b5b509050620007a09190620007a4565b5090565b5b80821115620007bf576000816000905550600101620007a5565b5090565b600081519050620007d48162000964565b92915050565b600080600060608486031215620007f057600080fd5b60006200080086828701620007c3565b93505060206200081386828701620007c3565b92505060406200082686828701620007c3565b9150509250925092565b60006200083f602f83620008ba565b91507f416363657373436f6e74726f6c3a2063616e206f6e6c792072656e6f756e636560008301527f20726f6c657320666f722073656c6600000000000000000000000000000000006020830152604082019050919050565b60006020820190508181036000830152620008b38162000830565b9050919050565b600082825260208201905092915050565b6000620008d882620008df565b9050919050565b600073ffffffffffffffffffffffffffffffffffffffff82169050919050565b600060028204905060018216806200091857607f821691505b602082108114156200092f576200092e62000935565b5b50919050565b7f4e487b7100000000000000000000000000000000000000000000000000000000600052602260045260246000fd5b6200096f81620008cb565b81146200097b57600080fd5b50565b615f23806200098e6000396000f3fe608060405234801561001057600080fd5b506004361061025e5760003560e01c806391d1485411610146578063cd5c3b2b116100c3578063eb3b0fc811610087578063eb3b0fc814610789578063ebc48391146107bb578063ec9f4bda146107d9578063ed5ea0d2146107f7578063f7f093b614610813578063fad4fcc7146108435761025e565b8063cd5c3b2b146106d1578063cf2a9a9314610701578063d547741f1461071f578063d751b1501461073b578063e1d862d91461076b5761025e565b8063c1bd2c201161010a578063c1bd2c2014610618578063c36f577514610636578063c4f3983014610652578063c6009d8414610682578063cb39dce5146106b55761025e565b806391d1485414610574578063a1a8316b146105a4578063a217fddf146105c0578063a24d9658146105de578063b62f9c74146105fa5761025e565b80633ca1d75f116101df578063591fe6da116101a3578063591fe6da1461049e5780635e49bdaf146104bc5780637ba3ae71146104d85780637beb410714610508578063834afa811461053857806389fcd796146105565761025e565b80633ca1d75f146103c05780633f0bee32146103dc578063442767331461040d578063484ed33e1461043d578063494503d41461046d5761025e565b80632de6388f116102265780632de6388f146103345780632f2ff15d146103505780632f77e62f1461036c57806336568abe14610388578063393618a7146103a45761025e565b806301ffc9a71461026357806309c1ce8b146102935780631dae9454146102af5780631f500061146102e6578063248a9ca314610304575b600080fd5b61027d600480360381019061027891906142b5565b610861565b60405161028a919061555a565b60405180910390f35b6102ad60048036038101906102a8919061440a565b6108db565b005b6102c960048036038101906102c491906142de565b610ed3565b6040516102dd9897969594939291906155f0565b60405180910390f35b6102ee61109b565b6040516102fb9190615575565b60405180910390f35b61031e60048036038101906103199190614250565b6110bf565b60405161032b9190615575565b60405180910390f35b61034e600480360381019061034991906142de565b6110de565b005b61036a60048036038101906103659190614279565b61125e565b005b610386600480360381019061038191906142de565b6112c4565b005b6103a2600480360381019061039d9190614279565b611444565b005b6103be60048036038101906103b991906141fc565b6114c7565b005b6103da60048036038101906103d591906141fc565b6118cc565b005b6103f660048036038101906103f191906144e1565b611cd1565b604051610404929190615508565b60405180910390f35b610427600480360381019061042291906141d3565b611d9d565b6040516104349190615590565b60405180910390f35b610457600480360381019061045291906142de565b611e6e565b6040516104649190615b75565b60405180910390f35b610487600480360381019061048291906144e1565b611e99565b604051610495929190615508565b60405180910390f35b6104a6611f65565b6040516104b39190615575565b60405180910390f35b6104d660048036038101906104d191906141fc565b611f89565b005b6104f260048036038101906104ed91906142de565b6123e5565b6040516104ff9190615590565b60405180910390f35b610522600480360381019061051d91906142de565b6126c6565b60405161052f9190615b53565b60405180910390f35b610540612a03565b60405161054d9190615b75565b60405180910390f35b61055e612a09565b60405161056b9190615575565b60405180910390f35b61058e60048036038101906105899190614279565b612a2d565b60405161059b919061555a565b60405180910390f35b6105be60048036038101906105b991906142de565b612a97565b005b6105c8612c53565b6040516105d59190615575565b60405180910390f35b6105f860048036038101906105f391906142de565b612c5a565b005b610602612e8d565b60405161060f9190615b75565b60405180910390f35b610620612e93565b60405161062d9190615575565b60405180910390f35b610650600480360381019061064b919061431f565b612eb7565b005b61066c6004803603810190610667919061439e565b61329c565b6040516106799190615b75565b60405180910390f35b61069c600480360381019061069791906142de565b6132ed565b6040516106ac94939291906154bc565b60405180910390f35b6106cf60048036038101906106ca919061439e565b613408565b005b6106eb60048036038101906106e691906144e1565b61362b565b6040516106f89190615590565b60405180910390f35b6107096136cb565b6040516107169190615575565b60405180910390f35b61073960048036038101906107349190614279565b6136ef565b005b610755600480360381019061075091906142de565b613755565b6040516107629190615590565b60405180910390f35b610773613808565b6040516107809190615b75565b60405180910390f35b6107a3600480360381019061079e91906144e1565b61380e565b6040516107b29392919061547e565b60405180910390f35b6107c3613900565b6040516107d09190615b75565b60405180910390f35b6107e1613906565b6040516107ee9190615575565b60405180910390f35b610811600480360381019061080c91906142de565b61392a565b005b61082d600480360381019061082891906142de565b613aba565b60405161083a9190615538565b60405180910390f35b61084b613d41565b6040516108589190615b75565b60405180910390f35b60007f7965db0b000000000000000000000000000000000000000000000000000000007bffffffffffffffffffffffffffffffffffffffffffffffffffffffff1916827bffffffffffffffffffffffffffffffffffffffffffffffffffffffff191614806108d457506108d382613d47565b5b9050919050565b6109057f0996d044c7309cb5a01d79c18ee9e4c86aca84367cbd5bfd5f5d0606acc9927333612a2d565b610944576040517f08c379a000000000000000000000000000000000000000000000000000000000815260040161093b906158d3565b60405180910390fd5b61096e7f0996d044c7309cb5a01d79c18ee9e4c86aca84367cbd5bfd5f5d0606acc9927382612a2d565b156109ae576040517f08c379a00000000000000000000000000000000000000000000000000000000081526004016109a590615973565b60405180910390fd5b6109d87f843b48dccc6ff192f9330133622b0536f7b94feca0cf36e7e46fc50060b6f88282612a2d565b15610a18576040517f08c379a0000000000000000000000000000000000000000000000000000000008152600401610a0f90615a13565b60405180910390fd5b610a427f47a6ab365f603cf120cb936195de17fd0bac3880ff606e7a0edb5e8e6580b1ae82612a2d565b15610a82576040517f08c379a0000000000000000000000000000000000000000000000000000000008152600401610a7990615793565b60405180910390fd5b610aac7f3e206be88d1de4207c0189003e17add3718b1a1bf78910a785940577239bbdae82612a2d565b15610aec576040517f08c379a0000000000000000000000000000000000000000000000000000000008152600401610ae390615833565b60405180910390fd5b600185604051610afc919061544c565b908152602001604051809103902060020160149054906101000a900460ff1615610b5b576040517f08c379a0000000000000000000000000000000000000000000000000000000008152600401610b52906159f3565b60405180910390fd5b33600186604051610b6c919061544c565b908152602001604051809103902060010160006101000a81548173ffffffffffffffffffffffffffffffffffffffff021916908373ffffffffffffffffffffffffffffffffffffffff16021790555080600186604051610bcc919061544c565b908152602001604051809103902060020160006101000a81548173ffffffffffffffffffffffffffffffffffffffff021916908373ffffffffffffffffffffffffffffffffffffffff16021790555060018086604051610c2c919061544c565b908152602001604051809103902060020160146101000a81548160ff02191690831515021790555083600186604051610c65919061544c565b90815260200160405180910390206000019080519060200190610c89929190613f7a565b506040518060400160405280600a81526020017f7265676973746572656400000000000000000000000000000000000000000000815250600186604051610cd0919061544c565b90815260200160405180910390206005019080519060200190610cf4929190613f7a565b50600954600186604051610d08919061544c565b908152602001604051809103902060040181905550846003600060095481526020019081526020016000209080519060200190610d46929190613f7a565b5060096000815480929190610d5a90615daa565b9190505550600883604051610d6f919061544c565b908152602001604051809103902082604051610d8b919061544c565b90815260200160405180910390206000815480929190610daa90615daa565b9190505550610dd97f97f21e7273917267af1fea4c3510695aa29abe57349ce57ceec11b346883180382612a2d565b610e9157610e077f97f21e7273917267af1fea4c3510695aa29abe57349ce57ceec11b34688318038261125e565b6040518060400160405280600c81526020017f494e56455354494741544f520000000000000000000000000000000000000000815250600760008373ffffffffffffffffffffffffffffffffffffffff1673ffffffffffffffffffffffffffffffffffffffff1681526020019081526020016000209080519060200190610e8f929190613f7a565b505b7fff88452d1e63b10e4f05e166bed6696de7594668e0e30daf24839937a0a27fee853383604051610ec4939291906155b2565b60405180910390a15050505050565b600181805160208101820180518482526020830160208501208183528095505050505050600091509050806000018054610f0c90615d78565b80601f0160208091040260200160405190810160405280929190818152602001828054610f3890615d78565b8015610f855780601f10610f5a57610100808354040283529160200191610f85565b820191906000526020600020905b815481529060010190602001808311610f6857829003601f168201915b5050505050908060010160009054906101000a900473ffffffffffffffffffffffffffffffffffffffff16908060020160009054906101000a900473ffffffffffffffffffffffffffffffffffffffff16908060020160149054906101000a900460ff16908060020160159054906101000a900460ff169080600301549080600401549080600501805461101890615d78565b80601f016020809104026020016040519081016040528092919081815260200182805461104490615d78565b80156110915780601f1061106657610100808354040283529160200191611091565b820191906000526020600020905b81548152906001019060200180831161107457829003601f168201915b5050505050905088565b7fe5786ee6f50ab1a5567cb3f3f6840a2f4ddbafdf4a35cb2c52d5b732b1e84a3281565b6000806000838152602001908152602001600020600101549050919050565b6111087f843b48dccc6ff192f9330133622b0536f7b94feca0cf36e7e46fc50060b6f88233612a2d565b611147576040517f08c379a000000000000000000000000000000000000000000000000000000000815260040161113e90615733565b60405180910390fd5b600181604051611157919061544c565b908152602001604051809103902060020160159054906101000a900460ff161561118057600080fd5b60018082604051611191919061544c565b908152602001604051809103902060020160156101000a81548160ff0219169083151502179055506040518060400160405280600781526020017f726573756d6564000000000000000000000000000000000000000000000000008152506001826040516111ff919061544c565b90815260200160405180910390206005019080519060200190611223929190613f7a565b507fd1c688ddb9e9baabcd8e5f84a85f4933173bc6600b2f361087b41cd9304e2920816040516112539190615590565b60405180910390a150565b61127761126a836110bf565b611272613db1565b612a2d565b6112b6576040517f08c379a00000000000000000000000000000000000000000000000000000000081526004016112ad906156f3565b60405180910390fd5b6112c08282613db9565b5050565b6112ee7f843b48dccc6ff192f9330133622b0536f7b94feca0cf36e7e46fc50060b6f88233612a2d565b61132d576040517f08c379a000000000000000000000000000000000000000000000000000000000815260040161132490615733565b60405180910390fd5b60018160405161133d919061544c565b908152602001604051809103902060020160159054906101000a900460ff1661136557600080fd5b6000600182604051611377919061544c565b908152602001604051809103902060020160156101000a81548160ff0219169083151502179055506040518060400160405280600981526020017f73757370656e64656400000000000000000000000000000000000000000000008152506001826040516113e5919061544c565b90815260200160405180910390206005019080519060200190611409929190613f7a565b507fb9f86d562ae4d5d427f505b81f74024716097f50538bc3d5a16f0716ca399559816040516114399190615590565b60405180910390a150565b61144c613db1565b73ffffffffffffffffffffffffffffffffffffffff168173ffffffffffffffffffffffffffffffffffffffff16146114b9576040517f08c379a00000000000000000000000000000000000000000000000000000000081526004016114b090615af3565b60405180910390fd5b6114c38282613e99565b5050565b6114f17f47a6ab365f603cf120cb936195de17fd0bac3880ff606e7a0edb5e8e6580b1ae33612a2d565b611530576040517f08c379a0000000000000000000000000000000000000000000000000000000008152600401611527906157b3565b60405180910390fd5b61155a7f0996d044c7309cb5a01d79c18ee9e4c86aca84367cbd5bfd5f5d0606acc9927383612a2d565b1561159a576040517f08c379a000000000000000000000000000000000000000000000000000000000815260040161159190615913565b60405180910390fd5b6115c47f97f21e7273917267af1fea4c3510695aa29abe57349ce57ceec11b346883180383612a2d565b15611604576040517f08c379a00000000000000000000000000000000000000000000000000000000081526004016115fb90615753565b60405180910390fd5b61162e7f843b48dccc6ff192f9330133622b0536f7b94feca0cf36e7e46fc50060b6f88283612a2d565b1561166e576040517f08c379a0000000000000000000000000000000000000000000000000000000008152600401611665906158b3565b60405180910390fd5b6116987f47a6ab365f603cf120cb936195de17fd0bac3880ff606e7a0edb5e8e6580b1ae83612a2d565b156116d8576040517f08c379a00000000000000000000000000000000000000000000000000000000081526004016116cf90615b13565b60405180910390fd5b6117027f3e206be88d1de4207c0189003e17add3718b1a1bf78910a785940577239bbdae83612a2d565b15611742576040517f08c379a0000000000000000000000000000000000000000000000000000000008152600401611739906156b3565b60405180910390fd5b61176c7f0996d044c7309cb5a01d79c18ee9e4c86aca84367cbd5bfd5f5d0606acc992738361125e565b6040518060400160405280600881526020017f50524f4d4f544552000000000000000000000000000000000000000000000000815250600760008473ffffffffffffffffffffffffffffffffffffffff1673ffffffffffffffffffffffffffffffffffffffff16815260200190815260200160002090805190602001906117f4929190613f7a565b508060046000600b5481526020019081526020016000206001019080519060200190611821929190613f7a565b508160046000600b54815260200190815260200160002060000160006101000a81548173ffffffffffffffffffffffffffffffffffffffff021916908373ffffffffffffffffffffffffffffffffffffffff160217905550600b600081548092919061188c90615daa565b91905055507f786ebfd921e487d94a7dbf555edf33e5f264f7b59acdcdfe139c08f48f075559826040516118c09190615463565b60405180910390a15050565b6118f67f3e206be88d1de4207c0189003e17add3718b1a1bf78910a785940577239bbdae33612a2d565b611935576040517f08c379a000000000000000000000000000000000000000000000000000000000815260040161192c906156d3565b60405180910390fd5b61195f7f843b48dccc6ff192f9330133622b0536f7b94feca0cf36e7e46fc50060b6f88283612a2d565b1561199f576040517f08c379a000000000000000000000000000000000000000000000000000000000815260040161199690615893565b60405180910390fd5b6119c97f0996d044c7309cb5a01d79c18ee9e4c86aca84367cbd5bfd5f5d0606acc9927383612a2d565b15611a09576040517f08c379a0000000000000000000000000000000000000000000000000000000008152600401611a00906159b3565b60405180910390fd5b611a337f97f21e7273917267af1fea4c3510695aa29abe57349ce57ceec11b346883180383612a2d565b15611a73576040517f08c379a0000000000000000000000000000000000000000000000000000000008152600401611a6a90615753565b60405180910390fd5b611a9d7f47a6ab365f603cf120cb936195de17fd0bac3880ff606e7a0edb5e8e6580b1ae83612a2d565b15611add576040517f08c379a0000000000000000000000000000000000000000000000000000000008152600401611ad490615b13565b60405180910390fd5b611b077f3e206be88d1de4207c0189003e17add3718b1a1bf78910a785940577239bbdae83612a2d565b15611b47576040517f08c379a0000000000000000000000000000000000000000000000000000000008152600401611b3e906156b3565b60405180910390fd5b611b717f843b48dccc6ff192f9330133622b0536f7b94feca0cf36e7e46fc50060b6f8828361125e565b6040518060400160405280600981526020017f415554484f524954590000000000000000000000000000000000000000000000815250600760008473ffffffffffffffffffffffffffffffffffffffff1673ffffffffffffffffffffffffffffffffffffffff1681526020019081526020016000209080519060200190611bf9929190613f7a565b508060066000600d5481526020019081526020016000206001019080519060200190611c26929190613f7a565b508160066000600d54815260200190815260200160002060000160006101000a81548173ffffffffffffffffffffffffffffffffffffffff021916908373ffffffffffffffffffffffffffffffffffffffff160217905550600d6000815480929190611c9190615daa565b91905055507f3c0aee07d693a6f94b1a6aca6097bdde55429f0834eb9c27e3c31a03081f09b482604051611cc59190615463565b60405180910390a15050565b60046020528060005260406000206000915090508060000160009054906101000a900473ffffffffffffffffffffffffffffffffffffffff1690806001018054611d1a90615d78565b80601f0160208091040260200160405190810160405280929190818152602001828054611d4690615d78565b8015611d935780601f10611d6857610100808354040283529160200191611d93565b820191906000526020600020905b815481529060010190602001808311611d7657829003601f168201915b5050505050905082565b6060600760008373ffffffffffffffffffffffffffffffffffffffff1673ffffffffffffffffffffffffffffffffffffffff1681526020019081526020016000208054611de990615d78565b80601f0160208091040260200160405190810160405280929190818152602001828054611e1590615d78565b8015611e625780601f10611e3757610100808354040283529160200191611e62565b820191906000526020600020905b815481529060010190602001808311611e4557829003601f168201915b50505050509050919050565b6000600182604051611e80919061544c565b9081526020016040518091039020600301549050919050565b60066020528060005260406000206000915090508060000160009054906101000a900473ffffffffffffffffffffffffffffffffffffffff1690806001018054611ee290615d78565b80601f0160208091040260200160405190810160405280929190818152602001828054611f0e90615d78565b8015611f5b5780601f10611f3057610100808354040283529160200191611f5b565b820191906000526020600020905b815481529060010190602001808311611f3e57829003601f168201915b5050505050905082565b7f3e206be88d1de4207c0189003e17add3718b1a1bf78910a785940577239bbdae81565b611fb37f0996d044c7309cb5a01d79c18ee9e4c86aca84367cbd5bfd5f5d0606acc9927333612a2d565b611ff2576040517f08c379a0000000000000000000000000000000000000000000000000000000008152600401611fe990615873565b60405180910390fd5b61201c7f97f21e7273917267af1fea4c3510695aa29abe57349ce57ceec11b346883180383612a2d565b1561205c576040517f08c379a000000000000000000000000000000000000000000000000000000000815260040161205390615933565b60405180910390fd5b6120867f0996d044c7309cb5a01d79c18ee9e4c86aca84367cbd5bfd5f5d0606acc9927383612a2d565b156120c6576040517f08c379a00000000000000000000000000000000000000000000000000000000081526004016120bd906159b3565b60405180910390fd5b6120f07f843b48dccc6ff192f9330133622b0536f7b94feca0cf36e7e46fc50060b6f88283612a2d565b15612130576040517f08c379a0000000000000000000000000000000000000000000000000000000008152600401612127906158b3565b60405180910390fd5b61215a7f47a6ab365f603cf120cb936195de17fd0bac3880ff606e7a0edb5e8e6580b1ae83612a2d565b1561219a576040517f08c379a000000000000000000000000000000000000000000000000000000000815260040161219190615b13565b60405180910390fd5b6121c47f3e206be88d1de4207c0189003e17add3718b1a1bf78910a785940577239bbdae83612a2d565b15612204576040517f08c379a00000000000000000000000000000000000000000000000000000000081526004016121fb906156b3565b60405180910390fd5b61222e7f97f21e7273917267af1fea4c3510695aa29abe57349ce57ceec11b34688318038361125e565b6040518060400160405280600c81526020017f494e56455354494741544f520000000000000000000000000000000000000000815250600760008473ffffffffffffffffffffffffffffffffffffffff1673ffffffffffffffffffffffffffffffffffffffff16815260200190815260200160002090805190602001906122b6929190613f7a565b508060056000600c54815260200190815260200160002060020190805190602001906122e3929190613f7a565b503360056000600c54815260200190815260200160002060000160006101000a81548173ffffffffffffffffffffffffffffffffffffffff021916908373ffffffffffffffffffffffffffffffffffffffff1602179055508160056000600c54815260200190815260200160002060010160006101000a81548173ffffffffffffffffffffffffffffffffffffffff021916908373ffffffffffffffffffffffffffffffffffffffff160217905550600c60008154809291906123a590615daa565b91905055507fe8418412d360af43b959e2ca49b9ad98feb77e7b5597963ca346077db47d69ba826040516123d99190615463565b60405180910390a15050565b60606124117f0996d044c7309cb5a01d79c18ee9e4c86aca84367cbd5bfd5f5d0606acc9927333612a2d565b8061244257506124417f97f21e7273917267af1fea4c3510695aa29abe57349ce57ceec11b346883180333612a2d565b5b612481576040517f08c379a000000000000000000000000000000000000000000000000000000000815260040161247890615713565b60405180910390fd5b3373ffffffffffffffffffffffffffffffffffffffff166001836040516124a8919061544c565b908152602001604051809103902060010160009054906101000a900473ffffffffffffffffffffffffffffffffffffffff1673ffffffffffffffffffffffffffffffffffffffff16148061256857503373ffffffffffffffffffffffffffffffffffffffff1660018360405161251e919061544c565b908152602001604051809103902060020160009054906101000a900473ffffffffffffffffffffffffffffffffffffffff1673ffffffffffffffffffffffffffffffffffffffff16145b6125a7576040517f08c379a000000000000000000000000000000000000000000000000000000000815260040161259e906157f3565b60405180910390fd5b6001826040516125b7919061544c565b908152602001604051809103902060020160159054906101000a900460ff16612615576040517f08c379a000000000000000000000000000000000000000000000000000000000815260040161260c90615a73565b60405180910390fd5b600182604051612625919061544c565b9081526020016040518091039020600001805461264190615d78565b80601f016020809104026020016040519081016040528092919081815260200182805461266d90615d78565b80156126ba5780601f1061268f576101008083540402835291602001916126ba565b820191906000526020600020905b81548152906001019060200180831161269d57829003601f168201915b50505050509050919050565b6126ce614000565b600115156001836040516126e2919061544c565b908152602001604051809103902060020160149054906101000a900460ff16151514612743576040517f08c379a000000000000000000000000000000000000000000000000000000000815260040161273a906157d3565b60405180910390fd5b60011515600183604051612757919061544c565b908152602001604051809103902060020160159054906101000a900460ff161515146127b8576040517f08c379a00000000000000000000000000000000000000000000000000000000081526004016127af90615b33565b60405180910390fd5b6001826040516127c8919061544c565b9081526020016040518091039020604051806101000160405290816000820180546127f290615d78565b80601f016020809104026020016040519081016040528092919081815260200182805461281e90615d78565b801561286b5780601f106128405761010080835404028352916020019161286b565b820191906000526020600020905b81548152906001019060200180831161284e57829003601f168201915b505050505081526020016001820160009054906101000a900473ffffffffffffffffffffffffffffffffffffffff1673ffffffffffffffffffffffffffffffffffffffff1673ffffffffffffffffffffffffffffffffffffffff1681526020016002820160009054906101000a900473ffffffffffffffffffffffffffffffffffffffff1673ffffffffffffffffffffffffffffffffffffffff1673ffffffffffffffffffffffffffffffffffffffff1681526020016002820160149054906101000a900460ff161515151581526020016002820160159054906101000a900460ff16151515158152602001600382015481526020016004820154815260200160058201805461297a90615d78565b80601f01602080910402602001604051908101604052809291908181526020018280546129a690615d78565b80156129f35780601f106129c8576101008083540402835291602001916129f3565b820191906000526020600020905b8154815290600101906020018083116129d657829003601f168201915b5050505050815250509050919050565b600a5481565b7f843b48dccc6ff192f9330133622b0536f7b94feca0cf36e7e46fc50060b6f88281565b600080600084815260200190815260200160002060000160008373ffffffffffffffffffffffffffffffffffffffff1673ffffffffffffffffffffffffffffffffffffffff16815260200190815260200160002060009054906101000a900460ff16905092915050565b612ac17f843b48dccc6ff192f9330133622b0536f7b94feca0cf36e7e46fc50060b6f88233612a2d565b612b00576040517f08c379a0000000000000000000000000000000000000000000000000000000008152600401612af790615ad3565b60405180910390fd5b60011515600182604051612b14919061544c565b908152602001604051809103902060020160149054906101000a900460ff16151514612b75576040517f08c379a0000000000000000000000000000000000000000000000000000000008152600401612b6c90615a93565b60405180910390fd5b60018082604051612b86919061544c565b908152602001604051809103902060020160156101000a81548160ff0219169083151502179055506040518060400160405280600981526020017f76616c6964617465640000000000000000000000000000000000000000000000815250600182604051612bf4919061544c565b90815260200160405180910390206005019080519060200190612c18929190613f7a565b507fbc0e66a9d9a6660141870110fa7932ebb7fe171d5e52ee9a42674665105f1d1b81604051612c489190615590565b60405180910390a150565b6000801b81565b600281604051612c6a919061544c565b908152602001604051809103902060000160009054906101000a900473ffffffffffffffffffffffffffffffffffffffff1673ffffffffffffffffffffffffffffffffffffffff163373ffffffffffffffffffffffffffffffffffffffff1614612d09576040517f08c379a0000000000000000000000000000000000000000000000000000000008152600401612d0090615953565b60405180910390fd5b60011515600282604051612d1d919061544c565b908152602001604051809103902060030160009054906101000a900460ff16151514612d7e576040517f08c379a0000000000000000000000000000000000000000000000000000000008152600401612d7590615a33565b60405180910390fd5b60001515600282604051612d92919061544c565b908152602001604051809103902060030160009054906101000a90505050600281604051612dc0919061544c565b9081526020016040518091039020600080820160006101000a81549073ffffffffffffffffffffffffffffffffffffffff02191690556001820160006101000a81549073ffffffffffffffffffffffffffffffffffffffff0219169055600282016000612e2d9190614075565b6003820160006101000a81549060ff0219169055600482016000612e5191906140b5565b50507f1a24299bbcab71cb3013c24c40adca455867472f22ae6d056e4e0cb2bb0e5a7381604051612e829190615590565b60405180910390a150565b600d5481565b7f47a6ab365f603cf120cb936195de17fd0bac3880ff606e7a0edb5e8e6580b1ae81565b612ee17f97f21e7273917267af1fea4c3510695aa29abe57349ce57ceec11b346883180333612a2d565b612f20576040517f08c379a0000000000000000000000000000000000000000000000000000000008152600401612f1790615993565b60405180910390fd5b60011515600182604051612f34919061544c565b908152602001604051809103902060020160159054906101000a900460ff16151514612f95576040517f08c379a0000000000000000000000000000000000000000000000000000000008152600401612f8c90615813565b60405180910390fd5b600181604051612fa5919061544c565b908152602001604051809103902060020160009054906101000a900473ffffffffffffffffffffffffffffffffffffffff1673ffffffffffffffffffffffffffffffffffffffff163373ffffffffffffffffffffffffffffffffffffffff1614613044576040517f08c379a000000000000000000000000000000000000000000000000000000000815260040161303b90615773565b60405180910390fd5b6001600284604051613056919061544c565b908152602001604051809103902060030160006101000a81548160ff0219169083151502179055508160028460405161308f919061544c565b908152602001604051809103902060000160006101000a81548173ffffffffffffffffffffffffffffffffffffffff021916908373ffffffffffffffffffffffffffffffffffffffff160217905550336002846040516130ef919061544c565b908152602001604051809103902060010160006101000a81548173ffffffffffffffffffffffffffffffffffffffff021916908373ffffffffffffffffffffffffffffffffffffffff1602179055508060028460405161314f919061544c565b90815260200160405180910390206002019080519060200190613173929190613f7a565b50600181604051613184919061544c565b908152602001604051809103902060030160008154809291906131a690615daa565b91905055506131d57fe5786ee6f50ab1a5567cb3f3f6840a2f4ddbafdf4a35cb2c52d5b732b1e84a328361125e565b6040518060400160405280600781526020017f50415449454e5400000000000000000000000000000000000000000000000000815250600760008473ffffffffffffffffffffffffffffffffffffffff1673ffffffffffffffffffffffffffffffffffffffff168152602001908152602001600020908051906020019061325d929190613f7a565b507f76b4f38e7ada56c131a0c796e7382093d7b5a69175ca0bf513f5827f60f5314d838260405161328f92919061567c565b60405180910390a1505050565b600060016008846040516132b0919061544c565b9081526020016040518091039020836040516132cc919061544c565b9081526020016040518091039020546132e59190615c62565b905092915050565b6002818051602081018201805184825260208301602085012081835280955050505050506000915090508060000160009054906101000a900473ffffffffffffffffffffffffffffffffffffffff16908060010160009054906101000a900473ffffffffffffffffffffffffffffffffffffffff169080600201805461337290615d78565b80601f016020809104026020016040519081016040528092919081815260200182805461339e90615d78565b80156133eb5780601f106133c0576101008083540402835291602001916133eb565b820191906000526020600020905b8154815290600101906020018083116133ce57829003601f168201915b5050505050908060030160009054906101000a900460ff16905084565b6134327f97f21e7273917267af1fea4c3510695aa29abe57349ce57ceec11b346883180333612a2d565b613471576040517f08c379a0000000000000000000000000000000000000000000000000000000008152600401613468906158f3565b60405180910390fd5b600282604051613481919061544c565b908152602001604051809103902060010160009054906101000a900473ffffffffffffffffffffffffffffffffffffffff1673ffffffffffffffffffffffffffffffffffffffff163373ffffffffffffffffffffffffffffffffffffffff1614613520576040517f08c379a000000000000000000000000000000000000000000000000000000000815260040161351790615ab3565b60405180910390fd5b60011515600283604051613534919061544c565b908152602001604051809103902060030160009054906101000a900460ff16151514613595576040517f08c379a000000000000000000000000000000000000000000000000000000000815260040161358c90615a53565b60405180910390fd5b6002826040516135a5919061544c565b9081526020016040518091039020600401819080600181540180825580915050600190039060005260206000200160009091909190915090805190602001906135ef929190613f7a565b507f2fd00fee6fba014584e65a085e3eb131b03ff5c389c44c3cf9e857d52c1650d68160405161361f9190615590565b60405180910390a15050565b6003602052806000526040600020600091509050805461364a90615d78565b80601f016020809104026020016040519081016040528092919081815260200182805461367690615d78565b80156136c35780601f10613698576101008083540402835291602001916136c3565b820191906000526020600020905b8154815290600101906020018083116136a657829003601f168201915b505050505081565b7f97f21e7273917267af1fea4c3510695aa29abe57349ce57ceec11b346883180381565b6137086136fb836110bf565b613703613db1565b612a2d565b613747576040517f08c379a000000000000000000000000000000000000000000000000000000000815260040161373e90615853565b60405180910390fd5b6137518282613e99565b5050565b6060600182604051613767919061544c565b9081526020016040518091039020600501805461378390615d78565b80601f01602080910402602001604051908101604052809291908181526020018280546137af90615d78565b80156137fc5780601f106137d1576101008083540402835291602001916137fc565b820191906000526020600020905b8154815290600101906020018083116137df57829003601f168201915b50505050509050919050565b600b5481565b60056020528060005260406000206000915090508060000160009054906101000a900473ffffffffffffffffffffffffffffffffffffffff16908060010160009054906101000a900473ffffffffffffffffffffffffffffffffffffffff169080600201805461387d90615d78565b80601f01602080910402602001604051908101604052809291908181526020018280546138a990615d78565b80156138f65780601f106138cb576101008083540402835291602001916138f6565b820191906000526020600020905b8154815290600101906020018083116138d957829003601f168201915b5050505050905083565b60095481565b7f0996d044c7309cb5a01d79c18ee9e4c86aca84367cbd5bfd5f5d0606acc9927381565b60028160405161393a919061544c565b908152602001604051809103902060000160009054906101000a900473ffffffffffffffffffffffffffffffffffffffff1673ffffffffffffffffffffffffffffffffffffffff163373ffffffffffffffffffffffffffffffffffffffff16146139d9576040517f08c379a00000000000000000000000000000000000000000000000000000000081526004016139d090615953565b60405180910390fd5b600015156002826040516139ed919061544c565b908152602001604051809103902060030160009054906101000a900460ff16151514613a4e576040517f08c379a0000000000000000000000000000000000000000000000000000000008152600401613a45906159d3565b60405180910390fd5b60011515600282604051613a62919061544c565b908152602001604051809103902060030160009054906101000a905050507fbf0bdf0dac0f40e06b9d86448186b0585c751a20ebbf3541074e23bb229e4f8181604051613aaf9190615590565b60405180910390a150565b6060613ae67f97f21e7273917267af1fea4c3510695aa29abe57349ce57ceec11b346883180333612a2d565b613b25576040517f08c379a0000000000000000000000000000000000000000000000000000000008152600401613b1c906158f3565b60405180910390fd5b600282604051613b35919061544c565b908152602001604051809103902060010160009054906101000a900473ffffffffffffffffffffffffffffffffffffffff1673ffffffffffffffffffffffffffffffffffffffff163373ffffffffffffffffffffffffffffffffffffffff1614613bd4576040517f08c379a0000000000000000000000000000000000000000000000000000000008152600401613bcb90615ab3565b60405180910390fd5b60011515600283604051613be8919061544c565b908152602001604051809103902060030160009054906101000a900460ff16151514613c49576040517f08c379a0000000000000000000000000000000000000000000000000000000008152600401613c4090615a53565b60405180910390fd5b600282604051613c59919061544c565b9081526020016040518091039020600401805480602002602001604051908101604052809291908181526020016000905b82821015613d36578382906000526020600020018054613ca990615d78565b80601f0160208091040260200160405190810160405280929190818152602001828054613cd590615d78565b8015613d225780601f10613cf757610100808354040283529160200191613d22565b820191906000526020600020905b815481529060010190602001808311613d0557829003601f168201915b505050505081526020019060010190613c8a565b505050509050919050565b600c5481565b60007f01ffc9a7000000000000000000000000000000000000000000000000000000007bffffffffffffffffffffffffffffffffffffffffffffffffffffffff1916827bffffffffffffffffffffffffffffffffffffffffffffffffffffffff1916149050919050565b600033905090565b613dc38282612a2d565b613e9557600160008084815260200190815260200160002060000160008373ffffffffffffffffffffffffffffffffffffffff1673ffffffffffffffffffffffffffffffffffffffff16815260200190815260200160002060006101000a81548160ff021916908315150217905550613e3a613db1565b73ffffffffffffffffffffffffffffffffffffffff168173ffffffffffffffffffffffffffffffffffffffff16837f2f8788117e7eff1d82e926ec794901d17c78024a50270940304540a733656f0d60405160405180910390a45b5050565b613ea38282612a2d565b15613f7657600080600084815260200190815260200160002060000160008373ffffffffffffffffffffffffffffffffffffffff1673ffffffffffffffffffffffffffffffffffffffff16815260200190815260200160002060006101000a81548160ff021916908315150217905550613f1b613db1565b73ffffffffffffffffffffffffffffffffffffffff168173ffffffffffffffffffffffffffffffffffffffff16837ff6391f5c32d9c69d2a47ea670b442974b53935d1edc7fd64eb21e047a839171b60405160405180910390a45b5050565b828054613f8690615d78565b90600052602060002090601f016020900481019282613fa85760008555613fef565b82601f10613fc157805160ff1916838001178555613fef565b82800160010185558215613fef579182015b82811115613fee578251825591602001919060010190613fd3565b5b509050613ffc91906140d6565b5090565b60405180610100016040528060608152602001600073ffffffffffffffffffffffffffffffffffffffff168152602001600073ffffffffffffffffffffffffffffffffffffffff1681526020016000151581526020016000151581526020016000815260200160008152602001606081525090565b50805461408190615d78565b6000825580601f1061409357506140b2565b601f0160209004906000526020600020908101906140b191906140d6565b5b50565b50805460008255906000526020600020908101906140d391906140f3565b50565b5b808211156140ef5760008160009055506001016140d7565b5090565b5b80821115614113576000818161410a9190614075565b506001016140f4565b5090565b600061412a61412584615bc1565b615b90565b90508281526020810184848401111561414257600080fd5b61414d848285615d36565b509392505050565b60008135905061416481615e91565b92915050565b60008135905061417981615ea8565b92915050565b60008135905061418e81615ebf565b92915050565b600082601f8301126141a557600080fd5b81356141b5848260208601614117565b91505092915050565b6000813590506141cd81615ed6565b92915050565b6000602082840312156141e557600080fd5b60006141f384828501614155565b91505092915050565b6000806040838503121561420f57600080fd5b600061421d85828601614155565b925050602083013567ffffffffffffffff81111561423a57600080fd5b61424685828601614194565b9150509250929050565b60006020828403121561426257600080fd5b60006142708482850161416a565b91505092915050565b6000806040838503121561428c57600080fd5b600061429a8582860161416a565b92505060206142ab85828601614155565b9150509250929050565b6000602082840312156142c757600080fd5b60006142d58482850161417f565b91505092915050565b6000602082840312156142f057600080fd5b600082013567ffffffffffffffff81111561430a57600080fd5b61431684828501614194565b91505092915050565b60008060006060848603121561433457600080fd5b600084013567ffffffffffffffff81111561434e57600080fd5b61435a86828701614194565b935050602061436b86828701614155565b925050604084013567ffffffffffffffff81111561438857600080fd5b61439486828701614194565b9150509250925092565b600080604083850312156143b157600080fd5b600083013567ffffffffffffffff8111156143cb57600080fd5b6143d785828601614194565b925050602083013567ffffffffffffffff8111156143f457600080fd5b61440085828601614194565b9150509250929050565b600080600080600060a0868803121561442257600080fd5b600086013567ffffffffffffffff81111561443c57600080fd5b61444888828901614194565b955050602086013567ffffffffffffffff81111561446557600080fd5b61447188828901614194565b945050604086013567ffffffffffffffff81111561448e57600080fd5b61449a88828901614194565b935050606086013567ffffffffffffffff8111156144b757600080fd5b6144c388828901614194565b92505060806144d488828901614155565b9150509295509295909350565b6000602082840312156144f357600080fd5b6000614501848285016141be565b91505092915050565b600061451683836145de565b905092915050565b61452781615cb8565b82525050565b61453681615cb8565b82525050565b600061454782615c01565b6145518185615c24565b93508360208202850161456385615bf1565b8060005b8581101561459f5784840389528151614580858261450a565b945061458b83615c17565b925060208a01995050600181019050614567565b50829750879550505050505092915050565b6145ba81615cca565b82525050565b6145c981615cca565b82525050565b6145d881615cd6565b82525050565b60006145e982615c0c565b6145f38185615c35565b9350614603818560208601615d45565b61460c81615e80565b840191505092915050565b600061462282615c0c565b61462c8185615c46565b935061463c818560208601615d45565b61464581615e80565b840191505092915050565b600061465b82615c0c565b6146658185615c57565b9350614675818560208601615d45565b80840191505092915050565b600061468e601a83615c46565b91507f596f752061726520616e20617574686f726974792061646d696e0000000000006000830152602082019050919050565b60006146ce602e83615c46565b91507f4f6e6c792074686520617574686f726974792061646d696e2063616e2061646460008301527f20696e76657374696761746f72730000000000000000000000000000000000006020830152604082019050919050565b6000614734602f83615c46565b91507f416363657373436f6e74726f6c3a2073656e646572206d75737420626520616e60008301527f2061646d696e20746f206772616e7400000000000000000000000000000000006020830152604082019050919050565b600061479a603083615c46565b91507f6f6e6c792070726f6d6f7465727320616e6420696e76657374696761746f727360008301527f20686176652074686973207269676874000000000000000000000000000000006020830152604082019050919050565b6000614800602483615c46565b91507f4f6e6c7920617574686f726969746965732063616e2073757370656e6420747260008301527f69616c73000000000000000000000000000000000000000000000000000000006020830152604082019050919050565b6000614866601783615c46565b91507f596f752061726520616e20696e76657374696761746f720000000000000000006000830152602082019050919050565b60006148a6603683615c46565b91507f596f7520646f206e6f74206861766520726967687420746f206164642070617460008301527f69656e747320746f20746869732070726f746f636f6c000000000000000000006020830152604082019050919050565b600061490c602983615c46565b91507f50726f6d6f746572732061646d696e2063616e6e6f7420626520616e20696e7660008301527f657374696761746f7200000000000000000000000000000000000000000000006020830152604082019050919050565b6000614972602d83615c46565b91507f4f6e6c79207468652070726f6d6f746f722061646d696e2063616e206164642060008301527f696e76657374696761746f7273000000000000000000000000000000000000006020830152604082019050919050565b60006149d8602183615c46565b91507f5468657265206973206e6f2070726f746f636f6c20776974682074686973206960008301527f64000000000000000000000000000000000000000000000000000000000000006020830152604082019050919050565b6000614a3e602a83615c46565b91507f596f7520646f206e6f74206861766520726967687420746f206f70656e20746860008301527f69732070726f6a656374000000000000000000000000000000000000000000006020830152604082019050919050565b6000614aa4602983615c46565b91507f546869732070726f746f636f6c20686173206e6f74206265656e20617574686f60008301527f72697a65642079657400000000000000000000000000000000000000000000006020830152604082019050919050565b6000614b0a602b83615c46565b91507f417574686f7269746965732061646d696e2063616e6e6f7420626520616e206960008301527f6e76657374696761746f720000000000000000000000000000000000000000006020830152604082019050919050565b6000614b70603083615c46565b91507f416363657373436f6e74726f6c3a2073656e646572206d75737420626520616e60008301527f2061646d696e20746f207265766f6b65000000000000000000000000000000006020830152604082019050919050565b6000614bd6602783615c46565b91507f4f6e6c79207468652070726f6d6f746f722063616e2061646420696e7665737460008301527f696761746f7273000000000000000000000000000000000000000000000000006020830152604082019050919050565b6000614c3c601c83615c46565b91507f596f752061726520616c726561647920616e20617574686f72697479000000006000830152602082019050919050565b6000614c7c601483615c46565b91507f596f752061726520616e20617574686f726974790000000000000000000000006000830152602082019050919050565b6000614cbc602383615c46565b91507f4f6e6c792070726f6d6f746572732063616e207375626d69742070726f746f6360008301527f6f6c7300000000000000000000000000000000000000000000000000000000006020830152604082019050919050565b6000614d22602383615c46565b91507f4f6e6c7920696e76657374696761746f72732063616e20636f6c6c656374206460008301527f61746100000000000000000000000000000000000000000000000000000000006020830152604082019050919050565b6000614d88601a83615c46565b91507f596f752061726520616c726561647920612070726f6d6f7465720000000000006000830152602082019050919050565b6000614dc8601f83615c46565b91507f596f752061726520616c726561647920616e20696e76657374696761746f72006000830152602082019050919050565b6000614e08601683615c46565b91507f596f7572204944206973206e6f7420636f7272656374000000000000000000006000830152602082019050919050565b6000614e48602183615c46565b91507f50726f6d6f746572732063616e6e6f7420626520696e76657374696761746f7260008301527f73000000000000000000000000000000000000000000000000000000000000006020830152604082019050919050565b6000614eae603083615c46565b91507f4f6e6c7920696e76657374696761746f72732063616e2061646420706174696560008301527f6e747320746f2070726f746f636f6c73000000000000000000000000000000006020830152604082019050919050565b6000614f14601283615c46565b91507f596f752061726520612070726f6d6f74657200000000000000000000000000006000830152602082019050919050565b6000614f54601783615c46565b91507f596f7520646964206e6f7420636f6e73656e74207965740000000000000000006000830152602082019050919050565b6000614f94602283615c46565b91507f5468652070726f746f636f6c20697320616c726561647920726567697374657260008301527f65640000000000000000000000000000000000000000000000000000000000006020830152604082019050919050565b6000614ffa602383615c46565b91507f417574686f7269746965732063616e6e6f7420626520696e766573746967617460008301527f6f727300000000000000000000000000000000000000000000000000000000006020830152604082019050919050565b6000615060601f83615c46565b91507f596f7520616c7265616479207265766f6b6520796f757220636f6e73656e74006000830152602082019050919050565b60006150a0601d83615c46565b91507f476574207468652070617469656e7420636f6e73656e742066697273740000006000830152602082019050919050565b60006150e0602283615c46565b91507f5468657265206973206e6f2070726f746f636f6c20776974682074686973206360008301527f69640000000000000000000000000000000000000000000000000000000000006020830152604082019050919050565b6000615146602c83615c46565b91507f5468657265206973206e6f2070726f746f636f6c206173736f6369617465642060008301527f77697468207468697320494400000000000000000000000000000000000000006020830152604082019050919050565b60006151ac602683615c46565b91507f596f7520646f206e6f74206861766520726967687420666f722074686973207060008301527f617469656e7400000000000000000000000000000000000000000000000000006020830152604082019050919050565b6000615212603183615c46565b91507f4f6e6c7920617574686f726974696573206861766520726967687420746f207660008301527f616c69646174652070726f746f636f6c730000000000000000000000000000006020830152604082019050919050565b6000615278602f83615c46565b91507f416363657373436f6e74726f6c3a2063616e206f6e6c792072656e6f756e636560008301527f20726f6c657320666f722073656c6600000000000000000000000000000000006020830152604082019050919050565b60006152de601883615c46565b91507f596f752061726520612070726f6d6f7465722061646d696e00000000000000006000830152602082019050919050565b600061531e602783615c46565b91507f546869732070726f746f636f6c206873206e6f74206265656e2076616c69646160008301527f74656420796574000000000000000000000000000000000000000000000000006020830152604082019050919050565b600061010083016000830151848203600086015261539582826145de565b91505060208301516153aa602086018261451e565b5060408301516153bd604086018261451e565b5060608301516153d060608601826145b1565b5060808301516153e360808601826145b1565b5060a08301516153f660a086018261542e565b5060c083015161540960c086018261542e565b5060e083015184820360e086015261542182826145de565b9150508091505092915050565b61543781615d2c565b82525050565b61544681615d2c565b82525050565b60006154588284614650565b915081905092915050565b6000602082019050615478600083018461452d565b92915050565b6000606082019050615493600083018661452d565b6154a0602083018561452d565b81810360408301526154b28184614617565b9050949350505050565b60006080820190506154d1600083018761452d565b6154de602083018661452d565b81810360408301526154f08185614617565b90506154ff60608301846145c0565b95945050505050565b600060408201905061551d600083018561452d565b818103602083015261552f8184614617565b90509392505050565b60006020820190508181036000830152615552818461453c565b905092915050565b600060208201905061556f60008301846145c0565b92915050565b600060208201905061558a60008301846145cf565b92915050565b600060208201905081810360008301526155aa8184614617565b905092915050565b600060608201905081810360008301526155cc8186614617565b90506155db602083018561452d565b6155e8604083018461452d565b949350505050565b600061010082019050818103600083015261560b818b614617565b905061561a602083018a61452d565b615627604083018961452d565b61563460608301886145c0565b61564160808301876145c0565b61564e60a083018661543d565b61565b60c083018561543d565b81810360e083015261566d8184614617565b90509998505050505050505050565b600060408201905081810360008301526156968185614617565b905081810360208301526156aa8184614617565b90509392505050565b600060208201905081810360008301526156cc81614681565b9050919050565b600060208201905081810360008301526156ec816146c1565b9050919050565b6000602082019050818103600083015261570c81614727565b9050919050565b6000602082019050818103600083015261572c8161478d565b9050919050565b6000602082019050818103600083015261574c816147f3565b9050919050565b6000602082019050818103600083015261576c81614859565b9050919050565b6000602082019050818103600083015261578c81614899565b9050919050565b600060208201905081810360008301526157ac816148ff565b9050919050565b600060208201905081810360008301526157cc81614965565b9050919050565b600060208201905081810360008301526157ec816149cb565b9050919050565b6000602082019050818103600083015261580c81614a31565b9050919050565b6000602082019050818103600083015261582c81614a97565b9050919050565b6000602082019050818103600083015261584c81614afd565b9050919050565b6000602082019050818103600083015261586c81614b63565b9050919050565b6000602082019050818103600083015261588c81614bc9565b9050919050565b600060208201905081810360008301526158ac81614c2f565b9050919050565b600060208201905081810360008301526158cc81614c6f565b9050919050565b600060208201905081810360008301526158ec81614caf565b9050919050565b6000602082019050818103600083015261590c81614d15565b9050919050565b6000602082019050818103600083015261592c81614d7b565b9050919050565b6000602082019050818103600083015261594c81614dbb565b9050919050565b6000602082019050818103600083015261596c81614dfb565b9050919050565b6000602082019050818103600083015261598c81614e3b565b9050919050565b600060208201905081810360008301526159ac81614ea1565b9050919050565b600060208201905081810360008301526159cc81614f07565b9050919050565b600060208201905081810360008301526159ec81614f47565b9050919050565b60006020820190508181036000830152615a0c81614f87565b9050919050565b60006020820190508181036000830152615a2c81614fed565b9050919050565b60006020820190508181036000830152615a4c81615053565b9050919050565b60006020820190508181036000830152615a6c81615093565b9050919050565b60006020820190508181036000830152615a8c816150d3565b9050919050565b60006020820190508181036000830152615aac81615139565b9050919050565b60006020820190508181036000830152615acc8161519f565b9050919050565b60006020820190508181036000830152615aec81615205565b9050919050565b60006020820190508181036000830152615b0c8161526b565b9050919050565b60006020820190508181036000830152615b2c816152d1565b9050919050565b60006020820190508181036000830152615b4c81615311565b9050919050565b60006020820190508181036000830152615b6d8184615377565b905092915050565b6000602082019050615b8a600083018461543d565b92915050565b6000604051905081810181811067ffffffffffffffff82111715615bb757615bb6615e51565b5b8060405250919050565b600067ffffffffffffffff821115615bdc57615bdb615e51565b5b601f19601f8301169050602081019050919050565b6000819050602082019050919050565b600081519050919050565b600081519050919050565b6000602082019050919050565b600082825260208201905092915050565b600082825260208201905092915050565b600082825260208201905092915050565b600081905092915050565b6000615c6d82615d2c565b9150615c7883615d2c565b9250827fffffffffffffffffffffffffffffffffffffffffffffffffffffffffffffffff03821115615cad57615cac615df3565b5b828201905092915050565b6000615cc382615d0c565b9050919050565b60008115159050919050565b6000819050919050565b60007fffffffff0000000000000000000000000000000000000000000000000000000082169050919050565b600073ffffffffffffffffffffffffffffffffffffffff82169050919050565b6000819050919050565b82818337600083830152505050565b60005b83811015615d63578082015181840152602081019050615d48565b83811115615d72576000848401525b50505050565b60006002820490506001821680615d9057607f821691505b60208210811415615da457615da3615e22565b5b50919050565b6000615db582615d2c565b91507fffffffffffffffffffffffffffffffffffffffffffffffffffffffffffffffff821415615de857615de7615df3565b5b600182019050919050565b7f4e487b7100000000000000000000000000000000000000000000000000000000600052601160045260246000fd5b7f4e487b7100000000000000000000000000000000000000000000000000000000600052602260045260246000fd5b7f4e487b7100000000000000000000000000000000000000000000000000000000600052604160045260246000fd5b6000601f19601f8301169050919050565b615e9a81615cb8565b8114615ea557600080fd5b50565b615eb181615cd6565b8114615ebc57600080fd5b50565b615ec881615ce0565b8114615ed357600080fd5b50565b615edf81615d2c565b8114615eea57600080fd5b5056fea264697066735822122002c72b97543d5375b4e7d0057e993639e297c4a51679d88190edb7950e9ab37664736f6c63430008000033",
  "immutableReferences": {},
  "source": "// SPDX-License-Identifier: MIT\npragma solidity 0.8.0;\n\nimport \"../client/node_modules/@openzeppelin/contracts/access/AccessControl.sol\";\n\ncontract MedTrials is AccessControl {\n    struct Protocol {\n        string cid;\n        address promoter;\n        address investigator;\n        bool registered;\n        bool authorized;\n        uint256 nbOfPatients;\n        uint256 index;\n        string status;\n    }\n\n    struct Patient {\n        address patient;\n        address investigator;\n        string protocolID;\n        bool consent;\n        string[] cids;\n    }\n\n    struct Promoter {\n        address promoter;\n        string cid;\n    }\n\n    struct Investigator {\n        address promoter;\n        address investigator;\n        string cid;\n    }\n\n    struct Authority {\n        address authority;\n        string cid;\n    }\n\n    mapping(string => Protocol) public protocols;\n    mapping(string => Patient) public patients;\n    mapping(uint256 => string) public protocolsID;\n    mapping(uint256 => Promoter) public promoters;\n    mapping(uint256 => Investigator) public investigators;\n    mapping(uint256 => Authority) public authorities;\n    mapping(address => string) roles;\n\n    mapping(string => mapping(string => uint256)) private protocolNumerotation;\n\n    bytes32 public constant AUTHORITY = keccak256(\"AUTHORITY\");\n    bytes32 public constant AUTHORITY_ADMIN = keccak256(\"AUTHORITYADMIN\");\n    bytes32 public constant PROMOTER = keccak256(\"PROMOTER\");\n    bytes32 public constant PROMOTER_ADMIN = keccak256(\"PROMOTERADMIN\");\n    bytes32 public constant INVESTIGATOR = keccak256(\"INVESTIGATOR\");\n    bytes32 public constant PATIENT = keccak256(\"PATIENT\");\n\n    uint256 public nbOfProtocolsRegistered;\n    uint256 public nbOfPatients;\n    uint256 public nbOfPromoters;\n    uint256 public nbOfInvestigators;\n    uint256 public nbOfAuthorities;\n\n    event promoterAdded(address _address);\n    event authorityAdded(address _address);\n    event investigatorAdded(address _address);\n    event protocolValidated(string _id);\n    event newProtocol(string _id, address _promotor, address _investigator);\n    event patientAdded(string _patientID, string _protocolID);\n    event consentGiven(string _patientID);\n    event consentRevoked(string _patientID);\n    event cidSaved(string _cid);\n    event protocolSuspended(string _protocolID);\n    event protocolResumed(string _protocolID);\n\n    constructor(\n        address _default_admin,\n        address _authorityAdmin,\n        address _promotorAdmin\n    ) {\n        _setupRole(DEFAULT_ADMIN_ROLE, _default_admin);\n\n        _setRoleAdmin(AUTHORITY_ADMIN, DEFAULT_ADMIN_ROLE);\n        _setRoleAdmin(AUTHORITY, AUTHORITY_ADMIN);\n\n        _setRoleAdmin(PROMOTER_ADMIN, DEFAULT_ADMIN_ROLE);\n        _setRoleAdmin(PROMOTER, PROMOTER_ADMIN);\n\n        _setRoleAdmin(INVESTIGATOR, PROMOTER);\n\n        _setRoleAdmin(PATIENT, INVESTIGATOR);\n\n        _setupRole(AUTHORITY_ADMIN, _authorityAdmin);\n        _setupRole(PROMOTER_ADMIN, _promotorAdmin);\n\n        renounceRole(DEFAULT_ADMIN_ROLE, _default_admin);\n\n        roles[_authorityAdmin] = \"AUTHORITY ADMIN\";\n        roles[_promotorAdmin] = \"PROMOTER ADMIN\";\n    }\n\n    function addAuthority(address _address, string memory _cid) public {\n        require(\n            hasRole(AUTHORITY_ADMIN, msg.sender),\n            \"Only the authority admin can add investigators\"\n        );\n        require(!hasRole(AUTHORITY, _address), \"You are already an authority\");\n        require(!hasRole(PROMOTER, _address), \"You are a promoter\");\n        require(!hasRole(INVESTIGATOR, _address), \"You are an investigator\");\n        require(!hasRole(PROMOTER_ADMIN, _address), \"You are a promoter admin\");\n        require(\n            !hasRole(AUTHORITY_ADMIN, _address),\n            \"You are an authority admin\"\n        );\n\n        grantRole(AUTHORITY, _address);\n        roles[_address] = \"AUTHORITY\";\n\n        authorities[nbOfAuthorities].cid = _cid;\n        authorities[nbOfAuthorities].authority = _address;\n        nbOfAuthorities++;\n\n        emit authorityAdded(_address);\n    }\n\n    function addPromoter(address _address, string memory _cid) public {\n        require(\n            hasRole(PROMOTER_ADMIN, msg.sender),\n            \"Only the promotor admin can add investigators\"\n        );\n        require(!hasRole(PROMOTER, _address), \"You are already a promoter\");\n        require(!hasRole(INVESTIGATOR, _address), \"You are an investigator\");\n        require(!hasRole(AUTHORITY, _address), \"You are an authority\");\n        require(!hasRole(PROMOTER_ADMIN, _address), \"You are a promoter admin\");\n        require(\n            !hasRole(AUTHORITY_ADMIN, _address),\n            \"You are an authority admin\"\n        );\n\n        grantRole(PROMOTER, _address);\n        roles[_address] = \"PROMOTER\";\n\n        promoters[nbOfPromoters].cid = _cid;\n        promoters[nbOfPromoters].promoter = _address;\n        nbOfPromoters++;\n\n        emit promoterAdded(_address);\n    }\n\n    function addInvestigator(address _address, string memory _cid) public {\n        require(\n            hasRole(PROMOTER, msg.sender),\n            \"Only the promotor can add investigators\"\n        );\n        require(\n            !hasRole(INVESTIGATOR, _address),\n            \"You are already an investigator\"\n        );\n        require(!hasRole(PROMOTER, _address), \"You are a promoter\");\n        require(!hasRole(AUTHORITY, _address), \"You are an authority\");\n        require(!hasRole(PROMOTER_ADMIN, _address), \"You are a promoter admin\");\n        require(\n            !hasRole(AUTHORITY_ADMIN, _address),\n            \"You are an authority admin\"\n        );\n\n        grantRole(INVESTIGATOR, _address);\n        roles[_address] = \"INVESTIGATOR\";\n\n        investigators[nbOfInvestigators].cid = _cid;\n        investigators[nbOfInvestigators].promoter = msg.sender;\n        investigators[nbOfInvestigators].investigator = _address;\n        nbOfInvestigators++;\n\n        emit investigatorAdded(_address);\n    }\n\n    function registerProtocol(\n        string memory _id,\n        string memory _cid,\n        string memory center,\n        string memory category,\n        address _investigator\n    ) public {\n        require(\n            hasRole(PROMOTER, msg.sender),\n            \"Only promoters can submit protocols\"\n        );\n        require(\n            !hasRole(PROMOTER, _investigator),\n            \"Promoters cannot be investigators\"\n        );\n        require(\n            !hasRole(AUTHORITY, _investigator),\n            \"Authorities cannot be investigators\"\n        );\n        require(\n            !hasRole(PROMOTER_ADMIN, _investigator),\n            \"Promoters admin cannot be an investigator\"\n        );\n        require(\n            !hasRole(AUTHORITY_ADMIN, _investigator),\n            \"Authorities admin cannot be an investigator\"\n        );\n        require(\n            !protocols[_id].registered,\n            \"The protocol is already registered\"\n        );\n\n        protocols[_id].promoter = msg.sender;\n        protocols[_id].investigator = _investigator;\n        protocols[_id].registered = true;\n        protocols[_id].cid = _cid;\n        protocols[_id].status = \"registered\";\n        protocols[_id].index = nbOfProtocolsRegistered;\n\n        protocolsID[nbOfProtocolsRegistered] = _id;\n        nbOfProtocolsRegistered++;\n\n        protocolNumerotation[center][category]++;\n\n        if (!hasRole(INVESTIGATOR, _investigator)) {\n            grantRole(INVESTIGATOR, _investigator);\n            roles[_investigator] = \"INVESTIGATOR\";\n        }\n\n        emit newProtocol(_id, msg.sender, _investigator);\n    }\n\n    function getProtocolCID(string memory _id)\n        public\n        view\n        returns (string memory)\n    {\n        require(\n            hasRole(PROMOTER, msg.sender) || hasRole(INVESTIGATOR, msg.sender),\n            \"only promoters and investigators have this right\"\n        );\n        require(\n            protocols[_id].promoter == msg.sender ||\n                protocols[_id].investigator == msg.sender,\n            \"You do not have right to open this project\"\n        );\n        require(\n            protocols[_id].authorized,\n            \"There is no protocol with this cid\"\n        );\n\n        return protocols[_id].cid;\n    }\n\n    function validateProtocol(string memory _id) public {\n        require(\n            hasRole(AUTHORITY, msg.sender),\n            \"Only authorities have right to validate protocols\"\n        );\n        require(\n            protocols[_id].registered == true,\n            \"There is no protocol associated with this ID\"\n        );\n\n        protocols[_id].authorized = true;\n        protocols[_id].status = \"validated\";\n\n        emit protocolValidated(_id);\n    }\n\n    function getProtocol(string memory _id)\n        public\n        view\n        returns (Protocol memory)\n    {\n        require(\n            protocols[_id].registered == true,\n            \"There is no protocol with this id\"\n        );\n        require(\n            protocols[_id].authorized == true,\n            \"This protocol hs not been validated yet\"\n        );\n\n        return protocols[_id];\n    }\n\n    function addPatient(\n        string memory _patientID,\n        address _patientAddress,\n        string memory _protocolID\n    ) public {\n        require(\n            hasRole(INVESTIGATOR, msg.sender),\n            \"Only investigators can add patients to protocols\"\n        );\n        require(\n            protocols[_protocolID].authorized == true,\n            \"This protocol has not been authorized yet\"\n        );\n        require(\n            msg.sender == protocols[_protocolID].investigator,\n            \"You do not have right to add patients to this protocol\"\n        );\n        //require(_patientAddress != protocols[_protocolID].patient, \"This patient already exist\");\n\n        patients[_patientID].consent = true;\n        patients[_patientID].patient = _patientAddress;\n        patients[_patientID].investigator = msg.sender;\n        patients[_patientID].protocolID = _protocolID;\n        protocols[_protocolID].nbOfPatients++;\n\n        grantRole(PATIENT, _patientAddress);\n        roles[_patientAddress] = \"PATIENT\";\n\n        emit patientAdded(_patientID, _protocolID);\n    }\n\n    function giveConsent(string memory _patientID) public {\n        require(\n            msg.sender == patients[_patientID].patient,\n            \"Your ID is not correct\"\n        );\n        require(\n            patients[_patientID].consent == false,\n            \"You did not consent yet\"\n        );\n\n        patients[_patientID].consent == true;\n\n        emit consentGiven(_patientID);\n    }\n\n    function revokeConsent(string memory _patientID) public {\n        require(\n            msg.sender == patients[_patientID].patient,\n            \"Your ID is not correct\"\n        );\n        require(\n            patients[_patientID].consent == true,\n            \"You already revoke your consent\"\n        );\n\n        patients[_patientID].consent == false;\n        delete patients[_patientID];\n\n        emit consentRevoked(_patientID);\n    }\n\n    function suspendTrials(string memory _protocolID) public {\n        require(\n            hasRole(AUTHORITY, msg.sender),\n            \"Only authoriities can suspend trials\"\n        );\n        require(protocols[_protocolID].authorized);\n\n        protocols[_protocolID].authorized = false;\n        protocols[_protocolID].status = \"suspended\";\n\n        emit protocolSuspended(_protocolID);\n    }\n\n    function resumeTrials(string memory _protocolID) public {\n        require(\n            hasRole(AUTHORITY, msg.sender),\n            \"Only authoriities can suspend trials\"\n        );\n        require(!protocols[_protocolID].authorized);\n\n        protocols[_protocolID].authorized = true;\n        protocols[_protocolID].status = \"resumed\";\n\n        emit protocolResumed(_protocolID);\n    }\n\n    function storeDataCID(string memory _patientID, string memory _cid) public {\n        require(\n            hasRole(INVESTIGATOR, msg.sender),\n            \"Only investigators can collect data\"\n        );\n        require(\n            msg.sender == patients[_patientID].investigator,\n            \"You do not have right for this patient\"\n        );\n        require(\n            patients[_patientID].consent == true,\n            \"Get the patient consent first\"\n        );\n\n        patients[_patientID].cids.push(_cid);\n\n        emit cidSaved(_cid);\n    }\n\n    function getDataCID(string memory _patientID)\n        public\n        view\n        returns (string[] memory)\n    {\n        require(\n            hasRole(INVESTIGATOR, msg.sender),\n            \"Only investigators can collect data\"\n        );\n        require(\n            msg.sender == patients[_patientID].investigator,\n            \"You do not have right for this patient\"\n        );\n        require(\n            patients[_patientID].consent == true,\n            \"Get the patient consent first\"\n        );\n\n        return patients[_patientID].cids;\n    }\n\n    function getProtocolStatus(string memory _protocolID)\n        public\n        view\n        returns (string memory)\n    {\n        return protocols[_protocolID].status;\n    }\n\n    function numberOfPatientByProtocol(string memory _protocolID)\n        public\n        view\n        returns (uint256)\n    {\n        return protocols[_protocolID].nbOfPatients;\n    }\n\n    function getRole(address _address) public view returns (string memory) {\n        return roles[_address];\n    }\n\n    function getProtocoleNumerotation(\n        string memory center,\n        string memory category\n    ) public view returns (uint256) {\n        return protocolNumerotation[center][category] + 1;\n    }\n}\n",
  "sourcePath": "/Users/samuel/Documents/Projet/Pojet_Dev/MedTrials/contracts/MedTrials.sol",
  "compiler": {
    "name": "solc",
    "version": "0.8.0+commit.c7dfd78e.Emscripten.clang"
  },
  "schemaVersion": "3.3.4",
  "updatedAt": "2021-05-07T16:12:27.839Z",
  "networkType": "ethereum",
  "devdoc": {
    "kind": "dev",
    "methods": {
      "getRoleAdmin(bytes32)": {
        "details": "Returns the admin role that controls `role`. See {grantRole} and {revokeRole}. To change a role's admin, use {_setRoleAdmin}."
      },
      "grantRole(bytes32,address)": {
        "details": "Grants `role` to `account`. If `account` had not been already granted `role`, emits a {RoleGranted} event. Requirements: - the caller must have ``role``'s admin role."
      },
      "hasRole(bytes32,address)": {
        "details": "Returns `true` if `account` has been granted `role`."
      },
      "renounceRole(bytes32,address)": {
        "details": "Revokes `role` from the calling account. Roles are often managed via {grantRole} and {revokeRole}: this function's purpose is to provide a mechanism for accounts to lose their privileges if they are compromised (such as when a trusted device is misplaced). If the calling account had been granted `role`, emits a {RoleRevoked} event. Requirements: - the caller must be `account`."
      },
      "revokeRole(bytes32,address)": {
        "details": "Revokes `role` from `account`. If `account` had been granted `role`, emits a {RoleRevoked} event. Requirements: - the caller must have ``role``'s admin role."
      },
      "supportsInterface(bytes4)": {
        "details": "See {IERC165-supportsInterface}."
      }
    },
    "version": 1
  },
  "userdoc": {
    "kind": "user",
    "methods": {},
    "version": 1
  }
}