{
  "contractName": "MedTrials",
  "abi": [
    {
      "inputs": [
        {
          "internalType": "address",
          "name": "_default_admin",
          "type": "address"
        },
        {
          "internalType": "address",
          "name": "_authorityAdmin",
          "type": "address"
        },
        {
          "internalType": "address",
          "name": "_promotorAdmin",
          "type": "address"
        }
      ],
      "stateMutability": "nonpayable",
      "type": "constructor"
    },
    {
      "anonymous": false,
      "inputs": [
        {
          "indexed": true,
          "internalType": "bytes32",
          "name": "role",
          "type": "bytes32"
        },
        {
          "indexed": true,
          "internalType": "bytes32",
          "name": "previousAdminRole",
          "type": "bytes32"
        },
        {
          "indexed": true,
          "internalType": "bytes32",
          "name": "newAdminRole",
          "type": "bytes32"
        }
      ],
      "name": "RoleAdminChanged",
      "type": "event"
    },
    {
      "anonymous": false,
      "inputs": [
        {
          "indexed": true,
          "internalType": "bytes32",
          "name": "role",
          "type": "bytes32"
        },
        {
          "indexed": true,
          "internalType": "address",
          "name": "account",
          "type": "address"
        },
        {
          "indexed": true,
          "internalType": "address",
          "name": "sender",
          "type": "address"
        }
      ],
      "name": "RoleGranted",
      "type": "event"
    },
    {
      "anonymous": false,
      "inputs": [
        {
          "indexed": true,
          "internalType": "bytes32",
          "name": "role",
          "type": "bytes32"
        },
        {
          "indexed": true,
          "internalType": "address",
          "name": "account",
          "type": "address"
        },
        {
          "indexed": true,
          "internalType": "address",
          "name": "sender",
          "type": "address"
        }
      ],
      "name": "RoleRevoked",
      "type": "event"
    },
    {
      "anonymous": false,
      "inputs": [
        {
          "indexed": false,
          "internalType": "address",
          "name": "_address",
          "type": "address"
        }
      ],
      "name": "authorityAdded",
      "type": "event"
    },
    {
      "anonymous": false,
      "inputs": [
        {
          "indexed": false,
          "internalType": "string",
          "name": "_cid",
          "type": "string"
        }
      ],
      "name": "cidSaved",
      "type": "event"
    },
    {
      "anonymous": false,
      "inputs": [
        {
          "indexed": false,
          "internalType": "string",
          "name": "_patientID",
          "type": "string"
        }
      ],
      "name": "consentGiven",
      "type": "event"
    },
    {
      "anonymous": false,
      "inputs": [
        {
          "indexed": false,
          "internalType": "string",
          "name": "_patientID",
          "type": "string"
        }
      ],
      "name": "consentRevoked",
      "type": "event"
    },
    {
      "anonymous": false,
      "inputs": [
        {
          "indexed": false,
          "internalType": "address",
          "name": "_address",
          "type": "address"
        }
      ],
      "name": "investigatorAdded",
      "type": "event"
    },
    {
      "anonymous": false,
      "inputs": [
        {
          "indexed": false,
          "internalType": "string",
          "name": "_id",
          "type": "string"
        },
        {
          "indexed": false,
          "internalType": "address",
          "name": "_promotor",
          "type": "address"
        },
        {
          "indexed": false,
          "internalType": "address",
          "name": "_investigator",
          "type": "address"
        }
      ],
      "name": "newProtocol",
      "type": "event"
    },
    {
      "anonymous": false,
      "inputs": [
        {
          "indexed": false,
          "internalType": "string",
          "name": "_patientID",
          "type": "string"
        },
        {
          "indexed": false,
          "internalType": "string",
          "name": "_protocolID",
          "type": "string"
        }
      ],
      "name": "patientAdded",
      "type": "event"
    },
    {
      "anonymous": false,
      "inputs": [
        {
          "indexed": false,
          "internalType": "address",
          "name": "_address",
          "type": "address"
        }
      ],
      "name": "promoterAdded",
      "type": "event"
    },
    {
      "anonymous": false,
      "inputs": [
        {
          "indexed": false,
          "internalType": "string",
          "name": "_protocolID",
          "type": "string"
        }
      ],
      "name": "protocolResumed",
      "type": "event"
    },
    {
      "anonymous": false,
      "inputs": [
        {
          "indexed": false,
          "internalType": "string",
          "name": "_protocolID",
          "type": "string"
        }
      ],
      "name": "protocolSuspended",
      "type": "event"
    },
    {
      "anonymous": false,
      "inputs": [
        {
          "indexed": false,
          "internalType": "string",
          "name": "_id",
          "type": "string"
        }
      ],
      "name": "protocolValidated",
      "type": "event"
    },
    {
      "inputs": [],
      "name": "AUTHORITY",
      "outputs": [
        {
          "internalType": "bytes32",
          "name": "",
          "type": "bytes32"
        }
      ],
      "stateMutability": "view",
      "type": "function",
      "constant": true
    },
    {
      "inputs": [],
      "name": "AUTHORITY_ADMIN",
      "outputs": [
        {
          "internalType": "bytes32",
          "name": "",
          "type": "bytes32"
        }
      ],
      "stateMutability": "view",
      "type": "function",
      "constant": true
    },
    {
      "inputs": [],
      "name": "DEFAULT_ADMIN_ROLE",
      "outputs": [
        {
          "internalType": "bytes32",
          "name": "",
          "type": "bytes32"
        }
      ],
      "stateMutability": "view",
      "type": "function",
      "constant": true
    },
    {
      "inputs": [],
      "name": "INVESTIGATOR",
      "outputs": [
        {
          "internalType": "bytes32",
          "name": "",
          "type": "bytes32"
        }
      ],
      "stateMutability": "view",
      "type": "function",
      "constant": true
    },
    {
      "inputs": [],
      "name": "PATIENT",
      "outputs": [
        {
          "internalType": "bytes32",
          "name": "",
          "type": "bytes32"
        }
      ],
      "stateMutability": "view",
      "type": "function",
      "constant": true
    },
    {
      "inputs": [],
      "name": "PROMOTER",
      "outputs": [
        {
          "internalType": "bytes32",
          "name": "",
          "type": "bytes32"
        }
      ],
      "stateMutability": "view",
      "type": "function",
      "constant": true
    },
    {
      "inputs": [],
      "name": "PROMOTER_ADMIN",
      "outputs": [
        {
          "internalType": "bytes32",
          "name": "",
          "type": "bytes32"
        }
      ],
      "stateMutability": "view",
      "type": "function",
      "constant": true
    },
    {
      "inputs": [
        {
          "internalType": "bytes32",
          "name": "role",
          "type": "bytes32"
        }
      ],
      "name": "getRoleAdmin",
      "outputs": [
        {
          "internalType": "bytes32",
          "name": "",
          "type": "bytes32"
        }
      ],
      "stateMutability": "view",
      "type": "function",
      "constant": true
    },
    {
      "inputs": [
        {
          "internalType": "bytes32",
          "name": "role",
          "type": "bytes32"
        },
        {
          "internalType": "address",
          "name": "account",
          "type": "address"
        }
      ],
      "name": "grantRole",
      "outputs": [],
      "stateMutability": "nonpayable",
      "type": "function"
    },
    {
      "inputs": [
        {
          "internalType": "bytes32",
          "name": "role",
          "type": "bytes32"
        },
        {
          "internalType": "address",
          "name": "account",
          "type": "address"
        }
      ],
      "name": "hasRole",
      "outputs": [
        {
          "internalType": "bool",
          "name": "",
          "type": "bool"
        }
      ],
      "stateMutability": "view",
      "type": "function",
      "constant": true
    },
    {
      "inputs": [],
      "name": "nbOfPatients",
      "outputs": [
        {
          "internalType": "uint256",
          "name": "",
          "type": "uint256"
        }
      ],
      "stateMutability": "view",
      "type": "function",
      "constant": true
    },
    {
      "inputs": [],
      "name": "nbOfProtocolsRegistered",
      "outputs": [
        {
          "internalType": "uint256",
          "name": "",
          "type": "uint256"
        }
      ],
      "stateMutability": "view",
      "type": "function",
      "constant": true
    },
    {
      "inputs": [
        {
          "internalType": "string",
          "name": "",
          "type": "string"
        }
      ],
      "name": "patients",
      "outputs": [
        {
          "internalType": "address",
          "name": "patient",
          "type": "address"
        },
        {
          "internalType": "address",
          "name": "investigator",
          "type": "address"
        },
        {
          "internalType": "string",
          "name": "protocolID",
          "type": "string"
        },
        {
          "internalType": "bool",
          "name": "consent",
          "type": "bool"
        }
      ],
      "stateMutability": "view",
      "type": "function",
      "constant": true
    },
    {
      "inputs": [
        {
          "internalType": "string",
          "name": "",
          "type": "string"
        }
      ],
      "name": "protocols",
      "outputs": [
        {
          "internalType": "string",
          "name": "cid",
          "type": "string"
        },
        {
          "internalType": "address",
          "name": "promoter",
          "type": "address"
        },
        {
          "internalType": "address",
          "name": "investigator",
          "type": "address"
        },
        {
          "internalType": "bool",
          "name": "registered",
          "type": "bool"
        },
        {
          "internalType": "bool",
          "name": "authorized",
          "type": "bool"
        },
        {
          "internalType": "uint256",
          "name": "nbOfPatients",
          "type": "uint256"
        },
        {
          "internalType": "uint256",
          "name": "index",
          "type": "uint256"
        },
        {
          "internalType": "string",
          "name": "status",
          "type": "string"
        }
      ],
      "stateMutability": "view",
      "type": "function",
      "constant": true
    },
    {
      "inputs": [
        {
          "internalType": "uint256",
          "name": "",
          "type": "uint256"
        }
      ],
      "name": "protocolsID",
      "outputs": [
        {
          "internalType": "string",
          "name": "",
          "type": "string"
        }
      ],
      "stateMutability": "view",
      "type": "function",
      "constant": true
    },
    {
      "inputs": [
        {
          "internalType": "bytes32",
          "name": "role",
          "type": "bytes32"
        },
        {
          "internalType": "address",
          "name": "account",
          "type": "address"
        }
      ],
      "name": "renounceRole",
      "outputs": [],
      "stateMutability": "nonpayable",
      "type": "function"
    },
    {
      "inputs": [
        {
          "internalType": "bytes32",
          "name": "role",
          "type": "bytes32"
        },
        {
          "internalType": "address",
          "name": "account",
          "type": "address"
        }
      ],
      "name": "revokeRole",
      "outputs": [],
      "stateMutability": "nonpayable",
      "type": "function"
    },
    {
      "inputs": [
        {
          "internalType": "bytes4",
          "name": "interfaceId",
          "type": "bytes4"
        }
      ],
      "name": "supportsInterface",
      "outputs": [
        {
          "internalType": "bool",
          "name": "",
          "type": "bool"
        }
      ],
      "stateMutability": "view",
      "type": "function",
      "constant": true
    },
    {
      "inputs": [
        {
          "internalType": "address",
          "name": "_address",
          "type": "address"
        }
      ],
      "name": "isAuthority",
      "outputs": [
        {
          "internalType": "bool",
          "name": "",
          "type": "bool"
        }
      ],
      "stateMutability": "view",
      "type": "function",
      "constant": true
    },
    {
      "inputs": [
        {
          "internalType": "address",
          "name": "_address",
          "type": "address"
        }
      ],
      "name": "isPromoter",
      "outputs": [
        {
          "internalType": "bool",
          "name": "",
          "type": "bool"
        }
      ],
      "stateMutability": "view",
      "type": "function",
      "constant": true
    },
    {
      "inputs": [
        {
          "internalType": "address",
          "name": "_address",
          "type": "address"
        }
      ],
      "name": "isInvestigator",
      "outputs": [
        {
          "internalType": "bool",
          "name": "",
          "type": "bool"
        }
      ],
      "stateMutability": "view",
      "type": "function",
      "constant": true
    },
    {
      "inputs": [
        {
          "internalType": "address",
          "name": "_address",
          "type": "address"
        }
      ],
      "name": "addPromoter",
      "outputs": [],
      "stateMutability": "nonpayable",
      "type": "function"
    },
    {
      "inputs": [
        {
          "internalType": "address",
          "name": "_address",
          "type": "address"
        }
      ],
      "name": "addInvestigator",
      "outputs": [],
      "stateMutability": "nonpayable",
      "type": "function"
    },
    {
      "inputs": [
        {
          "internalType": "address",
          "name": "_address",
          "type": "address"
        }
      ],
      "name": "addAuthority",
      "outputs": [],
      "stateMutability": "nonpayable",
      "type": "function"
    },
    {
      "inputs": [
        {
          "internalType": "string",
          "name": "_id",
          "type": "string"
        },
        {
          "internalType": "string",
          "name": "_cid",
          "type": "string"
        },
        {
          "internalType": "string",
          "name": "center",
          "type": "string"
        },
        {
          "internalType": "string",
          "name": "category",
          "type": "string"
        },
        {
          "internalType": "address",
          "name": "_investigator",
          "type": "address"
        }
      ],
      "name": "registerProtocol",
      "outputs": [],
      "stateMutability": "nonpayable",
      "type": "function"
    },
    {
      "inputs": [
        {
          "internalType": "string",
          "name": "_id",
          "type": "string"
        }
      ],
      "name": "getProtocolCID",
      "outputs": [
        {
          "internalType": "string",
          "name": "",
          "type": "string"
        }
      ],
      "stateMutability": "view",
      "type": "function",
      "constant": true
    },
    {
      "inputs": [
        {
          "internalType": "string",
          "name": "_id",
          "type": "string"
        }
      ],
      "name": "validateProtocol",
      "outputs": [],
      "stateMutability": "nonpayable",
      "type": "function"
    },
    {
      "inputs": [
        {
          "internalType": "string",
          "name": "_id",
          "type": "string"
        }
      ],
      "name": "getProtocol",
      "outputs": [
        {
          "components": [
            {
              "internalType": "string",
              "name": "cid",
              "type": "string"
            },
            {
              "internalType": "address",
              "name": "promoter",
              "type": "address"
            },
            {
              "internalType": "address",
              "name": "investigator",
              "type": "address"
            },
            {
              "internalType": "bool",
              "name": "registered",
              "type": "bool"
            },
            {
              "internalType": "bool",
              "name": "authorized",
              "type": "bool"
            },
            {
              "internalType": "uint256",
              "name": "nbOfPatients",
              "type": "uint256"
            },
            {
              "internalType": "uint256",
              "name": "index",
              "type": "uint256"
            },
            {
              "internalType": "string",
              "name": "status",
              "type": "string"
            }
          ],
          "internalType": "struct MedTrials.Protocol",
          "name": "",
          "type": "tuple"
        }
      ],
      "stateMutability": "view",
      "type": "function",
      "constant": true
    },
    {
      "inputs": [
        {
          "internalType": "string",
          "name": "_patientID",
          "type": "string"
        },
        {
          "internalType": "address",
          "name": "_patientAddress",
          "type": "address"
        },
        {
          "internalType": "string",
          "name": "_protocolID",
          "type": "string"
        }
      ],
      "name": "addPatient",
      "outputs": [],
      "stateMutability": "nonpayable",
      "type": "function"
    },
    {
      "inputs": [
        {
          "internalType": "string",
          "name": "_patientID",
          "type": "string"
        }
      ],
      "name": "giveConsent",
      "outputs": [],
      "stateMutability": "nonpayable",
      "type": "function"
    },
    {
      "inputs": [
        {
          "internalType": "string",
          "name": "_patientID",
          "type": "string"
        }
      ],
      "name": "revokeConsent",
      "outputs": [],
      "stateMutability": "nonpayable",
      "type": "function"
    },
    {
      "inputs": [
        {
          "internalType": "string",
          "name": "_protocolID",
          "type": "string"
        }
      ],
      "name": "suspendTrials",
      "outputs": [],
      "stateMutability": "nonpayable",
      "type": "function"
    },
    {
      "inputs": [
        {
          "internalType": "string",
          "name": "_protocolID",
          "type": "string"
        }
      ],
      "name": "resumeTrials",
      "outputs": [],
      "stateMutability": "nonpayable",
      "type": "function"
    },
    {
      "inputs": [
        {
          "internalType": "string",
          "name": "_patientID",
          "type": "string"
        },
        {
          "internalType": "string",
          "name": "_cid",
          "type": "string"
        }
      ],
      "name": "storeDataCID",
      "outputs": [],
      "stateMutability": "nonpayable",
      "type": "function"
    },
    {
      "inputs": [
        {
          "internalType": "string",
          "name": "_patientID",
          "type": "string"
        }
      ],
      "name": "getDataCID",
      "outputs": [
        {
          "internalType": "string[]",
          "name": "",
          "type": "string[]"
        }
      ],
      "stateMutability": "view",
      "type": "function",
      "constant": true
    },
    {
      "inputs": [
        {
          "internalType": "string",
          "name": "_protocolID",
          "type": "string"
        }
      ],
      "name": "getProtocolStatus",
      "outputs": [
        {
          "internalType": "string",
          "name": "",
          "type": "string"
        }
      ],
      "stateMutability": "view",
      "type": "function",
      "constant": true
    },
    {
      "inputs": [
        {
          "internalType": "string",
          "name": "_protocolID",
          "type": "string"
        }
      ],
      "name": "numberOfPatientByProtocol",
      "outputs": [
        {
          "internalType": "uint256",
          "name": "",
          "type": "uint256"
        }
      ],
      "stateMutability": "view",
      "type": "function",
      "constant": true
    },
    {
      "inputs": [
        {
          "internalType": "address",
          "name": "_address",
          "type": "address"
        }
      ],
      "name": "getRole",
      "outputs": [
        {
          "internalType": "string",
          "name": "",
          "type": "string"
        }
      ],
      "stateMutability": "view",
      "type": "function",
      "constant": true
    },
    {
      "inputs": [
        {
          "internalType": "string",
          "name": "center",
          "type": "string"
        },
        {
          "internalType": "string",
          "name": "category",
          "type": "string"
        }
      ],
      "name": "getProtocoleNumerotation",
      "outputs": [
        {
          "internalType": "uint256",
          "name": "",
          "type": "uint256"
        }
      ],
      "stateMutability": "view",
      "type": "function",
      "constant": true
    }
  ],
  "bytecode": "0x60806040523480156200001157600080fd5b5060405162005a6038038062005a608339818101604052810190620000379190620005eb565b6200004c6000801b846200032f60201b60201c565b620000817f3e206be88d1de4207c0189003e17add3718b1a1bf78910a785940577239bbdae6000801b6200034560201b60201c565b620000d37f843b48dccc6ff192f9330133622b0536f7b94feca0cf36e7e46fc50060b6f8827f3e206be88d1de4207c0189003e17add3718b1a1bf78910a785940577239bbdae6200034560201b60201c565b620001087f47a6ab365f603cf120cb936195de17fd0bac3880ff606e7a0edb5e8e6580b1ae6000801b6200034560201b60201c565b6200015a7f0996d044c7309cb5a01d79c18ee9e4c86aca84367cbd5bfd5f5d0606acc992737f47a6ab365f603cf120cb936195de17fd0bac3880ff606e7a0edb5e8e6580b1ae6200034560201b60201c565b620001ac7f97f21e7273917267af1fea4c3510695aa29abe57349ce57ceec11b34688318037f0996d044c7309cb5a01d79c18ee9e4c86aca84367cbd5bfd5f5d0606acc992736200034560201b60201c565b620001de7f3e206be88d1de4207c0189003e17add3718b1a1bf78910a785940577239bbdae836200032f60201b60201c565b620002107f47a6ab365f603cf120cb936195de17fd0bac3880ff606e7a0edb5e8e6580b1ae826200032f60201b60201c565b6040518060400160405280600f81526020017f415554484f524954592041444d494e0000000000000000000000000000000000815250600460008473ffffffffffffffffffffffffffffffffffffffff1673ffffffffffffffffffffffffffffffffffffffff16815260200190815260200160002090805190602001906200029a92919062000524565b506040518060400160405280600e81526020017f50524f4d4f5445522041444d494e000000000000000000000000000000000000815250600460008373ffffffffffffffffffffffffffffffffffffffff1673ffffffffffffffffffffffffffffffffffffffff16815260200190815260200160002090805190602001906200032592919062000524565b50505050620006f4565b620003418282620003a260201b60201c565b5050565b8062000357836200049360201b60201c565b837fbd79b86ffe0ab8e8776151514217cd7cacd52c909f66475c3af44e129f0b00ff60405160405180910390a480600080848152602001908152602001600020600101819055505050565b620003b48282620004b260201b60201c565b6200048f57600160008084815260200190815260200160002060000160008373ffffffffffffffffffffffffffffffffffffffff1673ffffffffffffffffffffffffffffffffffffffff16815260200190815260200160002060006101000a81548160ff021916908315150217905550620004346200051c60201b60201c565b73ffffffffffffffffffffffffffffffffffffffff168173ffffffffffffffffffffffffffffffffffffffff16837f2f8788117e7eff1d82e926ec794901d17c78024a50270940304540a733656f0d60405160405180910390a45b5050565b6000806000838152602001908152602001600020600101549050919050565b600080600084815260200190815260200160002060000160008373ffffffffffffffffffffffffffffffffffffffff1673ffffffffffffffffffffffffffffffffffffffff16815260200190815260200160002060009054906101000a900460ff16905092915050565b600033905090565b828054620005329062000675565b90600052602060002090601f016020900481019282620005565760008555620005a2565b82601f106200057157805160ff1916838001178555620005a2565b82800160010185558215620005a2579182015b82811115620005a157825182559160200191906001019062000584565b5b509050620005b19190620005b5565b5090565b5b80821115620005d0576000816000905550600101620005b6565b5090565b600081519050620005e581620006da565b92915050565b6000806000606084860312156200060157600080fd5b60006200061186828701620005d4565b93505060206200062486828701620005d4565b92505060406200063786828701620005d4565b9150509250925092565b60006200064e8262000655565b9050919050565b600073ffffffffffffffffffffffffffffffffffffffff82169050919050565b600060028204905060018216806200068e57607f821691505b60208210811415620006a557620006a4620006ab565b5b50919050565b7f4e487b7100000000000000000000000000000000000000000000000000000000600052602260045260246000fd5b620006e58162000641565b8114620006f157600080fd5b50565b61535c80620007046000396000f3fe608060405234801561001057600080fd5b506004361061023d5760003560e01c806389fcd7961161013b578063cb39dce5116100b8578063e5078ed71161007c578063e5078ed71461073e578063ebc483911461075a578063ec9f4bda14610778578063ed5ea0d214610796578063f7f093b6146107b25761023d565b8063cb39dce514610688578063cd5c3b2b146106a4578063cf2a9a93146106d4578063d547741f146106f2578063d751b1501461070e5761023d565b8063acfa3c67116100ff578063acfa3c67146105bb578063c1bd2c20146105eb578063c36f577514610609578063c4f3983014610625578063c6009d84146106555761023d565b806389fcd7961461051757806391d1485414610535578063a1a8316b14610565578063a217fddf14610581578063a24d96581461059f5761023d565b80632f77e62f116101c9578063591fe6da1161018d578063591fe6da1461044b5780637ba3ae71146104695780637beb4107146104995780637cb76b8b146104c9578063834afa81146104f95761023d565b80632f77e62f1461039757806336568abe146103b357806344276733146103cf578063484ed33e146103ff57806354a0c4581461042f5761023d565b80632330f247116102105780632330f247146102e3578063248a9ca31461031357806326defa73146103435780632de6388f1461035f5780632f2ff15d1461037b5761023d565b806301ffc9a71461024257806309c1ce8b146102725780631dae94541461028e5780631f500061146102c5575b600080fd5b61025c600480360381019061025791906139ae565b6107e2565b6040516102699190614a33565b60405180910390f35b61028c60048036038101906102879190613b03565b61085c565b005b6102a860048036038101906102a391906139d7565b610d80565b6040516102bc989796959493929190614ac9565b60405180910390f35b6102cd610f48565b6040516102da9190614a4e565b60405180910390f35b6102fd60048036038101906102f89190613920565b610f6c565b60405161030a9190614a33565b60405180910390f35b61032d60048036038101906103289190613949565b610f9f565b60405161033a9190614a4e565b60405180910390f35b61035d60048036038101906103589190613920565b610fbe565b005b610379600480360381019061037491906139d7565b611252565b005b61039560048036038101906103909190613972565b6113d2565b005b6103b160048036038101906103ac91906139d7565b611438565b005b6103cd60048036038101906103c89190613972565b6115b8565b005b6103e960048036038101906103e49190613920565b61163b565b6040516103f69190614a69565b60405180910390f35b610419600480360381019061041491906139d7565b61170c565b6040516104269190614fae565b60405180910390f35b61044960048036038101906104449190613920565b611737565b005b6104536119cb565b6040516104609190614a4e565b60405180910390f35b610483600480360381019061047e91906139d7565b6119ef565b6040516104909190614a69565b60405180910390f35b6104b360048036038101906104ae91906139d7565b611cd0565b6040516104c09190614f8c565b60405180910390f35b6104e360048036038101906104de9190613920565b61200d565b6040516104f09190614a33565b60405180910390f35b610501612040565b60405161050e9190614fae565b60405180910390f35b61051f612046565b60405161052c9190614a4e565b60405180910390f35b61054f600480360381019061054a9190613972565b61206a565b60405161055c9190614a33565b60405180910390f35b61057f600480360381019061057a91906139d7565b6120d4565b005b610589612290565b6040516105969190614a4e565b60405180910390f35b6105b960048036038101906105b491906139d7565b612297565b005b6105d560048036038101906105d09190613920565b6124ca565b6040516105e29190614a33565b60405180910390f35b6105f36124fd565b6040516106009190614a4e565b60405180910390f35b610623600480360381019061061e9190613a18565b612521565b005b61063f600480360381019061063a9190613a97565b612853565b60405161064c9190614fae565b60405180910390f35b61066f600480360381019061066a91906139d7565b6128a4565b60405161067f94939291906149c5565b60405180910390f35b6106a2600480360381019061069d9190613a97565b6129bf565b005b6106be60048036038101906106b99190613bda565b612be2565b6040516106cb9190614a69565b60405180910390f35b6106dc612c82565b6040516106e99190614a4e565b60405180910390f35b61070c60048036038101906107079190613972565b612ca6565b005b610728600480360381019061072391906139d7565b612d0c565b6040516107359190614a69565b60405180910390f35b61075860048036038101906107539190613920565b612dbf565b005b610762613053565b60405161076f9190614fae565b60405180910390f35b610780613059565b60405161078d9190614a4e565b60405180910390f35b6107b060048036038101906107ab91906139d7565b61307d565b005b6107cc60048036038101906107c791906139d7565b61320d565b6040516107d99190614a11565b60405180910390f35b60007f7965db0b000000000000000000000000000000000000000000000000000000007bffffffffffffffffffffffffffffffffffffffffffffffffffffffff1916827bffffffffffffffffffffffffffffffffffffffffffffffffffffffff19161480610855575061085482613494565b5b9050919050565b6108867f0996d044c7309cb5a01d79c18ee9e4c86aca84367cbd5bfd5f5d0606acc992733361206a565b6108c5576040517f08c379a00000000000000000000000000000000000000000000000000000000081526004016108bc90614d2c565b60405180910390fd5b6108ef7f0996d044c7309cb5a01d79c18ee9e4c86aca84367cbd5bfd5f5d0606acc992738261206a565b1561092f576040517f08c379a000000000000000000000000000000000000000000000000000000000815260040161092690614dcc565b60405180910390fd5b6109597f843b48dccc6ff192f9330133622b0536f7b94feca0cf36e7e46fc50060b6f8828261206a565b15610999576040517f08c379a000000000000000000000000000000000000000000000000000000000815260040161099090614e6c565b60405180910390fd5b6001856040516109a99190614993565b908152602001604051809103902060020160149054906101000a900460ff1615610a08576040517f08c379a00000000000000000000000000000000000000000000000000000000081526004016109ff90614e4c565b60405180910390fd5b33600186604051610a199190614993565b908152602001604051809103902060010160006101000a81548173ffffffffffffffffffffffffffffffffffffffff021916908373ffffffffffffffffffffffffffffffffffffffff16021790555080600186604051610a799190614993565b908152602001604051809103902060020160006101000a81548173ffffffffffffffffffffffffffffffffffffffff021916908373ffffffffffffffffffffffffffffffffffffffff16021790555060018086604051610ad99190614993565b908152602001604051809103902060020160146101000a81548160ff02191690831515021790555083600186604051610b129190614993565b90815260200160405180910390206000019080519060200190610b369291906136c7565b506040518060400160405280600a81526020017f7265676973746572656400000000000000000000000000000000000000000000815250600186604051610b7d9190614993565b90815260200160405180910390206005019080519060200190610ba19291906136c7565b50600654600186604051610bb59190614993565b908152602001604051809103902060040181905550846003600060065481526020019081526020016000209080519060200190610bf39291906136c7565b5060066000815480929190610c07906151e3565b9190505550600583604051610c1c9190614993565b908152602001604051809103902082604051610c389190614993565b90815260200160405180910390206000815480929190610c57906151e3565b9190505550610c867f97f21e7273917267af1fea4c3510695aa29abe57349ce57ceec11b34688318038261206a565b610d3e57610cb47f97f21e7273917267af1fea4c3510695aa29abe57349ce57ceec11b3468831803826113d2565b6040518060400160405280600c81526020017f494e56455354494741544f520000000000000000000000000000000000000000815250600460008373ffffffffffffffffffffffffffffffffffffffff1673ffffffffffffffffffffffffffffffffffffffff1681526020019081526020016000209080519060200190610d3c9291906136c7565b505b7fff88452d1e63b10e4f05e166bed6696de7594668e0e30daf24839937a0a27fee853383604051610d7193929190614a8b565b60405180910390a15050505050565b600181805160208101820180518482526020830160208501208183528095505050505050600091509050806000018054610db9906151b1565b80601f0160208091040260200160405190810160405280929190818152602001828054610de5906151b1565b8015610e325780601f10610e0757610100808354040283529160200191610e32565b820191906000526020600020905b815481529060010190602001808311610e1557829003601f168201915b5050505050908060010160009054906101000a900473ffffffffffffffffffffffffffffffffffffffff16908060020160009054906101000a900473ffffffffffffffffffffffffffffffffffffffff16908060020160149054906101000a900460ff16908060020160159054906101000a900460ff1690806003015490806004015490806005018054610ec5906151b1565b80601f0160208091040260200160405190810160405280929190818152602001828054610ef1906151b1565b8015610f3e5780601f10610f1357610100808354040283529160200191610f3e565b820191906000526020600020905b815481529060010190602001808311610f2157829003601f168201915b5050505050905088565b7fe5786ee6f50ab1a5567cb3f3f6840a2f4ddbafdf4a35cb2c52d5b732b1e84a3281565b6000610f987f843b48dccc6ff192f9330133622b0536f7b94feca0cf36e7e46fc50060b6f8828361206a565b9050919050565b6000806000838152602001908152602001600020600101549050919050565b610fe87f3e206be88d1de4207c0189003e17add3718b1a1bf78910a785940577239bbdae3361206a565b611027576040517f08c379a000000000000000000000000000000000000000000000000000000000815260040161101e90614b8c565b60405180910390fd5b6110517f843b48dccc6ff192f9330133622b0536f7b94feca0cf36e7e46fc50060b6f8828261206a565b15611091576040517f08c379a000000000000000000000000000000000000000000000000000000000815260040161108890614cec565b60405180910390fd5b6110bb7f0996d044c7309cb5a01d79c18ee9e4c86aca84367cbd5bfd5f5d0606acc992738261206a565b156110fb576040517f08c379a00000000000000000000000000000000000000000000000000000000081526004016110f290614e0c565b60405180910390fd5b6111257f97f21e7273917267af1fea4c3510695aa29abe57349ce57ceec11b34688318038261206a565b15611165576040517f08c379a000000000000000000000000000000000000000000000000000000000815260040161115c90614c0c565b60405180910390fd5b61118f7f843b48dccc6ff192f9330133622b0536f7b94feca0cf36e7e46fc50060b6f882826113d2565b6040518060400160405280600981526020017f415554484f524954590000000000000000000000000000000000000000000000815250600460008373ffffffffffffffffffffffffffffffffffffffff1673ffffffffffffffffffffffffffffffffffffffff16815260200190815260200160002090805190602001906112179291906136c7565b507f3c0aee07d693a6f94b1a6aca6097bdde55429f0834eb9c27e3c31a03081f09b48160405161124791906149aa565b60405180910390a150565b61127c7f843b48dccc6ff192f9330133622b0536f7b94feca0cf36e7e46fc50060b6f8823361206a565b6112bb576040517f08c379a00000000000000000000000000000000000000000000000000000000081526004016112b290614bec565b60405180910390fd5b6001816040516112cb9190614993565b908152602001604051809103902060020160159054906101000a900460ff16156112f457600080fd5b600180826040516113059190614993565b908152602001604051809103902060020160156101000a81548160ff0219169083151502179055506040518060400160405280600781526020017f726573756d6564000000000000000000000000000000000000000000000000008152506001826040516113739190614993565b908152602001604051809103902060050190805190602001906113979291906136c7565b507fd1c688ddb9e9baabcd8e5f84a85f4933173bc6600b2f361087b41cd9304e2920816040516113c79190614a69565b60405180910390a150565b6113eb6113de83610f9f565b6113e66134fe565b61206a565b61142a576040517f08c379a000000000000000000000000000000000000000000000000000000000815260040161142190614bac565b60405180910390fd5b6114348282613506565b5050565b6114627f843b48dccc6ff192f9330133622b0536f7b94feca0cf36e7e46fc50060b6f8823361206a565b6114a1576040517f08c379a000000000000000000000000000000000000000000000000000000000815260040161149890614bec565b60405180910390fd5b6001816040516114b19190614993565b908152602001604051809103902060020160159054906101000a900460ff166114d957600080fd5b60006001826040516114eb9190614993565b908152602001604051809103902060020160156101000a81548160ff0219169083151502179055506040518060400160405280600981526020017f73757370656e64656400000000000000000000000000000000000000000000008152506001826040516115599190614993565b9081526020016040518091039020600501908051906020019061157d9291906136c7565b507fb9f86d562ae4d5d427f505b81f74024716097f50538bc3d5a16f0716ca399559816040516115ad9190614a69565b60405180910390a150565b6115c06134fe565b73ffffffffffffffffffffffffffffffffffffffff168173ffffffffffffffffffffffffffffffffffffffff161461162d576040517f08c379a000000000000000000000000000000000000000000000000000000000815260040161162490614f4c565b60405180910390fd5b61163782826135e6565b5050565b6060600460008373ffffffffffffffffffffffffffffffffffffffff1673ffffffffffffffffffffffffffffffffffffffff1681526020019081526020016000208054611687906151b1565b80601f01602080910402602001604051908101604052809291908181526020018280546116b3906151b1565b80156117005780601f106116d557610100808354040283529160200191611700565b820191906000526020600020905b8154815290600101906020018083116116e357829003601f168201915b50505050509050919050565b600060018260405161171e9190614993565b9081526020016040518091039020600301549050919050565b6117617f47a6ab365f603cf120cb936195de17fd0bac3880ff606e7a0edb5e8e6580b1ae3361206a565b6117a0576040517f08c379a000000000000000000000000000000000000000000000000000000000815260040161179790614c4c565b60405180910390fd5b6117ca7f0996d044c7309cb5a01d79c18ee9e4c86aca84367cbd5bfd5f5d0606acc992738261206a565b1561180a576040517f08c379a000000000000000000000000000000000000000000000000000000000815260040161180190614d6c565b60405180910390fd5b6118347f97f21e7273917267af1fea4c3510695aa29abe57349ce57ceec11b34688318038261206a565b15611874576040517f08c379a000000000000000000000000000000000000000000000000000000000815260040161186b90614c0c565b60405180910390fd5b61189e7f843b48dccc6ff192f9330133622b0536f7b94feca0cf36e7e46fc50060b6f8828261206a565b156118de576040517f08c379a00000000000000000000000000000000000000000000000000000000081526004016118d590614d0c565b60405180910390fd5b6119087f0996d044c7309cb5a01d79c18ee9e4c86aca84367cbd5bfd5f5d0606acc99273826113d2565b6040518060400160405280600881526020017f50524f4d4f544552000000000000000000000000000000000000000000000000815250600460008373ffffffffffffffffffffffffffffffffffffffff1673ffffffffffffffffffffffffffffffffffffffff16815260200190815260200160002090805190602001906119909291906136c7565b507f786ebfd921e487d94a7dbf555edf33e5f264f7b59acdcdfe139c08f48f075559816040516119c091906149aa565b60405180910390a150565b7f3e206be88d1de4207c0189003e17add3718b1a1bf78910a785940577239bbdae81565b6060611a1b7f0996d044c7309cb5a01d79c18ee9e4c86aca84367cbd5bfd5f5d0606acc992733361206a565b80611a4c5750611a4b7f97f21e7273917267af1fea4c3510695aa29abe57349ce57ceec11b34688318033361206a565b5b611a8b576040517f08c379a0000000000000000000000000000000000000000000000000000000008152600401611a8290614bcc565b60405180910390fd5b3373ffffffffffffffffffffffffffffffffffffffff16600183604051611ab29190614993565b908152602001604051809103902060010160009054906101000a900473ffffffffffffffffffffffffffffffffffffffff1673ffffffffffffffffffffffffffffffffffffffff161480611b7257503373ffffffffffffffffffffffffffffffffffffffff16600183604051611b289190614993565b908152602001604051809103902060020160009054906101000a900473ffffffffffffffffffffffffffffffffffffffff1673ffffffffffffffffffffffffffffffffffffffff16145b611bb1576040517f08c379a0000000000000000000000000000000000000000000000000000000008152600401611ba890614c8c565b60405180910390fd5b600182604051611bc19190614993565b908152602001604051809103902060020160159054906101000a900460ff16611c1f576040517f08c379a0000000000000000000000000000000000000000000000000000000008152600401611c1690614ecc565b60405180910390fd5b600182604051611c2f9190614993565b90815260200160405180910390206000018054611c4b906151b1565b80601f0160208091040260200160405190810160405280929190818152602001828054611c77906151b1565b8015611cc45780601f10611c9957610100808354040283529160200191611cc4565b820191906000526020600020905b815481529060010190602001808311611ca757829003601f168201915b50505050509050919050565b611cd861374d565b60011515600183604051611cec9190614993565b908152602001604051809103902060020160149054906101000a900460ff16151514611d4d576040517f08c379a0000000000000000000000000000000000000000000000000000000008152600401611d4490614c6c565b60405180910390fd5b60011515600183604051611d619190614993565b908152602001604051809103902060020160159054906101000a900460ff16151514611dc2576040517f08c379a0000000000000000000000000000000000000000000000000000000008152600401611db990614f6c565b60405180910390fd5b600182604051611dd29190614993565b908152602001604051809103902060405180610100016040529081600082018054611dfc906151b1565b80601f0160208091040260200160405190810160405280929190818152602001828054611e28906151b1565b8015611e755780601f10611e4a57610100808354040283529160200191611e75565b820191906000526020600020905b815481529060010190602001808311611e5857829003601f168201915b505050505081526020016001820160009054906101000a900473ffffffffffffffffffffffffffffffffffffffff1673ffffffffffffffffffffffffffffffffffffffff1673ffffffffffffffffffffffffffffffffffffffff1681526020016002820160009054906101000a900473ffffffffffffffffffffffffffffffffffffffff1673ffffffffffffffffffffffffffffffffffffffff1673ffffffffffffffffffffffffffffffffffffffff1681526020016002820160149054906101000a900460ff161515151581526020016002820160159054906101000a900460ff161515151581526020016003820154815260200160048201548152602001600582018054611f84906151b1565b80601f0160208091040260200160405190810160405280929190818152602001828054611fb0906151b1565b8015611ffd5780601f10611fd257610100808354040283529160200191611ffd565b820191906000526020600020905b815481529060010190602001808311611fe057829003601f168201915b5050505050815250509050919050565b60006120397f97f21e7273917267af1fea4c3510695aa29abe57349ce57ceec11b34688318038361206a565b9050919050565b60075481565b7f843b48dccc6ff192f9330133622b0536f7b94feca0cf36e7e46fc50060b6f88281565b600080600084815260200190815260200160002060000160008373ffffffffffffffffffffffffffffffffffffffff1673ffffffffffffffffffffffffffffffffffffffff16815260200190815260200160002060009054906101000a900460ff16905092915050565b6120fe7f843b48dccc6ff192f9330133622b0536f7b94feca0cf36e7e46fc50060b6f8823361206a565b61213d576040517f08c379a000000000000000000000000000000000000000000000000000000000815260040161213490614f2c565b60405180910390fd5b600115156001826040516121519190614993565b908152602001604051809103902060020160149054906101000a900460ff161515146121b2576040517f08c379a00000000000000000000000000000000000000000000000000000000081526004016121a990614eec565b60405180910390fd5b600180826040516121c39190614993565b908152602001604051809103902060020160156101000a81548160ff0219169083151502179055506040518060400160405280600981526020017f76616c69646174656400000000000000000000000000000000000000000000008152506001826040516122319190614993565b908152602001604051809103902060050190805190602001906122559291906136c7565b507fbc0e66a9d9a6660141870110fa7932ebb7fe171d5e52ee9a42674665105f1d1b816040516122859190614a69565b60405180910390a150565b6000801b81565b6002816040516122a79190614993565b908152602001604051809103902060000160009054906101000a900473ffffffffffffffffffffffffffffffffffffffff1673ffffffffffffffffffffffffffffffffffffffff163373ffffffffffffffffffffffffffffffffffffffff1614612346576040517f08c379a000000000000000000000000000000000000000000000000000000000815260040161233d90614dac565b60405180910390fd5b6001151560028260405161235a9190614993565b908152602001604051809103902060030160009054906101000a900460ff161515146123bb576040517f08c379a00000000000000000000000000000000000000000000000000000000081526004016123b290614e8c565b60405180910390fd5b600015156002826040516123cf9190614993565b908152602001604051809103902060030160009054906101000a905050506002816040516123fd9190614993565b9081526020016040518091039020600080820160006101000a81549073ffffffffffffffffffffffffffffffffffffffff02191690556001820160006101000a81549073ffffffffffffffffffffffffffffffffffffffff021916905560028201600061246a91906137c2565b6003820160006101000a81549060ff021916905560048201600061248e9190613802565b50507f1a24299bbcab71cb3013c24c40adca455867472f22ae6d056e4e0cb2bb0e5a73816040516124bf9190614a69565b60405180910390a150565b60006124f67f0996d044c7309cb5a01d79c18ee9e4c86aca84367cbd5bfd5f5d0606acc992738361206a565b9050919050565b7f47a6ab365f603cf120cb936195de17fd0bac3880ff606e7a0edb5e8e6580b1ae81565b61254b7f97f21e7273917267af1fea4c3510695aa29abe57349ce57ceec11b34688318033361206a565b61258a576040517f08c379a000000000000000000000000000000000000000000000000000000000815260040161258190614dec565b60405180910390fd5b6001151560018260405161259e9190614993565b908152602001604051809103902060020160159054906101000a900460ff161515146125ff576040517f08c379a00000000000000000000000000000000000000000000000000000000081526004016125f690614cac565b60405180910390fd5b60018160405161260f9190614993565b908152602001604051809103902060020160009054906101000a900473ffffffffffffffffffffffffffffffffffffffff1673ffffffffffffffffffffffffffffffffffffffff163373ffffffffffffffffffffffffffffffffffffffff16146126ae576040517f08c379a00000000000000000000000000000000000000000000000000000000081526004016126a590614c2c565b60405180910390fd5b60016002846040516126c09190614993565b908152602001604051809103902060030160006101000a81548160ff021916908315150217905550816002846040516126f99190614993565b908152602001604051809103902060000160006101000a81548173ffffffffffffffffffffffffffffffffffffffff021916908373ffffffffffffffffffffffffffffffffffffffff160217905550336002846040516127599190614993565b908152602001604051809103902060010160006101000a81548173ffffffffffffffffffffffffffffffffffffffff021916908373ffffffffffffffffffffffffffffffffffffffff160217905550806002846040516127b99190614993565b908152602001604051809103902060020190805190602001906127dd9291906136c7565b506001816040516127ee9190614993565b90815260200160405180910390206003016000815480929190612810906151e3565b91905055507f76b4f38e7ada56c131a0c796e7382093d7b5a69175ca0bf513f5827f60f5314d8382604051612846929190614b55565b60405180910390a1505050565b600060016005846040516128679190614993565b9081526020016040518091039020836040516128839190614993565b90815260200160405180910390205461289c919061509b565b905092915050565b6002818051602081018201805184825260208301602085012081835280955050505050506000915090508060000160009054906101000a900473ffffffffffffffffffffffffffffffffffffffff16908060010160009054906101000a900473ffffffffffffffffffffffffffffffffffffffff1690806002018054612929906151b1565b80601f0160208091040260200160405190810160405280929190818152602001828054612955906151b1565b80156129a25780601f10612977576101008083540402835291602001916129a2565b820191906000526020600020905b81548152906001019060200180831161298557829003601f168201915b5050505050908060030160009054906101000a900460ff16905084565b6129e97f97f21e7273917267af1fea4c3510695aa29abe57349ce57ceec11b34688318033361206a565b612a28576040517f08c379a0000000000000000000000000000000000000000000000000000000008152600401612a1f90614d4c565b60405180910390fd5b600282604051612a389190614993565b908152602001604051809103902060010160009054906101000a900473ffffffffffffffffffffffffffffffffffffffff1673ffffffffffffffffffffffffffffffffffffffff163373ffffffffffffffffffffffffffffffffffffffff1614612ad7576040517f08c379a0000000000000000000000000000000000000000000000000000000008152600401612ace90614f0c565b60405180910390fd5b60011515600283604051612aeb9190614993565b908152602001604051809103902060030160009054906101000a900460ff16151514612b4c576040517f08c379a0000000000000000000000000000000000000000000000000000000008152600401612b4390614eac565b60405180910390fd5b600282604051612b5c9190614993565b908152602001604051809103902060040181908060018154018082558091505060019003906000526020600020016000909190919091509080519060200190612ba69291906136c7565b507f2fd00fee6fba014584e65a085e3eb131b03ff5c389c44c3cf9e857d52c1650d681604051612bd69190614a69565b60405180910390a15050565b60036020528060005260406000206000915090508054612c01906151b1565b80601f0160208091040260200160405190810160405280929190818152602001828054612c2d906151b1565b8015612c7a5780601f10612c4f57610100808354040283529160200191612c7a565b820191906000526020600020905b815481529060010190602001808311612c5d57829003601f168201915b505050505081565b7f97f21e7273917267af1fea4c3510695aa29abe57349ce57ceec11b346883180381565b612cbf612cb283610f9f565b612cba6134fe565b61206a565b612cfe576040517f08c379a0000000000000000000000000000000000000000000000000000000008152600401612cf590614ccc565b60405180910390fd5b612d0882826135e6565b5050565b6060600182604051612d1e9190614993565b90815260200160405180910390206005018054612d3a906151b1565b80601f0160208091040260200160405190810160405280929190818152602001828054612d66906151b1565b8015612db35780601f10612d8857610100808354040283529160200191612db3565b820191906000526020600020905b815481529060010190602001808311612d9657829003601f168201915b50505050509050919050565b612de97f47a6ab365f603cf120cb936195de17fd0bac3880ff606e7a0edb5e8e6580b1ae3361206a565b612e28576040517f08c379a0000000000000000000000000000000000000000000000000000000008152600401612e1f90614c4c565b60405180910390fd5b612e527f97f21e7273917267af1fea4c3510695aa29abe57349ce57ceec11b34688318038261206a565b15612e92576040517f08c379a0000000000000000000000000000000000000000000000000000000008152600401612e8990614d8c565b60405180910390fd5b612ebc7f0996d044c7309cb5a01d79c18ee9e4c86aca84367cbd5bfd5f5d0606acc992738261206a565b15612efc576040517f08c379a0000000000000000000000000000000000000000000000000000000008152600401612ef390614e0c565b60405180910390fd5b612f267f843b48dccc6ff192f9330133622b0536f7b94feca0cf36e7e46fc50060b6f8828261206a565b15612f66576040517f08c379a0000000000000000000000000000000000000000000000000000000008152600401612f5d90614d0c565b60405180910390fd5b612f907f97f21e7273917267af1fea4c3510695aa29abe57349ce57ceec11b3468831803826113d2565b6040518060400160405280600c81526020017f494e56455354494741544f520000000000000000000000000000000000000000815250600460008373ffffffffffffffffffffffffffffffffffffffff1673ffffffffffffffffffffffffffffffffffffffff16815260200190815260200160002090805190602001906130189291906136c7565b507fe8418412d360af43b959e2ca49b9ad98feb77e7b5597963ca346077db47d69ba8160405161304891906149aa565b60405180910390a150565b60065481565b7f0996d044c7309cb5a01d79c18ee9e4c86aca84367cbd5bfd5f5d0606acc9927381565b60028160405161308d9190614993565b908152602001604051809103902060000160009054906101000a900473ffffffffffffffffffffffffffffffffffffffff1673ffffffffffffffffffffffffffffffffffffffff163373ffffffffffffffffffffffffffffffffffffffff161461312c576040517f08c379a000000000000000000000000000000000000000000000000000000000815260040161312390614dac565b60405180910390fd5b600015156002826040516131409190614993565b908152602001604051809103902060030160009054906101000a900460ff161515146131a1576040517f08c379a000000000000000000000000000000000000000000000000000000000815260040161319890614e2c565b60405180910390fd5b600115156002826040516131b59190614993565b908152602001604051809103902060030160009054906101000a905050507fbf0bdf0dac0f40e06b9d86448186b0585c751a20ebbf3541074e23bb229e4f81816040516132029190614a69565b60405180910390a150565b60606132397f97f21e7273917267af1fea4c3510695aa29abe57349ce57ceec11b34688318033361206a565b613278576040517f08c379a000000000000000000000000000000000000000000000000000000000815260040161326f90614d4c565b60405180910390fd5b6002826040516132889190614993565b908152602001604051809103902060010160009054906101000a900473ffffffffffffffffffffffffffffffffffffffff1673ffffffffffffffffffffffffffffffffffffffff163373ffffffffffffffffffffffffffffffffffffffff1614613327576040517f08c379a000000000000000000000000000000000000000000000000000000000815260040161331e90614f0c565b60405180910390fd5b6001151560028360405161333b9190614993565b908152602001604051809103902060030160009054906101000a900460ff1615151461339c576040517f08c379a000000000000000000000000000000000000000000000000000000000815260040161339390614eac565b60405180910390fd5b6002826040516133ac9190614993565b9081526020016040518091039020600401805480602002602001604051908101604052809291908181526020016000905b828210156134895783829060005260206000200180546133fc906151b1565b80601f0160208091040260200160405190810160405280929190818152602001828054613428906151b1565b80156134755780601f1061344a57610100808354040283529160200191613475565b820191906000526020600020905b81548152906001019060200180831161345857829003601f168201915b5050505050815260200190600101906133dd565b505050509050919050565b60007f01ffc9a7000000000000000000000000000000000000000000000000000000007bffffffffffffffffffffffffffffffffffffffffffffffffffffffff1916827bffffffffffffffffffffffffffffffffffffffffffffffffffffffff1916149050919050565b600033905090565b613510828261206a565b6135e257600160008084815260200190815260200160002060000160008373ffffffffffffffffffffffffffffffffffffffff1673ffffffffffffffffffffffffffffffffffffffff16815260200190815260200160002060006101000a81548160ff0219169083151502179055506135876134fe565b73ffffffffffffffffffffffffffffffffffffffff168173ffffffffffffffffffffffffffffffffffffffff16837f2f8788117e7eff1d82e926ec794901d17c78024a50270940304540a733656f0d60405160405180910390a45b5050565b6135f0828261206a565b156136c357600080600084815260200190815260200160002060000160008373ffffffffffffffffffffffffffffffffffffffff1673ffffffffffffffffffffffffffffffffffffffff16815260200190815260200160002060006101000a81548160ff0219169083151502179055506136686134fe565b73ffffffffffffffffffffffffffffffffffffffff168173ffffffffffffffffffffffffffffffffffffffff16837ff6391f5c32d9c69d2a47ea670b442974b53935d1edc7fd64eb21e047a839171b60405160405180910390a45b5050565b8280546136d3906151b1565b90600052602060002090601f0160209004810192826136f5576000855561373c565b82601f1061370e57805160ff191683800117855561373c565b8280016001018555821561373c579182015b8281111561373b578251825591602001919060010190613720565b5b5090506137499190613823565b5090565b60405180610100016040528060608152602001600073ffffffffffffffffffffffffffffffffffffffff168152602001600073ffffffffffffffffffffffffffffffffffffffff1681526020016000151581526020016000151581526020016000815260200160008152602001606081525090565b5080546137ce906151b1565b6000825580601f106137e057506137ff565b601f0160209004906000526020600020908101906137fe9190613823565b5b50565b50805460008255906000526020600020908101906138209190613840565b50565b5b8082111561383c576000816000905550600101613824565b5090565b5b80821115613860576000818161385791906137c2565b50600101613841565b5090565b600061387761387284614ffa565b614fc9565b90508281526020810184848401111561388f57600080fd5b61389a84828561516f565b509392505050565b6000813590506138b1816152ca565b92915050565b6000813590506138c6816152e1565b92915050565b6000813590506138db816152f8565b92915050565b600082601f8301126138f257600080fd5b8135613902848260208601613864565b91505092915050565b60008135905061391a8161530f565b92915050565b60006020828403121561393257600080fd5b6000613940848285016138a2565b91505092915050565b60006020828403121561395b57600080fd5b6000613969848285016138b7565b91505092915050565b6000806040838503121561398557600080fd5b6000613993858286016138b7565b92505060206139a4858286016138a2565b9150509250929050565b6000602082840312156139c057600080fd5b60006139ce848285016138cc565b91505092915050565b6000602082840312156139e957600080fd5b600082013567ffffffffffffffff811115613a0357600080fd5b613a0f848285016138e1565b91505092915050565b600080600060608486031215613a2d57600080fd5b600084013567ffffffffffffffff811115613a4757600080fd5b613a53868287016138e1565b9350506020613a64868287016138a2565b925050604084013567ffffffffffffffff811115613a8157600080fd5b613a8d868287016138e1565b9150509250925092565b60008060408385031215613aaa57600080fd5b600083013567ffffffffffffffff811115613ac457600080fd5b613ad0858286016138e1565b925050602083013567ffffffffffffffff811115613aed57600080fd5b613af9858286016138e1565b9150509250929050565b600080600080600060a08688031215613b1b57600080fd5b600086013567ffffffffffffffff811115613b3557600080fd5b613b41888289016138e1565b955050602086013567ffffffffffffffff811115613b5e57600080fd5b613b6a888289016138e1565b945050604086013567ffffffffffffffff811115613b8757600080fd5b613b93888289016138e1565b935050606086013567ffffffffffffffff811115613bb057600080fd5b613bbc888289016138e1565b9250506080613bcd888289016138a2565b9150509295509295909350565b600060208284031215613bec57600080fd5b6000613bfa8482850161390b565b91505092915050565b6000613c0f8383613cd7565b905092915050565b613c20816150f1565b82525050565b613c2f816150f1565b82525050565b6000613c408261503a565b613c4a818561505d565b935083602082028501613c5c8561502a565b8060005b85811015613c985784840389528151613c798582613c03565b9450613c8483615050565b925060208a01995050600181019050613c60565b50829750879550505050505092915050565b613cb381615103565b82525050565b613cc281615103565b82525050565b613cd18161510f565b82525050565b6000613ce282615045565b613cec818561506e565b9350613cfc81856020860161517e565b613d05816152b9565b840191505092915050565b6000613d1b82615045565b613d25818561507f565b9350613d3581856020860161517e565b613d3e816152b9565b840191505092915050565b6000613d5482615045565b613d5e8185615090565b9350613d6e81856020860161517e565b80840191505092915050565b6000613d87602e8361507f565b91507f4f6e6c792074686520617574686f726974792061646d696e2063616e2061646460008301527f20696e76657374696761746f72730000000000000000000000000000000000006020830152604082019050919050565b6000613ded602f8361507f565b91507f416363657373436f6e74726f6c3a2073656e646572206d75737420626520616e60008301527f2061646d696e20746f206772616e7400000000000000000000000000000000006020830152604082019050919050565b6000613e5360308361507f565b91507f6f6e6c792070726f6d6f7465727320616e6420696e76657374696761746f727360008301527f20686176652074686973207269676874000000000000000000000000000000006020830152604082019050919050565b6000613eb960248361507f565b91507f4f6e6c7920617574686f726969746965732063616e2073757370656e6420747260008301527f69616c73000000000000000000000000000000000000000000000000000000006020830152604082019050919050565b6000613f1f60178361507f565b91507f596f752061726520616e20696e76657374696761746f720000000000000000006000830152602082019050919050565b6000613f5f60368361507f565b91507f596f7520646f206e6f74206861766520726967687420746f206164642070617460008301527f69656e747320746f20746869732070726f746f636f6c000000000000000000006020830152604082019050919050565b6000613fc5602d8361507f565b91507f4f6e6c79207468652070726f6d6f746f722061646d696e2063616e206164642060008301527f696e76657374696761746f7273000000000000000000000000000000000000006020830152604082019050919050565b600061402b60218361507f565b91507f5468657265206973206e6f2070726f746f636f6c20776974682074686973206960008301527f64000000000000000000000000000000000000000000000000000000000000006020830152604082019050919050565b6000614091602a8361507f565b91507f596f7520646f206e6f74206861766520726967687420746f206f70656e20746860008301527f69732070726f6a656374000000000000000000000000000000000000000000006020830152604082019050919050565b60006140f760298361507f565b91507f546869732070726f746f636f6c20686173206e6f74206265656e20617574686f60008301527f72697a65642079657400000000000000000000000000000000000000000000006020830152604082019050919050565b600061415d60308361507f565b91507f416363657373436f6e74726f6c3a2073656e646572206d75737420626520616e60008301527f2061646d696e20746f207265766f6b65000000000000000000000000000000006020830152604082019050919050565b60006141c3601c8361507f565b91507f596f752061726520616c726561647920616e20617574686f72697479000000006000830152602082019050919050565b600061420360148361507f565b91507f596f752061726520616e20617574686f726974790000000000000000000000006000830152602082019050919050565b600061424360238361507f565b91507f4f6e6c792070726f6d6f746572732063616e207375626d69742070726f746f6360008301527f6f6c7300000000000000000000000000000000000000000000000000000000006020830152604082019050919050565b60006142a960238361507f565b91507f4f6e6c7920696e76657374696761746f72732063616e20636f6c6c656374206460008301527f61746100000000000000000000000000000000000000000000000000000000006020830152604082019050919050565b600061430f601a8361507f565b91507f596f752061726520616c726561647920612070726f6d6f7465720000000000006000830152602082019050919050565b600061434f601f8361507f565b91507f596f752061726520616c726561647920616e20696e76657374696761746f72006000830152602082019050919050565b600061438f60168361507f565b91507f596f7572204944206973206e6f7420636f7272656374000000000000000000006000830152602082019050919050565b60006143cf60218361507f565b91507f50726f6d6f746572732063616e6e6f7420626520696e76657374696761746f7260008301527f73000000000000000000000000000000000000000000000000000000000000006020830152604082019050919050565b600061443560308361507f565b91507f4f6e6c7920696e76657374696761746f72732063616e2061646420706174696560008301527f6e747320746f2070726f746f636f6c73000000000000000000000000000000006020830152604082019050919050565b600061449b60128361507f565b91507f596f752061726520612070726f6d6f74657200000000000000000000000000006000830152602082019050919050565b60006144db60178361507f565b91507f596f7520646964206e6f7420636f6e73656e74207965740000000000000000006000830152602082019050919050565b600061451b60228361507f565b91507f5468652070726f746f636f6c20697320616c726561647920726567697374657260008301527f65640000000000000000000000000000000000000000000000000000000000006020830152604082019050919050565b600061458160238361507f565b91507f417574686f7269746965732063616e6e6f7420626520696e766573746967617460008301527f6f727300000000000000000000000000000000000000000000000000000000006020830152604082019050919050565b60006145e7601f8361507f565b91507f596f7520616c7265616479207265766f6b6520796f757220636f6e73656e74006000830152602082019050919050565b6000614627601d8361507f565b91507f476574207468652070617469656e7420636f6e73656e742066697273740000006000830152602082019050919050565b600061466760228361507f565b91507f5468657265206973206e6f2070726f746f636f6c20776974682074686973206360008301527f69640000000000000000000000000000000000000000000000000000000000006020830152604082019050919050565b60006146cd602c8361507f565b91507f5468657265206973206e6f2070726f746f636f6c206173736f6369617465642060008301527f77697468207468697320494400000000000000000000000000000000000000006020830152604082019050919050565b600061473360268361507f565b91507f596f7520646f206e6f74206861766520726967687420666f722074686973207060008301527f617469656e7400000000000000000000000000000000000000000000000000006020830152604082019050919050565b600061479960318361507f565b91507f4f6e6c7920617574686f726974696573206861766520726967687420746f207660008301527f616c69646174652070726f746f636f6c730000000000000000000000000000006020830152604082019050919050565b60006147ff602f8361507f565b91507f416363657373436f6e74726f6c3a2063616e206f6e6c792072656e6f756e636560008301527f20726f6c657320666f722073656c6600000000000000000000000000000000006020830152604082019050919050565b600061486560278361507f565b91507f546869732070726f746f636f6c206873206e6f74206265656e2076616c69646160008301527f74656420796574000000000000000000000000000000000000000000000000006020830152604082019050919050565b60006101008301600083015184820360008601526148dc8282613cd7565b91505060208301516148f16020860182613c17565b5060408301516149046040860182613c17565b5060608301516149176060860182613caa565b50608083015161492a6080860182613caa565b5060a083015161493d60a0860182614975565b5060c083015161495060c0860182614975565b5060e083015184820360e08601526149688282613cd7565b9150508091505092915050565b61497e81615165565b82525050565b61498d81615165565b82525050565b600061499f8284613d49565b915081905092915050565b60006020820190506149bf6000830184613c26565b92915050565b60006080820190506149da6000830187613c26565b6149e76020830186613c26565b81810360408301526149f98185613d10565b9050614a086060830184613cb9565b95945050505050565b60006020820190508181036000830152614a2b8184613c35565b905092915050565b6000602082019050614a486000830184613cb9565b92915050565b6000602082019050614a636000830184613cc8565b92915050565b60006020820190508181036000830152614a838184613d10565b905092915050565b60006060820190508181036000830152614aa58186613d10565b9050614ab46020830185613c26565b614ac16040830184613c26565b949350505050565b6000610100820190508181036000830152614ae4818b613d10565b9050614af3602083018a613c26565b614b006040830189613c26565b614b0d6060830188613cb9565b614b1a6080830187613cb9565b614b2760a0830186614984565b614b3460c0830185614984565b81810360e0830152614b468184613d10565b90509998505050505050505050565b60006040820190508181036000830152614b6f8185613d10565b90508181036020830152614b838184613d10565b90509392505050565b60006020820190508181036000830152614ba581613d7a565b9050919050565b60006020820190508181036000830152614bc581613de0565b9050919050565b60006020820190508181036000830152614be581613e46565b9050919050565b60006020820190508181036000830152614c0581613eac565b9050919050565b60006020820190508181036000830152614c2581613f12565b9050919050565b60006020820190508181036000830152614c4581613f52565b9050919050565b60006020820190508181036000830152614c6581613fb8565b9050919050565b60006020820190508181036000830152614c858161401e565b9050919050565b60006020820190508181036000830152614ca581614084565b9050919050565b60006020820190508181036000830152614cc5816140ea565b9050919050565b60006020820190508181036000830152614ce581614150565b9050919050565b60006020820190508181036000830152614d05816141b6565b9050919050565b60006020820190508181036000830152614d25816141f6565b9050919050565b60006020820190508181036000830152614d4581614236565b9050919050565b60006020820190508181036000830152614d658161429c565b9050919050565b60006020820190508181036000830152614d8581614302565b9050919050565b60006020820190508181036000830152614da581614342565b9050919050565b60006020820190508181036000830152614dc581614382565b9050919050565b60006020820190508181036000830152614de5816143c2565b9050919050565b60006020820190508181036000830152614e0581614428565b9050919050565b60006020820190508181036000830152614e258161448e565b9050919050565b60006020820190508181036000830152614e45816144ce565b9050919050565b60006020820190508181036000830152614e658161450e565b9050919050565b60006020820190508181036000830152614e8581614574565b9050919050565b60006020820190508181036000830152614ea5816145da565b9050919050565b60006020820190508181036000830152614ec58161461a565b9050919050565b60006020820190508181036000830152614ee58161465a565b9050919050565b60006020820190508181036000830152614f05816146c0565b9050919050565b60006020820190508181036000830152614f2581614726565b9050919050565b60006020820190508181036000830152614f458161478c565b9050919050565b60006020820190508181036000830152614f65816147f2565b9050919050565b60006020820190508181036000830152614f8581614858565b9050919050565b60006020820190508181036000830152614fa681846148be565b905092915050565b6000602082019050614fc36000830184614984565b92915050565b6000604051905081810181811067ffffffffffffffff82111715614ff057614fef61528a565b5b8060405250919050565b600067ffffffffffffffff8211156150155761501461528a565b5b601f19601f8301169050602081019050919050565b6000819050602082019050919050565b600081519050919050565b600081519050919050565b6000602082019050919050565b600082825260208201905092915050565b600082825260208201905092915050565b600082825260208201905092915050565b600081905092915050565b60006150a682615165565b91506150b183615165565b9250827fffffffffffffffffffffffffffffffffffffffffffffffffffffffffffffffff038211156150e6576150e561522c565b5b828201905092915050565b60006150fc82615145565b9050919050565b60008115159050919050565b6000819050919050565b60007fffffffff0000000000000000000000000000000000000000000000000000000082169050919050565b600073ffffffffffffffffffffffffffffffffffffffff82169050919050565b6000819050919050565b82818337600083830152505050565b60005b8381101561519c578082015181840152602081019050615181565b838111156151ab576000848401525b50505050565b600060028204905060018216806151c957607f821691505b602082108114156151dd576151dc61525b565b5b50919050565b60006151ee82615165565b91507fffffffffffffffffffffffffffffffffffffffffffffffffffffffffffffffff8214156152215761522061522c565b5b600182019050919050565b7f4e487b7100000000000000000000000000000000000000000000000000000000600052601160045260246000fd5b7f4e487b7100000000000000000000000000000000000000000000000000000000600052602260045260246000fd5b7f4e487b7100000000000000000000000000000000000000000000000000000000600052604160045260246000fd5b6000601f19601f8301169050919050565b6152d3816150f1565b81146152de57600080fd5b50565b6152ea8161510f565b81146152f557600080fd5b50565b61530181615119565b811461530c57600080fd5b50565b61531881615165565b811461532357600080fd5b5056fea2646970667358221220754cdacdafaad8cf7f81c28099d915d50489174f43ad693facd6fe13c3e1e96064736f6c63430008000033",
  "immutableReferences": {},
  "source": "// SPDX-License-Identifier: MIT\npragma solidity 0.8.0;\n\nimport \"../client/node_modules/@openzeppelin/contracts/access/AccessControl.sol\";\n\ncontract MedTrials is AccessControl {\n    struct Protocol {\n        string cid;\n        address promoter;\n        address investigator;\n        bool registered;\n        bool authorized;\n        uint256 nbOfPatients;\n        uint256 index;\n        string status;\n    }\n\n    struct Patient {\n        address patient;\n        address investigator;\n        string protocolID;\n        bool consent;\n        string[] cids;\n    }\n\n    mapping(string => Protocol) public protocols;\n    mapping(string => Patient) public patients;\n    mapping(uint256 => string) public protocolsID;\n    mapping(address => string) roles;\n\n    mapping(string => mapping(string => uint256)) private protocolNumerotation;\n\n    bytes32 public constant AUTHORITY = keccak256(\"AUTHORITY\");\n    bytes32 public constant AUTHORITY_ADMIN = keccak256(\"AUTHORITYADMIN\");\n    bytes32 public constant PROMOTER = keccak256(\"PROMOTER\");\n    bytes32 public constant PROMOTER_ADMIN = keccak256(\"PROMOTERADMIN\");\n    bytes32 public constant INVESTIGATOR = keccak256(\"INVESTIGATOR\");\n    bytes32 public constant PATIENT = keccak256(\"PATIENT\");\n\n    uint256 public nbOfProtocolsRegistered;\n    uint256 public nbOfPatients;\n\n    event promoterAdded(address _address);\n    event authorityAdded(address _address);\n    event investigatorAdded(address _address);\n    event protocolValidated(string _id);\n    event newProtocol(string _id, address _promotor, address _investigator);\n    event patientAdded(string _patientID, string _protocolID);\n    event consentGiven(string _patientID);\n    event consentRevoked(string _patientID);\n    event cidSaved(string _cid);\n    event protocolSuspended(string _protocolID);\n    event protocolResumed(string _protocolID);\n\n    constructor(\n        address _default_admin,\n        address _authorityAdmin,\n        address _promotorAdmin\n    ) {\n        _setupRole(DEFAULT_ADMIN_ROLE, _default_admin);\n\n        _setRoleAdmin(AUTHORITY_ADMIN, DEFAULT_ADMIN_ROLE);\n        _setRoleAdmin(AUTHORITY, AUTHORITY_ADMIN);\n\n        _setRoleAdmin(PROMOTER_ADMIN, DEFAULT_ADMIN_ROLE);\n        _setRoleAdmin(PROMOTER, PROMOTER_ADMIN);\n\n        _setRoleAdmin(INVESTIGATOR, PROMOTER);\n\n        _setupRole(AUTHORITY_ADMIN, _authorityAdmin);\n        _setupRole(PROMOTER_ADMIN, _promotorAdmin);\n\n        //renounceRole(DEFAULT_ADMIN_ROLE, _default_admin);\n\n        roles[_authorityAdmin] = \"AUTHORITY ADMIN\";\n        roles[_promotorAdmin] = \"PROMOTER ADMIN\";\n    }\n\n    function isAuthority(address _address) public view returns (bool) {\n        return hasRole(AUTHORITY, _address);\n    }\n\n    function isPromoter(address _address) public view returns (bool) {\n        return hasRole(PROMOTER, _address);\n    }\n\n    function isInvestigator(address _address) public view returns (bool) {\n        return hasRole(INVESTIGATOR, _address);\n    }\n\n    function addPromoter(address _address) public {\n        require(\n            hasRole(PROMOTER_ADMIN, msg.sender),\n            \"Only the promotor admin can add investigators\"\n        );\n        require(!hasRole(PROMOTER, _address), \"You are already a promoter\");\n        require(!hasRole(INVESTIGATOR, _address), \"You are an investigator\");\n        require(!hasRole(AUTHORITY, _address), \"You are an authority\");\n\n        grantRole(PROMOTER, _address);\n        roles[_address] = \"PROMOTER\";\n\n        emit promoterAdded(_address);\n    }\n\n    function addInvestigator(address _address) public {\n        require(\n            hasRole(PROMOTER_ADMIN, msg.sender),\n            \"Only the promotor admin can add investigators\"\n        );\n        require(\n            !hasRole(INVESTIGATOR, _address),\n            \"You are already an investigator\"\n        );\n        require(!hasRole(PROMOTER, _address), \"You are a promoter\");\n        require(!hasRole(AUTHORITY, _address), \"You are an authority\");\n\n        grantRole(INVESTIGATOR, _address);\n        roles[_address] = \"INVESTIGATOR\";\n\n        emit investigatorAdded(_address);\n    }\n\n    function addAuthority(address _address) public {\n        require(\n            hasRole(AUTHORITY_ADMIN, msg.sender),\n            \"Only the authority admin can add investigators\"\n        );\n        require(!hasRole(AUTHORITY, _address), \"You are already an authority\");\n        require(!hasRole(PROMOTER, _address), \"You are a promoter\");\n        require(!hasRole(INVESTIGATOR, _address), \"You are an investigator\");\n\n        grantRole(AUTHORITY, _address);\n        roles[_address] = \"AUTHORITY\";\n\n        emit authorityAdded(_address);\n    }\n\n    function registerProtocol(\n        string memory _id,\n        string memory _cid,\n        string memory center,\n        string memory category,\n        address _investigator\n    ) public {\n        require(\n            hasRole(PROMOTER, msg.sender),\n            \"Only promoters can submit protocols\"\n        );\n        require(\n            !hasRole(PROMOTER, _investigator),\n            \"Promoters cannot be investigators\"\n        );\n        require(\n            !hasRole(AUTHORITY, _investigator),\n            \"Authorities cannot be investigators\"\n        );\n        require(\n            !protocols[_id].registered,\n            \"The protocol is already registered\"\n        );\n\n        protocols[_id].promoter = msg.sender;\n        protocols[_id].investigator = _investigator;\n        protocols[_id].registered = true;\n        protocols[_id].cid = _cid;\n        protocols[_id].status = \"registered\";\n        protocols[_id].index = nbOfProtocolsRegistered;\n\n        protocolsID[nbOfProtocolsRegistered] = _id;\n        nbOfProtocolsRegistered++;\n\n        protocolNumerotation[center][category]++;\n\n        if (!hasRole(INVESTIGATOR, _investigator)) {\n            grantRole(INVESTIGATOR, _investigator);\n            roles[_investigator] = \"INVESTIGATOR\";\n        }\n\n        emit newProtocol(_id, msg.sender, _investigator);\n    }\n\n    function getProtocolCID(string memory _id)\n        public\n        view\n        returns (string memory)\n    {\n        require(\n            hasRole(PROMOTER, msg.sender) || hasRole(INVESTIGATOR, msg.sender),\n            \"only promoters and investigators have this right\"\n        );\n        require(\n            protocols[_id].promoter == msg.sender ||\n                protocols[_id].investigator == msg.sender,\n            \"You do not have right to open this project\"\n        );\n        require(\n            protocols[_id].authorized,\n            \"There is no protocol with this cid\"\n        );\n\n        return protocols[_id].cid;\n    }\n\n    function validateProtocol(string memory _id) public {\n        require(\n            hasRole(AUTHORITY, msg.sender),\n            \"Only authorities have right to validate protocols\"\n        );\n        require(\n            protocols[_id].registered == true,\n            \"There is no protocol associated with this ID\"\n        );\n\n        protocols[_id].authorized = true;\n        protocols[_id].status = \"validated\";\n\n        emit protocolValidated(_id);\n    }\n\n    function getProtocol(string memory _id)\n        public\n        view\n        returns (Protocol memory)\n    {\n        require(\n            protocols[_id].registered == true,\n            \"There is no protocol with this id\"\n        );\n        require(\n            protocols[_id].authorized == true,\n            \"This protocol hs not been validated yet\"\n        );\n\n        return protocols[_id];\n    }\n\n    function addPatient(\n        string memory _patientID,\n        address _patientAddress,\n        string memory _protocolID\n    ) public {\n        require(\n            hasRole(INVESTIGATOR, msg.sender),\n            \"Only investigators can add patients to protocols\"\n        );\n        require(\n            protocols[_protocolID].authorized == true,\n            \"This protocol has not been authorized yet\"\n        );\n        require(\n            msg.sender == protocols[_protocolID].investigator,\n            \"You do not have right to add patients to this protocol\"\n        );\n        //require(_patientAddress != protocols[_protocolID].patient, \"This patient already exist\");\n\n        patients[_patientID].consent = true;\n        patients[_patientID].patient = _patientAddress;\n        patients[_patientID].investigator = msg.sender;\n        patients[_patientID].protocolID = _protocolID;\n        protocols[_protocolID].nbOfPatients++;\n\n        emit patientAdded(_patientID, _protocolID);\n    }\n\n    function giveConsent(string memory _patientID) public {\n        require(\n            msg.sender == patients[_patientID].patient,\n            \"Your ID is not correct\"\n        );\n        require(\n            patients[_patientID].consent == false,\n            \"You did not consent yet\"\n        );\n\n        patients[_patientID].consent == true;\n\n        emit consentGiven(_patientID);\n    }\n\n    function revokeConsent(string memory _patientID) public {\n        require(\n            msg.sender == patients[_patientID].patient,\n            \"Your ID is not correct\"\n        );\n        require(\n            patients[_patientID].consent == true,\n            \"You already revoke your consent\"\n        );\n\n        patients[_patientID].consent == false;\n        delete patients[_patientID];\n\n        emit consentRevoked(_patientID);\n    }\n\n    function suspendTrials(string memory _protocolID) public {\n        require(\n            hasRole(AUTHORITY, msg.sender),\n            \"Only authoriities can suspend trials\"\n        );\n        require(protocols[_protocolID].authorized);\n\n        protocols[_protocolID].authorized = false;\n        protocols[_protocolID].status = \"suspended\";\n\n        emit protocolSuspended(_protocolID);\n    }\n\n    function resumeTrials(string memory _protocolID) public {\n        require(\n            hasRole(AUTHORITY, msg.sender),\n            \"Only authoriities can suspend trials\"\n        );\n        require(!protocols[_protocolID].authorized);\n\n        protocols[_protocolID].authorized = true;\n        protocols[_protocolID].status = \"resumed\";\n\n        emit protocolResumed(_protocolID);\n    }\n\n    function storeDataCID(string memory _patientID, string memory _cid) public {\n        require(\n            hasRole(INVESTIGATOR, msg.sender),\n            \"Only investigators can collect data\"\n        );\n        require(\n            msg.sender == patients[_patientID].investigator,\n            \"You do not have right for this patient\"\n        );\n        require(\n            patients[_patientID].consent == true,\n            \"Get the patient consent first\"\n        );\n\n        patients[_patientID].cids.push(_cid);\n\n        emit cidSaved(_cid);\n    }\n\n    function getDataCID(string memory _patientID)\n        public\n        view\n        returns (string[] memory)\n    {\n        require(\n            hasRole(INVESTIGATOR, msg.sender),\n            \"Only investigators can collect data\"\n        );\n        require(\n            msg.sender == patients[_patientID].investigator,\n            \"You do not have right for this patient\"\n        );\n        require(\n            patients[_patientID].consent == true,\n            \"Get the patient consent first\"\n        );\n\n        return patients[_patientID].cids;\n    }\n\n    function getProtocolStatus(string memory _protocolID)\n        public\n        view\n        returns (string memory)\n    {\n        return protocols[_protocolID].status;\n    }\n\n    function numberOfPatientByProtocol(string memory _protocolID)\n        public\n        view\n        returns (uint256)\n    {\n        return protocols[_protocolID].nbOfPatients;\n    }\n\n    function getRole(address _address) public view returns (string memory) {\n        return roles[_address];\n    }\n\n    function getProtocoleNumerotation(\n        string memory center,\n        string memory category\n    ) public view returns (uint256) {\n        return protocolNumerotation[center][category] + 1;\n    }\n}\n",
  "sourcePath": "/Users/samuel/Documents/Projet/Pojet_Dev/MedTrials/contracts/MedTrials.sol",
  "compiler": {
    "name": "solc",
    "version": "0.8.0+commit.c7dfd78e.Emscripten.clang"
  },
  "schemaVersion": "3.3.4",
  "updatedAt": "2021-05-03T14:49:47.944Z",
  "networkType": "ethereum",
  "devdoc": {
    "kind": "dev",
    "methods": {
      "getRoleAdmin(bytes32)": {
        "details": "Returns the admin role that controls `role`. See {grantRole} and {revokeRole}. To change a role's admin, use {_setRoleAdmin}."
      },
      "grantRole(bytes32,address)": {
        "details": "Grants `role` to `account`. If `account` had not been already granted `role`, emits a {RoleGranted} event. Requirements: - the caller must have ``role``'s admin role."
      },
      "hasRole(bytes32,address)": {
        "details": "Returns `true` if `account` has been granted `role`."
      },
      "renounceRole(bytes32,address)": {
        "details": "Revokes `role` from the calling account. Roles are often managed via {grantRole} and {revokeRole}: this function's purpose is to provide a mechanism for accounts to lose their privileges if they are compromised (such as when a trusted device is misplaced). If the calling account had been granted `role`, emits a {RoleRevoked} event. Requirements: - the caller must be `account`."
      },
      "revokeRole(bytes32,address)": {
        "details": "Revokes `role` from `account`. If `account` had been granted `role`, emits a {RoleRevoked} event. Requirements: - the caller must have ``role``'s admin role."
      },
      "supportsInterface(bytes4)": {
        "details": "See {IERC165-supportsInterface}."
      }
    },
    "version": 1
  },
  "userdoc": {
    "kind": "user",
    "methods": {},
    "version": 1
  }
}